{
  "_format": "hh3-artifact-1",
  "contractName": "CityCrafting",
  "sourceName": "contracts/crafting/CityCrafting.sol",
  "abi": [
    {
      "inputs": [
        {
          "internalType": "address",
          "name": "initialOwner",
          "type": "address"
        },
        {
          "internalType": "address",
          "name": "cityConfigAddress",
          "type": "address"
        }
      ],
      "stateMutability": "nonpayable",
      "type": "constructor"
    },
    {
      "inputs": [],
      "name": "InvalidConfig",
      "type": "error"
    },
    {
      "inputs": [],
      "name": "InvalidValue",
      "type": "error"
    },
    {
      "inputs": [],
      "name": "NotAuthorized",
      "type": "error"
    },
    {
      "inputs": [
        {
          "internalType": "address",
          "name": "owner",
          "type": "address"
        }
      ],
      "name": "OwnableInvalidOwner",
      "type": "error"
    },
    {
      "inputs": [
        {
          "internalType": "address",
          "name": "account",
          "type": "address"
        }
      ],
      "name": "OwnableUnauthorizedAccount",
      "type": "error"
    },
    {
      "inputs": [],
      "name": "ReentrancyGuardReentrantCall",
      "type": "error"
    },
    {
      "inputs": [],
      "name": "ZeroAddress",
      "type": "error"
    },
    {
      "anonymous": false,
      "inputs": [
        {
          "indexed": true,
          "internalType": "address",
          "name": "caller",
          "type": "address"
        },
        {
          "indexed": false,
          "internalType": "bool",
          "name": "allowed",
          "type": "bool"
        }
      ],
      "name": "AuthorizedCallerSet",
      "type": "event"
    },
    {
      "anonymous": false,
      "inputs": [
        {
          "indexed": true,
          "internalType": "address",
          "name": "blueprints",
          "type": "address"
        }
      ],
      "name": "CityBlueprintsSet",
      "type": "event"
    },
    {
      "anonymous": false,
      "inputs": [
        {
          "indexed": true,
          "internalType": "address",
          "name": "components",
          "type": "address"
        }
      ],
      "name": "CityComponentsSet",
      "type": "event"
    },
    {
      "anonymous": false,
      "inputs": [
        {
          "indexed": true,
          "internalType": "address",
          "name": "weapons",
          "type": "address"
        }
      ],
      "name": "CityWeaponsSet",
      "type": "event"
    },
    {
      "anonymous": false,
      "inputs": [
        {
          "indexed": true,
          "internalType": "address",
          "name": "user",
          "type": "address"
        },
        {
          "indexed": true,
          "internalType": "uint256",
          "name": "recipeId",
          "type": "uint256"
        },
        {
          "indexed": false,
          "internalType": "enum CityCrafting.RecipeOutputKind",
          "name": "outputKind",
          "type": "uint8"
        },
        {
          "indexed": false,
          "internalType": "uint256",
          "name": "outputId",
          "type": "uint256"
        },
        {
          "indexed": false,
          "internalType": "uint256",
          "name": "outputAmount",
          "type": "uint256"
        }
      ],
      "name": "Crafted",
      "type": "event"
    },
    {
      "anonymous": false,
      "inputs": [
        {
          "indexed": false,
          "internalType": "bool",
          "name": "paused",
          "type": "bool"
        }
      ],
      "name": "CraftingPausedSet",
      "type": "event"
    },
    {
      "anonymous": false,
      "inputs": [
        {
          "indexed": true,
          "internalType": "address",
          "name": "previousOwner",
          "type": "address"
        },
        {
          "indexed": true,
          "internalType": "address",
          "name": "newOwner",
          "type": "address"
        }
      ],
      "name": "OwnershipTransferred",
      "type": "event"
    },
    {
      "anonymous": false,
      "inputs": [
        {
          "indexed": true,
          "internalType": "address",
          "name": "user",
          "type": "address"
        },
        {
          "indexed": true,
          "internalType": "uint256",
          "name": "recipeId",
          "type": "uint256"
        }
      ],
      "name": "RecipeDiscovered",
      "type": "event"
    },
    {
      "anonymous": false,
      "inputs": [
        {
          "indexed": true,
          "internalType": "uint256",
          "name": "recipeId",
          "type": "uint256"
        },
        {
          "indexed": false,
          "internalType": "enum CityCrafting.RecipeOutputKind",
          "name": "outputKind",
          "type": "uint8"
        },
        {
          "indexed": false,
          "internalType": "uint256",
          "name": "outputId",
          "type": "uint256"
        },
        {
          "indexed": false,
          "internalType": "uint256",
          "name": "outputAmount",
          "type": "uint256"
        },
        {
          "indexed": false,
          "internalType": "bool",
          "name": "enabled",
          "type": "bool"
        }
      ],
      "name": "RecipeSet",
      "type": "event"
    },
    {
      "anonymous": false,
      "inputs": [
        {
          "indexed": true,
          "internalType": "address",
          "name": "user",
          "type": "address"
        },
        {
          "indexed": true,
          "internalType": "uint256",
          "name": "recipeId",
          "type": "uint256"
        },
        {
          "indexed": true,
          "internalType": "uint256",
          "name": "tokenId",
          "type": "uint256"
        },
        {
          "indexed": false,
          "internalType": "uint256",
          "name": "weaponDefinitionId",
          "type": "uint256"
        },
        {
          "indexed": false,
          "internalType": "uint256",
          "name": "craftNonce",
          "type": "uint256"
        }
      ],
      "name": "WeaponCrafted",
      "type": "event"
    },
    {
      "inputs": [],
      "name": "RESOURCE_COUNT",
      "outputs": [
        {
          "internalType": "uint256",
          "name": "",
          "type": "uint256"
        }
      ],
      "stateMutability": "view",
      "type": "function"
    },
    {
      "inputs": [
        {
          "internalType": "address",
          "name": "",
          "type": "address"
        }
      ],
      "name": "authorizedCallers",
      "outputs": [
        {
          "internalType": "bool",
          "name": "",
          "type": "bool"
        }
      ],
      "stateMutability": "view",
      "type": "function"
    },
    {
      "inputs": [],
      "name": "cityBlueprints",
      "outputs": [
        {
          "internalType": "contract ICityBlueprints",
          "name": "",
          "type": "address"
        }
      ],
      "stateMutability": "view",
      "type": "function"
    },
    {
      "inputs": [],
      "name": "cityComponents",
      "outputs": [
        {
          "internalType": "contract ICityComponents",
          "name": "",
          "type": "address"
        }
      ],
      "stateMutability": "view",
      "type": "function"
    },
    {
      "inputs": [],
      "name": "cityConfig",
      "outputs": [
        {
          "internalType": "contract CityConfig",
          "name": "",
          "type": "address"
        }
      ],
      "stateMutability": "view",
      "type": "function"
    },
    {
      "inputs": [],
      "name": "cityWeapons",
      "outputs": [
        {
          "internalType": "contract ICityWeapons",
          "name": "",
          "type": "address"
        }
      ],
      "stateMutability": "view",
      "type": "function"
    },
    {
      "inputs": [
        {
          "internalType": "uint256",
          "name": "recipeId",
          "type": "uint256"
        }
      ],
      "name": "craft",
      "outputs": [],
      "stateMutability": "nonpayable",
      "type": "function"
    },
    {
      "inputs": [],
      "name": "craftNonce",
      "outputs": [
        {
          "internalType": "uint256",
          "name": "",
          "type": "uint256"
        }
      ],
      "stateMutability": "view",
      "type": "function"
    },
    {
      "inputs": [
        {
          "internalType": "uint256",
          "name": "recipeId",
          "type": "uint256"
        },
        {
          "internalType": "uint256",
          "name": "originPlotId",
          "type": "uint256"
        },
        {
          "internalType": "uint256",
          "name": "originFaction",
          "type": "uint256"
        },
        {
          "internalType": "uint256",
          "name": "originDistrictKind",
          "type": "uint256"
        },
        {
          "internalType": "uint8",
          "name": "resonanceType",
          "type": "uint8"
        },
        {
          "internalType": "uint256",
          "name": "visualVariant",
          "type": "uint256"
        },
        {
          "internalType": "bool",
          "name": "genesisEra",
          "type": "bool"
        },
        {
          "internalType": "bool",
          "name": "usedAether",
          "type": "bool"
        }
      ],
      "name": "craftWeapon",
      "outputs": [
        {
          "internalType": "uint256",
          "name": "tokenId",
          "type": "uint256"
        }
      ],
      "stateMutability": "nonpayable",
      "type": "function"
    },
    {
      "inputs": [],
      "name": "craftingPaused",
      "outputs": [
        {
          "internalType": "bool",
          "name": "",
          "type": "bool"
        }
      ],
      "stateMutability": "view",
      "type": "function"
    },
    {
      "inputs": [
        {
          "internalType": "address",
          "name": "user",
          "type": "address"
        },
        {
          "internalType": "uint256",
          "name": "recipeId",
          "type": "uint256"
        }
      ],
      "name": "discoverRecipe",
      "outputs": [],
      "stateMutability": "nonpayable",
      "type": "function"
    },
    {
      "inputs": [
        {
          "internalType": "uint256",
          "name": "recipeId",
          "type": "uint256"
        }
      ],
      "name": "getRecipeCosts",
      "outputs": [
        {
          "internalType": "uint256[10]",
          "name": "",
          "type": "uint256[10]"
        }
      ],
      "stateMutability": "view",
      "type": "function"
    },
    {
      "inputs": [
        {
          "internalType": "address",
          "name": "",
          "type": "address"
        },
        {
          "internalType": "address",
          "name": "",
          "type": "address"
        },
        {
          "internalType": "uint256[]",
          "name": "",
          "type": "uint256[]"
        },
        {
          "internalType": "uint256[]",
          "name": "",
          "type": "uint256[]"
        },
        {
          "internalType": "bytes",
          "name": "",
          "type": "bytes"
        }
      ],
      "name": "onERC1155BatchReceived",
      "outputs": [
        {
          "internalType": "bytes4",
          "name": "",
          "type": "bytes4"
        }
      ],
      "stateMutability": "nonpayable",
      "type": "function"
    },
    {
      "inputs": [
        {
          "internalType": "address",
          "name": "",
          "type": "address"
        },
        {
          "internalType": "address",
          "name": "",
          "type": "address"
        },
        {
          "internalType": "uint256",
          "name": "",
          "type": "uint256"
        },
        {
          "internalType": "uint256",
          "name": "",
          "type": "uint256"
        },
        {
          "internalType": "bytes",
          "name": "",
          "type": "bytes"
        }
      ],
      "name": "onERC1155Received",
      "outputs": [
        {
          "internalType": "bytes4",
          "name": "",
          "type": "bytes4"
        }
      ],
      "stateMutability": "nonpayable",
      "type": "function"
    },
    {
      "inputs": [],
      "name": "owner",
      "outputs": [
        {
          "internalType": "address",
          "name": "",
          "type": "address"
        }
      ],
      "stateMutability": "view",
      "type": "function"
    },
    {
      "inputs": [
        {
          "internalType": "address",
          "name": "",
          "type": "address"
        },
        {
          "internalType": "uint256",
          "name": "",
          "type": "uint256"
        }
      ],
      "name": "recipeDiscoveredBy",
      "outputs": [
        {
          "internalType": "bool",
          "name": "",
          "type": "bool"
        }
      ],
      "stateMutability": "view",
      "type": "function"
    },
    {
      "inputs": [
        {
          "internalType": "uint256",
          "name": "",
          "type": "uint256"
        }
      ],
      "name": "recipeOf",
      "outputs": [
        {
          "internalType": "uint256",
          "name": "id",
          "type": "uint256"
        },
        {
          "internalType": "enum CityCrafting.RecipeOutputKind",
          "name": "outputKind",
          "type": "uint8"
        },
        {
          "internalType": "uint256",
          "name": "outputId",
          "type": "uint256"
        },
        {
          "internalType": "uint256",
          "name": "outputAmount",
          "type": "uint256"
        },
        {
          "internalType": "uint256",
          "name": "requiredFaction",
          "type": "uint256"
        },
        {
          "internalType": "uint256",
          "name": "requiredDistrictKind",
          "type": "uint256"
        },
        {
          "internalType": "uint256",
          "name": "requiredBuildingId",
          "type": "uint256"
        },
        {
          "internalType": "uint256",
          "name": "requiredTechTier",
          "type": "uint256"
        },
        {
          "internalType": "uint256",
          "name": "rarityTier",
          "type": "uint256"
        },
        {
          "internalType": "uint256",
          "name": "frameTier",
          "type": "uint256"
        },
        {
          "internalType": "bool",
          "name": "requiresDiscovery",
          "type": "bool"
        },
        {
          "internalType": "bool",
          "name": "enabled",
          "type": "bool"
        }
      ],
      "stateMutability": "view",
      "type": "function"
    },
    {
      "inputs": [],
      "name": "renounceOwnership",
      "outputs": [],
      "stateMutability": "nonpayable",
      "type": "function"
    },
    {
      "inputs": [
        {
          "internalType": "address",
          "name": "caller",
          "type": "address"
        },
        {
          "internalType": "bool",
          "name": "allowed",
          "type": "bool"
        }
      ],
      "name": "setAuthorizedCaller",
      "outputs": [],
      "stateMutability": "nonpayable",
      "type": "function"
    },
    {
      "inputs": [
        {
          "internalType": "address",
          "name": "cityBlueprintsAddress",
          "type": "address"
        }
      ],
      "name": "setCityBlueprints",
      "outputs": [],
      "stateMutability": "nonpayable",
      "type": "function"
    },
    {
      "inputs": [
        {
          "internalType": "address",
          "name": "cityComponentsAddress",
          "type": "address"
        }
      ],
      "name": "setCityComponents",
      "outputs": [],
      "stateMutability": "nonpayable",
      "type": "function"
    },
    {
      "inputs": [
        {
          "internalType": "address",
          "name": "cityWeaponsAddress",
          "type": "address"
        }
      ],
      "name": "setCityWeapons",
      "outputs": [],
      "stateMutability": "nonpayable",
      "type": "function"
    },
    {
      "inputs": [
        {
          "internalType": "bool",
          "name": "paused",
          "type": "bool"
        }
      ],
      "name": "setCraftingPaused",
      "outputs": [],
      "stateMutability": "nonpayable",
      "type": "function"
    },
    {
      "inputs": [
        {
          "internalType": "uint256",
          "name": "recipeId",
          "type": "uint256"
        },
        {
          "internalType": "enum CityCrafting.RecipeOutputKind",
          "name": "outputKind",
          "type": "uint8"
        },
        {
          "internalType": "uint256",
          "name": "outputId",
          "type": "uint256"
        },
        {
          "internalType": "uint256",
          "name": "outputAmount",
          "type": "uint256"
        },
        {
          "internalType": "uint256[10]",
          "name": "resourceCosts",
          "type": "uint256[10]"
        },
        {
          "internalType": "uint256",
          "name": "requiredFaction",
          "type": "uint256"
        },
        {
          "internalType": "uint256",
          "name": "requiredDistrictKind",
          "type": "uint256"
        },
        {
          "internalType": "uint256",
          "name": "requiredBuildingId",
          "type": "uint256"
        },
        {
          "internalType": "uint256",
          "name": "requiredTechTier",
          "type": "uint256"
        },
        {
          "internalType": "uint256",
          "name": "rarityTier",
          "type": "uint256"
        },
        {
          "internalType": "uint256",
          "name": "frameTier",
          "type": "uint256"
        },
        {
          "internalType": "bool",
          "name": "requiresDiscovery",
          "type": "bool"
        },
        {
          "internalType": "bool",
          "name": "enabled",
          "type": "bool"
        }
      ],
      "name": "setRecipe",
      "outputs": [],
      "stateMutability": "nonpayable",
      "type": "function"
    },
    {
      "inputs": [
        {
          "internalType": "bytes4",
          "name": "interfaceId",
          "type": "bytes4"
        }
      ],
      "name": "supportsInterface",
      "outputs": [
        {
          "internalType": "bool",
          "name": "",
          "type": "bool"
        }
      ],
      "stateMutability": "view",
      "type": "function"
    },
    {
      "inputs": [
        {
          "internalType": "address",
          "name": "newOwner",
          "type": "address"
        }
      ],
      "name": "transferOwnership",
      "outputs": [],
      "stateMutability": "nonpayable",
      "type": "function"
    }
  ],
  "bytecode": "0x60a0346100fc57601f6200185038819003918201601f19168301916001600160401b038311848410176101005780849260409485528339810103126100fc57610053602061004c83610114565b9201610114565b6001600160a01b03918216919082156100e4575f80546001600160a01b03198116851782556040519491908416907f8be0079c531659141344cd1fd0a4f28419497f9722a3daafe3b4186f6b6457e09080a360018055169081156100d557506080526040516117279081620001298239608051818181610f2d01526112740152f35b63d92e233d60e01b8152600490fd5b604051631e4fbdf760e01b81525f6004820152602490fd5b5f80fd5b634e487b7160e01b5f52604160045260245ffd5b51906001600160a01b03821682036100fc5756fe6080806040526004361015610012575f80fd5b5f3560e01c90816301ffc9a714610f5c575080630eac48f114610f185780633419818014610eb0578063454bbd2914610e23578063536fff6c14610de65780635b7aae2314610d305780635ca5d2f414610d08578063715018a614610cb15780637396063814610c4957806379b20b9214610be757806388ef338b14610b275780638c8f585514610b0a5780638d8b6a6714610a905780638da5cb5b14610a69578063a7c908eb14610825578063bbfdcb8b146107bd578063bc197c8114610734578063bee1ffe4146106eb578063c0f5adb3146106c9578063ca4a3db814610413578063ca85a280146103f8578063ccde8c86146103d0578063eedeed50146103a8578063f23a6e6114610352578063f2fde38b146102c85763f3917bd21461013a575f80fd5b346102c45760203660031901126102c457600435610156611194565b60ff600654166102b257805f52600760205260405f2060405161017881610fe8565b8154815260ff600183015416610192602083019182611129565b600283015492604083019384526003810154926060810193845260ff60146101bc60048501611135565b9360808401948552600e81015460a0850152600f81015460c0850152601081015460e08501526011810154610100850152601281015461012085015260138101546101408501520154818116151561016084015260081c16151561018082015261022633826111b7565b8251600881101561029e576004146102b25761024661024c925133611251565b33611566565b5191600883101561029e57519051906102686040518094610fdb565b602083015260408201527ff913df82e328793f3d5167547ec3e9f61f7ab84210d3b8b8e5d764c5d08cb60760603392a360018055005b634e487b7160e01b5f52602160045260245ffd5b604051632a9ffab760e21b8152600490fd5b5f80fd5b346102c45760203660031901126102c4576102e1610faf565b6102e9611169565b6001600160a01b0390811690811561033a575f54826bffffffffffffffffffffffff60a01b8216175f55167f8be0079c531659141344cd1fd0a4f28419497f9722a3daafe3b4186f6b6457e05f80a3005b604051631e4fbdf760e01b81525f6004820152602490fd5b346102c45760a03660031901126102c45761036b610faf565b50610374610fc5565b5060843567ffffffffffffffff81116102c4576103959036906004016110d3565b5060405163f23a6e6160e01b8152602090f35b346102c4575f3660031901126102c4576004546040516001600160a01b039091168152602090f35b346102c4575f3660031901126102c4576002546040516001600160a01b039091168152602090f35b346102c4575f3660031901126102c4576020604051600a8152f35b346102c457610100806003193601126102c457600435906084359060ff82168092036102c45760c435928315158094036102c45760e4358015158091036102c45761045c611194565b60ff600654166102b257815f526020946007865260405f206040519261048184610fe8565b8154845260ff6001830154169361049b8982019586611129565b60028301549660408201978852600384015460608301526104be60048501611135565b9060808301918252600e85015460a0840152600f85015460c0840152601085015460e0840152601185015490830152610530601285015492610120810193845260ff601460138801549761014084019889520154818116151561016084015260081c16151561018082015233906111b7565b8551600881101561029e576004036102b2576002546001600160a01b0395908616156106b7578a95610184946105685f945133611251565b600160055401918260055560025416928b51955197519c6040519d8e998a9863239c011d60e01b8a523360048b015260248a015260448901526064880152602435608488015260443560a488015260643560c488015260e487015260a4356101048701526101248601526101448501526101648401525af19384156106ac575f9461067d575b505191600883101561029e57818493825161060c6040518093610fdb565b87820152600160408201527ff913df82e328793f3d5167547ec3e9f61f7ab84210d3b8b8e5d764c5d08cb60760603392a351600554604051918252858201527f65f6e285e9a22c48123b444f6606f6c882a2059a0fc82f98dd1a25e7135587cf60403392a460018055604051908152f35b9093508481813d83116106a5575b610695818361104a565b810103126102c4575192856105ee565b503d61068b565b6040513d5f823e3d90fd5b6040516306b7c75960e31b8152600490fd5b346102c4575f3660031901126102c457602060ff600654166040519015158152f35b346102c45760403660031901126102c4576001600160a01b0361070c610faf565b165f52600960205260405f206024355f52602052602060ff60405f2054166040519015158152f35b346102c45760a03660031901126102c45761074d610faf565b50610756610fc5565b5067ffffffffffffffff6044358181116102c45761077890369060040161106c565b506064358181116102c45761079190369060040161106c565b506084359081116102c4576107aa9036906004016110d3565b5060405163bc197c8160e01b8152602090f35b346102c4576020806003193601126102c457604051906107dc8261102d565b61014080923690376004355f5260076020526107fd600460405f2001611135565b604051915f835b600a8210610810578585f35b82806001928651815201940191019092610804565b346102c4576102c03660031901126102c457600860243510156102c457366101c4116102c4576102843580151581036102c4576102a4359081151582036102c45761086e611169565b600435156102b257602435156102b257606435156102b2576040519061089382610fe8565b60043582526108a760243560208401611129565b604435604083015260643560608301526040516108c38161102d565b6084815b6101c48210610a5957505060808301526101c43560a08301526101e43560c08301526102043560e083015261022435610100830152610244356101208301526102643561014083015215156101608201528115156101808201526004355f52600760205260405f208151815560018082016020840151600881101561029e5760ff80198354169116179055604083015160028301556060830151600383015560808301515f5b600a8110610a435750505060146101809160a0840151600e82015560c0840151600f82015560e0840151601082015561010084015160118201556101208401516012820155610140840151601382015501916109dc6101608201511515849060ff801983541691151516179055565b0151815461ff00191690151560081b61ff001617905560405190610a0282602435610fdb565b60443560208301526064356040830152151560608201527fad906256843df74155740a478db7f432b0ae18b30b4bcd106ccc200be3ccbc7c608060043592a2005b829060208351930192600482870101550161096d565b81358152602091820191016108c7565b346102c4575f3660031901126102c4575f546040516001600160a01b039091168152602090f35b346102c45760203660031901126102c457610aa9610faf565b610ab1611169565b6001600160a01b03168015610af857600280546001600160a01b031916821790557f7f759bb7c376f0473b5dc09cdf8f4ae2690c9e974451ffe15182e4bd027628175f80a2005b60405163d92e233d60e01b8152600490fd5b346102c4575f3660031901126102c4576020600554604051908152f35b346102c45760403660031901126102c457610b40610faf565b5f54602435916001600160a01b0391821633148015610bd1575b15610bbf57168015610af857815f52600760205260405f2054156102b257805f52600960205260405f20825f5260205260405f20600160ff198254161790557f02d804e6c30c8899b7a9674452cde17ba5179436b38435f836827568933412505f80a3005b60405163ea8e4eb560e01b8152600490fd5b50335f52600860205260ff60405f205416610b5a565b346102c45760203660031901126102c4576004358015158091036102c45760207f96c7c52d2633fd0d21d074a0473310c093f5df78fe2cca20fcc5e70cfbe3ceb891610c31611169565b60ff196006541660ff821617600655604051908152a1005b346102c45760203660031901126102c457610c62610faf565b610c6a611169565b6001600160a01b03168015610af857600480546001600160a01b031916821790557f9351dc5d31a81008e0b50bb31a6bafbbac9887c5b59803f1178be53004c0dc435f80a2005b346102c4575f3660031901126102c457610cc9611169565b5f80546001600160a01b0319811682556001600160a01b03167f8be0079c531659141344cd1fd0a4f28419497f9722a3daafe3b4186f6b6457e08280a3005b346102c4575f3660031901126102c4576003546040516001600160a01b039091168152602090f35b346102c45760203660031901126102c4576004355f52600760205261018060405f2060ff815491816001820154169060028101546003820154600e830154600f840154601085015491601186015493601287015495610da3601460138a0154990154996040519c8d5260208d0190610fdb565b60408b015260608a0152608089015260a088015260c087015260e0860152610100850152610120840152818116151561014084015260081c161515610160820152f35b346102c45760203660031901126102c4576001600160a01b03610e07610faf565b165f526008602052602060ff60405f2054166040519015158152f35b346102c45760403660031901126102c457610e3c610faf565b60243590811515908183036102c457610e53611169565b6001600160a01b0316918215610af8577f1eff62a53441c7d0125c22f2a9a324e206b34efa41e19469d7efb9bb703d21a391610ea7602092855f526008845260405f209060ff801983541691151516179055565b604051908152a2005b346102c45760203660031901126102c457610ec9610faf565b610ed1611169565b6001600160a01b03168015610af857600380546001600160a01b031916821790557f25af1d122cf03855b88f08aa0ea4ee4396852188f3664636be56bc2f04c7201f5f80a2005b346102c4575f3660031901126102c4576040517f00000000000000000000000000000000000000000000000000000000000000006001600160a01b03168152602090f35b346102c45760203660031901126102c4576004359063ffffffff60e01b82168092036102c457602091630271189760e51b8114908115610f9e575b5015158152f35b6301ffc9a760e01b14905083610f97565b600435906001600160a01b03821682036102c457565b602435906001600160a01b03821682036102c457565b90600882101561029e5752565b6101a0810190811067ffffffffffffffff82111761100557604052565b634e487b7160e01b5f52604160045260245ffd5b67ffffffffffffffff811161100557604052565b610140810190811067ffffffffffffffff82111761100557604052565b90601f8019910116810190811067ffffffffffffffff82111761100557604052565b81601f820112156102c45780359160209167ffffffffffffffff8411611005578360051b90604051946110a18584018761104a565b855283808601928201019283116102c4578301905b8282106110c4575050505090565b813581529083019083016110b6565b81601f820112156102c45780359067ffffffffffffffff82116110055760405192611108601f8401601f19166020018561104a565b828452602083830101116102c457815f926020809301838601378301015290565b600882101561029e5752565b60405191905f835b600a8210611153575050506111518261102d565b565b600160208192855481520193019101909161113d565b5f546001600160a01b0316330361117c57565b60405163118cdaa760e01b8152336004820152602490fd5b6002600154146111a5576002600155565b604051633ee5aeb560e01b8152600490fd5b610180810151156102b2578051156102b257610160810151151591826111e0575b50506102b257565b90915060018060a01b03165f52600960205260405f2090515f5260205260ff60405f205416155f806111d8565b908160209103126102c457516001600160a01b03811681036102c45790565b90600a81101561123d5760051b0190565b634e487b7160e01b5f52603260045260245ffd5b60408051635bc9316b60e11b8152909291600491906001600160a01b03906020907f0000000000000000000000000000000000000000000000000000000000000000831682858781845afa94851561155c575f9561152d575b50875190630763334160e21b95868352878301526024918481602481855afa9081156113d8579086915f91611510575b50169586156115005789516353c7345d60e01b81529085828a81865afa9182156114f657908692915f926114c4575b506024908c51948593849283528c8301525afa9081156114ba579085915f9161148d575b501692831561147d575f5b600a81106113e25750505f5b600a811061135757505050505050505050565b611361818961122c565b5180611371575b50600101611344565b863b156102c457895190637921219560e11b8252868516898301528584830152826044830152606482015260a060848201525f60a48201525f8160c481838b5af180156113d85790600192916113c9575b5090611368565b6113d290611019565b5f6113c2565b8a513d5f823e3d90fd5b6113ec818a61122c565b51806113fc575b50600101611338565b8a51627eeac760e11b81528588168a82015284810183905283816044818c5afa908115611473575f91611446575b5010611436575f6113f3565b8951632a9ffab760e21b81528890fd5b90508381813d831161146c575b61145d818361104a565b810103126102c457515f61142a565b503d611453565b8c513d5f823e3d90fd5b88516306b7c75960e31b81528790fd5b6114ad9150853d87116114b3575b6114a5818361104a565b81019061120d565b5f61132d565b503d61149b565b89513d5f823e3d90fd5b8381949293503d83116114ef575b6114dc818361104a565b810103126102c457905185916024611309565b503d6114d2565b8b513d5f823e3d90fd5b89516306b7c75960e31b81528890fd5b6115279150863d88116114b3576114a5818361104a565b5f6112da565b9094508281813d8311611555575b611545818361104a565b810103126102c45751935f6112aa565b503d61153b565b88513d5f823e3d90fd5b909160208301928351926008938481101561029e5760021461168b5784518481101561029e5760031461160f5750505081518181101561029e576001149182156115fa575b82156115e5575b82156115d1575b50506102b257604051632a9ffab760e21b8152600490fd5b51915081101561029e576007145f806115b9565b809250518181101561029e57600614916115b2565b809250518181101561029e57600514916115ab565b600454929450909250906001600160a01b031680156106b7576060604084015193015190803b156102c457604051630a17cd4160e31b81526001600160a01b03909316600484015260248301939093526044820152905f908290818381606481015b03925af180156106ac576116825750565b61115190611019565b600354929450909250906001600160a01b031680156106b7576060604084015193015190803b156102c45760405163dafb890560e01b81526001600160a01b03909316600484015260248301939093526044820152905f9082908183816064810161167156fea2646970667358221220a5cecd8332686d9058c349630f6a0302b7bda09910f5ecc41f4cc6927e80f2c464736f6c63430008180033",
  "linkReferences": {},
  "deployedLinkReferences": {},
  "immutableReferences": {
    "7049": [
      {
        "length": 32,
        "start": 3885
      },
      {
        "length": 32,
        "start": 4724
      }
    ]
  },
  "inputSourceName": "project/contracts/crafting/CityCrafting.sol",
  "buildInfoId": "solc-0_8_24-fdfd431a1104898f233b03522f5f8c2a6b355974"
}