{
  "_format": "hh3-artifact-1",
  "contractName": "CityMateriaItems",
  "sourceName": "contracts/crafting/CityMateriaItems.sol",
  "abi": [
    {
      "inputs": [
        {
          "internalType": "address",
          "name": "initialOwner",
          "type": "address"
        },
        {
          "internalType": "address",
          "name": "cityMateriaAddress",
          "type": "address"
        },
        {
          "internalType": "string",
          "name": "initialURI",
          "type": "string"
        }
      ],
      "stateMutability": "nonpayable",
      "type": "constructor"
    },
    {
      "inputs": [
        {
          "internalType": "address",
          "name": "sender",
          "type": "address"
        },
        {
          "internalType": "uint256",
          "name": "balance",
          "type": "uint256"
        },
        {
          "internalType": "uint256",
          "name": "needed",
          "type": "uint256"
        },
        {
          "internalType": "uint256",
          "name": "tokenId",
          "type": "uint256"
        }
      ],
      "name": "ERC1155InsufficientBalance",
      "type": "error"
    },
    {
      "inputs": [
        {
          "internalType": "address",
          "name": "approver",
          "type": "address"
        }
      ],
      "name": "ERC1155InvalidApprover",
      "type": "error"
    },
    {
      "inputs": [
        {
          "internalType": "uint256",
          "name": "idsLength",
          "type": "uint256"
        },
        {
          "internalType": "uint256",
          "name": "valuesLength",
          "type": "uint256"
        }
      ],
      "name": "ERC1155InvalidArrayLength",
      "type": "error"
    },
    {
      "inputs": [
        {
          "internalType": "address",
          "name": "operator",
          "type": "address"
        }
      ],
      "name": "ERC1155InvalidOperator",
      "type": "error"
    },
    {
      "inputs": [
        {
          "internalType": "address",
          "name": "receiver",
          "type": "address"
        }
      ],
      "name": "ERC1155InvalidReceiver",
      "type": "error"
    },
    {
      "inputs": [
        {
          "internalType": "address",
          "name": "sender",
          "type": "address"
        }
      ],
      "name": "ERC1155InvalidSender",
      "type": "error"
    },
    {
      "inputs": [
        {
          "internalType": "address",
          "name": "operator",
          "type": "address"
        },
        {
          "internalType": "address",
          "name": "owner",
          "type": "address"
        }
      ],
      "name": "ERC1155MissingApprovalForAll",
      "type": "error"
    },
    {
      "inputs": [],
      "name": "InvalidValue",
      "type": "error"
    },
    {
      "inputs": [],
      "name": "NotAuthorized",
      "type": "error"
    },
    {
      "inputs": [
        {
          "internalType": "address",
          "name": "owner",
          "type": "address"
        }
      ],
      "name": "OwnableInvalidOwner",
      "type": "error"
    },
    {
      "inputs": [
        {
          "internalType": "address",
          "name": "account",
          "type": "address"
        }
      ],
      "name": "OwnableUnauthorizedAccount",
      "type": "error"
    },
    {
      "inputs": [],
      "name": "ZeroAddress",
      "type": "error"
    },
    {
      "anonymous": false,
      "inputs": [
        {
          "indexed": true,
          "internalType": "address",
          "name": "account",
          "type": "address"
        },
        {
          "indexed": true,
          "internalType": "address",
          "name": "operator",
          "type": "address"
        },
        {
          "indexed": false,
          "internalType": "bool",
          "name": "approved",
          "type": "bool"
        }
      ],
      "name": "ApprovalForAll",
      "type": "event"
    },
    {
      "anonymous": false,
      "inputs": [
        {
          "indexed": true,
          "internalType": "address",
          "name": "consumer",
          "type": "address"
        },
        {
          "indexed": false,
          "internalType": "bool",
          "name": "allowed",
          "type": "bool"
        }
      ],
      "name": "AuthorizedConsumerSet",
      "type": "event"
    },
    {
      "anonymous": false,
      "inputs": [
        {
          "indexed": true,
          "internalType": "address",
          "name": "minter",
          "type": "address"
        },
        {
          "indexed": false,
          "internalType": "bool",
          "name": "allowed",
          "type": "bool"
        }
      ],
      "name": "AuthorizedMinterSet",
      "type": "event"
    },
    {
      "anonymous": false,
      "inputs": [
        {
          "indexed": false,
          "internalType": "string",
          "name": "newBaseMetadataURI",
          "type": "string"
        }
      ],
      "name": "BaseMetadataURISet",
      "type": "event"
    },
    {
      "anonymous": false,
      "inputs": [
        {
          "indexed": true,
          "internalType": "address",
          "name": "from",
          "type": "address"
        },
        {
          "indexed": true,
          "internalType": "uint256",
          "name": "itemId",
          "type": "uint256"
        },
        {
          "indexed": false,
          "internalType": "uint256",
          "name": "amount",
          "type": "uint256"
        }
      ],
      "name": "MateriaItemBurned",
      "type": "event"
    },
    {
      "anonymous": false,
      "inputs": [
        {
          "indexed": true,
          "internalType": "uint256",
          "name": "itemId",
          "type": "uint256"
        },
        {
          "indexed": true,
          "internalType": "uint256",
          "name": "materiaDefinitionId",
          "type": "uint256"
        },
        {
          "indexed": false,
          "internalType": "uint256",
          "name": "level",
          "type": "uint256"
        },
        {
          "indexed": false,
          "internalType": "uint256",
          "name": "rarityTier",
          "type": "uint256"
        },
        {
          "indexed": false,
          "internalType": "bool",
          "name": "burnOnUse",
          "type": "bool"
        },
        {
          "indexed": false,
          "internalType": "bool",
          "name": "enabled",
          "type": "bool"
        }
      ],
      "name": "MateriaItemDefinitionSet",
      "type": "event"
    },
    {
      "anonymous": false,
      "inputs": [
        {
          "indexed": true,
          "internalType": "address",
          "name": "to",
          "type": "address"
        },
        {
          "indexed": true,
          "internalType": "uint256",
          "name": "itemId",
          "type": "uint256"
        },
        {
          "indexed": false,
          "internalType": "uint256",
          "name": "amount",
          "type": "uint256"
        }
      ],
      "name": "MateriaItemMinted",
      "type": "event"
    },
    {
      "anonymous": false,
      "inputs": [
        {
          "indexed": true,
          "internalType": "address",
          "name": "previousOwner",
          "type": "address"
        },
        {
          "indexed": true,
          "internalType": "address",
          "name": "newOwner",
          "type": "address"
        }
      ],
      "name": "OwnershipTransferred",
      "type": "event"
    },
    {
      "anonymous": false,
      "inputs": [
        {
          "indexed": true,
          "internalType": "address",
          "name": "operator",
          "type": "address"
        },
        {
          "indexed": true,
          "internalType": "address",
          "name": "from",
          "type": "address"
        },
        {
          "indexed": true,
          "internalType": "address",
          "name": "to",
          "type": "address"
        },
        {
          "indexed": false,
          "internalType": "uint256[]",
          "name": "ids",
          "type": "uint256[]"
        },
        {
          "indexed": false,
          "internalType": "uint256[]",
          "name": "values",
          "type": "uint256[]"
        }
      ],
      "name": "TransferBatch",
      "type": "event"
    },
    {
      "anonymous": false,
      "inputs": [
        {
          "indexed": true,
          "internalType": "address",
          "name": "operator",
          "type": "address"
        },
        {
          "indexed": true,
          "internalType": "address",
          "name": "from",
          "type": "address"
        },
        {
          "indexed": true,
          "internalType": "address",
          "name": "to",
          "type": "address"
        },
        {
          "indexed": false,
          "internalType": "uint256",
          "name": "id",
          "type": "uint256"
        },
        {
          "indexed": false,
          "internalType": "uint256",
          "name": "value",
          "type": "uint256"
        }
      ],
      "name": "TransferSingle",
      "type": "event"
    },
    {
      "anonymous": false,
      "inputs": [
        {
          "indexed": false,
          "internalType": "string",
          "name": "value",
          "type": "string"
        },
        {
          "indexed": true,
          "internalType": "uint256",
          "name": "id",
          "type": "uint256"
        }
      ],
      "name": "URI",
      "type": "event"
    },
    {
      "inputs": [
        {
          "internalType": "address",
          "name": "",
          "type": "address"
        }
      ],
      "name": "authorizedConsumers",
      "outputs": [
        {
          "internalType": "bool",
          "name": "",
          "type": "bool"
        }
      ],
      "stateMutability": "view",
      "type": "function"
    },
    {
      "inputs": [
        {
          "internalType": "address",
          "name": "",
          "type": "address"
        }
      ],
      "name": "authorizedMinters",
      "outputs": [
        {
          "internalType": "bool",
          "name": "",
          "type": "bool"
        }
      ],
      "stateMutability": "view",
      "type": "function"
    },
    {
      "inputs": [
        {
          "internalType": "address",
          "name": "account",
          "type": "address"
        },
        {
          "internalType": "uint256",
          "name": "id",
          "type": "uint256"
        }
      ],
      "name": "balanceOf",
      "outputs": [
        {
          "internalType": "uint256",
          "name": "",
          "type": "uint256"
        }
      ],
      "stateMutability": "view",
      "type": "function"
    },
    {
      "inputs": [
        {
          "internalType": "address[]",
          "name": "accounts",
          "type": "address[]"
        },
        {
          "internalType": "uint256[]",
          "name": "ids",
          "type": "uint256[]"
        }
      ],
      "name": "balanceOfBatch",
      "outputs": [
        {
          "internalType": "uint256[]",
          "name": "",
          "type": "uint256[]"
        }
      ],
      "stateMutability": "view",
      "type": "function"
    },
    {
      "inputs": [],
      "name": "baseMetadataURI",
      "outputs": [
        {
          "internalType": "string",
          "name": "",
          "type": "string"
        }
      ],
      "stateMutability": "view",
      "type": "function"
    },
    {
      "inputs": [
        {
          "internalType": "address",
          "name": "from",
          "type": "address"
        },
        {
          "internalType": "uint256",
          "name": "itemId",
          "type": "uint256"
        },
        {
          "internalType": "uint256",
          "name": "amount",
          "type": "uint256"
        }
      ],
      "name": "burnMateriaItem",
      "outputs": [],
      "stateMutability": "nonpayable",
      "type": "function"
    },
    {
      "inputs": [],
      "name": "cityMateria",
      "outputs": [
        {
          "internalType": "contract CityMateria",
          "name": "",
          "type": "address"
        }
      ],
      "stateMutability": "view",
      "type": "function"
    },
    {
      "inputs": [
        {
          "internalType": "uint256",
          "name": "itemId",
          "type": "uint256"
        }
      ],
      "name": "getMateriaDefinitionForItem",
      "outputs": [
        {
          "components": [
            {
              "internalType": "uint256",
              "name": "id",
              "type": "uint256"
            },
            {
              "internalType": "string",
              "name": "name",
              "type": "string"
            },
            {
              "internalType": "enum CityMateria.MateriaCategory",
              "name": "category",
              "type": "uint8"
            },
            {
              "internalType": "enum CityMateria.MateriaElement",
              "name": "element",
              "type": "uint8"
            },
            {
              "internalType": "uint256",
              "name": "rarityTier",
              "type": "uint256"
            },
            {
              "internalType": "uint256",
              "name": "maxLevel",
              "type": "uint256"
            },
            {
              "internalType": "bool",
              "name": "enabled",
              "type": "bool"
            }
          ],
          "internalType": "struct CityMateria.MateriaDefinition",
          "name": "",
          "type": "tuple"
        }
      ],
      "stateMutability": "view",
      "type": "function"
    },
    {
      "inputs": [
        {
          "internalType": "uint256",
          "name": "itemId",
          "type": "uint256"
        }
      ],
      "name": "getMateriaItemMeta",
      "outputs": [
        {
          "internalType": "uint256",
          "name": "materiaDefinitionId",
          "type": "uint256"
        },
        {
          "internalType": "uint256",
          "name": "level",
          "type": "uint256"
        },
        {
          "internalType": "uint256",
          "name": "rarityTier",
          "type": "uint256"
        },
        {
          "internalType": "bool",
          "name": "burnOnUse",
          "type": "bool"
        },
        {
          "internalType": "bool",
          "name": "enabled",
          "type": "bool"
        }
      ],
      "stateMutability": "view",
      "type": "function"
    },
    {
      "inputs": [
        {
          "internalType": "address",
          "name": "account",
          "type": "address"
        },
        {
          "internalType": "address",
          "name": "operator",
          "type": "address"
        }
      ],
      "name": "isApprovedForAll",
      "outputs": [
        {
          "internalType": "bool",
          "name": "",
          "type": "bool"
        }
      ],
      "stateMutability": "view",
      "type": "function"
    },
    {
      "inputs": [
        {
          "internalType": "uint256",
          "name": "itemId",
          "type": "uint256"
        }
      ],
      "name": "isMateriaItemEnabled",
      "outputs": [
        {
          "internalType": "bool",
          "name": "",
          "type": "bool"
        }
      ],
      "stateMutability": "view",
      "type": "function"
    },
    {
      "inputs": [
        {
          "internalType": "uint256",
          "name": "itemId",
          "type": "uint256"
        }
      ],
      "name": "isMateriaItemUsable",
      "outputs": [
        {
          "internalType": "bool",
          "name": "",
          "type": "bool"
        }
      ],
      "stateMutability": "view",
      "type": "function"
    },
    {
      "inputs": [
        {
          "internalType": "uint256",
          "name": "",
          "type": "uint256"
        }
      ],
      "name": "materiaItemDefinitionOf",
      "outputs": [
        {
          "internalType": "uint256",
          "name": "id",
          "type": "uint256"
        },
        {
          "internalType": "uint256",
          "name": "materiaDefinitionId",
          "type": "uint256"
        },
        {
          "internalType": "uint256",
          "name": "level",
          "type": "uint256"
        },
        {
          "internalType": "uint256",
          "name": "rarityTier",
          "type": "uint256"
        },
        {
          "internalType": "bool",
          "name": "burnOnUse",
          "type": "bool"
        },
        {
          "internalType": "bool",
          "name": "enabled",
          "type": "bool"
        }
      ],
      "stateMutability": "view",
      "type": "function"
    },
    {
      "inputs": [
        {
          "internalType": "uint256",
          "name": "itemId",
          "type": "uint256"
        }
      ],
      "name": "materiaItemExists",
      "outputs": [
        {
          "internalType": "bool",
          "name": "",
          "type": "bool"
        }
      ],
      "stateMutability": "view",
      "type": "function"
    },
    {
      "inputs": [
        {
          "internalType": "address",
          "name": "to",
          "type": "address"
        },
        {
          "internalType": "uint256",
          "name": "itemId",
          "type": "uint256"
        },
        {
          "internalType": "uint256",
          "name": "amount",
          "type": "uint256"
        }
      ],
      "name": "mintMateriaItem",
      "outputs": [],
      "stateMutability": "nonpayable",
      "type": "function"
    },
    {
      "inputs": [],
      "name": "owner",
      "outputs": [
        {
          "internalType": "address",
          "name": "",
          "type": "address"
        }
      ],
      "stateMutability": "view",
      "type": "function"
    },
    {
      "inputs": [],
      "name": "renounceOwnership",
      "outputs": [],
      "stateMutability": "nonpayable",
      "type": "function"
    },
    {
      "inputs": [
        {
          "internalType": "address",
          "name": "from",
          "type": "address"
        },
        {
          "internalType": "address",
          "name": "to",
          "type": "address"
        },
        {
          "internalType": "uint256[]",
          "name": "ids",
          "type": "uint256[]"
        },
        {
          "internalType": "uint256[]",
          "name": "values",
          "type": "uint256[]"
        },
        {
          "internalType": "bytes",
          "name": "data",
          "type": "bytes"
        }
      ],
      "name": "safeBatchTransferFrom",
      "outputs": [],
      "stateMutability": "nonpayable",
      "type": "function"
    },
    {
      "inputs": [
        {
          "internalType": "address",
          "name": "from",
          "type": "address"
        },
        {
          "internalType": "address",
          "name": "to",
          "type": "address"
        },
        {
          "internalType": "uint256",
          "name": "id",
          "type": "uint256"
        },
        {
          "internalType": "uint256",
          "name": "value",
          "type": "uint256"
        },
        {
          "internalType": "bytes",
          "name": "data",
          "type": "bytes"
        }
      ],
      "name": "safeTransferFrom",
      "outputs": [],
      "stateMutability": "nonpayable",
      "type": "function"
    },
    {
      "inputs": [
        {
          "internalType": "address",
          "name": "operator",
          "type": "address"
        },
        {
          "internalType": "bool",
          "name": "approved",
          "type": "bool"
        }
      ],
      "name": "setApprovalForAll",
      "outputs": [],
      "stateMutability": "nonpayable",
      "type": "function"
    },
    {
      "inputs": [
        {
          "internalType": "address",
          "name": "consumer",
          "type": "address"
        },
        {
          "internalType": "bool",
          "name": "allowed",
          "type": "bool"
        }
      ],
      "name": "setAuthorizedConsumer",
      "outputs": [],
      "stateMutability": "nonpayable",
      "type": "function"
    },
    {
      "inputs": [
        {
          "internalType": "address",
          "name": "minter",
          "type": "address"
        },
        {
          "internalType": "bool",
          "name": "allowed",
          "type": "bool"
        }
      ],
      "name": "setAuthorizedMinter",
      "outputs": [],
      "stateMutability": "nonpayable",
      "type": "function"
    },
    {
      "inputs": [
        {
          "internalType": "string",
          "name": "newBaseMetadataURI",
          "type": "string"
        }
      ],
      "name": "setBaseMetadataURI",
      "outputs": [],
      "stateMutability": "nonpayable",
      "type": "function"
    },
    {
      "inputs": [
        {
          "internalType": "uint256",
          "name": "itemId",
          "type": "uint256"
        },
        {
          "internalType": "uint256",
          "name": "materiaDefinitionId",
          "type": "uint256"
        },
        {
          "internalType": "uint256",
          "name": "level",
          "type": "uint256"
        },
        {
          "internalType": "uint256",
          "name": "rarityTier",
          "type": "uint256"
        },
        {
          "internalType": "bool",
          "name": "burnOnUse",
          "type": "bool"
        },
        {
          "internalType": "bool",
          "name": "enabled",
          "type": "bool"
        }
      ],
      "name": "setMateriaItemDefinition",
      "outputs": [],
      "stateMutability": "nonpayable",
      "type": "function"
    },
    {
      "inputs": [
        {
          "internalType": "bytes4",
          "name": "interfaceId",
          "type": "bytes4"
        }
      ],
      "name": "supportsInterface",
      "outputs": [
        {
          "internalType": "bool",
          "name": "",
          "type": "bool"
        }
      ],
      "stateMutability": "view",
      "type": "function"
    },
    {
      "inputs": [
        {
          "internalType": "address",
          "name": "newOwner",
          "type": "address"
        }
      ],
      "name": "transferOwnership",
      "outputs": [],
      "stateMutability": "nonpayable",
      "type": "function"
    },
    {
      "inputs": [
        {
          "internalType": "uint256",
          "name": "itemId",
          "type": "uint256"
        }
      ],
      "name": "uri",
      "outputs": [
        {
          "internalType": "string",
          "name": "",
          "type": "string"
        }
      ],
      "stateMutability": "view",
      "type": "function"
    }
  ],
  "bytecode": "0x60a060405234620003eb5762002857803803806200001d81620003ef565b9283398101606082820312620003eb57620000388262000415565b916020926200004984830162000415565b60408301516001600160401b0393848211620003eb570193601f91818387011215620003eb57855195858711620002c857601f19966200008f85820189168a01620003ef565b93818552898284010111620003eb5788915f5b828110620003d7575050905f9184010152815193858511620002c857600254946001958681811c91168015620003cc575b8a821014620003b8578581116200036f575b5080898682116001146200030f575f9162000303575b505f19600383901b1c191690861b176002555b6001600160a01b03908116918215620002eb57600380546001600160a01b031981168517909155604051939083167f8be0079c531659141344cd1fd0a4f28419497f9722a3daafe3b4186f6b6457e05f80a316908115620002dc57506080528051938411620002c85760049586548481811c91168015620002bd575b82821014620002aa5783811162000262575b5080928511600114620001fd5750839450908392915f94620001f1575b50501b915f199060031b1c19161790555b60405161242c90816200042b82396080518181816106e101528181610a780152610ea90152f35b015192505f80620001b9565b929484908116875f52845f20945f905b888383106200024757505050106200022e575b505050811b019055620001ca565b01515f1960f88460031b161c191690555f808062000220565b8587015188559096019594850194879350908101906200020d565b875f52815f208480880160051c820192848910620002a0575b0160051c019085905b828110620002945750506200019c565b5f815501859062000284565b925081926200027b565b602288634e487b7160e01b5f525260245ffd5b90607f16906200018a565b634e487b7160e01b5f52604160045260245ffd5b63d92e233d60e01b8152600490fd5b604051631e4fbdf760e01b81525f6004820152602490fd5b90508401515f620000fb565b898893169060025f528b5f20915f5b8d8282106200035857505083116200033f575b5050811b016002556200010e565b8601515f1960f88460031b161c191690555f8062000331565b838a015185558b969094019392830192016200031e565b60025f52895f208680840160051c8201928c8510620003ae575b0160051c019087905b828110620003a2575050620000e5565b5f815501879062000392565b9250819262000389565b634e487b7160e01b5f52602260045260245ffd5b90607f1690620000d3565b8181018401518682018501528301620000a2565b5f80fd5b6040519190601f01601f191682016001600160401b03811183821017620002c857604052565b51906001600160a01b0382168203620003eb5756fe60806040526004361015610011575f80fd5b5f3560e01c8062fdd58e146101c357806301ffc9a7146101be5780630541c826146101b957806307055840146101b45780630e89341c146101af5780632c81f8b3146101aa5780632cb748e2146101a55780632eb2c2d6146101a05780633d0f50b71461019b57806341fe0f71146101965780634e1273f4146101915780635b2bd79e1461018c5780635e8f1b7c146101875780636000434d146101825780636178a6101461017d578063715018a61461017857806371de7713146101735780637e518ec81461016e5780637ed92486146101695780638da5cb5b14610164578063a22cb4651461015f578063aa2fe91b1461015a578063e985e9c514610155578063ed58bad814610150578063f242432a1461014b578063f2fde38b146101465763f3f6104a14610141575f80fd5b61160b565b61157f565b611465565b6113e3565b611387565b61134a565b611293565b61126b565b6111ae565b61102c565b611004565b610fa9565b610f04565b610ed8565b610e94565b610dd7565b610ce5565b610c14565b610a08565b6108d9565b610681565b6104ef565b6103d3565b61033c565b6102d4565b610266565b61020c565b600435906001600160a01b03821682036101de57565b5f80fd5b602435906001600160a01b03821682036101de57565b35906001600160a01b03821682036101de57565b346101de5760403660031901126101de57602061024b61022a6101c8565b6024355f525f835260405f209060018060a01b03165f5260205260405f2090565b54604051908152f35b6001600160e01b03198116036101de57565b346101de5760203660031901126101de57602060043561028581610254565b63ffffffff60e01b16636cdb3d1360e11b81149081156102c3575b81156102b2575b506040519015158152f35b6301ffc9a760e01b1490505f6102a7565b6303a24d0760e21b811491506102a0565b346101de5760203660031901126101de576004355f52600560205260c060405f2060ff815491600181015490600281015460046003830154920154926040519586526020860152604085015260608401528181161515608084015260081c16151560a0820152f35b346101de5760203660031901126101de576001600160a01b0361035d6101c8565b165f526007602052602060ff60405f2054166040519015158152f35b5f5b83811061038a5750505f910152565b818101518382015260200161037b565b906020916103b381518092818552858086019101610379565b601f01601f1916010190565b9060206103d092818152019061039a565b90565b346101de576020806003193601126101de576103f0600435611b05565b604051905f9260045461040281610d9f565b906001908181169081156104a6575060011461045d575b6104598561044d8161043f61042e8b8a611640565b64173539b7b760d91b815260050190565b03601f1981018352826107b2565b604051918291826103bf565b0390f35b9091945060045f525f805160206123d7833981519152905f915b838310610493575050508201909201918161043f61042e610419565b8054868401880152918601918101610477565b60ff19168685015250508015150283010192508161043f61042e610419565b60609060031901126101de576004356001600160a01b03811681036101de57906024359060443590565b346101de576104fd366104c5565b6003549192916001600160a01b03908116331480156105dd575b156105cb5782169182156105b957811561059a57610545610540855f52600560205260405f2090565b611657565b8051159081156105ac575b5061059a57816105857f498ffe87177420df51072eb076f9a04891abc76ca7242b6cf09f4d3ceebaf839938661059594611ba8565b6040519081529081906020820190565b0390a3005b604051632a9ffab760e21b8152600490fd5b60a001511590505f610550565b60405163d92e233d60e01b8152600490fd5b60405163ea8e4eb560e01b8152600490fd5b50335f52600760205260ff60405f205416610517565b634e487b7160e01b5f52602160045260245ffd5b90602082528051602083015261062d602082015160e0604085015261010084019061039a565b916040820151600881101561067c576060820152606082015191600c83101561067c5760c060e0916103d0946080850152608081015160a085015260a081015182850152015191019015159052565b6105f3565b346101de5760203660031901126101de5761069a6116a5565b506106b26105406004355f52600560205260405f2090565b80511561059a5760200151604051633b732d7f60e21b815260048101919091525f816024816001600160a01b037f0000000000000000000000000000000000000000000000000000000000000000165afa801561074357610459915f91610721575b5060405191829182610607565b61073d91503d805f833e61073581836107b2565b810190611753565b5f610714565b6117ee565b634e487b7160e01b5f52604160045260245ffd5b60c081019081106001600160401b0382111761077757604052565b610748565b602081019081106001600160401b0382111761077757604052565b604081019081106001600160401b0382111761077757604052565b90601f801991011681019081106001600160401b0382111761077757604052565b604051906107e08261075c565b565b6040519060e082018281106001600160401b0382111761077757604052565b6001600160401b0381116107775760051b60200190565b9080601f830112156101de57602090823561083281610801565b9361084060405195866107b2565b81855260208086019260051b8201019283116101de57602001905b828210610869575050505090565b8135815290830190830161085b565b6001600160401b03811161077757601f01601f191660200190565b81601f820112156101de578035906108aa82610878565b926108b860405194856107b2565b828452602083830101116101de57815f926020809301838601378301015290565b346101de5760a03660031901126101de576108f26101c8565b6108fa6101e2565b90604435916001600160401b03908184116101de5761091e60049436908601610818565b906064358381116101de576109369036908701610818565b926084359081116101de5761094e9036908701610893565b936001600160a01b038082169033821415806109db575b6109ae5783161561099757156109815761097f9550611ea2565b005b604051626a0d4560e21b81525f81880152602490fd5b604051632bfa23e760e11b81525f81890152602490fd5b6040805163711bec9160e11b815233818b019081526001600160a01b038616602082015290918291010390fd5b505f82815260016020908152604080832033845290915290205460ff1615610965565b801515036101de57565b346101de5760c03660031901126101de57600480356024359160443560643591608435610a34816109fe565b60a43591610a41836109fe565b610a49611d34565b8515610c05578615610c05578315610c055760408051631ea388d760e01b8152808301898152919260209290917f00000000000000000000000000000000000000000000000000000000000000006001600160a01b03169184908290819083010381855afa908115610743575f91610be8575b5015610bd9578351637755e78360e01b81528281018b815260208101899052909184918391908290819060400103915afa908115610743575f91610bac575b5015610b9e5750917fad6645ead02a30dd44aa98dd12ba0d25d18ce0a971928b29b9eb9d8760e3b9f295949391610b78610595948a610b386107d3565b918b83528201528683820152876060820152610b5984608083019015159052565b84151560a0820152610b738a5f52600560205260405f2090565b61180e565b519384526020840194909452921515604083015291151560608201529081906080820190565b8251632a9ffab760e21b8152fd5b610bcc9150833d8511610bd2575b610bc481836107b2565b8101906117f9565b5f610afb565b503d610bba565b508251632a9ffab760e21b8152fd5b610bff9150843d8611610bd257610bc481836107b2565b5f610abc565b604051632a9ffab760e21b8152fd5b346101de5760403660031901126101de57610c2d6101c8565b60243590610c3a826109fe565b610c42611d34565b6001600160a01b03169081156105b95760207ffa648341f7c45a89a5ac85c79ba49a45167038f7e499f5c2d8fd43c124f30e4d91835f5260078252610c968160405f209060ff801983541691151516179055565b6040519015158152a2005b9081518082526020808093019301915f5b828110610cc0575050505090565b835185529381019392810192600101610cb2565b9060206103d0928181520190610ca1565b346101de5760403660031901126101de576004356001600160401b038082116101de57366023830112156101de578160040135610d2181610801565b92610d2f60405194856107b2565b8184526020916024602086019160051b830101913683116101de57602401905b828210610d8857856024358681116101de5761045991610d76610d7c923690600401610818565b90611898565b60405191829182610cd4565b838091610d94846101f8565b815201910190610d4f565b90600182811c92168015610dcd575b6020831014610db957565b634e487b7160e01b5f52602260045260245ffd5b91607f1691610dae565b346101de575f3660031901126101de576040515f600454610df781610d9f565b80845290602090600190818116908115610e6a5750600114610e24575b6104598561044d818703826107b2565b60045f90815293505f805160206123d78339815191525b838510610e575750505050810160200161044d82610459610e14565b8054868601840152938201938101610e3b565b8695506104599693506020925061044d94915060ff191682840152151560051b8201019293610e14565b346101de575f3660031901126101de576040517f00000000000000000000000000000000000000000000000000000000000000006001600160a01b03168152602090f35b346101de5760203660031901126101de576004355f526005602052602060405f20541515604051908152f35b346101de5760203660031901126101de576004355f52600560205260405f20604051610f2f8161075c565b8154815261045960a0600184015492836020820152600285015494856040830152600460038201549182606085015201549160ff80841615159384608084015260081c16151593849101526040519586958693909594919260809360a0860197865260208601526040850152151560608401521515910152565b346101de575f3660031901126101de57610fc1611d34565b600380546001600160a01b031981169091555f906001600160a01b03167f8be0079c531659141344cd1fd0a4f28419497f9722a3daafe3b4186f6b6457e08280a3005b346101de5760203660031901126101de576020611022600435611955565b6040519015158152f35b346101de576020806003193601126101de57600435906001600160401b03908183116101de57366023840112156101de5782600401359182116101de57602436602484860101116101de5761107f611d34565b6110938361108e600454610d9f565b6119df565b5f91601f841160011461110d575050916110fb826110ea816024957f04b1dc5c136a3ce9fded8db0ce3d3366c58764ec3a8e4c2b9e52e4ddfe5ebbf7975f91611100575b508160011b915f199060031b1c19161790565b6004555b6040519384930183611a39565b0390a1005b879150860101355f6110d7565b60045f529190601f198416905f805160206123d7833981519152935f915b83831061119257505050927f04b1dc5c136a3ce9fded8db0ce3d3366c58764ec3a8e4c2b9e52e4ddfe5ebbf794926110fb928260249610611177575b5050600181811b016004556110ee565b84018501355f19600384901b60f8161c191690555f80611167565b908060018697848396988c01013581550196019401919061112b565b346101de576111bc366104c5565b6003549192916001600160a01b0390811633148015611255575b156105cb5782169182156105b957811561059a576111ff610540855f52600560205260405f2090565b805115908115611248575b5061059a5781610585610595927f520620e02923ba46d00812314e74342da81f61faa695b06fce4f6ab8708669ef9487611242611a60565b92611d60565b60a001511590505f61120a565b50335f52600660205260ff60405f2054166111d6565b346101de575f3660031901126101de576003546040516001600160a01b039091168152602090f35b346101de5760403660031901126101de576112ac6101c8565b6024356112b8816109fe565b6001600160a01b03821691821561133357816112f261130392335f52600160205260405f209060018060a01b03165f5260205260405f2090565b9060ff801983541691151516179055565b60405190151581527f17307eab39ab6107e8899845ad3d59bd9653f200f220920489ca2b5937696c3160203392a3005b60405162ced3e160e81b81525f6004820152602490fd5b346101de5760203660031901126101de576001600160a01b0361136b6101c8565b165f526006602052602060ff60405f2054166040519015158152f35b346101de5760403660031901126101de57602060ff6113d76113a76101c8565b6113af6101e2565b6001600160a01b039182165f9081526001865260408082209290931681526020919091522090565b54166040519015158152f35b346101de5760403660031901126101de576113fc6101c8565b60243590611409826109fe565b611411611d34565b6001600160a01b03169081156105b95760207f17f5b635c984bd6bd0661fd547f6085ef1a0813ef0c42d24b12a06f6824b5e0891835f5260068252610c968160405f209060ff801983541691151516179055565b346101de5760a03660031901126101de5761147e6101c8565b6114866101e2565b6084356001600160401b0381116101de576114a5903690600401610893565b906001600160a01b0383811690338214158061155c575b6115355782161561151d57156115065761097f926114fe6064356044359160405192600184526020840152604083019160018352606084015260808301604052565b929091611ea2565b604051626a0d4560e21b81525f6004820152602490fd5b604051632bfa23e760e11b81525f6004820152602490fd5b60405163711bec9160e11b81523360048201526001600160a01b0386166024820152604490fd5b505f82815260016020908152604080832033845290915290205460ff16156114bc565b346101de5760203660031901126101de576115986101c8565b6115a0611d34565b6001600160a01b039081169081156115f357600354826bffffffffffffffffffffffff60a01b821617600355167f8be0079c531659141344cd1fd0a4f28419497f9722a3daafe3b4186f6b6457e05f80a3005b604051631e4fbdf760e01b81525f6004820152602490fd5b346101de5760203660031901126101de576004355f526005602052602060ff600460405f20015460081c166040519015158152f35b9061165360209282815194859201610379565b0190565b906040516116648161075c565b60a060ff600483958054855260018101546020860152600281015460408601526003810154606086015201548181161515608085015260081c161515910152565b6040519060e082018281106001600160401b03821117610777576040525f60c083828152606060208201528260408201528260608201528260808201528260a08201520152565b81601f820112156101de57805161170281610878565b9261171060405194856107b2565b818452602082840101116101de576103d09160208085019101610379565b519060088210156101de57565b5190600c8210156101de57565b51906107e0826109fe565b6020818303126101de5780516001600160401b03918282116101de57019160e0838203126101de576117836107e2565b928051845260208101519283116101de576117a560c0926117e69483016116ec565b60208501526117b66040820161172e565b60408501526117c76060820161173b565b60608501526080810151608085015260a081015160a085015201611748565b60c082015290565b6040513d5f823e3d90fd5b908160209103126101de57516103d0816109fe565b600460a09183518155602084015160018201556040840151600282015560608401516003820155019161185360808201511515849060ff801983541691151516179055565b0151815461ff00191690151560081b61ff0016179055565b634e487b7160e01b5f52603260045260245ffd5b80518210156118935760209160051b010190565b61186b565b919091805183518082036119335750508051906118cd6118b783610801565b926118c560405194856107b2565b808452610801565b60209190601f190136848401375f5b815181101561192b57600581901b8281018401519087018401515f908152602081815260408083206001600160a01b039094168352929052205460019190611924828761187f565b52016118dc565b509193505050565b604051635b05999160e01b815260048101919091526024810191909152604490fd5b5f52600560205260405f2060405161196c8161075c565b81549081815260018301549182602083015260ff60046002860154958660408601526003810154606086015201548181161515608085015260081c16159160a08315910152156119d8576119d257156119cd57156119c957600190565b5f90565b505f90565b50505f90565b5050505f90565b601f81116119eb575050565b60045f525f805160206123d7833981519152906020601f840160051c83019310611a2f575b601f0160051c01905b818110611a24575050565b5f8155600101611a19565b9091508190611a10565b90918060409360208452816020850152848401375f828201840152601f01601f1916010190565b60405190611a6d8261077c565b5f8252565b634e487b7160e01b5f52601160045260245ffd5b5f198114611a945760010190565b611a72565b90611aa382610878565b611ab060405191826107b2565b8281528092611ac1601f1991610878565b0190602036910137565b5f19810191908211611a9457565b6030019081603011611a9457565b91908201809211611a9457565b908151811015611893570160200190565b8015611b8a57805f81805b611b725750611b1e81611a99565b925b611b2957505090565b611b3290611acb565b90600a90611b5d611b4d611b47848406611ad9565b60ff1690565b60f81b6001600160f81b03191690565b5f1a611b698486611af4565b53049081611b20565b9150611b7f600a91611a86565b910480839291611b10565b50604051611b9781610797565b60018152600360fc1b602082015290565b6001600160a01b03811692909190831561150657611be360405192600184526020840152604083019160018352606084015260808301604052565b91906040945f604051611bf58161077c565b5281518451908181036119335750505f5b8251811015611cab578060051b60208082860101519187010151611c4a86611c35845f525f60205260405f2090565b9060018060a01b03165f5260205260405f2090565b54818110611c755786611c356001959493611c6e9303935f525f60205260405f2090565b5501611c06565b89516303dee4c560e01b81526001600160a01b038816600482015260248101919091526044810182905260648101839052608490fd5b5094505f9392915060018151148414611d015760209081015191810151604080519384529183015233917fc3d58168c5ae7397731d063d5bbf3d657854427343f4c083240f7aacaa2d0f6291819081015b0390a4565b60405133927f4a39dc06d4c0dbc64b70af90fd698a233a518aa5d07e595d983b8c0526c8f7fb928291611cfc9183612090565b6003546001600160a01b03163303611d4857565b60405163118cdaa760e01b8152336004820152602490fd5b6001600160a01b0381169392909190841561151d57611d9c60405192600184526020840152604083019160018352606084015260808301604052565b9281518451908181036119335750505f5b8251811015611df2578060019160051b611dea611de287611c35602080868b010151958c010151945f525f60205260405f2090565b918254611ae7565b905501611dad565b5092919360018251145f14611e67576020828101518482015160408051928352928201525f9133917fc3d58168c5ae7397731d063d5bbf3d657854427343f4c083240f7aacaa2d0f629190a45b8051600103611e5d57906020806107e095930151910151913361236a565b6107e09333612175565b5f6040517f4a39dc06d4c0dbc64b70af90fd698a233a518aa5d07e595d983b8c0526c8f7fb339180611e9a888883612090565b0390a4611e3f565b9491909181518451908181036119335750505f5b8251811015611f9b57600581901b83810160209081015191870101516001600160a01b03929186908a8516611f1b575b6001948216611ef9575b50505001611eb6565b611f1191611c35611de2925f525f60205260405f2090565b90555f8581611ef0565b9192939050611f358a611c35845f525f60205260405f2090565b54838110611f645791879184600196959403611f5c8d611c35855f525f60205260405f2090565b559450611ee6565b6040516303dee4c560e01b81526001600160a01b038c16600482015260248101919091526044810184905260648101839052608490fd5b5094919392909360018551145f14612045576020858101518382015160408051928352928201526001600160a01b03838116929086169133917fc3d58168c5ae7397731d063d5bbf3d657854427343f4c083240f7aacaa2d0f6291a45b6001600160a01b03811661200e575b5050505050565b84516001036120345760208061202a960151920151923361239f565b5f80808080612007565b6120409491923361226e565b61202a565b6040516001600160a01b03828116919085169033907f4a39dc06d4c0dbc64b70af90fd698a233a518aa5d07e595d983b8c0526c8f7fb9080612088888c83612090565b0390a4611ff8565b90916120a76103d093604084526040840190610ca1565b916020818403910152610ca1565b908160209103126101de57516103d081610254565b926120f86103d095936121069360018060a01b031686525f602087015260a0604087015260a0860190610ca1565b908482036060860152610ca1565b91608081840391015261039a565b93906103d095936120f8916121069460018060a01b03809216885216602087015260a0604087015260a0860190610ca1565b3d15612170573d9061215782610878565b9161216560405193846107b2565b82523d5f602084013e565b606090565b9293919093843b612187575050505050565b6020916121aa604051948593849363bc197c8160e01b98898652600486016120ca565b03815f6001600160a01b0388165af15f918161223d575b5061220057826121cf612146565b80519190826121f957604051632bfa23e760e11b81526001600160a01b0383166004820152602490fd5b6020915001fd5b6001600160e01b0319160361221a57505f80808080612007565b604051632bfa23e760e11b81526001600160a01b03919091166004820152602490fd5b61226091925060203d602011612267575b61225881836107b2565b8101906120b5565b905f6121c1565b503d61224e565b939290949194853b612283575b505050505050565b6122a6602093604051958694859463bc197c8160e01b998a875260048701612114565b03815f6001600160a01b0388165af15f91816122e6575b506122cb57826121cf612146565b6001600160e01b0319160361221a57505f808080808061227b565b61230091925060203d6020116122675761225881836107b2565b905f6122bd565b909260a0926103d09594600180861b031683525f602084015260408301526060820152816080820152019061039a565b91926103d095949160a094600180871b03809216855216602084015260408301526060820152816080820152019061039a565b9293919093843b61237c575050505050565b6020916121aa604051948593849363f23a6e6160e01b9889865260048601612307565b939290949194853b6123b357505050505050565b6122a6602093604051958694859463f23a6e6160e01b998a87526004870161233756fe8a35acfbc15ff81a39ae7d344fd709f28e8600b4aa8c65c6b64bfe7fe36bd19ba2646970667358221220900d5ce31a0d2982ec4818696600dd3402d25de072213c7ccd1f043aeceb7ecf64736f6c63430008180033",
  "linkReferences": {},
  "deployedLinkReferences": {},
  "immutableReferences": {
    "11496": [
      {
        "length": 32,
        "start": 1761
      },
      {
        "length": 32,
        "start": 2680
      },
      {
        "length": 32,
        "start": 3753
      }
    ]
  },
  "inputSourceName": "project/contracts/crafting/CityMateriaItems.sol",
  "buildInfoId": "solc-0_8_24-005f9e5cc8e271800ea5746a31bff456af116437"
}