{"project/contracts/crafting/CityEnchantments.sol":{"CityEnchantments":{"abi":[{"inputs":[{"internalType":"address","name":"initialOwner","type":"address"}],"stateMutability":"nonpayable","type":"constructor"},{"inputs":[],"name":"InvalidValue","type":"error"},{"inputs":[],"name":"NotAuthorized","type":"error"},{"inputs":[{"internalType":"address","name":"owner","type":"address"}],"name":"OwnableInvalidOwner","type":"error"},{"inputs":[{"internalType":"address","name":"account","type":"address"}],"name":"OwnableUnauthorizedAccount","type":"error"},{"inputs":[],"name":"ZeroAddress","type":"error"},{"anonymous":false,"inputs":[{"indexed":true,"internalType":"address","name":"caller","type":"address"},{"indexed":false,"internalType":"bool","name":"allowed","type":"bool"}],"name":"AuthorizedCallerSet","type":"event"},{"anonymous":false,"inputs":[{"indexed":true,"internalType":"uint256","name":"enchantmentId","type":"uint256"},{"indexed":true,"internalType":"uint256","name":"level","type":"uint256"}],"name":"EnchantmentBonusesSet","type":"event"},{"anonymous":false,"inputs":[{"indexed":true,"internalType":"uint256","name":"enchantmentId","type":"uint256"},{"indexed":false,"internalType":"string","name":"name","type":"string"},{"indexed":false,"internalType":"enum CityEnchantments.EnchantmentCategory","name":"category","type":"uint8"},{"indexed":false,"internalType":"uint256","name":"rarityTier","type":"uint256"},{"indexed":false,"internalType":"uint256","name":"maxLevel","type":"uint256"},{"indexed":false,"internalType":"bool","name":"enabled","type":"bool"}],"name":"EnchantmentDefinitionSet","type":"event"},{"anonymous":false,"inputs":[{"indexed":true,"internalType":"address","name":"previousOwner","type":"address"},{"indexed":true,"internalType":"address","name":"newOwner","type":"address"}],"name":"OwnershipTransferred","type":"event"},{"inputs":[{"internalType":"address","name":"","type":"address"}],"name":"authorizedCallers","outputs":[{"internalType":"bool","name":"","type":"bool"}],"stateMutability":"view","type":"function"},{"inputs":[{"internalType":"uint256","name":"","type":"uint256"},{"internalType":"uint256","name":"","type":"uint256"}],"name":"enchantmentBonusesOf","outputs":[{"internalType":"int256","name":"minDamageBonus","type":"int256"},{"internalType":"int256","name":"maxDamageBonus","type":"int256"},{"internalType":"int256","name":"attackSpeedBonus","type":"int256"},{"internalType":"int256","name":"critChanceBpsBonus","type":"int256"},{"internalType":"int256","name":"critMultiplierBpsBonus","type":"int256"},{"internalType":"int256","name":"accuracyBpsBonus","type":"int256"},{"internalType":"int256","name":"rangeBonus","type":"int256"},{"internalType":"int256","name":"maxDurabilityBonus","type":"int256"},{"internalType":"int256","name":"armorPenBpsBonus","type":"int256"},{"internalType":"int256","name":"blockChanceBpsBonus","type":"int256"},{"internalType":"int256","name":"lifeStealBpsBonus","type":"int256"},{"internalType":"int256","name":"energyCostBonus","type":"int256"},{"internalType":"int256","name":"heatGenerationBonus","type":"int256"},{"internalType":"int256","name":"stabilityBonus","type":"int256"},{"internalType":"int256","name":"cooldownMsBonus","type":"int256"},{"internalType":"int256","name":"projectileSpeedBonus","type":"int256"},{"internalType":"int256","name":"aoeRadiusBonus","type":"int256"},{"internalType":"int256","name":"enchantmentSlotsBonus","type":"int256"},{"internalType":"int256","name":"materiaSlotsBonus","type":"int256"}],"stateMutability":"view","type":"function"},{"inputs":[{"internalType":"uint256","name":"","type":"uint256"}],"name":"enchantmentDefinitionOf","outputs":[{"internalType":"uint256","name":"id","type":"uint256"},{"internalType":"string","name":"name","type":"string"},{"internalType":"enum CityEnchantments.EnchantmentCategory","name":"category","type":"uint8"},{"internalType":"uint256","name":"rarityTier","type":"uint256"},{"internalType":"uint256","name":"maxLevel","type":"uint256"},{"internalType":"bool","name":"enabled","type":"bool"}],"stateMutability":"view","type":"function"},{"inputs":[{"internalType":"uint256","name":"enchantmentId","type":"uint256"}],"name":"enchantmentExists","outputs":[{"internalType":"bool","name":"","type":"bool"}],"stateMutability":"view","type":"function"},{"inputs":[{"internalType":"uint256","name":"enchantmentId","type":"uint256"},{"internalType":"uint256","name":"level","type":"uint256"}],"name":"getEnchantmentBonuses","outputs":[{"components":[{"internalType":"int256","name":"minDamageBonus","type":"int256"},{"internalType":"int256","name":"maxDamageBonus","type":"int256"},{"internalType":"int256","name":"attackSpeedBonus","type":"int256"},{"internalType":"int256","name":"critChanceBpsBonus","type":"int256"},{"internalType":"int256","name":"critMultiplierBpsBonus","type":"int256"},{"internalType":"int256","name":"accuracyBpsBonus","type":"int256"},{"internalType":"int256","name":"rangeBonus","type":"int256"},{"internalType":"int256","name":"maxDurabilityBonus","type":"int256"},{"internalType":"int256","name":"armorPenBpsBonus","type":"int256"},{"internalType":"int256","name":"blockChanceBpsBonus","type":"int256"},{"internalType":"int256","name":"lifeStealBpsBonus","type":"int256"},{"internalType":"int256","name":"energyCostBonus","type":"int256"},{"internalType":"int256","name":"heatGenerationBonus","type":"int256"},{"internalType":"int256","name":"stabilityBonus","type":"int256"},{"internalType":"int256","name":"cooldownMsBonus","type":"int256"},{"internalType":"int256","name":"projectileSpeedBonus","type":"int256"},{"internalType":"int256","name":"aoeRadiusBonus","type":"int256"},{"internalType":"int256","name":"enchantmentSlotsBonus","type":"int256"},{"internalType":"int256","name":"materiaSlotsBonus","type":"int256"}],"internalType":"struct BonusTypes.BonusSet","name":"","type":"tuple"}],"stateMutability":"view","type":"function"},{"inputs":[{"internalType":"uint256","name":"enchantmentId","type":"uint256"}],"name":"getEnchantmentDefinition","outputs":[{"components":[{"internalType":"uint256","name":"id","type":"uint256"},{"internalType":"string","name":"name","type":"string"},{"internalType":"enum CityEnchantments.EnchantmentCategory","name":"category","type":"uint8"},{"internalType":"uint256","name":"rarityTier","type":"uint256"},{"internalType":"uint256","name":"maxLevel","type":"uint256"},{"internalType":"bool","name":"enabled","type":"bool"}],"internalType":"struct CityEnchantments.EnchantmentDefinition","name":"","type":"tuple"}],"stateMutability":"view","type":"function"},{"inputs":[{"internalType":"uint256","name":"enchantmentId","type":"uint256"}],"name":"getEnchantmentMeta","outputs":[{"internalType":"string","name":"name","type":"string"},{"internalType":"enum CityEnchantments.EnchantmentCategory","name":"category","type":"uint8"},{"internalType":"uint256","name":"rarityTier","type":"uint256"},{"internalType":"uint256","name":"maxLevel","type":"uint256"},{"internalType":"bool","name":"enabled","type":"bool"}],"stateMutability":"view","type":"function"},{"inputs":[{"internalType":"uint256","name":"enchantmentId","type":"uint256"},{"internalType":"uint256","name":"level","type":"uint256"}],"name":"hasBonusesForLevel","outputs":[{"internalType":"bool","name":"","type":"bool"}],"stateMutability":"view","type":"function"},{"inputs":[{"internalType":"uint256","name":"enchantmentId","type":"uint256"}],"name":"isEnchantmentEnabled","outputs":[{"internalType":"bool","name":"","type":"bool"}],"stateMutability":"view","type":"function"},{"inputs":[{"internalType":"uint256","name":"enchantmentId","type":"uint256"},{"internalType":"uint256","name":"level","type":"uint256"}],"name":"isEnchantmentUsable","outputs":[{"internalType":"bool","name":"","type":"bool"}],"stateMutability":"view","type":"function"},{"inputs":[],"name":"owner","outputs":[{"internalType":"address","name":"","type":"address"}],"stateMutability":"view","type":"function"},{"inputs":[],"name":"renounceOwnership","outputs":[],"stateMutability":"nonpayable","type":"function"},{"inputs":[{"internalType":"address","name":"caller","type":"address"},{"internalType":"bool","name":"allowed","type":"bool"}],"name":"setAuthorizedCaller","outputs":[],"stateMutability":"nonpayable","type":"function"},{"inputs":[{"internalType":"uint256","name":"enchantmentId","type":"uint256"},{"internalType":"uint256","name":"level","type":"uint256"},{"components":[{"internalType":"int256","name":"minDamageBonus","type":"int256"},{"internalType":"int256","name":"maxDamageBonus","type":"int256"},{"internalType":"int256","name":"attackSpeedBonus","type":"int256"},{"internalType":"int256","name":"critChanceBpsBonus","type":"int256"},{"internalType":"int256","name":"critMultiplierBpsBonus","type":"int256"},{"internalType":"int256","name":"accuracyBpsBonus","type":"int256"},{"internalType":"int256","name":"rangeBonus","type":"int256"},{"internalType":"int256","name":"maxDurabilityBonus","type":"int256"},{"internalType":"int256","name":"armorPenBpsBonus","type":"int256"},{"internalType":"int256","name":"blockChanceBpsBonus","type":"int256"},{"internalType":"int256","name":"lifeStealBpsBonus","type":"int256"},{"internalType":"int256","name":"energyCostBonus","type":"int256"},{"internalType":"int256","name":"heatGenerationBonus","type":"int256"},{"internalType":"int256","name":"stabilityBonus","type":"int256"},{"internalType":"int256","name":"cooldownMsBonus","type":"int256"},{"internalType":"int256","name":"projectileSpeedBonus","type":"int256"},{"internalType":"int256","name":"aoeRadiusBonus","type":"int256"},{"internalType":"int256","name":"enchantmentSlotsBonus","type":"int256"},{"internalType":"int256","name":"materiaSlotsBonus","type":"int256"}],"internalType":"struct BonusTypes.BonusSet","name":"bonuses","type":"tuple"}],"name":"setEnchantmentBonuses","outputs":[],"stateMutability":"nonpayable","type":"function"},{"inputs":[{"internalType":"uint256","name":"enchantmentId","type":"uint256"},{"internalType":"string","name":"name","type":"string"},{"internalType":"enum CityEnchantments.EnchantmentCategory","name":"category","type":"uint8"},{"internalType":"uint256","name":"rarityTier","type":"uint256"},{"internalType":"uint256","name":"maxLevel","type":"uint256"},{"internalType":"bool","name":"enabled","type":"bool"}],"name":"setEnchantmentDefinition","outputs":[],"stateMutability":"nonpayable","type":"function"},{"inputs":[{"internalType":"address","name":"newOwner","type":"address"}],"name":"transferOwnership","outputs":[],"stateMutability":"nonpayable","type":"function"}],"evm":{"bytecode":{"linkReferences":{},"object":"6080346100b457601f61155c38819003918201601f19168301916001600160401b038311848410176100b8578084926020946040528339810103126100b457516001600160a01b03808216918290036100b457811561009c575f548260018060a01b03198216175f55167f8be0079c531659141344cd1fd0a4f28419497f9722a3daafe3b4186f6b6457e05f80a360405161148f90816100cd8239f35b604051631e4fbdf760e01b81525f6004820152602490fd5b5f80fd5b634e487b7160e01b5f52604160045260245ffdfe610260806040526004361015610013575f80fd5b5f3560e01c908163097c8c1b14610e50575080630de5c2de14610b1857806310a950c1146109c15780632d36406b14610776578063454bbd29146106d7578063479b91571461064d578063536fff6c1461061057806360756c9114610529578063715018a6146104d25780638da5cb5b146104ab578063909bac13146103b25780639582890214610386578063addf1f161461036d578063e19242c71461034a578063e8acc5891461015b5763f2fde38b146100cd575f80fd5b34610157576020366003190112610157576100e6610e94565b6100ee61142e565b6001600160a01b0390811690811561013f575f54826bffffffffffffffffffffffff60a01b8216175f55167f8be0079c531659141344cd1fd0a4f28419497f9722a3daafe3b4186f6b6457e05f80a3005b604051631e4fbdf760e01b81525f6004820152602490fd5b5f80fd5b34610157576102a036600319011261015757602435600435610260366043190112610157575f546001600160a01b031633148015610334575b1561032257805f52600160205260405f206040516101b181610ee2565b815481526101c160018301610f3d565b60208201526101da60ff6002840154166040830161102a565b6003820154606082015260ff6005600484015493608084019485520154161590811560a0820152511590811561031a575b506102fd57821590811561030f575b506102fd57805f52600260205260405f20825f5260205260405f2060443581556064356001820155608435600282015560a435600382015560c435600482015560e435600582015561010435600682015561012435600782015561014435600882015561016435600982015561018435600a8201556101a435600b8201556101c435600c8201556101e435600d82015561020435600e82015561022435600f8201556102443560108201556102643560118201556012610284359101557ff181604f407ea458352b579dfcfcac81270903136c071aa18df77318498b6b325f80a3005b604051632a9ffab760e21b8152600490fd5b90505182118361021a565b90508461020b565b60405163ea8e4eb560e01b8152600490fd5b50335f52600360205260ff60405f205416610194565b3461015757602061036361035d36610e7e565b906110d6565b6040519015158152f35b3461015757602061036361038036610e7e565b90611036565b34610157576020366003190112610157576004355f526001602052602060405f20541515604051908152f35b3461015757602080600319360112610157575f60a06040516103d381610ee2565b82815260608482015282604082015282606082015282608082015201526004355f526001815260405f206040519061040a82610ee2565b8054825261041a60018201610f3d565b83830190815260ff6002830154169161043760408501938461102a565b60038101546060850190815261049361048760ff600560048601549560808a019687520154169460a088019515158652604051988998818a5251908901525160c0604089015260e0880190610fdf565b9451606087019061101d565b5160808501525160a084015251151560c08301520390f35b34610157575f366003190112610157575f546040516001600160a01b039091168152602090f35b34610157575f366003190112610157576104ea61142e565b5f80546001600160a01b0319811682556001600160a01b03167f8be0079c531659141344cd1fd0a4f28419497f9722a3daafe3b4186f6b6457e08280a3005b34610157576020366003190112610157576004355f52600160205260405f206040519061055582610ee2565b8054825261056560018201610f3d565b916020810192835260ff6002830154169161058460408301938461102a565b6003810154936060830194855260a060ff6005600485015494608087019586520154169301921515835251925191600f8310156105fc576105de9451915190511515916105e960405196879660a0885260a0880190610fdf565b94602087019061101d565b6040850152606084015260808301520390f35b634e487b7160e01b5f52602160045260245ffd5b34610157576020366003190112610157576001600160a01b03610631610e94565b165f526003602052602060ff60405f2054166040519015158152f35b34610157576020366003190112610157576004355f52600160205260405f20805461067a60018301610f3d565b9160ff6002820154169060038101549060ff6005600483015492015416916106c26106b7604051978897885260c0602089015260c0880190610fdf565b94604087019061101d565b60608501526080840152151560a08301520390f35b34610157576040366003190112610157576106f0610e94565b60243590811515908183036101575761070761142e565b6001600160a01b0316918215610764577f1eff62a53441c7d0125c22f2a9a324e206b34efa41e19469d7efb9bb703d21a39161075b602092855f526003845260405f209060ff801983541691151516179055565b604051908152a2005b60405163d92e233d60e01b8152600490fd5b346101575761078436610e7e565b905f61024060405161079581610efe565b8281528260208201528260408201528260608201528260808201528260a08201528260c08201528260e08201528261010082015282610120820152826101408201528261016082015282610180820152826101a0820152826101c0820152826101e0820152826102008201528261022082015201525f52600260205260405f20905f5260205261026060405f2061024060405161083181610efe565b601283549384835260018101546020840152600281015460408401526003810154606084015260048101546080840152600581015460a0840152600681015460c0840152600781015460e084015260088101546101008401526009810154610120840152600a810154610140840152600b810154610160840152600c810154610180840152600d8101546101a0840152600e8101546101c0840152600f8101546101e0840152601081015461020084015260118101546102208401520154828201526040519283526020810151602084015260408101516040840152606081015160608401526080810151608084015260a081015160a084015260c081015160c084015260e081015160e08401526101008101516101008401526101208101516101208401526101408101516101408401526101608101516101608401526101808101516101808401526101a08101516101a08401526101c08101516101c08401526101e08101516101e08401526102008101516102008401526102208101516102208401520151610240820152f35b34610157576109cf36610e7e565b905f52600260205260405f20905f526020526012600f600e600d600c600b600a600960086007600660056004600360405f209d8e9d8e9d8e9d8e9d8e9d8e9d8e9d8e9d8e9d8e9d8e9d8e9d8e9d8e549e60018101546101005260028101546101205201549e01549e01549e01549e01549e01549e01549e01549e01549e01549e01549e01549e01549e6010810154608052601181015460c052015460e05260405160a05260a0515261010051602060a051015261012051604060a0510152606060a0510152608060a051015260a08051015260c060a051015260e060a051015261010060a051015261012060a051015261014060a051015261016060a051015261018060a05101526101a060a05101526101c060a05101526101e060a051015260805161020060a051015260c05161022060a051015260e05161024060a051015261026060a051f35b346101575760c03660031901126101575760243567ffffffffffffffff811161015757366023820112156101575767ffffffffffffffff8160040135116101575736602482600401358301011161015757600f60443510156101575760a4358015158103610157575f546001600160a01b031633148015610e3a575b1561032257600435156102fd578160040135156102fd57604435156102fd57608435156102fd5760405190610bc882610ee2565b600435825260209060405192610beb83601f19601f886004013501160185610f1b565b600485013580855260248601848601375f838660040135860101528281019384526040810190610c1d6044358361102a565b606081019460643586526080820190608435825260a083019085151582526004355f52600180885260405f2094518555808501915180519067ffffffffffffffff8211610e2657610c6e8454610eaa565b601f8111610de0575b508990601f8311600114610d7f579282939183925f94610d74575b50501b915f199060031b1c19161790555b60028301935191600f8310156105fc577f17b9b83355eafb5421eb106ad941c05a17f21d328c0f9a21f582939ca6c2177e97610d0a9560059460ff8019835416911617905551600385015551600484015551151591019060ff801983541691151516179055565b610d436040519260a08452856004013560a085015285600401356024870160c08601375f60c0876004013586010152830160443561101d565b606435604083015260843560608301521515608082015260048035930135601f01601f1916810181900360c00190a2005b015192508d80610c92565b90601f19831691855f52838c5f20938d5f905b88838310610dc85750505010610db0575b505050811b019055610ca3565b01515f1960f88460031b161c191690558b8080610da3565b8686015188559096019594850194879350018e610d92565b845f528a5f20601f840160051c8101918c8510610e1c575b601f0160051c019084905b828110610e11575050610c77565b5f8155018490610e03565b9091508190610df8565b634e487b7160e01b5f52604160045260245ffd5b50335f52600360205260ff60405f205416610b94565b34610157576020366003190112610157576020906004355f526001825260ff600560405f2001541615158152f35b6040906003190112610157576004359060243590565b600435906001600160a01b038216820361015757565b90600182811c92168015610ed8575b6020831014610ec457565b634e487b7160e01b5f52602260045260245ffd5b91607f1691610eb9565b60c0810190811067ffffffffffffffff821117610e2657604052565b610260810190811067ffffffffffffffff821117610e2657604052565b90601f8019910116810190811067ffffffffffffffff821117610e2657604052565b9060405191825f8254610f4f81610eaa565b908184526020946001916001811690815f14610fbd5750600114610f7f575b505050610f7d92500383610f1b565b565b5f90815285812095935091905b818310610fa5575050610f7d93508201015f8080610f6e565b85548884018501529485019487945091830191610f8c565b92505050610f7d94925060ff191682840152151560051b8201015f8080610f6e565b91908251928382525f5b848110611009575050825f602080949584010152601f8019910116010190565b602081830181015184830182015201610fe9565b90600f8210156105fc5752565b600f8210156105fc5752565b5f52600160205260405f2060405161104d81610ee2565b8154815261105d60018301610f3d565b602082015261107660ff6002840154166040830161102a565b6003820154606082015260ff60056004840154938460808501520154161590811560a082015251156110cf576110c95781159182156110bf575b50506110bb57600190565b5f90565b1190505f806110b0565b50505f90565b5050505f90565b90815f526001602052604091825f2083516110f081610ee2565b8154815261110060018301610f3d565b602082015261111860ff60028401541686830161102a565b6003820154606082015260ff6005600484015493846080850152015416151560a0820152511561142657821590811561141c575b506110cf575f526002602052815f20905f52602052805f2081516102205261117661022051610efe565b80546101c0526101c0516102205152600181015480602061022051015260028201548093610220510152600382015492836060610220510152600483015480608061022051015260058401548060a061022051015260068501548060c061022051015260078601548060e06102205101526008870154918261010061022051015260098801549384610120610220510152600a8901549586610140610220510152600b8a01549788610160610220510152600c8b0154998a6101806102205101526012600d8d01549c8d6101a0610220510152600e81015461024052610240516101c0610220510152600f81015461020052610200516101e061022051015260108101546101e0526101e05161020061022051015260118101546101a0526101a05161022080510152015461018052610180516102406102205101526101c0511515610160526101c05115611410575b5061016051610140526101605115611404575b50610140519a8b156113fa575b508a156113f0575b5089156113e6575b5088156113dc575b5087156113d2575b5086156113c8575b5085156113be575b5084156113b4575b5083156113aa575b5082156113a0575b508115611396575b50801561138a575b801561137e575b8015611372575b8015611366575b801561135c5790565b5061018051151590565b506101a0511515611353565b506101e051151561134c565b50610200511515611345565b5061024051151561133e565b905015155f611336565b151591505f61132e565b151592505f611326565b151593505f61131e565b151594505f611316565b151595505f61130e565b151596505f611306565b151597505f6112fe565b151598505f6112f6565b151599505f6112ee565b15159a505f6112e6565b1515610140525f6112d9565b1515610160525f6112c6565b905082115f61114c565b505050505f90565b5f546001600160a01b0316330361144157565b60405163118cdaa760e01b8152336004820152602490fdfea26469706673582212200b18e5834c2c04c6c88d653e4bdaae6ee6ad3a871b6dbe0e9c68c9c5529384a264736f6c63430008180033","opcodes":"PUSH1 0x80 CALLVALUE PUSH2 0xB4 JUMPI PUSH1 0x1F PUSH2 0x155C CODESIZE DUP2 SWAP1 SUB SWAP2 DUP3 ADD PUSH1 0x1F NOT AND DUP4 ADD SWAP2 PUSH1 0x1 PUSH1 0x1 PUSH1 0x40 SHL SUB DUP4 GT DUP5 DUP5 LT OR PUSH2 0xB8 JUMPI DUP1 DUP5 SWAP3 PUSH1 0x20 SWAP5 PUSH1 0x40 MSTORE DUP4 CODECOPY DUP2 ADD SUB SLT PUSH2 0xB4 JUMPI MLOAD PUSH1 0x1 PUSH1 0x1 PUSH1 0xA0 SHL SUB DUP1 DUP3 AND SWAP2 DUP3 SWAP1 SUB PUSH2 0xB4 JUMPI DUP2 ISZERO PUSH2 0x9C JUMPI PUSH0 SLOAD DUP3 PUSH1 0x1 DUP1 PUSH1 0xA0 SHL SUB NOT DUP3 AND OR PUSH0 SSTORE AND PUSH32 0x8BE0079C531659141344CD1FD0A4F28419497F9722A3DAAFE3B4186F6B6457E0 PUSH0 DUP1 LOG3 PUSH1 0x40 MLOAD PUSH2 0x148F SWAP1 DUP2 PUSH2 0xCD DUP3 CODECOPY RETURN JUMPDEST PUSH1 0x40 MLOAD PUSH4 0x1E4FBDF7 PUSH1 0xE0 SHL DUP2 MSTORE PUSH0 PUSH1 0x4 DUP3 ADD MSTORE PUSH1 0x24 SWAP1 REVERT JUMPDEST PUSH0 DUP1 REVERT JUMPDEST PUSH4 0x4E487B71 PUSH1 0xE0 SHL PUSH0 MSTORE PUSH1 0x41 PUSH1 0x4 MSTORE PUSH1 0x24 PUSH0 REVERT INVALID PUSH2 0x260 DUP1 PUSH1 0x40 MSTORE PUSH1 0x4 CALLDATASIZE LT ISZERO PUSH2 0x13 JUMPI PUSH0 DUP1 REVERT JUMPDEST PUSH0 CALLDATALOAD PUSH1 0xE0 SHR SWAP1 DUP2 PUSH4 0x97C8C1B EQ PUSH2 0xE50 JUMPI POP DUP1 PUSH4 0xDE5C2DE EQ PUSH2 0xB18 JUMPI DUP1 PUSH4 0x10A950C1 EQ PUSH2 0x9C1 JUMPI DUP1 PUSH4 0x2D36406B EQ PUSH2 0x776 JUMPI DUP1 PUSH4 0x454BBD29 EQ PUSH2 0x6D7 JUMPI DUP1 PUSH4 0x479B9157 EQ PUSH2 0x64D JUMPI DUP1 PUSH4 0x536FFF6C EQ PUSH2 0x610 JUMPI DUP1 PUSH4 0x60756C91 EQ PUSH2 0x529 JUMPI DUP1 PUSH4 0x715018A6 EQ PUSH2 0x4D2 JUMPI DUP1 PUSH4 0x8DA5CB5B EQ PUSH2 0x4AB JUMPI DUP1 PUSH4 0x909BAC13 EQ PUSH2 0x3B2 JUMPI DUP1 PUSH4 0x95828902 EQ PUSH2 0x386 JUMPI DUP1 PUSH4 0xADDF1F16 EQ PUSH2 0x36D JUMPI DUP1 PUSH4 0xE19242C7 EQ PUSH2 0x34A JUMPI DUP1 PUSH4 0xE8ACC589 EQ PUSH2 0x15B JUMPI PUSH4 0xF2FDE38B EQ PUSH2 0xCD JUMPI PUSH0 DUP1 REVERT JUMPDEST CALLVALUE PUSH2 0x157 JUMPI PUSH1 0x20 CALLDATASIZE PUSH1 0x3 NOT ADD SLT PUSH2 0x157 JUMPI PUSH2 0xE6 PUSH2 0xE94 JUMP JUMPDEST PUSH2 0xEE PUSH2 0x142E JUMP JUMPDEST PUSH1 0x1 PUSH1 0x1 PUSH1 0xA0 SHL SUB SWAP1 DUP2 AND SWAP1 DUP2 ISZERO PUSH2 0x13F JUMPI PUSH0 SLOAD DUP3 PUSH12 0xFFFFFFFFFFFFFFFFFFFFFFFF PUSH1 0xA0 SHL DUP3 AND OR PUSH0 SSTORE AND PUSH32 0x8BE0079C531659141344CD1FD0A4F28419497F9722A3DAAFE3B4186F6B6457E0 PUSH0 DUP1 LOG3 STOP JUMPDEST PUSH1 0x40 MLOAD PUSH4 0x1E4FBDF7 PUSH1 0xE0 SHL DUP2 MSTORE PUSH0 PUSH1 0x4 DUP3 ADD MSTORE PUSH1 0x24 SWAP1 REVERT JUMPDEST PUSH0 DUP1 REVERT JUMPDEST CALLVALUE PUSH2 0x157 JUMPI PUSH2 0x2A0 CALLDATASIZE PUSH1 0x3 NOT ADD SLT PUSH2 0x157 JUMPI PUSH1 0x24 CALLDATALOAD PUSH1 0x4 CALLDATALOAD PUSH2 0x260 CALLDATASIZE PUSH1 0x43 NOT ADD SLT PUSH2 0x157 JUMPI PUSH0 SLOAD PUSH1 0x1 PUSH1 0x1 PUSH1 0xA0 SHL SUB AND CALLER EQ DUP1 ISZERO PUSH2 0x334 JUMPI JUMPDEST ISZERO PUSH2 0x322 JUMPI DUP1 PUSH0 MSTORE PUSH1 0x1 PUSH1 0x20 MSTORE PUSH1 0x40 PUSH0 KECCAK256 PUSH1 0x40 MLOAD PUSH2 0x1B1 DUP2 PUSH2 0xEE2 JUMP JUMPDEST DUP2 SLOAD DUP2 MSTORE PUSH2 0x1C1 PUSH1 0x1 DUP4 ADD PUSH2 0xF3D JUMP JUMPDEST PUSH1 0x20 DUP3 ADD MSTORE PUSH2 0x1DA PUSH1 0xFF PUSH1 0x2 DUP5 ADD SLOAD AND PUSH1 0x40 DUP4 ADD PUSH2 0x102A JUMP JUMPDEST PUSH1 0x3 DUP3 ADD SLOAD PUSH1 0x60 DUP3 ADD MSTORE PUSH1 0xFF PUSH1 0x5 PUSH1 0x4 DUP5 ADD SLOAD SWAP4 PUSH1 0x80 DUP5 ADD SWAP5 DUP6 MSTORE ADD SLOAD AND ISZERO SWAP1 DUP2 ISZERO PUSH1 0xA0 DUP3 ADD MSTORE MLOAD ISZERO SWAP1 DUP2 ISZERO PUSH2 0x31A JUMPI JUMPDEST POP PUSH2 0x2FD JUMPI DUP3 ISZERO SWAP1 DUP2 ISZERO PUSH2 0x30F JUMPI JUMPDEST POP PUSH2 0x2FD JUMPI DUP1 PUSH0 MSTORE PUSH1 0x2 PUSH1 0x20 MSTORE PUSH1 0x40 PUSH0 KECCAK256 DUP3 PUSH0 MSTORE PUSH1 0x20 MSTORE PUSH1 0x40 PUSH0 KECCAK256 PUSH1 0x44 CALLDATALOAD DUP2 SSTORE PUSH1 0x64 CALLDATALOAD PUSH1 0x1 DUP3 ADD SSTORE PUSH1 0x84 CALLDATALOAD PUSH1 0x2 DUP3 ADD SSTORE PUSH1 0xA4 CALLDATALOAD PUSH1 0x3 DUP3 ADD SSTORE PUSH1 0xC4 CALLDATALOAD PUSH1 0x4 DUP3 ADD SSTORE PUSH1 0xE4 CALLDATALOAD PUSH1 0x5 DUP3 ADD SSTORE PUSH2 0x104 CALLDATALOAD PUSH1 0x6 DUP3 ADD SSTORE PUSH2 0x124 CALLDATALOAD PUSH1 0x7 DUP3 ADD SSTORE PUSH2 0x144 CALLDATALOAD PUSH1 0x8 DUP3 ADD SSTORE PUSH2 0x164 CALLDATALOAD PUSH1 0x9 DUP3 ADD SSTORE PUSH2 0x184 CALLDATALOAD PUSH1 0xA DUP3 ADD SSTORE PUSH2 0x1A4 CALLDATALOAD PUSH1 0xB DUP3 ADD SSTORE PUSH2 0x1C4 CALLDATALOAD PUSH1 0xC DUP3 ADD SSTORE PUSH2 0x1E4 CALLDATALOAD PUSH1 0xD DUP3 ADD SSTORE PUSH2 0x204 CALLDATALOAD PUSH1 0xE DUP3 ADD SSTORE PUSH2 0x224 CALLDATALOAD PUSH1 0xF DUP3 ADD SSTORE PUSH2 0x244 CALLDATALOAD PUSH1 0x10 DUP3 ADD SSTORE PUSH2 0x264 CALLDATALOAD PUSH1 0x11 DUP3 ADD SSTORE PUSH1 0x12 PUSH2 0x284 CALLDATALOAD SWAP2 ADD SSTORE PUSH32 0xF181604F407EA458352B579DFCFCAC81270903136C071AA18DF77318498B6B32 PUSH0 DUP1 LOG3 STOP JUMPDEST PUSH1 0x40 MLOAD PUSH4 0x2A9FFAB7 PUSH1 0xE2 SHL DUP2 MSTORE PUSH1 0x4 SWAP1 REVERT JUMPDEST SWAP1 POP MLOAD DUP3 GT DUP4 PUSH2 0x21A JUMP JUMPDEST SWAP1 POP DUP5 PUSH2 0x20B JUMP JUMPDEST PUSH1 0x40 MLOAD PUSH4 0xEA8E4EB5 PUSH1 0xE0 SHL DUP2 MSTORE PUSH1 0x4 SWAP1 REVERT JUMPDEST POP CALLER PUSH0 MSTORE PUSH1 0x3 PUSH1 0x20 MSTORE PUSH1 0xFF PUSH1 0x40 PUSH0 KECCAK256 SLOAD AND PUSH2 0x194 JUMP JUMPDEST CALLVALUE PUSH2 0x157 JUMPI PUSH1 0x20 PUSH2 0x363 PUSH2 0x35D CALLDATASIZE PUSH2 0xE7E JUMP JUMPDEST SWAP1 PUSH2 0x10D6 JUMP JUMPDEST PUSH1 0x40 MLOAD SWAP1 ISZERO ISZERO DUP2 MSTORE RETURN JUMPDEST CALLVALUE PUSH2 0x157 JUMPI PUSH1 0x20 PUSH2 0x363 PUSH2 0x380 CALLDATASIZE PUSH2 0xE7E JUMP JUMPDEST SWAP1 PUSH2 0x1036 JUMP JUMPDEST CALLVALUE PUSH2 0x157 JUMPI PUSH1 0x20 CALLDATASIZE PUSH1 0x3 NOT ADD SLT PUSH2 0x157 JUMPI PUSH1 0x4 CALLDATALOAD PUSH0 MSTORE PUSH1 0x1 PUSH1 0x20 MSTORE PUSH1 0x20 PUSH1 0x40 PUSH0 KECCAK256 SLOAD ISZERO ISZERO PUSH1 0x40 MLOAD SWAP1 DUP2 MSTORE RETURN JUMPDEST CALLVALUE PUSH2 0x157 JUMPI PUSH1 0x20 DUP1 PUSH1 0x3 NOT CALLDATASIZE ADD SLT PUSH2 0x157 JUMPI PUSH0 PUSH1 0xA0 PUSH1 0x40 MLOAD PUSH2 0x3D3 DUP2 PUSH2 0xEE2 JUMP JUMPDEST DUP3 DUP2 MSTORE PUSH1 0x60 DUP5 DUP3 ADD MSTORE DUP3 PUSH1 0x40 DUP3 ADD MSTORE DUP3 PUSH1 0x60 DUP3 ADD MSTORE DUP3 PUSH1 0x80 DUP3 ADD MSTORE ADD MSTORE PUSH1 0x4 CALLDATALOAD PUSH0 MSTORE PUSH1 0x1 DUP2 MSTORE PUSH1 0x40 PUSH0 KECCAK256 PUSH1 0x40 MLOAD SWAP1 PUSH2 0x40A DUP3 PUSH2 0xEE2 JUMP JUMPDEST DUP1 SLOAD DUP3 MSTORE PUSH2 0x41A PUSH1 0x1 DUP3 ADD PUSH2 0xF3D JUMP JUMPDEST DUP4 DUP4 ADD SWAP1 DUP2 MSTORE PUSH1 0xFF PUSH1 0x2 DUP4 ADD SLOAD AND SWAP2 PUSH2 0x437 PUSH1 0x40 DUP6 ADD SWAP4 DUP5 PUSH2 0x102A JUMP JUMPDEST PUSH1 0x3 DUP2 ADD SLOAD PUSH1 0x60 DUP6 ADD SWAP1 DUP2 MSTORE PUSH2 0x493 PUSH2 0x487 PUSH1 0xFF PUSH1 0x5 PUSH1 0x4 DUP7 ADD SLOAD SWAP6 PUSH1 0x80 DUP11 ADD SWAP7 DUP8 MSTORE ADD SLOAD AND SWAP5 PUSH1 0xA0 DUP9 ADD SWAP6 ISZERO ISZERO DUP7 MSTORE PUSH1 0x40 MLOAD SWAP9 DUP10 SWAP9 DUP2 DUP11 MSTORE MLOAD SWAP1 DUP10 ADD MSTORE MLOAD PUSH1 0xC0 PUSH1 0x40 DUP10 ADD MSTORE PUSH1 0xE0 DUP9 ADD SWAP1 PUSH2 0xFDF JUMP JUMPDEST SWAP5 MLOAD PUSH1 0x60 DUP8 ADD SWAP1 PUSH2 0x101D JUMP JUMPDEST MLOAD PUSH1 0x80 DUP6 ADD MSTORE MLOAD PUSH1 0xA0 DUP5 ADD MSTORE MLOAD ISZERO ISZERO PUSH1 0xC0 DUP4 ADD MSTORE SUB SWAP1 RETURN JUMPDEST CALLVALUE PUSH2 0x157 JUMPI PUSH0 CALLDATASIZE PUSH1 0x3 NOT ADD SLT PUSH2 0x157 JUMPI PUSH0 SLOAD PUSH1 0x40 MLOAD PUSH1 0x1 PUSH1 0x1 PUSH1 0xA0 SHL SUB SWAP1 SWAP2 AND DUP2 MSTORE PUSH1 0x20 SWAP1 RETURN JUMPDEST CALLVALUE PUSH2 0x157 JUMPI PUSH0 CALLDATASIZE PUSH1 0x3 NOT ADD SLT PUSH2 0x157 JUMPI PUSH2 0x4EA PUSH2 0x142E JUMP JUMPDEST PUSH0 DUP1 SLOAD PUSH1 0x1 PUSH1 0x1 PUSH1 0xA0 SHL SUB NOT DUP2 AND DUP3 SSTORE PUSH1 0x1 PUSH1 0x1 PUSH1 0xA0 SHL SUB AND PUSH32 0x8BE0079C531659141344CD1FD0A4F28419497F9722A3DAAFE3B4186F6B6457E0 DUP3 DUP1 LOG3 STOP JUMPDEST CALLVALUE PUSH2 0x157 JUMPI PUSH1 0x20 CALLDATASIZE PUSH1 0x3 NOT ADD SLT PUSH2 0x157 JUMPI PUSH1 0x4 CALLDATALOAD PUSH0 MSTORE PUSH1 0x1 PUSH1 0x20 MSTORE PUSH1 0x40 PUSH0 KECCAK256 PUSH1 0x40 MLOAD SWAP1 PUSH2 0x555 DUP3 PUSH2 0xEE2 JUMP JUMPDEST DUP1 SLOAD DUP3 MSTORE PUSH2 0x565 PUSH1 0x1 DUP3 ADD PUSH2 0xF3D JUMP JUMPDEST SWAP2 PUSH1 0x20 DUP2 ADD SWAP3 DUP4 MSTORE PUSH1 0xFF PUSH1 0x2 DUP4 ADD SLOAD AND SWAP2 PUSH2 0x584 PUSH1 0x40 DUP4 ADD SWAP4 DUP5 PUSH2 0x102A JUMP JUMPDEST PUSH1 0x3 DUP2 ADD SLOAD SWAP4 PUSH1 0x60 DUP4 ADD SWAP5 DUP6 MSTORE PUSH1 0xA0 PUSH1 0xFF PUSH1 0x5 PUSH1 0x4 DUP6 ADD SLOAD SWAP5 PUSH1 0x80 DUP8 ADD SWAP6 DUP7 MSTORE ADD SLOAD AND SWAP4 ADD SWAP3 ISZERO ISZERO DUP4 MSTORE MLOAD SWAP3 MLOAD SWAP2 PUSH1 0xF DUP4 LT ISZERO PUSH2 0x5FC JUMPI PUSH2 0x5DE SWAP5 MLOAD SWAP2 MLOAD SWAP1 MLOAD ISZERO ISZERO SWAP2 PUSH2 0x5E9 PUSH1 0x40 MLOAD SWAP7 DUP8 SWAP7 PUSH1 0xA0 DUP9 MSTORE PUSH1 0xA0 DUP9 ADD SWAP1 PUSH2 0xFDF JUMP JUMPDEST SWAP5 PUSH1 0x20 DUP8 ADD SWAP1 PUSH2 0x101D JUMP JUMPDEST PUSH1 0x40 DUP6 ADD MSTORE PUSH1 0x60 DUP5 ADD MSTORE PUSH1 0x80 DUP4 ADD MSTORE SUB SWAP1 RETURN JUMPDEST PUSH4 0x4E487B71 PUSH1 0xE0 SHL PUSH0 MSTORE PUSH1 0x21 PUSH1 0x4 MSTORE PUSH1 0x24 PUSH0 REVERT JUMPDEST CALLVALUE PUSH2 0x157 JUMPI PUSH1 0x20 CALLDATASIZE PUSH1 0x3 NOT ADD SLT PUSH2 0x157 JUMPI PUSH1 0x1 PUSH1 0x1 PUSH1 0xA0 SHL SUB PUSH2 0x631 PUSH2 0xE94 JUMP JUMPDEST AND PUSH0 MSTORE PUSH1 0x3 PUSH1 0x20 MSTORE PUSH1 0x20 PUSH1 0xFF PUSH1 0x40 PUSH0 KECCAK256 SLOAD AND PUSH1 0x40 MLOAD SWAP1 ISZERO ISZERO DUP2 MSTORE RETURN JUMPDEST CALLVALUE PUSH2 0x157 JUMPI PUSH1 0x20 CALLDATASIZE PUSH1 0x3 NOT ADD SLT PUSH2 0x157 JUMPI PUSH1 0x4 CALLDATALOAD PUSH0 MSTORE PUSH1 0x1 PUSH1 0x20 MSTORE PUSH1 0x40 PUSH0 KECCAK256 DUP1 SLOAD PUSH2 0x67A PUSH1 0x1 DUP4 ADD PUSH2 0xF3D JUMP JUMPDEST SWAP2 PUSH1 0xFF PUSH1 0x2 DUP3 ADD SLOAD AND SWAP1 PUSH1 0x3 DUP2 ADD SLOAD SWAP1 PUSH1 0xFF PUSH1 0x5 PUSH1 0x4 DUP4 ADD SLOAD SWAP3 ADD SLOAD AND SWAP2 PUSH2 0x6C2 PUSH2 0x6B7 PUSH1 0x40 MLOAD SWAP8 DUP9 SWAP8 DUP9 MSTORE PUSH1 0xC0 PUSH1 0x20 DUP10 ADD MSTORE PUSH1 0xC0 DUP9 ADD SWAP1 PUSH2 0xFDF JUMP JUMPDEST SWAP5 PUSH1 0x40 DUP8 ADD SWAP1 PUSH2 0x101D JUMP JUMPDEST PUSH1 0x60 DUP6 ADD MSTORE PUSH1 0x80 DUP5 ADD MSTORE ISZERO ISZERO PUSH1 0xA0 DUP4 ADD MSTORE SUB SWAP1 RETURN JUMPDEST CALLVALUE PUSH2 0x157 JUMPI PUSH1 0x40 CALLDATASIZE PUSH1 0x3 NOT ADD SLT PUSH2 0x157 JUMPI PUSH2 0x6F0 PUSH2 0xE94 JUMP JUMPDEST PUSH1 0x24 CALLDATALOAD SWAP1 DUP2 ISZERO ISZERO SWAP1 DUP2 DUP4 SUB PUSH2 0x157 JUMPI PUSH2 0x707 PUSH2 0x142E JUMP JUMPDEST PUSH1 0x1 PUSH1 0x1 PUSH1 0xA0 SHL SUB AND SWAP2 DUP3 ISZERO PUSH2 0x764 JUMPI PUSH32 0x1EFF62A53441C7D0125C22F2A9A324E206B34EFA41E19469D7EFB9BB703D21A3 SWAP2 PUSH2 0x75B PUSH1 0x20 SWAP3 DUP6 PUSH0 MSTORE PUSH1 0x3 DUP5 MSTORE PUSH1 0x40 PUSH0 KECCAK256 SWAP1 PUSH1 0xFF DUP1 NOT DUP4 SLOAD AND SWAP2 ISZERO ISZERO AND OR SWAP1 SSTORE JUMP JUMPDEST PUSH1 0x40 MLOAD SWAP1 DUP2 MSTORE LOG2 STOP JUMPDEST PUSH1 0x40 MLOAD PUSH4 0xD92E233D PUSH1 0xE0 SHL DUP2 MSTORE PUSH1 0x4 SWAP1 REVERT JUMPDEST CALLVALUE PUSH2 0x157 JUMPI PUSH2 0x784 CALLDATASIZE PUSH2 0xE7E JUMP JUMPDEST SWAP1 PUSH0 PUSH2 0x240 PUSH1 0x40 MLOAD PUSH2 0x795 DUP2 PUSH2 0xEFE JUMP JUMPDEST DUP3 DUP2 MSTORE DUP3 PUSH1 0x20 DUP3 ADD MSTORE DUP3 PUSH1 0x40 DUP3 ADD MSTORE DUP3 PUSH1 0x60 DUP3 ADD MSTORE DUP3 PUSH1 0x80 DUP3 ADD MSTORE DUP3 PUSH1 0xA0 DUP3 ADD MSTORE DUP3 PUSH1 0xC0 DUP3 ADD MSTORE DUP3 PUSH1 0xE0 DUP3 ADD MSTORE DUP3 PUSH2 0x100 DUP3 ADD MSTORE DUP3 PUSH2 0x120 DUP3 ADD MSTORE DUP3 PUSH2 0x140 DUP3 ADD MSTORE DUP3 PUSH2 0x160 DUP3 ADD MSTORE DUP3 PUSH2 0x180 DUP3 ADD MSTORE DUP3 PUSH2 0x1A0 DUP3 ADD MSTORE DUP3 PUSH2 0x1C0 DUP3 ADD MSTORE DUP3 PUSH2 0x1E0 DUP3 ADD MSTORE DUP3 PUSH2 0x200 DUP3 ADD MSTORE DUP3 PUSH2 0x220 DUP3 ADD MSTORE ADD MSTORE PUSH0 MSTORE PUSH1 0x2 PUSH1 0x20 MSTORE PUSH1 0x40 PUSH0 KECCAK256 SWAP1 PUSH0 MSTORE PUSH1 0x20 MSTORE PUSH2 0x260 PUSH1 0x40 PUSH0 KECCAK256 PUSH2 0x240 PUSH1 0x40 MLOAD PUSH2 0x831 DUP2 PUSH2 0xEFE JUMP JUMPDEST PUSH1 0x12 DUP4 SLOAD SWAP4 DUP5 DUP4 MSTORE PUSH1 0x1 DUP2 ADD SLOAD PUSH1 0x20 DUP5 ADD MSTORE PUSH1 0x2 DUP2 ADD SLOAD PUSH1 0x40 DUP5 ADD MSTORE PUSH1 0x3 DUP2 ADD SLOAD PUSH1 0x60 DUP5 ADD MSTORE PUSH1 0x4 DUP2 ADD SLOAD PUSH1 0x80 DUP5 ADD MSTORE PUSH1 0x5 DUP2 ADD SLOAD PUSH1 0xA0 DUP5 ADD MSTORE PUSH1 0x6 DUP2 ADD SLOAD PUSH1 0xC0 DUP5 ADD MSTORE PUSH1 0x7 DUP2 ADD SLOAD PUSH1 0xE0 DUP5 ADD MSTORE PUSH1 0x8 DUP2 ADD SLOAD PUSH2 0x100 DUP5 ADD MSTORE PUSH1 0x9 DUP2 ADD SLOAD PUSH2 0x120 DUP5 ADD MSTORE PUSH1 0xA DUP2 ADD SLOAD PUSH2 0x140 DUP5 ADD MSTORE PUSH1 0xB DUP2 ADD SLOAD PUSH2 0x160 DUP5 ADD MSTORE PUSH1 0xC DUP2 ADD SLOAD PUSH2 0x180 DUP5 ADD MSTORE PUSH1 0xD DUP2 ADD SLOAD PUSH2 0x1A0 DUP5 ADD MSTORE PUSH1 0xE DUP2 ADD SLOAD PUSH2 0x1C0 DUP5 ADD MSTORE PUSH1 0xF DUP2 ADD SLOAD PUSH2 0x1E0 DUP5 ADD MSTORE PUSH1 0x10 DUP2 ADD SLOAD PUSH2 0x200 DUP5 ADD MSTORE PUSH1 0x11 DUP2 ADD SLOAD PUSH2 0x220 DUP5 ADD MSTORE ADD SLOAD DUP3 DUP3 ADD MSTORE PUSH1 0x40 MLOAD SWAP3 DUP4 MSTORE PUSH1 0x20 DUP2 ADD MLOAD PUSH1 0x20 DUP5 ADD MSTORE PUSH1 0x40 DUP2 ADD MLOAD PUSH1 0x40 DUP5 ADD MSTORE PUSH1 0x60 DUP2 ADD MLOAD PUSH1 0x60 DUP5 ADD MSTORE PUSH1 0x80 DUP2 ADD MLOAD PUSH1 0x80 DUP5 ADD MSTORE PUSH1 0xA0 DUP2 ADD MLOAD PUSH1 0xA0 DUP5 ADD MSTORE PUSH1 0xC0 DUP2 ADD MLOAD PUSH1 0xC0 DUP5 ADD MSTORE PUSH1 0xE0 DUP2 ADD MLOAD PUSH1 0xE0 DUP5 ADD MSTORE PUSH2 0x100 DUP2 ADD MLOAD PUSH2 0x100 DUP5 ADD MSTORE PUSH2 0x120 DUP2 ADD MLOAD PUSH2 0x120 DUP5 ADD MSTORE PUSH2 0x140 DUP2 ADD MLOAD PUSH2 0x140 DUP5 ADD MSTORE PUSH2 0x160 DUP2 ADD MLOAD PUSH2 0x160 DUP5 ADD MSTORE PUSH2 0x180 DUP2 ADD MLOAD PUSH2 0x180 DUP5 ADD MSTORE PUSH2 0x1A0 DUP2 ADD MLOAD PUSH2 0x1A0 DUP5 ADD MSTORE PUSH2 0x1C0 DUP2 ADD MLOAD PUSH2 0x1C0 DUP5 ADD MSTORE PUSH2 0x1E0 DUP2 ADD MLOAD PUSH2 0x1E0 DUP5 ADD MSTORE PUSH2 0x200 DUP2 ADD MLOAD PUSH2 0x200 DUP5 ADD MSTORE PUSH2 0x220 DUP2 ADD MLOAD PUSH2 0x220 DUP5 ADD MSTORE ADD MLOAD PUSH2 0x240 DUP3 ADD MSTORE RETURN JUMPDEST CALLVALUE PUSH2 0x157 JUMPI PUSH2 0x9CF CALLDATASIZE PUSH2 0xE7E JUMP JUMPDEST SWAP1 PUSH0 MSTORE PUSH1 0x2 PUSH1 0x20 MSTORE PUSH1 0x40 PUSH0 KECCAK256 SWAP1 PUSH0 MSTORE PUSH1 0x20 MSTORE PUSH1 0x12 PUSH1 0xF PUSH1 0xE PUSH1 0xD PUSH1 0xC PUSH1 0xB PUSH1 0xA PUSH1 0x9 PUSH1 0x8 PUSH1 0x7 PUSH1 0x6 PUSH1 0x5 PUSH1 0x4 PUSH1 0x3 PUSH1 0x40 PUSH0 KECCAK256 SWAP14 DUP15 SWAP14 DUP15 SWAP14 DUP15 SWAP14 DUP15 SWAP14 DUP15 SWAP14 DUP15 SWAP14 DUP15 SWAP14 DUP15 SWAP14 DUP15 SWAP14 DUP15 SWAP14 DUP15 SWAP14 DUP15 SWAP14 DUP15 SWAP14 DUP15 SLOAD SWAP15 PUSH1 0x1 DUP2 ADD SLOAD PUSH2 0x100 MSTORE PUSH1 0x2 DUP2 ADD SLOAD PUSH2 0x120 MSTORE ADD SLOAD SWAP15 ADD SLOAD SWAP15 ADD SLOAD SWAP15 ADD SLOAD SWAP15 ADD SLOAD SWAP15 ADD SLOAD SWAP15 ADD SLOAD SWAP15 ADD SLOAD SWAP15 ADD SLOAD SWAP15 ADD SLOAD SWAP15 ADD SLOAD SWAP15 ADD SLOAD SWAP15 ADD SLOAD SWAP15 PUSH1 0x10 DUP2 ADD SLOAD PUSH1 0x80 MSTORE PUSH1 0x11 DUP2 ADD SLOAD PUSH1 0xC0 MSTORE ADD SLOAD PUSH1 0xE0 MSTORE PUSH1 0x40 MLOAD PUSH1 0xA0 MSTORE PUSH1 0xA0 MLOAD MSTORE PUSH2 0x100 MLOAD PUSH1 0x20 PUSH1 0xA0 MLOAD ADD MSTORE PUSH2 0x120 MLOAD PUSH1 0x40 PUSH1 0xA0 MLOAD ADD MSTORE PUSH1 0x60 PUSH1 0xA0 MLOAD ADD MSTORE PUSH1 0x80 PUSH1 0xA0 MLOAD ADD MSTORE PUSH1 0xA0 DUP1 MLOAD ADD MSTORE PUSH1 0xC0 PUSH1 0xA0 MLOAD ADD MSTORE PUSH1 0xE0 PUSH1 0xA0 MLOAD ADD MSTORE PUSH2 0x100 PUSH1 0xA0 MLOAD ADD MSTORE PUSH2 0x120 PUSH1 0xA0 MLOAD ADD MSTORE PUSH2 0x140 PUSH1 0xA0 MLOAD ADD MSTORE PUSH2 0x160 PUSH1 0xA0 MLOAD ADD MSTORE PUSH2 0x180 PUSH1 0xA0 MLOAD ADD MSTORE PUSH2 0x1A0 PUSH1 0xA0 MLOAD ADD MSTORE PUSH2 0x1C0 PUSH1 0xA0 MLOAD ADD MSTORE PUSH2 0x1E0 PUSH1 0xA0 MLOAD ADD MSTORE PUSH1 0x80 MLOAD PUSH2 0x200 PUSH1 0xA0 MLOAD ADD MSTORE PUSH1 0xC0 MLOAD PUSH2 0x220 PUSH1 0xA0 MLOAD ADD MSTORE PUSH1 0xE0 MLOAD PUSH2 0x240 PUSH1 0xA0 MLOAD ADD MSTORE PUSH2 0x260 PUSH1 0xA0 MLOAD RETURN JUMPDEST CALLVALUE PUSH2 0x157 JUMPI PUSH1 0xC0 CALLDATASIZE PUSH1 0x3 NOT ADD SLT PUSH2 0x157 JUMPI PUSH1 0x24 CALLDATALOAD PUSH8 0xFFFFFFFFFFFFFFFF DUP2 GT PUSH2 0x157 JUMPI CALLDATASIZE PUSH1 0x23 DUP3 ADD SLT ISZERO PUSH2 0x157 JUMPI PUSH8 0xFFFFFFFFFFFFFFFF DUP2 PUSH1 0x4 ADD CALLDATALOAD GT PUSH2 0x157 JUMPI CALLDATASIZE PUSH1 0x24 DUP3 PUSH1 0x4 ADD CALLDATALOAD DUP4 ADD ADD GT PUSH2 0x157 JUMPI PUSH1 0xF PUSH1 0x44 CALLDATALOAD LT ISZERO PUSH2 0x157 JUMPI PUSH1 0xA4 CALLDATALOAD DUP1 ISZERO ISZERO DUP2 SUB PUSH2 0x157 JUMPI PUSH0 SLOAD PUSH1 0x1 PUSH1 0x1 PUSH1 0xA0 SHL SUB AND CALLER EQ DUP1 ISZERO PUSH2 0xE3A JUMPI JUMPDEST ISZERO PUSH2 0x322 JUMPI PUSH1 0x4 CALLDATALOAD ISZERO PUSH2 0x2FD JUMPI DUP2 PUSH1 0x4 ADD CALLDATALOAD ISZERO PUSH2 0x2FD JUMPI PUSH1 0x44 CALLDATALOAD ISZERO PUSH2 0x2FD JUMPI PUSH1 0x84 CALLDATALOAD ISZERO PUSH2 0x2FD JUMPI PUSH1 0x40 MLOAD SWAP1 PUSH2 0xBC8 DUP3 PUSH2 0xEE2 JUMP JUMPDEST PUSH1 0x4 CALLDATALOAD DUP3 MSTORE PUSH1 0x20 SWAP1 PUSH1 0x40 MLOAD SWAP3 PUSH2 0xBEB DUP4 PUSH1 0x1F NOT PUSH1 0x1F DUP9 PUSH1 0x4 ADD CALLDATALOAD ADD AND ADD DUP6 PUSH2 0xF1B JUMP JUMPDEST PUSH1 0x4 DUP6 ADD CALLDATALOAD DUP1 DUP6 MSTORE PUSH1 0x24 DUP7 ADD DUP5 DUP7 ADD CALLDATACOPY PUSH0 DUP4 DUP7 PUSH1 0x4 ADD CALLDATALOAD DUP7 ADD ADD MSTORE DUP3 DUP2 ADD SWAP4 DUP5 MSTORE PUSH1 0x40 DUP2 ADD SWAP1 PUSH2 0xC1D PUSH1 0x44 CALLDATALOAD DUP4 PUSH2 0x102A JUMP JUMPDEST PUSH1 0x60 DUP2 ADD SWAP5 PUSH1 0x64 CALLDATALOAD DUP7 MSTORE PUSH1 0x80 DUP3 ADD SWAP1 PUSH1 0x84 CALLDATALOAD DUP3 MSTORE PUSH1 0xA0 DUP4 ADD SWAP1 DUP6 ISZERO ISZERO DUP3 MSTORE PUSH1 0x4 CALLDATALOAD PUSH0 MSTORE PUSH1 0x1 DUP1 DUP9 MSTORE PUSH1 0x40 PUSH0 KECCAK256 SWAP5 MLOAD DUP6 SSTORE DUP1 DUP6 ADD SWAP2 MLOAD DUP1 MLOAD SWAP1 PUSH8 0xFFFFFFFFFFFFFFFF DUP3 GT PUSH2 0xE26 JUMPI PUSH2 0xC6E DUP5 SLOAD PUSH2 0xEAA JUMP JUMPDEST PUSH1 0x1F DUP2 GT PUSH2 0xDE0 JUMPI JUMPDEST POP DUP10 SWAP1 PUSH1 0x1F DUP4 GT PUSH1 0x1 EQ PUSH2 0xD7F JUMPI SWAP3 DUP3 SWAP4 SWAP2 DUP4 SWAP3 PUSH0 SWAP5 PUSH2 0xD74 JUMPI JUMPDEST POP POP SHL SWAP2 PUSH0 NOT SWAP1 PUSH1 0x3 SHL SHR NOT AND OR SWAP1 SSTORE JUMPDEST PUSH1 0x2 DUP4 ADD SWAP4 MLOAD SWAP2 PUSH1 0xF DUP4 LT ISZERO PUSH2 0x5FC JUMPI PUSH32 0x17B9B83355EAFB5421EB106AD941C05A17F21D328C0F9A21F582939CA6C2177E SWAP8 PUSH2 0xD0A SWAP6 PUSH1 0x5 SWAP5 PUSH1 0xFF DUP1 NOT DUP4 SLOAD AND SWAP2 AND OR SWAP1 SSTORE MLOAD PUSH1 0x3 DUP6 ADD SSTORE MLOAD PUSH1 0x4 DUP5 ADD SSTORE MLOAD ISZERO ISZERO SWAP2 ADD SWAP1 PUSH1 0xFF DUP1 NOT DUP4 SLOAD AND SWAP2 ISZERO ISZERO AND OR SWAP1 SSTORE JUMP JUMPDEST PUSH2 0xD43 PUSH1 0x40 MLOAD SWAP3 PUSH1 0xA0 DUP5 MSTORE DUP6 PUSH1 0x4 ADD CALLDATALOAD PUSH1 0xA0 DUP6 ADD MSTORE DUP6 PUSH1 0x4 ADD CALLDATALOAD PUSH1 0x24 DUP8 ADD PUSH1 0xC0 DUP7 ADD CALLDATACOPY PUSH0 PUSH1 0xC0 DUP8 PUSH1 0x4 ADD CALLDATALOAD DUP7 ADD ADD MSTORE DUP4 ADD PUSH1 0x44 CALLDATALOAD PUSH2 0x101D JUMP JUMPDEST PUSH1 0x64 CALLDATALOAD PUSH1 0x40 DUP4 ADD MSTORE PUSH1 0x84 CALLDATALOAD PUSH1 0x60 DUP4 ADD MSTORE ISZERO ISZERO PUSH1 0x80 DUP3 ADD MSTORE PUSH1 0x4 DUP1 CALLDATALOAD SWAP4 ADD CALLDATALOAD PUSH1 0x1F ADD PUSH1 0x1F NOT AND DUP2 ADD DUP2 SWAP1 SUB PUSH1 0xC0 ADD SWAP1 LOG2 STOP JUMPDEST ADD MLOAD SWAP3 POP DUP14 DUP1 PUSH2 0xC92 JUMP JUMPDEST SWAP1 PUSH1 0x1F NOT DUP4 AND SWAP2 DUP6 PUSH0 MSTORE DUP4 DUP13 PUSH0 KECCAK256 SWAP4 DUP14 PUSH0 SWAP1 JUMPDEST DUP9 DUP4 DUP4 LT PUSH2 0xDC8 JUMPI POP POP POP LT PUSH2 0xDB0 JUMPI JUMPDEST POP POP POP DUP2 SHL ADD SWAP1 SSTORE PUSH2 0xCA3 JUMP JUMPDEST ADD MLOAD PUSH0 NOT PUSH1 0xF8 DUP5 PUSH1 0x3 SHL AND SHR NOT AND SWAP1 SSTORE DUP12 DUP1 DUP1 PUSH2 0xDA3 JUMP JUMPDEST DUP7 DUP7 ADD MLOAD DUP9 SSTORE SWAP1 SWAP7 ADD SWAP6 SWAP5 DUP6 ADD SWAP5 DUP8 SWAP4 POP ADD DUP15 PUSH2 0xD92 JUMP JUMPDEST DUP5 PUSH0 MSTORE DUP11 PUSH0 KECCAK256 PUSH1 0x1F DUP5 ADD PUSH1 0x5 SHR DUP2 ADD SWAP2 DUP13 DUP6 LT PUSH2 0xE1C JUMPI JUMPDEST PUSH1 0x1F ADD PUSH1 0x5 SHR ADD SWAP1 DUP5 SWAP1 JUMPDEST DUP3 DUP2 LT PUSH2 0xE11 JUMPI POP POP PUSH2 0xC77 JUMP JUMPDEST PUSH0 DUP2 SSTORE ADD DUP5 SWAP1 PUSH2 0xE03 JUMP JUMPDEST SWAP1 SWAP2 POP DUP2 SWAP1 PUSH2 0xDF8 JUMP JUMPDEST PUSH4 0x4E487B71 PUSH1 0xE0 SHL PUSH0 MSTORE PUSH1 0x41 PUSH1 0x4 MSTORE PUSH1 0x24 PUSH0 REVERT JUMPDEST POP CALLER PUSH0 MSTORE PUSH1 0x3 PUSH1 0x20 MSTORE PUSH1 0xFF PUSH1 0x40 PUSH0 KECCAK256 SLOAD AND PUSH2 0xB94 JUMP JUMPDEST CALLVALUE PUSH2 0x157 JUMPI PUSH1 0x20 CALLDATASIZE PUSH1 0x3 NOT ADD SLT PUSH2 0x157 JUMPI PUSH1 0x20 SWAP1 PUSH1 0x4 CALLDATALOAD PUSH0 MSTORE PUSH1 0x1 DUP3 MSTORE PUSH1 0xFF PUSH1 0x5 PUSH1 0x40 PUSH0 KECCAK256 ADD SLOAD AND ISZERO ISZERO DUP2 MSTORE RETURN JUMPDEST PUSH1 0x40 SWAP1 PUSH1 0x3 NOT ADD SLT PUSH2 0x157 JUMPI PUSH1 0x4 CALLDATALOAD SWAP1 PUSH1 0x24 CALLDATALOAD SWAP1 JUMP JUMPDEST PUSH1 0x4 CALLDATALOAD SWAP1 PUSH1 0x1 PUSH1 0x1 PUSH1 0xA0 SHL SUB DUP3 AND DUP3 SUB PUSH2 0x157 JUMPI JUMP JUMPDEST SWAP1 PUSH1 0x1 DUP3 DUP2 SHR SWAP3 AND DUP1 ISZERO PUSH2 0xED8 JUMPI JUMPDEST PUSH1 0x20 DUP4 LT EQ PUSH2 0xEC4 JUMPI JUMP JUMPDEST PUSH4 0x4E487B71 PUSH1 0xE0 SHL PUSH0 MSTORE PUSH1 0x22 PUSH1 0x4 MSTORE PUSH1 0x24 PUSH0 REVERT JUMPDEST SWAP2 PUSH1 0x7F AND SWAP2 PUSH2 0xEB9 JUMP JUMPDEST PUSH1 0xC0 DUP2 ADD SWAP1 DUP2 LT PUSH8 0xFFFFFFFFFFFFFFFF DUP3 GT OR PUSH2 0xE26 JUMPI PUSH1 0x40 MSTORE JUMP JUMPDEST PUSH2 0x260 DUP2 ADD SWAP1 DUP2 LT PUSH8 0xFFFFFFFFFFFFFFFF DUP3 GT OR PUSH2 0xE26 JUMPI PUSH1 0x40 MSTORE JUMP JUMPDEST SWAP1 PUSH1 0x1F DUP1 NOT SWAP2 ADD AND DUP2 ADD SWAP1 DUP2 LT PUSH8 0xFFFFFFFFFFFFFFFF DUP3 GT OR PUSH2 0xE26 JUMPI PUSH1 0x40 MSTORE JUMP JUMPDEST SWAP1 PUSH1 0x40 MLOAD SWAP2 DUP3 PUSH0 DUP3 SLOAD PUSH2 0xF4F DUP2 PUSH2 0xEAA JUMP JUMPDEST SWAP1 DUP2 DUP5 MSTORE PUSH1 0x20 SWAP5 PUSH1 0x1 SWAP2 PUSH1 0x1 DUP2 AND SWAP1 DUP2 PUSH0 EQ PUSH2 0xFBD JUMPI POP PUSH1 0x1 EQ PUSH2 0xF7F JUMPI JUMPDEST POP POP POP PUSH2 0xF7D SWAP3 POP SUB DUP4 PUSH2 0xF1B JUMP JUMPDEST JUMP JUMPDEST PUSH0 SWAP1 DUP2 MSTORE DUP6 DUP2 KECCAK256 SWAP6 SWAP4 POP SWAP2 SWAP1 JUMPDEST DUP2 DUP4 LT PUSH2 0xFA5 JUMPI POP POP PUSH2 0xF7D SWAP4 POP DUP3 ADD ADD PUSH0 DUP1 DUP1 PUSH2 0xF6E JUMP JUMPDEST DUP6 SLOAD DUP9 DUP5 ADD DUP6 ADD MSTORE SWAP5 DUP6 ADD SWAP5 DUP8 SWAP5 POP SWAP2 DUP4 ADD SWAP2 PUSH2 0xF8C JUMP JUMPDEST SWAP3 POP POP POP PUSH2 0xF7D SWAP5 SWAP3 POP PUSH1 0xFF NOT AND DUP3 DUP5 ADD MSTORE ISZERO ISZERO PUSH1 0x5 SHL DUP3 ADD ADD PUSH0 DUP1 DUP1 PUSH2 0xF6E JUMP JUMPDEST SWAP2 SWAP1 DUP3 MLOAD SWAP3 DUP4 DUP3 MSTORE PUSH0 JUMPDEST DUP5 DUP2 LT PUSH2 0x1009 JUMPI POP POP DUP3 PUSH0 PUSH1 0x20 DUP1 SWAP5 SWAP6 DUP5 ADD ADD MSTORE PUSH1 0x1F DUP1 NOT SWAP2 ADD AND ADD ADD SWAP1 JUMP JUMPDEST PUSH1 0x20 DUP2 DUP4 ADD DUP2 ADD MLOAD DUP5 DUP4 ADD DUP3 ADD MSTORE ADD PUSH2 0xFE9 JUMP JUMPDEST SWAP1 PUSH1 0xF DUP3 LT ISZERO PUSH2 0x5FC JUMPI MSTORE JUMP JUMPDEST PUSH1 0xF DUP3 LT ISZERO PUSH2 0x5FC JUMPI MSTORE JUMP JUMPDEST PUSH0 MSTORE PUSH1 0x1 PUSH1 0x20 MSTORE PUSH1 0x40 PUSH0 KECCAK256 PUSH1 0x40 MLOAD PUSH2 0x104D DUP2 PUSH2 0xEE2 JUMP JUMPDEST DUP2 SLOAD DUP2 MSTORE PUSH2 0x105D PUSH1 0x1 DUP4 ADD PUSH2 0xF3D JUMP JUMPDEST PUSH1 0x20 DUP3 ADD MSTORE PUSH2 0x1076 PUSH1 0xFF PUSH1 0x2 DUP5 ADD SLOAD AND PUSH1 0x40 DUP4 ADD PUSH2 0x102A JUMP JUMPDEST PUSH1 0x3 DUP3 ADD SLOAD PUSH1 0x60 DUP3 ADD MSTORE PUSH1 0xFF PUSH1 0x5 PUSH1 0x4 DUP5 ADD SLOAD SWAP4 DUP5 PUSH1 0x80 DUP6 ADD MSTORE ADD SLOAD AND ISZERO SWAP1 DUP2 ISZERO PUSH1 0xA0 DUP3 ADD MSTORE MLOAD ISZERO PUSH2 0x10CF JUMPI PUSH2 0x10C9 JUMPI DUP2 ISZERO SWAP2 DUP3 ISZERO PUSH2 0x10BF JUMPI JUMPDEST POP POP PUSH2 0x10BB JUMPI PUSH1 0x1 SWAP1 JUMP JUMPDEST PUSH0 SWAP1 JUMP JUMPDEST GT SWAP1 POP PUSH0 DUP1 PUSH2 0x10B0 JUMP JUMPDEST POP POP PUSH0 SWAP1 JUMP JUMPDEST POP POP POP PUSH0 SWAP1 JUMP JUMPDEST SWAP1 DUP2 PUSH0 MSTORE PUSH1 0x1 PUSH1 0x20 MSTORE PUSH1 0x40 SWAP2 DUP3 PUSH0 KECCAK256 DUP4 MLOAD PUSH2 0x10F0 DUP2 PUSH2 0xEE2 JUMP JUMPDEST DUP2 SLOAD DUP2 MSTORE PUSH2 0x1100 PUSH1 0x1 DUP4 ADD PUSH2 0xF3D JUMP JUMPDEST PUSH1 0x20 DUP3 ADD MSTORE PUSH2 0x1118 PUSH1 0xFF PUSH1 0x2 DUP5 ADD SLOAD AND DUP7 DUP4 ADD PUSH2 0x102A JUMP JUMPDEST PUSH1 0x3 DUP3 ADD SLOAD PUSH1 0x60 DUP3 ADD MSTORE PUSH1 0xFF PUSH1 0x5 PUSH1 0x4 DUP5 ADD SLOAD SWAP4 DUP5 PUSH1 0x80 DUP6 ADD MSTORE ADD SLOAD AND ISZERO ISZERO PUSH1 0xA0 DUP3 ADD MSTORE MLOAD ISZERO PUSH2 0x1426 JUMPI DUP3 ISZERO SWAP1 DUP2 ISZERO PUSH2 0x141C JUMPI JUMPDEST POP PUSH2 0x10CF JUMPI PUSH0 MSTORE PUSH1 0x2 PUSH1 0x20 MSTORE DUP2 PUSH0 KECCAK256 SWAP1 PUSH0 MSTORE PUSH1 0x20 MSTORE DUP1 PUSH0 KECCAK256 DUP2 MLOAD PUSH2 0x220 MSTORE PUSH2 0x1176 PUSH2 0x220 MLOAD PUSH2 0xEFE JUMP JUMPDEST DUP1 SLOAD PUSH2 0x1C0 MSTORE PUSH2 0x1C0 MLOAD PUSH2 0x220 MLOAD MSTORE PUSH1 0x1 DUP2 ADD SLOAD DUP1 PUSH1 0x20 PUSH2 0x220 MLOAD ADD MSTORE PUSH1 0x2 DUP3 ADD SLOAD DUP1 SWAP4 PUSH2 0x220 MLOAD ADD MSTORE PUSH1 0x3 DUP3 ADD SLOAD SWAP3 DUP4 PUSH1 0x60 PUSH2 0x220 MLOAD ADD MSTORE PUSH1 0x4 DUP4 ADD SLOAD DUP1 PUSH1 0x80 PUSH2 0x220 MLOAD ADD MSTORE PUSH1 0x5 DUP5 ADD SLOAD DUP1 PUSH1 0xA0 PUSH2 0x220 MLOAD ADD MSTORE PUSH1 0x6 DUP6 ADD SLOAD DUP1 PUSH1 0xC0 PUSH2 0x220 MLOAD ADD MSTORE PUSH1 0x7 DUP7 ADD SLOAD DUP1 PUSH1 0xE0 PUSH2 0x220 MLOAD ADD MSTORE PUSH1 0x8 DUP8 ADD SLOAD SWAP2 DUP3 PUSH2 0x100 PUSH2 0x220 MLOAD ADD MSTORE PUSH1 0x9 DUP9 ADD SLOAD SWAP4 DUP5 PUSH2 0x120 PUSH2 0x220 MLOAD ADD MSTORE PUSH1 0xA DUP10 ADD SLOAD SWAP6 DUP7 PUSH2 0x140 PUSH2 0x220 MLOAD ADD MSTORE PUSH1 0xB DUP11 ADD SLOAD SWAP8 DUP9 PUSH2 0x160 PUSH2 0x220 MLOAD ADD MSTORE PUSH1 0xC DUP12 ADD SLOAD SWAP10 DUP11 PUSH2 0x180 PUSH2 0x220 MLOAD ADD MSTORE PUSH1 0x12 PUSH1 0xD DUP14 ADD SLOAD SWAP13 DUP14 PUSH2 0x1A0 PUSH2 0x220 MLOAD ADD MSTORE PUSH1 0xE DUP2 ADD SLOAD PUSH2 0x240 MSTORE PUSH2 0x240 MLOAD PUSH2 0x1C0 PUSH2 0x220 MLOAD ADD MSTORE PUSH1 0xF DUP2 ADD SLOAD PUSH2 0x200 MSTORE PUSH2 0x200 MLOAD PUSH2 0x1E0 PUSH2 0x220 MLOAD ADD MSTORE PUSH1 0x10 DUP2 ADD SLOAD PUSH2 0x1E0 MSTORE PUSH2 0x1E0 MLOAD PUSH2 0x200 PUSH2 0x220 MLOAD ADD MSTORE PUSH1 0x11 DUP2 ADD SLOAD PUSH2 0x1A0 MSTORE PUSH2 0x1A0 MLOAD PUSH2 0x220 DUP1 MLOAD ADD MSTORE ADD SLOAD PUSH2 0x180 MSTORE PUSH2 0x180 MLOAD PUSH2 0x240 PUSH2 0x220 MLOAD ADD MSTORE PUSH2 0x1C0 MLOAD ISZERO ISZERO PUSH2 0x160 MSTORE PUSH2 0x1C0 MLOAD ISZERO PUSH2 0x1410 JUMPI JUMPDEST POP PUSH2 0x160 MLOAD PUSH2 0x140 MSTORE PUSH2 0x160 MLOAD ISZERO PUSH2 0x1404 JUMPI JUMPDEST POP PUSH2 0x140 MLOAD SWAP11 DUP12 ISZERO PUSH2 0x13FA JUMPI JUMPDEST POP DUP11 ISZERO PUSH2 0x13F0 JUMPI JUMPDEST POP DUP10 ISZERO PUSH2 0x13E6 JUMPI JUMPDEST POP DUP9 ISZERO PUSH2 0x13DC JUMPI JUMPDEST POP DUP8 ISZERO PUSH2 0x13D2 JUMPI JUMPDEST POP DUP7 ISZERO PUSH2 0x13C8 JUMPI JUMPDEST POP DUP6 ISZERO PUSH2 0x13BE JUMPI JUMPDEST POP DUP5 ISZERO PUSH2 0x13B4 JUMPI JUMPDEST POP DUP4 ISZERO PUSH2 0x13AA JUMPI JUMPDEST POP DUP3 ISZERO PUSH2 0x13A0 JUMPI JUMPDEST POP DUP2 ISZERO PUSH2 0x1396 JUMPI JUMPDEST POP DUP1 ISZERO PUSH2 0x138A JUMPI JUMPDEST DUP1 ISZERO PUSH2 0x137E JUMPI JUMPDEST DUP1 ISZERO PUSH2 0x1372 JUMPI JUMPDEST DUP1 ISZERO PUSH2 0x1366 JUMPI JUMPDEST DUP1 ISZERO PUSH2 0x135C JUMPI SWAP1 JUMP JUMPDEST POP PUSH2 0x180 MLOAD ISZERO ISZERO SWAP1 JUMP JUMPDEST POP PUSH2 0x1A0 MLOAD ISZERO ISZERO PUSH2 0x1353 JUMP JUMPDEST POP PUSH2 0x1E0 MLOAD ISZERO ISZERO PUSH2 0x134C JUMP JUMPDEST POP PUSH2 0x200 MLOAD ISZERO ISZERO PUSH2 0x1345 JUMP JUMPDEST POP PUSH2 0x240 MLOAD ISZERO ISZERO PUSH2 0x133E JUMP JUMPDEST SWAP1 POP ISZERO ISZERO PUSH0 PUSH2 0x1336 JUMP JUMPDEST ISZERO ISZERO SWAP2 POP PUSH0 PUSH2 0x132E JUMP JUMPDEST ISZERO ISZERO SWAP3 POP PUSH0 PUSH2 0x1326 JUMP JUMPDEST ISZERO ISZERO SWAP4 POP PUSH0 PUSH2 0x131E JUMP JUMPDEST ISZERO ISZERO SWAP5 POP PUSH0 PUSH2 0x1316 JUMP JUMPDEST ISZERO ISZERO SWAP6 POP PUSH0 PUSH2 0x130E JUMP JUMPDEST ISZERO ISZERO SWAP7 POP PUSH0 PUSH2 0x1306 JUMP JUMPDEST ISZERO ISZERO SWAP8 POP PUSH0 PUSH2 0x12FE JUMP JUMPDEST ISZERO ISZERO SWAP9 POP PUSH0 PUSH2 0x12F6 JUMP JUMPDEST ISZERO ISZERO SWAP10 POP PUSH0 PUSH2 0x12EE JUMP JUMPDEST ISZERO ISZERO SWAP11 POP PUSH0 PUSH2 0x12E6 JUMP JUMPDEST ISZERO ISZERO PUSH2 0x140 MSTORE PUSH0 PUSH2 0x12D9 JUMP JUMPDEST ISZERO ISZERO PUSH2 0x160 MSTORE PUSH0 PUSH2 0x12C6 JUMP JUMPDEST SWAP1 POP DUP3 GT PUSH0 PUSH2 0x114C JUMP JUMPDEST POP POP POP POP PUSH0 SWAP1 JUMP JUMPDEST PUSH0 SLOAD PUSH1 0x1 PUSH1 0x1 PUSH1 0xA0 SHL SUB AND CALLER SUB PUSH2 0x1441 JUMPI JUMP JUMPDEST PUSH1 0x40 MLOAD PUSH4 0x118CDAA7 PUSH1 0xE0 SHL DUP2 MSTORE CALLER PUSH1 0x4 DUP3 ADD MSTORE PUSH1 0x24 SWAP1 REVERT INVALID LOG2 PUSH5 0x6970667358 0x22 SLT KECCAK256 SIGNEXTEND XOR 0xE5 DUP4 0x4C 0x2C DIV 0xC6 0xC8 DUP14 PUSH6 0x3E4BDAAE6EE6 0xAD GASPRICE DUP8 SHL PUSH14 0xBE0E9C68C9C5529384A264736F6C PUSH4 0x43000818 STOP CALLER "},"methodIdentifiers":{"authorizedCallers(address)":"536fff6c","enchantmentBonusesOf(uint256,uint256)":"10a950c1","enchantmentDefinitionOf(uint256)":"479b9157","enchantmentExists(uint256)":"95828902","getEnchantmentBonuses(uint256,uint256)":"2d36406b","getEnchantmentDefinition(uint256)":"909bac13","getEnchantmentMeta(uint256)":"60756c91","hasBonusesForLevel(uint256,uint256)":"e19242c7","isEnchantmentEnabled(uint256)":"097c8c1b","isEnchantmentUsable(uint256,uint256)":"addf1f16","owner()":"8da5cb5b","renounceOwnership()":"715018a6","setAuthorizedCaller(address,bool)":"454bbd29","setEnchantmentBonuses(uint256,uint256,(int256,int256,int256,int256,int256,int256,int256,int256,int256,int256,int256,int256,int256,int256,int256,int256,int256,int256,int256))":"e8acc589","setEnchantmentDefinition(uint256,string,uint8,uint256,uint256,bool)":"0de5c2de","transferOwnership(address)":"f2fde38b"}}}}}