{"project/contracts/crafting/CityMateria.sol":{"CityMateria":{"abi":[{"inputs":[{"internalType":"address","name":"initialOwner","type":"address"}],"stateMutability":"nonpayable","type":"constructor"},{"inputs":[],"name":"InvalidValue","type":"error"},{"inputs":[],"name":"NotAuthorized","type":"error"},{"inputs":[{"internalType":"address","name":"owner","type":"address"}],"name":"OwnableInvalidOwner","type":"error"},{"inputs":[{"internalType":"address","name":"account","type":"address"}],"name":"OwnableUnauthorizedAccount","type":"error"},{"inputs":[],"name":"ZeroAddress","type":"error"},{"anonymous":false,"inputs":[{"indexed":true,"internalType":"address","name":"caller","type":"address"},{"indexed":false,"internalType":"bool","name":"allowed","type":"bool"}],"name":"AuthorizedCallerSet","type":"event"},{"anonymous":false,"inputs":[{"indexed":true,"internalType":"uint256","name":"materiaId","type":"uint256"},{"indexed":true,"internalType":"uint256","name":"level","type":"uint256"}],"name":"MateriaBonusesSet","type":"event"},{"anonymous":false,"inputs":[{"indexed":true,"internalType":"uint256","name":"materiaId","type":"uint256"},{"indexed":false,"internalType":"string","name":"name","type":"string"},{"indexed":false,"internalType":"enum CityMateria.MateriaCategory","name":"category","type":"uint8"},{"indexed":false,"internalType":"enum CityMateria.MateriaElement","name":"element","type":"uint8"},{"indexed":false,"internalType":"uint256","name":"rarityTier","type":"uint256"},{"indexed":false,"internalType":"uint256","name":"maxLevel","type":"uint256"},{"indexed":false,"internalType":"bool","name":"enabled","type":"bool"}],"name":"MateriaDefinitionSet","type":"event"},{"anonymous":false,"inputs":[{"indexed":true,"internalType":"address","name":"previousOwner","type":"address"},{"indexed":true,"internalType":"address","name":"newOwner","type":"address"}],"name":"OwnershipTransferred","type":"event"},{"inputs":[{"internalType":"address","name":"","type":"address"}],"name":"authorizedCallers","outputs":[{"internalType":"bool","name":"","type":"bool"}],"stateMutability":"view","type":"function"},{"inputs":[{"internalType":"uint256","name":"materiaId","type":"uint256"},{"internalType":"uint256","name":"level","type":"uint256"}],"name":"getMateriaBonuses","outputs":[{"components":[{"internalType":"int256","name":"minDamageBonus","type":"int256"},{"internalType":"int256","name":"maxDamageBonus","type":"int256"},{"internalType":"int256","name":"attackSpeedBonus","type":"int256"},{"internalType":"int256","name":"critChanceBpsBonus","type":"int256"},{"internalType":"int256","name":"critMultiplierBpsBonus","type":"int256"},{"internalType":"int256","name":"accuracyBpsBonus","type":"int256"},{"internalType":"int256","name":"rangeBonus","type":"int256"},{"internalType":"int256","name":"maxDurabilityBonus","type":"int256"},{"internalType":"int256","name":"armorPenBpsBonus","type":"int256"},{"internalType":"int256","name":"blockChanceBpsBonus","type":"int256"},{"internalType":"int256","name":"lifeStealBpsBonus","type":"int256"},{"internalType":"int256","name":"energyCostBonus","type":"int256"},{"internalType":"int256","name":"heatGenerationBonus","type":"int256"},{"internalType":"int256","name":"stabilityBonus","type":"int256"},{"internalType":"int256","name":"cooldownMsBonus","type":"int256"},{"internalType":"int256","name":"projectileSpeedBonus","type":"int256"},{"internalType":"int256","name":"aoeRadiusBonus","type":"int256"},{"internalType":"int256","name":"enchantmentSlotsBonus","type":"int256"},{"internalType":"int256","name":"materiaSlotsBonus","type":"int256"}],"internalType":"struct BonusTypes.BonusSet","name":"","type":"tuple"}],"stateMutability":"view","type":"function"},{"inputs":[{"internalType":"uint256","name":"materiaId","type":"uint256"}],"name":"getMateriaDefinition","outputs":[{"components":[{"internalType":"uint256","name":"id","type":"uint256"},{"internalType":"string","name":"name","type":"string"},{"internalType":"enum CityMateria.MateriaCategory","name":"category","type":"uint8"},{"internalType":"enum CityMateria.MateriaElement","name":"element","type":"uint8"},{"internalType":"uint256","name":"rarityTier","type":"uint256"},{"internalType":"uint256","name":"maxLevel","type":"uint256"},{"internalType":"bool","name":"enabled","type":"bool"}],"internalType":"struct CityMateria.MateriaDefinition","name":"","type":"tuple"}],"stateMutability":"view","type":"function"},{"inputs":[{"internalType":"uint256","name":"materiaId","type":"uint256"}],"name":"getMateriaMeta","outputs":[{"internalType":"string","name":"name","type":"string"},{"internalType":"enum CityMateria.MateriaCategory","name":"category","type":"uint8"},{"internalType":"enum CityMateria.MateriaElement","name":"element","type":"uint8"},{"internalType":"uint256","name":"rarityTier","type":"uint256"},{"internalType":"uint256","name":"maxLevel","type":"uint256"},{"internalType":"bool","name":"enabled","type":"bool"}],"stateMutability":"view","type":"function"},{"inputs":[{"internalType":"uint256","name":"materiaId","type":"uint256"},{"internalType":"uint256","name":"level","type":"uint256"}],"name":"hasBonusesForLevel","outputs":[{"internalType":"bool","name":"","type":"bool"}],"stateMutability":"view","type":"function"},{"inputs":[{"internalType":"uint256","name":"materiaId","type":"uint256"}],"name":"isMateriaEnabled","outputs":[{"internalType":"bool","name":"","type":"bool"}],"stateMutability":"view","type":"function"},{"inputs":[{"internalType":"uint256","name":"materiaId","type":"uint256"},{"internalType":"uint256","name":"level","type":"uint256"}],"name":"isMateriaUsable","outputs":[{"internalType":"bool","name":"","type":"bool"}],"stateMutability":"view","type":"function"},{"inputs":[{"internalType":"uint256","name":"","type":"uint256"},{"internalType":"uint256","name":"","type":"uint256"}],"name":"materiaBonusesOf","outputs":[{"internalType":"int256","name":"minDamageBonus","type":"int256"},{"internalType":"int256","name":"maxDamageBonus","type":"int256"},{"internalType":"int256","name":"attackSpeedBonus","type":"int256"},{"internalType":"int256","name":"critChanceBpsBonus","type":"int256"},{"internalType":"int256","name":"critMultiplierBpsBonus","type":"int256"},{"internalType":"int256","name":"accuracyBpsBonus","type":"int256"},{"internalType":"int256","name":"rangeBonus","type":"int256"},{"internalType":"int256","name":"maxDurabilityBonus","type":"int256"},{"internalType":"int256","name":"armorPenBpsBonus","type":"int256"},{"internalType":"int256","name":"blockChanceBpsBonus","type":"int256"},{"internalType":"int256","name":"lifeStealBpsBonus","type":"int256"},{"internalType":"int256","name":"energyCostBonus","type":"int256"},{"internalType":"int256","name":"heatGenerationBonus","type":"int256"},{"internalType":"int256","name":"stabilityBonus","type":"int256"},{"internalType":"int256","name":"cooldownMsBonus","type":"int256"},{"internalType":"int256","name":"projectileSpeedBonus","type":"int256"},{"internalType":"int256","name":"aoeRadiusBonus","type":"int256"},{"internalType":"int256","name":"enchantmentSlotsBonus","type":"int256"},{"internalType":"int256","name":"materiaSlotsBonus","type":"int256"}],"stateMutability":"view","type":"function"},{"inputs":[{"internalType":"uint256","name":"","type":"uint256"}],"name":"materiaDefinitionOf","outputs":[{"internalType":"uint256","name":"id","type":"uint256"},{"internalType":"string","name":"name","type":"string"},{"internalType":"enum CityMateria.MateriaCategory","name":"category","type":"uint8"},{"internalType":"enum CityMateria.MateriaElement","name":"element","type":"uint8"},{"internalType":"uint256","name":"rarityTier","type":"uint256"},{"internalType":"uint256","name":"maxLevel","type":"uint256"},{"internalType":"bool","name":"enabled","type":"bool"}],"stateMutability":"view","type":"function"},{"inputs":[{"internalType":"uint256","name":"materiaId","type":"uint256"}],"name":"materiaExists","outputs":[{"internalType":"bool","name":"","type":"bool"}],"stateMutability":"view","type":"function"},{"inputs":[],"name":"owner","outputs":[{"internalType":"address","name":"","type":"address"}],"stateMutability":"view","type":"function"},{"inputs":[],"name":"renounceOwnership","outputs":[],"stateMutability":"nonpayable","type":"function"},{"inputs":[{"internalType":"address","name":"caller","type":"address"},{"internalType":"bool","name":"allowed","type":"bool"}],"name":"setAuthorizedCaller","outputs":[],"stateMutability":"nonpayable","type":"function"},{"inputs":[{"internalType":"uint256","name":"materiaId","type":"uint256"},{"internalType":"uint256","name":"level","type":"uint256"},{"components":[{"internalType":"int256","name":"minDamageBonus","type":"int256"},{"internalType":"int256","name":"maxDamageBonus","type":"int256"},{"internalType":"int256","name":"attackSpeedBonus","type":"int256"},{"internalType":"int256","name":"critChanceBpsBonus","type":"int256"},{"internalType":"int256","name":"critMultiplierBpsBonus","type":"int256"},{"internalType":"int256","name":"accuracyBpsBonus","type":"int256"},{"internalType":"int256","name":"rangeBonus","type":"int256"},{"internalType":"int256","name":"maxDurabilityBonus","type":"int256"},{"internalType":"int256","name":"armorPenBpsBonus","type":"int256"},{"internalType":"int256","name":"blockChanceBpsBonus","type":"int256"},{"internalType":"int256","name":"lifeStealBpsBonus","type":"int256"},{"internalType":"int256","name":"energyCostBonus","type":"int256"},{"internalType":"int256","name":"heatGenerationBonus","type":"int256"},{"internalType":"int256","name":"stabilityBonus","type":"int256"},{"internalType":"int256","name":"cooldownMsBonus","type":"int256"},{"internalType":"int256","name":"projectileSpeedBonus","type":"int256"},{"internalType":"int256","name":"aoeRadiusBonus","type":"int256"},{"internalType":"int256","name":"enchantmentSlotsBonus","type":"int256"},{"internalType":"int256","name":"materiaSlotsBonus","type":"int256"}],"internalType":"struct BonusTypes.BonusSet","name":"bonuses","type":"tuple"}],"name":"setMateriaBonuses","outputs":[],"stateMutability":"nonpayable","type":"function"},{"inputs":[{"internalType":"uint256","name":"materiaId","type":"uint256"},{"internalType":"string","name":"name","type":"string"},{"internalType":"enum CityMateria.MateriaCategory","name":"category","type":"uint8"},{"internalType":"enum CityMateria.MateriaElement","name":"element","type":"uint8"},{"internalType":"uint256","name":"rarityTier","type":"uint256"},{"internalType":"uint256","name":"maxLevel","type":"uint256"},{"internalType":"bool","name":"enabled","type":"bool"}],"name":"setMateriaDefinition","outputs":[],"stateMutability":"nonpayable","type":"function"},{"inputs":[{"internalType":"address","name":"newOwner","type":"address"}],"name":"transferOwnership","outputs":[],"stateMutability":"nonpayable","type":"function"}],"evm":{"bytecode":{"linkReferences":{},"object":"6080346100b457601f61165e38819003918201601f19168301916001600160401b038311848410176100b8578084926020946040528339810103126100b457516001600160a01b03808216918290036100b457811561009c575f548260018060a01b03198216175f55167f8be0079c531659141344cd1fd0a4f28419497f9722a3daafe3b4186f6b6457e05f80a360405161159190816100cd8239f35b604051631e4fbdf760e01b81525f6004820152602490fd5b5f80fd5b634e487b7160e01b5f52604160045260245ffdfe6102006040526004361015610012575f80fd5b5f3560e01c806301edfeec14610e105780631a09c5e914610bc55780631ea388d714610b99578063303985c714610afc578063454bbd2914610a5d5780634f4379251461095e578063536fff6c1461092157806354ab9def146108ef5780636538129514610537578063715018a6146104e05780637755e783146104c75780638da5cb5b146104a0578063c4cc79e61461029f578063e19242c71461027c578063edccb5fc146101585763f2fde38b146100ca575f80fd5b34610154576020366003190112610154576100e3611103565b6100eb611530565b6001600160a01b0390811690811561013c575f54826bffffffffffffffffffffffff60a01b8216175f55167f8be0079c531659141344cd1fd0a4f28419497f9722a3daafe3b4186f6b6457e05f80a3005b604051631e4fbdf760e01b81525f6004820152602490fd5b5f80fd5b3461015457602080600319360112610154575f60c060405161017981610fcb565b8281526060848201528260408201528260608201528260808201528260a082015201526004355f526001815260405f20604051906101b682610fcb565b805482526101c660018201611009565b83830190815260028201549160408401926101e460ff821685611119565b6101f860ff606087019260081c1682611125565b6102646003830154916080870192835261025961024d60ff600560048801549760a08c019889520154169660c08a0197151588526040519a8b9a818c5251908b01525160e060408b01526101008a01906110ab565b965160608901906110e9565b5160808701906110f6565b5160a08501525160c084015251151560e08301520390f35b3461015457602061029561028f36610f60565b906111d6565b6040519015158152f35b34610154576102a036600319011261015457602435600435610260366043190112610154575f546001600160a01b03163314801561048a575b1561047857805f52600160205260405f206040516102f581610fcb565b8154815261030560018301611009565b602082015261033060ff600284015461032382821660408601611119565b60081c1660608301611125565b6003820154608082015260ff600560048401549360a084019485520154161590811560c08201525115908115610470575b50610453578215908115610465575b5061045357805f52600260205260405f20825f5260205260405f2060443581556064356001820155608435600282015560a435600382015560c435600482015560e435600582015561010435600682015561012435600782015561014435600882015561016435600982015561018435600a8201556101a435600b8201556101c435600c8201556101e435600d82015561020435600e82015561022435600f8201556102443560108201556102643560118201556012610284359101557f5d6b6c902adceb8746167086ac7a646fe82475b019c30c54cc39eb62dddfdfbf5f80a3005b604051632a9ffab760e21b8152600490fd5b905051821183610370565b905084610361565b60405163ea8e4eb560e01b8152600490fd5b50335f52600360205260ff60405f2054166102d8565b34610154575f366003190112610154575f546040516001600160a01b039091168152602090f35b346101545760206102956104da36610f60565b90611131565b34610154575f366003190112610154576104f8611530565b5f80546001600160a01b0319811682556001600160a01b03167f8be0079c531659141344cd1fd0a4f28419497f9722a3daafe3b4186f6b6457e08280a3005b346101545760e03660031901126101545760243567ffffffffffffffff811161015457366023820112156101545767ffffffffffffffff81600401351161015457366024826004013583010111610154576008604435101561015457600c60643510156101545760c4358015158103610154575f546001600160a01b0316331480156108d9575b1561047857600435156104535781600401351561045357604435156104535760a4351561045357604051906105f282610fcb565b6004358252604051916106136020601f19601f876004013501160184610fe7565b60048401358084526024850160208501375f60208560040135850101526020810192835261064660443560408301611119565b61065560643560608301611125565b608435608082015260a43560a082015281151560c08201526004355f52600160205260405f2092815184555180519067ffffffffffffffff82116108c55781906106a26001870154610f76565b601f8111610872575b50602090601f8311600114610804575f926107f9575b50508160011b915f199060031b1c19161760018401555b600283019260408201519160088310156107e557845490606081015190600c8210156107e5577f491afbbf368b84688ee5f6044f5ac3c352ba52b482a0d12fa8834d2c2da4a4859661076a9560059460ff61ff0060c09660081b1692169061ffff1916171790556080810151600385015560a081015160048501550151151591019060ff801983541691151516179055565b6040519060c08252836004013560c083015283600401356024850160e08401375f60e08560040135840101526107a5602083016044356110e9565b6107b4604083016064356110f6565b608435606083015260a4356080830152151560a082015260048035930135601f01601f1916810181900360e00190a2005b634e487b7160e01b5f52602160045260245ffd5b0151905086806106c1565b9250600186015f5260205f20905f935b601f1984168510610857576001945083601f1981161061083f575b505050811b0160018401556106d8565b01515f1960f88460031b161c1916905586808061082f565b81810151835560209485019460019093019290910190610814565b909150600186015f5260205f20601f840160051c810191602085106108bb575b90601f859493920160051c01905b8181106108ad57506106ab565b5f81558493506001016108a0565b9091508190610892565b634e487b7160e01b5f52604160045260245ffd5b50335f52600360205260ff60405f2054166105be565b34610154576020366003190112610154576004355f526001602052602060ff600560405f200154166040519015158152f35b34610154576020366003190112610154576001600160a01b03610942611103565b165f526003602052602060ff60405f2054166040519015158152f35b34610154576020366003190112610154576004355f52600160205260405f2060405161098981610fcb565b8154815261099960018301611009565b916020820192835260028101549060408301926109b960ff841685611119565b6109cd60ff606083019460081c1684611125565b6003820154946080820195865260c060ff600560048601549560a08601968752015416920191151582525193519260088410156107e5575191600c8310156107e557610a4a610a35965191519251151593610a4060405198899860c08a5260c08a01906110ab565b9660208901906110e9565b60408701906110f6565b6060850152608084015260a08301520390f35b3461015457604036600319011261015457610a76611103565b602435908115159081830361015457610a8d611530565b6001600160a01b0316918215610aea577f1eff62a53441c7d0125c22f2a9a324e206b34efa41e19469d7efb9bb703d21a391610ae1602092855f526003845260405f209060ff801983541691151516179055565b604051908152a2005b60405163d92e233d60e01b8152600490fd5b34610154576020366003190112610154576004355f52600160205260405f208054610b2960018301611009565b9160028101549060038101549060ff600560048301549201541691610b84610b63604051978897885260e0602089015260e08801906110ab565b94610b746040880160ff83166110e9565b60ff606088019160081c166110f6565b608085015260a0840152151560c08301520390f35b34610154576020366003190112610154576004355f526001602052602060405f20541515604051908152f35b3461015457610bd336610f60565b905f610240604051610be481610fae565b8281528260208201528260408201528260608201528260808201528260a08201528260c08201528260e08201528261010082015282610120820152826101408201528261016082015282610180820152826101a0820152826101c0820152826101e0820152826102008201528261022082015201525f52600260205260405f20905f5260205261026060405f20610240604051610c8081610fae565b601283549384835260018101546020840152600281015460408401526003810154606084015260048101546080840152600581015460a0840152600681015460c0840152600781015460e084015260088101546101008401526009810154610120840152600a810154610140840152600b810154610160840152600c810154610180840152600d8101546101a0840152600e8101546101c0840152600f8101546101e0840152601081015461020084015260118101546102208401520154828201526040519283526020810151602084015260408101516040840152606081015160608401526080810151608084015260a081015160a084015260c081015160c084015260e081015160e08401526101008101516101008401526101208101516101208401526101408101516101408401526101608101516101608401526101808101516101808401526101a08101516101a08401526101c08101516101c08401526101e08101516101e08401526102008101516102008401526102208101516102208401520151610240820152f35b3461015457610e1e36610f60565b905f52600260205260405f20905f5260205260405f2060c05260c0515460a052600160c0510154600260c0510154600360c0510154600460c0510154600560c0510154600660c0510154600760c0510154600860c0510154600960c0510154600a60c051015491600b60c051015493600c60c051015495600d60c051015497600e60c051015499600f60c05101549b601060c05101549d601160c0510154608052601260c05101549f60a051610200526020610200015260406102000152606061020001526080610200015260a0610200015260c0610200015260e06102000152610100610200015261012061020001526101406102000152610160610200015261018061020001526101a061020001526101c061020001526101e0610200015261020080015260805161022061020001526102406102000152610260610200f35b6040906003190112610154576004359060243590565b90600182811c92168015610fa4575b6020831014610f9057565b634e487b7160e01b5f52602260045260245ffd5b91607f1691610f85565b610260810190811067ffffffffffffffff8211176108c557604052565b60e0810190811067ffffffffffffffff8211176108c557604052565b90601f8019910116810190811067ffffffffffffffff8211176108c557604052565b9060405191825f825461101b81610f76565b908184526020946001916001811690815f14611089575060011461104b575b50505061104992500383610fe7565b565b5f90815285812095935091905b81831061107157505061104993508201015f808061103a565b85548884018501529485019487945091830191611058565b9250505061104994925060ff191682840152151560051b8201015f808061103a565b91908251928382525f5b8481106110d5575050825f602080949584010152601f8019910116010190565b6020818301810151848301820152016110b5565b9060088210156107e55752565b90600c8210156107e55752565b600435906001600160a01b038216820361015457565b60088210156107e55752565b600c8210156107e55752565b5f52600160205260405f2060405161114881610fcb565b8154815261115860018301611009565b602082015261117660ff600284015461032382821660408601611119565b6003820154608082015260ff60056004840154938460a08501520154161590811560c082015251156111cf576111c95781159182156111bf575b50506111bb57600190565b5f90565b1190505f806111b0565b50505f90565b5050505f90565b90815f526001602052604091825f2083516111f081610fcb565b8154815261120060018301611009565b602082015261121d60ff6002840154610323828216898601611119565b6003820154608082015260ff60056004840154938460a0850152015416151560c0820152511561152857821590811561151e575b506111cf575f526002602052815f20905f52602052805f2081516101c05261127b6101c051610fae565b805461016052610160516101c0515260018101548060206101c0510152600282015480936101c05101526003820154928360606101c051015260048301548060806101c051015260058401548060a06101c051015260068501548060c06101c051015260078601548060e06101c0510152600887015491826101006101c0510152600988015493846101206101c0510152600a89015495866101406101c0510152600b8a015497886101606101c0510152600c8b0154998a6101806101c05101526012600d8d01549c8d6101a06101c0510152600e8101546101e0526101e0516101c080510152600f8101546101a0526101a0516101e06101c0510152601081015461018052610180516102006101c0510152601181015461014052610140516102206101c0510152015461012052610120516102406101c0510152610160511515610100526101605115611512575b506101005160e0526101005115611507575b5060e0519a8b156114fd575b508a156114f3575b5089156114e9575b5088156114df575b5087156114d5575b5086156114cb575b5085156114c1575b5084156114b7575b5083156114ad575b5082156114a3575b508115611499575b50801561148d575b8015611481575b8015611475575b8015611469575b801561145f5790565b5061012051151590565b50610140511515611456565b5061018051151561144f565b506101a0511515611448565b506101e0511515611441565b905015155f611439565b151591505f611431565b151592505f611429565b151593505f611421565b151594505f611419565b151595505f611411565b151596505f611409565b151597505f611401565b151598505f6113f9565b151599505f6113f1565b15159a505f6113e9565b151560e0525f6113dd565b1515610100525f6113cb565b905082115f611251565b505050505f90565b5f546001600160a01b0316330361154357565b60405163118cdaa760e01b8152336004820152602490fdfea26469706673582212206d61e51cdbcb151abf229d3996405e96ac6258d99217594d7bc89ac5c148909664736f6c63430008180033","opcodes":"PUSH1 0x80 CALLVALUE PUSH2 0xB4 JUMPI PUSH1 0x1F PUSH2 0x165E CODESIZE DUP2 SWAP1 SUB SWAP2 DUP3 ADD PUSH1 0x1F NOT AND DUP4 ADD SWAP2 PUSH1 0x1 PUSH1 0x1 PUSH1 0x40 SHL SUB DUP4 GT DUP5 DUP5 LT OR PUSH2 0xB8 JUMPI DUP1 DUP5 SWAP3 PUSH1 0x20 SWAP5 PUSH1 0x40 MSTORE DUP4 CODECOPY DUP2 ADD SUB SLT PUSH2 0xB4 JUMPI MLOAD PUSH1 0x1 PUSH1 0x1 PUSH1 0xA0 SHL SUB DUP1 DUP3 AND SWAP2 DUP3 SWAP1 SUB PUSH2 0xB4 JUMPI DUP2 ISZERO PUSH2 0x9C JUMPI PUSH0 SLOAD DUP3 PUSH1 0x1 DUP1 PUSH1 0xA0 SHL SUB NOT DUP3 AND OR PUSH0 SSTORE AND PUSH32 0x8BE0079C531659141344CD1FD0A4F28419497F9722A3DAAFE3B4186F6B6457E0 PUSH0 DUP1 LOG3 PUSH1 0x40 MLOAD PUSH2 0x1591 SWAP1 DUP2 PUSH2 0xCD DUP3 CODECOPY RETURN JUMPDEST PUSH1 0x40 MLOAD PUSH4 0x1E4FBDF7 PUSH1 0xE0 SHL DUP2 MSTORE PUSH0 PUSH1 0x4 DUP3 ADD MSTORE PUSH1 0x24 SWAP1 REVERT JUMPDEST PUSH0 DUP1 REVERT JUMPDEST PUSH4 0x4E487B71 PUSH1 0xE0 SHL PUSH0 MSTORE PUSH1 0x41 PUSH1 0x4 MSTORE PUSH1 0x24 PUSH0 REVERT INVALID PUSH2 0x200 PUSH1 0x40 MSTORE PUSH1 0x4 CALLDATASIZE LT ISZERO PUSH2 0x12 JUMPI PUSH0 DUP1 REVERT JUMPDEST PUSH0 CALLDATALOAD PUSH1 0xE0 SHR DUP1 PUSH4 0x1EDFEEC EQ PUSH2 0xE10 JUMPI DUP1 PUSH4 0x1A09C5E9 EQ PUSH2 0xBC5 JUMPI DUP1 PUSH4 0x1EA388D7 EQ PUSH2 0xB99 JUMPI DUP1 PUSH4 0x303985C7 EQ PUSH2 0xAFC JUMPI DUP1 PUSH4 0x454BBD29 EQ PUSH2 0xA5D JUMPI DUP1 PUSH4 0x4F437925 EQ PUSH2 0x95E JUMPI DUP1 PUSH4 0x536FFF6C EQ PUSH2 0x921 JUMPI DUP1 PUSH4 0x54AB9DEF EQ PUSH2 0x8EF JUMPI DUP1 PUSH4 0x65381295 EQ PUSH2 0x537 JUMPI DUP1 PUSH4 0x715018A6 EQ PUSH2 0x4E0 JUMPI DUP1 PUSH4 0x7755E783 EQ PUSH2 0x4C7 JUMPI DUP1 PUSH4 0x8DA5CB5B EQ PUSH2 0x4A0 JUMPI DUP1 PUSH4 0xC4CC79E6 EQ PUSH2 0x29F JUMPI DUP1 PUSH4 0xE19242C7 EQ PUSH2 0x27C JUMPI DUP1 PUSH4 0xEDCCB5FC EQ PUSH2 0x158 JUMPI PUSH4 0xF2FDE38B EQ PUSH2 0xCA JUMPI PUSH0 DUP1 REVERT JUMPDEST CALLVALUE PUSH2 0x154 JUMPI PUSH1 0x20 CALLDATASIZE PUSH1 0x3 NOT ADD SLT PUSH2 0x154 JUMPI PUSH2 0xE3 PUSH2 0x1103 JUMP JUMPDEST PUSH2 0xEB PUSH2 0x1530 JUMP JUMPDEST PUSH1 0x1 PUSH1 0x1 PUSH1 0xA0 SHL SUB SWAP1 DUP2 AND SWAP1 DUP2 ISZERO PUSH2 0x13C JUMPI PUSH0 SLOAD DUP3 PUSH12 0xFFFFFFFFFFFFFFFFFFFFFFFF PUSH1 0xA0 SHL DUP3 AND OR PUSH0 SSTORE AND PUSH32 0x8BE0079C531659141344CD1FD0A4F28419497F9722A3DAAFE3B4186F6B6457E0 PUSH0 DUP1 LOG3 STOP JUMPDEST PUSH1 0x40 MLOAD PUSH4 0x1E4FBDF7 PUSH1 0xE0 SHL DUP2 MSTORE PUSH0 PUSH1 0x4 DUP3 ADD MSTORE PUSH1 0x24 SWAP1 REVERT JUMPDEST PUSH0 DUP1 REVERT JUMPDEST CALLVALUE PUSH2 0x154 JUMPI PUSH1 0x20 DUP1 PUSH1 0x3 NOT CALLDATASIZE ADD SLT PUSH2 0x154 JUMPI PUSH0 PUSH1 0xC0 PUSH1 0x40 MLOAD PUSH2 0x179 DUP2 PUSH2 0xFCB JUMP JUMPDEST DUP3 DUP2 MSTORE PUSH1 0x60 DUP5 DUP3 ADD MSTORE DUP3 PUSH1 0x40 DUP3 ADD MSTORE DUP3 PUSH1 0x60 DUP3 ADD MSTORE DUP3 PUSH1 0x80 DUP3 ADD MSTORE DUP3 PUSH1 0xA0 DUP3 ADD MSTORE ADD MSTORE PUSH1 0x4 CALLDATALOAD PUSH0 MSTORE PUSH1 0x1 DUP2 MSTORE PUSH1 0x40 PUSH0 KECCAK256 PUSH1 0x40 MLOAD SWAP1 PUSH2 0x1B6 DUP3 PUSH2 0xFCB JUMP JUMPDEST DUP1 SLOAD DUP3 MSTORE PUSH2 0x1C6 PUSH1 0x1 DUP3 ADD PUSH2 0x1009 JUMP JUMPDEST DUP4 DUP4 ADD SWAP1 DUP2 MSTORE PUSH1 0x2 DUP3 ADD SLOAD SWAP2 PUSH1 0x40 DUP5 ADD SWAP3 PUSH2 0x1E4 PUSH1 0xFF DUP3 AND DUP6 PUSH2 0x1119 JUMP JUMPDEST PUSH2 0x1F8 PUSH1 0xFF PUSH1 0x60 DUP8 ADD SWAP3 PUSH1 0x8 SHR AND DUP3 PUSH2 0x1125 JUMP JUMPDEST PUSH2 0x264 PUSH1 0x3 DUP4 ADD SLOAD SWAP2 PUSH1 0x80 DUP8 ADD SWAP3 DUP4 MSTORE PUSH2 0x259 PUSH2 0x24D PUSH1 0xFF PUSH1 0x5 PUSH1 0x4 DUP9 ADD SLOAD SWAP8 PUSH1 0xA0 DUP13 ADD SWAP9 DUP10 MSTORE ADD SLOAD AND SWAP7 PUSH1 0xC0 DUP11 ADD SWAP8 ISZERO ISZERO DUP9 MSTORE PUSH1 0x40 MLOAD SWAP11 DUP12 SWAP11 DUP2 DUP13 MSTORE MLOAD SWAP1 DUP12 ADD MSTORE MLOAD PUSH1 0xE0 PUSH1 0x40 DUP12 ADD MSTORE PUSH2 0x100 DUP11 ADD SWAP1 PUSH2 0x10AB JUMP JUMPDEST SWAP7 MLOAD PUSH1 0x60 DUP10 ADD SWAP1 PUSH2 0x10E9 JUMP JUMPDEST MLOAD PUSH1 0x80 DUP8 ADD SWAP1 PUSH2 0x10F6 JUMP JUMPDEST MLOAD PUSH1 0xA0 DUP6 ADD MSTORE MLOAD PUSH1 0xC0 DUP5 ADD MSTORE MLOAD ISZERO ISZERO PUSH1 0xE0 DUP4 ADD MSTORE SUB SWAP1 RETURN JUMPDEST CALLVALUE PUSH2 0x154 JUMPI PUSH1 0x20 PUSH2 0x295 PUSH2 0x28F CALLDATASIZE PUSH2 0xF60 JUMP JUMPDEST SWAP1 PUSH2 0x11D6 JUMP JUMPDEST PUSH1 0x40 MLOAD SWAP1 ISZERO ISZERO DUP2 MSTORE RETURN JUMPDEST CALLVALUE PUSH2 0x154 JUMPI PUSH2 0x2A0 CALLDATASIZE PUSH1 0x3 NOT ADD SLT PUSH2 0x154 JUMPI PUSH1 0x24 CALLDATALOAD PUSH1 0x4 CALLDATALOAD PUSH2 0x260 CALLDATASIZE PUSH1 0x43 NOT ADD SLT PUSH2 0x154 JUMPI PUSH0 SLOAD PUSH1 0x1 PUSH1 0x1 PUSH1 0xA0 SHL SUB AND CALLER EQ DUP1 ISZERO PUSH2 0x48A JUMPI JUMPDEST ISZERO PUSH2 0x478 JUMPI DUP1 PUSH0 MSTORE PUSH1 0x1 PUSH1 0x20 MSTORE PUSH1 0x40 PUSH0 KECCAK256 PUSH1 0x40 MLOAD PUSH2 0x2F5 DUP2 PUSH2 0xFCB JUMP JUMPDEST DUP2 SLOAD DUP2 MSTORE PUSH2 0x305 PUSH1 0x1 DUP4 ADD PUSH2 0x1009 JUMP JUMPDEST PUSH1 0x20 DUP3 ADD MSTORE PUSH2 0x330 PUSH1 0xFF PUSH1 0x2 DUP5 ADD SLOAD PUSH2 0x323 DUP3 DUP3 AND PUSH1 0x40 DUP7 ADD PUSH2 0x1119 JUMP JUMPDEST PUSH1 0x8 SHR AND PUSH1 0x60 DUP4 ADD PUSH2 0x1125 JUMP JUMPDEST PUSH1 0x3 DUP3 ADD SLOAD PUSH1 0x80 DUP3 ADD MSTORE PUSH1 0xFF PUSH1 0x5 PUSH1 0x4 DUP5 ADD SLOAD SWAP4 PUSH1 0xA0 DUP5 ADD SWAP5 DUP6 MSTORE ADD SLOAD AND ISZERO SWAP1 DUP2 ISZERO PUSH1 0xC0 DUP3 ADD MSTORE MLOAD ISZERO SWAP1 DUP2 ISZERO PUSH2 0x470 JUMPI JUMPDEST POP PUSH2 0x453 JUMPI DUP3 ISZERO SWAP1 DUP2 ISZERO PUSH2 0x465 JUMPI JUMPDEST POP PUSH2 0x453 JUMPI DUP1 PUSH0 MSTORE PUSH1 0x2 PUSH1 0x20 MSTORE PUSH1 0x40 PUSH0 KECCAK256 DUP3 PUSH0 MSTORE PUSH1 0x20 MSTORE PUSH1 0x40 PUSH0 KECCAK256 PUSH1 0x44 CALLDATALOAD DUP2 SSTORE PUSH1 0x64 CALLDATALOAD PUSH1 0x1 DUP3 ADD SSTORE PUSH1 0x84 CALLDATALOAD PUSH1 0x2 DUP3 ADD SSTORE PUSH1 0xA4 CALLDATALOAD PUSH1 0x3 DUP3 ADD SSTORE PUSH1 0xC4 CALLDATALOAD PUSH1 0x4 DUP3 ADD SSTORE PUSH1 0xE4 CALLDATALOAD PUSH1 0x5 DUP3 ADD SSTORE PUSH2 0x104 CALLDATALOAD PUSH1 0x6 DUP3 ADD SSTORE PUSH2 0x124 CALLDATALOAD PUSH1 0x7 DUP3 ADD SSTORE PUSH2 0x144 CALLDATALOAD PUSH1 0x8 DUP3 ADD SSTORE PUSH2 0x164 CALLDATALOAD PUSH1 0x9 DUP3 ADD SSTORE PUSH2 0x184 CALLDATALOAD PUSH1 0xA DUP3 ADD SSTORE PUSH2 0x1A4 CALLDATALOAD PUSH1 0xB DUP3 ADD SSTORE PUSH2 0x1C4 CALLDATALOAD PUSH1 0xC DUP3 ADD SSTORE PUSH2 0x1E4 CALLDATALOAD PUSH1 0xD DUP3 ADD SSTORE PUSH2 0x204 CALLDATALOAD PUSH1 0xE DUP3 ADD SSTORE PUSH2 0x224 CALLDATALOAD PUSH1 0xF DUP3 ADD SSTORE PUSH2 0x244 CALLDATALOAD PUSH1 0x10 DUP3 ADD SSTORE PUSH2 0x264 CALLDATALOAD PUSH1 0x11 DUP3 ADD SSTORE PUSH1 0x12 PUSH2 0x284 CALLDATALOAD SWAP2 ADD SSTORE PUSH32 0x5D6B6C902ADCEB8746167086AC7A646FE82475B019C30C54CC39EB62DDDFDFBF PUSH0 DUP1 LOG3 STOP JUMPDEST PUSH1 0x40 MLOAD PUSH4 0x2A9FFAB7 PUSH1 0xE2 SHL DUP2 MSTORE PUSH1 0x4 SWAP1 REVERT JUMPDEST SWAP1 POP MLOAD DUP3 GT DUP4 PUSH2 0x370 JUMP JUMPDEST SWAP1 POP DUP5 PUSH2 0x361 JUMP JUMPDEST PUSH1 0x40 MLOAD PUSH4 0xEA8E4EB5 PUSH1 0xE0 SHL DUP2 MSTORE PUSH1 0x4 SWAP1 REVERT JUMPDEST POP CALLER PUSH0 MSTORE PUSH1 0x3 PUSH1 0x20 MSTORE PUSH1 0xFF PUSH1 0x40 PUSH0 KECCAK256 SLOAD AND PUSH2 0x2D8 JUMP JUMPDEST CALLVALUE PUSH2 0x154 JUMPI PUSH0 CALLDATASIZE PUSH1 0x3 NOT ADD SLT PUSH2 0x154 JUMPI PUSH0 SLOAD PUSH1 0x40 MLOAD PUSH1 0x1 PUSH1 0x1 PUSH1 0xA0 SHL SUB SWAP1 SWAP2 AND DUP2 MSTORE PUSH1 0x20 SWAP1 RETURN JUMPDEST CALLVALUE PUSH2 0x154 JUMPI PUSH1 0x20 PUSH2 0x295 PUSH2 0x4DA CALLDATASIZE PUSH2 0xF60 JUMP JUMPDEST SWAP1 PUSH2 0x1131 JUMP JUMPDEST CALLVALUE PUSH2 0x154 JUMPI PUSH0 CALLDATASIZE PUSH1 0x3 NOT ADD SLT PUSH2 0x154 JUMPI PUSH2 0x4F8 PUSH2 0x1530 JUMP JUMPDEST PUSH0 DUP1 SLOAD PUSH1 0x1 PUSH1 0x1 PUSH1 0xA0 SHL SUB NOT DUP2 AND DUP3 SSTORE PUSH1 0x1 PUSH1 0x1 PUSH1 0xA0 SHL SUB AND PUSH32 0x8BE0079C531659141344CD1FD0A4F28419497F9722A3DAAFE3B4186F6B6457E0 DUP3 DUP1 LOG3 STOP JUMPDEST CALLVALUE PUSH2 0x154 JUMPI PUSH1 0xE0 CALLDATASIZE PUSH1 0x3 NOT ADD SLT PUSH2 0x154 JUMPI PUSH1 0x24 CALLDATALOAD PUSH8 0xFFFFFFFFFFFFFFFF DUP2 GT PUSH2 0x154 JUMPI CALLDATASIZE PUSH1 0x23 DUP3 ADD SLT ISZERO PUSH2 0x154 JUMPI PUSH8 0xFFFFFFFFFFFFFFFF DUP2 PUSH1 0x4 ADD CALLDATALOAD GT PUSH2 0x154 JUMPI CALLDATASIZE PUSH1 0x24 DUP3 PUSH1 0x4 ADD CALLDATALOAD DUP4 ADD ADD GT PUSH2 0x154 JUMPI PUSH1 0x8 PUSH1 0x44 CALLDATALOAD LT ISZERO PUSH2 0x154 JUMPI PUSH1 0xC PUSH1 0x64 CALLDATALOAD LT ISZERO PUSH2 0x154 JUMPI PUSH1 0xC4 CALLDATALOAD DUP1 ISZERO ISZERO DUP2 SUB PUSH2 0x154 JUMPI PUSH0 SLOAD PUSH1 0x1 PUSH1 0x1 PUSH1 0xA0 SHL SUB AND CALLER EQ DUP1 ISZERO PUSH2 0x8D9 JUMPI JUMPDEST ISZERO PUSH2 0x478 JUMPI PUSH1 0x4 CALLDATALOAD ISZERO PUSH2 0x453 JUMPI DUP2 PUSH1 0x4 ADD CALLDATALOAD ISZERO PUSH2 0x453 JUMPI PUSH1 0x44 CALLDATALOAD ISZERO PUSH2 0x453 JUMPI PUSH1 0xA4 CALLDATALOAD ISZERO PUSH2 0x453 JUMPI PUSH1 0x40 MLOAD SWAP1 PUSH2 0x5F2 DUP3 PUSH2 0xFCB JUMP JUMPDEST PUSH1 0x4 CALLDATALOAD DUP3 MSTORE PUSH1 0x40 MLOAD SWAP2 PUSH2 0x613 PUSH1 0x20 PUSH1 0x1F NOT PUSH1 0x1F DUP8 PUSH1 0x4 ADD CALLDATALOAD ADD AND ADD DUP5 PUSH2 0xFE7 JUMP JUMPDEST PUSH1 0x4 DUP5 ADD CALLDATALOAD DUP1 DUP5 MSTORE PUSH1 0x24 DUP6 ADD PUSH1 0x20 DUP6 ADD CALLDATACOPY PUSH0 PUSH1 0x20 DUP6 PUSH1 0x4 ADD CALLDATALOAD DUP6 ADD ADD MSTORE PUSH1 0x20 DUP2 ADD SWAP3 DUP4 MSTORE PUSH2 0x646 PUSH1 0x44 CALLDATALOAD PUSH1 0x40 DUP4 ADD PUSH2 0x1119 JUMP JUMPDEST PUSH2 0x655 PUSH1 0x64 CALLDATALOAD PUSH1 0x60 DUP4 ADD PUSH2 0x1125 JUMP JUMPDEST PUSH1 0x84 CALLDATALOAD PUSH1 0x80 DUP3 ADD MSTORE PUSH1 0xA4 CALLDATALOAD PUSH1 0xA0 DUP3 ADD MSTORE DUP2 ISZERO ISZERO PUSH1 0xC0 DUP3 ADD MSTORE PUSH1 0x4 CALLDATALOAD PUSH0 MSTORE PUSH1 0x1 PUSH1 0x20 MSTORE PUSH1 0x40 PUSH0 KECCAK256 SWAP3 DUP2 MLOAD DUP5 SSTORE MLOAD DUP1 MLOAD SWAP1 PUSH8 0xFFFFFFFFFFFFFFFF DUP3 GT PUSH2 0x8C5 JUMPI DUP2 SWAP1 PUSH2 0x6A2 PUSH1 0x1 DUP8 ADD SLOAD PUSH2 0xF76 JUMP JUMPDEST PUSH1 0x1F DUP2 GT PUSH2 0x872 JUMPI JUMPDEST POP PUSH1 0x20 SWAP1 PUSH1 0x1F DUP4 GT PUSH1 0x1 EQ PUSH2 0x804 JUMPI PUSH0 SWAP3 PUSH2 0x7F9 JUMPI JUMPDEST POP POP DUP2 PUSH1 0x1 SHL SWAP2 PUSH0 NOT SWAP1 PUSH1 0x3 SHL SHR NOT AND OR PUSH1 0x1 DUP5 ADD SSTORE JUMPDEST PUSH1 0x2 DUP4 ADD SWAP3 PUSH1 0x40 DUP3 ADD MLOAD SWAP2 PUSH1 0x8 DUP4 LT ISZERO PUSH2 0x7E5 JUMPI DUP5 SLOAD SWAP1 PUSH1 0x60 DUP2 ADD MLOAD SWAP1 PUSH1 0xC DUP3 LT ISZERO PUSH2 0x7E5 JUMPI PUSH32 0x491AFBBF368B84688EE5F6044F5AC3C352BA52B482A0D12FA8834D2C2DA4A485 SWAP7 PUSH2 0x76A SWAP6 PUSH1 0x5 SWAP5 PUSH1 0xFF PUSH2 0xFF00 PUSH1 0xC0 SWAP7 PUSH1 0x8 SHL AND SWAP3 AND SWAP1 PUSH2 0xFFFF NOT AND OR OR SWAP1 SSTORE PUSH1 0x80 DUP2 ADD MLOAD PUSH1 0x3 DUP6 ADD SSTORE PUSH1 0xA0 DUP2 ADD MLOAD PUSH1 0x4 DUP6 ADD SSTORE ADD MLOAD ISZERO ISZERO SWAP2 ADD SWAP1 PUSH1 0xFF DUP1 NOT DUP4 SLOAD AND SWAP2 ISZERO ISZERO AND OR SWAP1 SSTORE JUMP JUMPDEST PUSH1 0x40 MLOAD SWAP1 PUSH1 0xC0 DUP3 MSTORE DUP4 PUSH1 0x4 ADD CALLDATALOAD PUSH1 0xC0 DUP4 ADD MSTORE DUP4 PUSH1 0x4 ADD CALLDATALOAD PUSH1 0x24 DUP6 ADD PUSH1 0xE0 DUP5 ADD CALLDATACOPY PUSH0 PUSH1 0xE0 DUP6 PUSH1 0x4 ADD CALLDATALOAD DUP5 ADD ADD MSTORE PUSH2 0x7A5 PUSH1 0x20 DUP4 ADD PUSH1 0x44 CALLDATALOAD PUSH2 0x10E9 JUMP JUMPDEST PUSH2 0x7B4 PUSH1 0x40 DUP4 ADD PUSH1 0x64 CALLDATALOAD PUSH2 0x10F6 JUMP JUMPDEST PUSH1 0x84 CALLDATALOAD PUSH1 0x60 DUP4 ADD MSTORE PUSH1 0xA4 CALLDATALOAD PUSH1 0x80 DUP4 ADD MSTORE ISZERO ISZERO PUSH1 0xA0 DUP3 ADD MSTORE PUSH1 0x4 DUP1 CALLDATALOAD SWAP4 ADD CALLDATALOAD PUSH1 0x1F ADD PUSH1 0x1F NOT AND DUP2 ADD DUP2 SWAP1 SUB PUSH1 0xE0 ADD SWAP1 LOG2 STOP JUMPDEST PUSH4 0x4E487B71 PUSH1 0xE0 SHL PUSH0 MSTORE PUSH1 0x21 PUSH1 0x4 MSTORE PUSH1 0x24 PUSH0 REVERT JUMPDEST ADD MLOAD SWAP1 POP DUP7 DUP1 PUSH2 0x6C1 JUMP JUMPDEST SWAP3 POP PUSH1 0x1 DUP7 ADD PUSH0 MSTORE PUSH1 0x20 PUSH0 KECCAK256 SWAP1 PUSH0 SWAP4 JUMPDEST PUSH1 0x1F NOT DUP5 AND DUP6 LT PUSH2 0x857 JUMPI PUSH1 0x1 SWAP5 POP DUP4 PUSH1 0x1F NOT DUP2 AND LT PUSH2 0x83F JUMPI JUMPDEST POP POP POP DUP2 SHL ADD PUSH1 0x1 DUP5 ADD SSTORE PUSH2 0x6D8 JUMP JUMPDEST ADD MLOAD PUSH0 NOT PUSH1 0xF8 DUP5 PUSH1 0x3 SHL AND SHR NOT AND SWAP1 SSTORE DUP7 DUP1 DUP1 PUSH2 0x82F JUMP JUMPDEST DUP2 DUP2 ADD MLOAD DUP4 SSTORE PUSH1 0x20 SWAP5 DUP6 ADD SWAP5 PUSH1 0x1 SWAP1 SWAP4 ADD SWAP3 SWAP1 SWAP2 ADD SWAP1 PUSH2 0x814 JUMP JUMPDEST SWAP1 SWAP2 POP PUSH1 0x1 DUP7 ADD PUSH0 MSTORE PUSH1 0x20 PUSH0 KECCAK256 PUSH1 0x1F DUP5 ADD PUSH1 0x5 SHR DUP2 ADD SWAP2 PUSH1 0x20 DUP6 LT PUSH2 0x8BB JUMPI JUMPDEST SWAP1 PUSH1 0x1F DUP6 SWAP5 SWAP4 SWAP3 ADD PUSH1 0x5 SHR ADD SWAP1 JUMPDEST DUP2 DUP2 LT PUSH2 0x8AD JUMPI POP PUSH2 0x6AB JUMP JUMPDEST PUSH0 DUP2 SSTORE DUP5 SWAP4 POP PUSH1 0x1 ADD PUSH2 0x8A0 JUMP JUMPDEST SWAP1 SWAP2 POP DUP2 SWAP1 PUSH2 0x892 JUMP JUMPDEST PUSH4 0x4E487B71 PUSH1 0xE0 SHL PUSH0 MSTORE PUSH1 0x41 PUSH1 0x4 MSTORE PUSH1 0x24 PUSH0 REVERT JUMPDEST POP CALLER PUSH0 MSTORE PUSH1 0x3 PUSH1 0x20 MSTORE PUSH1 0xFF PUSH1 0x40 PUSH0 KECCAK256 SLOAD AND PUSH2 0x5BE JUMP JUMPDEST CALLVALUE PUSH2 0x154 JUMPI PUSH1 0x20 CALLDATASIZE PUSH1 0x3 NOT ADD SLT PUSH2 0x154 JUMPI PUSH1 0x4 CALLDATALOAD PUSH0 MSTORE PUSH1 0x1 PUSH1 0x20 MSTORE PUSH1 0x20 PUSH1 0xFF PUSH1 0x5 PUSH1 0x40 PUSH0 KECCAK256 ADD SLOAD AND PUSH1 0x40 MLOAD SWAP1 ISZERO ISZERO DUP2 MSTORE RETURN JUMPDEST CALLVALUE PUSH2 0x154 JUMPI PUSH1 0x20 CALLDATASIZE PUSH1 0x3 NOT ADD SLT PUSH2 0x154 JUMPI PUSH1 0x1 PUSH1 0x1 PUSH1 0xA0 SHL SUB PUSH2 0x942 PUSH2 0x1103 JUMP JUMPDEST AND PUSH0 MSTORE PUSH1 0x3 PUSH1 0x20 MSTORE PUSH1 0x20 PUSH1 0xFF PUSH1 0x40 PUSH0 KECCAK256 SLOAD AND PUSH1 0x40 MLOAD SWAP1 ISZERO ISZERO DUP2 MSTORE RETURN JUMPDEST CALLVALUE PUSH2 0x154 JUMPI PUSH1 0x20 CALLDATASIZE PUSH1 0x3 NOT ADD SLT PUSH2 0x154 JUMPI PUSH1 0x4 CALLDATALOAD PUSH0 MSTORE PUSH1 0x1 PUSH1 0x20 MSTORE PUSH1 0x40 PUSH0 KECCAK256 PUSH1 0x40 MLOAD PUSH2 0x989 DUP2 PUSH2 0xFCB JUMP JUMPDEST DUP2 SLOAD DUP2 MSTORE PUSH2 0x999 PUSH1 0x1 DUP4 ADD PUSH2 0x1009 JUMP JUMPDEST SWAP2 PUSH1 0x20 DUP3 ADD SWAP3 DUP4 MSTORE PUSH1 0x2 DUP2 ADD SLOAD SWAP1 PUSH1 0x40 DUP4 ADD SWAP3 PUSH2 0x9B9 PUSH1 0xFF DUP5 AND DUP6 PUSH2 0x1119 JUMP JUMPDEST PUSH2 0x9CD PUSH1 0xFF PUSH1 0x60 DUP4 ADD SWAP5 PUSH1 0x8 SHR AND DUP5 PUSH2 0x1125 JUMP JUMPDEST PUSH1 0x3 DUP3 ADD SLOAD SWAP5 PUSH1 0x80 DUP3 ADD SWAP6 DUP7 MSTORE PUSH1 0xC0 PUSH1 0xFF PUSH1 0x5 PUSH1 0x4 DUP7 ADD SLOAD SWAP6 PUSH1 0xA0 DUP7 ADD SWAP7 DUP8 MSTORE ADD SLOAD AND SWAP3 ADD SWAP2 ISZERO ISZERO DUP3 MSTORE MLOAD SWAP4 MLOAD SWAP3 PUSH1 0x8 DUP5 LT ISZERO PUSH2 0x7E5 JUMPI MLOAD SWAP2 PUSH1 0xC DUP4 LT ISZERO PUSH2 0x7E5 JUMPI PUSH2 0xA4A PUSH2 0xA35 SWAP7 MLOAD SWAP2 MLOAD SWAP3 MLOAD ISZERO ISZERO SWAP4 PUSH2 0xA40 PUSH1 0x40 MLOAD SWAP9 DUP10 SWAP9 PUSH1 0xC0 DUP11 MSTORE PUSH1 0xC0 DUP11 ADD SWAP1 PUSH2 0x10AB JUMP JUMPDEST SWAP7 PUSH1 0x20 DUP10 ADD SWAP1 PUSH2 0x10E9 JUMP JUMPDEST PUSH1 0x40 DUP8 ADD SWAP1 PUSH2 0x10F6 JUMP JUMPDEST PUSH1 0x60 DUP6 ADD MSTORE PUSH1 0x80 DUP5 ADD MSTORE PUSH1 0xA0 DUP4 ADD MSTORE SUB SWAP1 RETURN JUMPDEST CALLVALUE PUSH2 0x154 JUMPI PUSH1 0x40 CALLDATASIZE PUSH1 0x3 NOT ADD SLT PUSH2 0x154 JUMPI PUSH2 0xA76 PUSH2 0x1103 JUMP JUMPDEST PUSH1 0x24 CALLDATALOAD SWAP1 DUP2 ISZERO ISZERO SWAP1 DUP2 DUP4 SUB PUSH2 0x154 JUMPI PUSH2 0xA8D PUSH2 0x1530 JUMP JUMPDEST PUSH1 0x1 PUSH1 0x1 PUSH1 0xA0 SHL SUB AND SWAP2 DUP3 ISZERO PUSH2 0xAEA JUMPI PUSH32 0x1EFF62A53441C7D0125C22F2A9A324E206B34EFA41E19469D7EFB9BB703D21A3 SWAP2 PUSH2 0xAE1 PUSH1 0x20 SWAP3 DUP6 PUSH0 MSTORE PUSH1 0x3 DUP5 MSTORE PUSH1 0x40 PUSH0 KECCAK256 SWAP1 PUSH1 0xFF DUP1 NOT DUP4 SLOAD AND SWAP2 ISZERO ISZERO AND OR SWAP1 SSTORE JUMP JUMPDEST PUSH1 0x40 MLOAD SWAP1 DUP2 MSTORE LOG2 STOP JUMPDEST PUSH1 0x40 MLOAD PUSH4 0xD92E233D PUSH1 0xE0 SHL DUP2 MSTORE PUSH1 0x4 SWAP1 REVERT JUMPDEST CALLVALUE PUSH2 0x154 JUMPI PUSH1 0x20 CALLDATASIZE PUSH1 0x3 NOT ADD SLT PUSH2 0x154 JUMPI PUSH1 0x4 CALLDATALOAD PUSH0 MSTORE PUSH1 0x1 PUSH1 0x20 MSTORE PUSH1 0x40 PUSH0 KECCAK256 DUP1 SLOAD PUSH2 0xB29 PUSH1 0x1 DUP4 ADD PUSH2 0x1009 JUMP JUMPDEST SWAP2 PUSH1 0x2 DUP2 ADD SLOAD SWAP1 PUSH1 0x3 DUP2 ADD SLOAD SWAP1 PUSH1 0xFF PUSH1 0x5 PUSH1 0x4 DUP4 ADD SLOAD SWAP3 ADD SLOAD AND SWAP2 PUSH2 0xB84 PUSH2 0xB63 PUSH1 0x40 MLOAD SWAP8 DUP9 SWAP8 DUP9 MSTORE PUSH1 0xE0 PUSH1 0x20 DUP10 ADD MSTORE PUSH1 0xE0 DUP9 ADD SWAP1 PUSH2 0x10AB JUMP JUMPDEST SWAP5 PUSH2 0xB74 PUSH1 0x40 DUP9 ADD PUSH1 0xFF DUP4 AND PUSH2 0x10E9 JUMP JUMPDEST PUSH1 0xFF PUSH1 0x60 DUP9 ADD SWAP2 PUSH1 0x8 SHR AND PUSH2 0x10F6 JUMP JUMPDEST PUSH1 0x80 DUP6 ADD MSTORE PUSH1 0xA0 DUP5 ADD MSTORE ISZERO ISZERO PUSH1 0xC0 DUP4 ADD MSTORE SUB SWAP1 RETURN JUMPDEST CALLVALUE PUSH2 0x154 JUMPI PUSH1 0x20 CALLDATASIZE PUSH1 0x3 NOT ADD SLT PUSH2 0x154 JUMPI PUSH1 0x4 CALLDATALOAD PUSH0 MSTORE PUSH1 0x1 PUSH1 0x20 MSTORE PUSH1 0x20 PUSH1 0x40 PUSH0 KECCAK256 SLOAD ISZERO ISZERO PUSH1 0x40 MLOAD SWAP1 DUP2 MSTORE RETURN JUMPDEST CALLVALUE PUSH2 0x154 JUMPI PUSH2 0xBD3 CALLDATASIZE PUSH2 0xF60 JUMP JUMPDEST SWAP1 PUSH0 PUSH2 0x240 PUSH1 0x40 MLOAD PUSH2 0xBE4 DUP2 PUSH2 0xFAE JUMP JUMPDEST DUP3 DUP2 MSTORE DUP3 PUSH1 0x20 DUP3 ADD MSTORE DUP3 PUSH1 0x40 DUP3 ADD MSTORE DUP3 PUSH1 0x60 DUP3 ADD MSTORE DUP3 PUSH1 0x80 DUP3 ADD MSTORE DUP3 PUSH1 0xA0 DUP3 ADD MSTORE DUP3 PUSH1 0xC0 DUP3 ADD MSTORE DUP3 PUSH1 0xE0 DUP3 ADD MSTORE DUP3 PUSH2 0x100 DUP3 ADD MSTORE DUP3 PUSH2 0x120 DUP3 ADD MSTORE DUP3 PUSH2 0x140 DUP3 ADD MSTORE DUP3 PUSH2 0x160 DUP3 ADD MSTORE DUP3 PUSH2 0x180 DUP3 ADD MSTORE DUP3 PUSH2 0x1A0 DUP3 ADD MSTORE DUP3 PUSH2 0x1C0 DUP3 ADD MSTORE DUP3 PUSH2 0x1E0 DUP3 ADD MSTORE DUP3 PUSH2 0x200 DUP3 ADD MSTORE DUP3 PUSH2 0x220 DUP3 ADD MSTORE ADD MSTORE PUSH0 MSTORE PUSH1 0x2 PUSH1 0x20 MSTORE PUSH1 0x40 PUSH0 KECCAK256 SWAP1 PUSH0 MSTORE PUSH1 0x20 MSTORE PUSH2 0x260 PUSH1 0x40 PUSH0 KECCAK256 PUSH2 0x240 PUSH1 0x40 MLOAD PUSH2 0xC80 DUP2 PUSH2 0xFAE JUMP JUMPDEST PUSH1 0x12 DUP4 SLOAD SWAP4 DUP5 DUP4 MSTORE PUSH1 0x1 DUP2 ADD SLOAD PUSH1 0x20 DUP5 ADD MSTORE PUSH1 0x2 DUP2 ADD SLOAD PUSH1 0x40 DUP5 ADD MSTORE PUSH1 0x3 DUP2 ADD SLOAD PUSH1 0x60 DUP5 ADD MSTORE PUSH1 0x4 DUP2 ADD SLOAD PUSH1 0x80 DUP5 ADD MSTORE PUSH1 0x5 DUP2 ADD SLOAD PUSH1 0xA0 DUP5 ADD MSTORE PUSH1 0x6 DUP2 ADD SLOAD PUSH1 0xC0 DUP5 ADD MSTORE PUSH1 0x7 DUP2 ADD SLOAD PUSH1 0xE0 DUP5 ADD MSTORE PUSH1 0x8 DUP2 ADD SLOAD PUSH2 0x100 DUP5 ADD MSTORE PUSH1 0x9 DUP2 ADD SLOAD PUSH2 0x120 DUP5 ADD MSTORE PUSH1 0xA DUP2 ADD SLOAD PUSH2 0x140 DUP5 ADD MSTORE PUSH1 0xB DUP2 ADD SLOAD PUSH2 0x160 DUP5 ADD MSTORE PUSH1 0xC DUP2 ADD SLOAD PUSH2 0x180 DUP5 ADD MSTORE PUSH1 0xD DUP2 ADD SLOAD PUSH2 0x1A0 DUP5 ADD MSTORE PUSH1 0xE DUP2 ADD SLOAD PUSH2 0x1C0 DUP5 ADD MSTORE PUSH1 0xF DUP2 ADD SLOAD PUSH2 0x1E0 DUP5 ADD MSTORE PUSH1 0x10 DUP2 ADD SLOAD PUSH2 0x200 DUP5 ADD MSTORE PUSH1 0x11 DUP2 ADD SLOAD PUSH2 0x220 DUP5 ADD MSTORE ADD SLOAD DUP3 DUP3 ADD MSTORE PUSH1 0x40 MLOAD SWAP3 DUP4 MSTORE PUSH1 0x20 DUP2 ADD MLOAD PUSH1 0x20 DUP5 ADD MSTORE PUSH1 0x40 DUP2 ADD MLOAD PUSH1 0x40 DUP5 ADD MSTORE PUSH1 0x60 DUP2 ADD MLOAD PUSH1 0x60 DUP5 ADD MSTORE PUSH1 0x80 DUP2 ADD MLOAD PUSH1 0x80 DUP5 ADD MSTORE PUSH1 0xA0 DUP2 ADD MLOAD PUSH1 0xA0 DUP5 ADD MSTORE PUSH1 0xC0 DUP2 ADD MLOAD PUSH1 0xC0 DUP5 ADD MSTORE PUSH1 0xE0 DUP2 ADD MLOAD PUSH1 0xE0 DUP5 ADD MSTORE PUSH2 0x100 DUP2 ADD MLOAD PUSH2 0x100 DUP5 ADD MSTORE PUSH2 0x120 DUP2 ADD MLOAD PUSH2 0x120 DUP5 ADD MSTORE PUSH2 0x140 DUP2 ADD MLOAD PUSH2 0x140 DUP5 ADD MSTORE PUSH2 0x160 DUP2 ADD MLOAD PUSH2 0x160 DUP5 ADD MSTORE PUSH2 0x180 DUP2 ADD MLOAD PUSH2 0x180 DUP5 ADD MSTORE PUSH2 0x1A0 DUP2 ADD MLOAD PUSH2 0x1A0 DUP5 ADD MSTORE PUSH2 0x1C0 DUP2 ADD MLOAD PUSH2 0x1C0 DUP5 ADD MSTORE PUSH2 0x1E0 DUP2 ADD MLOAD PUSH2 0x1E0 DUP5 ADD MSTORE PUSH2 0x200 DUP2 ADD MLOAD PUSH2 0x200 DUP5 ADD MSTORE PUSH2 0x220 DUP2 ADD MLOAD PUSH2 0x220 DUP5 ADD MSTORE ADD MLOAD PUSH2 0x240 DUP3 ADD MSTORE RETURN JUMPDEST CALLVALUE PUSH2 0x154 JUMPI PUSH2 0xE1E CALLDATASIZE PUSH2 0xF60 JUMP JUMPDEST SWAP1 PUSH0 MSTORE PUSH1 0x2 PUSH1 0x20 MSTORE PUSH1 0x40 PUSH0 KECCAK256 SWAP1 PUSH0 MSTORE PUSH1 0x20 MSTORE PUSH1 0x40 PUSH0 KECCAK256 PUSH1 0xC0 MSTORE PUSH1 0xC0 MLOAD SLOAD PUSH1 0xA0 MSTORE PUSH1 0x1 PUSH1 0xC0 MLOAD ADD SLOAD PUSH1 0x2 PUSH1 0xC0 MLOAD ADD SLOAD PUSH1 0x3 PUSH1 0xC0 MLOAD ADD SLOAD PUSH1 0x4 PUSH1 0xC0 MLOAD ADD SLOAD PUSH1 0x5 PUSH1 0xC0 MLOAD ADD SLOAD PUSH1 0x6 PUSH1 0xC0 MLOAD ADD SLOAD PUSH1 0x7 PUSH1 0xC0 MLOAD ADD SLOAD PUSH1 0x8 PUSH1 0xC0 MLOAD ADD SLOAD PUSH1 0x9 PUSH1 0xC0 MLOAD ADD SLOAD PUSH1 0xA PUSH1 0xC0 MLOAD ADD SLOAD SWAP2 PUSH1 0xB PUSH1 0xC0 MLOAD ADD SLOAD SWAP4 PUSH1 0xC PUSH1 0xC0 MLOAD ADD SLOAD SWAP6 PUSH1 0xD PUSH1 0xC0 MLOAD ADD SLOAD SWAP8 PUSH1 0xE PUSH1 0xC0 MLOAD ADD SLOAD SWAP10 PUSH1 0xF PUSH1 0xC0 MLOAD ADD SLOAD SWAP12 PUSH1 0x10 PUSH1 0xC0 MLOAD ADD SLOAD SWAP14 PUSH1 0x11 PUSH1 0xC0 MLOAD ADD SLOAD PUSH1 0x80 MSTORE PUSH1 0x12 PUSH1 0xC0 MLOAD ADD SLOAD SWAP16 PUSH1 0xA0 MLOAD PUSH2 0x200 MSTORE PUSH1 0x20 PUSH2 0x200 ADD MSTORE PUSH1 0x40 PUSH2 0x200 ADD MSTORE PUSH1 0x60 PUSH2 0x200 ADD MSTORE PUSH1 0x80 PUSH2 0x200 ADD MSTORE PUSH1 0xA0 PUSH2 0x200 ADD MSTORE PUSH1 0xC0 PUSH2 0x200 ADD MSTORE PUSH1 0xE0 PUSH2 0x200 ADD MSTORE PUSH2 0x100 PUSH2 0x200 ADD MSTORE PUSH2 0x120 PUSH2 0x200 ADD MSTORE PUSH2 0x140 PUSH2 0x200 ADD MSTORE PUSH2 0x160 PUSH2 0x200 ADD MSTORE PUSH2 0x180 PUSH2 0x200 ADD MSTORE PUSH2 0x1A0 PUSH2 0x200 ADD MSTORE PUSH2 0x1C0 PUSH2 0x200 ADD MSTORE PUSH2 0x1E0 PUSH2 0x200 ADD MSTORE PUSH2 0x200 DUP1 ADD MSTORE PUSH1 0x80 MLOAD PUSH2 0x220 PUSH2 0x200 ADD MSTORE PUSH2 0x240 PUSH2 0x200 ADD MSTORE PUSH2 0x260 PUSH2 0x200 RETURN JUMPDEST PUSH1 0x40 SWAP1 PUSH1 0x3 NOT ADD SLT PUSH2 0x154 JUMPI PUSH1 0x4 CALLDATALOAD SWAP1 PUSH1 0x24 CALLDATALOAD SWAP1 JUMP JUMPDEST SWAP1 PUSH1 0x1 DUP3 DUP2 SHR SWAP3 AND DUP1 ISZERO PUSH2 0xFA4 JUMPI JUMPDEST PUSH1 0x20 DUP4 LT EQ PUSH2 0xF90 JUMPI JUMP JUMPDEST PUSH4 0x4E487B71 PUSH1 0xE0 SHL PUSH0 MSTORE PUSH1 0x22 PUSH1 0x4 MSTORE PUSH1 0x24 PUSH0 REVERT JUMPDEST SWAP2 PUSH1 0x7F AND SWAP2 PUSH2 0xF85 JUMP JUMPDEST PUSH2 0x260 DUP2 ADD SWAP1 DUP2 LT PUSH8 0xFFFFFFFFFFFFFFFF DUP3 GT OR PUSH2 0x8C5 JUMPI PUSH1 0x40 MSTORE JUMP JUMPDEST PUSH1 0xE0 DUP2 ADD SWAP1 DUP2 LT PUSH8 0xFFFFFFFFFFFFFFFF DUP3 GT OR PUSH2 0x8C5 JUMPI PUSH1 0x40 MSTORE JUMP JUMPDEST SWAP1 PUSH1 0x1F DUP1 NOT SWAP2 ADD AND DUP2 ADD SWAP1 DUP2 LT PUSH8 0xFFFFFFFFFFFFFFFF DUP3 GT OR PUSH2 0x8C5 JUMPI PUSH1 0x40 MSTORE JUMP JUMPDEST SWAP1 PUSH1 0x40 MLOAD SWAP2 DUP3 PUSH0 DUP3 SLOAD PUSH2 0x101B DUP2 PUSH2 0xF76 JUMP JUMPDEST SWAP1 DUP2 DUP5 MSTORE PUSH1 0x20 SWAP5 PUSH1 0x1 SWAP2 PUSH1 0x1 DUP2 AND SWAP1 DUP2 PUSH0 EQ PUSH2 0x1089 JUMPI POP PUSH1 0x1 EQ PUSH2 0x104B JUMPI JUMPDEST POP POP POP PUSH2 0x1049 SWAP3 POP SUB DUP4 PUSH2 0xFE7 JUMP JUMPDEST JUMP JUMPDEST PUSH0 SWAP1 DUP2 MSTORE DUP6 DUP2 KECCAK256 SWAP6 SWAP4 POP SWAP2 SWAP1 JUMPDEST DUP2 DUP4 LT PUSH2 0x1071 JUMPI POP POP PUSH2 0x1049 SWAP4 POP DUP3 ADD ADD PUSH0 DUP1 DUP1 PUSH2 0x103A JUMP JUMPDEST DUP6 SLOAD DUP9 DUP5 ADD DUP6 ADD MSTORE SWAP5 DUP6 ADD SWAP5 DUP8 SWAP5 POP SWAP2 DUP4 ADD SWAP2 PUSH2 0x1058 JUMP JUMPDEST SWAP3 POP POP POP PUSH2 0x1049 SWAP5 SWAP3 POP PUSH1 0xFF NOT AND DUP3 DUP5 ADD MSTORE ISZERO ISZERO PUSH1 0x5 SHL DUP3 ADD ADD PUSH0 DUP1 DUP1 PUSH2 0x103A JUMP JUMPDEST SWAP2 SWAP1 DUP3 MLOAD SWAP3 DUP4 DUP3 MSTORE PUSH0 JUMPDEST DUP5 DUP2 LT PUSH2 0x10D5 JUMPI POP POP DUP3 PUSH0 PUSH1 0x20 DUP1 SWAP5 SWAP6 DUP5 ADD ADD MSTORE PUSH1 0x1F DUP1 NOT SWAP2 ADD AND ADD ADD SWAP1 JUMP JUMPDEST PUSH1 0x20 DUP2 DUP4 ADD DUP2 ADD MLOAD DUP5 DUP4 ADD DUP3 ADD MSTORE ADD PUSH2 0x10B5 JUMP JUMPDEST SWAP1 PUSH1 0x8 DUP3 LT ISZERO PUSH2 0x7E5 JUMPI MSTORE JUMP JUMPDEST SWAP1 PUSH1 0xC DUP3 LT ISZERO PUSH2 0x7E5 JUMPI MSTORE JUMP JUMPDEST PUSH1 0x4 CALLDATALOAD SWAP1 PUSH1 0x1 PUSH1 0x1 PUSH1 0xA0 SHL SUB DUP3 AND DUP3 SUB PUSH2 0x154 JUMPI JUMP JUMPDEST PUSH1 0x8 DUP3 LT ISZERO PUSH2 0x7E5 JUMPI MSTORE JUMP JUMPDEST PUSH1 0xC DUP3 LT ISZERO PUSH2 0x7E5 JUMPI MSTORE JUMP JUMPDEST PUSH0 MSTORE PUSH1 0x1 PUSH1 0x20 MSTORE PUSH1 0x40 PUSH0 KECCAK256 PUSH1 0x40 MLOAD PUSH2 0x1148 DUP2 PUSH2 0xFCB JUMP JUMPDEST DUP2 SLOAD DUP2 MSTORE PUSH2 0x1158 PUSH1 0x1 DUP4 ADD PUSH2 0x1009 JUMP JUMPDEST PUSH1 0x20 DUP3 ADD MSTORE PUSH2 0x1176 PUSH1 0xFF PUSH1 0x2 DUP5 ADD SLOAD PUSH2 0x323 DUP3 DUP3 AND PUSH1 0x40 DUP7 ADD PUSH2 0x1119 JUMP JUMPDEST PUSH1 0x3 DUP3 ADD SLOAD PUSH1 0x80 DUP3 ADD MSTORE PUSH1 0xFF PUSH1 0x5 PUSH1 0x4 DUP5 ADD SLOAD SWAP4 DUP5 PUSH1 0xA0 DUP6 ADD MSTORE ADD SLOAD AND ISZERO SWAP1 DUP2 ISZERO PUSH1 0xC0 DUP3 ADD MSTORE MLOAD ISZERO PUSH2 0x11CF JUMPI PUSH2 0x11C9 JUMPI DUP2 ISZERO SWAP2 DUP3 ISZERO PUSH2 0x11BF JUMPI JUMPDEST POP POP PUSH2 0x11BB JUMPI PUSH1 0x1 SWAP1 JUMP JUMPDEST PUSH0 SWAP1 JUMP JUMPDEST GT SWAP1 POP PUSH0 DUP1 PUSH2 0x11B0 JUMP JUMPDEST POP POP PUSH0 SWAP1 JUMP JUMPDEST POP POP POP PUSH0 SWAP1 JUMP JUMPDEST SWAP1 DUP2 PUSH0 MSTORE PUSH1 0x1 PUSH1 0x20 MSTORE PUSH1 0x40 SWAP2 DUP3 PUSH0 KECCAK256 DUP4 MLOAD PUSH2 0x11F0 DUP2 PUSH2 0xFCB JUMP JUMPDEST DUP2 SLOAD DUP2 MSTORE PUSH2 0x1200 PUSH1 0x1 DUP4 ADD PUSH2 0x1009 JUMP JUMPDEST PUSH1 0x20 DUP3 ADD MSTORE PUSH2 0x121D PUSH1 0xFF PUSH1 0x2 DUP5 ADD SLOAD PUSH2 0x323 DUP3 DUP3 AND DUP10 DUP7 ADD PUSH2 0x1119 JUMP JUMPDEST PUSH1 0x3 DUP3 ADD SLOAD PUSH1 0x80 DUP3 ADD MSTORE PUSH1 0xFF PUSH1 0x5 PUSH1 0x4 DUP5 ADD SLOAD SWAP4 DUP5 PUSH1 0xA0 DUP6 ADD MSTORE ADD SLOAD AND ISZERO ISZERO PUSH1 0xC0 DUP3 ADD MSTORE MLOAD ISZERO PUSH2 0x1528 JUMPI DUP3 ISZERO SWAP1 DUP2 ISZERO PUSH2 0x151E JUMPI JUMPDEST POP PUSH2 0x11CF JUMPI PUSH0 MSTORE PUSH1 0x2 PUSH1 0x20 MSTORE DUP2 PUSH0 KECCAK256 SWAP1 PUSH0 MSTORE PUSH1 0x20 MSTORE DUP1 PUSH0 KECCAK256 DUP2 MLOAD PUSH2 0x1C0 MSTORE PUSH2 0x127B PUSH2 0x1C0 MLOAD PUSH2 0xFAE JUMP JUMPDEST DUP1 SLOAD PUSH2 0x160 MSTORE PUSH2 0x160 MLOAD PUSH2 0x1C0 MLOAD MSTORE PUSH1 0x1 DUP2 ADD SLOAD DUP1 PUSH1 0x20 PUSH2 0x1C0 MLOAD ADD MSTORE PUSH1 0x2 DUP3 ADD SLOAD DUP1 SWAP4 PUSH2 0x1C0 MLOAD ADD MSTORE PUSH1 0x3 DUP3 ADD SLOAD SWAP3 DUP4 PUSH1 0x60 PUSH2 0x1C0 MLOAD ADD MSTORE PUSH1 0x4 DUP4 ADD SLOAD DUP1 PUSH1 0x80 PUSH2 0x1C0 MLOAD ADD MSTORE PUSH1 0x5 DUP5 ADD SLOAD DUP1 PUSH1 0xA0 PUSH2 0x1C0 MLOAD ADD MSTORE PUSH1 0x6 DUP6 ADD SLOAD DUP1 PUSH1 0xC0 PUSH2 0x1C0 MLOAD ADD MSTORE PUSH1 0x7 DUP7 ADD SLOAD DUP1 PUSH1 0xE0 PUSH2 0x1C0 MLOAD ADD MSTORE PUSH1 0x8 DUP8 ADD SLOAD SWAP2 DUP3 PUSH2 0x100 PUSH2 0x1C0 MLOAD ADD MSTORE PUSH1 0x9 DUP9 ADD SLOAD SWAP4 DUP5 PUSH2 0x120 PUSH2 0x1C0 MLOAD ADD MSTORE PUSH1 0xA DUP10 ADD SLOAD SWAP6 DUP7 PUSH2 0x140 PUSH2 0x1C0 MLOAD ADD MSTORE PUSH1 0xB DUP11 ADD SLOAD SWAP8 DUP9 PUSH2 0x160 PUSH2 0x1C0 MLOAD ADD MSTORE PUSH1 0xC DUP12 ADD SLOAD SWAP10 DUP11 PUSH2 0x180 PUSH2 0x1C0 MLOAD ADD MSTORE PUSH1 0x12 PUSH1 0xD DUP14 ADD SLOAD SWAP13 DUP14 PUSH2 0x1A0 PUSH2 0x1C0 MLOAD ADD MSTORE PUSH1 0xE DUP2 ADD SLOAD PUSH2 0x1E0 MSTORE PUSH2 0x1E0 MLOAD PUSH2 0x1C0 DUP1 MLOAD ADD MSTORE PUSH1 0xF DUP2 ADD SLOAD PUSH2 0x1A0 MSTORE PUSH2 0x1A0 MLOAD PUSH2 0x1E0 PUSH2 0x1C0 MLOAD ADD MSTORE PUSH1 0x10 DUP2 ADD SLOAD PUSH2 0x180 MSTORE PUSH2 0x180 MLOAD PUSH2 0x200 PUSH2 0x1C0 MLOAD ADD MSTORE PUSH1 0x11 DUP2 ADD SLOAD PUSH2 0x140 MSTORE PUSH2 0x140 MLOAD PUSH2 0x220 PUSH2 0x1C0 MLOAD ADD MSTORE ADD SLOAD PUSH2 0x120 MSTORE PUSH2 0x120 MLOAD PUSH2 0x240 PUSH2 0x1C0 MLOAD ADD MSTORE PUSH2 0x160 MLOAD ISZERO ISZERO PUSH2 0x100 MSTORE PUSH2 0x160 MLOAD ISZERO PUSH2 0x1512 JUMPI JUMPDEST POP PUSH2 0x100 MLOAD PUSH1 0xE0 MSTORE PUSH2 0x100 MLOAD ISZERO PUSH2 0x1507 JUMPI JUMPDEST POP PUSH1 0xE0 MLOAD SWAP11 DUP12 ISZERO PUSH2 0x14FD JUMPI JUMPDEST POP DUP11 ISZERO PUSH2 0x14F3 JUMPI JUMPDEST POP DUP10 ISZERO PUSH2 0x14E9 JUMPI JUMPDEST POP DUP9 ISZERO PUSH2 0x14DF JUMPI JUMPDEST POP DUP8 ISZERO PUSH2 0x14D5 JUMPI JUMPDEST POP DUP7 ISZERO PUSH2 0x14CB JUMPI JUMPDEST POP DUP6 ISZERO PUSH2 0x14C1 JUMPI JUMPDEST POP DUP5 ISZERO PUSH2 0x14B7 JUMPI JUMPDEST POP DUP4 ISZERO PUSH2 0x14AD JUMPI JUMPDEST POP DUP3 ISZERO PUSH2 0x14A3 JUMPI JUMPDEST POP DUP2 ISZERO PUSH2 0x1499 JUMPI JUMPDEST POP DUP1 ISZERO PUSH2 0x148D JUMPI JUMPDEST DUP1 ISZERO PUSH2 0x1481 JUMPI JUMPDEST DUP1 ISZERO PUSH2 0x1475 JUMPI JUMPDEST DUP1 ISZERO PUSH2 0x1469 JUMPI JUMPDEST DUP1 ISZERO PUSH2 0x145F JUMPI SWAP1 JUMP JUMPDEST POP PUSH2 0x120 MLOAD ISZERO ISZERO SWAP1 JUMP JUMPDEST POP PUSH2 0x140 MLOAD ISZERO ISZERO PUSH2 0x1456 JUMP JUMPDEST POP PUSH2 0x180 MLOAD ISZERO ISZERO PUSH2 0x144F JUMP JUMPDEST POP PUSH2 0x1A0 MLOAD ISZERO ISZERO PUSH2 0x1448 JUMP JUMPDEST POP PUSH2 0x1E0 MLOAD ISZERO ISZERO PUSH2 0x1441 JUMP JUMPDEST SWAP1 POP ISZERO ISZERO PUSH0 PUSH2 0x1439 JUMP JUMPDEST ISZERO ISZERO SWAP2 POP PUSH0 PUSH2 0x1431 JUMP JUMPDEST ISZERO ISZERO SWAP3 POP PUSH0 PUSH2 0x1429 JUMP JUMPDEST ISZERO ISZERO SWAP4 POP PUSH0 PUSH2 0x1421 JUMP JUMPDEST ISZERO ISZERO SWAP5 POP PUSH0 PUSH2 0x1419 JUMP JUMPDEST ISZERO ISZERO SWAP6 POP PUSH0 PUSH2 0x1411 JUMP JUMPDEST ISZERO ISZERO SWAP7 POP PUSH0 PUSH2 0x1409 JUMP JUMPDEST ISZERO ISZERO SWAP8 POP PUSH0 PUSH2 0x1401 JUMP JUMPDEST ISZERO ISZERO SWAP9 POP PUSH0 PUSH2 0x13F9 JUMP JUMPDEST ISZERO ISZERO SWAP10 POP PUSH0 PUSH2 0x13F1 JUMP JUMPDEST ISZERO ISZERO SWAP11 POP PUSH0 PUSH2 0x13E9 JUMP JUMPDEST ISZERO ISZERO PUSH1 0xE0 MSTORE PUSH0 PUSH2 0x13DD JUMP JUMPDEST ISZERO ISZERO PUSH2 0x100 MSTORE PUSH0 PUSH2 0x13CB JUMP JUMPDEST SWAP1 POP DUP3 GT PUSH0 PUSH2 0x1251 JUMP JUMPDEST POP POP POP POP PUSH0 SWAP1 JUMP JUMPDEST PUSH0 SLOAD PUSH1 0x1 PUSH1 0x1 PUSH1 0xA0 SHL SUB AND CALLER SUB PUSH2 0x1543 JUMPI JUMP JUMPDEST PUSH1 0x40 MLOAD PUSH4 0x118CDAA7 PUSH1 0xE0 SHL DUP2 MSTORE CALLER PUSH1 0x4 DUP3 ADD MSTORE PUSH1 0x24 SWAP1 REVERT INVALID LOG2 PUSH5 0x6970667358 0x22 SLT KECCAK256 PUSH14 0x61E51CDBCB151ABF229D3996405E SWAP7 0xAC PUSH3 0x58D992 OR MSIZE 0x4D PUSH28 0xC89AC5C148909664736F6C6343000818003300000000000000000000 "},"methodIdentifiers":{"authorizedCallers(address)":"536fff6c","getMateriaBonuses(uint256,uint256)":"1a09c5e9","getMateriaDefinition(uint256)":"edccb5fc","getMateriaMeta(uint256)":"4f437925","hasBonusesForLevel(uint256,uint256)":"e19242c7","isMateriaEnabled(uint256)":"54ab9def","isMateriaUsable(uint256,uint256)":"7755e783","materiaBonusesOf(uint256,uint256)":"01edfeec","materiaDefinitionOf(uint256)":"303985c7","materiaExists(uint256)":"1ea388d7","owner()":"8da5cb5b","renounceOwnership()":"715018a6","setAuthorizedCaller(address,bool)":"454bbd29","setMateriaBonuses(uint256,uint256,(int256,int256,int256,int256,int256,int256,int256,int256,int256,int256,int256,int256,int256,int256,int256,int256,int256,int256,int256))":"c4cc79e6","setMateriaDefinition(uint256,string,uint8,uint8,uint256,uint256,bool)":"65381295","transferOwnership(address)":"f2fde38b"}}}}}