{"project/contracts/crafting/CityMateria.sol":{"CityMateria":{"abi":[{"inputs":[{"internalType":"address","name":"initialOwner","type":"address"}],"stateMutability":"nonpayable","type":"constructor"},{"inputs":[],"name":"InvalidValue","type":"error"},{"inputs":[],"name":"NotAuthorized","type":"error"},{"inputs":[{"internalType":"address","name":"owner","type":"address"}],"name":"OwnableInvalidOwner","type":"error"},{"inputs":[{"internalType":"address","name":"account","type":"address"}],"name":"OwnableUnauthorizedAccount","type":"error"},{"inputs":[],"name":"ZeroAddress","type":"error"},{"anonymous":false,"inputs":[{"indexed":true,"internalType":"address","name":"caller","type":"address"},{"indexed":false,"internalType":"bool","name":"allowed","type":"bool"}],"name":"AuthorizedCallerSet","type":"event"},{"anonymous":false,"inputs":[{"indexed":true,"internalType":"uint256","name":"materiaId","type":"uint256"},{"indexed":true,"internalType":"uint256","name":"level","type":"uint256"}],"name":"MateriaBonusesSet","type":"event"},{"anonymous":false,"inputs":[{"indexed":true,"internalType":"uint256","name":"materiaId","type":"uint256"},{"indexed":false,"internalType":"string","name":"name","type":"string"},{"indexed":false,"internalType":"enum CityMateria.MateriaCategory","name":"category","type":"uint8"},{"indexed":false,"internalType":"enum CityMateria.MateriaElement","name":"element","type":"uint8"},{"indexed":false,"internalType":"uint256","name":"rarityTier","type":"uint256"},{"indexed":false,"internalType":"uint256","name":"maxLevel","type":"uint256"},{"indexed":false,"internalType":"bool","name":"enabled","type":"bool"}],"name":"MateriaDefinitionSet","type":"event"},{"anonymous":false,"inputs":[{"indexed":true,"internalType":"address","name":"previousOwner","type":"address"},{"indexed":true,"internalType":"address","name":"newOwner","type":"address"}],"name":"OwnershipTransferred","type":"event"},{"inputs":[{"internalType":"address","name":"","type":"address"}],"name":"authorizedCallers","outputs":[{"internalType":"bool","name":"","type":"bool"}],"stateMutability":"view","type":"function"},{"inputs":[{"internalType":"uint256","name":"materiaId","type":"uint256"},{"internalType":"uint256","name":"level","type":"uint256"}],"name":"getMateriaBonuses","outputs":[{"components":[{"internalType":"int256","name":"minDamageBonus","type":"int256"},{"internalType":"int256","name":"maxDamageBonus","type":"int256"},{"internalType":"int256","name":"attackSpeedBonus","type":"int256"},{"internalType":"int256","name":"critChanceBpsBonus","type":"int256"},{"internalType":"int256","name":"critMultiplierBpsBonus","type":"int256"},{"internalType":"int256","name":"accuracyBpsBonus","type":"int256"},{"internalType":"int256","name":"rangeBonus","type":"int256"},{"internalType":"int256","name":"maxDurabilityBonus","type":"int256"},{"internalType":"int256","name":"armorPenBpsBonus","type":"int256"},{"internalType":"int256","name":"blockChanceBpsBonus","type":"int256"},{"internalType":"int256","name":"lifeStealBpsBonus","type":"int256"},{"internalType":"int256","name":"energyCostBonus","type":"int256"},{"internalType":"int256","name":"heatGenerationBonus","type":"int256"},{"internalType":"int256","name":"stabilityBonus","type":"int256"},{"internalType":"int256","name":"cooldownMsBonus","type":"int256"},{"internalType":"int256","name":"projectileSpeedBonus","type":"int256"},{"internalType":"int256","name":"aoeRadiusBonus","type":"int256"},{"internalType":"int256","name":"enchantmentSlotsBonus","type":"int256"},{"internalType":"int256","name":"materiaSlotsBonus","type":"int256"}],"internalType":"struct CityMateria.MateriaBonuses","name":"","type":"tuple"}],"stateMutability":"view","type":"function"},{"inputs":[{"internalType":"uint256","name":"materiaId","type":"uint256"}],"name":"getMateriaDefinition","outputs":[{"components":[{"internalType":"uint256","name":"id","type":"uint256"},{"internalType":"string","name":"name","type":"string"},{"internalType":"enum CityMateria.MateriaCategory","name":"category","type":"uint8"},{"internalType":"enum CityMateria.MateriaElement","name":"element","type":"uint8"},{"internalType":"uint256","name":"rarityTier","type":"uint256"},{"internalType":"uint256","name":"maxLevel","type":"uint256"},{"internalType":"bool","name":"enabled","type":"bool"}],"internalType":"struct CityMateria.MateriaDefinition","name":"","type":"tuple"}],"stateMutability":"view","type":"function"},{"inputs":[{"internalType":"uint256","name":"materiaId","type":"uint256"}],"name":"getMateriaMeta","outputs":[{"internalType":"string","name":"name","type":"string"},{"internalType":"enum CityMateria.MateriaCategory","name":"category","type":"uint8"},{"internalType":"enum CityMateria.MateriaElement","name":"element","type":"uint8"},{"internalType":"uint256","name":"rarityTier","type":"uint256"},{"internalType":"uint256","name":"maxLevel","type":"uint256"},{"internalType":"bool","name":"enabled","type":"bool"}],"stateMutability":"view","type":"function"},{"inputs":[{"internalType":"uint256","name":"materiaId","type":"uint256"}],"name":"isMateriaEnabled","outputs":[{"internalType":"bool","name":"","type":"bool"}],"stateMutability":"view","type":"function"},{"inputs":[{"internalType":"uint256","name":"materiaId","type":"uint256"},{"internalType":"uint256","name":"level","type":"uint256"}],"name":"isMateriaUsable","outputs":[{"internalType":"bool","name":"","type":"bool"}],"stateMutability":"view","type":"function"},{"inputs":[{"internalType":"uint256","name":"","type":"uint256"},{"internalType":"uint256","name":"","type":"uint256"}],"name":"materiaBonusesOf","outputs":[{"internalType":"int256","name":"minDamageBonus","type":"int256"},{"internalType":"int256","name":"maxDamageBonus","type":"int256"},{"internalType":"int256","name":"attackSpeedBonus","type":"int256"},{"internalType":"int256","name":"critChanceBpsBonus","type":"int256"},{"internalType":"int256","name":"critMultiplierBpsBonus","type":"int256"},{"internalType":"int256","name":"accuracyBpsBonus","type":"int256"},{"internalType":"int256","name":"rangeBonus","type":"int256"},{"internalType":"int256","name":"maxDurabilityBonus","type":"int256"},{"internalType":"int256","name":"armorPenBpsBonus","type":"int256"},{"internalType":"int256","name":"blockChanceBpsBonus","type":"int256"},{"internalType":"int256","name":"lifeStealBpsBonus","type":"int256"},{"internalType":"int256","name":"energyCostBonus","type":"int256"},{"internalType":"int256","name":"heatGenerationBonus","type":"int256"},{"internalType":"int256","name":"stabilityBonus","type":"int256"},{"internalType":"int256","name":"cooldownMsBonus","type":"int256"},{"internalType":"int256","name":"projectileSpeedBonus","type":"int256"},{"internalType":"int256","name":"aoeRadiusBonus","type":"int256"},{"internalType":"int256","name":"enchantmentSlotsBonus","type":"int256"},{"internalType":"int256","name":"materiaSlotsBonus","type":"int256"}],"stateMutability":"view","type":"function"},{"inputs":[{"internalType":"uint256","name":"","type":"uint256"}],"name":"materiaDefinitionOf","outputs":[{"internalType":"uint256","name":"id","type":"uint256"},{"internalType":"string","name":"name","type":"string"},{"internalType":"enum CityMateria.MateriaCategory","name":"category","type":"uint8"},{"internalType":"enum CityMateria.MateriaElement","name":"element","type":"uint8"},{"internalType":"uint256","name":"rarityTier","type":"uint256"},{"internalType":"uint256","name":"maxLevel","type":"uint256"},{"internalType":"bool","name":"enabled","type":"bool"}],"stateMutability":"view","type":"function"},{"inputs":[{"internalType":"uint256","name":"materiaId","type":"uint256"}],"name":"materiaExists","outputs":[{"internalType":"bool","name":"","type":"bool"}],"stateMutability":"view","type":"function"},{"inputs":[],"name":"owner","outputs":[{"internalType":"address","name":"","type":"address"}],"stateMutability":"view","type":"function"},{"inputs":[],"name":"renounceOwnership","outputs":[],"stateMutability":"nonpayable","type":"function"},{"inputs":[{"internalType":"address","name":"caller","type":"address"},{"internalType":"bool","name":"allowed","type":"bool"}],"name":"setAuthorizedCaller","outputs":[],"stateMutability":"nonpayable","type":"function"},{"inputs":[{"internalType":"uint256","name":"materiaId","type":"uint256"},{"internalType":"uint256","name":"level","type":"uint256"},{"components":[{"internalType":"int256","name":"minDamageBonus","type":"int256"},{"internalType":"int256","name":"maxDamageBonus","type":"int256"},{"internalType":"int256","name":"attackSpeedBonus","type":"int256"},{"internalType":"int256","name":"critChanceBpsBonus","type":"int256"},{"internalType":"int256","name":"critMultiplierBpsBonus","type":"int256"},{"internalType":"int256","name":"accuracyBpsBonus","type":"int256"},{"internalType":"int256","name":"rangeBonus","type":"int256"},{"internalType":"int256","name":"maxDurabilityBonus","type":"int256"},{"internalType":"int256","name":"armorPenBpsBonus","type":"int256"},{"internalType":"int256","name":"blockChanceBpsBonus","type":"int256"},{"internalType":"int256","name":"lifeStealBpsBonus","type":"int256"},{"internalType":"int256","name":"energyCostBonus","type":"int256"},{"internalType":"int256","name":"heatGenerationBonus","type":"int256"},{"internalType":"int256","name":"stabilityBonus","type":"int256"},{"internalType":"int256","name":"cooldownMsBonus","type":"int256"},{"internalType":"int256","name":"projectileSpeedBonus","type":"int256"},{"internalType":"int256","name":"aoeRadiusBonus","type":"int256"},{"internalType":"int256","name":"enchantmentSlotsBonus","type":"int256"},{"internalType":"int256","name":"materiaSlotsBonus","type":"int256"}],"internalType":"struct CityMateria.MateriaBonuses","name":"bonuses","type":"tuple"}],"name":"setMateriaBonuses","outputs":[],"stateMutability":"nonpayable","type":"function"},{"inputs":[{"internalType":"uint256","name":"materiaId","type":"uint256"},{"internalType":"string","name":"name","type":"string"},{"internalType":"enum CityMateria.MateriaCategory","name":"category","type":"uint8"},{"internalType":"enum CityMateria.MateriaElement","name":"element","type":"uint8"},{"internalType":"uint256","name":"rarityTier","type":"uint256"},{"internalType":"uint256","name":"maxLevel","type":"uint256"},{"internalType":"bool","name":"enabled","type":"bool"}],"name":"setMateriaDefinition","outputs":[],"stateMutability":"nonpayable","type":"function"},{"inputs":[{"internalType":"address","name":"newOwner","type":"address"}],"name":"transferOwnership","outputs":[],"stateMutability":"nonpayable","type":"function"}],"evm":{"bytecode":{"linkReferences":{},"object":"6080346100b457601f6112cc38819003918201601f19168301916001600160401b038311848410176100b8578084926020946040528339810103126100b457516001600160a01b03808216918290036100b457811561009c575f548260018060a01b03198216175f55167f8be0079c531659141344cd1fd0a4f28419497f9722a3daafe3b4186f6b6457e05f80a36040516111ff90816100cd8239f35b604051631e4fbdf760e01b81525f6004820152602490fd5b5f80fd5b634e487b7160e01b5f52604160045260245ffdfe60e06040526004361015610011575f80fd5b5f3560e01c806301edfeec14610deb5780631a09c5e914610ba05780631ea388d714610b74578063303985c714610ad7578063454bbd2914610a385780634f43792514610939578063536fff6c146108fc57806354ab9def146108ca5780636538129514610512578063715018a6146104bb5780637755e783146104985780638da5cb5b14610471578063c4cc79e614610270578063edccb5fc1461014c5763f2fde38b146100be575f80fd5b34610148576020366003190112610148576100d76110cb565b6100df61119e565b6001600160a01b03908116908115610130575f54826bffffffffffffffffffffffff60a01b8216175f55167f8be0079c531659141344cd1fd0a4f28419497f9722a3daafe3b4186f6b6457e05f80a3005b604051631e4fbdf760e01b81525f6004820152602490fd5b5f80fd5b3461014857602080600319360112610148575f60c060405161016d81610f93565b8281526060848201528260408201528260608201528260808201528260a082015201526004355f526001815260405f20604051906101aa82610f93565b805482526101ba60018201610fd1565b83830190815260028201549160408401926101d860ff8216856110e1565b6101ec60ff606087019260081c16826110ed565b6102586003830154916080870192835261024d61024160ff600560048801549760a08c019889520154169660c08a0197151588526040519a8b9a818c5251908b01525160e060408b01526101008a0190611073565b965160608901906110b1565b5160808701906110be565b5160a08501525160c084015251151560e08301520390f35b34610148576102a036600319011261014857602435600435610260366043190112610148575f546001600160a01b03163314801561045b575b1561044957805f52600160205260405f206040516102c681610f93565b815481526102d660018301610fd1565b602082015261030160ff60028401546102f4828216604086016110e1565b60081c16606083016110ed565b6003820154608082015260ff600560048401549360a084019485520154161590811560c08201525115908115610441575b50610424578215908115610436575b5061042457805f52600260205260405f20825f5260205260405f2060443581556064356001820155608435600282015560a435600382015560c435600482015560e435600582015561010435600682015561012435600782015561014435600882015561016435600982015561018435600a8201556101a435600b8201556101c435600c8201556101e435600d82015561020435600e82015561022435600f8201556102443560108201556102643560118201556012610284359101557f5d6b6c902adceb8746167086ac7a646fe82475b019c30c54cc39eb62dddfdfbf5f80a3005b604051632a9ffab760e21b8152600490fd5b905051821183610341565b905084610332565b60405163ea8e4eb560e01b8152600490fd5b50335f52600360205260ff60405f2054166102a9565b34610148575f366003190112610148575f546040516001600160a01b039091168152602090f35b346101485760206104b16104ab36610f28565b906110f9565b6040519015158152f35b34610148575f366003190112610148576104d361119e565b5f80546001600160a01b0319811682556001600160a01b03167f8be0079c531659141344cd1fd0a4f28419497f9722a3daafe3b4186f6b6457e08280a3005b346101485760e03660031901126101485760243567ffffffffffffffff811161014857366023820112156101485767ffffffffffffffff81600401351161014857366024826004013583010111610148576008604435101561014857600c60643510156101485760c4358015158103610148575f546001600160a01b0316331480156108b4575b1561044957600435156104245781600401351561042457604435156104245760a4351561042457604051906105cd82610f93565b6004358252604051916105ee6020601f19601f876004013501160184610faf565b60048401358084526024850160208501375f602085600401358501015260208101928352610621604435604083016110e1565b610630606435606083016110ed565b608435608082015260a43560a082015281151560c08201526004355f52600160205260405f2092815184555180519067ffffffffffffffff82116108a057819061067d6001870154610f3e565b601f811161084d575b50602090601f83116001146107df575f926107d4575b50508160011b915f199060031b1c19161760018401555b600283019260408201519160088310156107c057845490606081015190600c8210156107c0577f491afbbf368b84688ee5f6044f5ac3c352ba52b482a0d12fa8834d2c2da4a485966107459560059460ff61ff0060c09660081b1692169061ffff1916171790556080810151600385015560a081015160048501550151151591019060ff801983541691151516179055565b6040519060c08252836004013560c083015283600401356024850160e08401375f60e0856004013584010152610780602083016044356110b1565b61078f604083016064356110be565b608435606083015260a4356080830152151560a082015260048035930135601f01601f1916810181900360e00190a2005b634e487b7160e01b5f52602160045260245ffd5b01519050868061069c565b9250600186015f5260205f20905f935b601f1984168510610832576001945083601f1981161061081a575b505050811b0160018401556106b3565b01515f1960f88460031b161c1916905586808061080a565b818101518355602094850194600190930192909101906107ef565b909150600186015f5260205f20601f840160051c81019160208510610896575b90601f859493920160051c01905b8181106108885750610686565b5f815584935060010161087b565b909150819061086d565b634e487b7160e01b5f52604160045260245ffd5b50335f52600360205260ff60405f205416610599565b34610148576020366003190112610148576004355f526001602052602060ff600560405f200154166040519015158152f35b34610148576020366003190112610148576001600160a01b0361091d6110cb565b165f526003602052602060ff60405f2054166040519015158152f35b34610148576020366003190112610148576004355f52600160205260405f2060405161096481610f93565b8154815261097460018301610fd1565b9160208201928352600281015490604083019261099460ff8416856110e1565b6109a860ff606083019460081c16846110ed565b6003820154946080820195865260c060ff600560048601549560a08601968752015416920191151582525193519260088410156107c0575191600c8310156107c057610a25610a10965191519251151593610a1b60405198899860c08a5260c08a0190611073565b9660208901906110b1565b60408701906110be565b6060850152608084015260a08301520390f35b3461014857604036600319011261014857610a516110cb565b602435908115159081830361014857610a6861119e565b6001600160a01b0316918215610ac5577f1eff62a53441c7d0125c22f2a9a324e206b34efa41e19469d7efb9bb703d21a391610abc602092855f526003845260405f209060ff801983541691151516179055565b604051908152a2005b60405163d92e233d60e01b8152600490fd5b34610148576020366003190112610148576004355f52600160205260405f208054610b0460018301610fd1565b9160028101549060038101549060ff600560048301549201541691610b5f610b3e604051978897885260e0602089015260e0880190611073565b94610b4f6040880160ff83166110b1565b60ff606088019160081c166110be565b608085015260a0840152151560c08301520390f35b34610148576020366003190112610148576004355f526001602052602060405f20541515604051908152f35b3461014857610bae36610f28565b905f610240604051610bbf81610f76565b8281528260208201528260408201528260608201528260808201528260a08201528260c08201528260e08201528261010082015282610120820152826101408201528261016082015282610180820152826101a0820152826101c0820152826101e0820152826102008201528261022082015201525f52600260205260405f20905f5260205261026060405f20610240604051610c5b81610f76565b601283549384835260018101546020840152600281015460408401526003810154606084015260048101546080840152600581015460a0840152600681015460c0840152600781015460e084015260088101546101008401526009810154610120840152600a810154610140840152600b810154610160840152600c810154610180840152600d8101546101a0840152600e8101546101c0840152600f8101546101e0840152601081015461020084015260118101546102208401520154828201526040519283526020810151602084015260408101516040840152606081015160608401526080810151608084015260a081015160a084015260c081015160c084015260e081015160e08401526101008101516101008401526101208101516101208401526101408101516101408401526101608101516101608401526101808101516101808401526101a08101516101a08401526101c08101516101c08401526101e08101516101e08401526102008101516102008401526102208101516102208401520151610240820152f35b3461014857610df936610f28565b905f52600260205260405f20905f5260205260405f2060c05260c0515460a052600160c0510154600260c0510154600360c0510154600460c0510154600560c0510154600660c0510154600760c0510154600860c0510154600960c0510154600a60c051015491600b60c051015493600c60c051015495600d60c051015497600e60c051015499600f60c05101549b601060c05101549d601160c0510154608052601260c05101549f60a05160e052602060e00152604060e00152606060e00152608060e0015260a060e0015260c060e0015260e080015261010060e0015261012060e0015261014060e0015261016060e0015261018060e001526101a060e001526101c060e001526101e060e0015261020060e0015260805161022060e0015261024060e0015261026060e0f35b6040906003190112610148576004359060243590565b90600182811c92168015610f6c575b6020831014610f5857565b634e487b7160e01b5f52602260045260245ffd5b91607f1691610f4d565b610260810190811067ffffffffffffffff8211176108a057604052565b60e0810190811067ffffffffffffffff8211176108a057604052565b90601f8019910116810190811067ffffffffffffffff8211176108a057604052565b9060405191825f8254610fe381610f3e565b908184526020946001916001811690815f146110515750600114611013575b50505061101192500383610faf565b565b5f90815285812095935091905b81831061103957505061101193508201015f8080611002565b85548884018501529485019487945091830191611020565b9250505061101194925060ff191682840152151560051b8201015f8080611002565b91908251928382525f5b84811061109d575050825f602080949584010152601f8019910116010190565b60208183018101518483018201520161107d565b9060088210156107c05752565b90600c8210156107c05752565b600435906001600160a01b038216820361014857565b60088210156107c05752565b600c8210156107c05752565b5f52600160205260405f2060405161111081610f93565b8154815261112060018301610fd1565b602082015261113e60ff60028401546102f4828216604086016110e1565b6003820154608082015260ff60056004840154938460a08501520154161590811560c0820152511561119757611191578115918215611187575b505061118357600190565b5f90565b1190505f80611178565b50505f90565b5050505f90565b5f546001600160a01b031633036111b157565b60405163118cdaa760e01b8152336004820152602490fdfea264697066735822122087495c85be29f53545d644ba196b6f1d04b480238ff5a31b1e880651fdb3694764736f6c63430008180033","opcodes":"PUSH1 0x80 CALLVALUE PUSH2 0xB4 JUMPI PUSH1 0x1F PUSH2 0x12CC CODESIZE DUP2 SWAP1 SUB SWAP2 DUP3 ADD PUSH1 0x1F NOT AND DUP4 ADD SWAP2 PUSH1 0x1 PUSH1 0x1 PUSH1 0x40 SHL SUB DUP4 GT DUP5 DUP5 LT OR PUSH2 0xB8 JUMPI DUP1 DUP5 SWAP3 PUSH1 0x20 SWAP5 PUSH1 0x40 MSTORE DUP4 CODECOPY DUP2 ADD SUB SLT PUSH2 0xB4 JUMPI MLOAD PUSH1 0x1 PUSH1 0x1 PUSH1 0xA0 SHL SUB DUP1 DUP3 AND SWAP2 DUP3 SWAP1 SUB PUSH2 0xB4 JUMPI DUP2 ISZERO PUSH2 0x9C JUMPI PUSH0 SLOAD DUP3 PUSH1 0x1 DUP1 PUSH1 0xA0 SHL SUB NOT DUP3 AND OR PUSH0 SSTORE AND PUSH32 0x8BE0079C531659141344CD1FD0A4F28419497F9722A3DAAFE3B4186F6B6457E0 PUSH0 DUP1 LOG3 PUSH1 0x40 MLOAD PUSH2 0x11FF SWAP1 DUP2 PUSH2 0xCD DUP3 CODECOPY RETURN JUMPDEST PUSH1 0x40 MLOAD PUSH4 0x1E4FBDF7 PUSH1 0xE0 SHL DUP2 MSTORE PUSH0 PUSH1 0x4 DUP3 ADD MSTORE PUSH1 0x24 SWAP1 REVERT JUMPDEST PUSH0 DUP1 REVERT JUMPDEST PUSH4 0x4E487B71 PUSH1 0xE0 SHL PUSH0 MSTORE PUSH1 0x41 PUSH1 0x4 MSTORE PUSH1 0x24 PUSH0 REVERT INVALID PUSH1 0xE0 PUSH1 0x40 MSTORE PUSH1 0x4 CALLDATASIZE LT ISZERO PUSH2 0x11 JUMPI PUSH0 DUP1 REVERT JUMPDEST PUSH0 CALLDATALOAD PUSH1 0xE0 SHR DUP1 PUSH4 0x1EDFEEC EQ PUSH2 0xDEB JUMPI DUP1 PUSH4 0x1A09C5E9 EQ PUSH2 0xBA0 JUMPI DUP1 PUSH4 0x1EA388D7 EQ PUSH2 0xB74 JUMPI DUP1 PUSH4 0x303985C7 EQ PUSH2 0xAD7 JUMPI DUP1 PUSH4 0x454BBD29 EQ PUSH2 0xA38 JUMPI DUP1 PUSH4 0x4F437925 EQ PUSH2 0x939 JUMPI DUP1 PUSH4 0x536FFF6C EQ PUSH2 0x8FC JUMPI DUP1 PUSH4 0x54AB9DEF EQ PUSH2 0x8CA JUMPI DUP1 PUSH4 0x65381295 EQ PUSH2 0x512 JUMPI DUP1 PUSH4 0x715018A6 EQ PUSH2 0x4BB JUMPI DUP1 PUSH4 0x7755E783 EQ PUSH2 0x498 JUMPI DUP1 PUSH4 0x8DA5CB5B EQ PUSH2 0x471 JUMPI DUP1 PUSH4 0xC4CC79E6 EQ PUSH2 0x270 JUMPI DUP1 PUSH4 0xEDCCB5FC EQ PUSH2 0x14C JUMPI PUSH4 0xF2FDE38B EQ PUSH2 0xBE JUMPI PUSH0 DUP1 REVERT JUMPDEST CALLVALUE PUSH2 0x148 JUMPI PUSH1 0x20 CALLDATASIZE PUSH1 0x3 NOT ADD SLT PUSH2 0x148 JUMPI PUSH2 0xD7 PUSH2 0x10CB JUMP JUMPDEST PUSH2 0xDF PUSH2 0x119E JUMP JUMPDEST PUSH1 0x1 PUSH1 0x1 PUSH1 0xA0 SHL SUB SWAP1 DUP2 AND SWAP1 DUP2 ISZERO PUSH2 0x130 JUMPI PUSH0 SLOAD DUP3 PUSH12 0xFFFFFFFFFFFFFFFFFFFFFFFF PUSH1 0xA0 SHL DUP3 AND OR PUSH0 SSTORE AND PUSH32 0x8BE0079C531659141344CD1FD0A4F28419497F9722A3DAAFE3B4186F6B6457E0 PUSH0 DUP1 LOG3 STOP JUMPDEST PUSH1 0x40 MLOAD PUSH4 0x1E4FBDF7 PUSH1 0xE0 SHL DUP2 MSTORE PUSH0 PUSH1 0x4 DUP3 ADD MSTORE PUSH1 0x24 SWAP1 REVERT JUMPDEST PUSH0 DUP1 REVERT JUMPDEST CALLVALUE PUSH2 0x148 JUMPI PUSH1 0x20 DUP1 PUSH1 0x3 NOT CALLDATASIZE ADD SLT PUSH2 0x148 JUMPI PUSH0 PUSH1 0xC0 PUSH1 0x40 MLOAD PUSH2 0x16D DUP2 PUSH2 0xF93 JUMP JUMPDEST DUP3 DUP2 MSTORE PUSH1 0x60 DUP5 DUP3 ADD MSTORE DUP3 PUSH1 0x40 DUP3 ADD MSTORE DUP3 PUSH1 0x60 DUP3 ADD MSTORE DUP3 PUSH1 0x80 DUP3 ADD MSTORE DUP3 PUSH1 0xA0 DUP3 ADD MSTORE ADD MSTORE PUSH1 0x4 CALLDATALOAD PUSH0 MSTORE PUSH1 0x1 DUP2 MSTORE PUSH1 0x40 PUSH0 KECCAK256 PUSH1 0x40 MLOAD SWAP1 PUSH2 0x1AA DUP3 PUSH2 0xF93 JUMP JUMPDEST DUP1 SLOAD DUP3 MSTORE PUSH2 0x1BA PUSH1 0x1 DUP3 ADD PUSH2 0xFD1 JUMP JUMPDEST DUP4 DUP4 ADD SWAP1 DUP2 MSTORE PUSH1 0x2 DUP3 ADD SLOAD SWAP2 PUSH1 0x40 DUP5 ADD SWAP3 PUSH2 0x1D8 PUSH1 0xFF DUP3 AND DUP6 PUSH2 0x10E1 JUMP JUMPDEST PUSH2 0x1EC PUSH1 0xFF PUSH1 0x60 DUP8 ADD SWAP3 PUSH1 0x8 SHR AND DUP3 PUSH2 0x10ED JUMP JUMPDEST PUSH2 0x258 PUSH1 0x3 DUP4 ADD SLOAD SWAP2 PUSH1 0x80 DUP8 ADD SWAP3 DUP4 MSTORE PUSH2 0x24D PUSH2 0x241 PUSH1 0xFF PUSH1 0x5 PUSH1 0x4 DUP9 ADD SLOAD SWAP8 PUSH1 0xA0 DUP13 ADD SWAP9 DUP10 MSTORE ADD SLOAD AND SWAP7 PUSH1 0xC0 DUP11 ADD SWAP8 ISZERO ISZERO DUP9 MSTORE PUSH1 0x40 MLOAD SWAP11 DUP12 SWAP11 DUP2 DUP13 MSTORE MLOAD SWAP1 DUP12 ADD MSTORE MLOAD PUSH1 0xE0 PUSH1 0x40 DUP12 ADD MSTORE PUSH2 0x100 DUP11 ADD SWAP1 PUSH2 0x1073 JUMP JUMPDEST SWAP7 MLOAD PUSH1 0x60 DUP10 ADD SWAP1 PUSH2 0x10B1 JUMP JUMPDEST MLOAD PUSH1 0x80 DUP8 ADD SWAP1 PUSH2 0x10BE JUMP JUMPDEST MLOAD PUSH1 0xA0 DUP6 ADD MSTORE MLOAD PUSH1 0xC0 DUP5 ADD MSTORE MLOAD ISZERO ISZERO PUSH1 0xE0 DUP4 ADD MSTORE SUB SWAP1 RETURN JUMPDEST CALLVALUE PUSH2 0x148 JUMPI PUSH2 0x2A0 CALLDATASIZE PUSH1 0x3 NOT ADD SLT PUSH2 0x148 JUMPI PUSH1 0x24 CALLDATALOAD PUSH1 0x4 CALLDATALOAD PUSH2 0x260 CALLDATASIZE PUSH1 0x43 NOT ADD SLT PUSH2 0x148 JUMPI PUSH0 SLOAD PUSH1 0x1 PUSH1 0x1 PUSH1 0xA0 SHL SUB AND CALLER EQ DUP1 ISZERO PUSH2 0x45B JUMPI JUMPDEST ISZERO PUSH2 0x449 JUMPI DUP1 PUSH0 MSTORE PUSH1 0x1 PUSH1 0x20 MSTORE PUSH1 0x40 PUSH0 KECCAK256 PUSH1 0x40 MLOAD PUSH2 0x2C6 DUP2 PUSH2 0xF93 JUMP JUMPDEST DUP2 SLOAD DUP2 MSTORE PUSH2 0x2D6 PUSH1 0x1 DUP4 ADD PUSH2 0xFD1 JUMP JUMPDEST PUSH1 0x20 DUP3 ADD MSTORE PUSH2 0x301 PUSH1 0xFF PUSH1 0x2 DUP5 ADD SLOAD PUSH2 0x2F4 DUP3 DUP3 AND PUSH1 0x40 DUP7 ADD PUSH2 0x10E1 JUMP JUMPDEST PUSH1 0x8 SHR AND PUSH1 0x60 DUP4 ADD PUSH2 0x10ED JUMP JUMPDEST PUSH1 0x3 DUP3 ADD SLOAD PUSH1 0x80 DUP3 ADD MSTORE PUSH1 0xFF PUSH1 0x5 PUSH1 0x4 DUP5 ADD SLOAD SWAP4 PUSH1 0xA0 DUP5 ADD SWAP5 DUP6 MSTORE ADD SLOAD AND ISZERO SWAP1 DUP2 ISZERO PUSH1 0xC0 DUP3 ADD MSTORE MLOAD ISZERO SWAP1 DUP2 ISZERO PUSH2 0x441 JUMPI JUMPDEST POP PUSH2 0x424 JUMPI DUP3 ISZERO SWAP1 DUP2 ISZERO PUSH2 0x436 JUMPI JUMPDEST POP PUSH2 0x424 JUMPI DUP1 PUSH0 MSTORE PUSH1 0x2 PUSH1 0x20 MSTORE PUSH1 0x40 PUSH0 KECCAK256 DUP3 PUSH0 MSTORE PUSH1 0x20 MSTORE PUSH1 0x40 PUSH0 KECCAK256 PUSH1 0x44 CALLDATALOAD DUP2 SSTORE PUSH1 0x64 CALLDATALOAD PUSH1 0x1 DUP3 ADD SSTORE PUSH1 0x84 CALLDATALOAD PUSH1 0x2 DUP3 ADD SSTORE PUSH1 0xA4 CALLDATALOAD PUSH1 0x3 DUP3 ADD SSTORE PUSH1 0xC4 CALLDATALOAD PUSH1 0x4 DUP3 ADD SSTORE PUSH1 0xE4 CALLDATALOAD PUSH1 0x5 DUP3 ADD SSTORE PUSH2 0x104 CALLDATALOAD PUSH1 0x6 DUP3 ADD SSTORE PUSH2 0x124 CALLDATALOAD PUSH1 0x7 DUP3 ADD SSTORE PUSH2 0x144 CALLDATALOAD PUSH1 0x8 DUP3 ADD SSTORE PUSH2 0x164 CALLDATALOAD PUSH1 0x9 DUP3 ADD SSTORE PUSH2 0x184 CALLDATALOAD PUSH1 0xA DUP3 ADD SSTORE PUSH2 0x1A4 CALLDATALOAD PUSH1 0xB DUP3 ADD SSTORE PUSH2 0x1C4 CALLDATALOAD PUSH1 0xC DUP3 ADD SSTORE PUSH2 0x1E4 CALLDATALOAD PUSH1 0xD DUP3 ADD SSTORE PUSH2 0x204 CALLDATALOAD PUSH1 0xE DUP3 ADD SSTORE PUSH2 0x224 CALLDATALOAD PUSH1 0xF DUP3 ADD SSTORE PUSH2 0x244 CALLDATALOAD PUSH1 0x10 DUP3 ADD SSTORE PUSH2 0x264 CALLDATALOAD PUSH1 0x11 DUP3 ADD SSTORE PUSH1 0x12 PUSH2 0x284 CALLDATALOAD SWAP2 ADD SSTORE PUSH32 0x5D6B6C902ADCEB8746167086AC7A646FE82475B019C30C54CC39EB62DDDFDFBF PUSH0 DUP1 LOG3 STOP JUMPDEST PUSH1 0x40 MLOAD PUSH4 0x2A9FFAB7 PUSH1 0xE2 SHL DUP2 MSTORE PUSH1 0x4 SWAP1 REVERT JUMPDEST SWAP1 POP MLOAD DUP3 GT DUP4 PUSH2 0x341 JUMP JUMPDEST SWAP1 POP DUP5 PUSH2 0x332 JUMP JUMPDEST PUSH1 0x40 MLOAD PUSH4 0xEA8E4EB5 PUSH1 0xE0 SHL DUP2 MSTORE PUSH1 0x4 SWAP1 REVERT JUMPDEST POP CALLER PUSH0 MSTORE PUSH1 0x3 PUSH1 0x20 MSTORE PUSH1 0xFF PUSH1 0x40 PUSH0 KECCAK256 SLOAD AND PUSH2 0x2A9 JUMP JUMPDEST CALLVALUE PUSH2 0x148 JUMPI PUSH0 CALLDATASIZE PUSH1 0x3 NOT ADD SLT PUSH2 0x148 JUMPI PUSH0 SLOAD PUSH1 0x40 MLOAD PUSH1 0x1 PUSH1 0x1 PUSH1 0xA0 SHL SUB SWAP1 SWAP2 AND DUP2 MSTORE PUSH1 0x20 SWAP1 RETURN JUMPDEST CALLVALUE PUSH2 0x148 JUMPI PUSH1 0x20 PUSH2 0x4B1 PUSH2 0x4AB CALLDATASIZE PUSH2 0xF28 JUMP JUMPDEST SWAP1 PUSH2 0x10F9 JUMP JUMPDEST PUSH1 0x40 MLOAD SWAP1 ISZERO ISZERO DUP2 MSTORE RETURN JUMPDEST CALLVALUE PUSH2 0x148 JUMPI PUSH0 CALLDATASIZE PUSH1 0x3 NOT ADD SLT PUSH2 0x148 JUMPI PUSH2 0x4D3 PUSH2 0x119E JUMP JUMPDEST PUSH0 DUP1 SLOAD PUSH1 0x1 PUSH1 0x1 PUSH1 0xA0 SHL SUB NOT DUP2 AND DUP3 SSTORE PUSH1 0x1 PUSH1 0x1 PUSH1 0xA0 SHL SUB AND PUSH32 0x8BE0079C531659141344CD1FD0A4F28419497F9722A3DAAFE3B4186F6B6457E0 DUP3 DUP1 LOG3 STOP JUMPDEST CALLVALUE PUSH2 0x148 JUMPI PUSH1 0xE0 CALLDATASIZE PUSH1 0x3 NOT ADD SLT PUSH2 0x148 JUMPI PUSH1 0x24 CALLDATALOAD PUSH8 0xFFFFFFFFFFFFFFFF DUP2 GT PUSH2 0x148 JUMPI CALLDATASIZE PUSH1 0x23 DUP3 ADD SLT ISZERO PUSH2 0x148 JUMPI PUSH8 0xFFFFFFFFFFFFFFFF DUP2 PUSH1 0x4 ADD CALLDATALOAD GT PUSH2 0x148 JUMPI CALLDATASIZE PUSH1 0x24 DUP3 PUSH1 0x4 ADD CALLDATALOAD DUP4 ADD ADD GT PUSH2 0x148 JUMPI PUSH1 0x8 PUSH1 0x44 CALLDATALOAD LT ISZERO PUSH2 0x148 JUMPI PUSH1 0xC PUSH1 0x64 CALLDATALOAD LT ISZERO PUSH2 0x148 JUMPI PUSH1 0xC4 CALLDATALOAD DUP1 ISZERO ISZERO DUP2 SUB PUSH2 0x148 JUMPI PUSH0 SLOAD PUSH1 0x1 PUSH1 0x1 PUSH1 0xA0 SHL SUB AND CALLER EQ DUP1 ISZERO PUSH2 0x8B4 JUMPI JUMPDEST ISZERO PUSH2 0x449 JUMPI PUSH1 0x4 CALLDATALOAD ISZERO PUSH2 0x424 JUMPI DUP2 PUSH1 0x4 ADD CALLDATALOAD ISZERO PUSH2 0x424 JUMPI PUSH1 0x44 CALLDATALOAD ISZERO PUSH2 0x424 JUMPI PUSH1 0xA4 CALLDATALOAD ISZERO PUSH2 0x424 JUMPI PUSH1 0x40 MLOAD SWAP1 PUSH2 0x5CD DUP3 PUSH2 0xF93 JUMP JUMPDEST PUSH1 0x4 CALLDATALOAD DUP3 MSTORE PUSH1 0x40 MLOAD SWAP2 PUSH2 0x5EE PUSH1 0x20 PUSH1 0x1F NOT PUSH1 0x1F DUP8 PUSH1 0x4 ADD CALLDATALOAD ADD AND ADD DUP5 PUSH2 0xFAF JUMP JUMPDEST PUSH1 0x4 DUP5 ADD CALLDATALOAD DUP1 DUP5 MSTORE PUSH1 0x24 DUP6 ADD PUSH1 0x20 DUP6 ADD CALLDATACOPY PUSH0 PUSH1 0x20 DUP6 PUSH1 0x4 ADD CALLDATALOAD DUP6 ADD ADD MSTORE PUSH1 0x20 DUP2 ADD SWAP3 DUP4 MSTORE PUSH2 0x621 PUSH1 0x44 CALLDATALOAD PUSH1 0x40 DUP4 ADD PUSH2 0x10E1 JUMP JUMPDEST PUSH2 0x630 PUSH1 0x64 CALLDATALOAD PUSH1 0x60 DUP4 ADD PUSH2 0x10ED JUMP JUMPDEST PUSH1 0x84 CALLDATALOAD PUSH1 0x80 DUP3 ADD MSTORE PUSH1 0xA4 CALLDATALOAD PUSH1 0xA0 DUP3 ADD MSTORE DUP2 ISZERO ISZERO PUSH1 0xC0 DUP3 ADD MSTORE PUSH1 0x4 CALLDATALOAD PUSH0 MSTORE PUSH1 0x1 PUSH1 0x20 MSTORE PUSH1 0x40 PUSH0 KECCAK256 SWAP3 DUP2 MLOAD DUP5 SSTORE MLOAD DUP1 MLOAD SWAP1 PUSH8 0xFFFFFFFFFFFFFFFF DUP3 GT PUSH2 0x8A0 JUMPI DUP2 SWAP1 PUSH2 0x67D PUSH1 0x1 DUP8 ADD SLOAD PUSH2 0xF3E JUMP JUMPDEST PUSH1 0x1F DUP2 GT PUSH2 0x84D JUMPI JUMPDEST POP PUSH1 0x20 SWAP1 PUSH1 0x1F DUP4 GT PUSH1 0x1 EQ PUSH2 0x7DF JUMPI PUSH0 SWAP3 PUSH2 0x7D4 JUMPI JUMPDEST POP POP DUP2 PUSH1 0x1 SHL SWAP2 PUSH0 NOT SWAP1 PUSH1 0x3 SHL SHR NOT AND OR PUSH1 0x1 DUP5 ADD SSTORE JUMPDEST PUSH1 0x2 DUP4 ADD SWAP3 PUSH1 0x40 DUP3 ADD MLOAD SWAP2 PUSH1 0x8 DUP4 LT ISZERO PUSH2 0x7C0 JUMPI DUP5 SLOAD SWAP1 PUSH1 0x60 DUP2 ADD MLOAD SWAP1 PUSH1 0xC DUP3 LT ISZERO PUSH2 0x7C0 JUMPI PUSH32 0x491AFBBF368B84688EE5F6044F5AC3C352BA52B482A0D12FA8834D2C2DA4A485 SWAP7 PUSH2 0x745 SWAP6 PUSH1 0x5 SWAP5 PUSH1 0xFF PUSH2 0xFF00 PUSH1 0xC0 SWAP7 PUSH1 0x8 SHL AND SWAP3 AND SWAP1 PUSH2 0xFFFF NOT AND OR OR SWAP1 SSTORE PUSH1 0x80 DUP2 ADD MLOAD PUSH1 0x3 DUP6 ADD SSTORE PUSH1 0xA0 DUP2 ADD MLOAD PUSH1 0x4 DUP6 ADD SSTORE ADD MLOAD ISZERO ISZERO SWAP2 ADD SWAP1 PUSH1 0xFF DUP1 NOT DUP4 SLOAD AND SWAP2 ISZERO ISZERO AND OR SWAP1 SSTORE JUMP JUMPDEST PUSH1 0x40 MLOAD SWAP1 PUSH1 0xC0 DUP3 MSTORE DUP4 PUSH1 0x4 ADD CALLDATALOAD PUSH1 0xC0 DUP4 ADD MSTORE DUP4 PUSH1 0x4 ADD CALLDATALOAD PUSH1 0x24 DUP6 ADD PUSH1 0xE0 DUP5 ADD CALLDATACOPY PUSH0 PUSH1 0xE0 DUP6 PUSH1 0x4 ADD CALLDATALOAD DUP5 ADD ADD MSTORE PUSH2 0x780 PUSH1 0x20 DUP4 ADD PUSH1 0x44 CALLDATALOAD PUSH2 0x10B1 JUMP JUMPDEST PUSH2 0x78F PUSH1 0x40 DUP4 ADD PUSH1 0x64 CALLDATALOAD PUSH2 0x10BE JUMP JUMPDEST PUSH1 0x84 CALLDATALOAD PUSH1 0x60 DUP4 ADD MSTORE PUSH1 0xA4 CALLDATALOAD PUSH1 0x80 DUP4 ADD MSTORE ISZERO ISZERO PUSH1 0xA0 DUP3 ADD MSTORE PUSH1 0x4 DUP1 CALLDATALOAD SWAP4 ADD CALLDATALOAD PUSH1 0x1F ADD PUSH1 0x1F NOT AND DUP2 ADD DUP2 SWAP1 SUB PUSH1 0xE0 ADD SWAP1 LOG2 STOP JUMPDEST PUSH4 0x4E487B71 PUSH1 0xE0 SHL PUSH0 MSTORE PUSH1 0x21 PUSH1 0x4 MSTORE PUSH1 0x24 PUSH0 REVERT JUMPDEST ADD MLOAD SWAP1 POP DUP7 DUP1 PUSH2 0x69C JUMP JUMPDEST SWAP3 POP PUSH1 0x1 DUP7 ADD PUSH0 MSTORE PUSH1 0x20 PUSH0 KECCAK256 SWAP1 PUSH0 SWAP4 JUMPDEST PUSH1 0x1F NOT DUP5 AND DUP6 LT PUSH2 0x832 JUMPI PUSH1 0x1 SWAP5 POP DUP4 PUSH1 0x1F NOT DUP2 AND LT PUSH2 0x81A JUMPI JUMPDEST POP POP POP DUP2 SHL ADD PUSH1 0x1 DUP5 ADD SSTORE PUSH2 0x6B3 JUMP JUMPDEST ADD MLOAD PUSH0 NOT PUSH1 0xF8 DUP5 PUSH1 0x3 SHL AND SHR NOT AND SWAP1 SSTORE DUP7 DUP1 DUP1 PUSH2 0x80A JUMP JUMPDEST DUP2 DUP2 ADD MLOAD DUP4 SSTORE PUSH1 0x20 SWAP5 DUP6 ADD SWAP5 PUSH1 0x1 SWAP1 SWAP4 ADD SWAP3 SWAP1 SWAP2 ADD SWAP1 PUSH2 0x7EF JUMP JUMPDEST SWAP1 SWAP2 POP PUSH1 0x1 DUP7 ADD PUSH0 MSTORE PUSH1 0x20 PUSH0 KECCAK256 PUSH1 0x1F DUP5 ADD PUSH1 0x5 SHR DUP2 ADD SWAP2 PUSH1 0x20 DUP6 LT PUSH2 0x896 JUMPI JUMPDEST SWAP1 PUSH1 0x1F DUP6 SWAP5 SWAP4 SWAP3 ADD PUSH1 0x5 SHR ADD SWAP1 JUMPDEST DUP2 DUP2 LT PUSH2 0x888 JUMPI POP PUSH2 0x686 JUMP JUMPDEST PUSH0 DUP2 SSTORE DUP5 SWAP4 POP PUSH1 0x1 ADD PUSH2 0x87B JUMP JUMPDEST SWAP1 SWAP2 POP DUP2 SWAP1 PUSH2 0x86D JUMP JUMPDEST PUSH4 0x4E487B71 PUSH1 0xE0 SHL PUSH0 MSTORE PUSH1 0x41 PUSH1 0x4 MSTORE PUSH1 0x24 PUSH0 REVERT JUMPDEST POP CALLER PUSH0 MSTORE PUSH1 0x3 PUSH1 0x20 MSTORE PUSH1 0xFF PUSH1 0x40 PUSH0 KECCAK256 SLOAD AND PUSH2 0x599 JUMP JUMPDEST CALLVALUE PUSH2 0x148 JUMPI PUSH1 0x20 CALLDATASIZE PUSH1 0x3 NOT ADD SLT PUSH2 0x148 JUMPI PUSH1 0x4 CALLDATALOAD PUSH0 MSTORE PUSH1 0x1 PUSH1 0x20 MSTORE PUSH1 0x20 PUSH1 0xFF PUSH1 0x5 PUSH1 0x40 PUSH0 KECCAK256 ADD SLOAD AND PUSH1 0x40 MLOAD SWAP1 ISZERO ISZERO DUP2 MSTORE RETURN JUMPDEST CALLVALUE PUSH2 0x148 JUMPI PUSH1 0x20 CALLDATASIZE PUSH1 0x3 NOT ADD SLT PUSH2 0x148 JUMPI PUSH1 0x1 PUSH1 0x1 PUSH1 0xA0 SHL SUB PUSH2 0x91D PUSH2 0x10CB JUMP JUMPDEST AND PUSH0 MSTORE PUSH1 0x3 PUSH1 0x20 MSTORE PUSH1 0x20 PUSH1 0xFF PUSH1 0x40 PUSH0 KECCAK256 SLOAD AND PUSH1 0x40 MLOAD SWAP1 ISZERO ISZERO DUP2 MSTORE RETURN JUMPDEST CALLVALUE PUSH2 0x148 JUMPI PUSH1 0x20 CALLDATASIZE PUSH1 0x3 NOT ADD SLT PUSH2 0x148 JUMPI PUSH1 0x4 CALLDATALOAD PUSH0 MSTORE PUSH1 0x1 PUSH1 0x20 MSTORE PUSH1 0x40 PUSH0 KECCAK256 PUSH1 0x40 MLOAD PUSH2 0x964 DUP2 PUSH2 0xF93 JUMP JUMPDEST DUP2 SLOAD DUP2 MSTORE PUSH2 0x974 PUSH1 0x1 DUP4 ADD PUSH2 0xFD1 JUMP JUMPDEST SWAP2 PUSH1 0x20 DUP3 ADD SWAP3 DUP4 MSTORE PUSH1 0x2 DUP2 ADD SLOAD SWAP1 PUSH1 0x40 DUP4 ADD SWAP3 PUSH2 0x994 PUSH1 0xFF DUP5 AND DUP6 PUSH2 0x10E1 JUMP JUMPDEST PUSH2 0x9A8 PUSH1 0xFF PUSH1 0x60 DUP4 ADD SWAP5 PUSH1 0x8 SHR AND DUP5 PUSH2 0x10ED JUMP JUMPDEST PUSH1 0x3 DUP3 ADD SLOAD SWAP5 PUSH1 0x80 DUP3 ADD SWAP6 DUP7 MSTORE PUSH1 0xC0 PUSH1 0xFF PUSH1 0x5 PUSH1 0x4 DUP7 ADD SLOAD SWAP6 PUSH1 0xA0 DUP7 ADD SWAP7 DUP8 MSTORE ADD SLOAD AND SWAP3 ADD SWAP2 ISZERO ISZERO DUP3 MSTORE MLOAD SWAP4 MLOAD SWAP3 PUSH1 0x8 DUP5 LT ISZERO PUSH2 0x7C0 JUMPI MLOAD SWAP2 PUSH1 0xC DUP4 LT ISZERO PUSH2 0x7C0 JUMPI PUSH2 0xA25 PUSH2 0xA10 SWAP7 MLOAD SWAP2 MLOAD SWAP3 MLOAD ISZERO ISZERO SWAP4 PUSH2 0xA1B PUSH1 0x40 MLOAD SWAP9 DUP10 SWAP9 PUSH1 0xC0 DUP11 MSTORE PUSH1 0xC0 DUP11 ADD SWAP1 PUSH2 0x1073 JUMP JUMPDEST SWAP7 PUSH1 0x20 DUP10 ADD SWAP1 PUSH2 0x10B1 JUMP JUMPDEST PUSH1 0x40 DUP8 ADD SWAP1 PUSH2 0x10BE JUMP JUMPDEST PUSH1 0x60 DUP6 ADD MSTORE PUSH1 0x80 DUP5 ADD MSTORE PUSH1 0xA0 DUP4 ADD MSTORE SUB SWAP1 RETURN JUMPDEST CALLVALUE PUSH2 0x148 JUMPI PUSH1 0x40 CALLDATASIZE PUSH1 0x3 NOT ADD SLT PUSH2 0x148 JUMPI PUSH2 0xA51 PUSH2 0x10CB JUMP JUMPDEST PUSH1 0x24 CALLDATALOAD SWAP1 DUP2 ISZERO ISZERO SWAP1 DUP2 DUP4 SUB PUSH2 0x148 JUMPI PUSH2 0xA68 PUSH2 0x119E JUMP JUMPDEST PUSH1 0x1 PUSH1 0x1 PUSH1 0xA0 SHL SUB AND SWAP2 DUP3 ISZERO PUSH2 0xAC5 JUMPI PUSH32 0x1EFF62A53441C7D0125C22F2A9A324E206B34EFA41E19469D7EFB9BB703D21A3 SWAP2 PUSH2 0xABC PUSH1 0x20 SWAP3 DUP6 PUSH0 MSTORE PUSH1 0x3 DUP5 MSTORE PUSH1 0x40 PUSH0 KECCAK256 SWAP1 PUSH1 0xFF DUP1 NOT DUP4 SLOAD AND SWAP2 ISZERO ISZERO AND OR SWAP1 SSTORE JUMP JUMPDEST PUSH1 0x40 MLOAD SWAP1 DUP2 MSTORE LOG2 STOP JUMPDEST PUSH1 0x40 MLOAD PUSH4 0xD92E233D PUSH1 0xE0 SHL DUP2 MSTORE PUSH1 0x4 SWAP1 REVERT JUMPDEST CALLVALUE PUSH2 0x148 JUMPI PUSH1 0x20 CALLDATASIZE PUSH1 0x3 NOT ADD SLT PUSH2 0x148 JUMPI PUSH1 0x4 CALLDATALOAD PUSH0 MSTORE PUSH1 0x1 PUSH1 0x20 MSTORE PUSH1 0x40 PUSH0 KECCAK256 DUP1 SLOAD PUSH2 0xB04 PUSH1 0x1 DUP4 ADD PUSH2 0xFD1 JUMP JUMPDEST SWAP2 PUSH1 0x2 DUP2 ADD SLOAD SWAP1 PUSH1 0x3 DUP2 ADD SLOAD SWAP1 PUSH1 0xFF PUSH1 0x5 PUSH1 0x4 DUP4 ADD SLOAD SWAP3 ADD SLOAD AND SWAP2 PUSH2 0xB5F PUSH2 0xB3E PUSH1 0x40 MLOAD SWAP8 DUP9 SWAP8 DUP9 MSTORE PUSH1 0xE0 PUSH1 0x20 DUP10 ADD MSTORE PUSH1 0xE0 DUP9 ADD SWAP1 PUSH2 0x1073 JUMP JUMPDEST SWAP5 PUSH2 0xB4F PUSH1 0x40 DUP9 ADD PUSH1 0xFF DUP4 AND PUSH2 0x10B1 JUMP JUMPDEST PUSH1 0xFF PUSH1 0x60 DUP9 ADD SWAP2 PUSH1 0x8 SHR AND PUSH2 0x10BE JUMP JUMPDEST PUSH1 0x80 DUP6 ADD MSTORE PUSH1 0xA0 DUP5 ADD MSTORE ISZERO ISZERO PUSH1 0xC0 DUP4 ADD MSTORE SUB SWAP1 RETURN JUMPDEST CALLVALUE PUSH2 0x148 JUMPI PUSH1 0x20 CALLDATASIZE PUSH1 0x3 NOT ADD SLT PUSH2 0x148 JUMPI PUSH1 0x4 CALLDATALOAD PUSH0 MSTORE PUSH1 0x1 PUSH1 0x20 MSTORE PUSH1 0x20 PUSH1 0x40 PUSH0 KECCAK256 SLOAD ISZERO ISZERO PUSH1 0x40 MLOAD SWAP1 DUP2 MSTORE RETURN JUMPDEST CALLVALUE PUSH2 0x148 JUMPI PUSH2 0xBAE CALLDATASIZE PUSH2 0xF28 JUMP JUMPDEST SWAP1 PUSH0 PUSH2 0x240 PUSH1 0x40 MLOAD PUSH2 0xBBF DUP2 PUSH2 0xF76 JUMP JUMPDEST DUP3 DUP2 MSTORE DUP3 PUSH1 0x20 DUP3 ADD MSTORE DUP3 PUSH1 0x40 DUP3 ADD MSTORE DUP3 PUSH1 0x60 DUP3 ADD MSTORE DUP3 PUSH1 0x80 DUP3 ADD MSTORE DUP3 PUSH1 0xA0 DUP3 ADD MSTORE DUP3 PUSH1 0xC0 DUP3 ADD MSTORE DUP3 PUSH1 0xE0 DUP3 ADD MSTORE DUP3 PUSH2 0x100 DUP3 ADD MSTORE DUP3 PUSH2 0x120 DUP3 ADD MSTORE DUP3 PUSH2 0x140 DUP3 ADD MSTORE DUP3 PUSH2 0x160 DUP3 ADD MSTORE DUP3 PUSH2 0x180 DUP3 ADD MSTORE DUP3 PUSH2 0x1A0 DUP3 ADD MSTORE DUP3 PUSH2 0x1C0 DUP3 ADD MSTORE DUP3 PUSH2 0x1E0 DUP3 ADD MSTORE DUP3 PUSH2 0x200 DUP3 ADD MSTORE DUP3 PUSH2 0x220 DUP3 ADD MSTORE ADD MSTORE PUSH0 MSTORE PUSH1 0x2 PUSH1 0x20 MSTORE PUSH1 0x40 PUSH0 KECCAK256 SWAP1 PUSH0 MSTORE PUSH1 0x20 MSTORE PUSH2 0x260 PUSH1 0x40 PUSH0 KECCAK256 PUSH2 0x240 PUSH1 0x40 MLOAD PUSH2 0xC5B DUP2 PUSH2 0xF76 JUMP JUMPDEST PUSH1 0x12 DUP4 SLOAD SWAP4 DUP5 DUP4 MSTORE PUSH1 0x1 DUP2 ADD SLOAD PUSH1 0x20 DUP5 ADD MSTORE PUSH1 0x2 DUP2 ADD SLOAD PUSH1 0x40 DUP5 ADD MSTORE PUSH1 0x3 DUP2 ADD SLOAD PUSH1 0x60 DUP5 ADD MSTORE PUSH1 0x4 DUP2 ADD SLOAD PUSH1 0x80 DUP5 ADD MSTORE PUSH1 0x5 DUP2 ADD SLOAD PUSH1 0xA0 DUP5 ADD MSTORE PUSH1 0x6 DUP2 ADD SLOAD PUSH1 0xC0 DUP5 ADD MSTORE PUSH1 0x7 DUP2 ADD SLOAD PUSH1 0xE0 DUP5 ADD MSTORE PUSH1 0x8 DUP2 ADD SLOAD PUSH2 0x100 DUP5 ADD MSTORE PUSH1 0x9 DUP2 ADD SLOAD PUSH2 0x120 DUP5 ADD MSTORE PUSH1 0xA DUP2 ADD SLOAD PUSH2 0x140 DUP5 ADD MSTORE PUSH1 0xB DUP2 ADD SLOAD PUSH2 0x160 DUP5 ADD MSTORE PUSH1 0xC DUP2 ADD SLOAD PUSH2 0x180 DUP5 ADD MSTORE PUSH1 0xD DUP2 ADD SLOAD PUSH2 0x1A0 DUP5 ADD MSTORE PUSH1 0xE DUP2 ADD SLOAD PUSH2 0x1C0 DUP5 ADD MSTORE PUSH1 0xF DUP2 ADD SLOAD PUSH2 0x1E0 DUP5 ADD MSTORE PUSH1 0x10 DUP2 ADD SLOAD PUSH2 0x200 DUP5 ADD MSTORE PUSH1 0x11 DUP2 ADD SLOAD PUSH2 0x220 DUP5 ADD MSTORE ADD SLOAD DUP3 DUP3 ADD MSTORE PUSH1 0x40 MLOAD SWAP3 DUP4 MSTORE PUSH1 0x20 DUP2 ADD MLOAD PUSH1 0x20 DUP5 ADD MSTORE PUSH1 0x40 DUP2 ADD MLOAD PUSH1 0x40 DUP5 ADD MSTORE PUSH1 0x60 DUP2 ADD MLOAD PUSH1 0x60 DUP5 ADD MSTORE PUSH1 0x80 DUP2 ADD MLOAD PUSH1 0x80 DUP5 ADD MSTORE PUSH1 0xA0 DUP2 ADD MLOAD PUSH1 0xA0 DUP5 ADD MSTORE PUSH1 0xC0 DUP2 ADD MLOAD PUSH1 0xC0 DUP5 ADD MSTORE PUSH1 0xE0 DUP2 ADD MLOAD PUSH1 0xE0 DUP5 ADD MSTORE PUSH2 0x100 DUP2 ADD MLOAD PUSH2 0x100 DUP5 ADD MSTORE PUSH2 0x120 DUP2 ADD MLOAD PUSH2 0x120 DUP5 ADD MSTORE PUSH2 0x140 DUP2 ADD MLOAD PUSH2 0x140 DUP5 ADD MSTORE PUSH2 0x160 DUP2 ADD MLOAD PUSH2 0x160 DUP5 ADD MSTORE PUSH2 0x180 DUP2 ADD MLOAD PUSH2 0x180 DUP5 ADD MSTORE PUSH2 0x1A0 DUP2 ADD MLOAD PUSH2 0x1A0 DUP5 ADD MSTORE PUSH2 0x1C0 DUP2 ADD MLOAD PUSH2 0x1C0 DUP5 ADD MSTORE PUSH2 0x1E0 DUP2 ADD MLOAD PUSH2 0x1E0 DUP5 ADD MSTORE PUSH2 0x200 DUP2 ADD MLOAD PUSH2 0x200 DUP5 ADD MSTORE PUSH2 0x220 DUP2 ADD MLOAD PUSH2 0x220 DUP5 ADD MSTORE ADD MLOAD PUSH2 0x240 DUP3 ADD MSTORE RETURN JUMPDEST CALLVALUE PUSH2 0x148 JUMPI PUSH2 0xDF9 CALLDATASIZE PUSH2 0xF28 JUMP JUMPDEST SWAP1 PUSH0 MSTORE PUSH1 0x2 PUSH1 0x20 MSTORE PUSH1 0x40 PUSH0 KECCAK256 SWAP1 PUSH0 MSTORE PUSH1 0x20 MSTORE PUSH1 0x40 PUSH0 KECCAK256 PUSH1 0xC0 MSTORE PUSH1 0xC0 MLOAD SLOAD PUSH1 0xA0 MSTORE PUSH1 0x1 PUSH1 0xC0 MLOAD ADD SLOAD PUSH1 0x2 PUSH1 0xC0 MLOAD ADD SLOAD PUSH1 0x3 PUSH1 0xC0 MLOAD ADD SLOAD PUSH1 0x4 PUSH1 0xC0 MLOAD ADD SLOAD PUSH1 0x5 PUSH1 0xC0 MLOAD ADD SLOAD PUSH1 0x6 PUSH1 0xC0 MLOAD ADD SLOAD PUSH1 0x7 PUSH1 0xC0 MLOAD ADD SLOAD PUSH1 0x8 PUSH1 0xC0 MLOAD ADD SLOAD PUSH1 0x9 PUSH1 0xC0 MLOAD ADD SLOAD PUSH1 0xA PUSH1 0xC0 MLOAD ADD SLOAD SWAP2 PUSH1 0xB PUSH1 0xC0 MLOAD ADD SLOAD SWAP4 PUSH1 0xC PUSH1 0xC0 MLOAD ADD SLOAD SWAP6 PUSH1 0xD PUSH1 0xC0 MLOAD ADD SLOAD SWAP8 PUSH1 0xE PUSH1 0xC0 MLOAD ADD SLOAD SWAP10 PUSH1 0xF PUSH1 0xC0 MLOAD ADD SLOAD SWAP12 PUSH1 0x10 PUSH1 0xC0 MLOAD ADD SLOAD SWAP14 PUSH1 0x11 PUSH1 0xC0 MLOAD ADD SLOAD PUSH1 0x80 MSTORE PUSH1 0x12 PUSH1 0xC0 MLOAD ADD SLOAD SWAP16 PUSH1 0xA0 MLOAD PUSH1 0xE0 MSTORE PUSH1 0x20 PUSH1 0xE0 ADD MSTORE PUSH1 0x40 PUSH1 0xE0 ADD MSTORE PUSH1 0x60 PUSH1 0xE0 ADD MSTORE PUSH1 0x80 PUSH1 0xE0 ADD MSTORE PUSH1 0xA0 PUSH1 0xE0 ADD MSTORE PUSH1 0xC0 PUSH1 0xE0 ADD MSTORE PUSH1 0xE0 DUP1 ADD MSTORE PUSH2 0x100 PUSH1 0xE0 ADD MSTORE PUSH2 0x120 PUSH1 0xE0 ADD MSTORE PUSH2 0x140 PUSH1 0xE0 ADD MSTORE PUSH2 0x160 PUSH1 0xE0 ADD MSTORE PUSH2 0x180 PUSH1 0xE0 ADD MSTORE PUSH2 0x1A0 PUSH1 0xE0 ADD MSTORE PUSH2 0x1C0 PUSH1 0xE0 ADD MSTORE PUSH2 0x1E0 PUSH1 0xE0 ADD MSTORE PUSH2 0x200 PUSH1 0xE0 ADD MSTORE PUSH1 0x80 MLOAD PUSH2 0x220 PUSH1 0xE0 ADD MSTORE PUSH2 0x240 PUSH1 0xE0 ADD MSTORE PUSH2 0x260 PUSH1 0xE0 RETURN JUMPDEST PUSH1 0x40 SWAP1 PUSH1 0x3 NOT ADD SLT PUSH2 0x148 JUMPI PUSH1 0x4 CALLDATALOAD SWAP1 PUSH1 0x24 CALLDATALOAD SWAP1 JUMP JUMPDEST SWAP1 PUSH1 0x1 DUP3 DUP2 SHR SWAP3 AND DUP1 ISZERO PUSH2 0xF6C JUMPI JUMPDEST PUSH1 0x20 DUP4 LT EQ PUSH2 0xF58 JUMPI JUMP JUMPDEST PUSH4 0x4E487B71 PUSH1 0xE0 SHL PUSH0 MSTORE PUSH1 0x22 PUSH1 0x4 MSTORE PUSH1 0x24 PUSH0 REVERT JUMPDEST SWAP2 PUSH1 0x7F AND SWAP2 PUSH2 0xF4D JUMP JUMPDEST PUSH2 0x260 DUP2 ADD SWAP1 DUP2 LT PUSH8 0xFFFFFFFFFFFFFFFF DUP3 GT OR PUSH2 0x8A0 JUMPI PUSH1 0x40 MSTORE JUMP JUMPDEST PUSH1 0xE0 DUP2 ADD SWAP1 DUP2 LT PUSH8 0xFFFFFFFFFFFFFFFF DUP3 GT OR PUSH2 0x8A0 JUMPI PUSH1 0x40 MSTORE JUMP JUMPDEST SWAP1 PUSH1 0x1F DUP1 NOT SWAP2 ADD AND DUP2 ADD SWAP1 DUP2 LT PUSH8 0xFFFFFFFFFFFFFFFF DUP3 GT OR PUSH2 0x8A0 JUMPI PUSH1 0x40 MSTORE JUMP JUMPDEST SWAP1 PUSH1 0x40 MLOAD SWAP2 DUP3 PUSH0 DUP3 SLOAD PUSH2 0xFE3 DUP2 PUSH2 0xF3E JUMP JUMPDEST SWAP1 DUP2 DUP5 MSTORE PUSH1 0x20 SWAP5 PUSH1 0x1 SWAP2 PUSH1 0x1 DUP2 AND SWAP1 DUP2 PUSH0 EQ PUSH2 0x1051 JUMPI POP PUSH1 0x1 EQ PUSH2 0x1013 JUMPI JUMPDEST POP POP POP PUSH2 0x1011 SWAP3 POP SUB DUP4 PUSH2 0xFAF JUMP JUMPDEST JUMP JUMPDEST PUSH0 SWAP1 DUP2 MSTORE DUP6 DUP2 KECCAK256 SWAP6 SWAP4 POP SWAP2 SWAP1 JUMPDEST DUP2 DUP4 LT PUSH2 0x1039 JUMPI POP POP PUSH2 0x1011 SWAP4 POP DUP3 ADD ADD PUSH0 DUP1 DUP1 PUSH2 0x1002 JUMP JUMPDEST DUP6 SLOAD DUP9 DUP5 ADD DUP6 ADD MSTORE SWAP5 DUP6 ADD SWAP5 DUP8 SWAP5 POP SWAP2 DUP4 ADD SWAP2 PUSH2 0x1020 JUMP JUMPDEST SWAP3 POP POP POP PUSH2 0x1011 SWAP5 SWAP3 POP PUSH1 0xFF NOT AND DUP3 DUP5 ADD MSTORE ISZERO ISZERO PUSH1 0x5 SHL DUP3 ADD ADD PUSH0 DUP1 DUP1 PUSH2 0x1002 JUMP JUMPDEST SWAP2 SWAP1 DUP3 MLOAD SWAP3 DUP4 DUP3 MSTORE PUSH0 JUMPDEST DUP5 DUP2 LT PUSH2 0x109D JUMPI POP POP DUP3 PUSH0 PUSH1 0x20 DUP1 SWAP5 SWAP6 DUP5 ADD ADD MSTORE PUSH1 0x1F DUP1 NOT SWAP2 ADD AND ADD ADD SWAP1 JUMP JUMPDEST PUSH1 0x20 DUP2 DUP4 ADD DUP2 ADD MLOAD DUP5 DUP4 ADD DUP3 ADD MSTORE ADD PUSH2 0x107D JUMP JUMPDEST SWAP1 PUSH1 0x8 DUP3 LT ISZERO PUSH2 0x7C0 JUMPI MSTORE JUMP JUMPDEST SWAP1 PUSH1 0xC DUP3 LT ISZERO PUSH2 0x7C0 JUMPI MSTORE JUMP JUMPDEST PUSH1 0x4 CALLDATALOAD SWAP1 PUSH1 0x1 PUSH1 0x1 PUSH1 0xA0 SHL SUB DUP3 AND DUP3 SUB PUSH2 0x148 JUMPI JUMP JUMPDEST PUSH1 0x8 DUP3 LT ISZERO PUSH2 0x7C0 JUMPI MSTORE JUMP JUMPDEST PUSH1 0xC DUP3 LT ISZERO PUSH2 0x7C0 JUMPI MSTORE JUMP JUMPDEST PUSH0 MSTORE PUSH1 0x1 PUSH1 0x20 MSTORE PUSH1 0x40 PUSH0 KECCAK256 PUSH1 0x40 MLOAD PUSH2 0x1110 DUP2 PUSH2 0xF93 JUMP JUMPDEST DUP2 SLOAD DUP2 MSTORE PUSH2 0x1120 PUSH1 0x1 DUP4 ADD PUSH2 0xFD1 JUMP JUMPDEST PUSH1 0x20 DUP3 ADD MSTORE PUSH2 0x113E PUSH1 0xFF PUSH1 0x2 DUP5 ADD SLOAD PUSH2 0x2F4 DUP3 DUP3 AND PUSH1 0x40 DUP7 ADD PUSH2 0x10E1 JUMP JUMPDEST PUSH1 0x3 DUP3 ADD SLOAD PUSH1 0x80 DUP3 ADD MSTORE PUSH1 0xFF PUSH1 0x5 PUSH1 0x4 DUP5 ADD SLOAD SWAP4 DUP5 PUSH1 0xA0 DUP6 ADD MSTORE ADD SLOAD AND ISZERO SWAP1 DUP2 ISZERO PUSH1 0xC0 DUP3 ADD MSTORE MLOAD ISZERO PUSH2 0x1197 JUMPI PUSH2 0x1191 JUMPI DUP2 ISZERO SWAP2 DUP3 ISZERO PUSH2 0x1187 JUMPI JUMPDEST POP POP PUSH2 0x1183 JUMPI PUSH1 0x1 SWAP1 JUMP JUMPDEST PUSH0 SWAP1 JUMP JUMPDEST GT SWAP1 POP PUSH0 DUP1 PUSH2 0x1178 JUMP JUMPDEST POP POP PUSH0 SWAP1 JUMP JUMPDEST POP POP POP PUSH0 SWAP1 JUMP JUMPDEST PUSH0 SLOAD PUSH1 0x1 PUSH1 0x1 PUSH1 0xA0 SHL SUB AND CALLER SUB PUSH2 0x11B1 JUMPI JUMP JUMPDEST PUSH1 0x40 MLOAD PUSH4 0x118CDAA7 PUSH1 0xE0 SHL DUP2 MSTORE CALLER PUSH1 0x4 DUP3 ADD MSTORE PUSH1 0x24 SWAP1 REVERT INVALID LOG2 PUSH5 0x6970667358 0x22 SLT KECCAK256 DUP8 BLOBHASH TLOAD DUP6 0xBE 0x29 CREATE2 CALLDATALOAD GASLIMIT 0xD6 PREVRANDAO 0xBA NOT PUSH12 0x6F1D04B480238FF5A31B1E88 MOD MLOAD REVERT 0xB3 PUSH10 0x4764736F6C6343000818 STOP CALLER "},"methodIdentifiers":{"authorizedCallers(address)":"536fff6c","getMateriaBonuses(uint256,uint256)":"1a09c5e9","getMateriaDefinition(uint256)":"edccb5fc","getMateriaMeta(uint256)":"4f437925","isMateriaEnabled(uint256)":"54ab9def","isMateriaUsable(uint256,uint256)":"7755e783","materiaBonusesOf(uint256,uint256)":"01edfeec","materiaDefinitionOf(uint256)":"303985c7","materiaExists(uint256)":"1ea388d7","owner()":"8da5cb5b","renounceOwnership()":"715018a6","setAuthorizedCaller(address,bool)":"454bbd29","setMateriaBonuses(uint256,uint256,(int256,int256,int256,int256,int256,int256,int256,int256,int256,int256,int256,int256,int256,int256,int256,int256,int256,int256,int256))":"c4cc79e6","setMateriaDefinition(uint256,string,uint8,uint8,uint256,uint256,bool)":"65381295","transferOwnership(address)":"f2fde38b"}}}}}