{"project/contracts/crafting/CityBlueprints.sol":{"CityBlueprints":{"abi":[{"inputs":[{"internalType":"address","name":"initialOwner","type":"address"},{"internalType":"string","name":"initialURI","type":"string"}],"stateMutability":"nonpayable","type":"constructor"},{"inputs":[{"internalType":"address","name":"sender","type":"address"},{"internalType":"uint256","name":"balance","type":"uint256"},{"internalType":"uint256","name":"needed","type":"uint256"},{"internalType":"uint256","name":"tokenId","type":"uint256"}],"name":"ERC1155InsufficientBalance","type":"error"},{"inputs":[{"internalType":"address","name":"approver","type":"address"}],"name":"ERC1155InvalidApprover","type":"error"},{"inputs":[{"internalType":"uint256","name":"idsLength","type":"uint256"},{"internalType":"uint256","name":"valuesLength","type":"uint256"}],"name":"ERC1155InvalidArrayLength","type":"error"},{"inputs":[{"internalType":"address","name":"operator","type":"address"}],"name":"ERC1155InvalidOperator","type":"error"},{"inputs":[{"internalType":"address","name":"receiver","type":"address"}],"name":"ERC1155InvalidReceiver","type":"error"},{"inputs":[{"internalType":"address","name":"sender","type":"address"}],"name":"ERC1155InvalidSender","type":"error"},{"inputs":[{"internalType":"address","name":"operator","type":"address"},{"internalType":"address","name":"owner","type":"address"}],"name":"ERC1155MissingApprovalForAll","type":"error"},{"inputs":[],"name":"InvalidValue","type":"error"},{"inputs":[],"name":"NotAuthorized","type":"error"},{"inputs":[{"internalType":"address","name":"owner","type":"address"}],"name":"OwnableInvalidOwner","type":"error"},{"inputs":[{"internalType":"address","name":"account","type":"address"}],"name":"OwnableUnauthorizedAccount","type":"error"},{"inputs":[],"name":"ZeroAddress","type":"error"},{"anonymous":false,"inputs":[{"indexed":true,"internalType":"address","name":"account","type":"address"},{"indexed":true,"internalType":"address","name":"operator","type":"address"},{"indexed":false,"internalType":"bool","name":"approved","type":"bool"}],"name":"ApprovalForAll","type":"event"},{"anonymous":false,"inputs":[{"indexed":true,"internalType":"address","name":"consumer","type":"address"},{"indexed":false,"internalType":"bool","name":"allowed","type":"bool"}],"name":"AuthorizedConsumerSet","type":"event"},{"anonymous":false,"inputs":[{"indexed":true,"internalType":"address","name":"minter","type":"address"},{"indexed":false,"internalType":"bool","name":"allowed","type":"bool"}],"name":"AuthorizedMinterSet","type":"event"},{"anonymous":false,"inputs":[{"indexed":false,"internalType":"string","name":"newBaseMetadataURI","type":"string"}],"name":"BaseMetadataURISet","type":"event"},{"anonymous":false,"inputs":[{"indexed":true,"internalType":"address","name":"from","type":"address"},{"indexed":true,"internalType":"uint256","name":"blueprintId","type":"uint256"},{"indexed":false,"internalType":"uint256","name":"amount","type":"uint256"}],"name":"BlueprintBurned","type":"event"},{"anonymous":false,"inputs":[{"indexed":true,"internalType":"uint256","name":"blueprintId","type":"uint256"},{"indexed":false,"internalType":"string","name":"name","type":"string"},{"indexed":false,"internalType":"uint256","name":"rarityTier","type":"uint256"},{"indexed":false,"internalType":"uint256","name":"techTier","type":"uint256"},{"indexed":false,"internalType":"uint256","name":"factionLock","type":"uint256"},{"indexed":false,"internalType":"uint256","name":"districtLock","type":"uint256"},{"indexed":false,"internalType":"bool","name":"enabled","type":"bool"}],"name":"BlueprintDefinitionSet","type":"event"},{"anonymous":false,"inputs":[{"indexed":true,"internalType":"address","name":"to","type":"address"},{"indexed":true,"internalType":"uint256","name":"blueprintId","type":"uint256"},{"indexed":false,"internalType":"uint256","name":"amount","type":"uint256"}],"name":"BlueprintMinted","type":"event"},{"anonymous":false,"inputs":[{"indexed":true,"internalType":"address","name":"previousOwner","type":"address"},{"indexed":true,"internalType":"address","name":"newOwner","type":"address"}],"name":"OwnershipTransferred","type":"event"},{"anonymous":false,"inputs":[{"indexed":true,"internalType":"address","name":"operator","type":"address"},{"indexed":true,"internalType":"address","name":"from","type":"address"},{"indexed":true,"internalType":"address","name":"to","type":"address"},{"indexed":false,"internalType":"uint256[]","name":"ids","type":"uint256[]"},{"indexed":false,"internalType":"uint256[]","name":"values","type":"uint256[]"}],"name":"TransferBatch","type":"event"},{"anonymous":false,"inputs":[{"indexed":true,"internalType":"address","name":"operator","type":"address"},{"indexed":true,"internalType":"address","name":"from","type":"address"},{"indexed":true,"internalType":"address","name":"to","type":"address"},{"indexed":false,"internalType":"uint256","name":"id","type":"uint256"},{"indexed":false,"internalType":"uint256","name":"value","type":"uint256"}],"name":"TransferSingle","type":"event"},{"anonymous":false,"inputs":[{"indexed":false,"internalType":"string","name":"value","type":"string"},{"indexed":true,"internalType":"uint256","name":"id","type":"uint256"}],"name":"URI","type":"event"},{"inputs":[{"internalType":"address","name":"","type":"address"}],"name":"authorizedConsumers","outputs":[{"internalType":"bool","name":"","type":"bool"}],"stateMutability":"view","type":"function"},{"inputs":[{"internalType":"address","name":"","type":"address"}],"name":"authorizedMinters","outputs":[{"internalType":"bool","name":"","type":"bool"}],"stateMutability":"view","type":"function"},{"inputs":[{"internalType":"address","name":"account","type":"address"},{"internalType":"uint256","name":"id","type":"uint256"}],"name":"balanceOf","outputs":[{"internalType":"uint256","name":"","type":"uint256"}],"stateMutability":"view","type":"function"},{"inputs":[{"internalType":"address[]","name":"accounts","type":"address[]"},{"internalType":"uint256[]","name":"ids","type":"uint256[]"}],"name":"balanceOfBatch","outputs":[{"internalType":"uint256[]","name":"","type":"uint256[]"}],"stateMutability":"view","type":"function"},{"inputs":[],"name":"baseMetadataURI","outputs":[{"internalType":"string","name":"","type":"string"}],"stateMutability":"view","type":"function"},{"inputs":[{"internalType":"uint256","name":"","type":"uint256"}],"name":"blueprintDefinitionOf","outputs":[{"internalType":"uint256","name":"id","type":"uint256"},{"internalType":"string","name":"name","type":"string"},{"internalType":"uint256","name":"rarityTier","type":"uint256"},{"internalType":"uint256","name":"techTier","type":"uint256"},{"internalType":"uint256","name":"factionLock","type":"uint256"},{"internalType":"uint256","name":"districtLock","type":"uint256"},{"internalType":"bool","name":"enabled","type":"bool"}],"stateMutability":"view","type":"function"},{"inputs":[{"internalType":"uint256","name":"blueprintId","type":"uint256"}],"name":"blueprintExists","outputs":[{"internalType":"bool","name":"","type":"bool"}],"stateMutability":"view","type":"function"},{"inputs":[{"internalType":"address","name":"from","type":"address"},{"internalType":"uint256","name":"blueprintId","type":"uint256"},{"internalType":"uint256","name":"amount","type":"uint256"}],"name":"burnBlueprint","outputs":[],"stateMutability":"nonpayable","type":"function"},{"inputs":[{"internalType":"uint256","name":"blueprintId","type":"uint256"}],"name":"getBlueprintMeta","outputs":[{"internalType":"string","name":"name","type":"string"},{"internalType":"uint256","name":"rarityTier","type":"uint256"},{"internalType":"uint256","name":"techTier","type":"uint256"},{"internalType":"uint256","name":"factionLock","type":"uint256"},{"internalType":"uint256","name":"districtLock","type":"uint256"},{"internalType":"bool","name":"enabled","type":"bool"}],"stateMutability":"view","type":"function"},{"inputs":[{"internalType":"address","name":"account","type":"address"},{"internalType":"address","name":"operator","type":"address"}],"name":"isApprovedForAll","outputs":[{"internalType":"bool","name":"","type":"bool"}],"stateMutability":"view","type":"function"},{"inputs":[{"internalType":"uint256","name":"blueprintId","type":"uint256"}],"name":"isBlueprintEnabled","outputs":[{"internalType":"bool","name":"","type":"bool"}],"stateMutability":"view","type":"function"},{"inputs":[{"internalType":"address","name":"to","type":"address"},{"internalType":"uint256","name":"blueprintId","type":"uint256"},{"internalType":"uint256","name":"amount","type":"uint256"}],"name":"mintBlueprint","outputs":[],"stateMutability":"nonpayable","type":"function"},{"inputs":[],"name":"owner","outputs":[{"internalType":"address","name":"","type":"address"}],"stateMutability":"view","type":"function"},{"inputs":[],"name":"renounceOwnership","outputs":[],"stateMutability":"nonpayable","type":"function"},{"inputs":[{"internalType":"address","name":"from","type":"address"},{"internalType":"address","name":"to","type":"address"},{"internalType":"uint256[]","name":"ids","type":"uint256[]"},{"internalType":"uint256[]","name":"values","type":"uint256[]"},{"internalType":"bytes","name":"data","type":"bytes"}],"name":"safeBatchTransferFrom","outputs":[],"stateMutability":"nonpayable","type":"function"},{"inputs":[{"internalType":"address","name":"from","type":"address"},{"internalType":"address","name":"to","type":"address"},{"internalType":"uint256","name":"id","type":"uint256"},{"internalType":"uint256","name":"value","type":"uint256"},{"internalType":"bytes","name":"data","type":"bytes"}],"name":"safeTransferFrom","outputs":[],"stateMutability":"nonpayable","type":"function"},{"inputs":[{"internalType":"address","name":"operator","type":"address"},{"internalType":"bool","name":"approved","type":"bool"}],"name":"setApprovalForAll","outputs":[],"stateMutability":"nonpayable","type":"function"},{"inputs":[{"internalType":"address","name":"consumer","type":"address"},{"internalType":"bool","name":"allowed","type":"bool"}],"name":"setAuthorizedConsumer","outputs":[],"stateMutability":"nonpayable","type":"function"},{"inputs":[{"internalType":"address","name":"minter","type":"address"},{"internalType":"bool","name":"allowed","type":"bool"}],"name":"setAuthorizedMinter","outputs":[],"stateMutability":"nonpayable","type":"function"},{"inputs":[{"internalType":"string","name":"newBaseMetadataURI","type":"string"}],"name":"setBaseMetadataURI","outputs":[],"stateMutability":"nonpayable","type":"function"},{"inputs":[{"internalType":"uint256","name":"blueprintId","type":"uint256"},{"internalType":"string","name":"name","type":"string"},{"internalType":"uint256","name":"rarityTier","type":"uint256"},{"internalType":"uint256","name":"techTier","type":"uint256"},{"internalType":"uint256","name":"factionLock","type":"uint256"},{"internalType":"uint256","name":"districtLock","type":"uint256"},{"internalType":"bool","name":"enabled","type":"bool"}],"name":"setBlueprintDefinition","outputs":[],"stateMutability":"nonpayable","type":"function"},{"inputs":[{"internalType":"bytes4","name":"interfaceId","type":"bytes4"}],"name":"supportsInterface","outputs":[{"internalType":"bool","name":"","type":"bool"}],"stateMutability":"view","type":"function"},{"inputs":[{"internalType":"address","name":"newOwner","type":"address"}],"name":"transferOwnership","outputs":[],"stateMutability":"nonpayable","type":"function"},{"inputs":[{"internalType":"uint256","name":"blueprintId","type":"uint256"}],"name":"uri","outputs":[{"internalType":"string","name":"","type":"string"}],"stateMutability":"view","type":"function"}],"evm":{"bytecode":{"linkReferences":{},"object":"608060405234620003a25762002553803803806200001d81620003a6565b9283398101604082820312620003a25781516001600160a01b038082169391849003620003a2576020938483015160018060401b0393848211620003a2570193601f91818387011215620003a2578551958587116200028e57601f19966200008b85820189168a01620003a6565b93818552898284010111620003a25788915f5b8281106200038e575050905f91840101528151938585116200028e57600254946001958681811c9116801562000383575b8a8210146200036f5785811162000326575b508089868211600114620002c6575f91620002ba575b505f19600383901b1c191690861b176002555b8115620002a257600380546001600160a01b031981168417909155167f8be0079c531659141344cd1fd0a4f28419497f9722a3daafe3b4186f6b6457e05f80a380519384116200028e5760049586548481811c9116801562000283575b82821014620002705783811162000228575b5080928511600114620001c35750839450908392915f94620001b7575b50501b915f199060031b1c19161790555b6040516121869081620003cd8239f35b015192505f8062000196565b929484908116875f52845f20945f905b888383106200020d5750505010620001f4575b505050811b019055620001a7565b01515f1960f88460031b161c191690555f8080620001e6565b858701518855909601959485019487935090810190620001d3565b875f52815f208480880160051c82019284891062000266575b0160051c019085905b8281106200025a57505062000179565b5f81550185906200024a565b9250819262000241565b602288634e487b7160e01b5f525260245ffd5b90607f169062000167565b634e487b7160e01b5f52604160045260245ffd5b604051631e4fbdf760e01b81525f6004820152602490fd5b90508401515f620000f7565b898893169060025f528b5f20915f5b8d8282106200030f5750508311620002f6575b5050811b016002556200010a565b8601515f1960f88460031b161c191690555f80620002e8565b838a015185558b96909401939283019201620002d5565b60025f52895f208680840160051c8201928c851062000365575b0160051c019087905b82811062000359575050620000e1565b5f815501879062000349565b9250819262000340565b634e487b7160e01b5f52602260045260245ffd5b90607f1690620000cf565b81810184015186820185015283016200009e565b5f80fd5b6040519190601f01601f191682016001600160401b038111838210176200028e5760405256fe60806040526004361015610011575f80fd5b5f3560e01c8062fdd58e1461019357806301ffc9a71461018e57806307055840146101895780630e89341c1461018457806317dab0df1461017f5780631ffd6c781461017a5780632eb2c2d61461017557806341fe0f7114610170578063458cffbf1461016b5780634e1273f4146101665780634f9f27a11461016157806350be6a081461015c5780635b2bd79e14610157578063715018a6146101525780637e518ec81461014d5780638da5cb5b14610148578063a22cb46514610143578063aa2fe91b1461013e578063ae3c212514610139578063e985e9c514610134578063ed58bad81461012f578063f0ae79001461012a578063f242432a146101255763f2fde38b14610120575f80fd5b61139b565b611281565b6111d1565b61111d565b6110c1565b610fd1565b610f94565b610ee1565b610eb9565b610d63565b610cdb565b610c1e565b610b61565b610ad8565b610946565b6108d0565b610847565b610704565b610483565b61042d565b61033b565b6102a4565b610236565b6101dc565b600435906001600160a01b03821682036101ae57565b5f80fd5b602435906001600160a01b03821682036101ae57565b35906001600160a01b03821682036101ae57565b346101ae5760403660031901126101ae57602061021b6101fa610198565b6024355f525f835260405f209060018060a01b03165f5260205260405f2090565b54604051908152f35b6001600160e01b03198116036101ae57565b346101ae5760203660031901126101ae57602060043561025581610224565b63ffffffff60e01b16636cdb3d1360e11b8114908115610293575b8115610282575b506040519015158152f35b6301ffc9a760e01b1490505f610277565b6303a24d0760e21b81149150610270565b346101ae5760203660031901126101ae576001600160a01b036102c5610198565b165f526007602052602060ff60405f2054166040519015158152f35b5f5b8381106102f25750505f910152565b81810151838201526020016102e3565b9060209161031b815180928185528580860191016102e1565b601f01601f1916010190565b906020610338928181520190610302565b90565b346101ae576020806003193601126101ae5761035860043561185f565b604051905f9260045461036a81610a00565b9060019081811690811561040e57506001146103c5575b6103c1856103b5816103a76103968b8a611427565b64173539b7b760d91b815260050190565b03601f1981018352826105f1565b60405191829182610327565b0390f35b9091945060045f525f80516020612131833981519152905f915b8383106103fb57505050820190920191816103a7610396610381565b80548684018801529186019181016103df565b60ff1916868501525050801515028301019250816103a7610396610381565b346101ae5760203660031901126101ae576004355f526005602052602060405f20541515604051908152f35b60609060031901126101ae576004356001600160a01b03811681036101ae57906024359060443590565b346101ae5761049136610459565b6003549192916001600160a01b0390811633148015610571575b1561055f57821691821561054d57811561052e576104d96104d4855f52600560205260405f2090565b61143e565b805115908115610540575b5061052e57816105197f8b78e24f1320122542aa3f023b4af2153878495ddeea896299a9fa8b6b2ec0a3938661052994611902565b6040519081529081906020820190565b0390a3005b604051632a9ffab760e21b8152600490fd5b60c001511590505f6104e4565b60405163d92e233d60e01b8152600490fd5b60405163ea8e4eb560e01b8152600490fd5b50335f52600760205260ff60405f2054166104ab565b634e487b7160e01b5f52604160045260245ffd5b60e081019081106001600160401b038211176105b657604052565b610587565b602081019081106001600160401b038211176105b657604052565b604081019081106001600160401b038211176105b657604052565b90601f801991011681019081106001600160401b038211176105b657604052565b6040519061061f8261059b565b565b6001600160401b0381116105b65760051b60200190565b9080601f830112156101ae57602090823561065281610621565b9361066060405195866105f1565b81855260208086019260051b8201019283116101ae57602001905b828210610689575050505090565b8135815290830190830161067b565b6001600160401b0381116105b657601f01601f191660200190565b9291926106bf82610698565b916106cd60405193846105f1565b8294818452818301116101ae578281602093845f960137010152565b9080601f830112156101ae57816020610338933591016106b3565b346101ae5760a03660031901126101ae5761071d610198565b6107256101b2565b90604435916001600160401b03908184116101ae5761074960049436908601610638565b906064358381116101ae576107619036908701610638565b926084359081116101ae5761077990369087016106e9565b936001600160a01b03808216903382141580610806575b6107d9578316156107c257156107ac576107aa9550611bfc565b005b604051626a0d4560e21b81525f81880152602490fd5b604051632bfa23e760e11b81525f81890152602490fd5b6040805163711bec9160e11b815233818b019081526001600160a01b038616602082015290918291010390fd5b505f82815260016020908152604080832033845290915290205460ff1615610790565b6024359081151582036101ae57565b60c4359081151582036101ae57565b346101ae5760403660031901126101ae57610860610198565b610868610829565b90610871611a8e565b6001600160a01b031690811561054d5760207ffa648341f7c45a89a5ac85c79ba49a45167038f7e499f5c2d8fd43c124f30e4d91835f52600782526108c58160405f209060ff801983541691151516179055565b6040519015158152a2005b346101ae5760203660031901126101ae576004355f526005602052602060ff600660405f200154166040519015158152f35b9081518082526020808093019301915f5b828110610921575050505090565b835185529381019392810192600101610913565b906020610338928181520190610902565b346101ae5760403660031901126101ae576004356001600160401b038082116101ae57366023830112156101ae57816004013561098281610621565b9261099060405194856105f1565b8184526020916024602086019160051b830101913683116101ae57602401905b8282106109e957856024358681116101ae576103c1916109d76109dd923690600401610638565b906114c7565b60405191829182610935565b8380916109f5846101c8565b8152019101906109b0565b90600182811c92168015610a2e575b6020831014610a1a57565b634e487b7160e01b5f52602260045260245ffd5b91607f1691610a0f565b9060405191825f8254610a4a81610a00565b908184526020946001916001811690815f14610ab65750600114610a78575b50505061061f925003836105f1565b5f90815285812095935091905b818310610a9e57505061061f93508201015f8080610a69565b85548884018501529485019487945091830191610a85565b9250505061061f94925060ff191682840152151560051b8201015f8080610a69565b346101ae5760203660031901126101ae576004355f52600560205260405f208054610b0560018301610a38565b91600281015490600381015490600481015460ff600660058401549301541692610b41604051978897885260e0602089015260e0880190610302565b9460408701526060860152608085015260a0840152151560c08301520390f35b346101ae57610b6f36610459565b6003549192916001600160a01b0390811633148015610c08575b1561055f57821691821561054d57811561052e57610bb26104d4855f52600560205260405f2090565b805115908115610bfb575b5061052e5781610519610529927f5274c6aa575b276214a3605aa737d54549cae96d320f59da917537451ccf4e189487610bf5611584565b92611aba565b60c001511590505f610bbd565b50335f52600660205260ff60405f205416610b89565b346101ae575f3660031901126101ae576040515f600454610c3e81610a00565b80845290602090600190818116908115610cb15750600114610c6b575b6103c1856103b5818703826105f1565b60045f90815293505f805160206121318339815191525b838510610c9e575050505081016020016103b5826103c1610c5b565b8054868601840152938201938101610c82565b8695506103c1969350602092506103b594915060ff191682840152151560051b8201019293610c5b565b346101ae575f3660031901126101ae57610cf3611a8e565b600380546001600160a01b031981169091555f906001600160a01b03167f8be0079c531659141344cd1fd0a4f28419497f9722a3daafe3b4186f6b6457e08280a3005b9181601f840112156101ae578235916001600160401b0383116101ae57602083818601950101116101ae57565b346101ae576020806003193601126101ae576001600160401b036004358181116101ae57610d95903690600401610d36565b91610d9e611a8e565b82116105b657610db882610db3600454610a00565b611596565b5f92601f8311600114610e2a5750610e0782807f04b1dc5c136a3ce9fded8db0ce3d3366c58764ec3a8e4c2b9e52e4ddfe5ebbf7955f91610e1f575b508160011b915f199060031b1c19161790565b6004555b610e1a6040519283928361165f565b0390a1005b90508301355f610df4565b60045f52601f198316935f80516020612131833981519152915f905b868210610ea1575050837f04b1dc5c136a3ce9fded8db0ce3d3366c58764ec3a8e4c2b9e52e4ddfe5ebbf79510610e88575b5050600182811b01600455610e0b565b8201355f19600385901b60f8161c191690555f80610e78565b80600184958294958801358155019401920190610e46565b346101ae575f3660031901126101ae576003546040516001600160a01b039091168152602090f35b346101ae5760403660031901126101ae57610efa610198565b610f02610829565b6001600160a01b038216918215610f7d5781610f3c610f4d92335f52600160205260405f209060018060a01b03165f5260205260405f2090565b9060ff801983541691151516179055565b60405190151581527f17307eab39ab6107e8899845ad3d59bd9653f200f220920489ca2b5937696c3160203392a3005b60405162ced3e160e81b81525f6004820152602490fd5b346101ae5760203660031901126101ae576001600160a01b03610fb5610198565b165f526006602052602060ff60405f2054166040519015158152f35b346101ae5760e03660031901126101ae576004356024356001600160401b0381116101ae57611004903690600401610d36565b6064359160443560843560a435611019610838565b91611022611a8e565b871561052e57851561052e577fa50a1b4c010f0db10dd05bf8286245de2ed442faa99885a5f3dd259c66db55aa966110bc946110b061105f610612565b8b815261106d368b8b6106b3565b60208201528260408201528360608201528460808201528560a08201526110998760c083019015159052565b6110ab8c5f52600560205260405f2090565b611670565b604051978897886117b0565b0390a2005b346101ae5760403660031901126101ae57602060ff6111116110e1610198565b6110e96101b2565b6001600160a01b039182165f9081526001865260408082209290931681526020919091522090565b54166040519015158152f35b346101ae5760403660031901126101ae57611136610198565b61113e610829565b90611147611a8e565b6001600160a01b031690811561054d5760207f17f5b635c984bd6bd0661fd547f6085ef1a0813ef0c42d24b12a06f6824b5e0891835f52600682526108c58160405f209060ff801983541691151516179055565b94919695926111b560a0959260c0885260c0880190610302565b9760208701526040860152606085015260808401521515910152565b346101ae5760203660031901126101ae576004355f52600560205260405f206040516111fc8161059b565b815481526103c161120f60018401610a38565b6020830190815260028401549260408101938452600385015494606082019586526112746004820154936080840194855261126460c060ff600660058701549660a08901978852015416950194859015159052565b5195519651935191519251151590565b926040519687968761119b565b346101ae5760a03660031901126101ae5761129a610198565b6112a26101b2565b6084356001600160401b0381116101ae576112c19036906004016106e9565b906001600160a01b03838116903382141580611378575b611351578216156113395715611322576107aa9261131a6064356044359160405192600184526020840152604083019160018352606084015260808301604052565b929091611bfc565b604051626a0d4560e21b81525f6004820152602490fd5b604051632bfa23e760e11b81525f6004820152602490fd5b60405163711bec9160e11b81523360048201526001600160a01b0386166024820152604490fd5b505f82815260016020908152604080832033845290915290205460ff16156112d8565b346101ae5760203660031901126101ae576113b4610198565b6113bc611a8e565b6001600160a01b0390811690811561140f57600354826bffffffffffffffffffffffff60a01b821617600355167f8be0079c531659141344cd1fd0a4f28419497f9722a3daafe3b4186f6b6457e05f80a3005b604051631e4fbdf760e01b81525f6004820152602490fd5b9061143a602092828151948592016102e1565b0190565b9060405161144b8161059b565b60c060ff600683958054855261146360018201610a38565b6020860152600281015460408601526003810154606086015260048101546080860152600581015460a08601520154161515910152565b634e487b7160e01b5f52603260045260245ffd5b80518210156114c25760209160051b010190565b61149a565b919091805183518082036115625750508051906114fc6114e683610621565b926114f460405194856105f1565b808452610621565b60209190601f190136848401375f5b815181101561155a57600581901b8281018401519087018401515f908152602081815260408083206001600160a01b03909416835292905220546001919061155382876114ae565b520161150b565b509193505050565b604051635b05999160e01b815260048101919091526024810191909152604490fd5b60405190611591826105bb565b5f8252565b601f81116115a2575050565b60045f525f80516020612131833981519152906020601f840160051c830193106115e6575b601f0160051c01905b8181106115db575050565b5f81556001016115d0565b90915081906115c7565b601f82116115fd57505050565b5f5260205f20906020601f840160051c83019310611635575b601f0160051c01905b81811061162a575050565b5f815560010161161f565b9091508190611616565b908060209392818452848401375f828201840152601f01601f1916010190565b91602061033893818152019161163f565b90805182556001808301906020808401518051926001600160401b0384116105b6576116a6846116a08754610a00565b876115f0565b602092601f8511600114611735575050936006936116e5846117179560c09561061f9a995f9261172a575b50508160011b915f199060031b1c19161790565b90555b60408101516002860155606081015160038601556080810151600486015560a081015160058601550151151590565b91019060ff801983541691151516179055565b015190505f806116d1565b929190601f1985169061174b875f5260205f2090565b945f915b838310611799575050508460c09461061f999894600698946117179860019510611781575b505050811b0190556116e8565b01515f1960f88460031b161c191690555f8080611774565b84860151875595860195948101949181019161174f565b9592979693906111b59060a0969360c0895260c089019161163f565b634e487b7160e01b5f52601160045260245ffd5b5f1981146117ee5760010190565b6117cc565b906117fd82610698565b61180a60405191826105f1565b828152809261181b601f1991610698565b0190602036910137565b5f198101919082116117ee57565b60300190816030116117ee57565b919082018092116117ee57565b9081518110156114c2570160200190565b80156118e457805f81805b6118cc5750611878816117f3565b925b61188357505090565b61188c90611825565b90600a906118b76118a76118a1848406611833565b60ff1690565b60f81b6001600160f81b03191690565b5f1a6118c3848661184e565b5304908161187a565b91506118d9600a916117e0565b91048083929161186a565b506040516118f1816105d6565b60018152600360fc1b602082015290565b6001600160a01b0381169290919083156113225761193d60405192600184526020840152604083019160018352606084015260808301604052565b91906040945f60405161194f816105bb565b5281518451908181036115625750505f5b8251811015611a05578060051b602080828601015191870101516119a48661198f845f525f60205260405f2090565b9060018060a01b03165f5260205260405f2090565b548181106119cf578661198f60019594936119c89303935f525f60205260405f2090565b5501611960565b89516303dee4c560e01b81526001600160a01b038816600482015260248101919091526044810182905260648101839052608490fd5b5094505f9392915060018151148414611a5b5760209081015191810151604080519384529183015233917fc3d58168c5ae7397731d063d5bbf3d657854427343f4c083240f7aacaa2d0f6291819081015b0390a4565b60405133927f4a39dc06d4c0dbc64b70af90fd698a233a518aa5d07e595d983b8c0526c8f7fb928291611a569183611dea565b6003546001600160a01b03163303611aa257565b60405163118cdaa760e01b8152336004820152602490fd5b6001600160a01b0381169392909190841561133957611af660405192600184526020840152604083019160018352606084015260808301604052565b9281518451908181036115625750505f5b8251811015611b4c578060019160051b611b44611b3c8761198f602080868b010151958c010151945f525f60205260405f2090565b918254611841565b905501611b07565b5092919360018251145f14611bc1576020828101518482015160408051928352928201525f9133917fc3d58168c5ae7397731d063d5bbf3d657854427343f4c083240f7aacaa2d0f629190a45b8051600103611bb7579060208061061f9593015191015191336120c4565b61061f9333611ecf565b5f6040517f4a39dc06d4c0dbc64b70af90fd698a233a518aa5d07e595d983b8c0526c8f7fb339180611bf4888883611dea565b0390a4611b99565b9491909181518451908181036115625750505f5b8251811015611cf557600581901b83810160209081015191870101516001600160a01b03929186908a8516611c75575b6001948216611c53575b50505001611c10565b611c6b9161198f611b3c925f525f60205260405f2090565b90555f8581611c4a565b9192939050611c8f8a61198f845f525f60205260405f2090565b54838110611cbe5791879184600196959403611cb68d61198f855f525f60205260405f2090565b559450611c40565b6040516303dee4c560e01b81526001600160a01b038c16600482015260248101919091526044810184905260648101839052608490fd5b5094919392909360018551145f14611d9f576020858101518382015160408051928352928201526001600160a01b03838116929086169133917fc3d58168c5ae7397731d063d5bbf3d657854427343f4c083240f7aacaa2d0f6291a45b6001600160a01b038116611d68575b5050505050565b8451600103611d8e57602080611d8496015192015192336120f9565b5f80808080611d61565b611d9a94919233611fc8565b611d84565b6040516001600160a01b03828116919085169033907f4a39dc06d4c0dbc64b70af90fd698a233a518aa5d07e595d983b8c0526c8f7fb9080611de2888c83611dea565b0390a4611d52565b9091611e0161033893604084526040840190610902565b916020818403910152610902565b908160209103126101ae575161033881610224565b92611e526103389593611e609360018060a01b031686525f602087015260a0604087015260a0860190610902565b908482036060860152610902565b916080818403910152610302565b93906103389593611e5291611e609460018060a01b03809216885216602087015260a0604087015260a0860190610902565b3d15611eca573d90611eb182610698565b91611ebf60405193846105f1565b82523d5f602084013e565b606090565b9293919093843b611ee1575050505050565b602091611f04604051948593849363bc197c8160e01b9889865260048601611e24565b03815f6001600160a01b0388165af15f9181611f97575b50611f5a5782611f29611ea0565b8051919082611f5357604051632bfa23e760e11b81526001600160a01b0383166004820152602490fd5b6020915001fd5b6001600160e01b03191603611f7457505f80808080611d61565b604051632bfa23e760e11b81526001600160a01b03919091166004820152602490fd5b611fba91925060203d602011611fc1575b611fb281836105f1565b810190611e0f565b905f611f1b565b503d611fa8565b939290949194853b611fdd575b505050505050565b612000602093604051958694859463bc197c8160e01b998a875260048701611e6e565b03815f6001600160a01b0388165af15f9181612040575b506120255782611f29611ea0565b6001600160e01b03191603611f7457505f8080808080611fd5565b61205a91925060203d602011611fc157611fb281836105f1565b905f612017565b909260a0926103389594600180861b031683525f6020840152604083015260608201528160808201520190610302565b919261033895949160a094600180871b038092168552166020840152604083015260608201528160808201520190610302565b9293919093843b6120d6575050505050565b602091611f04604051948593849363f23a6e6160e01b9889865260048601612061565b939290949194853b61210d57505050505050565b612000602093604051958694859463f23a6e6160e01b998a87526004870161209156fe8a35acfbc15ff81a39ae7d344fd709f28e8600b4aa8c65c6b64bfe7fe36bd19ba2646970667358221220ab6915d77e256ac7a9386e03872ead43c87e4d27809e4fb65b4b61f5f174a68264736f6c63430008180033","opcodes":"PUSH1 0x80 PUSH1 0x40 MSTORE CALLVALUE PUSH3 0x3A2 JUMPI PUSH3 0x2553 DUP1 CODESIZE SUB DUP1 PUSH3 0x1D DUP2 PUSH3 0x3A6 JUMP JUMPDEST SWAP3 DUP4 CODECOPY DUP2 ADD PUSH1 0x40 DUP3 DUP3 SUB SLT PUSH3 0x3A2 JUMPI DUP2 MLOAD PUSH1 0x1 PUSH1 0x1 PUSH1 0xA0 SHL SUB DUP1 DUP3 AND SWAP4 SWAP2 DUP5 SWAP1 SUB PUSH3 0x3A2 JUMPI PUSH1 0x20 SWAP4 DUP5 DUP4 ADD MLOAD PUSH1 0x1 DUP1 PUSH1 0x40 SHL SUB SWAP4 DUP5 DUP3 GT PUSH3 0x3A2 JUMPI ADD SWAP4 PUSH1 0x1F SWAP2 DUP2 DUP4 DUP8 ADD SLT ISZERO PUSH3 0x3A2 JUMPI DUP6 MLOAD SWAP6 DUP6 DUP8 GT PUSH3 0x28E JUMPI PUSH1 0x1F NOT SWAP7 PUSH3 0x8B DUP6 DUP3 ADD DUP10 AND DUP11 ADD PUSH3 0x3A6 JUMP JUMPDEST SWAP4 DUP2 DUP6 MSTORE DUP10 DUP3 DUP5 ADD ADD GT PUSH3 0x3A2 JUMPI DUP9 SWAP2 PUSH0 JUMPDEST DUP3 DUP2 LT PUSH3 0x38E JUMPI POP POP SWAP1 PUSH0 SWAP2 DUP5 ADD ADD MSTORE DUP2 MLOAD SWAP4 DUP6 DUP6 GT PUSH3 0x28E JUMPI PUSH1 0x2 SLOAD SWAP5 PUSH1 0x1 SWAP6 DUP7 DUP2 DUP2 SHR SWAP2 AND DUP1 ISZERO PUSH3 0x383 JUMPI JUMPDEST DUP11 DUP3 LT EQ PUSH3 0x36F JUMPI DUP6 DUP2 GT PUSH3 0x326 JUMPI JUMPDEST POP DUP1 DUP10 DUP7 DUP3 GT PUSH1 0x1 EQ PUSH3 0x2C6 JUMPI PUSH0 SWAP2 PUSH3 0x2BA JUMPI JUMPDEST POP PUSH0 NOT PUSH1 0x3 DUP4 SWAP1 SHL SHR NOT AND SWAP1 DUP7 SHL OR PUSH1 0x2 SSTORE JUMPDEST DUP2 ISZERO PUSH3 0x2A2 JUMPI PUSH1 0x3 DUP1 SLOAD PUSH1 0x1 PUSH1 0x1 PUSH1 0xA0 SHL SUB NOT DUP2 AND DUP5 OR SWAP1 SWAP2 SSTORE AND PUSH32 0x8BE0079C531659141344CD1FD0A4F28419497F9722A3DAAFE3B4186F6B6457E0 PUSH0 DUP1 LOG3 DUP1 MLOAD SWAP4 DUP5 GT PUSH3 0x28E JUMPI PUSH1 0x4 SWAP6 DUP7 SLOAD DUP5 DUP2 DUP2 SHR SWAP2 AND DUP1 ISZERO PUSH3 0x283 JUMPI JUMPDEST DUP3 DUP3 LT EQ PUSH3 0x270 JUMPI DUP4 DUP2 GT PUSH3 0x228 JUMPI JUMPDEST POP DUP1 SWAP3 DUP6 GT PUSH1 0x1 EQ PUSH3 0x1C3 JUMPI POP DUP4 SWAP5 POP SWAP1 DUP4 SWAP3 SWAP2 PUSH0 SWAP5 PUSH3 0x1B7 JUMPI JUMPDEST POP POP SHL SWAP2 PUSH0 NOT SWAP1 PUSH1 0x3 SHL SHR NOT AND OR SWAP1 SSTORE JUMPDEST PUSH1 0x40 MLOAD PUSH2 0x2186 SWAP1 DUP2 PUSH3 0x3CD DUP3 CODECOPY RETURN JUMPDEST ADD MLOAD SWAP3 POP PUSH0 DUP1 PUSH3 0x196 JUMP JUMPDEST SWAP3 SWAP5 DUP5 SWAP1 DUP2 AND DUP8 PUSH0 MSTORE DUP5 PUSH0 KECCAK256 SWAP5 PUSH0 SWAP1 JUMPDEST DUP9 DUP4 DUP4 LT PUSH3 0x20D JUMPI POP POP POP LT PUSH3 0x1F4 JUMPI JUMPDEST POP POP POP DUP2 SHL ADD SWAP1 SSTORE PUSH3 0x1A7 JUMP JUMPDEST ADD MLOAD PUSH0 NOT PUSH1 0xF8 DUP5 PUSH1 0x3 SHL AND SHR NOT AND SWAP1 SSTORE PUSH0 DUP1 DUP1 PUSH3 0x1E6 JUMP JUMPDEST DUP6 DUP8 ADD MLOAD DUP9 SSTORE SWAP1 SWAP7 ADD SWAP6 SWAP5 DUP6 ADD SWAP5 DUP8 SWAP4 POP SWAP1 DUP2 ADD SWAP1 PUSH3 0x1D3 JUMP JUMPDEST DUP8 PUSH0 MSTORE DUP2 PUSH0 KECCAK256 DUP5 DUP1 DUP9 ADD PUSH1 0x5 SHR DUP3 ADD SWAP3 DUP5 DUP10 LT PUSH3 0x266 JUMPI JUMPDEST ADD PUSH1 0x5 SHR ADD SWAP1 DUP6 SWAP1 JUMPDEST DUP3 DUP2 LT PUSH3 0x25A JUMPI POP POP PUSH3 0x179 JUMP JUMPDEST PUSH0 DUP2 SSTORE ADD DUP6 SWAP1 PUSH3 0x24A JUMP JUMPDEST SWAP3 POP DUP2 SWAP3 PUSH3 0x241 JUMP JUMPDEST PUSH1 0x22 DUP9 PUSH4 0x4E487B71 PUSH1 0xE0 SHL PUSH0 MSTORE MSTORE PUSH1 0x24 PUSH0 REVERT JUMPDEST SWAP1 PUSH1 0x7F AND SWAP1 PUSH3 0x167 JUMP JUMPDEST PUSH4 0x4E487B71 PUSH1 0xE0 SHL PUSH0 MSTORE PUSH1 0x41 PUSH1 0x4 MSTORE PUSH1 0x24 PUSH0 REVERT JUMPDEST PUSH1 0x40 MLOAD PUSH4 0x1E4FBDF7 PUSH1 0xE0 SHL DUP2 MSTORE PUSH0 PUSH1 0x4 DUP3 ADD MSTORE PUSH1 0x24 SWAP1 REVERT JUMPDEST SWAP1 POP DUP5 ADD MLOAD PUSH0 PUSH3 0xF7 JUMP JUMPDEST DUP10 DUP9 SWAP4 AND SWAP1 PUSH1 0x2 PUSH0 MSTORE DUP12 PUSH0 KECCAK256 SWAP2 PUSH0 JUMPDEST DUP14 DUP3 DUP3 LT PUSH3 0x30F JUMPI POP POP DUP4 GT PUSH3 0x2F6 JUMPI JUMPDEST POP POP DUP2 SHL ADD PUSH1 0x2 SSTORE PUSH3 0x10A JUMP JUMPDEST DUP7 ADD MLOAD PUSH0 NOT PUSH1 0xF8 DUP5 PUSH1 0x3 SHL AND SHR NOT AND SWAP1 SSTORE PUSH0 DUP1 PUSH3 0x2E8 JUMP JUMPDEST DUP4 DUP11 ADD MLOAD DUP6 SSTORE DUP12 SWAP7 SWAP1 SWAP5 ADD SWAP4 SWAP3 DUP4 ADD SWAP3 ADD PUSH3 0x2D5 JUMP JUMPDEST PUSH1 0x2 PUSH0 MSTORE DUP10 PUSH0 KECCAK256 DUP7 DUP1 DUP5 ADD PUSH1 0x5 SHR DUP3 ADD SWAP3 DUP13 DUP6 LT PUSH3 0x365 JUMPI JUMPDEST ADD PUSH1 0x5 SHR ADD SWAP1 DUP8 SWAP1 JUMPDEST DUP3 DUP2 LT PUSH3 0x359 JUMPI POP POP PUSH3 0xE1 JUMP JUMPDEST PUSH0 DUP2 SSTORE ADD DUP8 SWAP1 PUSH3 0x349 JUMP JUMPDEST SWAP3 POP DUP2 SWAP3 PUSH3 0x340 JUMP JUMPDEST PUSH4 0x4E487B71 PUSH1 0xE0 SHL PUSH0 MSTORE PUSH1 0x22 PUSH1 0x4 MSTORE PUSH1 0x24 PUSH0 REVERT JUMPDEST SWAP1 PUSH1 0x7F AND SWAP1 PUSH3 0xCF JUMP JUMPDEST DUP2 DUP2 ADD DUP5 ADD MLOAD DUP7 DUP3 ADD DUP6 ADD MSTORE DUP4 ADD PUSH3 0x9E JUMP JUMPDEST PUSH0 DUP1 REVERT JUMPDEST PUSH1 0x40 MLOAD SWAP2 SWAP1 PUSH1 0x1F ADD PUSH1 0x1F NOT AND DUP3 ADD PUSH1 0x1 PUSH1 0x1 PUSH1 0x40 SHL SUB DUP2 GT DUP4 DUP3 LT OR PUSH3 0x28E JUMPI PUSH1 0x40 MSTORE JUMP INVALID PUSH1 0x80 PUSH1 0x40 MSTORE PUSH1 0x4 CALLDATASIZE LT ISZERO PUSH2 0x11 JUMPI PUSH0 DUP1 REVERT JUMPDEST PUSH0 CALLDATALOAD PUSH1 0xE0 SHR DUP1 PUSH3 0xFDD58E EQ PUSH2 0x193 JUMPI DUP1 PUSH4 0x1FFC9A7 EQ PUSH2 0x18E JUMPI DUP1 PUSH4 0x7055840 EQ PUSH2 0x189 JUMPI DUP1 PUSH4 0xE89341C EQ PUSH2 0x184 JUMPI DUP1 PUSH4 0x17DAB0DF EQ PUSH2 0x17F JUMPI DUP1 PUSH4 0x1FFD6C78 EQ PUSH2 0x17A JUMPI DUP1 PUSH4 0x2EB2C2D6 EQ PUSH2 0x175 JUMPI DUP1 PUSH4 0x41FE0F71 EQ PUSH2 0x170 JUMPI DUP1 PUSH4 0x458CFFBF EQ PUSH2 0x16B JUMPI DUP1 PUSH4 0x4E1273F4 EQ PUSH2 0x166 JUMPI DUP1 PUSH4 0x4F9F27A1 EQ PUSH2 0x161 JUMPI DUP1 PUSH4 0x50BE6A08 EQ PUSH2 0x15C JUMPI DUP1 PUSH4 0x5B2BD79E EQ PUSH2 0x157 JUMPI DUP1 PUSH4 0x715018A6 EQ PUSH2 0x152 JUMPI DUP1 PUSH4 0x7E518EC8 EQ PUSH2 0x14D JUMPI DUP1 PUSH4 0x8DA5CB5B EQ PUSH2 0x148 JUMPI DUP1 PUSH4 0xA22CB465 EQ PUSH2 0x143 JUMPI DUP1 PUSH4 0xAA2FE91B EQ PUSH2 0x13E JUMPI DUP1 PUSH4 0xAE3C2125 EQ PUSH2 0x139 JUMPI DUP1 PUSH4 0xE985E9C5 EQ PUSH2 0x134 JUMPI DUP1 PUSH4 0xED58BAD8 EQ PUSH2 0x12F JUMPI DUP1 PUSH4 0xF0AE7900 EQ PUSH2 0x12A JUMPI DUP1 PUSH4 0xF242432A EQ PUSH2 0x125 JUMPI PUSH4 0xF2FDE38B EQ PUSH2 0x120 JUMPI PUSH0 DUP1 REVERT JUMPDEST PUSH2 0x139B JUMP JUMPDEST PUSH2 0x1281 JUMP JUMPDEST PUSH2 0x11D1 JUMP JUMPDEST PUSH2 0x111D JUMP JUMPDEST PUSH2 0x10C1 JUMP JUMPDEST PUSH2 0xFD1 JUMP JUMPDEST PUSH2 0xF94 JUMP JUMPDEST PUSH2 0xEE1 JUMP JUMPDEST PUSH2 0xEB9 JUMP JUMPDEST PUSH2 0xD63 JUMP JUMPDEST PUSH2 0xCDB JUMP JUMPDEST PUSH2 0xC1E JUMP JUMPDEST PUSH2 0xB61 JUMP JUMPDEST PUSH2 0xAD8 JUMP JUMPDEST PUSH2 0x946 JUMP JUMPDEST PUSH2 0x8D0 JUMP JUMPDEST PUSH2 0x847 JUMP JUMPDEST PUSH2 0x704 JUMP JUMPDEST PUSH2 0x483 JUMP JUMPDEST PUSH2 0x42D JUMP JUMPDEST PUSH2 0x33B JUMP JUMPDEST PUSH2 0x2A4 JUMP JUMPDEST PUSH2 0x236 JUMP JUMPDEST PUSH2 0x1DC JUMP JUMPDEST PUSH1 0x4 CALLDATALOAD SWAP1 PUSH1 0x1 PUSH1 0x1 PUSH1 0xA0 SHL SUB DUP3 AND DUP3 SUB PUSH2 0x1AE JUMPI JUMP JUMPDEST PUSH0 DUP1 REVERT JUMPDEST PUSH1 0x24 CALLDATALOAD SWAP1 PUSH1 0x1 PUSH1 0x1 PUSH1 0xA0 SHL SUB DUP3 AND DUP3 SUB PUSH2 0x1AE JUMPI JUMP JUMPDEST CALLDATALOAD SWAP1 PUSH1 0x1 PUSH1 0x1 PUSH1 0xA0 SHL SUB DUP3 AND DUP3 SUB PUSH2 0x1AE JUMPI JUMP JUMPDEST CALLVALUE PUSH2 0x1AE JUMPI PUSH1 0x40 CALLDATASIZE PUSH1 0x3 NOT ADD SLT PUSH2 0x1AE JUMPI PUSH1 0x20 PUSH2 0x21B PUSH2 0x1FA PUSH2 0x198 JUMP JUMPDEST PUSH1 0x24 CALLDATALOAD PUSH0 MSTORE PUSH0 DUP4 MSTORE PUSH1 0x40 PUSH0 KECCAK256 SWAP1 PUSH1 0x1 DUP1 PUSH1 0xA0 SHL SUB AND PUSH0 MSTORE PUSH1 0x20 MSTORE PUSH1 0x40 PUSH0 KECCAK256 SWAP1 JUMP JUMPDEST SLOAD PUSH1 0x40 MLOAD SWAP1 DUP2 MSTORE RETURN JUMPDEST PUSH1 0x1 PUSH1 0x1 PUSH1 0xE0 SHL SUB NOT DUP2 AND SUB PUSH2 0x1AE JUMPI JUMP JUMPDEST CALLVALUE PUSH2 0x1AE JUMPI PUSH1 0x20 CALLDATASIZE PUSH1 0x3 NOT ADD SLT PUSH2 0x1AE JUMPI PUSH1 0x20 PUSH1 0x4 CALLDATALOAD PUSH2 0x255 DUP2 PUSH2 0x224 JUMP JUMPDEST PUSH4 0xFFFFFFFF PUSH1 0xE0 SHL AND PUSH4 0x6CDB3D13 PUSH1 0xE1 SHL DUP2 EQ SWAP1 DUP2 ISZERO PUSH2 0x293 JUMPI JUMPDEST DUP2 ISZERO PUSH2 0x282 JUMPI JUMPDEST POP PUSH1 0x40 MLOAD SWAP1 ISZERO ISZERO DUP2 MSTORE RETURN JUMPDEST PUSH4 0x1FFC9A7 PUSH1 0xE0 SHL EQ SWAP1 POP PUSH0 PUSH2 0x277 JUMP JUMPDEST PUSH4 0x3A24D07 PUSH1 0xE2 SHL DUP2 EQ SWAP2 POP PUSH2 0x270 JUMP JUMPDEST CALLVALUE PUSH2 0x1AE JUMPI PUSH1 0x20 CALLDATASIZE PUSH1 0x3 NOT ADD SLT PUSH2 0x1AE JUMPI PUSH1 0x1 PUSH1 0x1 PUSH1 0xA0 SHL SUB PUSH2 0x2C5 PUSH2 0x198 JUMP JUMPDEST AND PUSH0 MSTORE PUSH1 0x7 PUSH1 0x20 MSTORE PUSH1 0x20 PUSH1 0xFF PUSH1 0x40 PUSH0 KECCAK256 SLOAD AND PUSH1 0x40 MLOAD SWAP1 ISZERO ISZERO DUP2 MSTORE RETURN JUMPDEST PUSH0 JUMPDEST DUP4 DUP2 LT PUSH2 0x2F2 JUMPI POP POP PUSH0 SWAP2 ADD MSTORE JUMP JUMPDEST DUP2 DUP2 ADD MLOAD DUP4 DUP3 ADD MSTORE PUSH1 0x20 ADD PUSH2 0x2E3 JUMP JUMPDEST SWAP1 PUSH1 0x20 SWAP2 PUSH2 0x31B DUP2 MLOAD DUP1 SWAP3 DUP2 DUP6 MSTORE DUP6 DUP1 DUP7 ADD SWAP2 ADD PUSH2 0x2E1 JUMP JUMPDEST PUSH1 0x1F ADD PUSH1 0x1F NOT AND ADD ADD SWAP1 JUMP JUMPDEST SWAP1 PUSH1 0x20 PUSH2 0x338 SWAP3 DUP2 DUP2 MSTORE ADD SWAP1 PUSH2 0x302 JUMP JUMPDEST SWAP1 JUMP JUMPDEST CALLVALUE PUSH2 0x1AE JUMPI PUSH1 0x20 DUP1 PUSH1 0x3 NOT CALLDATASIZE ADD SLT PUSH2 0x1AE JUMPI PUSH2 0x358 PUSH1 0x4 CALLDATALOAD PUSH2 0x185F JUMP JUMPDEST PUSH1 0x40 MLOAD SWAP1 PUSH0 SWAP3 PUSH1 0x4 SLOAD PUSH2 0x36A DUP2 PUSH2 0xA00 JUMP JUMPDEST SWAP1 PUSH1 0x1 SWAP1 DUP2 DUP2 AND SWAP1 DUP2 ISZERO PUSH2 0x40E JUMPI POP PUSH1 0x1 EQ PUSH2 0x3C5 JUMPI JUMPDEST PUSH2 0x3C1 DUP6 PUSH2 0x3B5 DUP2 PUSH2 0x3A7 PUSH2 0x396 DUP12 DUP11 PUSH2 0x1427 JUMP JUMPDEST PUSH5 0x173539B7B7 PUSH1 0xD9 SHL DUP2 MSTORE PUSH1 0x5 ADD SWAP1 JUMP JUMPDEST SUB PUSH1 0x1F NOT DUP2 ADD DUP4 MSTORE DUP3 PUSH2 0x5F1 JUMP JUMPDEST PUSH1 0x40 MLOAD SWAP2 DUP3 SWAP2 DUP3 PUSH2 0x327 JUMP JUMPDEST SUB SWAP1 RETURN JUMPDEST SWAP1 SWAP2 SWAP5 POP PUSH1 0x4 PUSH0 MSTORE PUSH0 DUP1 MLOAD PUSH1 0x20 PUSH2 0x2131 DUP4 CODECOPY DUP2 MLOAD SWAP2 MSTORE SWAP1 PUSH0 SWAP2 JUMPDEST DUP4 DUP4 LT PUSH2 0x3FB JUMPI POP POP POP DUP3 ADD SWAP1 SWAP3 ADD SWAP2 DUP2 PUSH2 0x3A7 PUSH2 0x396 PUSH2 0x381 JUMP JUMPDEST DUP1 SLOAD DUP7 DUP5 ADD DUP9 ADD MSTORE SWAP2 DUP7 ADD SWAP2 DUP2 ADD PUSH2 0x3DF JUMP JUMPDEST PUSH1 0xFF NOT AND DUP7 DUP6 ADD MSTORE POP POP DUP1 ISZERO ISZERO MUL DUP4 ADD ADD SWAP3 POP DUP2 PUSH2 0x3A7 PUSH2 0x396 PUSH2 0x381 JUMP JUMPDEST CALLVALUE PUSH2 0x1AE JUMPI PUSH1 0x20 CALLDATASIZE PUSH1 0x3 NOT ADD SLT PUSH2 0x1AE JUMPI PUSH1 0x4 CALLDATALOAD PUSH0 MSTORE PUSH1 0x5 PUSH1 0x20 MSTORE PUSH1 0x20 PUSH1 0x40 PUSH0 KECCAK256 SLOAD ISZERO ISZERO PUSH1 0x40 MLOAD SWAP1 DUP2 MSTORE RETURN JUMPDEST PUSH1 0x60 SWAP1 PUSH1 0x3 NOT ADD SLT PUSH2 0x1AE JUMPI PUSH1 0x4 CALLDATALOAD PUSH1 0x1 PUSH1 0x1 PUSH1 0xA0 SHL SUB DUP2 AND DUP2 SUB PUSH2 0x1AE JUMPI SWAP1 PUSH1 0x24 CALLDATALOAD SWAP1 PUSH1 0x44 CALLDATALOAD SWAP1 JUMP JUMPDEST CALLVALUE PUSH2 0x1AE JUMPI PUSH2 0x491 CALLDATASIZE PUSH2 0x459 JUMP JUMPDEST PUSH1 0x3 SLOAD SWAP2 SWAP3 SWAP2 PUSH1 0x1 PUSH1 0x1 PUSH1 0xA0 SHL SUB SWAP1 DUP2 AND CALLER EQ DUP1 ISZERO PUSH2 0x571 JUMPI JUMPDEST ISZERO PUSH2 0x55F JUMPI DUP3 AND SWAP2 DUP3 ISZERO PUSH2 0x54D JUMPI DUP2 ISZERO PUSH2 0x52E JUMPI PUSH2 0x4D9 PUSH2 0x4D4 DUP6 PUSH0 MSTORE PUSH1 0x5 PUSH1 0x20 MSTORE PUSH1 0x40 PUSH0 KECCAK256 SWAP1 JUMP JUMPDEST PUSH2 0x143E JUMP JUMPDEST DUP1 MLOAD ISZERO SWAP1 DUP2 ISZERO PUSH2 0x540 JUMPI JUMPDEST POP PUSH2 0x52E JUMPI DUP2 PUSH2 0x519 PUSH32 0x8B78E24F1320122542AA3F023B4AF2153878495DDEEA896299A9FA8B6B2EC0A3 SWAP4 DUP7 PUSH2 0x529 SWAP5 PUSH2 0x1902 JUMP JUMPDEST PUSH1 0x40 MLOAD SWAP1 DUP2 MSTORE SWAP1 DUP2 SWAP1 PUSH1 0x20 DUP3 ADD SWAP1 JUMP JUMPDEST SUB SWAP1 LOG3 STOP JUMPDEST PUSH1 0x40 MLOAD PUSH4 0x2A9FFAB7 PUSH1 0xE2 SHL DUP2 MSTORE PUSH1 0x4 SWAP1 REVERT JUMPDEST PUSH1 0xC0 ADD MLOAD ISZERO SWAP1 POP PUSH0 PUSH2 0x4E4 JUMP JUMPDEST PUSH1 0x40 MLOAD PUSH4 0xD92E233D PUSH1 0xE0 SHL DUP2 MSTORE PUSH1 0x4 SWAP1 REVERT JUMPDEST PUSH1 0x40 MLOAD PUSH4 0xEA8E4EB5 PUSH1 0xE0 SHL DUP2 MSTORE PUSH1 0x4 SWAP1 REVERT JUMPDEST POP CALLER PUSH0 MSTORE PUSH1 0x7 PUSH1 0x20 MSTORE PUSH1 0xFF PUSH1 0x40 PUSH0 KECCAK256 SLOAD AND PUSH2 0x4AB JUMP JUMPDEST PUSH4 0x4E487B71 PUSH1 0xE0 SHL PUSH0 MSTORE PUSH1 0x41 PUSH1 0x4 MSTORE PUSH1 0x24 PUSH0 REVERT JUMPDEST PUSH1 0xE0 DUP2 ADD SWAP1 DUP2 LT PUSH1 0x1 PUSH1 0x1 PUSH1 0x40 SHL SUB DUP3 GT OR PUSH2 0x5B6 JUMPI PUSH1 0x40 MSTORE JUMP JUMPDEST PUSH2 0x587 JUMP JUMPDEST PUSH1 0x20 DUP2 ADD SWAP1 DUP2 LT PUSH1 0x1 PUSH1 0x1 PUSH1 0x40 SHL SUB DUP3 GT OR PUSH2 0x5B6 JUMPI PUSH1 0x40 MSTORE JUMP JUMPDEST PUSH1 0x40 DUP2 ADD SWAP1 DUP2 LT PUSH1 0x1 PUSH1 0x1 PUSH1 0x40 SHL SUB DUP3 GT OR PUSH2 0x5B6 JUMPI PUSH1 0x40 MSTORE JUMP JUMPDEST SWAP1 PUSH1 0x1F DUP1 NOT SWAP2 ADD AND DUP2 ADD SWAP1 DUP2 LT PUSH1 0x1 PUSH1 0x1 PUSH1 0x40 SHL SUB DUP3 GT OR PUSH2 0x5B6 JUMPI PUSH1 0x40 MSTORE JUMP JUMPDEST PUSH1 0x40 MLOAD SWAP1 PUSH2 0x61F DUP3 PUSH2 0x59B JUMP JUMPDEST JUMP JUMPDEST PUSH1 0x1 PUSH1 0x1 PUSH1 0x40 SHL SUB DUP2 GT PUSH2 0x5B6 JUMPI PUSH1 0x5 SHL PUSH1 0x20 ADD SWAP1 JUMP JUMPDEST SWAP1 DUP1 PUSH1 0x1F DUP4 ADD SLT ISZERO PUSH2 0x1AE JUMPI PUSH1 0x20 SWAP1 DUP3 CALLDATALOAD PUSH2 0x652 DUP2 PUSH2 0x621 JUMP JUMPDEST SWAP4 PUSH2 0x660 PUSH1 0x40 MLOAD SWAP6 DUP7 PUSH2 0x5F1 JUMP JUMPDEST DUP2 DUP6 MSTORE PUSH1 0x20 DUP1 DUP7 ADD SWAP3 PUSH1 0x5 SHL DUP3 ADD ADD SWAP3 DUP4 GT PUSH2 0x1AE JUMPI PUSH1 0x20 ADD SWAP1 JUMPDEST DUP3 DUP3 LT PUSH2 0x689 JUMPI POP POP POP POP SWAP1 JUMP JUMPDEST DUP2 CALLDATALOAD DUP2 MSTORE SWAP1 DUP4 ADD SWAP1 DUP4 ADD PUSH2 0x67B JUMP JUMPDEST PUSH1 0x1 PUSH1 0x1 PUSH1 0x40 SHL SUB DUP2 GT PUSH2 0x5B6 JUMPI PUSH1 0x1F ADD PUSH1 0x1F NOT AND PUSH1 0x20 ADD SWAP1 JUMP JUMPDEST SWAP3 SWAP2 SWAP3 PUSH2 0x6BF DUP3 PUSH2 0x698 JUMP JUMPDEST SWAP2 PUSH2 0x6CD PUSH1 0x40 MLOAD SWAP4 DUP5 PUSH2 0x5F1 JUMP JUMPDEST DUP3 SWAP5 DUP2 DUP5 MSTORE DUP2 DUP4 ADD GT PUSH2 0x1AE JUMPI DUP3 DUP2 PUSH1 0x20 SWAP4 DUP5 PUSH0 SWAP7 ADD CALLDATACOPY ADD ADD MSTORE JUMP JUMPDEST SWAP1 DUP1 PUSH1 0x1F DUP4 ADD SLT ISZERO PUSH2 0x1AE JUMPI DUP2 PUSH1 0x20 PUSH2 0x338 SWAP4 CALLDATALOAD SWAP2 ADD PUSH2 0x6B3 JUMP JUMPDEST CALLVALUE PUSH2 0x1AE JUMPI PUSH1 0xA0 CALLDATASIZE PUSH1 0x3 NOT ADD SLT PUSH2 0x1AE JUMPI PUSH2 0x71D PUSH2 0x198 JUMP JUMPDEST PUSH2 0x725 PUSH2 0x1B2 JUMP JUMPDEST SWAP1 PUSH1 0x44 CALLDATALOAD SWAP2 PUSH1 0x1 PUSH1 0x1 PUSH1 0x40 SHL SUB SWAP1 DUP2 DUP5 GT PUSH2 0x1AE JUMPI PUSH2 0x749 PUSH1 0x4 SWAP5 CALLDATASIZE SWAP1 DUP7 ADD PUSH2 0x638 JUMP JUMPDEST SWAP1 PUSH1 0x64 CALLDATALOAD DUP4 DUP2 GT PUSH2 0x1AE JUMPI PUSH2 0x761 SWAP1 CALLDATASIZE SWAP1 DUP8 ADD PUSH2 0x638 JUMP JUMPDEST SWAP3 PUSH1 0x84 CALLDATALOAD SWAP1 DUP2 GT PUSH2 0x1AE JUMPI PUSH2 0x779 SWAP1 CALLDATASIZE SWAP1 DUP8 ADD PUSH2 0x6E9 JUMP JUMPDEST SWAP4 PUSH1 0x1 PUSH1 0x1 PUSH1 0xA0 SHL SUB DUP1 DUP3 AND SWAP1 CALLER DUP3 EQ ISZERO DUP1 PUSH2 0x806 JUMPI JUMPDEST PUSH2 0x7D9 JUMPI DUP4 AND ISZERO PUSH2 0x7C2 JUMPI ISZERO PUSH2 0x7AC JUMPI PUSH2 0x7AA SWAP6 POP PUSH2 0x1BFC JUMP JUMPDEST STOP JUMPDEST PUSH1 0x40 MLOAD PUSH3 0x6A0D45 PUSH1 0xE2 SHL DUP2 MSTORE PUSH0 DUP2 DUP9 ADD MSTORE PUSH1 0x24 SWAP1 REVERT JUMPDEST PUSH1 0x40 MLOAD PUSH4 0x2BFA23E7 PUSH1 0xE1 SHL DUP2 MSTORE PUSH0 DUP2 DUP10 ADD MSTORE PUSH1 0x24 SWAP1 REVERT JUMPDEST PUSH1 0x40 DUP1 MLOAD PUSH4 0x711BEC91 PUSH1 0xE1 SHL DUP2 MSTORE CALLER DUP2 DUP12 ADD SWAP1 DUP2 MSTORE PUSH1 0x1 PUSH1 0x1 PUSH1 0xA0 SHL SUB DUP7 AND PUSH1 0x20 DUP3 ADD MSTORE SWAP1 SWAP2 DUP3 SWAP2 ADD SUB SWAP1 REVERT JUMPDEST POP PUSH0 DUP3 DUP2 MSTORE PUSH1 0x1 PUSH1 0x20 SWAP1 DUP2 MSTORE PUSH1 0x40 DUP1 DUP4 KECCAK256 CALLER DUP5 MSTORE SWAP1 SWAP2 MSTORE SWAP1 KECCAK256 SLOAD PUSH1 0xFF AND ISZERO PUSH2 0x790 JUMP JUMPDEST PUSH1 0x24 CALLDATALOAD SWAP1 DUP2 ISZERO ISZERO DUP3 SUB PUSH2 0x1AE JUMPI JUMP JUMPDEST PUSH1 0xC4 CALLDATALOAD SWAP1 DUP2 ISZERO ISZERO DUP3 SUB PUSH2 0x1AE JUMPI JUMP JUMPDEST CALLVALUE PUSH2 0x1AE JUMPI PUSH1 0x40 CALLDATASIZE PUSH1 0x3 NOT ADD SLT PUSH2 0x1AE JUMPI PUSH2 0x860 PUSH2 0x198 JUMP JUMPDEST PUSH2 0x868 PUSH2 0x829 JUMP JUMPDEST SWAP1 PUSH2 0x871 PUSH2 0x1A8E JUMP JUMPDEST PUSH1 0x1 PUSH1 0x1 PUSH1 0xA0 SHL SUB AND SWAP1 DUP2 ISZERO PUSH2 0x54D JUMPI PUSH1 0x20 PUSH32 0xFA648341F7C45A89A5AC85C79BA49A45167038F7E499F5C2D8FD43C124F30E4D SWAP2 DUP4 PUSH0 MSTORE PUSH1 0x7 DUP3 MSTORE PUSH2 0x8C5 DUP2 PUSH1 0x40 PUSH0 KECCAK256 SWAP1 PUSH1 0xFF DUP1 NOT DUP4 SLOAD AND SWAP2 ISZERO ISZERO AND OR SWAP1 SSTORE JUMP JUMPDEST PUSH1 0x40 MLOAD SWAP1 ISZERO ISZERO DUP2 MSTORE LOG2 STOP JUMPDEST CALLVALUE PUSH2 0x1AE JUMPI PUSH1 0x20 CALLDATASIZE PUSH1 0x3 NOT ADD SLT PUSH2 0x1AE JUMPI PUSH1 0x4 CALLDATALOAD PUSH0 MSTORE PUSH1 0x5 PUSH1 0x20 MSTORE PUSH1 0x20 PUSH1 0xFF PUSH1 0x6 PUSH1 0x40 PUSH0 KECCAK256 ADD SLOAD AND PUSH1 0x40 MLOAD SWAP1 ISZERO ISZERO DUP2 MSTORE RETURN JUMPDEST SWAP1 DUP2 MLOAD DUP1 DUP3 MSTORE PUSH1 0x20 DUP1 DUP1 SWAP4 ADD SWAP4 ADD SWAP2 PUSH0 JUMPDEST DUP3 DUP2 LT PUSH2 0x921 JUMPI POP POP POP POP SWAP1 JUMP JUMPDEST DUP4 MLOAD DUP6 MSTORE SWAP4 DUP2 ADD SWAP4 SWAP3 DUP2 ADD SWAP3 PUSH1 0x1 ADD PUSH2 0x913 JUMP JUMPDEST SWAP1 PUSH1 0x20 PUSH2 0x338 SWAP3 DUP2 DUP2 MSTORE ADD SWAP1 PUSH2 0x902 JUMP JUMPDEST CALLVALUE PUSH2 0x1AE JUMPI PUSH1 0x40 CALLDATASIZE PUSH1 0x3 NOT ADD SLT PUSH2 0x1AE JUMPI PUSH1 0x4 CALLDATALOAD PUSH1 0x1 PUSH1 0x1 PUSH1 0x40 SHL SUB DUP1 DUP3 GT PUSH2 0x1AE JUMPI CALLDATASIZE PUSH1 0x23 DUP4 ADD SLT ISZERO PUSH2 0x1AE JUMPI DUP2 PUSH1 0x4 ADD CALLDATALOAD PUSH2 0x982 DUP2 PUSH2 0x621 JUMP JUMPDEST SWAP3 PUSH2 0x990 PUSH1 0x40 MLOAD SWAP5 DUP6 PUSH2 0x5F1 JUMP JUMPDEST DUP2 DUP5 MSTORE PUSH1 0x20 SWAP2 PUSH1 0x24 PUSH1 0x20 DUP7 ADD SWAP2 PUSH1 0x5 SHL DUP4 ADD ADD SWAP2 CALLDATASIZE DUP4 GT PUSH2 0x1AE JUMPI PUSH1 0x24 ADD SWAP1 JUMPDEST DUP3 DUP3 LT PUSH2 0x9E9 JUMPI DUP6 PUSH1 0x24 CALLDATALOAD DUP7 DUP2 GT PUSH2 0x1AE JUMPI PUSH2 0x3C1 SWAP2 PUSH2 0x9D7 PUSH2 0x9DD SWAP3 CALLDATASIZE SWAP1 PUSH1 0x4 ADD PUSH2 0x638 JUMP JUMPDEST SWAP1 PUSH2 0x14C7 JUMP JUMPDEST PUSH1 0x40 MLOAD SWAP2 DUP3 SWAP2 DUP3 PUSH2 0x935 JUMP JUMPDEST DUP4 DUP1 SWAP2 PUSH2 0x9F5 DUP5 PUSH2 0x1C8 JUMP JUMPDEST DUP2 MSTORE ADD SWAP2 ADD SWAP1 PUSH2 0x9B0 JUMP JUMPDEST SWAP1 PUSH1 0x1 DUP3 DUP2 SHR SWAP3 AND DUP1 ISZERO PUSH2 0xA2E JUMPI JUMPDEST PUSH1 0x20 DUP4 LT EQ PUSH2 0xA1A JUMPI JUMP JUMPDEST PUSH4 0x4E487B71 PUSH1 0xE0 SHL PUSH0 MSTORE PUSH1 0x22 PUSH1 0x4 MSTORE PUSH1 0x24 PUSH0 REVERT JUMPDEST SWAP2 PUSH1 0x7F AND SWAP2 PUSH2 0xA0F JUMP JUMPDEST SWAP1 PUSH1 0x40 MLOAD SWAP2 DUP3 PUSH0 DUP3 SLOAD PUSH2 0xA4A DUP2 PUSH2 0xA00 JUMP JUMPDEST SWAP1 DUP2 DUP5 MSTORE PUSH1 0x20 SWAP5 PUSH1 0x1 SWAP2 PUSH1 0x1 DUP2 AND SWAP1 DUP2 PUSH0 EQ PUSH2 0xAB6 JUMPI POP PUSH1 0x1 EQ PUSH2 0xA78 JUMPI JUMPDEST POP POP POP PUSH2 0x61F SWAP3 POP SUB DUP4 PUSH2 0x5F1 JUMP JUMPDEST PUSH0 SWAP1 DUP2 MSTORE DUP6 DUP2 KECCAK256 SWAP6 SWAP4 POP SWAP2 SWAP1 JUMPDEST DUP2 DUP4 LT PUSH2 0xA9E JUMPI POP POP PUSH2 0x61F SWAP4 POP DUP3 ADD ADD PUSH0 DUP1 DUP1 PUSH2 0xA69 JUMP JUMPDEST DUP6 SLOAD DUP9 DUP5 ADD DUP6 ADD MSTORE SWAP5 DUP6 ADD SWAP5 DUP8 SWAP5 POP SWAP2 DUP4 ADD SWAP2 PUSH2 0xA85 JUMP JUMPDEST SWAP3 POP POP POP PUSH2 0x61F SWAP5 SWAP3 POP PUSH1 0xFF NOT AND DUP3 DUP5 ADD MSTORE ISZERO ISZERO PUSH1 0x5 SHL DUP3 ADD ADD PUSH0 DUP1 DUP1 PUSH2 0xA69 JUMP JUMPDEST CALLVALUE PUSH2 0x1AE JUMPI PUSH1 0x20 CALLDATASIZE PUSH1 0x3 NOT ADD SLT PUSH2 0x1AE JUMPI PUSH1 0x4 CALLDATALOAD PUSH0 MSTORE PUSH1 0x5 PUSH1 0x20 MSTORE PUSH1 0x40 PUSH0 KECCAK256 DUP1 SLOAD PUSH2 0xB05 PUSH1 0x1 DUP4 ADD PUSH2 0xA38 JUMP JUMPDEST SWAP2 PUSH1 0x2 DUP2 ADD SLOAD SWAP1 PUSH1 0x3 DUP2 ADD SLOAD SWAP1 PUSH1 0x4 DUP2 ADD SLOAD PUSH1 0xFF PUSH1 0x6 PUSH1 0x5 DUP5 ADD SLOAD SWAP4 ADD SLOAD AND SWAP3 PUSH2 0xB41 PUSH1 0x40 MLOAD SWAP8 DUP9 SWAP8 DUP9 MSTORE PUSH1 0xE0 PUSH1 0x20 DUP10 ADD MSTORE PUSH1 0xE0 DUP9 ADD SWAP1 PUSH2 0x302 JUMP JUMPDEST SWAP5 PUSH1 0x40 DUP8 ADD MSTORE PUSH1 0x60 DUP7 ADD MSTORE PUSH1 0x80 DUP6 ADD MSTORE PUSH1 0xA0 DUP5 ADD MSTORE ISZERO ISZERO PUSH1 0xC0 DUP4 ADD MSTORE SUB SWAP1 RETURN JUMPDEST CALLVALUE PUSH2 0x1AE JUMPI PUSH2 0xB6F CALLDATASIZE PUSH2 0x459 JUMP JUMPDEST PUSH1 0x3 SLOAD SWAP2 SWAP3 SWAP2 PUSH1 0x1 PUSH1 0x1 PUSH1 0xA0 SHL SUB SWAP1 DUP2 AND CALLER EQ DUP1 ISZERO PUSH2 0xC08 JUMPI JUMPDEST ISZERO PUSH2 0x55F JUMPI DUP3 AND SWAP2 DUP3 ISZERO PUSH2 0x54D JUMPI DUP2 ISZERO PUSH2 0x52E JUMPI PUSH2 0xBB2 PUSH2 0x4D4 DUP6 PUSH0 MSTORE PUSH1 0x5 PUSH1 0x20 MSTORE PUSH1 0x40 PUSH0 KECCAK256 SWAP1 JUMP JUMPDEST DUP1 MLOAD ISZERO SWAP1 DUP2 ISZERO PUSH2 0xBFB JUMPI JUMPDEST POP PUSH2 0x52E JUMPI DUP2 PUSH2 0x519 PUSH2 0x529 SWAP3 PUSH32 0x5274C6AA575B276214A3605AA737D54549CAE96D320F59DA917537451CCF4E18 SWAP5 DUP8 PUSH2 0xBF5 PUSH2 0x1584 JUMP JUMPDEST SWAP3 PUSH2 0x1ABA JUMP JUMPDEST PUSH1 0xC0 ADD MLOAD ISZERO SWAP1 POP PUSH0 PUSH2 0xBBD JUMP JUMPDEST POP CALLER PUSH0 MSTORE PUSH1 0x6 PUSH1 0x20 MSTORE PUSH1 0xFF PUSH1 0x40 PUSH0 KECCAK256 SLOAD AND PUSH2 0xB89 JUMP JUMPDEST CALLVALUE PUSH2 0x1AE JUMPI PUSH0 CALLDATASIZE PUSH1 0x3 NOT ADD SLT PUSH2 0x1AE JUMPI PUSH1 0x40 MLOAD PUSH0 PUSH1 0x4 SLOAD PUSH2 0xC3E DUP2 PUSH2 0xA00 JUMP JUMPDEST DUP1 DUP5 MSTORE SWAP1 PUSH1 0x20 SWAP1 PUSH1 0x1 SWAP1 DUP2 DUP2 AND SWAP1 DUP2 ISZERO PUSH2 0xCB1 JUMPI POP PUSH1 0x1 EQ PUSH2 0xC6B JUMPI JUMPDEST PUSH2 0x3C1 DUP6 PUSH2 0x3B5 DUP2 DUP8 SUB DUP3 PUSH2 0x5F1 JUMP JUMPDEST PUSH1 0x4 PUSH0 SWAP1 DUP2 MSTORE SWAP4 POP PUSH0 DUP1 MLOAD PUSH1 0x20 PUSH2 0x2131 DUP4 CODECOPY DUP2 MLOAD SWAP2 MSTORE JUMPDEST DUP4 DUP6 LT PUSH2 0xC9E JUMPI POP POP POP POP DUP2 ADD PUSH1 0x20 ADD PUSH2 0x3B5 DUP3 PUSH2 0x3C1 PUSH2 0xC5B JUMP JUMPDEST DUP1 SLOAD DUP7 DUP7 ADD DUP5 ADD MSTORE SWAP4 DUP3 ADD SWAP4 DUP2 ADD PUSH2 0xC82 JUMP JUMPDEST DUP7 SWAP6 POP PUSH2 0x3C1 SWAP7 SWAP4 POP PUSH1 0x20 SWAP3 POP PUSH2 0x3B5 SWAP5 SWAP2 POP PUSH1 0xFF NOT AND DUP3 DUP5 ADD MSTORE ISZERO ISZERO PUSH1 0x5 SHL DUP3 ADD ADD SWAP3 SWAP4 PUSH2 0xC5B JUMP JUMPDEST CALLVALUE PUSH2 0x1AE JUMPI PUSH0 CALLDATASIZE PUSH1 0x3 NOT ADD SLT PUSH2 0x1AE JUMPI PUSH2 0xCF3 PUSH2 0x1A8E JUMP JUMPDEST PUSH1 0x3 DUP1 SLOAD PUSH1 0x1 PUSH1 0x1 PUSH1 0xA0 SHL SUB NOT DUP2 AND SWAP1 SWAP2 SSTORE PUSH0 SWAP1 PUSH1 0x1 PUSH1 0x1 PUSH1 0xA0 SHL SUB AND PUSH32 0x8BE0079C531659141344CD1FD0A4F28419497F9722A3DAAFE3B4186F6B6457E0 DUP3 DUP1 LOG3 STOP JUMPDEST SWAP2 DUP2 PUSH1 0x1F DUP5 ADD SLT ISZERO PUSH2 0x1AE JUMPI DUP3 CALLDATALOAD SWAP2 PUSH1 0x1 PUSH1 0x1 PUSH1 0x40 SHL SUB DUP4 GT PUSH2 0x1AE JUMPI PUSH1 0x20 DUP4 DUP2 DUP7 ADD SWAP6 ADD ADD GT PUSH2 0x1AE JUMPI JUMP JUMPDEST CALLVALUE PUSH2 0x1AE JUMPI PUSH1 0x20 DUP1 PUSH1 0x3 NOT CALLDATASIZE ADD SLT PUSH2 0x1AE JUMPI PUSH1 0x1 PUSH1 0x1 PUSH1 0x40 SHL SUB PUSH1 0x4 CALLDATALOAD DUP2 DUP2 GT PUSH2 0x1AE JUMPI PUSH2 0xD95 SWAP1 CALLDATASIZE SWAP1 PUSH1 0x4 ADD PUSH2 0xD36 JUMP JUMPDEST SWAP2 PUSH2 0xD9E PUSH2 0x1A8E JUMP JUMPDEST DUP3 GT PUSH2 0x5B6 JUMPI PUSH2 0xDB8 DUP3 PUSH2 0xDB3 PUSH1 0x4 SLOAD PUSH2 0xA00 JUMP JUMPDEST PUSH2 0x1596 JUMP JUMPDEST PUSH0 SWAP3 PUSH1 0x1F DUP4 GT PUSH1 0x1 EQ PUSH2 0xE2A JUMPI POP PUSH2 0xE07 DUP3 DUP1 PUSH32 0x4B1DC5C136A3CE9FDED8DB0CE3D3366C58764EC3A8E4C2B9E52E4DDFE5EBBF7 SWAP6 PUSH0 SWAP2 PUSH2 0xE1F JUMPI JUMPDEST POP DUP2 PUSH1 0x1 SHL SWAP2 PUSH0 NOT SWAP1 PUSH1 0x3 SHL SHR NOT AND OR SWAP1 JUMP JUMPDEST PUSH1 0x4 SSTORE JUMPDEST PUSH2 0xE1A PUSH1 0x40 MLOAD SWAP3 DUP4 SWAP3 DUP4 PUSH2 0x165F JUMP JUMPDEST SUB SWAP1 LOG1 STOP JUMPDEST SWAP1 POP DUP4 ADD CALLDATALOAD PUSH0 PUSH2 0xDF4 JUMP JUMPDEST PUSH1 0x4 PUSH0 MSTORE PUSH1 0x1F NOT DUP4 AND SWAP4 PUSH0 DUP1 MLOAD PUSH1 0x20 PUSH2 0x2131 DUP4 CODECOPY DUP2 MLOAD SWAP2 MSTORE SWAP2 PUSH0 SWAP1 JUMPDEST DUP7 DUP3 LT PUSH2 0xEA1 JUMPI POP POP DUP4 PUSH32 0x4B1DC5C136A3CE9FDED8DB0CE3D3366C58764EC3A8E4C2B9E52E4DDFE5EBBF7 SWAP6 LT PUSH2 0xE88 JUMPI JUMPDEST POP POP PUSH1 0x1 DUP3 DUP2 SHL ADD PUSH1 0x4 SSTORE PUSH2 0xE0B JUMP JUMPDEST DUP3 ADD CALLDATALOAD PUSH0 NOT PUSH1 0x3 DUP6 SWAP1 SHL PUSH1 0xF8 AND SHR NOT AND SWAP1 SSTORE PUSH0 DUP1 PUSH2 0xE78 JUMP JUMPDEST DUP1 PUSH1 0x1 DUP5 SWAP6 DUP3 SWAP5 SWAP6 DUP9 ADD CALLDATALOAD DUP2 SSTORE ADD SWAP5 ADD SWAP3 ADD SWAP1 PUSH2 0xE46 JUMP JUMPDEST CALLVALUE PUSH2 0x1AE JUMPI PUSH0 CALLDATASIZE PUSH1 0x3 NOT ADD SLT PUSH2 0x1AE JUMPI PUSH1 0x3 SLOAD PUSH1 0x40 MLOAD PUSH1 0x1 PUSH1 0x1 PUSH1 0xA0 SHL SUB SWAP1 SWAP2 AND DUP2 MSTORE PUSH1 0x20 SWAP1 RETURN JUMPDEST CALLVALUE PUSH2 0x1AE JUMPI PUSH1 0x40 CALLDATASIZE PUSH1 0x3 NOT ADD SLT PUSH2 0x1AE JUMPI PUSH2 0xEFA PUSH2 0x198 JUMP JUMPDEST PUSH2 0xF02 PUSH2 0x829 JUMP JUMPDEST PUSH1 0x1 PUSH1 0x1 PUSH1 0xA0 SHL SUB DUP3 AND SWAP2 DUP3 ISZERO PUSH2 0xF7D JUMPI DUP2 PUSH2 0xF3C PUSH2 0xF4D SWAP3 CALLER PUSH0 MSTORE PUSH1 0x1 PUSH1 0x20 MSTORE PUSH1 0x40 PUSH0 KECCAK256 SWAP1 PUSH1 0x1 DUP1 PUSH1 0xA0 SHL SUB AND PUSH0 MSTORE PUSH1 0x20 MSTORE PUSH1 0x40 PUSH0 KECCAK256 SWAP1 JUMP JUMPDEST SWAP1 PUSH1 0xFF DUP1 NOT DUP4 SLOAD AND SWAP2 ISZERO ISZERO AND OR SWAP1 SSTORE JUMP JUMPDEST PUSH1 0x40 MLOAD SWAP1 ISZERO ISZERO DUP2 MSTORE PUSH32 0x17307EAB39AB6107E8899845AD3D59BD9653F200F220920489CA2B5937696C31 PUSH1 0x20 CALLER SWAP3 LOG3 STOP JUMPDEST PUSH1 0x40 MLOAD PUSH3 0xCED3E1 PUSH1 0xE8 SHL DUP2 MSTORE PUSH0 PUSH1 0x4 DUP3 ADD MSTORE PUSH1 0x24 SWAP1 REVERT JUMPDEST CALLVALUE PUSH2 0x1AE JUMPI PUSH1 0x20 CALLDATASIZE PUSH1 0x3 NOT ADD SLT PUSH2 0x1AE JUMPI PUSH1 0x1 PUSH1 0x1 PUSH1 0xA0 SHL SUB PUSH2 0xFB5 PUSH2 0x198 JUMP JUMPDEST AND PUSH0 MSTORE PUSH1 0x6 PUSH1 0x20 MSTORE PUSH1 0x20 PUSH1 0xFF PUSH1 0x40 PUSH0 KECCAK256 SLOAD AND PUSH1 0x40 MLOAD SWAP1 ISZERO ISZERO DUP2 MSTORE RETURN JUMPDEST CALLVALUE PUSH2 0x1AE JUMPI PUSH1 0xE0 CALLDATASIZE PUSH1 0x3 NOT ADD SLT PUSH2 0x1AE JUMPI PUSH1 0x4 CALLDATALOAD PUSH1 0x24 CALLDATALOAD PUSH1 0x1 PUSH1 0x1 PUSH1 0x40 SHL SUB DUP2 GT PUSH2 0x1AE JUMPI PUSH2 0x1004 SWAP1 CALLDATASIZE SWAP1 PUSH1 0x4 ADD PUSH2 0xD36 JUMP JUMPDEST PUSH1 0x64 CALLDATALOAD SWAP2 PUSH1 0x44 CALLDATALOAD PUSH1 0x84 CALLDATALOAD PUSH1 0xA4 CALLDATALOAD PUSH2 0x1019 PUSH2 0x838 JUMP JUMPDEST SWAP2 PUSH2 0x1022 PUSH2 0x1A8E JUMP JUMPDEST DUP8 ISZERO PUSH2 0x52E JUMPI DUP6 ISZERO PUSH2 0x52E JUMPI PUSH32 0xA50A1B4C010F0DB10DD05BF8286245DE2ED442FAA99885A5F3DD259C66DB55AA SWAP7 PUSH2 0x10BC SWAP5 PUSH2 0x10B0 PUSH2 0x105F PUSH2 0x612 JUMP JUMPDEST DUP12 DUP2 MSTORE PUSH2 0x106D CALLDATASIZE DUP12 DUP12 PUSH2 0x6B3 JUMP JUMPDEST PUSH1 0x20 DUP3 ADD MSTORE DUP3 PUSH1 0x40 DUP3 ADD MSTORE DUP4 PUSH1 0x60 DUP3 ADD MSTORE DUP5 PUSH1 0x80 DUP3 ADD MSTORE DUP6 PUSH1 0xA0 DUP3 ADD MSTORE PUSH2 0x1099 DUP8 PUSH1 0xC0 DUP4 ADD SWAP1 ISZERO ISZERO SWAP1 MSTORE JUMP JUMPDEST PUSH2 0x10AB DUP13 PUSH0 MSTORE PUSH1 0x5 PUSH1 0x20 MSTORE PUSH1 0x40 PUSH0 KECCAK256 SWAP1 JUMP JUMPDEST PUSH2 0x1670 JUMP JUMPDEST PUSH1 0x40 MLOAD SWAP8 DUP9 SWAP8 DUP9 PUSH2 0x17B0 JUMP JUMPDEST SUB SWAP1 LOG2 STOP JUMPDEST CALLVALUE PUSH2 0x1AE JUMPI PUSH1 0x40 CALLDATASIZE PUSH1 0x3 NOT ADD SLT PUSH2 0x1AE JUMPI PUSH1 0x20 PUSH1 0xFF PUSH2 0x1111 PUSH2 0x10E1 PUSH2 0x198 JUMP JUMPDEST PUSH2 0x10E9 PUSH2 0x1B2 JUMP JUMPDEST PUSH1 0x1 PUSH1 0x1 PUSH1 0xA0 SHL SUB SWAP2 DUP3 AND PUSH0 SWAP1 DUP2 MSTORE PUSH1 0x1 DUP7 MSTORE PUSH1 0x40 DUP1 DUP3 KECCAK256 SWAP3 SWAP1 SWAP4 AND DUP2 MSTORE PUSH1 0x20 SWAP2 SWAP1 SWAP2 MSTORE KECCAK256 SWAP1 JUMP JUMPDEST SLOAD AND PUSH1 0x40 MLOAD SWAP1 ISZERO ISZERO DUP2 MSTORE RETURN JUMPDEST CALLVALUE PUSH2 0x1AE JUMPI PUSH1 0x40 CALLDATASIZE PUSH1 0x3 NOT ADD SLT PUSH2 0x1AE JUMPI PUSH2 0x1136 PUSH2 0x198 JUMP JUMPDEST PUSH2 0x113E PUSH2 0x829 JUMP JUMPDEST SWAP1 PUSH2 0x1147 PUSH2 0x1A8E JUMP JUMPDEST PUSH1 0x1 PUSH1 0x1 PUSH1 0xA0 SHL SUB AND SWAP1 DUP2 ISZERO PUSH2 0x54D JUMPI PUSH1 0x20 PUSH32 0x17F5B635C984BD6BD0661FD547F6085EF1A0813EF0C42D24B12A06F6824B5E08 SWAP2 DUP4 PUSH0 MSTORE PUSH1 0x6 DUP3 MSTORE PUSH2 0x8C5 DUP2 PUSH1 0x40 PUSH0 KECCAK256 SWAP1 PUSH1 0xFF DUP1 NOT DUP4 SLOAD AND SWAP2 ISZERO ISZERO AND OR SWAP1 SSTORE JUMP JUMPDEST SWAP5 SWAP2 SWAP7 SWAP6 SWAP3 PUSH2 0x11B5 PUSH1 0xA0 SWAP6 SWAP3 PUSH1 0xC0 DUP9 MSTORE PUSH1 0xC0 DUP9 ADD SWAP1 PUSH2 0x302 JUMP JUMPDEST SWAP8 PUSH1 0x20 DUP8 ADD MSTORE PUSH1 0x40 DUP7 ADD MSTORE PUSH1 0x60 DUP6 ADD MSTORE PUSH1 0x80 DUP5 ADD MSTORE ISZERO ISZERO SWAP2 ADD MSTORE JUMP JUMPDEST CALLVALUE PUSH2 0x1AE JUMPI PUSH1 0x20 CALLDATASIZE PUSH1 0x3 NOT ADD SLT PUSH2 0x1AE JUMPI PUSH1 0x4 CALLDATALOAD PUSH0 MSTORE PUSH1 0x5 PUSH1 0x20 MSTORE PUSH1 0x40 PUSH0 KECCAK256 PUSH1 0x40 MLOAD PUSH2 0x11FC DUP2 PUSH2 0x59B JUMP JUMPDEST DUP2 SLOAD DUP2 MSTORE PUSH2 0x3C1 PUSH2 0x120F PUSH1 0x1 DUP5 ADD PUSH2 0xA38 JUMP JUMPDEST PUSH1 0x20 DUP4 ADD SWAP1 DUP2 MSTORE PUSH1 0x2 DUP5 ADD SLOAD SWAP3 PUSH1 0x40 DUP2 ADD SWAP4 DUP5 MSTORE PUSH1 0x3 DUP6 ADD SLOAD SWAP5 PUSH1 0x60 DUP3 ADD SWAP6 DUP7 MSTORE PUSH2 0x1274 PUSH1 0x4 DUP3 ADD SLOAD SWAP4 PUSH1 0x80 DUP5 ADD SWAP5 DUP6 MSTORE PUSH2 0x1264 PUSH1 0xC0 PUSH1 0xFF PUSH1 0x6 PUSH1 0x5 DUP8 ADD SLOAD SWAP7 PUSH1 0xA0 DUP10 ADD SWAP8 DUP9 MSTORE ADD SLOAD AND SWAP6 ADD SWAP5 DUP6 SWAP1 ISZERO ISZERO SWAP1 MSTORE JUMP JUMPDEST MLOAD SWAP6 MLOAD SWAP7 MLOAD SWAP4 MLOAD SWAP2 MLOAD SWAP3 MLOAD ISZERO ISZERO SWAP1 JUMP JUMPDEST SWAP3 PUSH1 0x40 MLOAD SWAP7 DUP8 SWAP7 DUP8 PUSH2 0x119B JUMP JUMPDEST CALLVALUE PUSH2 0x1AE JUMPI PUSH1 0xA0 CALLDATASIZE PUSH1 0x3 NOT ADD SLT PUSH2 0x1AE JUMPI PUSH2 0x129A PUSH2 0x198 JUMP JUMPDEST PUSH2 0x12A2 PUSH2 0x1B2 JUMP JUMPDEST PUSH1 0x84 CALLDATALOAD PUSH1 0x1 PUSH1 0x1 PUSH1 0x40 SHL SUB DUP2 GT PUSH2 0x1AE JUMPI PUSH2 0x12C1 SWAP1 CALLDATASIZE SWAP1 PUSH1 0x4 ADD PUSH2 0x6E9 JUMP JUMPDEST SWAP1 PUSH1 0x1 PUSH1 0x1 PUSH1 0xA0 SHL SUB DUP4 DUP2 AND SWAP1 CALLER DUP3 EQ ISZERO DUP1 PUSH2 0x1378 JUMPI JUMPDEST PUSH2 0x1351 JUMPI DUP3 AND ISZERO PUSH2 0x1339 JUMPI ISZERO PUSH2 0x1322 JUMPI PUSH2 0x7AA SWAP3 PUSH2 0x131A PUSH1 0x64 CALLDATALOAD PUSH1 0x44 CALLDATALOAD SWAP2 PUSH1 0x40 MLOAD SWAP3 PUSH1 0x1 DUP5 MSTORE PUSH1 0x20 DUP5 ADD MSTORE PUSH1 0x40 DUP4 ADD SWAP2 PUSH1 0x1 DUP4 MSTORE PUSH1 0x60 DUP5 ADD MSTORE PUSH1 0x80 DUP4 ADD PUSH1 0x40 MSTORE JUMP JUMPDEST SWAP3 SWAP1 SWAP2 PUSH2 0x1BFC JUMP JUMPDEST PUSH1 0x40 MLOAD PUSH3 0x6A0D45 PUSH1 0xE2 SHL DUP2 MSTORE PUSH0 PUSH1 0x4 DUP3 ADD MSTORE PUSH1 0x24 SWAP1 REVERT JUMPDEST PUSH1 0x40 MLOAD PUSH4 0x2BFA23E7 PUSH1 0xE1 SHL DUP2 MSTORE PUSH0 PUSH1 0x4 DUP3 ADD MSTORE PUSH1 0x24 SWAP1 REVERT JUMPDEST PUSH1 0x40 MLOAD PUSH4 0x711BEC91 PUSH1 0xE1 SHL DUP2 MSTORE CALLER PUSH1 0x4 DUP3 ADD MSTORE PUSH1 0x1 PUSH1 0x1 PUSH1 0xA0 SHL SUB DUP7 AND PUSH1 0x24 DUP3 ADD MSTORE PUSH1 0x44 SWAP1 REVERT JUMPDEST POP PUSH0 DUP3 DUP2 MSTORE PUSH1 0x1 PUSH1 0x20 SWAP1 DUP2 MSTORE PUSH1 0x40 DUP1 DUP4 KECCAK256 CALLER DUP5 MSTORE SWAP1 SWAP2 MSTORE SWAP1 KECCAK256 SLOAD PUSH1 0xFF AND ISZERO PUSH2 0x12D8 JUMP JUMPDEST CALLVALUE PUSH2 0x1AE JUMPI PUSH1 0x20 CALLDATASIZE PUSH1 0x3 NOT ADD SLT PUSH2 0x1AE JUMPI PUSH2 0x13B4 PUSH2 0x198 JUMP JUMPDEST PUSH2 0x13BC PUSH2 0x1A8E JUMP JUMPDEST PUSH1 0x1 PUSH1 0x1 PUSH1 0xA0 SHL SUB SWAP1 DUP2 AND SWAP1 DUP2 ISZERO PUSH2 0x140F JUMPI PUSH1 0x3 SLOAD DUP3 PUSH12 0xFFFFFFFFFFFFFFFFFFFFFFFF PUSH1 0xA0 SHL DUP3 AND OR PUSH1 0x3 SSTORE AND PUSH32 0x8BE0079C531659141344CD1FD0A4F28419497F9722A3DAAFE3B4186F6B6457E0 PUSH0 DUP1 LOG3 STOP JUMPDEST PUSH1 0x40 MLOAD PUSH4 0x1E4FBDF7 PUSH1 0xE0 SHL DUP2 MSTORE PUSH0 PUSH1 0x4 DUP3 ADD MSTORE PUSH1 0x24 SWAP1 REVERT JUMPDEST SWAP1 PUSH2 0x143A PUSH1 0x20 SWAP3 DUP3 DUP2 MLOAD SWAP5 DUP6 SWAP3 ADD PUSH2 0x2E1 JUMP JUMPDEST ADD SWAP1 JUMP JUMPDEST SWAP1 PUSH1 0x40 MLOAD PUSH2 0x144B DUP2 PUSH2 0x59B JUMP JUMPDEST PUSH1 0xC0 PUSH1 0xFF PUSH1 0x6 DUP4 SWAP6 DUP1 SLOAD DUP6 MSTORE PUSH2 0x1463 PUSH1 0x1 DUP3 ADD PUSH2 0xA38 JUMP JUMPDEST PUSH1 0x20 DUP7 ADD MSTORE PUSH1 0x2 DUP2 ADD SLOAD PUSH1 0x40 DUP7 ADD MSTORE PUSH1 0x3 DUP2 ADD SLOAD PUSH1 0x60 DUP7 ADD MSTORE PUSH1 0x4 DUP2 ADD SLOAD PUSH1 0x80 DUP7 ADD MSTORE PUSH1 0x5 DUP2 ADD SLOAD PUSH1 0xA0 DUP7 ADD MSTORE ADD SLOAD AND ISZERO ISZERO SWAP2 ADD MSTORE JUMP JUMPDEST PUSH4 0x4E487B71 PUSH1 0xE0 SHL PUSH0 MSTORE PUSH1 0x32 PUSH1 0x4 MSTORE PUSH1 0x24 PUSH0 REVERT JUMPDEST DUP1 MLOAD DUP3 LT ISZERO PUSH2 0x14C2 JUMPI PUSH1 0x20 SWAP2 PUSH1 0x5 SHL ADD ADD SWAP1 JUMP JUMPDEST PUSH2 0x149A JUMP JUMPDEST SWAP2 SWAP1 SWAP2 DUP1 MLOAD DUP4 MLOAD DUP1 DUP3 SUB PUSH2 0x1562 JUMPI POP POP DUP1 MLOAD SWAP1 PUSH2 0x14FC PUSH2 0x14E6 DUP4 PUSH2 0x621 JUMP JUMPDEST SWAP3 PUSH2 0x14F4 PUSH1 0x40 MLOAD SWAP5 DUP6 PUSH2 0x5F1 JUMP JUMPDEST DUP1 DUP5 MSTORE PUSH2 0x621 JUMP JUMPDEST PUSH1 0x20 SWAP2 SWAP1 PUSH1 0x1F NOT ADD CALLDATASIZE DUP5 DUP5 ADD CALLDATACOPY PUSH0 JUMPDEST DUP2 MLOAD DUP2 LT ISZERO PUSH2 0x155A JUMPI PUSH1 0x5 DUP2 SWAP1 SHL DUP3 DUP2 ADD DUP5 ADD MLOAD SWAP1 DUP8 ADD DUP5 ADD MLOAD PUSH0 SWAP1 DUP2 MSTORE PUSH1 0x20 DUP2 DUP2 MSTORE PUSH1 0x40 DUP1 DUP4 KECCAK256 PUSH1 0x1 PUSH1 0x1 PUSH1 0xA0 SHL SUB SWAP1 SWAP5 AND DUP4 MSTORE SWAP3 SWAP1 MSTORE KECCAK256 SLOAD PUSH1 0x1 SWAP2 SWAP1 PUSH2 0x1553 DUP3 DUP8 PUSH2 0x14AE JUMP JUMPDEST MSTORE ADD PUSH2 0x150B JUMP JUMPDEST POP SWAP2 SWAP4 POP POP POP JUMP JUMPDEST PUSH1 0x40 MLOAD PUSH4 0x5B059991 PUSH1 0xE0 SHL DUP2 MSTORE PUSH1 0x4 DUP2 ADD SWAP2 SWAP1 SWAP2 MSTORE PUSH1 0x24 DUP2 ADD SWAP2 SWAP1 SWAP2 MSTORE PUSH1 0x44 SWAP1 REVERT JUMPDEST PUSH1 0x40 MLOAD SWAP1 PUSH2 0x1591 DUP3 PUSH2 0x5BB JUMP JUMPDEST PUSH0 DUP3 MSTORE JUMP JUMPDEST PUSH1 0x1F DUP2 GT PUSH2 0x15A2 JUMPI POP POP JUMP JUMPDEST PUSH1 0x4 PUSH0 MSTORE PUSH0 DUP1 MLOAD PUSH1 0x20 PUSH2 0x2131 DUP4 CODECOPY DUP2 MLOAD SWAP2 MSTORE SWAP1 PUSH1 0x20 PUSH1 0x1F DUP5 ADD PUSH1 0x5 SHR DUP4 ADD SWAP4 LT PUSH2 0x15E6 JUMPI JUMPDEST PUSH1 0x1F ADD PUSH1 0x5 SHR ADD SWAP1 JUMPDEST DUP2 DUP2 LT PUSH2 0x15DB JUMPI POP POP JUMP JUMPDEST PUSH0 DUP2 SSTORE PUSH1 0x1 ADD PUSH2 0x15D0 JUMP JUMPDEST SWAP1 SWAP2 POP DUP2 SWAP1 PUSH2 0x15C7 JUMP JUMPDEST PUSH1 0x1F DUP3 GT PUSH2 0x15FD JUMPI POP POP POP JUMP JUMPDEST PUSH0 MSTORE PUSH1 0x20 PUSH0 KECCAK256 SWAP1 PUSH1 0x20 PUSH1 0x1F DUP5 ADD PUSH1 0x5 SHR DUP4 ADD SWAP4 LT PUSH2 0x1635 JUMPI JUMPDEST PUSH1 0x1F ADD PUSH1 0x5 SHR ADD SWAP1 JUMPDEST DUP2 DUP2 LT PUSH2 0x162A JUMPI POP POP JUMP JUMPDEST PUSH0 DUP2 SSTORE PUSH1 0x1 ADD PUSH2 0x161F JUMP JUMPDEST SWAP1 SWAP2 POP DUP2 SWAP1 PUSH2 0x1616 JUMP JUMPDEST SWAP1 DUP1 PUSH1 0x20 SWAP4 SWAP3 DUP2 DUP5 MSTORE DUP5 DUP5 ADD CALLDATACOPY PUSH0 DUP3 DUP3 ADD DUP5 ADD MSTORE PUSH1 0x1F ADD PUSH1 0x1F NOT AND ADD ADD SWAP1 JUMP JUMPDEST SWAP2 PUSH1 0x20 PUSH2 0x338 SWAP4 DUP2 DUP2 MSTORE ADD SWAP2 PUSH2 0x163F JUMP JUMPDEST SWAP1 DUP1 MLOAD DUP3 SSTORE PUSH1 0x1 DUP1 DUP4 ADD SWAP1 PUSH1 0x20 DUP1 DUP5 ADD MLOAD DUP1 MLOAD SWAP3 PUSH1 0x1 PUSH1 0x1 PUSH1 0x40 SHL SUB DUP5 GT PUSH2 0x5B6 JUMPI PUSH2 0x16A6 DUP5 PUSH2 0x16A0 DUP8 SLOAD PUSH2 0xA00 JUMP JUMPDEST DUP8 PUSH2 0x15F0 JUMP JUMPDEST PUSH1 0x20 SWAP3 PUSH1 0x1F DUP6 GT PUSH1 0x1 EQ PUSH2 0x1735 JUMPI POP POP SWAP4 PUSH1 0x6 SWAP4 PUSH2 0x16E5 DUP5 PUSH2 0x1717 SWAP6 PUSH1 0xC0 SWAP6 PUSH2 0x61F SWAP11 SWAP10 PUSH0 SWAP3 PUSH2 0x172A JUMPI JUMPDEST POP POP DUP2 PUSH1 0x1 SHL SWAP2 PUSH0 NOT SWAP1 PUSH1 0x3 SHL SHR NOT AND OR SWAP1 JUMP JUMPDEST SWAP1 SSTORE JUMPDEST PUSH1 0x40 DUP2 ADD MLOAD PUSH1 0x2 DUP7 ADD SSTORE PUSH1 0x60 DUP2 ADD MLOAD PUSH1 0x3 DUP7 ADD SSTORE PUSH1 0x80 DUP2 ADD MLOAD PUSH1 0x4 DUP7 ADD SSTORE PUSH1 0xA0 DUP2 ADD MLOAD PUSH1 0x5 DUP7 ADD SSTORE ADD MLOAD ISZERO ISZERO SWAP1 JUMP JUMPDEST SWAP2 ADD SWAP1 PUSH1 0xFF DUP1 NOT DUP4 SLOAD AND SWAP2 ISZERO ISZERO AND OR SWAP1 SSTORE JUMP JUMPDEST ADD MLOAD SWAP1 POP PUSH0 DUP1 PUSH2 0x16D1 JUMP JUMPDEST SWAP3 SWAP2 SWAP1 PUSH1 0x1F NOT DUP6 AND SWAP1 PUSH2 0x174B DUP8 PUSH0 MSTORE PUSH1 0x20 PUSH0 KECCAK256 SWAP1 JUMP JUMPDEST SWAP5 PUSH0 SWAP2 JUMPDEST DUP4 DUP4 LT PUSH2 0x1799 JUMPI POP POP POP DUP5 PUSH1 0xC0 SWAP5 PUSH2 0x61F SWAP10 SWAP9 SWAP5 PUSH1 0x6 SWAP9 SWAP5 PUSH2 0x1717 SWAP9 PUSH1 0x1 SWAP6 LT PUSH2 0x1781 JUMPI JUMPDEST POP POP POP DUP2 SHL ADD SWAP1 SSTORE PUSH2 0x16E8 JUMP JUMPDEST ADD MLOAD PUSH0 NOT PUSH1 0xF8 DUP5 PUSH1 0x3 SHL AND SHR NOT AND SWAP1 SSTORE PUSH0 DUP1 DUP1 PUSH2 0x1774 JUMP JUMPDEST DUP5 DUP7 ADD MLOAD DUP8 SSTORE SWAP6 DUP7 ADD SWAP6 SWAP5 DUP2 ADD SWAP5 SWAP2 DUP2 ADD SWAP2 PUSH2 0x174F JUMP JUMPDEST SWAP6 SWAP3 SWAP8 SWAP7 SWAP4 SWAP1 PUSH2 0x11B5 SWAP1 PUSH1 0xA0 SWAP7 SWAP4 PUSH1 0xC0 DUP10 MSTORE PUSH1 0xC0 DUP10 ADD SWAP2 PUSH2 0x163F JUMP JUMPDEST PUSH4 0x4E487B71 PUSH1 0xE0 SHL PUSH0 MSTORE PUSH1 0x11 PUSH1 0x4 MSTORE PUSH1 0x24 PUSH0 REVERT JUMPDEST PUSH0 NOT DUP2 EQ PUSH2 0x17EE JUMPI PUSH1 0x1 ADD SWAP1 JUMP JUMPDEST PUSH2 0x17CC JUMP JUMPDEST SWAP1 PUSH2 0x17FD DUP3 PUSH2 0x698 JUMP JUMPDEST PUSH2 0x180A PUSH1 0x40 MLOAD SWAP2 DUP3 PUSH2 0x5F1 JUMP JUMPDEST DUP3 DUP2 MSTORE DUP1 SWAP3 PUSH2 0x181B PUSH1 0x1F NOT SWAP2 PUSH2 0x698 JUMP JUMPDEST ADD SWAP1 PUSH1 0x20 CALLDATASIZE SWAP2 ADD CALLDATACOPY JUMP JUMPDEST PUSH0 NOT DUP2 ADD SWAP2 SWAP1 DUP3 GT PUSH2 0x17EE JUMPI JUMP JUMPDEST PUSH1 0x30 ADD SWAP1 DUP2 PUSH1 0x30 GT PUSH2 0x17EE JUMPI JUMP JUMPDEST SWAP2 SWAP1 DUP3 ADD DUP1 SWAP3 GT PUSH2 0x17EE JUMPI JUMP JUMPDEST SWAP1 DUP2 MLOAD DUP2 LT ISZERO PUSH2 0x14C2 JUMPI ADD PUSH1 0x20 ADD SWAP1 JUMP JUMPDEST DUP1 ISZERO PUSH2 0x18E4 JUMPI DUP1 PUSH0 DUP2 DUP1 JUMPDEST PUSH2 0x18CC JUMPI POP PUSH2 0x1878 DUP2 PUSH2 0x17F3 JUMP JUMPDEST SWAP3 JUMPDEST PUSH2 0x1883 JUMPI POP POP SWAP1 JUMP JUMPDEST PUSH2 0x188C SWAP1 PUSH2 0x1825 JUMP JUMPDEST SWAP1 PUSH1 0xA SWAP1 PUSH2 0x18B7 PUSH2 0x18A7 PUSH2 0x18A1 DUP5 DUP5 MOD PUSH2 0x1833 JUMP JUMPDEST PUSH1 0xFF AND SWAP1 JUMP JUMPDEST PUSH1 0xF8 SHL PUSH1 0x1 PUSH1 0x1 PUSH1 0xF8 SHL SUB NOT AND SWAP1 JUMP JUMPDEST PUSH0 BYTE PUSH2 0x18C3 DUP5 DUP7 PUSH2 0x184E JUMP JUMPDEST MSTORE8 DIV SWAP1 DUP2 PUSH2 0x187A JUMP JUMPDEST SWAP2 POP PUSH2 0x18D9 PUSH1 0xA SWAP2 PUSH2 0x17E0 JUMP JUMPDEST SWAP2 DIV DUP1 DUP4 SWAP3 SWAP2 PUSH2 0x186A JUMP JUMPDEST POP PUSH1 0x40 MLOAD PUSH2 0x18F1 DUP2 PUSH2 0x5D6 JUMP JUMPDEST PUSH1 0x1 DUP2 MSTORE PUSH1 0x3 PUSH1 0xFC SHL PUSH1 0x20 DUP3 ADD MSTORE SWAP1 JUMP JUMPDEST PUSH1 0x1 PUSH1 0x1 PUSH1 0xA0 SHL SUB DUP2 AND SWAP3 SWAP1 SWAP2 SWAP1 DUP4 ISZERO PUSH2 0x1322 JUMPI PUSH2 0x193D PUSH1 0x40 MLOAD SWAP3 PUSH1 0x1 DUP5 MSTORE PUSH1 0x20 DUP5 ADD MSTORE PUSH1 0x40 DUP4 ADD SWAP2 PUSH1 0x1 DUP4 MSTORE PUSH1 0x60 DUP5 ADD MSTORE PUSH1 0x80 DUP4 ADD PUSH1 0x40 MSTORE JUMP JUMPDEST SWAP2 SWAP1 PUSH1 0x40 SWAP5 PUSH0 PUSH1 0x40 MLOAD PUSH2 0x194F DUP2 PUSH2 0x5BB JUMP JUMPDEST MSTORE DUP2 MLOAD DUP5 MLOAD SWAP1 DUP2 DUP2 SUB PUSH2 0x1562 JUMPI POP POP PUSH0 JUMPDEST DUP3 MLOAD DUP2 LT ISZERO PUSH2 0x1A05 JUMPI DUP1 PUSH1 0x5 SHL PUSH1 0x20 DUP1 DUP3 DUP7 ADD ADD MLOAD SWAP2 DUP8 ADD ADD MLOAD PUSH2 0x19A4 DUP7 PUSH2 0x198F DUP5 PUSH0 MSTORE PUSH0 PUSH1 0x20 MSTORE PUSH1 0x40 PUSH0 KECCAK256 SWAP1 JUMP JUMPDEST SWAP1 PUSH1 0x1 DUP1 PUSH1 0xA0 SHL SUB AND PUSH0 MSTORE PUSH1 0x20 MSTORE PUSH1 0x40 PUSH0 KECCAK256 SWAP1 JUMP JUMPDEST SLOAD DUP2 DUP2 LT PUSH2 0x19CF JUMPI DUP7 PUSH2 0x198F PUSH1 0x1 SWAP6 SWAP5 SWAP4 PUSH2 0x19C8 SWAP4 SUB SWAP4 PUSH0 MSTORE PUSH0 PUSH1 0x20 MSTORE PUSH1 0x40 PUSH0 KECCAK256 SWAP1 JUMP JUMPDEST SSTORE ADD PUSH2 0x1960 JUMP JUMPDEST DUP10 MLOAD PUSH4 0x3DEE4C5 PUSH1 0xE0 SHL DUP2 MSTORE PUSH1 0x1 PUSH1 0x1 PUSH1 0xA0 SHL SUB DUP9 AND PUSH1 0x4 DUP3 ADD MSTORE PUSH1 0x24 DUP2 ADD SWAP2 SWAP1 SWAP2 MSTORE PUSH1 0x44 DUP2 ADD DUP3 SWAP1 MSTORE PUSH1 0x64 DUP2 ADD DUP4 SWAP1 MSTORE PUSH1 0x84 SWAP1 REVERT JUMPDEST POP SWAP5 POP PUSH0 SWAP4 SWAP3 SWAP2 POP PUSH1 0x1 DUP2 MLOAD EQ DUP5 EQ PUSH2 0x1A5B JUMPI PUSH1 0x20 SWAP1 DUP2 ADD MLOAD SWAP2 DUP2 ADD MLOAD PUSH1 0x40 DUP1 MLOAD SWAP4 DUP5 MSTORE SWAP2 DUP4 ADD MSTORE CALLER SWAP2 PUSH32 0xC3D58168C5AE7397731D063D5BBF3D657854427343F4C083240F7AACAA2D0F62 SWAP2 DUP2 SWAP1 DUP2 ADD JUMPDEST SUB SWAP1 LOG4 JUMP JUMPDEST PUSH1 0x40 MLOAD CALLER SWAP3 PUSH32 0x4A39DC06D4C0DBC64B70AF90FD698A233A518AA5D07E595D983B8C0526C8F7FB SWAP3 DUP3 SWAP2 PUSH2 0x1A56 SWAP2 DUP4 PUSH2 0x1DEA JUMP JUMPDEST PUSH1 0x3 SLOAD PUSH1 0x1 PUSH1 0x1 PUSH1 0xA0 SHL SUB AND CALLER SUB PUSH2 0x1AA2 JUMPI JUMP JUMPDEST PUSH1 0x40 MLOAD PUSH4 0x118CDAA7 PUSH1 0xE0 SHL DUP2 MSTORE CALLER PUSH1 0x4 DUP3 ADD MSTORE PUSH1 0x24 SWAP1 REVERT JUMPDEST PUSH1 0x1 PUSH1 0x1 PUSH1 0xA0 SHL SUB DUP2 AND SWAP4 SWAP3 SWAP1 SWAP2 SWAP1 DUP5 ISZERO PUSH2 0x1339 JUMPI PUSH2 0x1AF6 PUSH1 0x40 MLOAD SWAP3 PUSH1 0x1 DUP5 MSTORE PUSH1 0x20 DUP5 ADD MSTORE PUSH1 0x40 DUP4 ADD SWAP2 PUSH1 0x1 DUP4 MSTORE PUSH1 0x60 DUP5 ADD MSTORE PUSH1 0x80 DUP4 ADD PUSH1 0x40 MSTORE JUMP JUMPDEST SWAP3 DUP2 MLOAD DUP5 MLOAD SWAP1 DUP2 DUP2 SUB PUSH2 0x1562 JUMPI POP POP PUSH0 JUMPDEST DUP3 MLOAD DUP2 LT ISZERO PUSH2 0x1B4C JUMPI DUP1 PUSH1 0x1 SWAP2 PUSH1 0x5 SHL PUSH2 0x1B44 PUSH2 0x1B3C DUP8 PUSH2 0x198F PUSH1 0x20 DUP1 DUP7 DUP12 ADD ADD MLOAD SWAP6 DUP13 ADD ADD MLOAD SWAP5 PUSH0 MSTORE PUSH0 PUSH1 0x20 MSTORE PUSH1 0x40 PUSH0 KECCAK256 SWAP1 JUMP JUMPDEST SWAP2 DUP3 SLOAD PUSH2 0x1841 JUMP JUMPDEST SWAP1 SSTORE ADD PUSH2 0x1B07 JUMP JUMPDEST POP SWAP3 SWAP2 SWAP4 PUSH1 0x1 DUP3 MLOAD EQ PUSH0 EQ PUSH2 0x1BC1 JUMPI PUSH1 0x20 DUP3 DUP2 ADD MLOAD DUP5 DUP3 ADD MLOAD PUSH1 0x40 DUP1 MLOAD SWAP3 DUP4 MSTORE SWAP3 DUP3 ADD MSTORE PUSH0 SWAP2 CALLER SWAP2 PUSH32 0xC3D58168C5AE7397731D063D5BBF3D657854427343F4C083240F7AACAA2D0F62 SWAP2 SWAP1 LOG4 JUMPDEST DUP1 MLOAD PUSH1 0x1 SUB PUSH2 0x1BB7 JUMPI SWAP1 PUSH1 0x20 DUP1 PUSH2 0x61F SWAP6 SWAP4 ADD MLOAD SWAP2 ADD MLOAD SWAP2 CALLER PUSH2 0x20C4 JUMP JUMPDEST PUSH2 0x61F SWAP4 CALLER PUSH2 0x1ECF JUMP JUMPDEST PUSH0 PUSH1 0x40 MLOAD PUSH32 0x4A39DC06D4C0DBC64B70AF90FD698A233A518AA5D07E595D983B8C0526C8F7FB CALLER SWAP2 DUP1 PUSH2 0x1BF4 DUP9 DUP9 DUP4 PUSH2 0x1DEA JUMP JUMPDEST SUB SWAP1 LOG4 PUSH2 0x1B99 JUMP JUMPDEST SWAP5 SWAP2 SWAP1 SWAP2 DUP2 MLOAD DUP5 MLOAD SWAP1 DUP2 DUP2 SUB PUSH2 0x1562 JUMPI POP POP PUSH0 JUMPDEST DUP3 MLOAD DUP2 LT ISZERO PUSH2 0x1CF5 JUMPI PUSH1 0x5 DUP2 SWAP1 SHL DUP4 DUP2 ADD PUSH1 0x20 SWAP1 DUP2 ADD MLOAD SWAP2 DUP8 ADD ADD MLOAD PUSH1 0x1 PUSH1 0x1 PUSH1 0xA0 SHL SUB SWAP3 SWAP2 DUP7 SWAP1 DUP11 DUP6 AND PUSH2 0x1C75 JUMPI JUMPDEST PUSH1 0x1 SWAP5 DUP3 AND PUSH2 0x1C53 JUMPI JUMPDEST POP POP POP ADD PUSH2 0x1C10 JUMP JUMPDEST PUSH2 0x1C6B SWAP2 PUSH2 0x198F PUSH2 0x1B3C SWAP3 PUSH0 MSTORE PUSH0 PUSH1 0x20 MSTORE PUSH1 0x40 PUSH0 KECCAK256 SWAP1 JUMP JUMPDEST SWAP1 SSTORE PUSH0 DUP6 DUP2 PUSH2 0x1C4A JUMP JUMPDEST SWAP2 SWAP3 SWAP4 SWAP1 POP PUSH2 0x1C8F DUP11 PUSH2 0x198F DUP5 PUSH0 MSTORE PUSH0 PUSH1 0x20 MSTORE PUSH1 0x40 PUSH0 KECCAK256 SWAP1 JUMP JUMPDEST SLOAD DUP4 DUP2 LT PUSH2 0x1CBE JUMPI SWAP2 DUP8 SWAP2 DUP5 PUSH1 0x1 SWAP7 SWAP6 SWAP5 SUB PUSH2 0x1CB6 DUP14 PUSH2 0x198F DUP6 PUSH0 MSTORE PUSH0 PUSH1 0x20 MSTORE PUSH1 0x40 PUSH0 KECCAK256 SWAP1 JUMP JUMPDEST SSTORE SWAP5 POP PUSH2 0x1C40 JUMP JUMPDEST PUSH1 0x40 MLOAD PUSH4 0x3DEE4C5 PUSH1 0xE0 SHL DUP2 MSTORE PUSH1 0x1 PUSH1 0x1 PUSH1 0xA0 SHL SUB DUP13 AND PUSH1 0x4 DUP3 ADD MSTORE PUSH1 0x24 DUP2 ADD SWAP2 SWAP1 SWAP2 MSTORE PUSH1 0x44 DUP2 ADD DUP5 SWAP1 MSTORE PUSH1 0x64 DUP2 ADD DUP4 SWAP1 MSTORE PUSH1 0x84 SWAP1 REVERT JUMPDEST POP SWAP5 SWAP2 SWAP4 SWAP3 SWAP1 SWAP4 PUSH1 0x1 DUP6 MLOAD EQ PUSH0 EQ PUSH2 0x1D9F JUMPI PUSH1 0x20 DUP6 DUP2 ADD MLOAD DUP4 DUP3 ADD MLOAD PUSH1 0x40 DUP1 MLOAD SWAP3 DUP4 MSTORE SWAP3 DUP3 ADD MSTORE PUSH1 0x1 PUSH1 0x1 PUSH1 0xA0 SHL SUB DUP4 DUP2 AND SWAP3 SWAP1 DUP7 AND SWAP2 CALLER SWAP2 PUSH32 0xC3D58168C5AE7397731D063D5BBF3D657854427343F4C083240F7AACAA2D0F62 SWAP2 LOG4 JUMPDEST PUSH1 0x1 PUSH1 0x1 PUSH1 0xA0 SHL SUB DUP2 AND PUSH2 0x1D68 JUMPI JUMPDEST POP POP POP POP POP JUMP JUMPDEST DUP5 MLOAD PUSH1 0x1 SUB PUSH2 0x1D8E JUMPI PUSH1 0x20 DUP1 PUSH2 0x1D84 SWAP7 ADD MLOAD SWAP3 ADD MLOAD SWAP3 CALLER PUSH2 0x20F9 JUMP JUMPDEST PUSH0 DUP1 DUP1 DUP1 DUP1 PUSH2 0x1D61 JUMP JUMPDEST PUSH2 0x1D9A SWAP5 SWAP2 SWAP3 CALLER PUSH2 0x1FC8 JUMP JUMPDEST PUSH2 0x1D84 JUMP JUMPDEST PUSH1 0x40 MLOAD PUSH1 0x1 PUSH1 0x1 PUSH1 0xA0 SHL SUB DUP3 DUP2 AND SWAP2 SWAP1 DUP6 AND SWAP1 CALLER SWAP1 PUSH32 0x4A39DC06D4C0DBC64B70AF90FD698A233A518AA5D07E595D983B8C0526C8F7FB SWAP1 DUP1 PUSH2 0x1DE2 DUP9 DUP13 DUP4 PUSH2 0x1DEA JUMP JUMPDEST SUB SWAP1 LOG4 PUSH2 0x1D52 JUMP JUMPDEST SWAP1 SWAP2 PUSH2 0x1E01 PUSH2 0x338 SWAP4 PUSH1 0x40 DUP5 MSTORE PUSH1 0x40 DUP5 ADD SWAP1 PUSH2 0x902 JUMP JUMPDEST SWAP2 PUSH1 0x20 DUP2 DUP5 SUB SWAP2 ADD MSTORE PUSH2 0x902 JUMP JUMPDEST SWAP1 DUP2 PUSH1 0x20 SWAP2 SUB SLT PUSH2 0x1AE JUMPI MLOAD PUSH2 0x338 DUP2 PUSH2 0x224 JUMP JUMPDEST SWAP3 PUSH2 0x1E52 PUSH2 0x338 SWAP6 SWAP4 PUSH2 0x1E60 SWAP4 PUSH1 0x1 DUP1 PUSH1 0xA0 SHL SUB AND DUP7 MSTORE PUSH0 PUSH1 0x20 DUP8 ADD MSTORE PUSH1 0xA0 PUSH1 0x40 DUP8 ADD MSTORE PUSH1 0xA0 DUP7 ADD SWAP1 PUSH2 0x902 JUMP JUMPDEST SWAP1 DUP5 DUP3 SUB PUSH1 0x60 DUP7 ADD MSTORE PUSH2 0x902 JUMP JUMPDEST SWAP2 PUSH1 0x80 DUP2 DUP5 SUB SWAP2 ADD MSTORE PUSH2 0x302 JUMP JUMPDEST SWAP4 SWAP1 PUSH2 0x338 SWAP6 SWAP4 PUSH2 0x1E52 SWAP2 PUSH2 0x1E60 SWAP5 PUSH1 0x1 DUP1 PUSH1 0xA0 SHL SUB DUP1 SWAP3 AND DUP9 MSTORE AND PUSH1 0x20 DUP8 ADD MSTORE PUSH1 0xA0 PUSH1 0x40 DUP8 ADD MSTORE PUSH1 0xA0 DUP7 ADD SWAP1 PUSH2 0x902 JUMP JUMPDEST RETURNDATASIZE ISZERO PUSH2 0x1ECA JUMPI RETURNDATASIZE SWAP1 PUSH2 0x1EB1 DUP3 PUSH2 0x698 JUMP JUMPDEST SWAP2 PUSH2 0x1EBF PUSH1 0x40 MLOAD SWAP4 DUP5 PUSH2 0x5F1 JUMP JUMPDEST DUP3 MSTORE RETURNDATASIZE PUSH0 PUSH1 0x20 DUP5 ADD RETURNDATACOPY JUMP JUMPDEST PUSH1 0x60 SWAP1 JUMP JUMPDEST SWAP3 SWAP4 SWAP2 SWAP1 SWAP4 DUP5 EXTCODESIZE PUSH2 0x1EE1 JUMPI POP POP POP POP POP JUMP JUMPDEST PUSH1 0x20 SWAP2 PUSH2 0x1F04 PUSH1 0x40 MLOAD SWAP5 DUP6 SWAP4 DUP5 SWAP4 PUSH4 0xBC197C81 PUSH1 0xE0 SHL SWAP9 DUP10 DUP7 MSTORE PUSH1 0x4 DUP7 ADD PUSH2 0x1E24 JUMP JUMPDEST SUB DUP2 PUSH0 PUSH1 0x1 PUSH1 0x1 PUSH1 0xA0 SHL SUB DUP9 AND GAS CALL PUSH0 SWAP2 DUP2 PUSH2 0x1F97 JUMPI JUMPDEST POP PUSH2 0x1F5A JUMPI DUP3 PUSH2 0x1F29 PUSH2 0x1EA0 JUMP JUMPDEST DUP1 MLOAD SWAP2 SWAP1 DUP3 PUSH2 0x1F53 JUMPI PUSH1 0x40 MLOAD PUSH4 0x2BFA23E7 PUSH1 0xE1 SHL DUP2 MSTORE PUSH1 0x1 PUSH1 0x1 PUSH1 0xA0 SHL SUB DUP4 AND PUSH1 0x4 DUP3 ADD MSTORE PUSH1 0x24 SWAP1 REVERT JUMPDEST PUSH1 0x20 SWAP2 POP ADD REVERT JUMPDEST PUSH1 0x1 PUSH1 0x1 PUSH1 0xE0 SHL SUB NOT AND SUB PUSH2 0x1F74 JUMPI POP PUSH0 DUP1 DUP1 DUP1 DUP1 PUSH2 0x1D61 JUMP JUMPDEST PUSH1 0x40 MLOAD PUSH4 0x2BFA23E7 PUSH1 0xE1 SHL DUP2 MSTORE PUSH1 0x1 PUSH1 0x1 PUSH1 0xA0 SHL SUB SWAP2 SWAP1 SWAP2 AND PUSH1 0x4 DUP3 ADD MSTORE PUSH1 0x24 SWAP1 REVERT JUMPDEST PUSH2 0x1FBA SWAP2 SWAP3 POP PUSH1 0x20 RETURNDATASIZE PUSH1 0x20 GT PUSH2 0x1FC1 JUMPI JUMPDEST PUSH2 0x1FB2 DUP2 DUP4 PUSH2 0x5F1 JUMP JUMPDEST DUP2 ADD SWAP1 PUSH2 0x1E0F JUMP JUMPDEST SWAP1 PUSH0 PUSH2 0x1F1B JUMP JUMPDEST POP RETURNDATASIZE PUSH2 0x1FA8 JUMP JUMPDEST SWAP4 SWAP3 SWAP1 SWAP5 SWAP2 SWAP5 DUP6 EXTCODESIZE PUSH2 0x1FDD JUMPI JUMPDEST POP POP POP POP POP POP JUMP JUMPDEST PUSH2 0x2000 PUSH1 0x20 SWAP4 PUSH1 0x40 MLOAD SWAP6 DUP7 SWAP5 DUP6 SWAP5 PUSH4 0xBC197C81 PUSH1 0xE0 SHL SWAP10 DUP11 DUP8 MSTORE PUSH1 0x4 DUP8 ADD PUSH2 0x1E6E JUMP JUMPDEST SUB DUP2 PUSH0 PUSH1 0x1 PUSH1 0x1 PUSH1 0xA0 SHL SUB DUP9 AND GAS CALL PUSH0 SWAP2 DUP2 PUSH2 0x2040 JUMPI JUMPDEST POP PUSH2 0x2025 JUMPI DUP3 PUSH2 0x1F29 PUSH2 0x1EA0 JUMP JUMPDEST PUSH1 0x1 PUSH1 0x1 PUSH1 0xE0 SHL SUB NOT AND SUB PUSH2 0x1F74 JUMPI POP PUSH0 DUP1 DUP1 DUP1 DUP1 DUP1 PUSH2 0x1FD5 JUMP JUMPDEST PUSH2 0x205A SWAP2 SWAP3 POP PUSH1 0x20 RETURNDATASIZE PUSH1 0x20 GT PUSH2 0x1FC1 JUMPI PUSH2 0x1FB2 DUP2 DUP4 PUSH2 0x5F1 JUMP JUMPDEST SWAP1 PUSH0 PUSH2 0x2017 JUMP JUMPDEST SWAP1 SWAP3 PUSH1 0xA0 SWAP3 PUSH2 0x338 SWAP6 SWAP5 PUSH1 0x1 DUP1 DUP7 SHL SUB AND DUP4 MSTORE PUSH0 PUSH1 0x20 DUP5 ADD MSTORE PUSH1 0x40 DUP4 ADD MSTORE PUSH1 0x60 DUP3 ADD MSTORE DUP2 PUSH1 0x80 DUP3 ADD MSTORE ADD SWAP1 PUSH2 0x302 JUMP JUMPDEST SWAP2 SWAP3 PUSH2 0x338 SWAP6 SWAP5 SWAP2 PUSH1 0xA0 SWAP5 PUSH1 0x1 DUP1 DUP8 SHL SUB DUP1 SWAP3 AND DUP6 MSTORE AND PUSH1 0x20 DUP5 ADD MSTORE PUSH1 0x40 DUP4 ADD MSTORE PUSH1 0x60 DUP3 ADD MSTORE DUP2 PUSH1 0x80 DUP3 ADD MSTORE ADD SWAP1 PUSH2 0x302 JUMP JUMPDEST SWAP3 SWAP4 SWAP2 SWAP1 SWAP4 DUP5 EXTCODESIZE PUSH2 0x20D6 JUMPI POP POP POP POP POP JUMP JUMPDEST PUSH1 0x20 SWAP2 PUSH2 0x1F04 PUSH1 0x40 MLOAD SWAP5 DUP6 SWAP4 DUP5 SWAP4 PUSH4 0xF23A6E61 PUSH1 0xE0 SHL SWAP9 DUP10 DUP7 MSTORE PUSH1 0x4 DUP7 ADD PUSH2 0x2061 JUMP JUMPDEST SWAP4 SWAP3 SWAP1 SWAP5 SWAP2 SWAP5 DUP6 EXTCODESIZE PUSH2 0x210D JUMPI POP POP POP POP POP POP JUMP JUMPDEST PUSH2 0x2000 PUSH1 0x20 SWAP4 PUSH1 0x40 MLOAD SWAP6 DUP7 SWAP5 DUP6 SWAP5 PUSH4 0xF23A6E61 PUSH1 0xE0 SHL SWAP10 DUP11 DUP8 MSTORE PUSH1 0x4 DUP8 ADD PUSH2 0x2091 JUMP INVALID DUP11 CALLDATALOAD 0xAC 0xFB 0xC1 PUSH0 0xF8 BYTE CODECOPY 0xAE PUSH30 0x344FD709F28E8600B4AA8C65C6B64BFE7FE36BD19BA26469706673582212 KECCAK256 0xAB PUSH10 0x15D77E256AC7A9386E03 DUP8 0x2E 0xAD NUMBER 0xC8 PUSH31 0x4D27809E4FB65B4B61F5F174A68264736F6C63430008180033000000000000 "},"methodIdentifiers":{"authorizedConsumers(address)":"07055840","authorizedMinters(address)":"aa2fe91b","balanceOf(address,uint256)":"00fdd58e","balanceOfBatch(address[],uint256[])":"4e1273f4","baseMetadataURI()":"5b2bd79e","blueprintDefinitionOf(uint256)":"4f9f27a1","blueprintExists(uint256)":"17dab0df","burnBlueprint(address,uint256,uint256)":"1ffd6c78","getBlueprintMeta(uint256)":"f0ae7900","isApprovedForAll(address,address)":"e985e9c5","isBlueprintEnabled(uint256)":"458cffbf","mintBlueprint(address,uint256,uint256)":"50be6a08","owner()":"8da5cb5b","renounceOwnership()":"715018a6","safeBatchTransferFrom(address,address,uint256[],uint256[],bytes)":"2eb2c2d6","safeTransferFrom(address,address,uint256,uint256,bytes)":"f242432a","setApprovalForAll(address,bool)":"a22cb465","setAuthorizedConsumer(address,bool)":"41fe0f71","setAuthorizedMinter(address,bool)":"ed58bad8","setBaseMetadataURI(string)":"7e518ec8","setBlueprintDefinition(uint256,string,uint256,uint256,uint256,uint256,bool)":"ae3c2125","supportsInterface(bytes4)":"01ffc9a7","transferOwnership(address)":"f2fde38b","uri(uint256)":"0e89341c"}}}}}