{"project/contracts/crafting/CityEnchanting.sol":{"CityEnchanting":{"abi":[{"inputs":[{"internalType":"address","name":"initialOwner","type":"address"},{"internalType":"address","name":"cityWeaponsAddress","type":"address"},{"internalType":"address","name":"cityWeaponSocketsAddress","type":"address"},{"internalType":"address","name":"cityEnchantmentItemsAddress","type":"address"}],"stateMutability":"nonpayable","type":"constructor"},{"inputs":[],"name":"InvalidValue","type":"error"},{"inputs":[],"name":"NotAuthorized","type":"error"},{"inputs":[],"name":"NotPlotOwner","type":"error"},{"inputs":[{"internalType":"address","name":"owner","type":"address"}],"name":"OwnableInvalidOwner","type":"error"},{"inputs":[{"internalType":"address","name":"account","type":"address"}],"name":"OwnableUnauthorizedAccount","type":"error"},{"inputs":[],"name":"ZeroAddress","type":"error"},{"anonymous":false,"inputs":[{"indexed":true,"internalType":"address","name":"caller","type":"address"},{"indexed":false,"internalType":"bool","name":"allowed","type":"bool"}],"name":"AuthorizedCallerSet","type":"event"},{"anonymous":false,"inputs":[{"indexed":false,"internalType":"bool","name":"paused","type":"bool"}],"name":"EnchantingPausedSet","type":"event"},{"anonymous":false,"inputs":[{"indexed":true,"internalType":"address","name":"user","type":"address"},{"indexed":true,"internalType":"uint256","name":"weaponTokenId","type":"uint256"},{"indexed":true,"internalType":"uint256","name":"enchantmentItemId","type":"uint256"},{"indexed":false,"internalType":"uint256","name":"slotIndex","type":"uint256"},{"indexed":false,"internalType":"uint256","name":"enchantmentDefinitionId","type":"uint256"},{"indexed":false,"internalType":"uint256","name":"level","type":"uint256"},{"indexed":false,"internalType":"bool","name":"burned","type":"bool"}],"name":"EnchantmentItemApplied","type":"event"},{"anonymous":false,"inputs":[{"indexed":true,"internalType":"address","name":"user","type":"address"},{"indexed":true,"internalType":"uint256","name":"weaponTokenId","type":"uint256"},{"indexed":true,"internalType":"uint256","name":"slotIndex","type":"uint256"}],"name":"EnchantmentRemovedBySystem","type":"event"},{"anonymous":false,"inputs":[{"indexed":true,"internalType":"address","name":"previousOwner","type":"address"},{"indexed":true,"internalType":"address","name":"newOwner","type":"address"}],"name":"OwnershipTransferred","type":"event"},{"inputs":[{"internalType":"address","name":"user","type":"address"},{"internalType":"uint256","name":"weaponTokenId","type":"uint256"},{"internalType":"uint256","name":"slotIndex","type":"uint256"},{"internalType":"uint256","name":"enchantmentItemId","type":"uint256"}],"name":"adminApplyEnchantmentItem","outputs":[],"stateMutability":"nonpayable","type":"function"},{"inputs":[{"internalType":"uint256","name":"weaponTokenId","type":"uint256"},{"internalType":"uint256","name":"slotIndex","type":"uint256"}],"name":"adminRemoveEnchantmentFromSlot","outputs":[],"stateMutability":"nonpayable","type":"function"},{"inputs":[{"internalType":"uint256","name":"weaponTokenId","type":"uint256"},{"internalType":"uint256","name":"slotIndex","type":"uint256"},{"internalType":"uint256","name":"enchantmentItemId","type":"uint256"}],"name":"applyEnchantmentItem","outputs":[],"stateMutability":"nonpayable","type":"function"},{"inputs":[{"internalType":"address","name":"","type":"address"}],"name":"authorizedCallers","outputs":[{"internalType":"bool","name":"","type":"bool"}],"stateMutability":"view","type":"function"},{"inputs":[],"name":"cityEnchantmentItems","outputs":[{"internalType":"contract ICityEnchantmentItems","name":"","type":"address"}],"stateMutability":"view","type":"function"},{"inputs":[],"name":"cityWeaponSockets","outputs":[{"internalType":"contract CityWeaponSockets","name":"","type":"address"}],"stateMutability":"view","type":"function"},{"inputs":[],"name":"cityWeapons","outputs":[{"internalType":"contract CityWeapons","name":"","type":"address"}],"stateMutability":"view","type":"function"},{"inputs":[],"name":"enchantingPaused","outputs":[{"internalType":"bool","name":"","type":"bool"}],"stateMutability":"view","type":"function"},{"inputs":[],"name":"owner","outputs":[{"internalType":"address","name":"","type":"address"}],"stateMutability":"view","type":"function"},{"inputs":[{"internalType":"uint256","name":"weaponTokenId","type":"uint256"},{"internalType":"uint256","name":"slotIndex","type":"uint256"}],"name":"removeEnchantmentFromSlot","outputs":[],"stateMutability":"nonpayable","type":"function"},{"inputs":[],"name":"renounceOwnership","outputs":[],"stateMutability":"nonpayable","type":"function"},{"inputs":[{"internalType":"address","name":"caller","type":"address"},{"internalType":"bool","name":"allowed","type":"bool"}],"name":"setAuthorizedCaller","outputs":[],"stateMutability":"nonpayable","type":"function"},{"inputs":[{"internalType":"bool","name":"paused","type":"bool"}],"name":"setEnchantingPaused","outputs":[],"stateMutability":"nonpayable","type":"function"},{"inputs":[{"internalType":"address","name":"newOwner","type":"address"}],"name":"transferOwnership","outputs":[],"stateMutability":"nonpayable","type":"function"}],"evm":{"bytecode":{"linkReferences":{},"object":"60e03461018657601f62000eb838819003918201601f19168301916001600160401b0383118484101761018a57808492608094604052833981010312610186576100488161019e565b906100556020820161019e565b9061006e60606100676040840161019e565b920161019e565b6001600160a01b0393909290841690811561016e575f80546001600160a01b03198116841782556040519387939290918416907f8be0079c531659141344cd1fd0a4f28419497f9722a3daafe3b4186f6b6457e09080a3169081158015610164575b801561015a575b61014b5750608052821660a0521660c052604051610d059081620001b382396080518181816102b1015281816108860152610c52015260a05181818161010f0152818161026d015281816103b3015281816106d001526108bb015260c051818181610344015281816106710152610afa0152f35b63d92e233d60e01b8152600490fd5b50848416156100d7565b50848316156100d0565b604051631e4fbdf760e01b81525f6004820152602490fd5b5f80fd5b634e487b7160e01b5f52604160045260245ffd5b51906001600160a01b03821682036101865756fe6080604081815260049182361015610015575f80fd5b5f925f3560e01c9182632681e4e414610ae857508163454bbd2914610a56578163536fff6c14610a1a578163715018a6146109c357816372f7cab2146108335781637c638357146106225781637f425d28146105bb5781638da5cb5b14610593578163aa62dedf146102e0578163ccde8c861461029c578163e962593214610258578163f2fde38b146101ca578163fb787e79146100e2575063ffc9b8ba146100bc575f80fd5b346100de57816003193601126100de5760209060ff6002541690519015158152f35b5080fd5b919050346101ac576100f336610b3f565b92909160ff600254166101bd5790849161010d3385610c2b565b7f00000000000000000000000000000000000000000000000000000000000000006001600160a01b031691823b156101b95784604485928385519687948593630172c84760e41b85528401528a60248401525af19081156101b05750610198575b5050337f07379cc2f4f86787317a5e5ebc252eb4845aca3e5b41fcf840540decdbae3c448480a480f35b6101a190610b55565b6101ac57825f61016e565b8280fd5b513d84823e3d90fd5b8380fd5b51632a9ffab760e21b8152fd5b9050346101ac5760203660031901126101ac576101e5610b29565b906101ee610c00565b6001600160a01b039182169283156102425750505f54826bffffffffffffffffffffffff60a01b8216175f55167f8be0079c531659141344cd1fd0a4f28419497f9722a3daafe3b4186f6b6457e05f80a380f35b51631e4fbdf760e01b8152908101849052602490fd5b5050346100de57816003193601126100de57517f00000000000000000000000000000000000000000000000000000000000000006001600160a01b03168152602090f35b5050346100de57816003193601126100de57517f00000000000000000000000000000000000000000000000000000000000000006001600160a01b03168152602090f35b9050346101ac5760803660031901126101ac576102fb610b29565b835460643593602435936001600160a01b0392604435919084163314801561057e575b156105705760ff6002541661056257838516948515610553576103419087610c2b565b837f000000000000000000000000000000000000000000000000000000000000000016928051916260801760e01b8352888184015260a083602481885afa958615610549578a958b978c958d91610508575b50156104f05786158015610500575b6104f057908b92918561048e575b507f000000000000000000000000000000000000000000000000000000000000000016803b156101ac578351633a26115560e11b81529182018a81526020810187905260408101889052606081018990528391839182908490829060800103925af1801561048457610468575b50505191825260208201929092526040810192909252151560608201527f667fad53ed97397d7e59e1c58e8731892369d3fa0b0b83c6e5923d03f7ed6bec9080608081015b0390a480f35b61047490939293610b55565b6104805790885f61041d565b8880fd5b83513d84823e3d90fd5b803b156101b957838c60648c83895195869485936330d3b1bb60e01b85528a8501526024840152600160448401525af180156104e6579084916104d2575b506103b0565b6104db90610b55565b6101ac57825f6104cc565b85513d86823e3d90fd5b8351632a9ffab760e21b81528390fd5b5087156103a2565b92985050955061053191935060a03d60a011610542575b6105298183610b7d565b810190610bcb565b95939098929791509697945f610393565b503d61051f565b82513d8c823e3d90fd5b50825163d92e233d60e01b8152fd5b8251632a9ffab760e21b8152fd5b825163ea8e4eb560e01b8152fd5b50338852600160205260ff838920541661031e565b5050346100de57816003193601126100de57905490516001600160a01b039091168152602090f35b9050346101ac5760203660031901126101ac57359081151580920361061e577f402f4b34c5d209deb1b8ad34170338c8d3e8b84e222df060fef0d2cf7385cb5091602091610607610c00565b60ff196002541660ff83161760025551908152a180f35b5f80fd5b9050346101ac5760603660031901126101ac57803590602435906044359360ff600254166101bd576106543385610c2b565b80516260801760e01b8152828101869052916001600160a01b03917f000000000000000000000000000000000000000000000000000000000000000083169160a085602481865afa9384156108295789938a958b978c916107f8575b50156104f057841580156107f0575b6104f057908a929187610797575b507f000000000000000000000000000000000000000000000000000000000000000016803b156101ac578351633a26115560e11b81529182018981526020810189905260408101869052606081018790528391839182908490829060800103925af180156104845761077f575b505051938452602084015260408301521515606082015233907f667fad53ed97397d7e59e1c58e8731892369d3fa0b0b83c6e5923d03f7ed6bec908060808101610462565b61078890610b55565b61079357875f61073a565b8780fd5b803b156101b95783809160648d885194859384926330d3b1bb60e01b8452338a8501526024840152600160448401525af180156104e6579084916107dc575b506106cd565b6107e590610b55565b6101ac57825f6107d6565b5085156106bf565b92965050935061081891955060a03d60a011610542576105298183610b7d565b97939096929591509495965f6106b0565b82513d8b823e3d90fd5b9190503461061e5761084436610b3f565b92909160018060a01b0391825f5416331480156109ae575b156109a05760ff600254166109925781516331a9108f60e11b8152818101859052916020836024817f000000000000000000000000000000000000000000000000000000000000000088165afa928315610988575f93610957575b50837f00000000000000000000000000000000000000000000000000000000000000001691823b1561061e578560445f928385519687948593630172c84760e41b85528401528b60248401525af190811561094e575061093b575b50167f07379cc2f4f86787317a5e5ebc252eb4845aca3e5b41fcf840540decdbae3c448480a480f35b610946919550610b55565b5f935f610912565b513d5f823e3d90fd5b61097a91935060203d602011610981575b6109728183610b7d565b810190610b9f565b915f6108b7565b503d610968565b50513d5f823e3d90fd5b9051632a9ffab760e21b8152fd5b905163ea8e4eb560e01b8152fd5b50335f52600160205260ff825f20541661085c565b3461061e575f36600319011261061e576109db610c00565b5f80546001600160a01b0319811682556001600160a01b03167f8be0079c531659141344cd1fd0a4f28419497f9722a3daafe3b4186f6b6457e08280a3005b823461061e57602036600319011261061e576020906001600160a01b03610a3f610b29565b165f526001825260ff815f20541690519015158152f35b823461061e578060031936011261061e57610a6f610b29565b906024359182151580930361061e57610a86610c00565b6001600160a01b0316928315610ada57507f1eff62a53441c7d0125c22f2a9a324e206b34efa41e19469d7efb9bb703d21a391602091845f5260018352805f2060ff1981541660ff841617905551908152a2005b905163d92e233d60e01b8152fd5b3461061e575f36600319011261061e577f00000000000000000000000000000000000000000000000000000000000000006001600160a01b03168152602090f35b600435906001600160a01b038216820361061e57565b604090600319011261061e576004359060243590565b67ffffffffffffffff8111610b6957604052565b634e487b7160e01b5f52604160045260245ffd5b90601f8019910116810190811067ffffffffffffffff821117610b6957604052565b9081602091031261061e57516001600160a01b038116810361061e5790565b5190811515820361061e57565b908160a091031261061e57805191602082015191604081015191610bfd6080610bf660608501610bbe565b9301610bbe565b90565b5f546001600160a01b03163303610c1357565b60405163118cdaa760e01b8152336004820152602490fd5b6040516331a9108f60e11b81526004810191909152906001600160a01b03906020836024817f000000000000000000000000000000000000000000000000000000000000000086165afa928315610cc4575f93610ca1575b508116911603610c8f57565b60405163f583bd1560e01b8152600490fd5b82919350610cbd9060203d602011610981576109728183610b7d565b9290610c83565b6040513d5f823e3d90fdfea2646970667358221220d3327ca0a19e088602c99264706124ff09e5b4f7b1397e1da1bdb4cbda13513964736f6c63430008180033","opcodes":"PUSH1 0xE0 CALLVALUE PUSH2 0x186 JUMPI PUSH1 0x1F PUSH3 0xEB8 CODESIZE DUP2 SWAP1 SUB SWAP2 DUP3 ADD PUSH1 0x1F NOT AND DUP4 ADD SWAP2 PUSH1 0x1 PUSH1 0x1 PUSH1 0x40 SHL SUB DUP4 GT DUP5 DUP5 LT OR PUSH2 0x18A JUMPI DUP1 DUP5 SWAP3 PUSH1 0x80 SWAP5 PUSH1 0x40 MSTORE DUP4 CODECOPY DUP2 ADD SUB SLT PUSH2 0x186 JUMPI PUSH2 0x48 DUP2 PUSH2 0x19E JUMP JUMPDEST SWAP1 PUSH2 0x55 PUSH1 0x20 DUP3 ADD PUSH2 0x19E JUMP JUMPDEST SWAP1 PUSH2 0x6E PUSH1 0x60 PUSH2 0x67 PUSH1 0x40 DUP5 ADD PUSH2 0x19E JUMP JUMPDEST SWAP3 ADD PUSH2 0x19E JUMP JUMPDEST PUSH1 0x1 PUSH1 0x1 PUSH1 0xA0 SHL SUB SWAP4 SWAP1 SWAP3 SWAP1 DUP5 AND SWAP1 DUP2 ISZERO PUSH2 0x16E JUMPI PUSH0 DUP1 SLOAD PUSH1 0x1 PUSH1 0x1 PUSH1 0xA0 SHL SUB NOT DUP2 AND DUP5 OR DUP3 SSTORE PUSH1 0x40 MLOAD SWAP4 DUP8 SWAP4 SWAP3 SWAP1 SWAP2 DUP5 AND SWAP1 PUSH32 0x8BE0079C531659141344CD1FD0A4F28419497F9722A3DAAFE3B4186F6B6457E0 SWAP1 DUP1 LOG3 AND SWAP1 DUP2 ISZERO DUP1 ISZERO PUSH2 0x164 JUMPI JUMPDEST DUP1 ISZERO PUSH2 0x15A JUMPI JUMPDEST PUSH2 0x14B JUMPI POP PUSH1 0x80 MSTORE DUP3 AND PUSH1 0xA0 MSTORE AND PUSH1 0xC0 MSTORE PUSH1 0x40 MLOAD PUSH2 0xD05 SWAP1 DUP2 PUSH3 0x1B3 DUP3 CODECOPY PUSH1 0x80 MLOAD DUP2 DUP2 DUP2 PUSH2 0x2B1 ADD MSTORE DUP2 DUP2 PUSH2 0x886 ADD MSTORE PUSH2 0xC52 ADD MSTORE PUSH1 0xA0 MLOAD DUP2 DUP2 DUP2 PUSH2 0x10F ADD MSTORE DUP2 DUP2 PUSH2 0x26D ADD MSTORE DUP2 DUP2 PUSH2 0x3B3 ADD MSTORE DUP2 DUP2 PUSH2 0x6D0 ADD MSTORE PUSH2 0x8BB ADD MSTORE PUSH1 0xC0 MLOAD DUP2 DUP2 DUP2 PUSH2 0x344 ADD MSTORE DUP2 DUP2 PUSH2 0x671 ADD MSTORE PUSH2 0xAFA ADD MSTORE RETURN JUMPDEST PUSH4 0xD92E233D PUSH1 0xE0 SHL DUP2 MSTORE PUSH1 0x4 SWAP1 REVERT JUMPDEST POP DUP5 DUP5 AND ISZERO PUSH2 0xD7 JUMP JUMPDEST POP DUP5 DUP4 AND ISZERO PUSH2 0xD0 JUMP JUMPDEST PUSH1 0x40 MLOAD PUSH4 0x1E4FBDF7 PUSH1 0xE0 SHL DUP2 MSTORE PUSH0 PUSH1 0x4 DUP3 ADD MSTORE PUSH1 0x24 SWAP1 REVERT JUMPDEST PUSH0 DUP1 REVERT JUMPDEST PUSH4 0x4E487B71 PUSH1 0xE0 SHL PUSH0 MSTORE PUSH1 0x41 PUSH1 0x4 MSTORE PUSH1 0x24 PUSH0 REVERT JUMPDEST MLOAD SWAP1 PUSH1 0x1 PUSH1 0x1 PUSH1 0xA0 SHL SUB DUP3 AND DUP3 SUB PUSH2 0x186 JUMPI JUMP INVALID PUSH1 0x80 PUSH1 0x40 DUP2 DUP2 MSTORE PUSH1 0x4 SWAP2 DUP3 CALLDATASIZE LT ISZERO PUSH2 0x15 JUMPI PUSH0 DUP1 REVERT JUMPDEST PUSH0 SWAP3 PUSH0 CALLDATALOAD PUSH1 0xE0 SHR SWAP2 DUP3 PUSH4 0x2681E4E4 EQ PUSH2 0xAE8 JUMPI POP DUP2 PUSH4 0x454BBD29 EQ PUSH2 0xA56 JUMPI DUP2 PUSH4 0x536FFF6C EQ PUSH2 0xA1A JUMPI DUP2 PUSH4 0x715018A6 EQ PUSH2 0x9C3 JUMPI DUP2 PUSH4 0x72F7CAB2 EQ PUSH2 0x833 JUMPI DUP2 PUSH4 0x7C638357 EQ PUSH2 0x622 JUMPI DUP2 PUSH4 0x7F425D28 EQ PUSH2 0x5BB JUMPI DUP2 PUSH4 0x8DA5CB5B EQ PUSH2 0x593 JUMPI DUP2 PUSH4 0xAA62DEDF EQ PUSH2 0x2E0 JUMPI DUP2 PUSH4 0xCCDE8C86 EQ PUSH2 0x29C JUMPI DUP2 PUSH4 0xE9625932 EQ PUSH2 0x258 JUMPI DUP2 PUSH4 0xF2FDE38B EQ PUSH2 0x1CA JUMPI DUP2 PUSH4 0xFB787E79 EQ PUSH2 0xE2 JUMPI POP PUSH4 0xFFC9B8BA EQ PUSH2 0xBC JUMPI PUSH0 DUP1 REVERT JUMPDEST CALLVALUE PUSH2 0xDE JUMPI DUP2 PUSH1 0x3 NOT CALLDATASIZE ADD SLT PUSH2 0xDE JUMPI PUSH1 0x20 SWAP1 PUSH1 0xFF PUSH1 0x2 SLOAD AND SWAP1 MLOAD SWAP1 ISZERO ISZERO DUP2 MSTORE RETURN JUMPDEST POP DUP1 REVERT JUMPDEST SWAP2 SWAP1 POP CALLVALUE PUSH2 0x1AC JUMPI PUSH2 0xF3 CALLDATASIZE PUSH2 0xB3F JUMP JUMPDEST SWAP3 SWAP1 SWAP2 PUSH1 0xFF PUSH1 0x2 SLOAD AND PUSH2 0x1BD JUMPI SWAP1 DUP5 SWAP2 PUSH2 0x10D CALLER DUP6 PUSH2 0xC2B JUMP JUMPDEST PUSH32 0x0 PUSH1 0x1 PUSH1 0x1 PUSH1 0xA0 SHL SUB AND SWAP2 DUP3 EXTCODESIZE ISZERO PUSH2 0x1B9 JUMPI DUP5 PUSH1 0x44 DUP6 SWAP3 DUP4 DUP6 MLOAD SWAP7 DUP8 SWAP5 DUP6 SWAP4 PUSH4 0x172C847 PUSH1 0xE4 SHL DUP6 MSTORE DUP5 ADD MSTORE DUP11 PUSH1 0x24 DUP5 ADD MSTORE GAS CALL SWAP1 DUP2 ISZERO PUSH2 0x1B0 JUMPI POP PUSH2 0x198 JUMPI JUMPDEST POP POP CALLER PUSH32 0x7379CC2F4F86787317A5E5EBC252EB4845ACA3E5B41FCF840540DECDBAE3C44 DUP5 DUP1 LOG4 DUP1 RETURN JUMPDEST PUSH2 0x1A1 SWAP1 PUSH2 0xB55 JUMP JUMPDEST PUSH2 0x1AC JUMPI DUP3 PUSH0 PUSH2 0x16E JUMP JUMPDEST DUP3 DUP1 REVERT JUMPDEST MLOAD RETURNDATASIZE DUP5 DUP3 RETURNDATACOPY RETURNDATASIZE SWAP1 REVERT JUMPDEST DUP4 DUP1 REVERT JUMPDEST MLOAD PUSH4 0x2A9FFAB7 PUSH1 0xE2 SHL DUP2 MSTORE REVERT JUMPDEST SWAP1 POP CALLVALUE PUSH2 0x1AC JUMPI PUSH1 0x20 CALLDATASIZE PUSH1 0x3 NOT ADD SLT PUSH2 0x1AC JUMPI PUSH2 0x1E5 PUSH2 0xB29 JUMP JUMPDEST SWAP1 PUSH2 0x1EE PUSH2 0xC00 JUMP JUMPDEST PUSH1 0x1 PUSH1 0x1 PUSH1 0xA0 SHL SUB SWAP2 DUP3 AND SWAP3 DUP4 ISZERO PUSH2 0x242 JUMPI POP POP PUSH0 SLOAD DUP3 PUSH12 0xFFFFFFFFFFFFFFFFFFFFFFFF PUSH1 0xA0 SHL DUP3 AND OR PUSH0 SSTORE AND PUSH32 0x8BE0079C531659141344CD1FD0A4F28419497F9722A3DAAFE3B4186F6B6457E0 PUSH0 DUP1 LOG3 DUP1 RETURN JUMPDEST MLOAD PUSH4 0x1E4FBDF7 PUSH1 0xE0 SHL DUP2 MSTORE SWAP1 DUP2 ADD DUP5 SWAP1 MSTORE PUSH1 0x24 SWAP1 REVERT JUMPDEST POP POP CALLVALUE PUSH2 0xDE JUMPI DUP2 PUSH1 0x3 NOT CALLDATASIZE ADD SLT PUSH2 0xDE JUMPI MLOAD PUSH32 0x0 PUSH1 0x1 PUSH1 0x1 PUSH1 0xA0 SHL SUB AND DUP2 MSTORE PUSH1 0x20 SWAP1 RETURN JUMPDEST POP POP CALLVALUE PUSH2 0xDE JUMPI DUP2 PUSH1 0x3 NOT CALLDATASIZE ADD SLT PUSH2 0xDE JUMPI MLOAD PUSH32 0x0 PUSH1 0x1 PUSH1 0x1 PUSH1 0xA0 SHL SUB AND DUP2 MSTORE PUSH1 0x20 SWAP1 RETURN JUMPDEST SWAP1 POP CALLVALUE PUSH2 0x1AC JUMPI PUSH1 0x80 CALLDATASIZE PUSH1 0x3 NOT ADD SLT PUSH2 0x1AC JUMPI PUSH2 0x2FB PUSH2 0xB29 JUMP JUMPDEST DUP4 SLOAD PUSH1 0x64 CALLDATALOAD SWAP4 PUSH1 0x24 CALLDATALOAD SWAP4 PUSH1 0x1 PUSH1 0x1 PUSH1 0xA0 SHL SUB SWAP3 PUSH1 0x44 CALLDATALOAD SWAP2 SWAP1 DUP5 AND CALLER EQ DUP1 ISZERO PUSH2 0x57E JUMPI JUMPDEST ISZERO PUSH2 0x570 JUMPI PUSH1 0xFF PUSH1 0x2 SLOAD AND PUSH2 0x562 JUMPI DUP4 DUP6 AND SWAP5 DUP6 ISZERO PUSH2 0x553 JUMPI PUSH2 0x341 SWAP1 DUP8 PUSH2 0xC2B JUMP JUMPDEST DUP4 PUSH32 0x0 AND SWAP3 DUP1 MLOAD SWAP2 PUSH3 0x608017 PUSH1 0xE0 SHL DUP4 MSTORE DUP9 DUP2 DUP5 ADD MSTORE PUSH1 0xA0 DUP4 PUSH1 0x24 DUP2 DUP9 GAS STATICCALL SWAP6 DUP7 ISZERO PUSH2 0x549 JUMPI DUP11 SWAP6 DUP12 SWAP8 DUP13 SWAP6 DUP14 SWAP2 PUSH2 0x508 JUMPI JUMPDEST POP ISZERO PUSH2 0x4F0 JUMPI DUP7 ISZERO DUP1 ISZERO PUSH2 0x500 JUMPI JUMPDEST PUSH2 0x4F0 JUMPI SWAP1 DUP12 SWAP3 SWAP2 DUP6 PUSH2 0x48E JUMPI JUMPDEST POP PUSH32 0x0 AND DUP1 EXTCODESIZE ISZERO PUSH2 0x1AC JUMPI DUP4 MLOAD PUSH4 0x3A261155 PUSH1 0xE1 SHL DUP2 MSTORE SWAP2 DUP3 ADD DUP11 DUP2 MSTORE PUSH1 0x20 DUP2 ADD DUP8 SWAP1 MSTORE PUSH1 0x40 DUP2 ADD DUP9 SWAP1 MSTORE PUSH1 0x60 DUP2 ADD DUP10 SWAP1 MSTORE DUP4 SWAP2 DUP4 SWAP2 DUP3 SWAP1 DUP5 SWAP1 DUP3 SWAP1 PUSH1 0x80 ADD SUB SWAP3 GAS CALL DUP1 ISZERO PUSH2 0x484 JUMPI PUSH2 0x468 JUMPI JUMPDEST POP POP MLOAD SWAP2 DUP3 MSTORE PUSH1 0x20 DUP3 ADD SWAP3 SWAP1 SWAP3 MSTORE PUSH1 0x40 DUP2 ADD SWAP3 SWAP1 SWAP3 MSTORE ISZERO ISZERO PUSH1 0x60 DUP3 ADD MSTORE PUSH32 0x667FAD53ED97397D7E59E1C58E8731892369D3FA0B0B83C6E5923D03F7ED6BEC SWAP1 DUP1 PUSH1 0x80 DUP2 ADD JUMPDEST SUB SWAP1 LOG4 DUP1 RETURN JUMPDEST PUSH2 0x474 SWAP1 SWAP4 SWAP3 SWAP4 PUSH2 0xB55 JUMP JUMPDEST PUSH2 0x480 JUMPI SWAP1 DUP9 PUSH0 PUSH2 0x41D JUMP JUMPDEST DUP9 DUP1 REVERT JUMPDEST DUP4 MLOAD RETURNDATASIZE DUP5 DUP3 RETURNDATACOPY RETURNDATASIZE SWAP1 REVERT JUMPDEST DUP1 EXTCODESIZE ISZERO PUSH2 0x1B9 JUMPI DUP4 DUP13 PUSH1 0x64 DUP13 DUP4 DUP10 MLOAD SWAP6 DUP7 SWAP5 DUP6 SWAP4 PUSH4 0x30D3B1BB PUSH1 0xE0 SHL DUP6 MSTORE DUP11 DUP6 ADD MSTORE PUSH1 0x24 DUP5 ADD MSTORE PUSH1 0x1 PUSH1 0x44 DUP5 ADD MSTORE GAS CALL DUP1 ISZERO PUSH2 0x4E6 JUMPI SWAP1 DUP5 SWAP2 PUSH2 0x4D2 JUMPI JUMPDEST POP PUSH2 0x3B0 JUMP JUMPDEST PUSH2 0x4DB SWAP1 PUSH2 0xB55 JUMP JUMPDEST PUSH2 0x1AC JUMPI DUP3 PUSH0 PUSH2 0x4CC JUMP JUMPDEST DUP6 MLOAD RETURNDATASIZE DUP7 DUP3 RETURNDATACOPY RETURNDATASIZE SWAP1 REVERT JUMPDEST DUP4 MLOAD PUSH4 0x2A9FFAB7 PUSH1 0xE2 SHL DUP2 MSTORE DUP4 SWAP1 REVERT JUMPDEST POP DUP8 ISZERO PUSH2 0x3A2 JUMP JUMPDEST SWAP3 SWAP9 POP POP SWAP6 POP PUSH2 0x531 SWAP2 SWAP4 POP PUSH1 0xA0 RETURNDATASIZE PUSH1 0xA0 GT PUSH2 0x542 JUMPI JUMPDEST PUSH2 0x529 DUP2 DUP4 PUSH2 0xB7D JUMP JUMPDEST DUP2 ADD SWAP1 PUSH2 0xBCB JUMP JUMPDEST SWAP6 SWAP4 SWAP1 SWAP9 SWAP3 SWAP8 SWAP2 POP SWAP7 SWAP8 SWAP5 PUSH0 PUSH2 0x393 JUMP JUMPDEST POP RETURNDATASIZE PUSH2 0x51F JUMP JUMPDEST DUP3 MLOAD RETURNDATASIZE DUP13 DUP3 RETURNDATACOPY RETURNDATASIZE SWAP1 REVERT JUMPDEST POP DUP3 MLOAD PUSH4 0xD92E233D PUSH1 0xE0 SHL DUP2 MSTORE REVERT JUMPDEST DUP3 MLOAD PUSH4 0x2A9FFAB7 PUSH1 0xE2 SHL DUP2 MSTORE REVERT JUMPDEST DUP3 MLOAD PUSH4 0xEA8E4EB5 PUSH1 0xE0 SHL DUP2 MSTORE REVERT JUMPDEST POP CALLER DUP9 MSTORE PUSH1 0x1 PUSH1 0x20 MSTORE PUSH1 0xFF DUP4 DUP10 KECCAK256 SLOAD AND PUSH2 0x31E JUMP JUMPDEST POP POP CALLVALUE PUSH2 0xDE JUMPI DUP2 PUSH1 0x3 NOT CALLDATASIZE ADD SLT PUSH2 0xDE JUMPI SWAP1 SLOAD SWAP1 MLOAD PUSH1 0x1 PUSH1 0x1 PUSH1 0xA0 SHL SUB SWAP1 SWAP2 AND DUP2 MSTORE PUSH1 0x20 SWAP1 RETURN JUMPDEST SWAP1 POP CALLVALUE PUSH2 0x1AC JUMPI PUSH1 0x20 CALLDATASIZE PUSH1 0x3 NOT ADD SLT PUSH2 0x1AC JUMPI CALLDATALOAD SWAP1 DUP2 ISZERO ISZERO DUP1 SWAP3 SUB PUSH2 0x61E JUMPI PUSH32 0x402F4B34C5D209DEB1B8AD34170338C8D3E8B84E222DF060FEF0D2CF7385CB50 SWAP2 PUSH1 0x20 SWAP2 PUSH2 0x607 PUSH2 0xC00 JUMP JUMPDEST PUSH1 0xFF NOT PUSH1 0x2 SLOAD AND PUSH1 0xFF DUP4 AND OR PUSH1 0x2 SSTORE MLOAD SWAP1 DUP2 MSTORE LOG1 DUP1 RETURN JUMPDEST PUSH0 DUP1 REVERT JUMPDEST SWAP1 POP CALLVALUE PUSH2 0x1AC JUMPI PUSH1 0x60 CALLDATASIZE PUSH1 0x3 NOT ADD SLT PUSH2 0x1AC JUMPI DUP1 CALLDATALOAD SWAP1 PUSH1 0x24 CALLDATALOAD SWAP1 PUSH1 0x44 CALLDATALOAD SWAP4 PUSH1 0xFF PUSH1 0x2 SLOAD AND PUSH2 0x1BD JUMPI PUSH2 0x654 CALLER DUP6 PUSH2 0xC2B JUMP JUMPDEST DUP1 MLOAD PUSH3 0x608017 PUSH1 0xE0 SHL DUP2 MSTORE DUP3 DUP2 ADD DUP7 SWAP1 MSTORE SWAP2 PUSH1 0x1 PUSH1 0x1 PUSH1 0xA0 SHL SUB SWAP2 PUSH32 0x0 DUP4 AND SWAP2 PUSH1 0xA0 DUP6 PUSH1 0x24 DUP2 DUP7 GAS STATICCALL SWAP4 DUP5 ISZERO PUSH2 0x829 JUMPI DUP10 SWAP4 DUP11 SWAP6 DUP12 SWAP8 DUP13 SWAP2 PUSH2 0x7F8 JUMPI JUMPDEST POP ISZERO PUSH2 0x4F0 JUMPI DUP5 ISZERO DUP1 ISZERO PUSH2 0x7F0 JUMPI JUMPDEST PUSH2 0x4F0 JUMPI SWAP1 DUP11 SWAP3 SWAP2 DUP8 PUSH2 0x797 JUMPI JUMPDEST POP PUSH32 0x0 AND DUP1 EXTCODESIZE ISZERO PUSH2 0x1AC JUMPI DUP4 MLOAD PUSH4 0x3A261155 PUSH1 0xE1 SHL DUP2 MSTORE SWAP2 DUP3 ADD DUP10 DUP2 MSTORE PUSH1 0x20 DUP2 ADD DUP10 SWAP1 MSTORE PUSH1 0x40 DUP2 ADD DUP7 SWAP1 MSTORE PUSH1 0x60 DUP2 ADD DUP8 SWAP1 MSTORE DUP4 SWAP2 DUP4 SWAP2 DUP3 SWAP1 DUP5 SWAP1 DUP3 SWAP1 PUSH1 0x80 ADD SUB SWAP3 GAS CALL DUP1 ISZERO PUSH2 0x484 JUMPI PUSH2 0x77F JUMPI JUMPDEST POP POP MLOAD SWAP4 DUP5 MSTORE PUSH1 0x20 DUP5 ADD MSTORE PUSH1 0x40 DUP4 ADD MSTORE ISZERO ISZERO PUSH1 0x60 DUP3 ADD MSTORE CALLER SWAP1 PUSH32 0x667FAD53ED97397D7E59E1C58E8731892369D3FA0B0B83C6E5923D03F7ED6BEC SWAP1 DUP1 PUSH1 0x80 DUP2 ADD PUSH2 0x462 JUMP JUMPDEST PUSH2 0x788 SWAP1 PUSH2 0xB55 JUMP JUMPDEST PUSH2 0x793 JUMPI DUP8 PUSH0 PUSH2 0x73A JUMP JUMPDEST DUP8 DUP1 REVERT JUMPDEST DUP1 EXTCODESIZE ISZERO PUSH2 0x1B9 JUMPI DUP4 DUP1 SWAP2 PUSH1 0x64 DUP14 DUP9 MLOAD SWAP5 DUP6 SWAP4 DUP5 SWAP3 PUSH4 0x30D3B1BB PUSH1 0xE0 SHL DUP5 MSTORE CALLER DUP11 DUP6 ADD MSTORE PUSH1 0x24 DUP5 ADD MSTORE PUSH1 0x1 PUSH1 0x44 DUP5 ADD MSTORE GAS CALL DUP1 ISZERO PUSH2 0x4E6 JUMPI SWAP1 DUP5 SWAP2 PUSH2 0x7DC JUMPI JUMPDEST POP PUSH2 0x6CD JUMP JUMPDEST PUSH2 0x7E5 SWAP1 PUSH2 0xB55 JUMP JUMPDEST PUSH2 0x1AC JUMPI DUP3 PUSH0 PUSH2 0x7D6 JUMP JUMPDEST POP DUP6 ISZERO PUSH2 0x6BF JUMP JUMPDEST SWAP3 SWAP7 POP POP SWAP4 POP PUSH2 0x818 SWAP2 SWAP6 POP PUSH1 0xA0 RETURNDATASIZE PUSH1 0xA0 GT PUSH2 0x542 JUMPI PUSH2 0x529 DUP2 DUP4 PUSH2 0xB7D JUMP JUMPDEST SWAP8 SWAP4 SWAP1 SWAP7 SWAP3 SWAP6 SWAP2 POP SWAP5 SWAP6 SWAP7 PUSH0 PUSH2 0x6B0 JUMP JUMPDEST DUP3 MLOAD RETURNDATASIZE DUP12 DUP3 RETURNDATACOPY RETURNDATASIZE SWAP1 REVERT JUMPDEST SWAP2 SWAP1 POP CALLVALUE PUSH2 0x61E JUMPI PUSH2 0x844 CALLDATASIZE PUSH2 0xB3F JUMP JUMPDEST SWAP3 SWAP1 SWAP2 PUSH1 0x1 DUP1 PUSH1 0xA0 SHL SUB SWAP2 DUP3 PUSH0 SLOAD AND CALLER EQ DUP1 ISZERO PUSH2 0x9AE JUMPI JUMPDEST ISZERO PUSH2 0x9A0 JUMPI PUSH1 0xFF PUSH1 0x2 SLOAD AND PUSH2 0x992 JUMPI DUP2 MLOAD PUSH4 0x31A9108F PUSH1 0xE1 SHL DUP2 MSTORE DUP2 DUP2 ADD DUP6 SWAP1 MSTORE SWAP2 PUSH1 0x20 DUP4 PUSH1 0x24 DUP2 PUSH32 0x0 DUP9 AND GAS STATICCALL SWAP3 DUP4 ISZERO PUSH2 0x988 JUMPI PUSH0 SWAP4 PUSH2 0x957 JUMPI JUMPDEST POP DUP4 PUSH32 0x0 AND SWAP2 DUP3 EXTCODESIZE ISZERO PUSH2 0x61E JUMPI DUP6 PUSH1 0x44 PUSH0 SWAP3 DUP4 DUP6 MLOAD SWAP7 DUP8 SWAP5 DUP6 SWAP4 PUSH4 0x172C847 PUSH1 0xE4 SHL DUP6 MSTORE DUP5 ADD MSTORE DUP12 PUSH1 0x24 DUP5 ADD MSTORE GAS CALL SWAP1 DUP2 ISZERO PUSH2 0x94E JUMPI POP PUSH2 0x93B JUMPI JUMPDEST POP AND PUSH32 0x7379CC2F4F86787317A5E5EBC252EB4845ACA3E5B41FCF840540DECDBAE3C44 DUP5 DUP1 LOG4 DUP1 RETURN JUMPDEST PUSH2 0x946 SWAP2 SWAP6 POP PUSH2 0xB55 JUMP JUMPDEST PUSH0 SWAP4 PUSH0 PUSH2 0x912 JUMP JUMPDEST MLOAD RETURNDATASIZE PUSH0 DUP3 RETURNDATACOPY RETURNDATASIZE SWAP1 REVERT JUMPDEST PUSH2 0x97A SWAP2 SWAP4 POP PUSH1 0x20 RETURNDATASIZE PUSH1 0x20 GT PUSH2 0x981 JUMPI JUMPDEST PUSH2 0x972 DUP2 DUP4 PUSH2 0xB7D JUMP JUMPDEST DUP2 ADD SWAP1 PUSH2 0xB9F JUMP JUMPDEST SWAP2 PUSH0 PUSH2 0x8B7 JUMP JUMPDEST POP RETURNDATASIZE PUSH2 0x968 JUMP JUMPDEST POP MLOAD RETURNDATASIZE PUSH0 DUP3 RETURNDATACOPY RETURNDATASIZE SWAP1 REVERT JUMPDEST SWAP1 MLOAD PUSH4 0x2A9FFAB7 PUSH1 0xE2 SHL DUP2 MSTORE REVERT JUMPDEST SWAP1 MLOAD PUSH4 0xEA8E4EB5 PUSH1 0xE0 SHL DUP2 MSTORE REVERT JUMPDEST POP CALLER PUSH0 MSTORE PUSH1 0x1 PUSH1 0x20 MSTORE PUSH1 0xFF DUP3 PUSH0 KECCAK256 SLOAD AND PUSH2 0x85C JUMP JUMPDEST CALLVALUE PUSH2 0x61E JUMPI PUSH0 CALLDATASIZE PUSH1 0x3 NOT ADD SLT PUSH2 0x61E JUMPI PUSH2 0x9DB PUSH2 0xC00 JUMP JUMPDEST PUSH0 DUP1 SLOAD PUSH1 0x1 PUSH1 0x1 PUSH1 0xA0 SHL SUB NOT DUP2 AND DUP3 SSTORE PUSH1 0x1 PUSH1 0x1 PUSH1 0xA0 SHL SUB AND PUSH32 0x8BE0079C531659141344CD1FD0A4F28419497F9722A3DAAFE3B4186F6B6457E0 DUP3 DUP1 LOG3 STOP JUMPDEST DUP3 CALLVALUE PUSH2 0x61E JUMPI PUSH1 0x20 CALLDATASIZE PUSH1 0x3 NOT ADD SLT PUSH2 0x61E JUMPI PUSH1 0x20 SWAP1 PUSH1 0x1 PUSH1 0x1 PUSH1 0xA0 SHL SUB PUSH2 0xA3F PUSH2 0xB29 JUMP JUMPDEST AND PUSH0 MSTORE PUSH1 0x1 DUP3 MSTORE PUSH1 0xFF DUP2 PUSH0 KECCAK256 SLOAD AND SWAP1 MLOAD SWAP1 ISZERO ISZERO DUP2 MSTORE RETURN JUMPDEST DUP3 CALLVALUE PUSH2 0x61E JUMPI DUP1 PUSH1 0x3 NOT CALLDATASIZE ADD SLT PUSH2 0x61E JUMPI PUSH2 0xA6F PUSH2 0xB29 JUMP JUMPDEST SWAP1 PUSH1 0x24 CALLDATALOAD SWAP2 DUP3 ISZERO ISZERO DUP1 SWAP4 SUB PUSH2 0x61E JUMPI PUSH2 0xA86 PUSH2 0xC00 JUMP JUMPDEST PUSH1 0x1 PUSH1 0x1 PUSH1 0xA0 SHL SUB AND SWAP3 DUP4 ISZERO PUSH2 0xADA JUMPI POP PUSH32 0x1EFF62A53441C7D0125C22F2A9A324E206B34EFA41E19469D7EFB9BB703D21A3 SWAP2 PUSH1 0x20 SWAP2 DUP5 PUSH0 MSTORE PUSH1 0x1 DUP4 MSTORE DUP1 PUSH0 KECCAK256 PUSH1 0xFF NOT DUP2 SLOAD AND PUSH1 0xFF DUP5 AND OR SWAP1 SSTORE MLOAD SWAP1 DUP2 MSTORE LOG2 STOP JUMPDEST SWAP1 MLOAD PUSH4 0xD92E233D PUSH1 0xE0 SHL DUP2 MSTORE REVERT JUMPDEST CALLVALUE PUSH2 0x61E JUMPI PUSH0 CALLDATASIZE PUSH1 0x3 NOT ADD SLT PUSH2 0x61E JUMPI PUSH32 0x0 PUSH1 0x1 PUSH1 0x1 PUSH1 0xA0 SHL SUB AND DUP2 MSTORE PUSH1 0x20 SWAP1 RETURN JUMPDEST PUSH1 0x4 CALLDATALOAD SWAP1 PUSH1 0x1 PUSH1 0x1 PUSH1 0xA0 SHL SUB DUP3 AND DUP3 SUB PUSH2 0x61E JUMPI JUMP JUMPDEST PUSH1 0x40 SWAP1 PUSH1 0x3 NOT ADD SLT PUSH2 0x61E JUMPI PUSH1 0x4 CALLDATALOAD SWAP1 PUSH1 0x24 CALLDATALOAD SWAP1 JUMP JUMPDEST PUSH8 0xFFFFFFFFFFFFFFFF DUP2 GT PUSH2 0xB69 JUMPI PUSH1 0x40 MSTORE JUMP JUMPDEST PUSH4 0x4E487B71 PUSH1 0xE0 SHL PUSH0 MSTORE PUSH1 0x41 PUSH1 0x4 MSTORE PUSH1 0x24 PUSH0 REVERT JUMPDEST SWAP1 PUSH1 0x1F DUP1 NOT SWAP2 ADD AND DUP2 ADD SWAP1 DUP2 LT PUSH8 0xFFFFFFFFFFFFFFFF DUP3 GT OR PUSH2 0xB69 JUMPI PUSH1 0x40 MSTORE JUMP JUMPDEST SWAP1 DUP2 PUSH1 0x20 SWAP2 SUB SLT PUSH2 0x61E JUMPI MLOAD PUSH1 0x1 PUSH1 0x1 PUSH1 0xA0 SHL SUB DUP2 AND DUP2 SUB PUSH2 0x61E JUMPI SWAP1 JUMP JUMPDEST MLOAD SWAP1 DUP2 ISZERO ISZERO DUP3 SUB PUSH2 0x61E JUMPI JUMP JUMPDEST SWAP1 DUP2 PUSH1 0xA0 SWAP2 SUB SLT PUSH2 0x61E JUMPI DUP1 MLOAD SWAP2 PUSH1 0x20 DUP3 ADD MLOAD SWAP2 PUSH1 0x40 DUP2 ADD MLOAD SWAP2 PUSH2 0xBFD PUSH1 0x80 PUSH2 0xBF6 PUSH1 0x60 DUP6 ADD PUSH2 0xBBE JUMP JUMPDEST SWAP4 ADD PUSH2 0xBBE JUMP JUMPDEST SWAP1 JUMP JUMPDEST PUSH0 SLOAD PUSH1 0x1 PUSH1 0x1 PUSH1 0xA0 SHL SUB AND CALLER SUB PUSH2 0xC13 JUMPI JUMP JUMPDEST PUSH1 0x40 MLOAD PUSH4 0x118CDAA7 PUSH1 0xE0 SHL DUP2 MSTORE CALLER PUSH1 0x4 DUP3 ADD MSTORE PUSH1 0x24 SWAP1 REVERT JUMPDEST PUSH1 0x40 MLOAD PUSH4 0x31A9108F PUSH1 0xE1 SHL DUP2 MSTORE PUSH1 0x4 DUP2 ADD SWAP2 SWAP1 SWAP2 MSTORE SWAP1 PUSH1 0x1 PUSH1 0x1 PUSH1 0xA0 SHL SUB SWAP1 PUSH1 0x20 DUP4 PUSH1 0x24 DUP2 PUSH32 0x0 DUP7 AND GAS STATICCALL SWAP3 DUP4 ISZERO PUSH2 0xCC4 JUMPI PUSH0 SWAP4 PUSH2 0xCA1 JUMPI JUMPDEST POP DUP2 AND SWAP2 AND SUB PUSH2 0xC8F JUMPI JUMP JUMPDEST PUSH1 0x40 MLOAD PUSH4 0xF583BD15 PUSH1 0xE0 SHL DUP2 MSTORE PUSH1 0x4 SWAP1 REVERT JUMPDEST DUP3 SWAP2 SWAP4 POP PUSH2 0xCBD SWAP1 PUSH1 0x20 RETURNDATASIZE PUSH1 0x20 GT PUSH2 0x981 JUMPI PUSH2 0x972 DUP2 DUP4 PUSH2 0xB7D JUMP JUMPDEST SWAP3 SWAP1 PUSH2 0xC83 JUMP JUMPDEST PUSH1 0x40 MLOAD RETURNDATASIZE PUSH0 DUP3 RETURNDATACOPY RETURNDATASIZE SWAP1 REVERT INVALID LOG2 PUSH5 0x6970667358 0x22 SLT KECCAK256 0xD3 ORIGIN PUSH29 0xA0A19E088602C99264706124FF09E5B4F7B1397E1DA1BDB4CBDA135139 PUSH5 0x736F6C6343 STOP ADDMOD XOR STOP CALLER "},"methodIdentifiers":{"adminApplyEnchantmentItem(address,uint256,uint256,uint256)":"aa62dedf","adminRemoveEnchantmentFromSlot(uint256,uint256)":"72f7cab2","applyEnchantmentItem(uint256,uint256,uint256)":"7c638357","authorizedCallers(address)":"536fff6c","cityEnchantmentItems()":"2681e4e4","cityWeaponSockets()":"e9625932","cityWeapons()":"ccde8c86","enchantingPaused()":"ffc9b8ba","owner()":"8da5cb5b","removeEnchantmentFromSlot(uint256,uint256)":"fb787e79","renounceOwnership()":"715018a6","setAuthorizedCaller(address,bool)":"454bbd29","setEnchantingPaused(bool)":"7f425d28","transferOwnership(address)":"f2fde38b"}}}}}