{"project/contracts/core/CityConfig.sol":{"CityConfig":{"abi":[{"inputs":[{"internalType":"address","name":"initialOwner","type":"address"}],"stateMutability":"nonpayable","type":"constructor"},{"inputs":[],"name":"InvalidValue","type":"error"},{"inputs":[{"internalType":"address","name":"owner","type":"address"}],"name":"OwnableInvalidOwner","type":"error"},{"inputs":[{"internalType":"address","name":"account","type":"address"}],"name":"OwnableUnauthorizedAccount","type":"error"},{"inputs":[],"name":"ZeroAddress","type":"error"},{"anonymous":false,"inputs":[{"indexed":true,"internalType":"address","name":"admin","type":"address"}],"name":"ConfigInitialized","type":"event"},{"anonymous":false,"inputs":[{"indexed":true,"internalType":"bytes32","name":"key","type":"bytes32"},{"indexed":true,"internalType":"address","name":"value","type":"address"}],"name":"CoreAddressSet","type":"event"},{"anonymous":false,"inputs":[{"indexed":true,"internalType":"address","name":"previousOwner","type":"address"},{"indexed":true,"internalType":"address","name":"newOwner","type":"address"}],"name":"OwnershipTransferred","type":"event"},{"anonymous":false,"inputs":[{"indexed":true,"internalType":"bytes32","name":"key","type":"bytes32"},{"indexed":false,"internalType":"uint256","name":"value","type":"uint256"}],"name":"UintConfigSet","type":"event"},{"inputs":[],"name":"KEY_BUILDING_GOLD_COST","outputs":[{"internalType":"bytes32","name":"","type":"bytes32"}],"stateMutability":"view","type":"function"},{"inputs":[],"name":"KEY_BUILDING_IRON_COST","outputs":[{"internalType":"bytes32","name":"","type":"bytes32"}],"stateMutability":"view","type":"function"},{"inputs":[],"name":"KEY_BUILDING_LEMONS_COST","outputs":[{"internalType":"bytes32","name":"","type":"bytes32"}],"stateMutability":"view","type":"function"},{"inputs":[],"name":"KEY_BUILDING_OIL_COST","outputs":[{"internalType":"bytes32","name":"","type":"bytes32"}],"stateMutability":"view","type":"function"},{"inputs":[],"name":"KEY_COMMUNITY_HEIGHT","outputs":[{"internalType":"bytes32","name":"","type":"bytes32"}],"stateMutability":"view","type":"function"},{"inputs":[],"name":"KEY_COMMUNITY_WIDTH","outputs":[{"internalType":"bytes32","name":"","type":"bytes32"}],"stateMutability":"view","type":"function"},{"inputs":[],"name":"KEY_DECAYED_THRESHOLD_DAYS","outputs":[{"internalType":"bytes32","name":"","type":"bytes32"}],"stateMutability":"view","type":"function"},{"inputs":[],"name":"KEY_DORMANT_THRESHOLD_DAYS","outputs":[{"internalType":"bytes32","name":"","type":"bytes32"}],"stateMutability":"view","type":"function"},{"inputs":[],"name":"KEY_FARMING","outputs":[{"internalType":"bytes32","name":"","type":"bytes32"}],"stateMutability":"view","type":"function"},{"inputs":[],"name":"KEY_INACTIVITY_DAYS","outputs":[{"internalType":"bytes32","name":"","type":"bytes32"}],"stateMutability":"view","type":"function"},{"inputs":[],"name":"KEY_INITIAL_FEE_BPS","outputs":[{"internalType":"bytes32","name":"","type":"bytes32"}],"stateMutability":"view","type":"function"},{"inputs":[],"name":"KEY_INPI","outputs":[{"internalType":"bytes32","name":"","type":"bytes32"}],"stateMutability":"view","type":"function"},{"inputs":[],"name":"KEY_INPINITY_NFT","outputs":[{"internalType":"bytes32","name":"","type":"bytes32"}],"stateMutability":"view","type":"function"},{"inputs":[],"name":"KEY_LAYER_ELIGIBLE_THRESHOLD_DAYS","outputs":[{"internalType":"bytes32","name":"","type":"bytes32"}],"stateMutability":"view","type":"function"},{"inputs":[],"name":"KEY_MAX_PERSONAL_PLOTS","outputs":[{"internalType":"bytes32","name":"","type":"bytes32"}],"stateMutability":"view","type":"function"},{"inputs":[],"name":"KEY_MERCENARY","outputs":[{"internalType":"bytes32","name":"","type":"bytes32"}],"stateMutability":"view","type":"function"},{"inputs":[],"name":"KEY_PARTNERSHIP","outputs":[{"internalType":"bytes32","name":"","type":"bytes32"}],"stateMutability":"view","type":"function"},{"inputs":[],"name":"KEY_PERSONAL_HEIGHT","outputs":[{"internalType":"bytes32","name":"","type":"bytes32"}],"stateMutability":"view","type":"function"},{"inputs":[],"name":"KEY_PERSONAL_WIDTH","outputs":[{"internalType":"bytes32","name":"","type":"bytes32"}],"stateMutability":"view","type":"function"},{"inputs":[],"name":"KEY_PIRATES","outputs":[{"internalType":"bytes32","name":"","type":"bytes32"}],"stateMutability":"view","type":"function"},{"inputs":[],"name":"KEY_PITRONE","outputs":[{"internalType":"bytes32","name":"","type":"bytes32"}],"stateMutability":"view","type":"function"},{"inputs":[],"name":"KEY_QUBIQ_IRON_COST","outputs":[{"internalType":"bytes32","name":"","type":"bytes32"}],"stateMutability":"view","type":"function"},{"inputs":[],"name":"KEY_QUBIQ_LEMONS_COST","outputs":[{"internalType":"bytes32","name":"","type":"bytes32"}],"stateMutability":"view","type":"function"},{"inputs":[],"name":"KEY_QUBIQ_OIL_COST","outputs":[{"internalType":"bytes32","name":"","type":"bytes32"}],"stateMutability":"view","type":"function"},{"inputs":[],"name":"KEY_RESOURCE_TOKEN","outputs":[{"internalType":"bytes32","name":"","type":"bytes32"}],"stateMutability":"view","type":"function"},{"inputs":[],"name":"KEY_TREASURY","outputs":[{"internalType":"bytes32","name":"","type":"bytes32"}],"stateMutability":"view","type":"function"},{"inputs":[{"internalType":"bytes32","name":"key","type":"bytes32"}],"name":"getAddressConfig","outputs":[{"internalType":"address","name":"","type":"address"}],"stateMutability":"view","type":"function"},{"inputs":[{"internalType":"bytes32","name":"key","type":"bytes32"}],"name":"getUintConfig","outputs":[{"internalType":"uint256","name":"","type":"uint256"}],"stateMutability":"view","type":"function"},{"inputs":[],"name":"owner","outputs":[{"internalType":"address","name":"","type":"address"}],"stateMutability":"view","type":"function"},{"inputs":[],"name":"renounceOwnership","outputs":[],"stateMutability":"nonpayable","type":"function"},{"inputs":[{"internalType":"bytes32","name":"key","type":"bytes32"},{"internalType":"address","name":"value","type":"address"}],"name":"setAddressConfig","outputs":[],"stateMutability":"nonpayable","type":"function"},{"inputs":[{"internalType":"bytes32","name":"key","type":"bytes32"},{"internalType":"uint256","name":"value","type":"uint256"}],"name":"setUintConfig","outputs":[],"stateMutability":"nonpayable","type":"function"},{"inputs":[{"internalType":"address","name":"newOwner","type":"address"}],"name":"transferOwnership","outputs":[],"stateMutability":"nonpayable","type":"function"}],"evm":{"bytecode":{"linkReferences":{},"object":"6080346100de57601f610b2638819003918201601f19168301916001600160401b038311848410176100e2578084926020946040528339810103126100de57516001600160a01b03808216918290036100de5781156100c6575f80546001600160a01b0319811684178255839216907f8be0079c531659141344cd1fd0a4f28419497f9722a3daafe3b4186f6b6457e09080a3604051907fe26263dc6e3d9db88fcb96198ad7729c820e463540a6bdb535eaf7a24c1b45985f80a2610a2f90816100f78239f35b604051631e4fbdf760e01b81525f6004820152602490fd5b5f80fd5b634e487b7160e01b5f52604160045260245ffdfe6080604090808252600480361015610015575f80fd5b5f3560e01c918263173a0fac1461099657508163177fc4c2146109285781631b8b6827146108ee5781631d8ccd04146108bf578163266ee67314610885578163283ae45d1461084b5781634ab4e154146108115781634cc5ce2e146107d757816353c7345d1461079d578163576a288d14610763578163576cee0e1461072a5781635960469e146106f05781635b290d72146106625781635c77c623146106285781636b3cf4f7146105ee5781636f2bda59146105b4578163715018a61461055d57816379e8ceee14610523578163853b7ac6146104e95781638da5cb5b146104c25781638e06c782146104885781639c7761fc1461044e578163b1e2b9dd14610427578163b79262d6146103ed578163bd674ca7146103b3578163c3e4435414610379578163cb7d5e691461033f578163e0f32aa714610305578163e67d0361146102cb578163ea6b09e514610291578163f12abb9414610257578163f2fde38b146101c8575063f660cb6c1461018b575f80fd5b346101c4575f3660031901126101c457602090517fc3a08b4e6ec4b30fa88ca3bc0512d5066263835635cc1a060437636a12dd68538152f35b5f80fd5b82346101c45760203660031901126101c4576001600160a01b038235818116939192908490036101c4576101fa6109ce565b83156102415750505f54826bffffffffffffffffffffffff60a01b8216175f55167f8be0079c531659141344cd1fd0a4f28419497f9722a3daafe3b4186f6b6457e05f80a3005b905f6024925191631e4fbdf760e01b8352820152fd5b82346101c4575f3660031901126101c457602090517fef593ccd38b7f26984a5e3452b54bcfea2c02f403fece293d0e696da14eede7c8152f35b82346101c4575f3660031901126101c457602090517f20a6f1b53fc4a6d365ae59182b80c5ca2dbaa5efa58cf65bd14a07f1dd2260dd8152f35b82346101c4575f3660031901126101c457602090517f025d5206f68b9e88e892167aecad482510543b508e91b881fb5d83420dc24e4d8152f35b82346101c4575f3660031901126101c457602090517f9ae069c7d8015fae97e5e3737a3af1a3a47f5f8137151ffe49b57e589ed54ca88152f35b82346101c4575f3660031901126101c457602090517fb8a814368f1ad65cd1f6659a394f0ca7eda5323fff3a5774f614709afad805e68152f35b82346101c4575f3660031901126101c457602090517f3c0b30f013433f67467a48e3580048b4f7a3780b09e31bb6815e59836ff91a3c8152f35b82346101c4575f3660031901126101c457602090517fab15774d33dade4fa0cca6427fbe35803172e875b3a6358fe9c459ecf0dbe0e78152f35b82346101c4575f3660031901126101c457602090517f4a3874850bb6f72c039eb399c3f26655b815497df1011d9080b31434255f70078152f35b82346101c45760203660031901126101c457602091355f5260028252805f20549051908152f35b82346101c4575f3660031901126101c457602090517f80d8e49eda9a52ba10c4b24b542159ac74a9993f716dba0c6871758387b202348152f35b82346101c4575f3660031901126101c457602090517f0e0febdddf2a41400fdcd90ee7605dffac71af562b7a5003c359af4fddf71aa38152f35b82346101c4575f3660031901126101c4575f5490516001600160a01b039091168152602090f35b82346101c4575f3660031901126101c457602090517fa2c71bbc920acda7a7e699c992f2a0b436e980ee56ec5bd745e37d8fa338e0568152f35b82346101c4575f3660031901126101c457602090517f0538047253996fbdd2a3e5358d90e604ec06fb5b0497fb4d6ddd0c928394d78e8152f35b346101c4575f3660031901126101c4576105756109ce565b5f80546001600160a01b0319811682556001600160a01b03167f8be0079c531659141344cd1fd0a4f28419497f9722a3daafe3b4186f6b6457e08280a3005b82346101c4575f3660031901126101c457602090517fa1a93122753ed6ab93a8651fe8a2933bcfddf0ef033113bc142839f8a9bd81bd8152f35b82346101c4575f3660031901126101c457602090517f8bc92e8eacfff09c5ee0bcd2ed91b72a92c94b96f6cad20e0473e96c85269ed78152f35b82346101c4575f3660031901126101c457602090517fc563084bd51709a878c9aa5ce098d8c375e292ca67027cea519f437a33d2f9ee8152f35b82346101c457806003193601126101c4576024356001600160a01b03811692803592918490036101c4576106946109ce565b83156106e25750815f5260016020525f20826bffffffffffffffffffffffff60a01b8254161790557f2745118eab489583ff7365497cd55c9dd9ab6d77f673544d74a2bb6f93cc7a265f80a3005b905163d92e233d60e01b8152fd5b82346101c4575f3660031901126101c457602090517ff9b21433f6f92715431b1158823b40d7e5c80b7f4548daf2aa3fa0cc24ef302b8152f35b82346101c4575f3660031901126101c457602090517ec5c6812c12dbef69982cf115e96da3663b5f68d3a0a79500abd142073890088152f35b82346101c4575f3660031901126101c457602090517f70553a6e19a53f9da738074dfe76872caf9069a1296be4bfb0c512ac7c49c9748152f35b82346101c4575f3660031901126101c457602090517f06aa03964db1f7257357ef09714a5f0ca3633723df419e97015e0c7a3e83edb78152f35b82346101c4575f3660031901126101c457602090517f51c0c154a6676bef4f307d878202f81f5bb7aac64e54c4e6ba4c6d6137b4a5c28152f35b82346101c4575f3660031901126101c457602090517fa4f1d586f98540cb84cb34e672f51a2979e2a1acf88090edc2588a9e6294319f8152f35b82346101c4575f3660031901126101c457602090517f1a428f770780ef1ac3238b7db7b368389523042e2463a8f746bb716711119bbc8152f35b82346101c4575f3660031901126101c457602090517f6635c9e67614e27754d967f9646af277b0bb96a1e73b3282c326113425ceaace8152f35b82346101c45760203660031901126101c457602091355f526001825260018060a01b03815f2054169051908152f35b82346101c4575f3660031901126101c457602090517fe855ca2f424ede1b3fd42fdd72ce194fcac46a26b1454cbd74c7351e49eda18d8152f35b9050346101c457816003193601126101c457803591602435916109496109ce565b821561098857507f282e7b8cd2dcdaac35d072a70020924d6d3fd280696ff1cc6d2fa46ea45a3ee391602091845f526002835281815f205551908152a2005b9051632a9ffab760e21b8152fd5b346101c4575f3660031901126101c457807ffa21229171fe89bfe5238fc6d166b6a891ef01b9b5c3c9eaf5391d42b536e67a60209252f35b5f546001600160a01b031633036109e157565b60405163118cdaa760e01b8152336004820152602490fdfea26469706673582212203c3d59b0fb8299979447c475b6b9ae733df19a2b7662bae3e3e82183b7ee9f0164736f6c63430008180033","opcodes":"PUSH1 0x80 CALLVALUE PUSH2 0xDE JUMPI PUSH1 0x1F PUSH2 0xB26 CODESIZE DUP2 SWAP1 SUB SWAP2 DUP3 ADD PUSH1 0x1F NOT AND DUP4 ADD SWAP2 PUSH1 0x1 PUSH1 0x1 PUSH1 0x40 SHL SUB DUP4 GT DUP5 DUP5 LT OR PUSH2 0xE2 JUMPI DUP1 DUP5 SWAP3 PUSH1 0x20 SWAP5 PUSH1 0x40 MSTORE DUP4 CODECOPY DUP2 ADD SUB SLT PUSH2 0xDE JUMPI MLOAD PUSH1 0x1 PUSH1 0x1 PUSH1 0xA0 SHL SUB DUP1 DUP3 AND SWAP2 DUP3 SWAP1 SUB PUSH2 0xDE JUMPI DUP2 ISZERO PUSH2 0xC6 JUMPI PUSH0 DUP1 SLOAD PUSH1 0x1 PUSH1 0x1 PUSH1 0xA0 SHL SUB NOT DUP2 AND DUP5 OR DUP3 SSTORE DUP4 SWAP3 AND SWAP1 PUSH32 0x8BE0079C531659141344CD1FD0A4F28419497F9722A3DAAFE3B4186F6B6457E0 SWAP1 DUP1 LOG3 PUSH1 0x40 MLOAD SWAP1 PUSH32 0xE26263DC6E3D9DB88FCB96198AD7729C820E463540A6BDB535EAF7A24C1B4598 PUSH0 DUP1 LOG2 PUSH2 0xA2F SWAP1 DUP2 PUSH2 0xF7 DUP3 CODECOPY RETURN JUMPDEST PUSH1 0x40 MLOAD PUSH4 0x1E4FBDF7 PUSH1 0xE0 SHL DUP2 MSTORE PUSH0 PUSH1 0x4 DUP3 ADD MSTORE PUSH1 0x24 SWAP1 REVERT JUMPDEST PUSH0 DUP1 REVERT JUMPDEST PUSH4 0x4E487B71 PUSH1 0xE0 SHL PUSH0 MSTORE PUSH1 0x41 PUSH1 0x4 MSTORE PUSH1 0x24 PUSH0 REVERT INVALID PUSH1 0x80 PUSH1 0x40 SWAP1 DUP1 DUP3 MSTORE PUSH1 0x4 DUP1 CALLDATASIZE LT ISZERO PUSH2 0x15 JUMPI PUSH0 DUP1 REVERT JUMPDEST PUSH0 CALLDATALOAD PUSH1 0xE0 SHR SWAP2 DUP3 PUSH4 0x173A0FAC EQ PUSH2 0x996 JUMPI POP DUP2 PUSH4 0x177FC4C2 EQ PUSH2 0x928 JUMPI DUP2 PUSH4 0x1B8B6827 EQ PUSH2 0x8EE JUMPI DUP2 PUSH4 0x1D8CCD04 EQ PUSH2 0x8BF JUMPI DUP2 PUSH4 0x266EE673 EQ PUSH2 0x885 JUMPI DUP2 PUSH4 0x283AE45D EQ PUSH2 0x84B JUMPI DUP2 PUSH4 0x4AB4E154 EQ PUSH2 0x811 JUMPI DUP2 PUSH4 0x4CC5CE2E EQ PUSH2 0x7D7 JUMPI DUP2 PUSH4 0x53C7345D EQ PUSH2 0x79D JUMPI DUP2 PUSH4 0x576A288D EQ PUSH2 0x763 JUMPI DUP2 PUSH4 0x576CEE0E EQ PUSH2 0x72A JUMPI DUP2 PUSH4 0x5960469E EQ PUSH2 0x6F0 JUMPI DUP2 PUSH4 0x5B290D72 EQ PUSH2 0x662 JUMPI DUP2 PUSH4 0x5C77C623 EQ PUSH2 0x628 JUMPI DUP2 PUSH4 0x6B3CF4F7 EQ PUSH2 0x5EE JUMPI DUP2 PUSH4 0x6F2BDA59 EQ PUSH2 0x5B4 JUMPI DUP2 PUSH4 0x715018A6 EQ PUSH2 0x55D JUMPI DUP2 PUSH4 0x79E8CEEE EQ PUSH2 0x523 JUMPI DUP2 PUSH4 0x853B7AC6 EQ PUSH2 0x4E9 JUMPI DUP2 PUSH4 0x8DA5CB5B EQ PUSH2 0x4C2 JUMPI DUP2 PUSH4 0x8E06C782 EQ PUSH2 0x488 JUMPI DUP2 PUSH4 0x9C7761FC EQ PUSH2 0x44E JUMPI DUP2 PUSH4 0xB1E2B9DD EQ PUSH2 0x427 JUMPI DUP2 PUSH4 0xB79262D6 EQ PUSH2 0x3ED JUMPI DUP2 PUSH4 0xBD674CA7 EQ PUSH2 0x3B3 JUMPI DUP2 PUSH4 0xC3E44354 EQ PUSH2 0x379 JUMPI DUP2 PUSH4 0xCB7D5E69 EQ PUSH2 0x33F JUMPI DUP2 PUSH4 0xE0F32AA7 EQ PUSH2 0x305 JUMPI DUP2 PUSH4 0xE67D0361 EQ PUSH2 0x2CB JUMPI DUP2 PUSH4 0xEA6B09E5 EQ PUSH2 0x291 JUMPI DUP2 PUSH4 0xF12ABB94 EQ PUSH2 0x257 JUMPI DUP2 PUSH4 0xF2FDE38B EQ PUSH2 0x1C8 JUMPI POP PUSH4 0xF660CB6C EQ PUSH2 0x18B JUMPI PUSH0 DUP1 REVERT JUMPDEST CALLVALUE PUSH2 0x1C4 JUMPI PUSH0 CALLDATASIZE PUSH1 0x3 NOT ADD SLT PUSH2 0x1C4 JUMPI PUSH1 0x20 SWAP1 MLOAD PUSH32 0xC3A08B4E6EC4B30FA88CA3BC0512D5066263835635CC1A060437636A12DD6853 DUP2 MSTORE RETURN JUMPDEST PUSH0 DUP1 REVERT JUMPDEST DUP3 CALLVALUE PUSH2 0x1C4 JUMPI PUSH1 0x20 CALLDATASIZE PUSH1 0x3 NOT ADD SLT PUSH2 0x1C4 JUMPI PUSH1 0x1 PUSH1 0x1 PUSH1 0xA0 SHL SUB DUP3 CALLDATALOAD DUP2 DUP2 AND SWAP4 SWAP2 SWAP3 SWAP1 DUP5 SWAP1 SUB PUSH2 0x1C4 JUMPI PUSH2 0x1FA PUSH2 0x9CE JUMP JUMPDEST DUP4 ISZERO PUSH2 0x241 JUMPI POP POP PUSH0 SLOAD DUP3 PUSH12 0xFFFFFFFFFFFFFFFFFFFFFFFF PUSH1 0xA0 SHL DUP3 AND OR PUSH0 SSTORE AND PUSH32 0x8BE0079C531659141344CD1FD0A4F28419497F9722A3DAAFE3B4186F6B6457E0 PUSH0 DUP1 LOG3 STOP JUMPDEST SWAP1 PUSH0 PUSH1 0x24 SWAP3 MLOAD SWAP2 PUSH4 0x1E4FBDF7 PUSH1 0xE0 SHL DUP4 MSTORE DUP3 ADD MSTORE REVERT JUMPDEST DUP3 CALLVALUE PUSH2 0x1C4 JUMPI PUSH0 CALLDATASIZE PUSH1 0x3 NOT ADD SLT PUSH2 0x1C4 JUMPI PUSH1 0x20 SWAP1 MLOAD PUSH32 0xEF593CCD38B7F26984A5E3452B54BCFEA2C02F403FECE293D0E696DA14EEDE7C DUP2 MSTORE RETURN JUMPDEST DUP3 CALLVALUE PUSH2 0x1C4 JUMPI PUSH0 CALLDATASIZE PUSH1 0x3 NOT ADD SLT PUSH2 0x1C4 JUMPI PUSH1 0x20 SWAP1 MLOAD PUSH32 0x20A6F1B53FC4A6D365AE59182B80C5CA2DBAA5EFA58CF65BD14A07F1DD2260DD DUP2 MSTORE RETURN JUMPDEST DUP3 CALLVALUE PUSH2 0x1C4 JUMPI PUSH0 CALLDATASIZE PUSH1 0x3 NOT ADD SLT PUSH2 0x1C4 JUMPI PUSH1 0x20 SWAP1 MLOAD PUSH32 0x25D5206F68B9E88E892167AECAD482510543B508E91B881FB5D83420DC24E4D DUP2 MSTORE RETURN JUMPDEST DUP3 CALLVALUE PUSH2 0x1C4 JUMPI PUSH0 CALLDATASIZE PUSH1 0x3 NOT ADD SLT PUSH2 0x1C4 JUMPI PUSH1 0x20 SWAP1 MLOAD PUSH32 0x9AE069C7D8015FAE97E5E3737A3AF1A3A47F5F8137151FFE49B57E589ED54CA8 DUP2 MSTORE RETURN JUMPDEST DUP3 CALLVALUE PUSH2 0x1C4 JUMPI PUSH0 CALLDATASIZE PUSH1 0x3 NOT ADD SLT PUSH2 0x1C4 JUMPI PUSH1 0x20 SWAP1 MLOAD PUSH32 0xB8A814368F1AD65CD1F6659A394F0CA7EDA5323FFF3A5774F614709AFAD805E6 DUP2 MSTORE RETURN JUMPDEST DUP3 CALLVALUE PUSH2 0x1C4 JUMPI PUSH0 CALLDATASIZE PUSH1 0x3 NOT ADD SLT PUSH2 0x1C4 JUMPI PUSH1 0x20 SWAP1 MLOAD PUSH32 0x3C0B30F013433F67467A48E3580048B4F7A3780B09E31BB6815E59836FF91A3C DUP2 MSTORE RETURN JUMPDEST DUP3 CALLVALUE PUSH2 0x1C4 JUMPI PUSH0 CALLDATASIZE PUSH1 0x3 NOT ADD SLT PUSH2 0x1C4 JUMPI PUSH1 0x20 SWAP1 MLOAD PUSH32 0xAB15774D33DADE4FA0CCA6427FBE35803172E875B3A6358FE9C459ECF0DBE0E7 DUP2 MSTORE RETURN JUMPDEST DUP3 CALLVALUE PUSH2 0x1C4 JUMPI PUSH0 CALLDATASIZE PUSH1 0x3 NOT ADD SLT PUSH2 0x1C4 JUMPI PUSH1 0x20 SWAP1 MLOAD PUSH32 0x4A3874850BB6F72C039EB399C3F26655B815497DF1011D9080B31434255F7007 DUP2 MSTORE RETURN JUMPDEST DUP3 CALLVALUE PUSH2 0x1C4 JUMPI PUSH1 0x20 CALLDATASIZE PUSH1 0x3 NOT ADD SLT PUSH2 0x1C4 JUMPI PUSH1 0x20 SWAP2 CALLDATALOAD PUSH0 MSTORE PUSH1 0x2 DUP3 MSTORE DUP1 PUSH0 KECCAK256 SLOAD SWAP1 MLOAD SWAP1 DUP2 MSTORE RETURN JUMPDEST DUP3 CALLVALUE PUSH2 0x1C4 JUMPI PUSH0 CALLDATASIZE PUSH1 0x3 NOT ADD SLT PUSH2 0x1C4 JUMPI PUSH1 0x20 SWAP1 MLOAD PUSH32 0x80D8E49EDA9A52BA10C4B24B542159AC74A9993F716DBA0C6871758387B20234 DUP2 MSTORE RETURN JUMPDEST DUP3 CALLVALUE PUSH2 0x1C4 JUMPI PUSH0 CALLDATASIZE PUSH1 0x3 NOT ADD SLT PUSH2 0x1C4 JUMPI PUSH1 0x20 SWAP1 MLOAD PUSH32 0xE0FEBDDDF2A41400FDCD90EE7605DFFAC71AF562B7A5003C359AF4FDDF71AA3 DUP2 MSTORE RETURN JUMPDEST DUP3 CALLVALUE PUSH2 0x1C4 JUMPI PUSH0 CALLDATASIZE PUSH1 0x3 NOT ADD SLT PUSH2 0x1C4 JUMPI PUSH0 SLOAD SWAP1 MLOAD PUSH1 0x1 PUSH1 0x1 PUSH1 0xA0 SHL SUB SWAP1 SWAP2 AND DUP2 MSTORE PUSH1 0x20 SWAP1 RETURN JUMPDEST DUP3 CALLVALUE PUSH2 0x1C4 JUMPI PUSH0 CALLDATASIZE PUSH1 0x3 NOT ADD SLT PUSH2 0x1C4 JUMPI PUSH1 0x20 SWAP1 MLOAD PUSH32 0xA2C71BBC920ACDA7A7E699C992F2A0B436E980EE56EC5BD745E37D8FA338E056 DUP2 MSTORE RETURN JUMPDEST DUP3 CALLVALUE PUSH2 0x1C4 JUMPI PUSH0 CALLDATASIZE PUSH1 0x3 NOT ADD SLT PUSH2 0x1C4 JUMPI PUSH1 0x20 SWAP1 MLOAD PUSH32 0x538047253996FBDD2A3E5358D90E604EC06FB5B0497FB4D6DDD0C928394D78E DUP2 MSTORE RETURN JUMPDEST CALLVALUE PUSH2 0x1C4 JUMPI PUSH0 CALLDATASIZE PUSH1 0x3 NOT ADD SLT PUSH2 0x1C4 JUMPI PUSH2 0x575 PUSH2 0x9CE JUMP JUMPDEST PUSH0 DUP1 SLOAD PUSH1 0x1 PUSH1 0x1 PUSH1 0xA0 SHL SUB NOT DUP2 AND DUP3 SSTORE PUSH1 0x1 PUSH1 0x1 PUSH1 0xA0 SHL SUB AND PUSH32 0x8BE0079C531659141344CD1FD0A4F28419497F9722A3DAAFE3B4186F6B6457E0 DUP3 DUP1 LOG3 STOP JUMPDEST DUP3 CALLVALUE PUSH2 0x1C4 JUMPI PUSH0 CALLDATASIZE PUSH1 0x3 NOT ADD SLT PUSH2 0x1C4 JUMPI PUSH1 0x20 SWAP1 MLOAD PUSH32 0xA1A93122753ED6AB93A8651FE8A2933BCFDDF0EF033113BC142839F8A9BD81BD DUP2 MSTORE RETURN JUMPDEST DUP3 CALLVALUE PUSH2 0x1C4 JUMPI PUSH0 CALLDATASIZE PUSH1 0x3 NOT ADD SLT PUSH2 0x1C4 JUMPI PUSH1 0x20 SWAP1 MLOAD PUSH32 0x8BC92E8EACFFF09C5EE0BCD2ED91B72A92C94B96F6CAD20E0473E96C85269ED7 DUP2 MSTORE RETURN JUMPDEST DUP3 CALLVALUE PUSH2 0x1C4 JUMPI PUSH0 CALLDATASIZE PUSH1 0x3 NOT ADD SLT PUSH2 0x1C4 JUMPI PUSH1 0x20 SWAP1 MLOAD PUSH32 0xC563084BD51709A878C9AA5CE098D8C375E292CA67027CEA519F437A33D2F9EE DUP2 MSTORE RETURN JUMPDEST DUP3 CALLVALUE PUSH2 0x1C4 JUMPI DUP1 PUSH1 0x3 NOT CALLDATASIZE ADD SLT PUSH2 0x1C4 JUMPI PUSH1 0x24 CALLDATALOAD PUSH1 0x1 PUSH1 0x1 PUSH1 0xA0 SHL SUB DUP2 AND SWAP3 DUP1 CALLDATALOAD SWAP3 SWAP2 DUP5 SWAP1 SUB PUSH2 0x1C4 JUMPI PUSH2 0x694 PUSH2 0x9CE JUMP JUMPDEST DUP4 ISZERO PUSH2 0x6E2 JUMPI POP DUP2 PUSH0 MSTORE PUSH1 0x1 PUSH1 0x20 MSTORE PUSH0 KECCAK256 DUP3 PUSH12 0xFFFFFFFFFFFFFFFFFFFFFFFF PUSH1 0xA0 SHL DUP3 SLOAD AND OR SWAP1 SSTORE PUSH32 0x2745118EAB489583FF7365497CD55C9DD9AB6D77F673544D74A2BB6F93CC7A26 PUSH0 DUP1 LOG3 STOP JUMPDEST SWAP1 MLOAD PUSH4 0xD92E233D PUSH1 0xE0 SHL DUP2 MSTORE REVERT JUMPDEST DUP3 CALLVALUE PUSH2 0x1C4 JUMPI PUSH0 CALLDATASIZE PUSH1 0x3 NOT ADD SLT PUSH2 0x1C4 JUMPI PUSH1 0x20 SWAP1 MLOAD PUSH32 0xF9B21433F6F92715431B1158823B40D7E5C80B7F4548DAF2AA3FA0CC24EF302B DUP2 MSTORE RETURN JUMPDEST DUP3 CALLVALUE PUSH2 0x1C4 JUMPI PUSH0 CALLDATASIZE PUSH1 0x3 NOT ADD SLT PUSH2 0x1C4 JUMPI PUSH1 0x20 SWAP1 MLOAD PUSH31 0xC5C6812C12DBEF69982CF115E96DA3663B5F68D3A0A79500ABD14207389008 DUP2 MSTORE RETURN JUMPDEST DUP3 CALLVALUE PUSH2 0x1C4 JUMPI PUSH0 CALLDATASIZE PUSH1 0x3 NOT ADD SLT PUSH2 0x1C4 JUMPI PUSH1 0x20 SWAP1 MLOAD PUSH32 0x70553A6E19A53F9DA738074DFE76872CAF9069A1296BE4BFB0C512AC7C49C974 DUP2 MSTORE RETURN JUMPDEST DUP3 CALLVALUE PUSH2 0x1C4 JUMPI PUSH0 CALLDATASIZE PUSH1 0x3 NOT ADD SLT PUSH2 0x1C4 JUMPI PUSH1 0x20 SWAP1 MLOAD PUSH32 0x6AA03964DB1F7257357EF09714A5F0CA3633723DF419E97015E0C7A3E83EDB7 DUP2 MSTORE RETURN JUMPDEST DUP3 CALLVALUE PUSH2 0x1C4 JUMPI PUSH0 CALLDATASIZE PUSH1 0x3 NOT ADD SLT PUSH2 0x1C4 JUMPI PUSH1 0x20 SWAP1 MLOAD PUSH32 0x51C0C154A6676BEF4F307D878202F81F5BB7AAC64E54C4E6BA4C6D6137B4A5C2 DUP2 MSTORE RETURN JUMPDEST DUP3 CALLVALUE PUSH2 0x1C4 JUMPI PUSH0 CALLDATASIZE PUSH1 0x3 NOT ADD SLT PUSH2 0x1C4 JUMPI PUSH1 0x20 SWAP1 MLOAD PUSH32 0xA4F1D586F98540CB84CB34E672F51A2979E2A1ACF88090EDC2588A9E6294319F DUP2 MSTORE RETURN JUMPDEST DUP3 CALLVALUE PUSH2 0x1C4 JUMPI PUSH0 CALLDATASIZE PUSH1 0x3 NOT ADD SLT PUSH2 0x1C4 JUMPI PUSH1 0x20 SWAP1 MLOAD PUSH32 0x1A428F770780EF1AC3238B7DB7B368389523042E2463A8F746BB716711119BBC DUP2 MSTORE RETURN JUMPDEST DUP3 CALLVALUE PUSH2 0x1C4 JUMPI PUSH0 CALLDATASIZE PUSH1 0x3 NOT ADD SLT PUSH2 0x1C4 JUMPI PUSH1 0x20 SWAP1 MLOAD PUSH32 0x6635C9E67614E27754D967F9646AF277B0BB96A1E73B3282C326113425CEAACE DUP2 MSTORE RETURN JUMPDEST DUP3 CALLVALUE PUSH2 0x1C4 JUMPI PUSH1 0x20 CALLDATASIZE PUSH1 0x3 NOT ADD SLT PUSH2 0x1C4 JUMPI PUSH1 0x20 SWAP2 CALLDATALOAD PUSH0 MSTORE PUSH1 0x1 DUP3 MSTORE PUSH1 0x1 DUP1 PUSH1 0xA0 SHL SUB DUP2 PUSH0 KECCAK256 SLOAD AND SWAP1 MLOAD SWAP1 DUP2 MSTORE RETURN JUMPDEST DUP3 CALLVALUE PUSH2 0x1C4 JUMPI PUSH0 CALLDATASIZE PUSH1 0x3 NOT ADD SLT PUSH2 0x1C4 JUMPI PUSH1 0x20 SWAP1 MLOAD PUSH32 0xE855CA2F424EDE1B3FD42FDD72CE194FCAC46A26B1454CBD74C7351E49EDA18D DUP2 MSTORE RETURN JUMPDEST SWAP1 POP CALLVALUE PUSH2 0x1C4 JUMPI DUP2 PUSH1 0x3 NOT CALLDATASIZE ADD SLT PUSH2 0x1C4 JUMPI DUP1 CALLDATALOAD SWAP2 PUSH1 0x24 CALLDATALOAD SWAP2 PUSH2 0x949 PUSH2 0x9CE JUMP JUMPDEST DUP3 ISZERO PUSH2 0x988 JUMPI POP PUSH32 0x282E7B8CD2DCDAAC35D072A70020924D6D3FD280696FF1CC6D2FA46EA45A3EE3 SWAP2 PUSH1 0x20 SWAP2 DUP5 PUSH0 MSTORE PUSH1 0x2 DUP4 MSTORE DUP2 DUP2 PUSH0 KECCAK256 SSTORE MLOAD SWAP1 DUP2 MSTORE LOG2 STOP JUMPDEST SWAP1 MLOAD PUSH4 0x2A9FFAB7 PUSH1 0xE2 SHL DUP2 MSTORE REVERT JUMPDEST CALLVALUE PUSH2 0x1C4 JUMPI PUSH0 CALLDATASIZE PUSH1 0x3 NOT ADD SLT PUSH2 0x1C4 JUMPI DUP1 PUSH32 0xFA21229171FE89BFE5238FC6D166B6A891EF01B9B5C3C9EAF5391D42B536E67A PUSH1 0x20 SWAP3 MSTORE RETURN JUMPDEST PUSH0 SLOAD PUSH1 0x1 PUSH1 0x1 PUSH1 0xA0 SHL SUB AND CALLER SUB PUSH2 0x9E1 JUMPI JUMP JUMPDEST PUSH1 0x40 MLOAD PUSH4 0x118CDAA7 PUSH1 0xE0 SHL DUP2 MSTORE CALLER PUSH1 0x4 DUP3 ADD MSTORE PUSH1 0x24 SWAP1 REVERT INVALID LOG2 PUSH5 0x6970667358 0x22 SLT KECCAK256 EXTCODECOPY RETURNDATASIZE MSIZE 0xB0 0xFB DUP3 SWAP10 SWAP8 SWAP5 SELFBALANCE 0xC4 PUSH22 0xB6B9AE733DF19A2B7662BAE3E3E82183B7EE9F016473 PUSH16 0x6C634300081800330000000000000000 "},"methodIdentifiers":{"KEY_BUILDING_GOLD_COST()":"c3e44354","KEY_BUILDING_IRON_COST()":"5960469e","KEY_BUILDING_LEMONS_COST()":"6f2bda59","KEY_BUILDING_OIL_COST()":"173a0fac","KEY_COMMUNITY_HEIGHT()":"f12abb94","KEY_COMMUNITY_WIDTH()":"6b3cf4f7","KEY_DECAYED_THRESHOLD_DAYS()":"cb7d5e69","KEY_DORMANT_THRESHOLD_DAYS()":"576cee0e","KEY_FARMING()":"283ae45d","KEY_INACTIVITY_DAYS()":"ea6b09e5","KEY_INITIAL_FEE_BPS()":"853b7ac6","KEY_INPI()":"e67d0361","KEY_INPINITY_NFT()":"f660cb6c","KEY_LAYER_ELIGIBLE_THRESHOLD_DAYS()":"79e8ceee","KEY_MAX_PERSONAL_PLOTS()":"5c77c623","KEY_MERCENARY()":"8e06c782","KEY_PARTNERSHIP()":"4cc5ce2e","KEY_PERSONAL_HEIGHT()":"e0f32aa7","KEY_PERSONAL_WIDTH()":"266ee673","KEY_PIRATES()":"576a288d","KEY_PITRONE()":"4ab4e154","KEY_QUBIQ_IRON_COST()":"9c7761fc","KEY_QUBIQ_LEMONS_COST()":"bd674ca7","KEY_QUBIQ_OIL_COST()":"1b8b6827","KEY_RESOURCE_TOKEN()":"b79262d6","KEY_TREASURY()":"53c7345d","getAddressConfig(bytes32)":"1d8ccd04","getUintConfig(bytes32)":"b1e2b9dd","owner()":"8da5cb5b","renounceOwnership()":"715018a6","setAddressConfig(bytes32,address)":"5b290d72","setUintConfig(bytes32,uint256)":"177fc4c2","transferOwnership(address)":"f2fde38b"}}}}}