{"project/contracts/crafting/CityWeapons.sol":{"CityWeapons":{"abi":[{"inputs":[{"internalType":"address","name":"initialOwner","type":"address"}],"stateMutability":"nonpayable","type":"constructor"},{"inputs":[{"internalType":"address","name":"sender","type":"address"},{"internalType":"uint256","name":"tokenId","type":"uint256"},{"internalType":"address","name":"owner","type":"address"}],"name":"ERC721IncorrectOwner","type":"error"},{"inputs":[{"internalType":"address","name":"operator","type":"address"},{"internalType":"uint256","name":"tokenId","type":"uint256"}],"name":"ERC721InsufficientApproval","type":"error"},{"inputs":[{"internalType":"address","name":"approver","type":"address"}],"name":"ERC721InvalidApprover","type":"error"},{"inputs":[{"internalType":"address","name":"operator","type":"address"}],"name":"ERC721InvalidOperator","type":"error"},{"inputs":[{"internalType":"address","name":"owner","type":"address"}],"name":"ERC721InvalidOwner","type":"error"},{"inputs":[{"internalType":"address","name":"receiver","type":"address"}],"name":"ERC721InvalidReceiver","type":"error"},{"inputs":[{"internalType":"address","name":"sender","type":"address"}],"name":"ERC721InvalidSender","type":"error"},{"inputs":[{"internalType":"uint256","name":"tokenId","type":"uint256"}],"name":"ERC721NonexistentToken","type":"error"},{"inputs":[],"name":"InvalidValue","type":"error"},{"inputs":[],"name":"NotAuthorized","type":"error"},{"inputs":[{"internalType":"address","name":"owner","type":"address"}],"name":"OwnableInvalidOwner","type":"error"},{"inputs":[{"internalType":"address","name":"account","type":"address"}],"name":"OwnableUnauthorizedAccount","type":"error"},{"inputs":[],"name":"ZeroAddress","type":"error"},{"anonymous":false,"inputs":[{"indexed":true,"internalType":"address","name":"owner","type":"address"},{"indexed":true,"internalType":"address","name":"approved","type":"address"},{"indexed":true,"internalType":"uint256","name":"tokenId","type":"uint256"}],"name":"Approval","type":"event"},{"anonymous":false,"inputs":[{"indexed":true,"internalType":"address","name":"owner","type":"address"},{"indexed":true,"internalType":"address","name":"operator","type":"address"},{"indexed":false,"internalType":"bool","name":"approved","type":"bool"}],"name":"ApprovalForAll","type":"event"},{"anonymous":false,"inputs":[{"indexed":true,"internalType":"address","name":"minter","type":"address"},{"indexed":false,"internalType":"bool","name":"allowed","type":"bool"}],"name":"AuthorizedMinterSet","type":"event"},{"anonymous":false,"inputs":[{"indexed":false,"internalType":"string","name":"newBaseURI","type":"string"}],"name":"BaseURISet","type":"event"},{"anonymous":false,"inputs":[{"indexed":true,"internalType":"address","name":"previousOwner","type":"address"},{"indexed":true,"internalType":"address","name":"newOwner","type":"address"}],"name":"OwnershipTransferred","type":"event"},{"anonymous":false,"inputs":[{"indexed":true,"internalType":"address","name":"from","type":"address"},{"indexed":true,"internalType":"address","name":"to","type":"address"},{"indexed":true,"internalType":"uint256","name":"tokenId","type":"uint256"}],"name":"Transfer","type":"event"},{"anonymous":false,"inputs":[{"indexed":true,"internalType":"uint256","name":"tokenId","type":"uint256"}],"name":"WeaponBonusesSet","type":"event"},{"anonymous":false,"inputs":[{"indexed":true,"internalType":"uint256","name":"weaponDefinitionId","type":"uint256"},{"indexed":false,"internalType":"string","name":"name","type":"string"},{"indexed":false,"internalType":"enum CityWeapons.WeaponClass","name":"class","type":"uint8"},{"indexed":false,"internalType":"enum CityWeapons.DamageType","name":"damageType","type":"uint8"},{"indexed":false,"internalType":"uint256","name":"techTier","type":"uint256"},{"indexed":false,"internalType":"bool","name":"enabled","type":"bool"}],"name":"WeaponDefinitionSet","type":"event"},{"anonymous":false,"inputs":[{"indexed":true,"internalType":"uint256","name":"tokenId","type":"uint256"},{"indexed":false,"internalType":"uint256","name":"durability","type":"uint256"}],"name":"WeaponDurabilitySet","type":"event"},{"anonymous":false,"inputs":[{"indexed":true,"internalType":"uint256","name":"tokenId","type":"uint256"},{"indexed":false,"internalType":"uint256","name":"metadataRevision","type":"uint256"}],"name":"WeaponMetadataRevisionSet","type":"event"},{"anonymous":false,"inputs":[{"indexed":true,"internalType":"uint256","name":"tokenId","type":"uint256"},{"indexed":true,"internalType":"address","name":"to","type":"address"},{"indexed":true,"internalType":"uint256","name":"weaponDefinitionId","type":"uint256"},{"indexed":false,"internalType":"bytes32","name":"craftSeed","type":"bytes32"},{"indexed":false,"internalType":"bytes32","name":"provenanceHash","type":"bytes32"}],"name":"WeaponMinted","type":"event"},{"anonymous":false,"inputs":[{"indexed":true,"internalType":"address","name":"weaponSockets","type":"address"}],"name":"WeaponSocketsSet","type":"event"},{"anonymous":false,"inputs":[{"indexed":true,"internalType":"uint256","name":"tokenId","type":"uint256"},{"indexed":false,"internalType":"uint256","name":"upgradeLevel","type":"uint256"}],"name":"WeaponUpgradeLevelSet","type":"event"},{"inputs":[{"internalType":"address","name":"to","type":"address"},{"internalType":"uint256","name":"tokenId","type":"uint256"}],"name":"approve","outputs":[],"stateMutability":"nonpayable","type":"function"},{"inputs":[{"internalType":"address","name":"","type":"address"}],"name":"authorizedMinters","outputs":[{"internalType":"bool","name":"","type":"bool"}],"stateMutability":"view","type":"function"},{"inputs":[{"internalType":"address","name":"owner","type":"address"}],"name":"balanceOf","outputs":[{"internalType":"uint256","name":"","type":"uint256"}],"stateMutability":"view","type":"function"},{"inputs":[],"name":"baseTokenURI","outputs":[{"internalType":"string","name":"","type":"string"}],"stateMutability":"view","type":"function"},{"inputs":[],"name":"cityWeaponSockets","outputs":[{"internalType":"contract ICityWeaponSockets","name":"","type":"address"}],"stateMutability":"view","type":"function"},{"inputs":[{"internalType":"address","name":"crafter","type":"address"},{"internalType":"uint256","name":"weaponDefinitionId","type":"uint256"},{"internalType":"uint256","name":"originPlotId","type":"uint256"},{"internalType":"uint256","name":"originFaction","type":"uint256"},{"internalType":"uint256","name":"originDistrictKind","type":"uint256"},{"internalType":"uint256","name":"resonanceType","type":"uint256"},{"internalType":"uint256","name":"nonce","type":"uint256"}],"name":"computeCraftSeed","outputs":[{"internalType":"bytes32","name":"","type":"bytes32"}],"stateMutability":"view","type":"function"},{"inputs":[{"internalType":"uint256","name":"weaponDefinitionId","type":"uint256"},{"internalType":"uint256","name":"rarityTier","type":"uint256"},{"internalType":"uint256","name":"frameTier","type":"uint256"},{"internalType":"uint256","name":"resonanceType","type":"uint256"},{"internalType":"uint256","name":"visualVariant","type":"uint256"},{"internalType":"bytes32","name":"craftSeed","type":"bytes32"},{"internalType":"uint256","name":"originPlotId","type":"uint256"},{"internalType":"uint256","name":"upgradeLevel","type":"uint256"}],"name":"computeProvenanceHash","outputs":[{"internalType":"bytes32","name":"","type":"bytes32"}],"stateMutability":"pure","type":"function"},{"inputs":[{"internalType":"uint256","name":"tokenId","type":"uint256"}],"name":"getApproved","outputs":[{"internalType":"address","name":"","type":"address"}],"stateMutability":"view","type":"function"},{"inputs":[{"internalType":"uint256","name":"tokenId","type":"uint256"}],"name":"getCombatProfile","outputs":[{"components":[{"internalType":"uint256","name":"minDamage","type":"uint256"},{"internalType":"uint256","name":"maxDamage","type":"uint256"},{"internalType":"uint256","name":"attackSpeed","type":"uint256"},{"internalType":"uint256","name":"baseDps","type":"uint256"},{"internalType":"uint256","name":"critChanceBps","type":"uint256"},{"internalType":"uint256","name":"critMultiplierBps","type":"uint256"},{"internalType":"uint256","name":"accuracyBps","type":"uint256"},{"internalType":"uint256","name":"range","type":"uint256"},{"internalType":"uint256","name":"durability","type":"uint256"},{"internalType":"uint256","name":"maxDurability","type":"uint256"},{"internalType":"uint256","name":"armorPenBps","type":"uint256"},{"internalType":"uint256","name":"blockChanceBps","type":"uint256"},{"internalType":"uint256","name":"lifeStealBps","type":"uint256"},{"internalType":"uint256","name":"energyCost","type":"uint256"},{"internalType":"uint256","name":"heatGeneration","type":"uint256"},{"internalType":"uint256","name":"stability","type":"uint256"},{"internalType":"uint256","name":"cooldownMs","type":"uint256"},{"internalType":"uint256","name":"projectileSpeed","type":"uint256"},{"internalType":"uint256","name":"aoeRadius","type":"uint256"},{"internalType":"uint256","name":"enchantmentSlots","type":"uint256"},{"internalType":"uint256","name":"materiaSlots","type":"uint256"},{"internalType":"uint256","name":"upgradeLevel","type":"uint256"},{"internalType":"uint256","name":"maxUpgradeLevel","type":"uint256"}],"internalType":"struct CityWeapons.CombatProfile","name":"profile","type":"tuple"}],"stateMutability":"view","type":"function"},{"inputs":[{"internalType":"uint256","name":"tokenId","type":"uint256"}],"name":"getEffectiveCombatProfile","outputs":[{"components":[{"internalType":"uint256","name":"minDamage","type":"uint256"},{"internalType":"uint256","name":"maxDamage","type":"uint256"},{"internalType":"uint256","name":"attackSpeed","type":"uint256"},{"internalType":"uint256","name":"baseDps","type":"uint256"},{"internalType":"uint256","name":"critChanceBps","type":"uint256"},{"internalType":"uint256","name":"critMultiplierBps","type":"uint256"},{"internalType":"uint256","name":"accuracyBps","type":"uint256"},{"internalType":"uint256","name":"range","type":"uint256"},{"internalType":"uint256","name":"durability","type":"uint256"},{"internalType":"uint256","name":"maxDurability","type":"uint256"},{"internalType":"uint256","name":"armorPenBps","type":"uint256"},{"internalType":"uint256","name":"blockChanceBps","type":"uint256"},{"internalType":"uint256","name":"lifeStealBps","type":"uint256"},{"internalType":"uint256","name":"energyCost","type":"uint256"},{"internalType":"uint256","name":"heatGeneration","type":"uint256"},{"internalType":"uint256","name":"stability","type":"uint256"},{"internalType":"uint256","name":"cooldownMs","type":"uint256"},{"internalType":"uint256","name":"projectileSpeed","type":"uint256"},{"internalType":"uint256","name":"aoeRadius","type":"uint256"},{"internalType":"uint256","name":"enchantmentSlots","type":"uint256"},{"internalType":"uint256","name":"materiaSlots","type":"uint256"},{"internalType":"uint256","name":"upgradeLevel","type":"uint256"},{"internalType":"uint256","name":"maxUpgradeLevel","type":"uint256"}],"internalType":"struct CityWeapons.CombatProfile","name":"profile","type":"tuple"}],"stateMutability":"view","type":"function"},{"inputs":[{"internalType":"uint256","name":"tokenId","type":"uint256"}],"name":"getWeaponStats","outputs":[{"components":[{"internalType":"uint256","name":"id","type":"uint256"},{"internalType":"string","name":"name","type":"string"},{"internalType":"enum CityWeapons.WeaponClass","name":"class","type":"uint8"},{"internalType":"enum CityWeapons.DamageType","name":"damageType","type":"uint8"},{"internalType":"uint256","name":"techTier","type":"uint256"},{"internalType":"uint256","name":"requiredLevel","type":"uint256"},{"internalType":"uint256","name":"requiredTechTier","type":"uint256"},{"internalType":"uint256","name":"minDamage","type":"uint256"},{"internalType":"uint256","name":"maxDamage","type":"uint256"},{"internalType":"uint256","name":"attackSpeed","type":"uint256"},{"internalType":"uint256","name":"critChanceBps","type":"uint256"},{"internalType":"uint256","name":"critMultiplierBps","type":"uint256"},{"internalType":"uint256","name":"accuracyBps","type":"uint256"},{"internalType":"uint256","name":"range","type":"uint256"},{"internalType":"uint256","name":"maxDurability","type":"uint256"},{"internalType":"uint256","name":"armorPenBps","type":"uint256"},{"internalType":"uint256","name":"blockChanceBps","type":"uint256"},{"internalType":"uint256","name":"lifeStealBps","type":"uint256"},{"internalType":"uint256","name":"energyCost","type":"uint256"},{"internalType":"uint256","name":"heatGeneration","type":"uint256"},{"internalType":"uint256","name":"stability","type":"uint256"},{"internalType":"uint256","name":"cooldownMs","type":"uint256"},{"internalType":"uint256","name":"projectileSpeed","type":"uint256"},{"internalType":"uint256","name":"aoeRadius","type":"uint256"},{"internalType":"uint256","name":"enchantmentSlots","type":"uint256"},{"internalType":"uint256","name":"materiaSlots","type":"uint256"},{"internalType":"uint256","name":"visualVariant","type":"uint256"},{"internalType":"uint256","name":"maxUpgradeLevel","type":"uint256"},{"internalType":"uint256","name":"familySetId","type":"uint256"},{"internalType":"bool","name":"enabled","type":"bool"}],"internalType":"struct CityWeapons.WeaponDefinition","name":"def","type":"tuple"},{"components":[{"internalType":"uint256","name":"tokenId","type":"uint256"},{"internalType":"uint256","name":"weaponDefinitionId","type":"uint256"},{"internalType":"uint256","name":"rarityTier","type":"uint256"},{"internalType":"uint256","name":"frameTier","type":"uint256"},{"internalType":"uint256","name":"durability","type":"uint256"},{"internalType":"uint256","name":"upgradeLevel","type":"uint256"},{"internalType":"uint256","name":"metadataRevision","type":"uint256"},{"internalType":"uint256","name":"originPlotId","type":"uint256"},{"internalType":"uint256","name":"originFaction","type":"uint256"},{"internalType":"uint256","name":"originDistrictKind","type":"uint256"},{"internalType":"uint256","name":"craftedAt","type":"uint256"},{"internalType":"uint256","name":"visualVariant","type":"uint256"},{"internalType":"enum CityWeapons.ResonanceType","name":"resonanceType","type":"uint8"},{"internalType":"bytes32","name":"craftSeed","type":"bytes32"},{"internalType":"bytes32","name":"provenanceHash","type":"bytes32"},{"internalType":"bool","name":"genesisEra","type":"bool"},{"internalType":"bool","name":"usedAether","type":"bool"}],"internalType":"struct CityWeapons.WeaponInstance","name":"inst","type":"tuple"},{"components":[{"internalType":"int256","name":"minDamageBonus","type":"int256"},{"internalType":"int256","name":"maxDamageBonus","type":"int256"},{"internalType":"int256","name":"attackSpeedBonus","type":"int256"},{"internalType":"int256","name":"critChanceBpsBonus","type":"int256"},{"internalType":"int256","name":"critMultiplierBpsBonus","type":"int256"},{"internalType":"int256","name":"accuracyBpsBonus","type":"int256"},{"internalType":"int256","name":"rangeBonus","type":"int256"},{"internalType":"int256","name":"maxDurabilityBonus","type":"int256"},{"internalType":"int256","name":"armorPenBpsBonus","type":"int256"},{"internalType":"int256","name":"blockChanceBpsBonus","type":"int256"},{"internalType":"int256","name":"lifeStealBpsBonus","type":"int256"},{"internalType":"int256","name":"energyCostBonus","type":"int256"},{"internalType":"int256","name":"heatGenerationBonus","type":"int256"},{"internalType":"int256","name":"stabilityBonus","type":"int256"},{"internalType":"int256","name":"cooldownMsBonus","type":"int256"},{"internalType":"int256","name":"projectileSpeedBonus","type":"int256"},{"internalType":"int256","name":"aoeRadiusBonus","type":"int256"},{"internalType":"int256","name":"enchantmentSlotsBonus","type":"int256"},{"internalType":"int256","name":"materiaSlotsBonus","type":"int256"}],"internalType":"struct CityWeapons.WeaponBonuses","name":"bonuses","type":"tuple"}],"stateMutability":"view","type":"function"},{"inputs":[{"internalType":"address","name":"owner","type":"address"},{"internalType":"address","name":"operator","type":"address"}],"name":"isApprovedForAll","outputs":[{"internalType":"bool","name":"","type":"bool"}],"stateMutability":"view","type":"function"},{"inputs":[{"internalType":"address","name":"to","type":"address"},{"internalType":"uint256","name":"weaponDefinitionId","type":"uint256"},{"internalType":"uint256","name":"rarityTier","type":"uint256"},{"internalType":"uint256","name":"frameTier","type":"uint256"},{"internalType":"uint256","name":"originPlotId","type":"uint256"},{"internalType":"uint256","name":"originFaction","type":"uint256"},{"internalType":"uint256","name":"originDistrictKind","type":"uint256"},{"internalType":"enum CityWeapons.ResonanceType","name":"resonanceType","type":"uint8"},{"internalType":"uint256","name":"visualVariant","type":"uint256"},{"internalType":"bool","name":"genesisEra","type":"bool"},{"internalType":"bool","name":"usedAether","type":"bool"},{"internalType":"uint256","name":"nonce","type":"uint256"}],"name":"mintWeapon","outputs":[{"internalType":"uint256","name":"tokenId","type":"uint256"}],"stateMutability":"nonpayable","type":"function"},{"inputs":[],"name":"name","outputs":[{"internalType":"string","name":"","type":"string"}],"stateMutability":"view","type":"function"},{"inputs":[],"name":"nextTokenId","outputs":[{"internalType":"uint256","name":"","type":"uint256"}],"stateMutability":"view","type":"function"},{"inputs":[],"name":"owner","outputs":[{"internalType":"address","name":"","type":"address"}],"stateMutability":"view","type":"function"},{"inputs":[{"internalType":"uint256","name":"tokenId","type":"uint256"}],"name":"ownerOf","outputs":[{"internalType":"address","name":"","type":"address"}],"stateMutability":"view","type":"function"},{"inputs":[],"name":"renounceOwnership","outputs":[],"stateMutability":"nonpayable","type":"function"},{"inputs":[{"internalType":"address","name":"from","type":"address"},{"internalType":"address","name":"to","type":"address"},{"internalType":"uint256","name":"tokenId","type":"uint256"}],"name":"safeTransferFrom","outputs":[],"stateMutability":"nonpayable","type":"function"},{"inputs":[{"internalType":"address","name":"from","type":"address"},{"internalType":"address","name":"to","type":"address"},{"internalType":"uint256","name":"tokenId","type":"uint256"},{"internalType":"bytes","name":"data","type":"bytes"}],"name":"safeTransferFrom","outputs":[],"stateMutability":"nonpayable","type":"function"},{"inputs":[{"internalType":"address","name":"operator","type":"address"},{"internalType":"bool","name":"approved","type":"bool"}],"name":"setApprovalForAll","outputs":[],"stateMutability":"nonpayable","type":"function"},{"inputs":[{"internalType":"address","name":"minter","type":"address"},{"internalType":"bool","name":"allowed","type":"bool"}],"name":"setAuthorizedMinter","outputs":[],"stateMutability":"nonpayable","type":"function"},{"inputs":[{"internalType":"string","name":"newBaseTokenURI","type":"string"}],"name":"setBaseURI","outputs":[],"stateMutability":"nonpayable","type":"function"},{"inputs":[{"internalType":"uint256","name":"tokenId","type":"uint256"},{"internalType":"uint256","name":"durability","type":"uint256"}],"name":"setDurability","outputs":[],"stateMutability":"nonpayable","type":"function"},{"inputs":[{"internalType":"uint256","name":"tokenId","type":"uint256"},{"internalType":"uint256","name":"metadataRevision","type":"uint256"}],"name":"setMetadataRevision","outputs":[],"stateMutability":"nonpayable","type":"function"},{"inputs":[{"internalType":"uint256","name":"tokenId","type":"uint256"},{"internalType":"uint256","name":"upgradeLevel","type":"uint256"}],"name":"setUpgradeLevel","outputs":[],"stateMutability":"nonpayable","type":"function"},{"inputs":[{"internalType":"uint256","name":"tokenId","type":"uint256"},{"components":[{"internalType":"int256","name":"minDamageBonus","type":"int256"},{"internalType":"int256","name":"maxDamageBonus","type":"int256"},{"internalType":"int256","name":"attackSpeedBonus","type":"int256"},{"internalType":"int256","name":"critChanceBpsBonus","type":"int256"},{"internalType":"int256","name":"critMultiplierBpsBonus","type":"int256"},{"internalType":"int256","name":"accuracyBpsBonus","type":"int256"},{"internalType":"int256","name":"rangeBonus","type":"int256"},{"internalType":"int256","name":"maxDurabilityBonus","type":"int256"},{"internalType":"int256","name":"armorPenBpsBonus","type":"int256"},{"internalType":"int256","name":"blockChanceBpsBonus","type":"int256"},{"internalType":"int256","name":"lifeStealBpsBonus","type":"int256"},{"internalType":"int256","name":"energyCostBonus","type":"int256"},{"internalType":"int256","name":"heatGenerationBonus","type":"int256"},{"internalType":"int256","name":"stabilityBonus","type":"int256"},{"internalType":"int256","name":"cooldownMsBonus","type":"int256"},{"internalType":"int256","name":"projectileSpeedBonus","type":"int256"},{"internalType":"int256","name":"aoeRadiusBonus","type":"int256"},{"internalType":"int256","name":"enchantmentSlotsBonus","type":"int256"},{"internalType":"int256","name":"materiaSlotsBonus","type":"int256"}],"internalType":"struct CityWeapons.WeaponBonuses","name":"bonuses","type":"tuple"}],"name":"setWeaponBonuses","outputs":[],"stateMutability":"nonpayable","type":"function"},{"inputs":[{"internalType":"uint256","name":"weaponDefinitionId","type":"uint256"},{"internalType":"string","name":"name","type":"string"},{"internalType":"enum CityWeapons.WeaponClass","name":"class","type":"uint8"},{"internalType":"enum CityWeapons.DamageType","name":"damageType","type":"uint8"},{"internalType":"uint256","name":"techTier","type":"uint256"},{"internalType":"uint256","name":"requiredLevel","type":"uint256"},{"internalType":"uint256","name":"requiredTechTier","type":"uint256"},{"internalType":"uint256","name":"minDamage","type":"uint256"},{"internalType":"uint256","name":"maxDamage","type":"uint256"},{"internalType":"uint256","name":"attackSpeed","type":"uint256"},{"internalType":"uint256","name":"critChanceBps","type":"uint256"},{"internalType":"uint256","name":"critMultiplierBps","type":"uint256"},{"internalType":"uint256","name":"accuracyBps","type":"uint256"},{"internalType":"uint256","name":"range","type":"uint256"},{"internalType":"uint256","name":"maxDurability","type":"uint256"},{"internalType":"uint256","name":"armorPenBps","type":"uint256"},{"internalType":"uint256","name":"blockChanceBps","type":"uint256"},{"internalType":"uint256","name":"lifeStealBps","type":"uint256"},{"internalType":"uint256","name":"energyCost","type":"uint256"},{"internalType":"uint256","name":"heatGeneration","type":"uint256"},{"internalType":"uint256","name":"stability","type":"uint256"},{"internalType":"uint256","name":"cooldownMs","type":"uint256"},{"internalType":"uint256","name":"projectileSpeed","type":"uint256"},{"internalType":"uint256","name":"aoeRadius","type":"uint256"},{"internalType":"uint256","name":"enchantmentSlots","type":"uint256"},{"internalType":"uint256","name":"materiaSlots","type":"uint256"},{"internalType":"uint256","name":"visualVariant","type":"uint256"},{"internalType":"uint256","name":"maxUpgradeLevel","type":"uint256"},{"internalType":"uint256","name":"familySetId","type":"uint256"},{"internalType":"bool","name":"enabled","type":"bool"}],"name":"setWeaponDefinition","outputs":[],"stateMutability":"nonpayable","type":"function"},{"inputs":[{"internalType":"address","name":"weaponSocketsAddress","type":"address"}],"name":"setWeaponSockets","outputs":[],"stateMutability":"nonpayable","type":"function"},{"inputs":[{"internalType":"bytes4","name":"interfaceId","type":"bytes4"}],"name":"supportsInterface","outputs":[{"internalType":"bool","name":"","type":"bool"}],"stateMutability":"view","type":"function"},{"inputs":[],"name":"symbol","outputs":[{"internalType":"string","name":"","type":"string"}],"stateMutability":"view","type":"function"},{"inputs":[{"internalType":"uint256","name":"tokenId","type":"uint256"}],"name":"tokenURI","outputs":[{"internalType":"string","name":"","type":"string"}],"stateMutability":"view","type":"function"},{"inputs":[{"internalType":"address","name":"from","type":"address"},{"internalType":"address","name":"to","type":"address"},{"internalType":"uint256","name":"tokenId","type":"uint256"}],"name":"transferFrom","outputs":[],"stateMutability":"nonpayable","type":"function"},{"inputs":[{"internalType":"address","name":"newOwner","type":"address"}],"name":"transferOwnership","outputs":[],"stateMutability":"nonpayable","type":"function"},{"inputs":[{"internalType":"uint256","name":"","type":"uint256"}],"name":"weaponBonusesOf","outputs":[{"internalType":"int256","name":"minDamageBonus","type":"int256"},{"internalType":"int256","name":"maxDamageBonus","type":"int256"},{"internalType":"int256","name":"attackSpeedBonus","type":"int256"},{"internalType":"int256","name":"critChanceBpsBonus","type":"int256"},{"internalType":"int256","name":"critMultiplierBpsBonus","type":"int256"},{"internalType":"int256","name":"accuracyBpsBonus","type":"int256"},{"internalType":"int256","name":"rangeBonus","type":"int256"},{"internalType":"int256","name":"maxDurabilityBonus","type":"int256"},{"internalType":"int256","name":"armorPenBpsBonus","type":"int256"},{"internalType":"int256","name":"blockChanceBpsBonus","type":"int256"},{"internalType":"int256","name":"lifeStealBpsBonus","type":"int256"},{"internalType":"int256","name":"energyCostBonus","type":"int256"},{"internalType":"int256","name":"heatGenerationBonus","type":"int256"},{"internalType":"int256","name":"stabilityBonus","type":"int256"},{"internalType":"int256","name":"cooldownMsBonus","type":"int256"},{"internalType":"int256","name":"projectileSpeedBonus","type":"int256"},{"internalType":"int256","name":"aoeRadiusBonus","type":"int256"},{"internalType":"int256","name":"enchantmentSlotsBonus","type":"int256"},{"internalType":"int256","name":"materiaSlotsBonus","type":"int256"}],"stateMutability":"view","type":"function"},{"inputs":[{"internalType":"uint256","name":"","type":"uint256"}],"name":"weaponDefinitionOf","outputs":[{"internalType":"uint256","name":"id","type":"uint256"},{"internalType":"string","name":"name","type":"string"},{"internalType":"enum CityWeapons.WeaponClass","name":"class","type":"uint8"},{"internalType":"enum CityWeapons.DamageType","name":"damageType","type":"uint8"},{"internalType":"uint256","name":"techTier","type":"uint256"},{"internalType":"uint256","name":"requiredLevel","type":"uint256"},{"internalType":"uint256","name":"requiredTechTier","type":"uint256"},{"internalType":"uint256","name":"minDamage","type":"uint256"},{"internalType":"uint256","name":"maxDamage","type":"uint256"},{"internalType":"uint256","name":"attackSpeed","type":"uint256"},{"internalType":"uint256","name":"critChanceBps","type":"uint256"},{"internalType":"uint256","name":"critMultiplierBps","type":"uint256"},{"internalType":"uint256","name":"accuracyBps","type":"uint256"},{"internalType":"uint256","name":"range","type":"uint256"},{"internalType":"uint256","name":"maxDurability","type":"uint256"},{"internalType":"uint256","name":"armorPenBps","type":"uint256"},{"internalType":"uint256","name":"blockChanceBps","type":"uint256"},{"internalType":"uint256","name":"lifeStealBps","type":"uint256"},{"internalType":"uint256","name":"energyCost","type":"uint256"},{"internalType":"uint256","name":"heatGeneration","type":"uint256"},{"internalType":"uint256","name":"stability","type":"uint256"},{"internalType":"uint256","name":"cooldownMs","type":"uint256"},{"internalType":"uint256","name":"projectileSpeed","type":"uint256"},{"internalType":"uint256","name":"aoeRadius","type":"uint256"},{"internalType":"uint256","name":"enchantmentSlots","type":"uint256"},{"internalType":"uint256","name":"materiaSlots","type":"uint256"},{"internalType":"uint256","name":"visualVariant","type":"uint256"},{"internalType":"uint256","name":"maxUpgradeLevel","type":"uint256"},{"internalType":"uint256","name":"familySetId","type":"uint256"},{"internalType":"bool","name":"enabled","type":"bool"}],"stateMutability":"view","type":"function"},{"inputs":[{"internalType":"uint256","name":"","type":"uint256"}],"name":"weaponInstanceOf","outputs":[{"internalType":"uint256","name":"tokenId","type":"uint256"},{"internalType":"uint256","name":"weaponDefinitionId","type":"uint256"},{"internalType":"uint256","name":"rarityTier","type":"uint256"},{"internalType":"uint256","name":"frameTier","type":"uint256"},{"internalType":"uint256","name":"durability","type":"uint256"},{"internalType":"uint256","name":"upgradeLevel","type":"uint256"},{"internalType":"uint256","name":"metadataRevision","type":"uint256"},{"internalType":"uint256","name":"originPlotId","type":"uint256"},{"internalType":"uint256","name":"originFaction","type":"uint256"},{"internalType":"uint256","name":"originDistrictKind","type":"uint256"},{"internalType":"uint256","name":"craftedAt","type":"uint256"},{"internalType":"uint256","name":"visualVariant","type":"uint256"},{"internalType":"enum CityWeapons.ResonanceType","name":"resonanceType","type":"uint8"},{"internalType":"bytes32","name":"craftSeed","type":"bytes32"},{"internalType":"bytes32","name":"provenanceHash","type":"bytes32"},{"internalType":"bool","name":"genesisEra","type":"bool"},{"internalType":"bool","name":"usedAether","type":"bool"}],"stateMutability":"view","type":"function"}],"evm":{"bytecode":{"linkReferences":{},"object":"6080346200038557601f19906001600160401b03601f62004d7e388190038281018616850184811186821017620002a7578592829160405283396020948591810103126200038557516001600160a01b03808216939092909184900362000385576200006a62000389565b94601586527f496e70696e697479204369747920576561706f6e730000000000000000000000818701526200009e62000389565b96600388526249435760e81b828901528651848111620002a7575f546001988982811c921680156200037a575b858310146200028857818684931162000327575b508490868311600114620002c7575f92620002bb575b50505f19600383901b1c191690881b175f555b8751938411620002a75786548781811c911680156200029c575b83821014620002885783811162000240575b5081928411600114620001da57505081929394955f92620001ce575b50505f19600383901b1c191690841b1783555b8115620001b657600680546001600160a01b031981168417909155167f8be0079c531659141344cd1fd0a4f28419497f9722a3daafe3b4186f6b6457e05f80a36008556040516149d49081620003aa8239f35b604051631e4fbdf760e01b81525f6004820152602490fd5b015190505f8062000150565b5f878152828120918516989193925b8982106200022857505083879897959697106200020f575b505050811b01835562000163565b01515f1960f88460031b161c191690555f808062000201565b808985968294968601518155019501930190620001e9565b875f52825f208480870160051c8201928588106200027e575b0160051c019088905b8281106200027257505062000134565b5f815501889062000262565b9250819262000259565b634e487b7160e01b5f52602260045260245ffd5b90607f169062000122565b634e487b7160e01b5f52604160045260245ffd5b015190505f80620000f5565b90848b9416915f8052865f20925f5b88828210620003105750508411620002f7575b505050811b015f5562000108565b01515f1960f88460031b161c191690555f8080620002e9565b8385015186558e97909501949384019301620002d6565b9091505f8052845f208680850160051c82019287861062000370575b918c91869594930160051c01915b82811062000361575050620000df565b5f81558594508c910162000351565b9250819262000343565b91607f1691620000cb565b5f80fd5b60408051919082016001600160401b03811183821017620002a75760405256fe6106c0806040526004361015610013575f80fd5b5f3560e01c90816301ffc9a714613f065750806306fdde0314613e5f578063081812fc14613e23578063095ea7b314613d4257806314207dda14613c155780631e8b3be914613a09578063239c011d1461334a57806323b872dd146133335780632efcc220146131c557806341d71b9c1461319157806342842e0e146131645780634eba5e041461302d57806352b6a40914612fea57806355f804b314612e3a5780636352211e14612e0a57806363ff22871461265657806370a0823114612600578063715018a6146125a557806375794a3c14612588578063827293d4146125205780638da5cb5b146124f85780638f2cf3441461225e57806395d89b41146121b5578063a22cb4651461210e578063a987fcdd14612033578063aa2fe91b14611ff6578063b88d4fde14611f89578063bb1f075314611a89578063c87b56dd14611842578063caca6f87146117e4578063d547cfb714611719578063e9625932146116f1578063e985e9c51461169f578063ed58bad814611604578063f122be8614610b03578063f2fde38b14610a7c5763f5dd3ceb146101b4575f80fd5b34610a78576020366003190112610a78576101cd614695565b506101d9600435614794565b6004355f52600a60205260405f2060ff600f604051926101f8846140e5565b8054845260018101546020850152600281015460408501526003810154606085015260048101546080850152600581015460a0850152600681015460c0850152600781015460e085015260088101546101008501526009810154610120850152600a810154610140850152600b81015461016085015261028283600c830154166101808601614395565b600d8101546101a0850152600e8101546101c0850152015481811615156101e084015260081c16151561020082015260208101515f52600960205260ff601c60405f20604051610140526102d8610140516140c9565b805461014051526102eb60018201614191565b602061014051015261031e83600283015461030e8282166040610140510161437d565b60081c1660606101405101614389565b60038101546080610140510152600481015460a0610140510152600581015460c0610140510152600681015460e061014051015260078101546101006101405101526008810154610120610140510152600981015461014080510152600a810154610160610140510152600b810154610180610140510152600c8101546101a0610140510152600d8101546101c0610140510152600e8101546101e0610140510152600f810154610200610140510152601081015461022061014051015260118101546102406101405101526012810154610260610140510152601381015461028061014051015260148101546102a061014051015260158101546102c061014051015260168101546102e0610140510152601781015461030061014051015260188101546103206101405101526019810154610340610140510152601a810154610360610140510152601b81015461038061014051015201541615156103a06101405101526004355f52600b6020526105b260405f20604051610300526104a861030051614101565b601281549182610300515260018101546020610300510152600281015460406103005101526003810154606061030051015260048101546080610300510152600581015460a0610300510152600681015460c0610300510152600781015460e061030051015260088101546101006103005101526009810154610120610300510152600a810154610140610300510152600b810154610160610300510152600c810154610180610300510152600d8101546101a0610300510152600e8101546101c0610300510152600f8101546101e061030051015260108101546102006103005101526011810154610220610300510152015461024061030051015260e061014051015161467a565b5f811215610a7257505f905b6105d861010061014051015160206103005101519061467a565b5f610200525f81125f14610a6957505f610200525b816102005110610a575761061161012061014051015160406103005101519061467a565b5f610100525f81125f14610a4e57505f610100525b61063e6101408051015160606103005101519061467a565b5f811215610a4857505f905b61066461016061014051015160806103005101519061467a565b5f811215610a4257505f905b61068a61018061014051015160a06103005101519061467a565b5f811215610a3c57505f905b6106b06101a061014051015160c06103005101519061467a565b5f811215610a3657505f905b6106d66101c061014051015160e06103005101519061467a565b5f811215610a3157505f5b6106fc6101e06101405101516101006103005101519061467a565b5f811215610a2b57505f915b6107236102006101405101516101206103005101519061467a565b5f811215610a2557505f935b61074a6102206101405101516101406103005101519061467a565b5f811215610a1f57505f955b6107716102406101405101516101606103005101519061467a565b5f811215610a1957505f975b6107986102606101405101516101806103005101519061467a565b5f811215610a1357505f995b6107bf6102806101405101516101a06103005101519061467a565b5f811215610a0d57505f9b5b6107e66102a06101405101516101c06103005101519061467a565b5f6080525f81125f14610a0557505f6080525b6108146102c06101405101516101e06103005101519061467a565b5f6102a0525f81125f146109fc57505f6102a0525b6108446102e06101405101516102006103005101519061467a565b5f610260525f81125f146109f357505f610260525b6108746103006101405101516102206103005101519061467a565b5f6101e0525f81125f146109ea57505f6101e0525b6108a46103206101405101516102406103005101519061467a565b5f610120525f81125f146109e157505f610120525b6108d5610100516108cd610200518461473a565b60011c614747565b9060a0608088015197015160e05261036061014051015160c05260405160a05261090060a05161411d565b60a0515261020051602060a051015261010051604060a0510152606060a0510152608060a051015260a08051015260c060a051015260e060a051015261010060a051015261012060a051015261014060a051015261016060a051015261018060a05101526101a060a05101526101c060a05101526101e060a051015260805161020060a05101526102a05161022060a05101526102605161024060a05101526101e05161026060a05101526101205161028060a051015260e0516102a060a051015260c0516102c060a0510152604051806109dd60a05182614284565b0390f35b610120526108b9565b6101e052610889565b61026052610859565b6102a052610829565b6080526107f9565b9b6107cb565b996107a4565b9761077d565b95610756565b9361072f565b91610708565b6106e1565b906106bc565b90610696565b90610670565b9061064a565b61010052610626565b604051632a9ffab760e21b8152600490fd5b610200526105ed565b906105be565b5f80fd5b34610a78576020366003190112610a7857610a95613fb7565b610a9d614808565b6001600160a01b03908116908115610aeb57600654826001600160601b0360a01b821617600655167f8be0079c531659141344cd1fd0a4f28419497f9722a3daafe3b4186f6b6457e05f80a3005b604051631e4fbdf760e01b81525f6004820152602490fd5b34610a78576020366003190112610a7857610b1c614695565b50610b28600435614794565b6004355f52600a60205260405f2060ff600f60405192610b47846140e5565b8054845260018101546020850152600281015460408501526003810154606085015260048101546080850152600581015460a0850152600681015460c0850152600781015460e085015260088101546101008501526009810154610120850152600a810154610140850152600b810154610160850152610bd183600c830154166101808601614395565b600d8101546101a0850152600e8101546101c0850152015481811615156101e084015260081c16151561020082015260208101515f52600960205260ff601c60405f2060405161036052610c27610360516140c9565b80546103605152610c3a60018201614191565b6020610360510152610c6d836002830154610c5d8282166040610360510161437d565b60081c1660606103605101614389565b60038101546080610360510152600481015460a0610360510152600581015460c0610360510152600681015460e0610360510152600781015461010061036051015260088101546101206103605101526009810154610140610360510152600a810154610160610360510152600b810154610180610360510152600c8101546101a0610360510152600d8101546101c0610360510152600e8101546101e0610360510152600f810154610200610360510152601081015461022061036051015260118101546102406103605101526012810154610260610360510152601381015461028061036051015260148101546102a061036051015260158101546102c061036051015260168101546102e0610360510152601781015461030061036051015260188101546103206103605101526019810154610340610360510152601a81015461036080510152601b81015461038061036051015201541615156103a06103605101526004355f52600b60205260405f2090601260405192610df184614101565b8054845260018101546020850152600281015460408501526003810154606085015260048101546080850152600581015460a0850152600681015460c0850152600781015460e085015260088101546101008501526009810154610120850152600a810154610140850152600b810154610160850152600c810154610180850152600d8101546101a0850152600e8101546101c0850152600f8101546101e0850152601081015461020085015260118101546102208501520154610240830152610eb96145f1565b600d546001600160a01b0316806114b3575b50610eea610ee260e061036051015185519061467a565b82519061467a565b5f8112156114ae57505f5b610f1a610f0f61010061036051015160208701519061467a565b60208401519061467a565b5f610240525f81125f146114a557505f610240525b806102405110610a57578392610f60610f5561012061036051015160408701519061467a565b60408501519061467a565b5f610380525f81125f1461149c57505f610380525b610f9a610f8f61014061036051015160608701519061467a565b60608501519061467a565b5f81121561149657505f905b610fcb610fc061016061036051015160808801519061467a565b60808601519061467a565b5f81121561149157505f5b610ffb610ff061018061036051015160a08901519061467a565b60a08701519061467a565b5f81121561148c57505f5b61102b6110206101a061036051015160c08a01519061467a565b60c08801519061467a565b5f81121561148657505f915b61105c6110516101c061036051015160e08b01519061467a565b60e08901519061467a565b5f81121561148057505f945b61108f6110836101e06103605101516101008c01519061467a565b6101008a01519061467a565b5f81121561147a57505f965b6110c26110b66102006103605101516101208d01519061467a565b6101208b01519061467a565b5f81121561147057506112c25f995b6110f96110ed8d6101406102206103605101519101519061467a565b6101408301519061467a565b5f81121561146357506111a46111985f9d5b6111326111266102406103605101516101608401519061467a565b6101608601519061467a565b5f610340525f81125f1461145a57505f610340525b61116e6111626102606103605101516101808401519061467a565b6101808601519061467a565b5f610320525f81125f1461145157505f610320525b6101a06102806103605101519101519061467a565b6101a08301519061467a565b5f81121561144457506102406112b95f9e5b6111dd6111d16102a06103605101516101c08401519061467a565b6101c08601519061467a565b5f6102e0525f81125f1461143b57505f6102e0525b61121961120d6102c06103605101516101e08401519061467a565b6101e08601519061467a565b5f6102c0525f81125f1461143257505f6102c0525b6112556112496102e06103605101516102008401519061467a565b6102008601519061467a565b5f610280525f81125f1461142957505f610280525b6112916112856103006103605101516102208401519061467a565b6102208601519061467a565b5f610220525f81125f1461142057505f610220525b826103206103605101519101519061467a565b9101519061467a565b5f6101c0525f81125f1461141757505f6101c0525b6112eb610380516108cd610240518461473a565b9060a060808801519701516101a0526103608051015161018052604051610160526113186101605161411d565b61016051526102405160206101605101526103805160406101605101526060610160510152608061016051015260a061016051015260c061016051015260e061016051015261010061016051015261012061016051015261014061016051015261016080510152610180610160510152610340516101a0610160510152610320516101c06101605101526101e06101605101526102e0516102006101605101526102c05161022061016051015261028051610240610160510152610220516102606101605101526101c0516102806101605101526101a0516102a0610160510152610180516102c0610160510152604051806109dd6101605182614284565b6101c0526112d7565b610220526112a6565b6102805261126a565b6102c05261122e565b6102e0526111f2565b6112b9610240919e6111b6565b61032052611183565b61034052611147565b6111986111a4919d61110b565b6112c290996110d1565b9661109b565b94611068565b91611037565b611006565b610fd6565b90610fa6565b61038052610f75565b61024052610f2f565b610ef5565b60249150610260906040519283809263e4551bf360e01b825260043560048301525afa9081156115f9575f916114eb575b5083610ecb565b9050610260813d610260116115f1575b816115096102609383614170565b81010312610a78576102406040519161152183614101565b805183526020810151602084015260408101516040840152606081015160608401526080810151608084015260a081015160a084015260c081015160c084015260e081015160e08401526101008101516101008401526101208101516101208401526101408101516101408401526101608101516101608401526101808101516101808401526101a08101516101a08401526101c08101516101c08401526101e08101516101e08401526102008101516102008401526102208101516102208401520151610240820152836114e4565b3d91506114fb565b6040513d5f823e3d90fd5b34610a78576040366003190112610a785761161d613fb7565b611625614006565b9061162e614808565b6001600160a01b031690811561168d5760207f17f5b635c984bd6bd0661fd547f6085ef1a0813ef0c42d24b12a06f6824b5e0891835f52600c82526116828160405f209060ff801983541691151516179055565b6040519015158152a2005b60405163d92e233d60e01b8152600490fd5b34610a78576040366003190112610a78576116b8613fb7565b6116c0613fcd565b9060018060a01b038091165f52600560205260405f2091165f52602052602060ff60405f2054166040519015158152f35b34610a78575f366003190112610a7857600d546040516001600160a01b039091168152602090f35b34610a78575f366003190112610a78576040516007545f8261173a83614091565b91828252602093600190856001821691825f146117c457505060011461177c575b5061176892500383614170565b6109dd604051928284938452830190613f92565b84915060075f525f8051602061497f833981519152905f915b8583106117ac57505061176893508201018561175b565b80548389018501528794508693909201918101611795565b60ff19168582015261176895151560051b850101925087915061175b9050565b34610a785760207fdb5932d72d80815c1cfeec4447210e1007a70ba2f081e564c59a8e780489a4e261181536613ff0565b611820939193614808565b61182984614794565b835f52600a825280600660405f200155604051908152a2005b34610a7857602080600319360112610a78576004359061186182614794565b5f827a184f03e93ff9f4daa797ed6e38ed64bf6a1f0100000000000000008181811015611a7b575b50506d04ee2d6d415b85acef810000000080851015611a6d575b50662386f26fc1000080851015611a5e575b506305f5e10080851015611a4f575b5061271080851015611a40575b506064841015611a30575b600a80941015611a26575b60019360018301918560216119146118fe86614233565b9561190c6040519788614170565b808752614233565b8588019690601f1901368837850101905b6119f8575b5050506040519384915f916007549061194282614091565b91876001821691825f146119d657505060011461198d575b50509080611972611768956005959451938491613f71565b0164173539b7b760d91b815203601a19810185520183614170565b8692935060075f525f8051602061497f833981519152905f915b8383106119be57505050830101908061197261195a565b8054838b0186015289965088949092019181016119a7565b60ff19168188015283151590930286019092019350829150611972905061195a565b5f19019082906f181899199a1a9b1b9c1cb0b131b232b360811b8282061a835304908682611925575061192a565b90600101906118e7565b90926064600291049301906118dc565b600491929404930190846118d1565b600891929404930190846118c4565b601091929404930190846118b5565b8391929404930190846118a3565b049350604091508480611889565b34610a78576103c0366003190112610a78576024356001600160401b038111610a7857611aba90369060040161404a565b90600f6044351015610a7857600d6064351015610a78576103a435918215158303610a7857611ae7614808565b60043515610a57578015610a575760443515610a575760643515610a575760e4356101043510610a57576101c43515610a5757604051611b26816140c9565b6004358152611b3636838561424e565b6020820152611b4a6044356040830161437d565b611b5960643560608301614389565b608435608082015260a43560a082015260c43560c082015260e43560e082015261010435610100820152610124356101208201526101443561014082015261016435610160820152610184356101808201526101a4356101a08201526101c4356101c08201526101e4356101e082015261020435610200820152610224356102208201526102443561024082015261026435610260820152610284356102808201526102a4356102a08201526102c4356102c08201526102e4356102e082015261030435610300820152610324356103208201526103443561034082015261036435610360820152610384356103808201528315156103a08201526004355f52600960205260405f20928151845560208201518051906001600160401b038211611f7557611c8a6001870154614091565b601f8111611f31575b50602090601f8311600114611ec357611cc392915f9183611eb8575b50508160011b915f199060031b1c19161790565b60018501555b6040820151600f811015611ea457600285015494606084015195600d871015611ea4576103a0611e6c95611e5a94601c9360ff61ff007f75a4d811ee567f7ecddca975969dabbc2ef675baf615938572e27eccd0b84cfc9c60081b1692169061ffff1916171760028501556080810151600385015560a0810151600485015560c0810151600585015560e08101516006850155610100810151600785015561012081015160088501556101408101516009850155610160810151600a850155610180810151600b8501556101a0810151600c8501556101c0810151600d8501556101e0810151600e850155610200810151600f85015561022081015160108501556102408101516011850155610260810151601285015561028081015160138501556102a081015160148501556102c081015160158501556102e08101516016850155610300810151601785015561032081015160188501556103408101516019850155610360810151601a850155610380810151601b8501550151151591019060ff801983541691151516179055565b6040519260a0845260a08401916145d1565b92611e7c60208301604435614077565b611e8b60408301606435614084565b60843560608301521515608082015280600435930390a2005b634e487b7160e01b5f52602160045260245ffd5b015190508880611caf565b9190600187015f5260205f20905f935b601f1984168510611f16576001945083601f19811610611efe575b505050811b016001850155611cc9565b01515f1960f88460031b161c19169055878080611eee565b81810151835560209485019460019093019290910190611ed3565b600187015f5260205f20601f840160051c810160208510611f6e575b601f830160051c82018110611f63575050611c93565b5f8155600101611f4d565b5080611f4d565b634e487b7160e01b5f52604160045260245ffd5b34610a78576080366003190112610a7857611fa2613fb7565b611faa613fcd565b90604435606435926001600160401b038411610a785736602385011215610a7857611fe2611ff494369060248160040135910161424e565b92611fee8383836143a1565b33614834565b005b34610a78576020366003190112610a78576001600160a01b03612017613fb7565b165f52600c602052602060ff60405f2054166040519015158152f35b34610a785761204136613ff0565b6006546001600160a01b0316331480156120f8575b156120e65761206482614794565b815f52600a60205260405f2060018101545f52600960205261209d600d60405f200154845f52600b602052600760405f2001549061467a565b5f8112156120e157505f5b8211610a5757817f639b180b62f0984251ffff3f530749b17fb63828812f715ce46fdb4c0f11481f9260046020930155604051908152a2005b6120a8565b60405163ea8e4eb560e01b8152600490fd5b50335f52600c60205260ff60405f205416612056565b34610a78576040366003190112610a7857612127613fb7565b61212f614006565b6001600160a01b0390911690811561219c57335f52600560205260405f20825f5260205261216c8160405f209060ff801983541691151516179055565b60405190151581527f17307eab39ab6107e8899845ad3d59bd9653f200f220920489ca2b5937696c3160203392a3005b604051630b61174360e31b815260048101839052602490fd5b34610a78575f366003190112610a78576040515f600182600154926121d984614091565b92838352602094856001821691825f146117c4575050600114612203575061176892500383614170565b84915060015f527fb10e2d527612073b26eecdfd717e6a320cf44b4afac2b0732d9fcbe2b7fa0cf6905f915b85831061224657505061176893508201018561175b565b8054838901850152879450869390920191810161222f565b34610a78576020366003190112610a78576004355f52600960205260405f206105c0526105c051546104805261229960016105c05101614191565b6105c05160028101546104405260038101546104605260048101546104c05260058101546006820154600783015460088401546009850154600a860154600b870154600c880154600d890154600e8a0154600f8b015460108c015460118d01546103a05260128d01546103c090815260138e01546104005260148e01546105a05260158e01546105805260168e01546105605260178e01546105405260188e01546105205260198e015461050052601a8e01546104e052601b8e01546104a052601c909d015460ff16610420526040516103e08181526104805190915280516020018e9052519b9d909c919b929a9399949895979594939261239c920190613f92565b9b6123b360406103e0510160ff6104405116614077565b6123cc60606103e0510160ff6104405160081c16614084565b6104605160806103e05101526104c05160a06103e051015260c06103e051015260e06103e05101526101006103e05101526101206103e05101526101406103e05101526101606103e05101526101806103e05101526101a06103e05101526101c06103e05101526101e06103e05101526102006103e05101526102206103e05101526103a0516102406103e05101526103c0516102606103e0510152610400516102806103e05101526105a0516102a06103e0510152610580516102c06103e0510152610560516102e06103e0510152610540516103006103e0510152610520516103206103e0510152610500516103406103e05101526104e0516103606103e05101526104a0516103806103e05101526104205115156103a06103e05101526103e05190036103e051f35b34610a78575f366003190112610a78576006546040516001600160a01b039091168152602090f35b34610a78576020366003190112610a7857612539613fb7565b612541614808565b6001600160a01b0316801561168d57600d80546001600160a01b031916821790557fd4374e79023dd7f05612419ee9383a499af288effad9e94062d86d04ecabafbf5f80a2005b34610a78575f366003190112610a78576020600854604051908152f35b34610a78575f366003190112610a78576125bd614808565b600680546001600160a01b031981169091555f906001600160a01b03167f8be0079c531659141344cd1fd0a4f28419497f9722a3daafe3b4186f6b6457e08280a3005b34610a78576020366003190112610a78576001600160a01b03612621613fb7565b16801561263e575f526003602052602060405f2054604051908152f35b6040516322718ad960e21b81525f6004820152602490fd5b34610a78576020366003190112610a78575f6103a0604051612677816140c9565b828152606060208201528260408201528260608201528260808201528260a08201528260c08201528260e08201528261010082015282610120820152826101408201528261016082015282610180820152826101a0820152826101c0820152826101e08201528261020082015282610220820152826102408201528261026082015282610280820152826102a0820152826102c0820152826102e0820152826103008201528261032082015282610340820152826103608201528261038082015201525f61020060405161274a816140e5565b8281528260208201528260408201528260608201528260808201528260a08201528260c08201528260e08201528261010082015282610120820152826101408201528261016082015282610180820152826101a0820152826101c0820152826101e082015201526127b96145f1565b506127c5600435614794565b6004355f52600a60205261020060405f2060ff600f604051926127e7846140e5565b8054845260018101546020850152600281015460408501526003810154606085015260048101546080850152600581015460a0850152600681015460c0850152600781015460e085015260088101546101008501526009810154610120850152600a810154610140850152600b81015461016085015261287183600c830154166101808601614395565b600d8101546101a0850152600e8101546101c0850152015481811615156101e084015260081c1615158282015260208101515f52600960205260405f2060ff601c604051926128bf846140c9565b805484526128cf60018201614191565b60208501526128f98360028301546128ec8282166040890161437d565b60081c1660608601614389565b60038101546080850152600481015460a0850152600581015460c0850152600681015460e0850152600781015461010085015260088101546101208501526009810154610140850152600a810154610160850152600b810154610180850152600c8101546101a0850152600d8101546101c0850152600e8101546101e0850152600f81015486850152601081015461022085015260118101546102408501526012810154610260850152601381015461028085015260148101546102a085015260158101546102c085015260168101546102e0850152601781015461030085015260188101546103208501526019810154610340850152601a810154610360850152601b81015461038085015201541615156103a08201526004355f52600b60205261024060405f20601260405191612a3183614101565b8054835260018101546020840152600281015460408401526003810154606084015260048101546080840152600581015460a0840152600681015460c0840152600781015460e084015260088101546101008401526009810154610120840152600a810154610140840152600b810154610160840152600c810154610180840152600d8101546101a0840152600e8101546101c0840152600f8101546101e084015260108101548784015260118101546102208401520154828201526040519485946104a08087528551908701526103a0612b1e60208701516103c06104c08a0152610860890190613f92565b95612b3260408201516104e08a0190614077565b612b4560608201516105008a0190614084565b608081015161052089015260a081015161054089015260c081015161056089015260e08101516105808901526101008101516105a08901526101208101516105c08901526101408101516105e08901526101608101516106008901526101808101516106208901526101a08101516106408901526101c08101516106608901526101e0810151610680890152838101516106a08901526102208101516106c0890152858101516106e08901526102608101516107008901526102808101516107208901526102a08101516107408901526102c08101516107608901526102e08101516107808901526103008101516107a08901526103208101516107c08901526103408101516107e08901526103608101516108008901526103808101516108208901520151151561084087015280516020870152602081015160408701526040810151606087015260608101516080870152608081015160a087015260a081015160c087015260c081015160e087015260e0810151610100870152610100810151610120870152610120810151610140870152610140810151610160870152610160810151610180870152612d056101808201516101a0880190613fe3565b6101a08101516101c08701526101c08101516101e08701526101e0810151151582870152015115156102208501528051828501526020810151610260850152604081015161028085015260608101516102a085015260808101516102c085015260a08101516102e085015260c081015161030085015260e08101516103208501526101008101516103408501526101208101516103608501526101408101516103808501526101608101516103a08501526101808101516103c08501526101a08101516103e08501526101c08101516104008501526101e081015161042085015261020081015161044085015261022081015161046085015201516104808301520390f35b34610a78576020366003190112610a78576020612e2860043561475a565b6040516001600160a01b039091168152f35b34610a7857602080600319360112610a78576001600160401b0390600435828111610a7857612e6d90369060040161404a565b919092612e78614808565b8211611f7557612e89600754614091565b601f8111612f9b575b505f601f8311600114612f09577ff9c7803e94e0d3c02900d8a90893a6d5e90dd04d32a4cfe825520f82bf9f32f693612ee48480612ef9945f91612efe575b508160011b915f199060031b1c19161790565b6007555b6040519383859485528401916145d1565b0390a1005b905083013588612ed1565b601f1983169060075f525f8051602061497f833981519152915f5b818110612f845750917ff9c7803e94e0d3c02900d8a90893a6d5e90dd04d32a4cfe825520f82bf9f32f6959185612ef99410612f6b575b5050600184811b01600755612ee8565b8201355f19600387901b60f8161c191690558580612f5b565b91928460018192868a013581550194019201612f24565b60075f525f8051602061497f833981519152601f840160051c810191838510612fe0575b601f0160051c01905b818110612fd55750612e92565b5f8155600101612fc8565b9091508190612fbf565b34610a785760e0366003190112610a78576020613025613008613fb7565b60c4359060a4359060843590606435906044359060243590614580565b604051908152f35b34610a7857610280366003190112610a7857600435610260366023190112610a78576006546001600160a01b03163314801561314e575b156120e65761307281614794565b805f52600b60205260405f20602435815560443560018201556064356002820155608435600382015560a435600482015560c435600582015560e435600682015561010435600782015561012435600882015561014435600982015561016435600a82015561018435600b8201556101a435600c8201556101c435600d8201556101e435600e82015561020435600f820155610224356010820155610244356011820155601261026435910155613128816147b2565b7f5ac94e62f71242482af44ed7a72ec181709d493d90538495c19d8026b2726d535f80a2005b50335f52600c60205260ff60405f205416613064565b34610a7857611ff461317536614015565b906040519261318384614139565b5f8452611fee8383836143a1565b34610a7857610100366003190112610a7857602061302560e43560c43560a435608435606435604435602435600435614537565b34610a78576020366003190112610a78576004355f52600b6020526012600f600e600d600c600b600a600960086007600660056004600360405f209d8e9d8e9d8e9d8e9d8e9d8e9d8e9d8e9d8e9d8e9d8e9d8e9d8e9d8e549e60018101546106605260028101546106805201549e01549e01549e01549e01549e01549e01549e01549e01549e01549e01549e01549e01549e60108101546105e0526011810154610620520154610640526040516106005261060051526106605160206106005101526106805160406106005101526060610600510152608061060051015260a061060051015260c061060051015260e06106005101526101006106005101526101206106005101526101406106005101526101606106005101526101806106005101526101a06106005101526101c06106005101526101e06106005101526105e051610200610600510152610620516102206106005101526106405161024061060051015261026061060051f35b34610a7857611ff461334436614015565b916143a1565b34610a7857610180366003190112610a7857613364613fb7565b600460e4351015610a7857610124358015158103610a785761014435918215158303610a78576006546001600160a01b0316331480156139f3575b156120e6576001600160a01b0381161561168d576024355f52600960205260405f209160ff601c604051946133d3866140c9565b805486526133e360018201614191565b602087015261340d83600283015461340082821660408b0161437d565b60081c1660608801614389565b60038101546080870152600481015460a0870152600581015460c0870152600681015460e0870152600781015461010087015260088101546101208701526009810154610140870152600a810154610160870152600b810154610180870152600c8101546101a0870152600d8101546101c0870152600e8101546101e0870152600f810154610200870152601081015461022087015260118101546102408701526012810154610260870152601381015461028087015260148101546102a087015260158101546102c087015260168101546102e0870152601781015461030087015260188101546103208701526019810154610340870152601a810154610360870152601b8101546103808701520154161580156103a08501528351159081156139eb575b50610a5757600854925f1984146139d7576001840160085560405161355781614139565b5f808252858152600260205260409020546001600160a01b0316801515908690826139a4575b6001600160a01b0387165f818152600360209081526040808320805460010190558583526002909152812080546001600160a01b031916831790559091907fddf252ad1be2c89b69c2b068fc378daa952ba7f163c4a11628f55a4df523b3ef9080a461398c57833b613849575b506101043561383f57610340810151945b6136176101643560e43560c43560a4356084356024358a614580565b926101c0604051602081019060243582526044356040820152606435606082015260e43560808201528960a08201528660c082015260843560e08201525f610100820152610100815261366981614154565b519020930151966040519761367d896140e5565b87895260243560208a015260443560408a015260643560608a015260808901525f60a0890152600160c089015260843560e089015260a43561010089015260c435610120890152426101408901526101608801526136e160e4356101808901614395565b836101a0880152826101c088015215156101e08701521515610200860152835f52600a60205260405f2094805186556020810151600187015560408101516002870155606081015160038701556080810151600487015560a0810151600587015560c0810151600687015560e0810151600787015561010081015160088701556101208101516009870155610140810151600a870155610160810151600b870155600c86016101808201516004811015611ea45760209761020092600f9260ff801983541691161790556101a0840151600d8201556101c0840151600e82015501916137e06101e08201511515849060ff801983541691151516179055565b0151815461ff00191690151560081b61ff00161790556040805192835285830191909152602435926001600160a01b03169184917fb4159120f3fdafbcf93b1af827525210b1a3a1add9ef5d0539fa31ca0473a73391a4604051908152f35b61010435946135fb565b6020613887916040979695975180938192630a85bd0160e11b83523360048401525f6024840152886044840152608060648401526084830190613f92565b03815f6001600160a01b038b165af15f9181613947575b5061390557853d156138fd573d906138b582614233565b916138c36040519384614170565b82523d5f602084013e5b815191826138f657604051633250574960e11b81526001600160a01b0383166004820152602490fd5b6020915001fd5b6060906138cd565b939492936001600160e01b03191663757a42ff60e11b0161392657856135ea565b604051633250574960e11b81526001600160a01b0384166004820152602490fd5b9091506020813d602011613984575b8161396360209383614170565b81010312610a7857516001600160e01b031981168103610a7857908761389e565b3d9150613956565b6040516339e3563760e11b81525f6004820152602490fd5b5f82815260046020526040902080546001600160a01b0319169055805f52600360205260405f205f19815401905561357d565b634e487b7160e01b5f52601160045260245ffd5b905085613533565b50335f52600c60205260ff60405f20541661339f565b34610a7857613a1736613ff0565b6006546001600160a01b031633148015613bff575b156120e657613a3a82614794565b815f52600a60205260405f2060018101545f52600960205260405f20604051613a62816140c9565b81548152613a7260018301614191565b6020820152613a9d60ff6002840154613a908282166040860161437d565b60081c1660608301614389565b60038201546080820152600482015460a0820152600582015460c0820152600682015460e0820152600782015461010082015260088201546101208201526009820154610140820152600a820154610160820152600b820154610180820152600c8201546101a0820152600d8201546101c0820152600e8201546101e0820152600f820154610200820152601082015461022082015260118201546102408201526012820154610260820152601382015461028082015260148201546102a082015260158201546102c082015260168201546102e08201526017820154610300820152601882015461032082015260198201546103408201526103a060ff601c601a8501549485610360860152601b81015461038086015201541615159101528211610a5757817f7d411743d1571df710bf51f9844ae535a8d1c447ef770551b20cfac0ff097e2e9260056020930155613bf6846147b2565b604051908152a2005b50335f52600c60205260ff60405f205416613a2c565b34610a78576020366003190112610a78576004355f52600a60205260405f2080549080600181015460028201546003830154600484015460058501546006860154600787015490600888015492600989015494600a8a015496600b8b015498600c8c015460ff169a600d8d01549c600e01549d600f01549e6040516106a0526106a051526106a051602001526106a051604001526106a051606001526106a051608001526106a05160a001526106a05160c001526106a05160e001526106a05161010001526106a05161012001526106a05161014001526106a05161016001526106a05161018001613d0691613fe3565b6106a0516101a001526106a0516101c0015260ff811615156106a0516101e0015260081c60ff1615156106a05161020001526106a05161022090f35b34610a78576040366003190112610a7857613d5b613fb7565b602435613d678161475a565b33151580613e10575b80613de7575b613dcf576001600160a01b039283169282918491167f8c5be1e5ebec7d5bd14f71427d1e84f3dd0314c0f7b2291e5b200ac8c7c3b9255f80a45f90815260046020526040902080546001600160a01b0319169091179055005b60405163a9fbf51f60e01b8152336004820152602490fd5b5060018060a01b0381165f52600560205260405f20335f5260205260ff60405f20541615613d76565b506001600160a01b038116331415613d70565b34610a78576020366003190112610a7857600435613e408161475a565b505f526004602052602060018060a01b0360405f205416604051908152f35b34610a78575f366003190112610a78576040515f80549082613e8083614091565b91828252602093600190856001821691825f146117c4575050600114613ead575061176892500383614170565b5f808052859250907f290decd9548b62a8d60345a988386fc84ba6bc95484008f6362f93160ef3e5635b858310613eee57505061176893508201018561175b565b80548389018501528794508693909201918101613ed7565b34610a78576020366003190112610a78576004359063ffffffff60e01b8216809203610a78576020916380ac58cd60e01b8114908115613f60575b8115613f4f575b5015158152f35b6301ffc9a760e01b14905083613f48565b635b5e139f60e01b81149150613f41565b5f5b838110613f825750505f910152565b8181015183820152602001613f73565b90602091613fab81518092818552858086019101613f71565b601f01601f1916010190565b600435906001600160a01b0382168203610a7857565b602435906001600160a01b0382168203610a7857565b906004821015611ea45752565b6040906003190112610a78576004359060243590565b602435908115158203610a7857565b6060906003190112610a78576001600160a01b03906004358281168103610a7857916024359081168103610a78579060443590565b9181601f84011215610a78578235916001600160401b038311610a785760208381860195010111610a7857565b90600f821015611ea45752565b90600d821015611ea45752565b90600182811c921680156140bf575b60208310146140ab57565b634e487b7160e01b5f52602260045260245ffd5b91607f16916140a0565b6103c081019081106001600160401b03821117611f7557604052565b61022081019081106001600160401b03821117611f7557604052565b61026081019081106001600160401b03821117611f7557604052565b6102e081019081106001600160401b03821117611f7557604052565b602081019081106001600160401b03821117611f7557604052565b61012081019081106001600160401b03821117611f7557604052565b90601f801991011681019081106001600160401b03821117611f7557604052565b9060405191825f82546141a381614091565b908184526020946001916001811690815f1461421157506001146141d3575b5050506141d192500383614170565b565b5f90815285812095935091905b8183106141f95750506141d193508201015f80806141c2565b855488840185015294850194879450918301916141e0565b925050506141d194925060ff191682840152151560051b8201015f80806141c2565b6001600160401b038111611f7557601f01601f191660200190565b92919261425a82614233565b916142686040519384614170565b829481845281830111610a78578281602093845f960137010152565b9190916102e0810192805182526020810151602083015260408101516040830152606081015160608301526080810151608083015260a081015160a083015260c081015160c083015260e081015160e0830152610100808201519083015261012080820151908301526101408082015190830152610160808201519083015261018080820151908301526101a080820151908301526101c080820151908301526101e08082015190830152610200808201519083015261022080820151908301526102408082015190830152610260808201519083015261028080820151908301526102a080820151908301526102c080910151910152565b600f821015611ea45752565b600d821015611ea45752565b6004821015611ea45752565b6001600160a01b03918216929091831561451f57815f52602092600284528260409583875f205416953315158061448d575b506002908761445c575b825f5260038152885f2060018154019055835f5252865f20816001600160601b0360a01b825416179055857fddf252ad1be2c89b69c2b068fc378daa952ba7f163c4a11628f55a4df523b3ef5f80a4169283830361443b5750505050565b6064945051926364283d7b60e01b8452600484015260248301526044820152fd5b5f84815260046020526040812080546001600160a01b03191690558881526003825289902080545f190190556143dd565b91925090806144de575b156144a5579084915f6143d3565b8685876144c2576024915190637e27328960e01b82526004820152fd5b604491519063177e802f60e01b82523360048301526024820152fd5b503386148015614503575b806144975750845f52600481523384885f20541614614497565b50855f5260058152865f20335f52815260ff875f2054166144e9565b604051633250574960e11b81525f6004820152602490fd5b96949290959391604051966020880198895260408801526060870152608086015260a085015260c084015260e08301526101009081830152815261457a81614154565b51902090565b959391949290946040519560208701976001600160601b03199060601b168852603487015260548601526074850152609484015260b48301524260d483015260f482015260f4815261457a81614154565b908060209392818452848401375f828201840152601f01601f1916010190565b604051906145fe82614101565b5f610240838281528260208201528260408201528260608201528260808201528260a08201528260c08201528260e08201528261010082015282610120820152826101408201528261016082015282610180820152826101a0820152826101c0820152826101e082015282610200820152826102208201520152565b9190915f83820193841291129080158216911516176139d757565b604051906146a28261411d565b5f6102c0838281528260208201528260408201528260608201528260808201528260a08201528260c08201528260e08201528261010082015282610120820152826101408201528261016082015282610180820152826101a0820152826101c0820152826101e08201528261020082015282610220820152826102408201528261026082015282610280820152826102a08201520152565b919082018092116139d757565b818102929181159184041417156139d757565b5f818152600260205260409020546001600160a01b031690811561477c575090565b60249060405190637e27328960e01b82526004820152fd5b5f908152600260205260409020546001600160a01b031615610a5757565b5f52600a60205260405f206001810154600282015460038301549160ff600c85015416916004831015611ea457600e9361480393600b87015490600d8801549260078901549460058a015496614537565b910155565b6006546001600160a01b0316330361481c57565b60405163118cdaa760e01b8152336004820152602490fd5b9293909193843b614847575b5050505050565b604051630a85bd0160e11b8082526001600160a01b03958616600483015293851660248201526044810191909152608060648201526020959490931693929085908290819061489a906084830190613f92565b03815f885af15f918161493e575b50614907575050503d5f146148ff573d916148c283614233565b926148d06040519485614170565b83523d5f8285013e5b825192836148fa57604051633250574960e11b815260048101849052602490fd5b019050fd5b6060916148d9565b9193506001600160e01b03199091160361492657505f80808080614840565b60249060405190633250574960e11b82526004820152fd5b9091508581813d8311614977575b6149568183614170565b81010312610a7857516001600160e01b031981168103610a7857905f6148a8565b503d61494c56fea66cc928b5edb82af9bd49922954155ab7b0942694bea4ce44661d9a8736c688a2646970667358221220ec5d8960f663880c3d12f699ec3f8d3a40e5af864f55d5b1876f6826b4cee65164736f6c63430008180033","opcodes":"PUSH1 0x80 CALLVALUE PUSH3 0x385 JUMPI PUSH1 0x1F NOT SWAP1 PUSH1 0x1 PUSH1 0x1 PUSH1 0x40 SHL SUB PUSH1 0x1F PUSH3 0x4D7E CODESIZE DUP2 SWAP1 SUB DUP3 DUP2 ADD DUP7 AND DUP6 ADD DUP5 DUP2 GT DUP7 DUP3 LT OR PUSH3 0x2A7 JUMPI DUP6 SWAP3 DUP3 SWAP2 PUSH1 0x40 MSTORE DUP4 CODECOPY PUSH1 0x20 SWAP5 DUP6 SWAP2 DUP2 ADD SUB SLT PUSH3 0x385 JUMPI MLOAD PUSH1 0x1 PUSH1 0x1 PUSH1 0xA0 SHL SUB DUP1 DUP3 AND SWAP4 SWAP1 SWAP3 SWAP1 SWAP2 DUP5 SWAP1 SUB PUSH3 0x385 JUMPI PUSH3 0x6A PUSH3 0x389 JUMP JUMPDEST SWAP5 PUSH1 0x15 DUP7 MSTORE PUSH32 0x496E70696E697479204369747920576561706F6E730000000000000000000000 DUP2 DUP8 ADD MSTORE PUSH3 0x9E PUSH3 0x389 JUMP JUMPDEST SWAP7 PUSH1 0x3 DUP9 MSTORE PUSH3 0x494357 PUSH1 0xE8 SHL DUP3 DUP10 ADD MSTORE DUP7 MLOAD DUP5 DUP2 GT PUSH3 0x2A7 JUMPI PUSH0 SLOAD PUSH1 0x1 SWAP9 DUP10 DUP3 DUP2 SHR SWAP3 AND DUP1 ISZERO PUSH3 0x37A JUMPI JUMPDEST DUP6 DUP4 LT EQ PUSH3 0x288 JUMPI DUP2 DUP7 DUP5 SWAP4 GT PUSH3 0x327 JUMPI JUMPDEST POP DUP5 SWAP1 DUP7 DUP4 GT PUSH1 0x1 EQ PUSH3 0x2C7 JUMPI PUSH0 SWAP3 PUSH3 0x2BB JUMPI JUMPDEST POP POP PUSH0 NOT PUSH1 0x3 DUP4 SWAP1 SHL SHR NOT AND SWAP1 DUP9 SHL OR PUSH0 SSTORE JUMPDEST DUP8 MLOAD SWAP4 DUP5 GT PUSH3 0x2A7 JUMPI DUP7 SLOAD DUP8 DUP2 DUP2 SHR SWAP2 AND DUP1 ISZERO PUSH3 0x29C JUMPI JUMPDEST DUP4 DUP3 LT EQ PUSH3 0x288 JUMPI DUP4 DUP2 GT PUSH3 0x240 JUMPI JUMPDEST POP DUP2 SWAP3 DUP5 GT PUSH1 0x1 EQ PUSH3 0x1DA JUMPI POP POP DUP2 SWAP3 SWAP4 SWAP5 SWAP6 PUSH0 SWAP3 PUSH3 0x1CE JUMPI JUMPDEST POP POP PUSH0 NOT PUSH1 0x3 DUP4 SWAP1 SHL SHR NOT AND SWAP1 DUP5 SHL OR DUP4 SSTORE JUMPDEST DUP2 ISZERO PUSH3 0x1B6 JUMPI PUSH1 0x6 DUP1 SLOAD PUSH1 0x1 PUSH1 0x1 PUSH1 0xA0 SHL SUB NOT DUP2 AND DUP5 OR SWAP1 SWAP2 SSTORE AND PUSH32 0x8BE0079C531659141344CD1FD0A4F28419497F9722A3DAAFE3B4186F6B6457E0 PUSH0 DUP1 LOG3 PUSH1 0x8 SSTORE PUSH1 0x40 MLOAD PUSH2 0x49D4 SWAP1 DUP2 PUSH3 0x3AA DUP3 CODECOPY RETURN JUMPDEST PUSH1 0x40 MLOAD PUSH4 0x1E4FBDF7 PUSH1 0xE0 SHL DUP2 MSTORE PUSH0 PUSH1 0x4 DUP3 ADD MSTORE PUSH1 0x24 SWAP1 REVERT JUMPDEST ADD MLOAD SWAP1 POP PUSH0 DUP1 PUSH3 0x150 JUMP JUMPDEST PUSH0 DUP8 DUP2 MSTORE DUP3 DUP2 KECCAK256 SWAP2 DUP6 AND SWAP9 SWAP2 SWAP4 SWAP3 JUMPDEST DUP10 DUP3 LT PUSH3 0x228 JUMPI POP POP DUP4 DUP8 SWAP9 SWAP8 SWAP6 SWAP7 SWAP8 LT PUSH3 0x20F JUMPI JUMPDEST POP POP POP DUP2 SHL ADD DUP4 SSTORE PUSH3 0x163 JUMP JUMPDEST ADD MLOAD PUSH0 NOT PUSH1 0xF8 DUP5 PUSH1 0x3 SHL AND SHR NOT AND SWAP1 SSTORE PUSH0 DUP1 DUP1 PUSH3 0x201 JUMP JUMPDEST DUP1 DUP10 DUP6 SWAP7 DUP3 SWAP5 SWAP7 DUP7 ADD MLOAD DUP2 SSTORE ADD SWAP6 ADD SWAP4 ADD SWAP1 PUSH3 0x1E9 JUMP JUMPDEST DUP8 PUSH0 MSTORE DUP3 PUSH0 KECCAK256 DUP5 DUP1 DUP8 ADD PUSH1 0x5 SHR DUP3 ADD SWAP3 DUP6 DUP9 LT PUSH3 0x27E JUMPI JUMPDEST ADD PUSH1 0x5 SHR ADD SWAP1 DUP9 SWAP1 JUMPDEST DUP3 DUP2 LT PUSH3 0x272 JUMPI POP POP PUSH3 0x134 JUMP JUMPDEST PUSH0 DUP2 SSTORE ADD DUP9 SWAP1 PUSH3 0x262 JUMP JUMPDEST SWAP3 POP DUP2 SWAP3 PUSH3 0x259 JUMP JUMPDEST PUSH4 0x4E487B71 PUSH1 0xE0 SHL PUSH0 MSTORE PUSH1 0x22 PUSH1 0x4 MSTORE PUSH1 0x24 PUSH0 REVERT JUMPDEST SWAP1 PUSH1 0x7F AND SWAP1 PUSH3 0x122 JUMP JUMPDEST PUSH4 0x4E487B71 PUSH1 0xE0 SHL PUSH0 MSTORE PUSH1 0x41 PUSH1 0x4 MSTORE PUSH1 0x24 PUSH0 REVERT JUMPDEST ADD MLOAD SWAP1 POP PUSH0 DUP1 PUSH3 0xF5 JUMP JUMPDEST SWAP1 DUP5 DUP12 SWAP5 AND SWAP2 PUSH0 DUP1 MSTORE DUP7 PUSH0 KECCAK256 SWAP3 PUSH0 JUMPDEST DUP9 DUP3 DUP3 LT PUSH3 0x310 JUMPI POP POP DUP5 GT PUSH3 0x2F7 JUMPI JUMPDEST POP POP POP DUP2 SHL ADD PUSH0 SSTORE PUSH3 0x108 JUMP JUMPDEST ADD MLOAD PUSH0 NOT PUSH1 0xF8 DUP5 PUSH1 0x3 SHL AND SHR NOT AND SWAP1 SSTORE PUSH0 DUP1 DUP1 PUSH3 0x2E9 JUMP JUMPDEST DUP4 DUP6 ADD MLOAD DUP7 SSTORE DUP15 SWAP8 SWAP1 SWAP6 ADD SWAP5 SWAP4 DUP5 ADD SWAP4 ADD PUSH3 0x2D6 JUMP JUMPDEST SWAP1 SWAP2 POP PUSH0 DUP1 MSTORE DUP5 PUSH0 KECCAK256 DUP7 DUP1 DUP6 ADD PUSH1 0x5 SHR DUP3 ADD SWAP3 DUP8 DUP7 LT PUSH3 0x370 JUMPI JUMPDEST SWAP2 DUP13 SWAP2 DUP7 SWAP6 SWAP5 SWAP4 ADD PUSH1 0x5 SHR ADD SWAP2 JUMPDEST DUP3 DUP2 LT PUSH3 0x361 JUMPI POP POP PUSH3 0xDF JUMP JUMPDEST PUSH0 DUP2 SSTORE DUP6 SWAP5 POP DUP13 SWAP2 ADD PUSH3 0x351 JUMP JUMPDEST SWAP3 POP DUP2 SWAP3 PUSH3 0x343 JUMP JUMPDEST SWAP2 PUSH1 0x7F AND SWAP2 PUSH3 0xCB JUMP JUMPDEST PUSH0 DUP1 REVERT JUMPDEST PUSH1 0x40 DUP1 MLOAD SWAP2 SWAP1 DUP3 ADD PUSH1 0x1 PUSH1 0x1 PUSH1 0x40 SHL SUB DUP2 GT DUP4 DUP3 LT OR PUSH3 0x2A7 JUMPI PUSH1 0x40 MSTORE JUMP INVALID PUSH2 0x6C0 DUP1 PUSH1 0x40 MSTORE PUSH1 0x4 CALLDATASIZE LT ISZERO PUSH2 0x13 JUMPI PUSH0 DUP1 REVERT JUMPDEST PUSH0 CALLDATALOAD PUSH1 0xE0 SHR SWAP1 DUP2 PUSH4 0x1FFC9A7 EQ PUSH2 0x3F06 JUMPI POP DUP1 PUSH4 0x6FDDE03 EQ PUSH2 0x3E5F JUMPI DUP1 PUSH4 0x81812FC EQ PUSH2 0x3E23 JUMPI DUP1 PUSH4 0x95EA7B3 EQ PUSH2 0x3D42 JUMPI DUP1 PUSH4 0x14207DDA EQ PUSH2 0x3C15 JUMPI DUP1 PUSH4 0x1E8B3BE9 EQ PUSH2 0x3A09 JUMPI DUP1 PUSH4 0x239C011D EQ PUSH2 0x334A JUMPI DUP1 PUSH4 0x23B872DD EQ PUSH2 0x3333 JUMPI DUP1 PUSH4 0x2EFCC220 EQ PUSH2 0x31C5 JUMPI DUP1 PUSH4 0x41D71B9C EQ PUSH2 0x3191 JUMPI DUP1 PUSH4 0x42842E0E EQ PUSH2 0x3164 JUMPI DUP1 PUSH4 0x4EBA5E04 EQ PUSH2 0x302D JUMPI DUP1 PUSH4 0x52B6A409 EQ PUSH2 0x2FEA JUMPI DUP1 PUSH4 0x55F804B3 EQ PUSH2 0x2E3A JUMPI DUP1 PUSH4 0x6352211E EQ PUSH2 0x2E0A JUMPI DUP1 PUSH4 0x63FF2287 EQ PUSH2 0x2656 JUMPI DUP1 PUSH4 0x70A08231 EQ PUSH2 0x2600 JUMPI DUP1 PUSH4 0x715018A6 EQ PUSH2 0x25A5 JUMPI DUP1 PUSH4 0x75794A3C EQ PUSH2 0x2588 JUMPI DUP1 PUSH4 0x827293D4 EQ PUSH2 0x2520 JUMPI DUP1 PUSH4 0x8DA5CB5B EQ PUSH2 0x24F8 JUMPI DUP1 PUSH4 0x8F2CF344 EQ PUSH2 0x225E JUMPI DUP1 PUSH4 0x95D89B41 EQ PUSH2 0x21B5 JUMPI DUP1 PUSH4 0xA22CB465 EQ PUSH2 0x210E JUMPI DUP1 PUSH4 0xA987FCDD EQ PUSH2 0x2033 JUMPI DUP1 PUSH4 0xAA2FE91B EQ PUSH2 0x1FF6 JUMPI DUP1 PUSH4 0xB88D4FDE EQ PUSH2 0x1F89 JUMPI DUP1 PUSH4 0xBB1F0753 EQ PUSH2 0x1A89 JUMPI DUP1 PUSH4 0xC87B56DD EQ PUSH2 0x1842 JUMPI DUP1 PUSH4 0xCACA6F87 EQ PUSH2 0x17E4 JUMPI DUP1 PUSH4 0xD547CFB7 EQ PUSH2 0x1719 JUMPI DUP1 PUSH4 0xE9625932 EQ PUSH2 0x16F1 JUMPI DUP1 PUSH4 0xE985E9C5 EQ PUSH2 0x169F JUMPI DUP1 PUSH4 0xED58BAD8 EQ PUSH2 0x1604 JUMPI DUP1 PUSH4 0xF122BE86 EQ PUSH2 0xB03 JUMPI DUP1 PUSH4 0xF2FDE38B EQ PUSH2 0xA7C JUMPI PUSH4 0xF5DD3CEB EQ PUSH2 0x1B4 JUMPI PUSH0 DUP1 REVERT JUMPDEST CALLVALUE PUSH2 0xA78 JUMPI PUSH1 0x20 CALLDATASIZE PUSH1 0x3 NOT ADD SLT PUSH2 0xA78 JUMPI PUSH2 0x1CD PUSH2 0x4695 JUMP JUMPDEST POP PUSH2 0x1D9 PUSH1 0x4 CALLDATALOAD PUSH2 0x4794 JUMP JUMPDEST PUSH1 0x4 CALLDATALOAD PUSH0 MSTORE PUSH1 0xA PUSH1 0x20 MSTORE PUSH1 0x40 PUSH0 KECCAK256 PUSH1 0xFF PUSH1 0xF PUSH1 0x40 MLOAD SWAP3 PUSH2 0x1F8 DUP5 PUSH2 0x40E5 JUMP JUMPDEST DUP1 SLOAD DUP5 MSTORE PUSH1 0x1 DUP2 ADD SLOAD PUSH1 0x20 DUP6 ADD MSTORE PUSH1 0x2 DUP2 ADD SLOAD PUSH1 0x40 DUP6 ADD MSTORE PUSH1 0x3 DUP2 ADD SLOAD PUSH1 0x60 DUP6 ADD MSTORE PUSH1 0x4 DUP2 ADD SLOAD PUSH1 0x80 DUP6 ADD MSTORE PUSH1 0x5 DUP2 ADD SLOAD PUSH1 0xA0 DUP6 ADD MSTORE PUSH1 0x6 DUP2 ADD SLOAD PUSH1 0xC0 DUP6 ADD MSTORE PUSH1 0x7 DUP2 ADD SLOAD PUSH1 0xE0 DUP6 ADD MSTORE PUSH1 0x8 DUP2 ADD SLOAD PUSH2 0x100 DUP6 ADD MSTORE PUSH1 0x9 DUP2 ADD SLOAD PUSH2 0x120 DUP6 ADD MSTORE PUSH1 0xA DUP2 ADD SLOAD PUSH2 0x140 DUP6 ADD MSTORE PUSH1 0xB DUP2 ADD SLOAD PUSH2 0x160 DUP6 ADD MSTORE PUSH2 0x282 DUP4 PUSH1 0xC DUP4 ADD SLOAD AND PUSH2 0x180 DUP7 ADD PUSH2 0x4395 JUMP JUMPDEST PUSH1 0xD DUP2 ADD SLOAD PUSH2 0x1A0 DUP6 ADD MSTORE PUSH1 0xE DUP2 ADD SLOAD PUSH2 0x1C0 DUP6 ADD MSTORE ADD SLOAD DUP2 DUP2 AND ISZERO ISZERO PUSH2 0x1E0 DUP5 ADD MSTORE PUSH1 0x8 SHR AND ISZERO ISZERO PUSH2 0x200 DUP3 ADD MSTORE PUSH1 0x20 DUP2 ADD MLOAD PUSH0 MSTORE PUSH1 0x9 PUSH1 0x20 MSTORE PUSH1 0xFF PUSH1 0x1C PUSH1 0x40 PUSH0 KECCAK256 PUSH1 0x40 MLOAD PUSH2 0x140 MSTORE PUSH2 0x2D8 PUSH2 0x140 MLOAD PUSH2 0x40C9 JUMP JUMPDEST DUP1 SLOAD PUSH2 0x140 MLOAD MSTORE PUSH2 0x2EB PUSH1 0x1 DUP3 ADD PUSH2 0x4191 JUMP JUMPDEST PUSH1 0x20 PUSH2 0x140 MLOAD ADD MSTORE PUSH2 0x31E DUP4 PUSH1 0x2 DUP4 ADD SLOAD PUSH2 0x30E DUP3 DUP3 AND PUSH1 0x40 PUSH2 0x140 MLOAD ADD PUSH2 0x437D JUMP JUMPDEST PUSH1 0x8 SHR AND PUSH1 0x60 PUSH2 0x140 MLOAD ADD PUSH2 0x4389 JUMP JUMPDEST PUSH1 0x3 DUP2 ADD SLOAD PUSH1 0x80 PUSH2 0x140 MLOAD ADD MSTORE PUSH1 0x4 DUP2 ADD SLOAD PUSH1 0xA0 PUSH2 0x140 MLOAD ADD MSTORE PUSH1 0x5 DUP2 ADD SLOAD PUSH1 0xC0 PUSH2 0x140 MLOAD ADD MSTORE PUSH1 0x6 DUP2 ADD SLOAD PUSH1 0xE0 PUSH2 0x140 MLOAD ADD MSTORE PUSH1 0x7 DUP2 ADD SLOAD PUSH2 0x100 PUSH2 0x140 MLOAD ADD MSTORE PUSH1 0x8 DUP2 ADD SLOAD PUSH2 0x120 PUSH2 0x140 MLOAD ADD MSTORE PUSH1 0x9 DUP2 ADD SLOAD PUSH2 0x140 DUP1 MLOAD ADD MSTORE PUSH1 0xA DUP2 ADD SLOAD PUSH2 0x160 PUSH2 0x140 MLOAD ADD MSTORE PUSH1 0xB DUP2 ADD SLOAD PUSH2 0x180 PUSH2 0x140 MLOAD ADD MSTORE PUSH1 0xC DUP2 ADD SLOAD PUSH2 0x1A0 PUSH2 0x140 MLOAD ADD MSTORE PUSH1 0xD DUP2 ADD SLOAD PUSH2 0x1C0 PUSH2 0x140 MLOAD ADD MSTORE PUSH1 0xE DUP2 ADD SLOAD PUSH2 0x1E0 PUSH2 0x140 MLOAD ADD MSTORE PUSH1 0xF DUP2 ADD SLOAD PUSH2 0x200 PUSH2 0x140 MLOAD ADD MSTORE PUSH1 0x10 DUP2 ADD SLOAD PUSH2 0x220 PUSH2 0x140 MLOAD ADD MSTORE PUSH1 0x11 DUP2 ADD SLOAD PUSH2 0x240 PUSH2 0x140 MLOAD ADD MSTORE PUSH1 0x12 DUP2 ADD SLOAD PUSH2 0x260 PUSH2 0x140 MLOAD ADD MSTORE PUSH1 0x13 DUP2 ADD SLOAD PUSH2 0x280 PUSH2 0x140 MLOAD ADD MSTORE PUSH1 0x14 DUP2 ADD SLOAD PUSH2 0x2A0 PUSH2 0x140 MLOAD ADD MSTORE PUSH1 0x15 DUP2 ADD SLOAD PUSH2 0x2C0 PUSH2 0x140 MLOAD ADD MSTORE PUSH1 0x16 DUP2 ADD SLOAD PUSH2 0x2E0 PUSH2 0x140 MLOAD ADD MSTORE PUSH1 0x17 DUP2 ADD SLOAD PUSH2 0x300 PUSH2 0x140 MLOAD ADD MSTORE PUSH1 0x18 DUP2 ADD SLOAD PUSH2 0x320 PUSH2 0x140 MLOAD ADD MSTORE PUSH1 0x19 DUP2 ADD SLOAD PUSH2 0x340 PUSH2 0x140 MLOAD ADD MSTORE PUSH1 0x1A DUP2 ADD SLOAD PUSH2 0x360 PUSH2 0x140 MLOAD ADD MSTORE PUSH1 0x1B DUP2 ADD SLOAD PUSH2 0x380 PUSH2 0x140 MLOAD ADD MSTORE ADD SLOAD AND ISZERO ISZERO PUSH2 0x3A0 PUSH2 0x140 MLOAD ADD MSTORE PUSH1 0x4 CALLDATALOAD PUSH0 MSTORE PUSH1 0xB PUSH1 0x20 MSTORE PUSH2 0x5B2 PUSH1 0x40 PUSH0 KECCAK256 PUSH1 0x40 MLOAD PUSH2 0x300 MSTORE PUSH2 0x4A8 PUSH2 0x300 MLOAD PUSH2 0x4101 JUMP JUMPDEST PUSH1 0x12 DUP2 SLOAD SWAP2 DUP3 PUSH2 0x300 MLOAD MSTORE PUSH1 0x1 DUP2 ADD SLOAD PUSH1 0x20 PUSH2 0x300 MLOAD ADD MSTORE PUSH1 0x2 DUP2 ADD SLOAD PUSH1 0x40 PUSH2 0x300 MLOAD ADD MSTORE PUSH1 0x3 DUP2 ADD SLOAD PUSH1 0x60 PUSH2 0x300 MLOAD ADD MSTORE PUSH1 0x4 DUP2 ADD SLOAD PUSH1 0x80 PUSH2 0x300 MLOAD ADD MSTORE PUSH1 0x5 DUP2 ADD SLOAD PUSH1 0xA0 PUSH2 0x300 MLOAD ADD MSTORE PUSH1 0x6 DUP2 ADD SLOAD PUSH1 0xC0 PUSH2 0x300 MLOAD ADD MSTORE PUSH1 0x7 DUP2 ADD SLOAD PUSH1 0xE0 PUSH2 0x300 MLOAD ADD MSTORE PUSH1 0x8 DUP2 ADD SLOAD PUSH2 0x100 PUSH2 0x300 MLOAD ADD MSTORE PUSH1 0x9 DUP2 ADD SLOAD PUSH2 0x120 PUSH2 0x300 MLOAD ADD MSTORE PUSH1 0xA DUP2 ADD SLOAD PUSH2 0x140 PUSH2 0x300 MLOAD ADD MSTORE PUSH1 0xB DUP2 ADD SLOAD PUSH2 0x160 PUSH2 0x300 MLOAD ADD MSTORE PUSH1 0xC DUP2 ADD SLOAD PUSH2 0x180 PUSH2 0x300 MLOAD ADD MSTORE PUSH1 0xD DUP2 ADD SLOAD PUSH2 0x1A0 PUSH2 0x300 MLOAD ADD MSTORE PUSH1 0xE DUP2 ADD SLOAD PUSH2 0x1C0 PUSH2 0x300 MLOAD ADD MSTORE PUSH1 0xF DUP2 ADD SLOAD PUSH2 0x1E0 PUSH2 0x300 MLOAD ADD MSTORE PUSH1 0x10 DUP2 ADD SLOAD PUSH2 0x200 PUSH2 0x300 MLOAD ADD MSTORE PUSH1 0x11 DUP2 ADD SLOAD PUSH2 0x220 PUSH2 0x300 MLOAD ADD MSTORE ADD SLOAD PUSH2 0x240 PUSH2 0x300 MLOAD ADD MSTORE PUSH1 0xE0 PUSH2 0x140 MLOAD ADD MLOAD PUSH2 0x467A JUMP JUMPDEST PUSH0 DUP2 SLT ISZERO PUSH2 0xA72 JUMPI POP PUSH0 SWAP1 JUMPDEST PUSH2 0x5D8 PUSH2 0x100 PUSH2 0x140 MLOAD ADD MLOAD PUSH1 0x20 PUSH2 0x300 MLOAD ADD MLOAD SWAP1 PUSH2 0x467A JUMP JUMPDEST PUSH0 PUSH2 0x200 MSTORE PUSH0 DUP2 SLT PUSH0 EQ PUSH2 0xA69 JUMPI POP PUSH0 PUSH2 0x200 MSTORE JUMPDEST DUP2 PUSH2 0x200 MLOAD LT PUSH2 0xA57 JUMPI PUSH2 0x611 PUSH2 0x120 PUSH2 0x140 MLOAD ADD MLOAD PUSH1 0x40 PUSH2 0x300 MLOAD ADD MLOAD SWAP1 PUSH2 0x467A JUMP JUMPDEST PUSH0 PUSH2 0x100 MSTORE PUSH0 DUP2 SLT PUSH0 EQ PUSH2 0xA4E JUMPI POP PUSH0 PUSH2 0x100 MSTORE JUMPDEST PUSH2 0x63E PUSH2 0x140 DUP1 MLOAD ADD MLOAD PUSH1 0x60 PUSH2 0x300 MLOAD ADD MLOAD SWAP1 PUSH2 0x467A JUMP JUMPDEST PUSH0 DUP2 SLT ISZERO PUSH2 0xA48 JUMPI POP PUSH0 SWAP1 JUMPDEST PUSH2 0x664 PUSH2 0x160 PUSH2 0x140 MLOAD ADD MLOAD PUSH1 0x80 PUSH2 0x300 MLOAD ADD MLOAD SWAP1 PUSH2 0x467A JUMP JUMPDEST PUSH0 DUP2 SLT ISZERO PUSH2 0xA42 JUMPI POP PUSH0 SWAP1 JUMPDEST PUSH2 0x68A PUSH2 0x180 PUSH2 0x140 MLOAD ADD MLOAD PUSH1 0xA0 PUSH2 0x300 MLOAD ADD MLOAD SWAP1 PUSH2 0x467A JUMP JUMPDEST PUSH0 DUP2 SLT ISZERO PUSH2 0xA3C JUMPI POP PUSH0 SWAP1 JUMPDEST PUSH2 0x6B0 PUSH2 0x1A0 PUSH2 0x140 MLOAD ADD MLOAD PUSH1 0xC0 PUSH2 0x300 MLOAD ADD MLOAD SWAP1 PUSH2 0x467A JUMP JUMPDEST PUSH0 DUP2 SLT ISZERO PUSH2 0xA36 JUMPI POP PUSH0 SWAP1 JUMPDEST PUSH2 0x6D6 PUSH2 0x1C0 PUSH2 0x140 MLOAD ADD MLOAD PUSH1 0xE0 PUSH2 0x300 MLOAD ADD MLOAD SWAP1 PUSH2 0x467A JUMP JUMPDEST PUSH0 DUP2 SLT ISZERO PUSH2 0xA31 JUMPI POP PUSH0 JUMPDEST PUSH2 0x6FC PUSH2 0x1E0 PUSH2 0x140 MLOAD ADD MLOAD PUSH2 0x100 PUSH2 0x300 MLOAD ADD MLOAD SWAP1 PUSH2 0x467A JUMP JUMPDEST PUSH0 DUP2 SLT ISZERO PUSH2 0xA2B JUMPI POP PUSH0 SWAP2 JUMPDEST PUSH2 0x723 PUSH2 0x200 PUSH2 0x140 MLOAD ADD MLOAD PUSH2 0x120 PUSH2 0x300 MLOAD ADD MLOAD SWAP1 PUSH2 0x467A JUMP JUMPDEST PUSH0 DUP2 SLT ISZERO PUSH2 0xA25 JUMPI POP PUSH0 SWAP4 JUMPDEST PUSH2 0x74A PUSH2 0x220 PUSH2 0x140 MLOAD ADD MLOAD PUSH2 0x140 PUSH2 0x300 MLOAD ADD MLOAD SWAP1 PUSH2 0x467A JUMP JUMPDEST PUSH0 DUP2 SLT ISZERO PUSH2 0xA1F JUMPI POP PUSH0 SWAP6 JUMPDEST PUSH2 0x771 PUSH2 0x240 PUSH2 0x140 MLOAD ADD MLOAD PUSH2 0x160 PUSH2 0x300 MLOAD ADD MLOAD SWAP1 PUSH2 0x467A JUMP JUMPDEST PUSH0 DUP2 SLT ISZERO PUSH2 0xA19 JUMPI POP PUSH0 SWAP8 JUMPDEST PUSH2 0x798 PUSH2 0x260 PUSH2 0x140 MLOAD ADD MLOAD PUSH2 0x180 PUSH2 0x300 MLOAD ADD MLOAD SWAP1 PUSH2 0x467A JUMP JUMPDEST PUSH0 DUP2 SLT ISZERO PUSH2 0xA13 JUMPI POP PUSH0 SWAP10 JUMPDEST PUSH2 0x7BF PUSH2 0x280 PUSH2 0x140 MLOAD ADD MLOAD PUSH2 0x1A0 PUSH2 0x300 MLOAD ADD MLOAD SWAP1 PUSH2 0x467A JUMP JUMPDEST PUSH0 DUP2 SLT ISZERO PUSH2 0xA0D JUMPI POP PUSH0 SWAP12 JUMPDEST PUSH2 0x7E6 PUSH2 0x2A0 PUSH2 0x140 MLOAD ADD MLOAD PUSH2 0x1C0 PUSH2 0x300 MLOAD ADD MLOAD SWAP1 PUSH2 0x467A JUMP JUMPDEST PUSH0 PUSH1 0x80 MSTORE PUSH0 DUP2 SLT PUSH0 EQ PUSH2 0xA05 JUMPI POP PUSH0 PUSH1 0x80 MSTORE JUMPDEST PUSH2 0x814 PUSH2 0x2C0 PUSH2 0x140 MLOAD ADD MLOAD PUSH2 0x1E0 PUSH2 0x300 MLOAD ADD MLOAD SWAP1 PUSH2 0x467A JUMP JUMPDEST PUSH0 PUSH2 0x2A0 MSTORE PUSH0 DUP2 SLT PUSH0 EQ PUSH2 0x9FC JUMPI POP PUSH0 PUSH2 0x2A0 MSTORE JUMPDEST PUSH2 0x844 PUSH2 0x2E0 PUSH2 0x140 MLOAD ADD MLOAD PUSH2 0x200 PUSH2 0x300 MLOAD ADD MLOAD SWAP1 PUSH2 0x467A JUMP JUMPDEST PUSH0 PUSH2 0x260 MSTORE PUSH0 DUP2 SLT PUSH0 EQ PUSH2 0x9F3 JUMPI POP PUSH0 PUSH2 0x260 MSTORE JUMPDEST PUSH2 0x874 PUSH2 0x300 PUSH2 0x140 MLOAD ADD MLOAD PUSH2 0x220 PUSH2 0x300 MLOAD ADD MLOAD SWAP1 PUSH2 0x467A JUMP JUMPDEST PUSH0 PUSH2 0x1E0 MSTORE PUSH0 DUP2 SLT PUSH0 EQ PUSH2 0x9EA JUMPI POP PUSH0 PUSH2 0x1E0 MSTORE JUMPDEST PUSH2 0x8A4 PUSH2 0x320 PUSH2 0x140 MLOAD ADD MLOAD PUSH2 0x240 PUSH2 0x300 MLOAD ADD MLOAD SWAP1 PUSH2 0x467A JUMP JUMPDEST PUSH0 PUSH2 0x120 MSTORE PUSH0 DUP2 SLT PUSH0 EQ PUSH2 0x9E1 JUMPI POP PUSH0 PUSH2 0x120 MSTORE JUMPDEST PUSH2 0x8D5 PUSH2 0x100 MLOAD PUSH2 0x8CD PUSH2 0x200 MLOAD DUP5 PUSH2 0x473A JUMP JUMPDEST PUSH1 0x1 SHR PUSH2 0x4747 JUMP JUMPDEST SWAP1 PUSH1 0xA0 PUSH1 0x80 DUP9 ADD MLOAD SWAP8 ADD MLOAD PUSH1 0xE0 MSTORE PUSH2 0x360 PUSH2 0x140 MLOAD ADD MLOAD PUSH1 0xC0 MSTORE PUSH1 0x40 MLOAD PUSH1 0xA0 MSTORE PUSH2 0x900 PUSH1 0xA0 MLOAD PUSH2 0x411D JUMP JUMPDEST PUSH1 0xA0 MLOAD MSTORE PUSH2 0x200 MLOAD PUSH1 0x20 PUSH1 0xA0 MLOAD ADD MSTORE PUSH2 0x100 MLOAD PUSH1 0x40 PUSH1 0xA0 MLOAD ADD MSTORE PUSH1 0x60 PUSH1 0xA0 MLOAD ADD MSTORE PUSH1 0x80 PUSH1 0xA0 MLOAD ADD MSTORE PUSH1 0xA0 DUP1 MLOAD ADD MSTORE PUSH1 0xC0 PUSH1 0xA0 MLOAD ADD MSTORE PUSH1 0xE0 PUSH1 0xA0 MLOAD ADD MSTORE PUSH2 0x100 PUSH1 0xA0 MLOAD ADD MSTORE PUSH2 0x120 PUSH1 0xA0 MLOAD ADD MSTORE PUSH2 0x140 PUSH1 0xA0 MLOAD ADD MSTORE PUSH2 0x160 PUSH1 0xA0 MLOAD ADD MSTORE PUSH2 0x180 PUSH1 0xA0 MLOAD ADD MSTORE PUSH2 0x1A0 PUSH1 0xA0 MLOAD ADD MSTORE PUSH2 0x1C0 PUSH1 0xA0 MLOAD ADD MSTORE PUSH2 0x1E0 PUSH1 0xA0 MLOAD ADD MSTORE PUSH1 0x80 MLOAD PUSH2 0x200 PUSH1 0xA0 MLOAD ADD MSTORE PUSH2 0x2A0 MLOAD PUSH2 0x220 PUSH1 0xA0 MLOAD ADD MSTORE PUSH2 0x260 MLOAD PUSH2 0x240 PUSH1 0xA0 MLOAD ADD MSTORE PUSH2 0x1E0 MLOAD PUSH2 0x260 PUSH1 0xA0 MLOAD ADD MSTORE PUSH2 0x120 MLOAD PUSH2 0x280 PUSH1 0xA0 MLOAD ADD MSTORE PUSH1 0xE0 MLOAD PUSH2 0x2A0 PUSH1 0xA0 MLOAD ADD MSTORE PUSH1 0xC0 MLOAD PUSH2 0x2C0 PUSH1 0xA0 MLOAD ADD MSTORE PUSH1 0x40 MLOAD DUP1 PUSH2 0x9DD PUSH1 0xA0 MLOAD DUP3 PUSH2 0x4284 JUMP JUMPDEST SUB SWAP1 RETURN JUMPDEST PUSH2 0x120 MSTORE PUSH2 0x8B9 JUMP JUMPDEST PUSH2 0x1E0 MSTORE PUSH2 0x889 JUMP JUMPDEST PUSH2 0x260 MSTORE PUSH2 0x859 JUMP JUMPDEST PUSH2 0x2A0 MSTORE PUSH2 0x829 JUMP JUMPDEST PUSH1 0x80 MSTORE PUSH2 0x7F9 JUMP JUMPDEST SWAP12 PUSH2 0x7CB JUMP JUMPDEST SWAP10 PUSH2 0x7A4 JUMP JUMPDEST SWAP8 PUSH2 0x77D JUMP JUMPDEST SWAP6 PUSH2 0x756 JUMP JUMPDEST SWAP4 PUSH2 0x72F JUMP JUMPDEST SWAP2 PUSH2 0x708 JUMP JUMPDEST PUSH2 0x6E1 JUMP JUMPDEST SWAP1 PUSH2 0x6BC JUMP JUMPDEST SWAP1 PUSH2 0x696 JUMP JUMPDEST SWAP1 PUSH2 0x670 JUMP JUMPDEST SWAP1 PUSH2 0x64A JUMP JUMPDEST PUSH2 0x100 MSTORE PUSH2 0x626 JUMP JUMPDEST PUSH1 0x40 MLOAD PUSH4 0x2A9FFAB7 PUSH1 0xE2 SHL DUP2 MSTORE PUSH1 0x4 SWAP1 REVERT JUMPDEST PUSH2 0x200 MSTORE PUSH2 0x5ED JUMP JUMPDEST SWAP1 PUSH2 0x5BE JUMP JUMPDEST PUSH0 DUP1 REVERT JUMPDEST CALLVALUE PUSH2 0xA78 JUMPI PUSH1 0x20 CALLDATASIZE PUSH1 0x3 NOT ADD SLT PUSH2 0xA78 JUMPI PUSH2 0xA95 PUSH2 0x3FB7 JUMP JUMPDEST PUSH2 0xA9D PUSH2 0x4808 JUMP JUMPDEST PUSH1 0x1 PUSH1 0x1 PUSH1 0xA0 SHL SUB SWAP1 DUP2 AND SWAP1 DUP2 ISZERO PUSH2 0xAEB JUMPI PUSH1 0x6 SLOAD DUP3 PUSH1 0x1 PUSH1 0x1 PUSH1 0x60 SHL SUB PUSH1 0xA0 SHL DUP3 AND OR PUSH1 0x6 SSTORE AND PUSH32 0x8BE0079C531659141344CD1FD0A4F28419497F9722A3DAAFE3B4186F6B6457E0 PUSH0 DUP1 LOG3 STOP JUMPDEST PUSH1 0x40 MLOAD PUSH4 0x1E4FBDF7 PUSH1 0xE0 SHL DUP2 MSTORE PUSH0 PUSH1 0x4 DUP3 ADD MSTORE PUSH1 0x24 SWAP1 REVERT JUMPDEST CALLVALUE PUSH2 0xA78 JUMPI PUSH1 0x20 CALLDATASIZE PUSH1 0x3 NOT ADD SLT PUSH2 0xA78 JUMPI PUSH2 0xB1C PUSH2 0x4695 JUMP JUMPDEST POP PUSH2 0xB28 PUSH1 0x4 CALLDATALOAD PUSH2 0x4794 JUMP JUMPDEST PUSH1 0x4 CALLDATALOAD PUSH0 MSTORE PUSH1 0xA PUSH1 0x20 MSTORE PUSH1 0x40 PUSH0 KECCAK256 PUSH1 0xFF PUSH1 0xF PUSH1 0x40 MLOAD SWAP3 PUSH2 0xB47 DUP5 PUSH2 0x40E5 JUMP JUMPDEST DUP1 SLOAD DUP5 MSTORE PUSH1 0x1 DUP2 ADD SLOAD PUSH1 0x20 DUP6 ADD MSTORE PUSH1 0x2 DUP2 ADD SLOAD PUSH1 0x40 DUP6 ADD MSTORE PUSH1 0x3 DUP2 ADD SLOAD PUSH1 0x60 DUP6 ADD MSTORE PUSH1 0x4 DUP2 ADD SLOAD PUSH1 0x80 DUP6 ADD MSTORE PUSH1 0x5 DUP2 ADD SLOAD PUSH1 0xA0 DUP6 ADD MSTORE PUSH1 0x6 DUP2 ADD SLOAD PUSH1 0xC0 DUP6 ADD MSTORE PUSH1 0x7 DUP2 ADD SLOAD PUSH1 0xE0 DUP6 ADD MSTORE PUSH1 0x8 DUP2 ADD SLOAD PUSH2 0x100 DUP6 ADD MSTORE PUSH1 0x9 DUP2 ADD SLOAD PUSH2 0x120 DUP6 ADD MSTORE PUSH1 0xA DUP2 ADD SLOAD PUSH2 0x140 DUP6 ADD MSTORE PUSH1 0xB DUP2 ADD SLOAD PUSH2 0x160 DUP6 ADD MSTORE PUSH2 0xBD1 DUP4 PUSH1 0xC DUP4 ADD SLOAD AND PUSH2 0x180 DUP7 ADD PUSH2 0x4395 JUMP JUMPDEST PUSH1 0xD DUP2 ADD SLOAD PUSH2 0x1A0 DUP6 ADD MSTORE PUSH1 0xE DUP2 ADD SLOAD PUSH2 0x1C0 DUP6 ADD MSTORE ADD SLOAD DUP2 DUP2 AND ISZERO ISZERO PUSH2 0x1E0 DUP5 ADD MSTORE PUSH1 0x8 SHR AND ISZERO ISZERO PUSH2 0x200 DUP3 ADD MSTORE PUSH1 0x20 DUP2 ADD MLOAD PUSH0 MSTORE PUSH1 0x9 PUSH1 0x20 MSTORE PUSH1 0xFF PUSH1 0x1C PUSH1 0x40 PUSH0 KECCAK256 PUSH1 0x40 MLOAD PUSH2 0x360 MSTORE PUSH2 0xC27 PUSH2 0x360 MLOAD PUSH2 0x40C9 JUMP JUMPDEST DUP1 SLOAD PUSH2 0x360 MLOAD MSTORE PUSH2 0xC3A PUSH1 0x1 DUP3 ADD PUSH2 0x4191 JUMP JUMPDEST PUSH1 0x20 PUSH2 0x360 MLOAD ADD MSTORE PUSH2 0xC6D DUP4 PUSH1 0x2 DUP4 ADD SLOAD PUSH2 0xC5D DUP3 DUP3 AND PUSH1 0x40 PUSH2 0x360 MLOAD ADD PUSH2 0x437D JUMP JUMPDEST PUSH1 0x8 SHR AND PUSH1 0x60 PUSH2 0x360 MLOAD ADD PUSH2 0x4389 JUMP JUMPDEST PUSH1 0x3 DUP2 ADD SLOAD PUSH1 0x80 PUSH2 0x360 MLOAD ADD MSTORE PUSH1 0x4 DUP2 ADD SLOAD PUSH1 0xA0 PUSH2 0x360 MLOAD ADD MSTORE PUSH1 0x5 DUP2 ADD SLOAD PUSH1 0xC0 PUSH2 0x360 MLOAD ADD MSTORE PUSH1 0x6 DUP2 ADD SLOAD PUSH1 0xE0 PUSH2 0x360 MLOAD ADD MSTORE PUSH1 0x7 DUP2 ADD SLOAD PUSH2 0x100 PUSH2 0x360 MLOAD ADD MSTORE PUSH1 0x8 DUP2 ADD SLOAD PUSH2 0x120 PUSH2 0x360 MLOAD ADD MSTORE PUSH1 0x9 DUP2 ADD SLOAD PUSH2 0x140 PUSH2 0x360 MLOAD ADD MSTORE PUSH1 0xA DUP2 ADD SLOAD PUSH2 0x160 PUSH2 0x360 MLOAD ADD MSTORE PUSH1 0xB DUP2 ADD SLOAD PUSH2 0x180 PUSH2 0x360 MLOAD ADD MSTORE PUSH1 0xC DUP2 ADD SLOAD PUSH2 0x1A0 PUSH2 0x360 MLOAD ADD MSTORE PUSH1 0xD DUP2 ADD SLOAD PUSH2 0x1C0 PUSH2 0x360 MLOAD ADD MSTORE PUSH1 0xE DUP2 ADD SLOAD PUSH2 0x1E0 PUSH2 0x360 MLOAD ADD MSTORE PUSH1 0xF DUP2 ADD SLOAD PUSH2 0x200 PUSH2 0x360 MLOAD ADD MSTORE PUSH1 0x10 DUP2 ADD SLOAD PUSH2 0x220 PUSH2 0x360 MLOAD ADD MSTORE PUSH1 0x11 DUP2 ADD SLOAD PUSH2 0x240 PUSH2 0x360 MLOAD ADD MSTORE PUSH1 0x12 DUP2 ADD SLOAD PUSH2 0x260 PUSH2 0x360 MLOAD ADD MSTORE PUSH1 0x13 DUP2 ADD SLOAD PUSH2 0x280 PUSH2 0x360 MLOAD ADD MSTORE PUSH1 0x14 DUP2 ADD SLOAD PUSH2 0x2A0 PUSH2 0x360 MLOAD ADD MSTORE PUSH1 0x15 DUP2 ADD SLOAD PUSH2 0x2C0 PUSH2 0x360 MLOAD ADD MSTORE PUSH1 0x16 DUP2 ADD SLOAD PUSH2 0x2E0 PUSH2 0x360 MLOAD ADD MSTORE PUSH1 0x17 DUP2 ADD SLOAD PUSH2 0x300 PUSH2 0x360 MLOAD ADD MSTORE PUSH1 0x18 DUP2 ADD SLOAD PUSH2 0x320 PUSH2 0x360 MLOAD ADD MSTORE PUSH1 0x19 DUP2 ADD SLOAD PUSH2 0x340 PUSH2 0x360 MLOAD ADD MSTORE PUSH1 0x1A DUP2 ADD SLOAD PUSH2 0x360 DUP1 MLOAD ADD MSTORE PUSH1 0x1B DUP2 ADD SLOAD PUSH2 0x380 PUSH2 0x360 MLOAD ADD MSTORE ADD SLOAD AND ISZERO ISZERO PUSH2 0x3A0 PUSH2 0x360 MLOAD ADD MSTORE PUSH1 0x4 CALLDATALOAD PUSH0 MSTORE PUSH1 0xB PUSH1 0x20 MSTORE PUSH1 0x40 PUSH0 KECCAK256 SWAP1 PUSH1 0x12 PUSH1 0x40 MLOAD SWAP3 PUSH2 0xDF1 DUP5 PUSH2 0x4101 JUMP JUMPDEST DUP1 SLOAD DUP5 MSTORE PUSH1 0x1 DUP2 ADD SLOAD PUSH1 0x20 DUP6 ADD MSTORE PUSH1 0x2 DUP2 ADD SLOAD PUSH1 0x40 DUP6 ADD MSTORE PUSH1 0x3 DUP2 ADD SLOAD PUSH1 0x60 DUP6 ADD MSTORE PUSH1 0x4 DUP2 ADD SLOAD PUSH1 0x80 DUP6 ADD MSTORE PUSH1 0x5 DUP2 ADD SLOAD PUSH1 0xA0 DUP6 ADD MSTORE PUSH1 0x6 DUP2 ADD SLOAD PUSH1 0xC0 DUP6 ADD MSTORE PUSH1 0x7 DUP2 ADD SLOAD PUSH1 0xE0 DUP6 ADD MSTORE PUSH1 0x8 DUP2 ADD SLOAD PUSH2 0x100 DUP6 ADD MSTORE PUSH1 0x9 DUP2 ADD SLOAD PUSH2 0x120 DUP6 ADD MSTORE PUSH1 0xA DUP2 ADD SLOAD PUSH2 0x140 DUP6 ADD MSTORE PUSH1 0xB DUP2 ADD SLOAD PUSH2 0x160 DUP6 ADD MSTORE PUSH1 0xC DUP2 ADD SLOAD PUSH2 0x180 DUP6 ADD MSTORE PUSH1 0xD DUP2 ADD SLOAD PUSH2 0x1A0 DUP6 ADD MSTORE PUSH1 0xE DUP2 ADD SLOAD PUSH2 0x1C0 DUP6 ADD MSTORE PUSH1 0xF DUP2 ADD SLOAD PUSH2 0x1E0 DUP6 ADD MSTORE PUSH1 0x10 DUP2 ADD SLOAD PUSH2 0x200 DUP6 ADD MSTORE PUSH1 0x11 DUP2 ADD SLOAD PUSH2 0x220 DUP6 ADD MSTORE ADD SLOAD PUSH2 0x240 DUP4 ADD MSTORE PUSH2 0xEB9 PUSH2 0x45F1 JUMP JUMPDEST PUSH1 0xD SLOAD PUSH1 0x1 PUSH1 0x1 PUSH1 0xA0 SHL SUB AND DUP1 PUSH2 0x14B3 JUMPI JUMPDEST POP PUSH2 0xEEA PUSH2 0xEE2 PUSH1 0xE0 PUSH2 0x360 MLOAD ADD MLOAD DUP6 MLOAD SWAP1 PUSH2 0x467A JUMP JUMPDEST DUP3 MLOAD SWAP1 PUSH2 0x467A JUMP JUMPDEST PUSH0 DUP2 SLT ISZERO PUSH2 0x14AE JUMPI POP PUSH0 JUMPDEST PUSH2 0xF1A PUSH2 0xF0F PUSH2 0x100 PUSH2 0x360 MLOAD ADD MLOAD PUSH1 0x20 DUP8 ADD MLOAD SWAP1 PUSH2 0x467A JUMP JUMPDEST PUSH1 0x20 DUP5 ADD MLOAD SWAP1 PUSH2 0x467A JUMP JUMPDEST PUSH0 PUSH2 0x240 MSTORE PUSH0 DUP2 SLT PUSH0 EQ PUSH2 0x14A5 JUMPI POP PUSH0 PUSH2 0x240 MSTORE JUMPDEST DUP1 PUSH2 0x240 MLOAD LT PUSH2 0xA57 JUMPI DUP4 SWAP3 PUSH2 0xF60 PUSH2 0xF55 PUSH2 0x120 PUSH2 0x360 MLOAD ADD MLOAD PUSH1 0x40 DUP8 ADD MLOAD SWAP1 PUSH2 0x467A JUMP JUMPDEST PUSH1 0x40 DUP6 ADD MLOAD SWAP1 PUSH2 0x467A JUMP JUMPDEST PUSH0 PUSH2 0x380 MSTORE PUSH0 DUP2 SLT PUSH0 EQ PUSH2 0x149C JUMPI POP PUSH0 PUSH2 0x380 MSTORE JUMPDEST PUSH2 0xF9A PUSH2 0xF8F PUSH2 0x140 PUSH2 0x360 MLOAD ADD MLOAD PUSH1 0x60 DUP8 ADD MLOAD SWAP1 PUSH2 0x467A JUMP JUMPDEST PUSH1 0x60 DUP6 ADD MLOAD SWAP1 PUSH2 0x467A JUMP JUMPDEST PUSH0 DUP2 SLT ISZERO PUSH2 0x1496 JUMPI POP PUSH0 SWAP1 JUMPDEST PUSH2 0xFCB PUSH2 0xFC0 PUSH2 0x160 PUSH2 0x360 MLOAD ADD MLOAD PUSH1 0x80 DUP9 ADD MLOAD SWAP1 PUSH2 0x467A JUMP JUMPDEST PUSH1 0x80 DUP7 ADD MLOAD SWAP1 PUSH2 0x467A JUMP JUMPDEST PUSH0 DUP2 SLT ISZERO PUSH2 0x1491 JUMPI POP PUSH0 JUMPDEST PUSH2 0xFFB PUSH2 0xFF0 PUSH2 0x180 PUSH2 0x360 MLOAD ADD MLOAD PUSH1 0xA0 DUP10 ADD MLOAD SWAP1 PUSH2 0x467A JUMP JUMPDEST PUSH1 0xA0 DUP8 ADD MLOAD SWAP1 PUSH2 0x467A JUMP JUMPDEST PUSH0 DUP2 SLT ISZERO PUSH2 0x148C JUMPI POP PUSH0 JUMPDEST PUSH2 0x102B PUSH2 0x1020 PUSH2 0x1A0 PUSH2 0x360 MLOAD ADD MLOAD PUSH1 0xC0 DUP11 ADD MLOAD SWAP1 PUSH2 0x467A JUMP JUMPDEST PUSH1 0xC0 DUP9 ADD MLOAD SWAP1 PUSH2 0x467A JUMP JUMPDEST PUSH0 DUP2 SLT ISZERO PUSH2 0x1486 JUMPI POP PUSH0 SWAP2 JUMPDEST PUSH2 0x105C PUSH2 0x1051 PUSH2 0x1C0 PUSH2 0x360 MLOAD ADD MLOAD PUSH1 0xE0 DUP12 ADD MLOAD SWAP1 PUSH2 0x467A JUMP JUMPDEST PUSH1 0xE0 DUP10 ADD MLOAD SWAP1 PUSH2 0x467A JUMP JUMPDEST PUSH0 DUP2 SLT ISZERO PUSH2 0x1480 JUMPI POP PUSH0 SWAP5 JUMPDEST PUSH2 0x108F PUSH2 0x1083 PUSH2 0x1E0 PUSH2 0x360 MLOAD ADD MLOAD PUSH2 0x100 DUP13 ADD MLOAD SWAP1 PUSH2 0x467A JUMP JUMPDEST PUSH2 0x100 DUP11 ADD MLOAD SWAP1 PUSH2 0x467A JUMP JUMPDEST PUSH0 DUP2 SLT ISZERO PUSH2 0x147A JUMPI POP PUSH0 SWAP7 JUMPDEST PUSH2 0x10C2 PUSH2 0x10B6 PUSH2 0x200 PUSH2 0x360 MLOAD ADD MLOAD PUSH2 0x120 DUP14 ADD MLOAD SWAP1 PUSH2 0x467A JUMP JUMPDEST PUSH2 0x120 DUP12 ADD MLOAD SWAP1 PUSH2 0x467A JUMP JUMPDEST PUSH0 DUP2 SLT ISZERO PUSH2 0x1470 JUMPI POP PUSH2 0x12C2 PUSH0 SWAP10 JUMPDEST PUSH2 0x10F9 PUSH2 0x10ED DUP14 PUSH2 0x140 PUSH2 0x220 PUSH2 0x360 MLOAD ADD MLOAD SWAP2 ADD MLOAD SWAP1 PUSH2 0x467A JUMP JUMPDEST PUSH2 0x140 DUP4 ADD MLOAD SWAP1 PUSH2 0x467A JUMP JUMPDEST PUSH0 DUP2 SLT ISZERO PUSH2 0x1463 JUMPI POP PUSH2 0x11A4 PUSH2 0x1198 PUSH0 SWAP14 JUMPDEST PUSH2 0x1132 PUSH2 0x1126 PUSH2 0x240 PUSH2 0x360 MLOAD ADD MLOAD PUSH2 0x160 DUP5 ADD MLOAD SWAP1 PUSH2 0x467A JUMP JUMPDEST PUSH2 0x160 DUP7 ADD MLOAD SWAP1 PUSH2 0x467A JUMP JUMPDEST PUSH0 PUSH2 0x340 MSTORE PUSH0 DUP2 SLT PUSH0 EQ PUSH2 0x145A JUMPI POP PUSH0 PUSH2 0x340 MSTORE JUMPDEST PUSH2 0x116E PUSH2 0x1162 PUSH2 0x260 PUSH2 0x360 MLOAD ADD MLOAD PUSH2 0x180 DUP5 ADD MLOAD SWAP1 PUSH2 0x467A JUMP JUMPDEST PUSH2 0x180 DUP7 ADD MLOAD SWAP1 PUSH2 0x467A JUMP JUMPDEST PUSH0 PUSH2 0x320 MSTORE PUSH0 DUP2 SLT PUSH0 EQ PUSH2 0x1451 JUMPI POP PUSH0 PUSH2 0x320 MSTORE JUMPDEST PUSH2 0x1A0 PUSH2 0x280 PUSH2 0x360 MLOAD ADD MLOAD SWAP2 ADD MLOAD SWAP1 PUSH2 0x467A JUMP JUMPDEST PUSH2 0x1A0 DUP4 ADD MLOAD SWAP1 PUSH2 0x467A JUMP JUMPDEST PUSH0 DUP2 SLT ISZERO PUSH2 0x1444 JUMPI POP PUSH2 0x240 PUSH2 0x12B9 PUSH0 SWAP15 JUMPDEST PUSH2 0x11DD PUSH2 0x11D1 PUSH2 0x2A0 PUSH2 0x360 MLOAD ADD MLOAD PUSH2 0x1C0 DUP5 ADD MLOAD SWAP1 PUSH2 0x467A JUMP JUMPDEST PUSH2 0x1C0 DUP7 ADD MLOAD SWAP1 PUSH2 0x467A JUMP JUMPDEST PUSH0 PUSH2 0x2E0 MSTORE PUSH0 DUP2 SLT PUSH0 EQ PUSH2 0x143B JUMPI POP PUSH0 PUSH2 0x2E0 MSTORE JUMPDEST PUSH2 0x1219 PUSH2 0x120D PUSH2 0x2C0 PUSH2 0x360 MLOAD ADD MLOAD PUSH2 0x1E0 DUP5 ADD MLOAD SWAP1 PUSH2 0x467A JUMP JUMPDEST PUSH2 0x1E0 DUP7 ADD MLOAD SWAP1 PUSH2 0x467A JUMP JUMPDEST PUSH0 PUSH2 0x2C0 MSTORE PUSH0 DUP2 SLT PUSH0 EQ PUSH2 0x1432 JUMPI POP PUSH0 PUSH2 0x2C0 MSTORE JUMPDEST PUSH2 0x1255 PUSH2 0x1249 PUSH2 0x2E0 PUSH2 0x360 MLOAD ADD MLOAD PUSH2 0x200 DUP5 ADD MLOAD SWAP1 PUSH2 0x467A JUMP JUMPDEST PUSH2 0x200 DUP7 ADD MLOAD SWAP1 PUSH2 0x467A JUMP JUMPDEST PUSH0 PUSH2 0x280 MSTORE PUSH0 DUP2 SLT PUSH0 EQ PUSH2 0x1429 JUMPI POP PUSH0 PUSH2 0x280 MSTORE JUMPDEST PUSH2 0x1291 PUSH2 0x1285 PUSH2 0x300 PUSH2 0x360 MLOAD ADD MLOAD PUSH2 0x220 DUP5 ADD MLOAD SWAP1 PUSH2 0x467A JUMP JUMPDEST PUSH2 0x220 DUP7 ADD MLOAD SWAP1 PUSH2 0x467A JUMP JUMPDEST PUSH0 PUSH2 0x220 MSTORE PUSH0 DUP2 SLT PUSH0 EQ PUSH2 0x1420 JUMPI POP PUSH0 PUSH2 0x220 MSTORE JUMPDEST DUP3 PUSH2 0x320 PUSH2 0x360 MLOAD ADD MLOAD SWAP2 ADD MLOAD SWAP1 PUSH2 0x467A JUMP JUMPDEST SWAP2 ADD MLOAD SWAP1 PUSH2 0x467A JUMP JUMPDEST PUSH0 PUSH2 0x1C0 MSTORE PUSH0 DUP2 SLT PUSH0 EQ PUSH2 0x1417 JUMPI POP PUSH0 PUSH2 0x1C0 MSTORE JUMPDEST PUSH2 0x12EB PUSH2 0x380 MLOAD PUSH2 0x8CD PUSH2 0x240 MLOAD DUP5 PUSH2 0x473A JUMP JUMPDEST SWAP1 PUSH1 0xA0 PUSH1 0x80 DUP9 ADD MLOAD SWAP8 ADD MLOAD PUSH2 0x1A0 MSTORE PUSH2 0x360 DUP1 MLOAD ADD MLOAD PUSH2 0x180 MSTORE PUSH1 0x40 MLOAD PUSH2 0x160 MSTORE PUSH2 0x1318 PUSH2 0x160 MLOAD PUSH2 0x411D JUMP JUMPDEST PUSH2 0x160 MLOAD MSTORE PUSH2 0x240 MLOAD PUSH1 0x20 PUSH2 0x160 MLOAD ADD MSTORE PUSH2 0x380 MLOAD PUSH1 0x40 PUSH2 0x160 MLOAD ADD MSTORE PUSH1 0x60 PUSH2 0x160 MLOAD ADD MSTORE PUSH1 0x80 PUSH2 0x160 MLOAD ADD MSTORE PUSH1 0xA0 PUSH2 0x160 MLOAD ADD MSTORE PUSH1 0xC0 PUSH2 0x160 MLOAD ADD MSTORE PUSH1 0xE0 PUSH2 0x160 MLOAD ADD MSTORE PUSH2 0x100 PUSH2 0x160 MLOAD ADD MSTORE PUSH2 0x120 PUSH2 0x160 MLOAD ADD MSTORE PUSH2 0x140 PUSH2 0x160 MLOAD ADD MSTORE PUSH2 0x160 DUP1 MLOAD ADD MSTORE PUSH2 0x180 PUSH2 0x160 MLOAD ADD MSTORE PUSH2 0x340 MLOAD PUSH2 0x1A0 PUSH2 0x160 MLOAD ADD MSTORE PUSH2 0x320 MLOAD PUSH2 0x1C0 PUSH2 0x160 MLOAD ADD MSTORE PUSH2 0x1E0 PUSH2 0x160 MLOAD ADD MSTORE PUSH2 0x2E0 MLOAD PUSH2 0x200 PUSH2 0x160 MLOAD ADD MSTORE PUSH2 0x2C0 MLOAD PUSH2 0x220 PUSH2 0x160 MLOAD ADD MSTORE PUSH2 0x280 MLOAD PUSH2 0x240 PUSH2 0x160 MLOAD ADD MSTORE PUSH2 0x220 MLOAD PUSH2 0x260 PUSH2 0x160 MLOAD ADD MSTORE PUSH2 0x1C0 MLOAD PUSH2 0x280 PUSH2 0x160 MLOAD ADD MSTORE PUSH2 0x1A0 MLOAD PUSH2 0x2A0 PUSH2 0x160 MLOAD ADD MSTORE PUSH2 0x180 MLOAD PUSH2 0x2C0 PUSH2 0x160 MLOAD ADD MSTORE PUSH1 0x40 MLOAD DUP1 PUSH2 0x9DD PUSH2 0x160 MLOAD DUP3 PUSH2 0x4284 JUMP JUMPDEST PUSH2 0x1C0 MSTORE PUSH2 0x12D7 JUMP JUMPDEST PUSH2 0x220 MSTORE PUSH2 0x12A6 JUMP JUMPDEST PUSH2 0x280 MSTORE PUSH2 0x126A JUMP JUMPDEST PUSH2 0x2C0 MSTORE PUSH2 0x122E JUMP JUMPDEST PUSH2 0x2E0 MSTORE PUSH2 0x11F2 JUMP JUMPDEST PUSH2 0x12B9 PUSH2 0x240 SWAP2 SWAP15 PUSH2 0x11B6 JUMP JUMPDEST PUSH2 0x320 MSTORE PUSH2 0x1183 JUMP JUMPDEST PUSH2 0x340 MSTORE PUSH2 0x1147 JUMP JUMPDEST PUSH2 0x1198 PUSH2 0x11A4 SWAP2 SWAP14 PUSH2 0x110B JUMP JUMPDEST PUSH2 0x12C2 SWAP1 SWAP10 PUSH2 0x10D1 JUMP JUMPDEST SWAP7 PUSH2 0x109B JUMP JUMPDEST SWAP5 PUSH2 0x1068 JUMP JUMPDEST SWAP2 PUSH2 0x1037 JUMP JUMPDEST PUSH2 0x1006 JUMP JUMPDEST PUSH2 0xFD6 JUMP JUMPDEST SWAP1 PUSH2 0xFA6 JUMP JUMPDEST PUSH2 0x380 MSTORE PUSH2 0xF75 JUMP JUMPDEST PUSH2 0x240 MSTORE PUSH2 0xF2F JUMP JUMPDEST PUSH2 0xEF5 JUMP JUMPDEST PUSH1 0x24 SWAP2 POP PUSH2 0x260 SWAP1 PUSH1 0x40 MLOAD SWAP3 DUP4 DUP1 SWAP3 PUSH4 0xE4551BF3 PUSH1 0xE0 SHL DUP3 MSTORE PUSH1 0x4 CALLDATALOAD PUSH1 0x4 DUP4 ADD MSTORE GAS STATICCALL SWAP1 DUP2 ISZERO PUSH2 0x15F9 JUMPI PUSH0 SWAP2 PUSH2 0x14EB JUMPI JUMPDEST POP DUP4 PUSH2 0xECB JUMP JUMPDEST SWAP1 POP PUSH2 0x260 DUP2 RETURNDATASIZE PUSH2 0x260 GT PUSH2 0x15F1 JUMPI JUMPDEST DUP2 PUSH2 0x1509 PUSH2 0x260 SWAP4 DUP4 PUSH2 0x4170 JUMP JUMPDEST DUP2 ADD SUB SLT PUSH2 0xA78 JUMPI PUSH2 0x240 PUSH1 0x40 MLOAD SWAP2 PUSH2 0x1521 DUP4 PUSH2 0x4101 JUMP JUMPDEST DUP1 MLOAD DUP4 MSTORE PUSH1 0x20 DUP2 ADD MLOAD PUSH1 0x20 DUP5 ADD MSTORE PUSH1 0x40 DUP2 ADD MLOAD PUSH1 0x40 DUP5 ADD MSTORE PUSH1 0x60 DUP2 ADD MLOAD PUSH1 0x60 DUP5 ADD MSTORE PUSH1 0x80 DUP2 ADD MLOAD PUSH1 0x80 DUP5 ADD MSTORE PUSH1 0xA0 DUP2 ADD MLOAD PUSH1 0xA0 DUP5 ADD MSTORE PUSH1 0xC0 DUP2 ADD MLOAD PUSH1 0xC0 DUP5 ADD MSTORE PUSH1 0xE0 DUP2 ADD MLOAD PUSH1 0xE0 DUP5 ADD MSTORE PUSH2 0x100 DUP2 ADD MLOAD PUSH2 0x100 DUP5 ADD MSTORE PUSH2 0x120 DUP2 ADD MLOAD PUSH2 0x120 DUP5 ADD MSTORE PUSH2 0x140 DUP2 ADD MLOAD PUSH2 0x140 DUP5 ADD MSTORE PUSH2 0x160 DUP2 ADD MLOAD PUSH2 0x160 DUP5 ADD MSTORE PUSH2 0x180 DUP2 ADD MLOAD PUSH2 0x180 DUP5 ADD MSTORE PUSH2 0x1A0 DUP2 ADD MLOAD PUSH2 0x1A0 DUP5 ADD MSTORE PUSH2 0x1C0 DUP2 ADD MLOAD PUSH2 0x1C0 DUP5 ADD MSTORE PUSH2 0x1E0 DUP2 ADD MLOAD PUSH2 0x1E0 DUP5 ADD MSTORE PUSH2 0x200 DUP2 ADD MLOAD PUSH2 0x200 DUP5 ADD MSTORE PUSH2 0x220 DUP2 ADD MLOAD PUSH2 0x220 DUP5 ADD MSTORE ADD MLOAD PUSH2 0x240 DUP3 ADD MSTORE DUP4 PUSH2 0x14E4 JUMP JUMPDEST RETURNDATASIZE SWAP2 POP PUSH2 0x14FB JUMP JUMPDEST PUSH1 0x40 MLOAD RETURNDATASIZE PUSH0 DUP3 RETURNDATACOPY RETURNDATASIZE SWAP1 REVERT JUMPDEST CALLVALUE PUSH2 0xA78 JUMPI PUSH1 0x40 CALLDATASIZE PUSH1 0x3 NOT ADD SLT PUSH2 0xA78 JUMPI PUSH2 0x161D PUSH2 0x3FB7 JUMP JUMPDEST PUSH2 0x1625 PUSH2 0x4006 JUMP JUMPDEST SWAP1 PUSH2 0x162E PUSH2 0x4808 JUMP JUMPDEST PUSH1 0x1 PUSH1 0x1 PUSH1 0xA0 SHL SUB AND SWAP1 DUP2 ISZERO PUSH2 0x168D JUMPI PUSH1 0x20 PUSH32 0x17F5B635C984BD6BD0661FD547F6085EF1A0813EF0C42D24B12A06F6824B5E08 SWAP2 DUP4 PUSH0 MSTORE PUSH1 0xC DUP3 MSTORE PUSH2 0x1682 DUP2 PUSH1 0x40 PUSH0 KECCAK256 SWAP1 PUSH1 0xFF DUP1 NOT DUP4 SLOAD AND SWAP2 ISZERO ISZERO AND OR SWAP1 SSTORE JUMP JUMPDEST PUSH1 0x40 MLOAD SWAP1 ISZERO ISZERO DUP2 MSTORE LOG2 STOP JUMPDEST PUSH1 0x40 MLOAD PUSH4 0xD92E233D PUSH1 0xE0 SHL DUP2 MSTORE PUSH1 0x4 SWAP1 REVERT JUMPDEST CALLVALUE PUSH2 0xA78 JUMPI PUSH1 0x40 CALLDATASIZE PUSH1 0x3 NOT ADD SLT PUSH2 0xA78 JUMPI PUSH2 0x16B8 PUSH2 0x3FB7 JUMP JUMPDEST PUSH2 0x16C0 PUSH2 0x3FCD JUMP JUMPDEST SWAP1 PUSH1 0x1 DUP1 PUSH1 0xA0 SHL SUB DUP1 SWAP2 AND PUSH0 MSTORE PUSH1 0x5 PUSH1 0x20 MSTORE PUSH1 0x40 PUSH0 KECCAK256 SWAP2 AND PUSH0 MSTORE PUSH1 0x20 MSTORE PUSH1 0x20 PUSH1 0xFF PUSH1 0x40 PUSH0 KECCAK256 SLOAD AND PUSH1 0x40 MLOAD SWAP1 ISZERO ISZERO DUP2 MSTORE RETURN JUMPDEST CALLVALUE PUSH2 0xA78 JUMPI PUSH0 CALLDATASIZE PUSH1 0x3 NOT ADD SLT PUSH2 0xA78 JUMPI PUSH1 0xD SLOAD PUSH1 0x40 MLOAD PUSH1 0x1 PUSH1 0x1 PUSH1 0xA0 SHL SUB SWAP1 SWAP2 AND DUP2 MSTORE PUSH1 0x20 SWAP1 RETURN JUMPDEST CALLVALUE PUSH2 0xA78 JUMPI PUSH0 CALLDATASIZE PUSH1 0x3 NOT ADD SLT PUSH2 0xA78 JUMPI PUSH1 0x40 MLOAD PUSH1 0x7 SLOAD PUSH0 DUP3 PUSH2 0x173A DUP4 PUSH2 0x4091 JUMP JUMPDEST SWAP2 DUP3 DUP3 MSTORE PUSH1 0x20 SWAP4 PUSH1 0x1 SWAP1 DUP6 PUSH1 0x1 DUP3 AND SWAP2 DUP3 PUSH0 EQ PUSH2 0x17C4 JUMPI POP POP PUSH1 0x1 EQ PUSH2 0x177C JUMPI JUMPDEST POP PUSH2 0x1768 SWAP3 POP SUB DUP4 PUSH2 0x4170 JUMP JUMPDEST PUSH2 0x9DD PUSH1 0x40 MLOAD SWAP3 DUP3 DUP5 SWAP4 DUP5 MSTORE DUP4 ADD SWAP1 PUSH2 0x3F92 JUMP JUMPDEST DUP5 SWAP2 POP PUSH1 0x7 PUSH0 MSTORE PUSH0 DUP1 MLOAD PUSH1 0x20 PUSH2 0x497F DUP4 CODECOPY DUP2 MLOAD SWAP2 MSTORE SWAP1 PUSH0 SWAP2 JUMPDEST DUP6 DUP4 LT PUSH2 0x17AC JUMPI POP POP PUSH2 0x1768 SWAP4 POP DUP3 ADD ADD DUP6 PUSH2 0x175B JUMP JUMPDEST DUP1 SLOAD DUP4 DUP10 ADD DUP6 ADD MSTORE DUP8 SWAP5 POP DUP7 SWAP4 SWAP1 SWAP3 ADD SWAP2 DUP2 ADD PUSH2 0x1795 JUMP JUMPDEST PUSH1 0xFF NOT AND DUP6 DUP3 ADD MSTORE PUSH2 0x1768 SWAP6 ISZERO ISZERO PUSH1 0x5 SHL DUP6 ADD ADD SWAP3 POP DUP8 SWAP2 POP PUSH2 0x175B SWAP1 POP JUMP JUMPDEST CALLVALUE PUSH2 0xA78 JUMPI PUSH1 0x20 PUSH32 0xDB5932D72D80815C1CFEEC4447210E1007A70BA2F081E564C59A8E780489A4E2 PUSH2 0x1815 CALLDATASIZE PUSH2 0x3FF0 JUMP JUMPDEST PUSH2 0x1820 SWAP4 SWAP2 SWAP4 PUSH2 0x4808 JUMP JUMPDEST PUSH2 0x1829 DUP5 PUSH2 0x4794 JUMP JUMPDEST DUP4 PUSH0 MSTORE PUSH1 0xA DUP3 MSTORE DUP1 PUSH1 0x6 PUSH1 0x40 PUSH0 KECCAK256 ADD SSTORE PUSH1 0x40 MLOAD SWAP1 DUP2 MSTORE LOG2 STOP JUMPDEST CALLVALUE PUSH2 0xA78 JUMPI PUSH1 0x20 DUP1 PUSH1 0x3 NOT CALLDATASIZE ADD SLT PUSH2 0xA78 JUMPI PUSH1 0x4 CALLDATALOAD SWAP1 PUSH2 0x1861 DUP3 PUSH2 0x4794 JUMP JUMPDEST PUSH0 DUP3 PUSH27 0x184F03E93FF9F4DAA797ED6E38ED64BF6A1F010000000000000000 DUP2 DUP2 DUP2 LT ISZERO PUSH2 0x1A7B JUMPI JUMPDEST POP POP PUSH14 0x4EE2D6D415B85ACEF8100000000 DUP1 DUP6 LT ISZERO PUSH2 0x1A6D JUMPI JUMPDEST POP PUSH7 0x2386F26FC10000 DUP1 DUP6 LT ISZERO PUSH2 0x1A5E JUMPI JUMPDEST POP PUSH4 0x5F5E100 DUP1 DUP6 LT ISZERO PUSH2 0x1A4F JUMPI JUMPDEST POP PUSH2 0x2710 DUP1 DUP6 LT ISZERO PUSH2 0x1A40 JUMPI JUMPDEST POP PUSH1 0x64 DUP5 LT ISZERO PUSH2 0x1A30 JUMPI JUMPDEST PUSH1 0xA DUP1 SWAP5 LT ISZERO PUSH2 0x1A26 JUMPI JUMPDEST PUSH1 0x1 SWAP4 PUSH1 0x1 DUP4 ADD SWAP2 DUP6 PUSH1 0x21 PUSH2 0x1914 PUSH2 0x18FE DUP7 PUSH2 0x4233 JUMP JUMPDEST SWAP6 PUSH2 0x190C PUSH1 0x40 MLOAD SWAP8 DUP9 PUSH2 0x4170 JUMP JUMPDEST DUP1 DUP8 MSTORE PUSH2 0x4233 JUMP JUMPDEST DUP6 DUP9 ADD SWAP7 SWAP1 PUSH1 0x1F NOT ADD CALLDATASIZE DUP9 CALLDATACOPY DUP6 ADD ADD SWAP1 JUMPDEST PUSH2 0x19F8 JUMPI JUMPDEST POP POP POP PUSH1 0x40 MLOAD SWAP4 DUP5 SWAP2 PUSH0 SWAP2 PUSH1 0x7 SLOAD SWAP1 PUSH2 0x1942 DUP3 PUSH2 0x4091 JUMP JUMPDEST SWAP2 DUP8 PUSH1 0x1 DUP3 AND SWAP2 DUP3 PUSH0 EQ PUSH2 0x19D6 JUMPI POP POP PUSH1 0x1 EQ PUSH2 0x198D JUMPI JUMPDEST POP POP SWAP1 DUP1 PUSH2 0x1972 PUSH2 0x1768 SWAP6 PUSH1 0x5 SWAP6 SWAP5 MLOAD SWAP4 DUP5 SWAP2 PUSH2 0x3F71 JUMP JUMPDEST ADD PUSH5 0x173539B7B7 PUSH1 0xD9 SHL DUP2 MSTORE SUB PUSH1 0x1A NOT DUP2 ADD DUP6 MSTORE ADD DUP4 PUSH2 0x4170 JUMP JUMPDEST DUP7 SWAP3 SWAP4 POP PUSH1 0x7 PUSH0 MSTORE PUSH0 DUP1 MLOAD PUSH1 0x20 PUSH2 0x497F DUP4 CODECOPY DUP2 MLOAD SWAP2 MSTORE SWAP1 PUSH0 SWAP2 JUMPDEST DUP4 DUP4 LT PUSH2 0x19BE JUMPI POP POP POP DUP4 ADD ADD SWAP1 DUP1 PUSH2 0x1972 PUSH2 0x195A JUMP JUMPDEST DUP1 SLOAD DUP4 DUP12 ADD DUP7 ADD MSTORE DUP10 SWAP7 POP DUP9 SWAP5 SWAP1 SWAP3 ADD SWAP2 DUP2 ADD PUSH2 0x19A7 JUMP JUMPDEST PUSH1 0xFF NOT AND DUP2 DUP9 ADD MSTORE DUP4 ISZERO ISZERO SWAP1 SWAP4 MUL DUP7 ADD SWAP1 SWAP3 ADD SWAP4 POP DUP3 SWAP2 POP PUSH2 0x1972 SWAP1 POP PUSH2 0x195A JUMP JUMPDEST PUSH0 NOT ADD SWAP1 DUP3 SWAP1 PUSH16 0x181899199A1A9B1B9C1CB0B131B232B3 PUSH1 0x81 SHL DUP3 DUP3 MOD BYTE DUP4 MSTORE8 DIV SWAP1 DUP7 DUP3 PUSH2 0x1925 JUMPI POP PUSH2 0x192A JUMP JUMPDEST SWAP1 PUSH1 0x1 ADD SWAP1 PUSH2 0x18E7 JUMP JUMPDEST SWAP1 SWAP3 PUSH1 0x64 PUSH1 0x2 SWAP2 DIV SWAP4 ADD SWAP1 PUSH2 0x18DC JUMP JUMPDEST PUSH1 0x4 SWAP2 SWAP3 SWAP5 DIV SWAP4 ADD SWAP1 DUP5 PUSH2 0x18D1 JUMP JUMPDEST PUSH1 0x8 SWAP2 SWAP3 SWAP5 DIV SWAP4 ADD SWAP1 DUP5 PUSH2 0x18C4 JUMP JUMPDEST PUSH1 0x10 SWAP2 SWAP3 SWAP5 DIV SWAP4 ADD SWAP1 DUP5 PUSH2 0x18B5 JUMP JUMPDEST DUP4 SWAP2 SWAP3 SWAP5 DIV SWAP4 ADD SWAP1 DUP5 PUSH2 0x18A3 JUMP JUMPDEST DIV SWAP4 POP PUSH1 0x40 SWAP2 POP DUP5 DUP1 PUSH2 0x1889 JUMP JUMPDEST CALLVALUE PUSH2 0xA78 JUMPI PUSH2 0x3C0 CALLDATASIZE PUSH1 0x3 NOT ADD SLT PUSH2 0xA78 JUMPI PUSH1 0x24 CALLDATALOAD PUSH1 0x1 PUSH1 0x1 PUSH1 0x40 SHL SUB DUP2 GT PUSH2 0xA78 JUMPI PUSH2 0x1ABA SWAP1 CALLDATASIZE SWAP1 PUSH1 0x4 ADD PUSH2 0x404A JUMP JUMPDEST SWAP1 PUSH1 0xF PUSH1 0x44 CALLDATALOAD LT ISZERO PUSH2 0xA78 JUMPI PUSH1 0xD PUSH1 0x64 CALLDATALOAD LT ISZERO PUSH2 0xA78 JUMPI PUSH2 0x3A4 CALLDATALOAD SWAP2 DUP3 ISZERO ISZERO DUP4 SUB PUSH2 0xA78 JUMPI PUSH2 0x1AE7 PUSH2 0x4808 JUMP JUMPDEST PUSH1 0x4 CALLDATALOAD ISZERO PUSH2 0xA57 JUMPI DUP1 ISZERO PUSH2 0xA57 JUMPI PUSH1 0x44 CALLDATALOAD ISZERO PUSH2 0xA57 JUMPI PUSH1 0x64 CALLDATALOAD ISZERO PUSH2 0xA57 JUMPI PUSH1 0xE4 CALLDATALOAD PUSH2 0x104 CALLDATALOAD LT PUSH2 0xA57 JUMPI PUSH2 0x1C4 CALLDATALOAD ISZERO PUSH2 0xA57 JUMPI PUSH1 0x40 MLOAD PUSH2 0x1B26 DUP2 PUSH2 0x40C9 JUMP JUMPDEST PUSH1 0x4 CALLDATALOAD DUP2 MSTORE PUSH2 0x1B36 CALLDATASIZE DUP4 DUP6 PUSH2 0x424E JUMP JUMPDEST PUSH1 0x20 DUP3 ADD MSTORE PUSH2 0x1B4A PUSH1 0x44 CALLDATALOAD PUSH1 0x40 DUP4 ADD PUSH2 0x437D JUMP JUMPDEST PUSH2 0x1B59 PUSH1 0x64 CALLDATALOAD PUSH1 0x60 DUP4 ADD PUSH2 0x4389 JUMP JUMPDEST PUSH1 0x84 CALLDATALOAD PUSH1 0x80 DUP3 ADD MSTORE PUSH1 0xA4 CALLDATALOAD PUSH1 0xA0 DUP3 ADD MSTORE PUSH1 0xC4 CALLDATALOAD PUSH1 0xC0 DUP3 ADD MSTORE PUSH1 0xE4 CALLDATALOAD PUSH1 0xE0 DUP3 ADD MSTORE PUSH2 0x104 CALLDATALOAD PUSH2 0x100 DUP3 ADD MSTORE PUSH2 0x124 CALLDATALOAD PUSH2 0x120 DUP3 ADD MSTORE PUSH2 0x144 CALLDATALOAD PUSH2 0x140 DUP3 ADD MSTORE PUSH2 0x164 CALLDATALOAD PUSH2 0x160 DUP3 ADD MSTORE PUSH2 0x184 CALLDATALOAD PUSH2 0x180 DUP3 ADD MSTORE PUSH2 0x1A4 CALLDATALOAD PUSH2 0x1A0 DUP3 ADD MSTORE PUSH2 0x1C4 CALLDATALOAD PUSH2 0x1C0 DUP3 ADD MSTORE PUSH2 0x1E4 CALLDATALOAD PUSH2 0x1E0 DUP3 ADD MSTORE PUSH2 0x204 CALLDATALOAD PUSH2 0x200 DUP3 ADD MSTORE PUSH2 0x224 CALLDATALOAD PUSH2 0x220 DUP3 ADD MSTORE PUSH2 0x244 CALLDATALOAD PUSH2 0x240 DUP3 ADD MSTORE PUSH2 0x264 CALLDATALOAD PUSH2 0x260 DUP3 ADD MSTORE PUSH2 0x284 CALLDATALOAD PUSH2 0x280 DUP3 ADD MSTORE PUSH2 0x2A4 CALLDATALOAD PUSH2 0x2A0 DUP3 ADD MSTORE PUSH2 0x2C4 CALLDATALOAD PUSH2 0x2C0 DUP3 ADD MSTORE PUSH2 0x2E4 CALLDATALOAD PUSH2 0x2E0 DUP3 ADD MSTORE PUSH2 0x304 CALLDATALOAD PUSH2 0x300 DUP3 ADD MSTORE PUSH2 0x324 CALLDATALOAD PUSH2 0x320 DUP3 ADD MSTORE PUSH2 0x344 CALLDATALOAD PUSH2 0x340 DUP3 ADD MSTORE PUSH2 0x364 CALLDATALOAD PUSH2 0x360 DUP3 ADD MSTORE PUSH2 0x384 CALLDATALOAD PUSH2 0x380 DUP3 ADD MSTORE DUP4 ISZERO ISZERO PUSH2 0x3A0 DUP3 ADD MSTORE PUSH1 0x4 CALLDATALOAD PUSH0 MSTORE PUSH1 0x9 PUSH1 0x20 MSTORE PUSH1 0x40 PUSH0 KECCAK256 SWAP3 DUP2 MLOAD DUP5 SSTORE PUSH1 0x20 DUP3 ADD MLOAD DUP1 MLOAD SWAP1 PUSH1 0x1 PUSH1 0x1 PUSH1 0x40 SHL SUB DUP3 GT PUSH2 0x1F75 JUMPI PUSH2 0x1C8A PUSH1 0x1 DUP8 ADD SLOAD PUSH2 0x4091 JUMP JUMPDEST PUSH1 0x1F DUP2 GT PUSH2 0x1F31 JUMPI JUMPDEST POP PUSH1 0x20 SWAP1 PUSH1 0x1F DUP4 GT PUSH1 0x1 EQ PUSH2 0x1EC3 JUMPI PUSH2 0x1CC3 SWAP3 SWAP2 PUSH0 SWAP2 DUP4 PUSH2 0x1EB8 JUMPI JUMPDEST POP POP DUP2 PUSH1 0x1 SHL SWAP2 PUSH0 NOT SWAP1 PUSH1 0x3 SHL SHR NOT AND OR SWAP1 JUMP JUMPDEST PUSH1 0x1 DUP6 ADD SSTORE JUMPDEST PUSH1 0x40 DUP3 ADD MLOAD PUSH1 0xF DUP2 LT ISZERO PUSH2 0x1EA4 JUMPI PUSH1 0x2 DUP6 ADD SLOAD SWAP5 PUSH1 0x60 DUP5 ADD MLOAD SWAP6 PUSH1 0xD DUP8 LT ISZERO PUSH2 0x1EA4 JUMPI PUSH2 0x3A0 PUSH2 0x1E6C SWAP6 PUSH2 0x1E5A SWAP5 PUSH1 0x1C SWAP4 PUSH1 0xFF PUSH2 0xFF00 PUSH32 0x75A4D811EE567F7ECDDCA975969DABBC2EF675BAF615938572E27ECCD0B84CFC SWAP13 PUSH1 0x8 SHL AND SWAP3 AND SWAP1 PUSH2 0xFFFF NOT AND OR OR PUSH1 0x2 DUP6 ADD SSTORE PUSH1 0x80 DUP2 ADD MLOAD PUSH1 0x3 DUP6 ADD SSTORE PUSH1 0xA0 DUP2 ADD MLOAD PUSH1 0x4 DUP6 ADD SSTORE PUSH1 0xC0 DUP2 ADD MLOAD PUSH1 0x5 DUP6 ADD SSTORE PUSH1 0xE0 DUP2 ADD MLOAD PUSH1 0x6 DUP6 ADD SSTORE PUSH2 0x100 DUP2 ADD MLOAD PUSH1 0x7 DUP6 ADD SSTORE PUSH2 0x120 DUP2 ADD MLOAD PUSH1 0x8 DUP6 ADD SSTORE PUSH2 0x140 DUP2 ADD MLOAD PUSH1 0x9 DUP6 ADD SSTORE PUSH2 0x160 DUP2 ADD MLOAD PUSH1 0xA DUP6 ADD SSTORE PUSH2 0x180 DUP2 ADD MLOAD PUSH1 0xB DUP6 ADD SSTORE PUSH2 0x1A0 DUP2 ADD MLOAD PUSH1 0xC DUP6 ADD SSTORE PUSH2 0x1C0 DUP2 ADD MLOAD PUSH1 0xD DUP6 ADD SSTORE PUSH2 0x1E0 DUP2 ADD MLOAD PUSH1 0xE DUP6 ADD SSTORE PUSH2 0x200 DUP2 ADD MLOAD PUSH1 0xF DUP6 ADD SSTORE PUSH2 0x220 DUP2 ADD MLOAD PUSH1 0x10 DUP6 ADD SSTORE PUSH2 0x240 DUP2 ADD MLOAD PUSH1 0x11 DUP6 ADD SSTORE PUSH2 0x260 DUP2 ADD MLOAD PUSH1 0x12 DUP6 ADD SSTORE PUSH2 0x280 DUP2 ADD MLOAD PUSH1 0x13 DUP6 ADD SSTORE PUSH2 0x2A0 DUP2 ADD MLOAD PUSH1 0x14 DUP6 ADD SSTORE PUSH2 0x2C0 DUP2 ADD MLOAD PUSH1 0x15 DUP6 ADD SSTORE PUSH2 0x2E0 DUP2 ADD MLOAD PUSH1 0x16 DUP6 ADD SSTORE PUSH2 0x300 DUP2 ADD MLOAD PUSH1 0x17 DUP6 ADD SSTORE PUSH2 0x320 DUP2 ADD MLOAD PUSH1 0x18 DUP6 ADD SSTORE PUSH2 0x340 DUP2 ADD MLOAD PUSH1 0x19 DUP6 ADD SSTORE PUSH2 0x360 DUP2 ADD MLOAD PUSH1 0x1A DUP6 ADD SSTORE PUSH2 0x380 DUP2 ADD MLOAD PUSH1 0x1B DUP6 ADD SSTORE ADD MLOAD ISZERO ISZERO SWAP2 ADD SWAP1 PUSH1 0xFF DUP1 NOT DUP4 SLOAD AND SWAP2 ISZERO ISZERO AND OR SWAP1 SSTORE JUMP JUMPDEST PUSH1 0x40 MLOAD SWAP3 PUSH1 0xA0 DUP5 MSTORE PUSH1 0xA0 DUP5 ADD SWAP2 PUSH2 0x45D1 JUMP JUMPDEST SWAP3 PUSH2 0x1E7C PUSH1 0x20 DUP4 ADD PUSH1 0x44 CALLDATALOAD PUSH2 0x4077 JUMP JUMPDEST PUSH2 0x1E8B PUSH1 0x40 DUP4 ADD PUSH1 0x64 CALLDATALOAD PUSH2 0x4084 JUMP JUMPDEST PUSH1 0x84 CALLDATALOAD PUSH1 0x60 DUP4 ADD MSTORE ISZERO ISZERO PUSH1 0x80 DUP3 ADD MSTORE DUP1 PUSH1 0x4 CALLDATALOAD SWAP4 SUB SWAP1 LOG2 STOP JUMPDEST PUSH4 0x4E487B71 PUSH1 0xE0 SHL PUSH0 MSTORE PUSH1 0x21 PUSH1 0x4 MSTORE PUSH1 0x24 PUSH0 REVERT JUMPDEST ADD MLOAD SWAP1 POP DUP9 DUP1 PUSH2 0x1CAF JUMP JUMPDEST SWAP2 SWAP1 PUSH1 0x1 DUP8 ADD PUSH0 MSTORE PUSH1 0x20 PUSH0 KECCAK256 SWAP1 PUSH0 SWAP4 JUMPDEST PUSH1 0x1F NOT DUP5 AND DUP6 LT PUSH2 0x1F16 JUMPI PUSH1 0x1 SWAP5 POP DUP4 PUSH1 0x1F NOT DUP2 AND LT PUSH2 0x1EFE JUMPI JUMPDEST POP POP POP DUP2 SHL ADD PUSH1 0x1 DUP6 ADD SSTORE PUSH2 0x1CC9 JUMP JUMPDEST ADD MLOAD PUSH0 NOT PUSH1 0xF8 DUP5 PUSH1 0x3 SHL AND SHR NOT AND SWAP1 SSTORE DUP8 DUP1 DUP1 PUSH2 0x1EEE JUMP JUMPDEST DUP2 DUP2 ADD MLOAD DUP4 SSTORE PUSH1 0x20 SWAP5 DUP6 ADD SWAP5 PUSH1 0x1 SWAP1 SWAP4 ADD SWAP3 SWAP1 SWAP2 ADD SWAP1 PUSH2 0x1ED3 JUMP JUMPDEST PUSH1 0x1 DUP8 ADD PUSH0 MSTORE PUSH1 0x20 PUSH0 KECCAK256 PUSH1 0x1F DUP5 ADD PUSH1 0x5 SHR DUP2 ADD PUSH1 0x20 DUP6 LT PUSH2 0x1F6E JUMPI JUMPDEST PUSH1 0x1F DUP4 ADD PUSH1 0x5 SHR DUP3 ADD DUP2 LT PUSH2 0x1F63 JUMPI POP POP PUSH2 0x1C93 JUMP JUMPDEST PUSH0 DUP2 SSTORE PUSH1 0x1 ADD PUSH2 0x1F4D JUMP JUMPDEST POP DUP1 PUSH2 0x1F4D JUMP JUMPDEST PUSH4 0x4E487B71 PUSH1 0xE0 SHL PUSH0 MSTORE PUSH1 0x41 PUSH1 0x4 MSTORE PUSH1 0x24 PUSH0 REVERT JUMPDEST CALLVALUE PUSH2 0xA78 JUMPI PUSH1 0x80 CALLDATASIZE PUSH1 0x3 NOT ADD SLT PUSH2 0xA78 JUMPI PUSH2 0x1FA2 PUSH2 0x3FB7 JUMP JUMPDEST PUSH2 0x1FAA PUSH2 0x3FCD JUMP JUMPDEST SWAP1 PUSH1 0x44 CALLDATALOAD PUSH1 0x64 CALLDATALOAD SWAP3 PUSH1 0x1 PUSH1 0x1 PUSH1 0x40 SHL SUB DUP5 GT PUSH2 0xA78 JUMPI CALLDATASIZE PUSH1 0x23 DUP6 ADD SLT ISZERO PUSH2 0xA78 JUMPI PUSH2 0x1FE2 PUSH2 0x1FF4 SWAP5 CALLDATASIZE SWAP1 PUSH1 0x24 DUP2 PUSH1 0x4 ADD CALLDATALOAD SWAP2 ADD PUSH2 0x424E JUMP JUMPDEST SWAP3 PUSH2 0x1FEE DUP4 DUP4 DUP4 PUSH2 0x43A1 JUMP JUMPDEST CALLER PUSH2 0x4834 JUMP JUMPDEST STOP JUMPDEST CALLVALUE PUSH2 0xA78 JUMPI PUSH1 0x20 CALLDATASIZE PUSH1 0x3 NOT ADD SLT PUSH2 0xA78 JUMPI PUSH1 0x1 PUSH1 0x1 PUSH1 0xA0 SHL SUB PUSH2 0x2017 PUSH2 0x3FB7 JUMP JUMPDEST AND PUSH0 MSTORE PUSH1 0xC PUSH1 0x20 MSTORE PUSH1 0x20 PUSH1 0xFF PUSH1 0x40 PUSH0 KECCAK256 SLOAD AND PUSH1 0x40 MLOAD SWAP1 ISZERO ISZERO DUP2 MSTORE RETURN JUMPDEST CALLVALUE PUSH2 0xA78 JUMPI PUSH2 0x2041 CALLDATASIZE PUSH2 0x3FF0 JUMP JUMPDEST PUSH1 0x6 SLOAD PUSH1 0x1 PUSH1 0x1 PUSH1 0xA0 SHL SUB AND CALLER EQ DUP1 ISZERO PUSH2 0x20F8 JUMPI JUMPDEST ISZERO PUSH2 0x20E6 JUMPI PUSH2 0x2064 DUP3 PUSH2 0x4794 JUMP JUMPDEST DUP2 PUSH0 MSTORE PUSH1 0xA PUSH1 0x20 MSTORE PUSH1 0x40 PUSH0 KECCAK256 PUSH1 0x1 DUP2 ADD SLOAD PUSH0 MSTORE PUSH1 0x9 PUSH1 0x20 MSTORE PUSH2 0x209D PUSH1 0xD PUSH1 0x40 PUSH0 KECCAK256 ADD SLOAD DUP5 PUSH0 MSTORE PUSH1 0xB PUSH1 0x20 MSTORE PUSH1 0x7 PUSH1 0x40 PUSH0 KECCAK256 ADD SLOAD SWAP1 PUSH2 0x467A JUMP JUMPDEST PUSH0 DUP2 SLT ISZERO PUSH2 0x20E1 JUMPI POP PUSH0 JUMPDEST DUP3 GT PUSH2 0xA57 JUMPI DUP2 PUSH32 0x639B180B62F0984251FFFF3F530749B17FB63828812F715CE46FDB4C0F11481F SWAP3 PUSH1 0x4 PUSH1 0x20 SWAP4 ADD SSTORE PUSH1 0x40 MLOAD SWAP1 DUP2 MSTORE LOG2 STOP JUMPDEST PUSH2 0x20A8 JUMP JUMPDEST PUSH1 0x40 MLOAD PUSH4 0xEA8E4EB5 PUSH1 0xE0 SHL DUP2 MSTORE PUSH1 0x4 SWAP1 REVERT JUMPDEST POP CALLER PUSH0 MSTORE PUSH1 0xC PUSH1 0x20 MSTORE PUSH1 0xFF PUSH1 0x40 PUSH0 KECCAK256 SLOAD AND PUSH2 0x2056 JUMP JUMPDEST CALLVALUE PUSH2 0xA78 JUMPI PUSH1 0x40 CALLDATASIZE PUSH1 0x3 NOT ADD SLT PUSH2 0xA78 JUMPI PUSH2 0x2127 PUSH2 0x3FB7 JUMP JUMPDEST PUSH2 0x212F PUSH2 0x4006 JUMP JUMPDEST PUSH1 0x1 PUSH1 0x1 PUSH1 0xA0 SHL SUB SWAP1 SWAP2 AND SWAP1 DUP2 ISZERO PUSH2 0x219C JUMPI CALLER PUSH0 MSTORE PUSH1 0x5 PUSH1 0x20 MSTORE PUSH1 0x40 PUSH0 KECCAK256 DUP3 PUSH0 MSTORE PUSH1 0x20 MSTORE PUSH2 0x216C DUP2 PUSH1 0x40 PUSH0 KECCAK256 SWAP1 PUSH1 0xFF DUP1 NOT DUP4 SLOAD AND SWAP2 ISZERO ISZERO AND OR SWAP1 SSTORE JUMP JUMPDEST PUSH1 0x40 MLOAD SWAP1 ISZERO ISZERO DUP2 MSTORE PUSH32 0x17307EAB39AB6107E8899845AD3D59BD9653F200F220920489CA2B5937696C31 PUSH1 0x20 CALLER SWAP3 LOG3 STOP JUMPDEST PUSH1 0x40 MLOAD PUSH4 0xB611743 PUSH1 0xE3 SHL DUP2 MSTORE PUSH1 0x4 DUP2 ADD DUP4 SWAP1 MSTORE PUSH1 0x24 SWAP1 REVERT JUMPDEST CALLVALUE PUSH2 0xA78 JUMPI PUSH0 CALLDATASIZE PUSH1 0x3 NOT ADD SLT PUSH2 0xA78 JUMPI PUSH1 0x40 MLOAD PUSH0 PUSH1 0x1 DUP3 PUSH1 0x1 SLOAD SWAP3 PUSH2 0x21D9 DUP5 PUSH2 0x4091 JUMP JUMPDEST SWAP3 DUP4 DUP4 MSTORE PUSH1 0x20 SWAP5 DUP6 PUSH1 0x1 DUP3 AND SWAP2 DUP3 PUSH0 EQ PUSH2 0x17C4 JUMPI POP POP PUSH1 0x1 EQ PUSH2 0x2203 JUMPI POP PUSH2 0x1768 SWAP3 POP SUB DUP4 PUSH2 0x4170 JUMP JUMPDEST DUP5 SWAP2 POP PUSH1 0x1 PUSH0 MSTORE PUSH32 0xB10E2D527612073B26EECDFD717E6A320CF44B4AFAC2B0732D9FCBE2B7FA0CF6 SWAP1 PUSH0 SWAP2 JUMPDEST DUP6 DUP4 LT PUSH2 0x2246 JUMPI POP POP PUSH2 0x1768 SWAP4 POP DUP3 ADD ADD DUP6 PUSH2 0x175B JUMP JUMPDEST DUP1 SLOAD DUP4 DUP10 ADD DUP6 ADD MSTORE DUP8 SWAP5 POP DUP7 SWAP4 SWAP1 SWAP3 ADD SWAP2 DUP2 ADD PUSH2 0x222F JUMP JUMPDEST CALLVALUE PUSH2 0xA78 JUMPI PUSH1 0x20 CALLDATASIZE PUSH1 0x3 NOT ADD SLT PUSH2 0xA78 JUMPI PUSH1 0x4 CALLDATALOAD PUSH0 MSTORE PUSH1 0x9 PUSH1 0x20 MSTORE PUSH1 0x40 PUSH0 KECCAK256 PUSH2 0x5C0 MSTORE PUSH2 0x5C0 MLOAD SLOAD PUSH2 0x480 MSTORE PUSH2 0x2299 PUSH1 0x1 PUSH2 0x5C0 MLOAD ADD PUSH2 0x4191 JUMP JUMPDEST PUSH2 0x5C0 MLOAD PUSH1 0x2 DUP2 ADD SLOAD PUSH2 0x440 MSTORE PUSH1 0x3 DUP2 ADD SLOAD PUSH2 0x460 MSTORE PUSH1 0x4 DUP2 ADD SLOAD PUSH2 0x4C0 MSTORE PUSH1 0x5 DUP2 ADD SLOAD PUSH1 0x6 DUP3 ADD SLOAD PUSH1 0x7 DUP4 ADD SLOAD PUSH1 0x8 DUP5 ADD SLOAD PUSH1 0x9 DUP6 ADD SLOAD PUSH1 0xA DUP7 ADD SLOAD PUSH1 0xB DUP8 ADD SLOAD PUSH1 0xC DUP9 ADD SLOAD PUSH1 0xD DUP10 ADD SLOAD PUSH1 0xE DUP11 ADD SLOAD PUSH1 0xF DUP12 ADD SLOAD PUSH1 0x10 DUP13 ADD SLOAD PUSH1 0x11 DUP14 ADD SLOAD PUSH2 0x3A0 MSTORE PUSH1 0x12 DUP14 ADD SLOAD PUSH2 0x3C0 SWAP1 DUP2 MSTORE PUSH1 0x13 DUP15 ADD SLOAD PUSH2 0x400 MSTORE PUSH1 0x14 DUP15 ADD SLOAD PUSH2 0x5A0 MSTORE PUSH1 0x15 DUP15 ADD SLOAD PUSH2 0x580 MSTORE PUSH1 0x16 DUP15 ADD SLOAD PUSH2 0x560 MSTORE PUSH1 0x17 DUP15 ADD SLOAD PUSH2 0x540 MSTORE PUSH1 0x18 DUP15 ADD SLOAD PUSH2 0x520 MSTORE PUSH1 0x19 DUP15 ADD SLOAD PUSH2 0x500 MSTORE PUSH1 0x1A DUP15 ADD SLOAD PUSH2 0x4E0 MSTORE PUSH1 0x1B DUP15 ADD SLOAD PUSH2 0x4A0 MSTORE PUSH1 0x1C SWAP1 SWAP14 ADD SLOAD PUSH1 0xFF AND PUSH2 0x420 MSTORE PUSH1 0x40 MLOAD PUSH2 0x3E0 DUP2 DUP2 MSTORE PUSH2 0x480 MLOAD SWAP1 SWAP2 MSTORE DUP1 MLOAD PUSH1 0x20 ADD DUP15 SWAP1 MSTORE MLOAD SWAP12 SWAP14 SWAP1 SWAP13 SWAP2 SWAP12 SWAP3 SWAP11 SWAP4 SWAP10 SWAP5 SWAP9 SWAP6 SWAP8 SWAP6 SWAP5 SWAP4 SWAP3 PUSH2 0x239C SWAP3 ADD SWAP1 PUSH2 0x3F92 JUMP JUMPDEST SWAP12 PUSH2 0x23B3 PUSH1 0x40 PUSH2 0x3E0 MLOAD ADD PUSH1 0xFF PUSH2 0x440 MLOAD AND PUSH2 0x4077 JUMP JUMPDEST PUSH2 0x23CC PUSH1 0x60 PUSH2 0x3E0 MLOAD ADD PUSH1 0xFF PUSH2 0x440 MLOAD PUSH1 0x8 SHR AND PUSH2 0x4084 JUMP JUMPDEST PUSH2 0x460 MLOAD PUSH1 0x80 PUSH2 0x3E0 MLOAD ADD MSTORE PUSH2 0x4C0 MLOAD PUSH1 0xA0 PUSH2 0x3E0 MLOAD ADD MSTORE PUSH1 0xC0 PUSH2 0x3E0 MLOAD ADD MSTORE PUSH1 0xE0 PUSH2 0x3E0 MLOAD ADD MSTORE PUSH2 0x100 PUSH2 0x3E0 MLOAD ADD MSTORE PUSH2 0x120 PUSH2 0x3E0 MLOAD ADD MSTORE PUSH2 0x140 PUSH2 0x3E0 MLOAD ADD MSTORE PUSH2 0x160 PUSH2 0x3E0 MLOAD ADD MSTORE PUSH2 0x180 PUSH2 0x3E0 MLOAD ADD MSTORE PUSH2 0x1A0 PUSH2 0x3E0 MLOAD ADD MSTORE PUSH2 0x1C0 PUSH2 0x3E0 MLOAD ADD MSTORE PUSH2 0x1E0 PUSH2 0x3E0 MLOAD ADD MSTORE PUSH2 0x200 PUSH2 0x3E0 MLOAD ADD MSTORE PUSH2 0x220 PUSH2 0x3E0 MLOAD ADD MSTORE PUSH2 0x3A0 MLOAD PUSH2 0x240 PUSH2 0x3E0 MLOAD ADD MSTORE PUSH2 0x3C0 MLOAD PUSH2 0x260 PUSH2 0x3E0 MLOAD ADD MSTORE PUSH2 0x400 MLOAD PUSH2 0x280 PUSH2 0x3E0 MLOAD ADD MSTORE PUSH2 0x5A0 MLOAD PUSH2 0x2A0 PUSH2 0x3E0 MLOAD ADD MSTORE PUSH2 0x580 MLOAD PUSH2 0x2C0 PUSH2 0x3E0 MLOAD ADD MSTORE PUSH2 0x560 MLOAD PUSH2 0x2E0 PUSH2 0x3E0 MLOAD ADD MSTORE PUSH2 0x540 MLOAD PUSH2 0x300 PUSH2 0x3E0 MLOAD ADD MSTORE PUSH2 0x520 MLOAD PUSH2 0x320 PUSH2 0x3E0 MLOAD ADD MSTORE PUSH2 0x500 MLOAD PUSH2 0x340 PUSH2 0x3E0 MLOAD ADD MSTORE PUSH2 0x4E0 MLOAD PUSH2 0x360 PUSH2 0x3E0 MLOAD ADD MSTORE PUSH2 0x4A0 MLOAD PUSH2 0x380 PUSH2 0x3E0 MLOAD ADD MSTORE PUSH2 0x420 MLOAD ISZERO ISZERO PUSH2 0x3A0 PUSH2 0x3E0 MLOAD ADD MSTORE PUSH2 0x3E0 MLOAD SWAP1 SUB PUSH2 0x3E0 MLOAD RETURN JUMPDEST CALLVALUE PUSH2 0xA78 JUMPI PUSH0 CALLDATASIZE PUSH1 0x3 NOT ADD SLT PUSH2 0xA78 JUMPI PUSH1 0x6 SLOAD PUSH1 0x40 MLOAD PUSH1 0x1 PUSH1 0x1 PUSH1 0xA0 SHL SUB SWAP1 SWAP2 AND DUP2 MSTORE PUSH1 0x20 SWAP1 RETURN JUMPDEST CALLVALUE PUSH2 0xA78 JUMPI PUSH1 0x20 CALLDATASIZE PUSH1 0x3 NOT ADD SLT PUSH2 0xA78 JUMPI PUSH2 0x2539 PUSH2 0x3FB7 JUMP JUMPDEST PUSH2 0x2541 PUSH2 0x4808 JUMP JUMPDEST PUSH1 0x1 PUSH1 0x1 PUSH1 0xA0 SHL SUB AND DUP1 ISZERO PUSH2 0x168D JUMPI PUSH1 0xD DUP1 SLOAD PUSH1 0x1 PUSH1 0x1 PUSH1 0xA0 SHL SUB NOT AND DUP3 OR SWAP1 SSTORE PUSH32 0xD4374E79023DD7F05612419EE9383A499AF288EFFAD9E94062D86D04ECABAFBF PUSH0 DUP1 LOG2 STOP JUMPDEST CALLVALUE PUSH2 0xA78 JUMPI PUSH0 CALLDATASIZE PUSH1 0x3 NOT ADD SLT PUSH2 0xA78 JUMPI PUSH1 0x20 PUSH1 0x8 SLOAD PUSH1 0x40 MLOAD SWAP1 DUP2 MSTORE RETURN JUMPDEST CALLVALUE PUSH2 0xA78 JUMPI PUSH0 CALLDATASIZE PUSH1 0x3 NOT ADD SLT PUSH2 0xA78 JUMPI PUSH2 0x25BD PUSH2 0x4808 JUMP JUMPDEST PUSH1 0x6 DUP1 SLOAD PUSH1 0x1 PUSH1 0x1 PUSH1 0xA0 SHL SUB NOT DUP2 AND SWAP1 SWAP2 SSTORE PUSH0 SWAP1 PUSH1 0x1 PUSH1 0x1 PUSH1 0xA0 SHL SUB AND PUSH32 0x8BE0079C531659141344CD1FD0A4F28419497F9722A3DAAFE3B4186F6B6457E0 DUP3 DUP1 LOG3 STOP JUMPDEST CALLVALUE PUSH2 0xA78 JUMPI PUSH1 0x20 CALLDATASIZE PUSH1 0x3 NOT ADD SLT PUSH2 0xA78 JUMPI PUSH1 0x1 PUSH1 0x1 PUSH1 0xA0 SHL SUB PUSH2 0x2621 PUSH2 0x3FB7 JUMP JUMPDEST AND DUP1 ISZERO PUSH2 0x263E JUMPI PUSH0 MSTORE PUSH1 0x3 PUSH1 0x20 MSTORE PUSH1 0x20 PUSH1 0x40 PUSH0 KECCAK256 SLOAD PUSH1 0x40 MLOAD SWAP1 DUP2 MSTORE RETURN JUMPDEST PUSH1 0x40 MLOAD PUSH4 0x22718AD9 PUSH1 0xE2 SHL DUP2 MSTORE PUSH0 PUSH1 0x4 DUP3 ADD MSTORE PUSH1 0x24 SWAP1 REVERT JUMPDEST CALLVALUE PUSH2 0xA78 JUMPI PUSH1 0x20 CALLDATASIZE PUSH1 0x3 NOT ADD SLT PUSH2 0xA78 JUMPI PUSH0 PUSH2 0x3A0 PUSH1 0x40 MLOAD PUSH2 0x2677 DUP2 PUSH2 0x40C9 JUMP JUMPDEST DUP3 DUP2 MSTORE PUSH1 0x60 PUSH1 0x20 DUP3 ADD MSTORE DUP3 PUSH1 0x40 DUP3 ADD MSTORE DUP3 PUSH1 0x60 DUP3 ADD MSTORE DUP3 PUSH1 0x80 DUP3 ADD MSTORE DUP3 PUSH1 0xA0 DUP3 ADD MSTORE DUP3 PUSH1 0xC0 DUP3 ADD MSTORE DUP3 PUSH1 0xE0 DUP3 ADD MSTORE DUP3 PUSH2 0x100 DUP3 ADD MSTORE DUP3 PUSH2 0x120 DUP3 ADD MSTORE DUP3 PUSH2 0x140 DUP3 ADD MSTORE DUP3 PUSH2 0x160 DUP3 ADD MSTORE DUP3 PUSH2 0x180 DUP3 ADD MSTORE DUP3 PUSH2 0x1A0 DUP3 ADD MSTORE DUP3 PUSH2 0x1C0 DUP3 ADD MSTORE DUP3 PUSH2 0x1E0 DUP3 ADD MSTORE DUP3 PUSH2 0x200 DUP3 ADD MSTORE DUP3 PUSH2 0x220 DUP3 ADD MSTORE DUP3 PUSH2 0x240 DUP3 ADD MSTORE DUP3 PUSH2 0x260 DUP3 ADD MSTORE DUP3 PUSH2 0x280 DUP3 ADD MSTORE DUP3 PUSH2 0x2A0 DUP3 ADD MSTORE DUP3 PUSH2 0x2C0 DUP3 ADD MSTORE DUP3 PUSH2 0x2E0 DUP3 ADD MSTORE DUP3 PUSH2 0x300 DUP3 ADD MSTORE DUP3 PUSH2 0x320 DUP3 ADD MSTORE DUP3 PUSH2 0x340 DUP3 ADD MSTORE DUP3 PUSH2 0x360 DUP3 ADD MSTORE DUP3 PUSH2 0x380 DUP3 ADD MSTORE ADD MSTORE PUSH0 PUSH2 0x200 PUSH1 0x40 MLOAD PUSH2 0x274A DUP2 PUSH2 0x40E5 JUMP JUMPDEST DUP3 DUP2 MSTORE DUP3 PUSH1 0x20 DUP3 ADD MSTORE DUP3 PUSH1 0x40 DUP3 ADD MSTORE DUP3 PUSH1 0x60 DUP3 ADD MSTORE DUP3 PUSH1 0x80 DUP3 ADD MSTORE DUP3 PUSH1 0xA0 DUP3 ADD MSTORE DUP3 PUSH1 0xC0 DUP3 ADD MSTORE DUP3 PUSH1 0xE0 DUP3 ADD MSTORE DUP3 PUSH2 0x100 DUP3 ADD MSTORE DUP3 PUSH2 0x120 DUP3 ADD MSTORE DUP3 PUSH2 0x140 DUP3 ADD MSTORE DUP3 PUSH2 0x160 DUP3 ADD MSTORE DUP3 PUSH2 0x180 DUP3 ADD MSTORE DUP3 PUSH2 0x1A0 DUP3 ADD MSTORE DUP3 PUSH2 0x1C0 DUP3 ADD MSTORE DUP3 PUSH2 0x1E0 DUP3 ADD MSTORE ADD MSTORE PUSH2 0x27B9 PUSH2 0x45F1 JUMP JUMPDEST POP PUSH2 0x27C5 PUSH1 0x4 CALLDATALOAD PUSH2 0x4794 JUMP JUMPDEST PUSH1 0x4 CALLDATALOAD PUSH0 MSTORE PUSH1 0xA PUSH1 0x20 MSTORE PUSH2 0x200 PUSH1 0x40 PUSH0 KECCAK256 PUSH1 0xFF PUSH1 0xF PUSH1 0x40 MLOAD SWAP3 PUSH2 0x27E7 DUP5 PUSH2 0x40E5 JUMP JUMPDEST DUP1 SLOAD DUP5 MSTORE PUSH1 0x1 DUP2 ADD SLOAD PUSH1 0x20 DUP6 ADD MSTORE PUSH1 0x2 DUP2 ADD SLOAD PUSH1 0x40 DUP6 ADD MSTORE PUSH1 0x3 DUP2 ADD SLOAD PUSH1 0x60 DUP6 ADD MSTORE PUSH1 0x4 DUP2 ADD SLOAD PUSH1 0x80 DUP6 ADD MSTORE PUSH1 0x5 DUP2 ADD SLOAD PUSH1 0xA0 DUP6 ADD MSTORE PUSH1 0x6 DUP2 ADD SLOAD PUSH1 0xC0 DUP6 ADD MSTORE PUSH1 0x7 DUP2 ADD SLOAD PUSH1 0xE0 DUP6 ADD MSTORE PUSH1 0x8 DUP2 ADD SLOAD PUSH2 0x100 DUP6 ADD MSTORE PUSH1 0x9 DUP2 ADD SLOAD PUSH2 0x120 DUP6 ADD MSTORE PUSH1 0xA DUP2 ADD SLOAD PUSH2 0x140 DUP6 ADD MSTORE PUSH1 0xB DUP2 ADD SLOAD PUSH2 0x160 DUP6 ADD MSTORE PUSH2 0x2871 DUP4 PUSH1 0xC DUP4 ADD SLOAD AND PUSH2 0x180 DUP7 ADD PUSH2 0x4395 JUMP JUMPDEST PUSH1 0xD DUP2 ADD SLOAD PUSH2 0x1A0 DUP6 ADD MSTORE PUSH1 0xE DUP2 ADD SLOAD PUSH2 0x1C0 DUP6 ADD MSTORE ADD SLOAD DUP2 DUP2 AND ISZERO ISZERO PUSH2 0x1E0 DUP5 ADD MSTORE PUSH1 0x8 SHR AND ISZERO ISZERO DUP3 DUP3 ADD MSTORE PUSH1 0x20 DUP2 ADD MLOAD PUSH0 MSTORE PUSH1 0x9 PUSH1 0x20 MSTORE PUSH1 0x40 PUSH0 KECCAK256 PUSH1 0xFF PUSH1 0x1C PUSH1 0x40 MLOAD SWAP3 PUSH2 0x28BF DUP5 PUSH2 0x40C9 JUMP JUMPDEST DUP1 SLOAD DUP5 MSTORE PUSH2 0x28CF PUSH1 0x1 DUP3 ADD PUSH2 0x4191 JUMP JUMPDEST PUSH1 0x20 DUP6 ADD MSTORE PUSH2 0x28F9 DUP4 PUSH1 0x2 DUP4 ADD SLOAD PUSH2 0x28EC DUP3 DUP3 AND PUSH1 0x40 DUP10 ADD PUSH2 0x437D JUMP JUMPDEST PUSH1 0x8 SHR AND PUSH1 0x60 DUP7 ADD PUSH2 0x4389 JUMP JUMPDEST PUSH1 0x3 DUP2 ADD SLOAD PUSH1 0x80 DUP6 ADD MSTORE PUSH1 0x4 DUP2 ADD SLOAD PUSH1 0xA0 DUP6 ADD MSTORE PUSH1 0x5 DUP2 ADD SLOAD PUSH1 0xC0 DUP6 ADD MSTORE PUSH1 0x6 DUP2 ADD SLOAD PUSH1 0xE0 DUP6 ADD MSTORE PUSH1 0x7 DUP2 ADD SLOAD PUSH2 0x100 DUP6 ADD MSTORE PUSH1 0x8 DUP2 ADD SLOAD PUSH2 0x120 DUP6 ADD MSTORE PUSH1 0x9 DUP2 ADD SLOAD PUSH2 0x140 DUP6 ADD MSTORE PUSH1 0xA DUP2 ADD SLOAD PUSH2 0x160 DUP6 ADD MSTORE PUSH1 0xB DUP2 ADD SLOAD PUSH2 0x180 DUP6 ADD MSTORE PUSH1 0xC DUP2 ADD SLOAD PUSH2 0x1A0 DUP6 ADD MSTORE PUSH1 0xD DUP2 ADD SLOAD PUSH2 0x1C0 DUP6 ADD MSTORE PUSH1 0xE DUP2 ADD SLOAD PUSH2 0x1E0 DUP6 ADD MSTORE PUSH1 0xF DUP2 ADD SLOAD DUP7 DUP6 ADD MSTORE PUSH1 0x10 DUP2 ADD SLOAD PUSH2 0x220 DUP6 ADD MSTORE PUSH1 0x11 DUP2 ADD SLOAD PUSH2 0x240 DUP6 ADD MSTORE PUSH1 0x12 DUP2 ADD SLOAD PUSH2 0x260 DUP6 ADD MSTORE PUSH1 0x13 DUP2 ADD SLOAD PUSH2 0x280 DUP6 ADD MSTORE PUSH1 0x14 DUP2 ADD SLOAD PUSH2 0x2A0 DUP6 ADD MSTORE PUSH1 0x15 DUP2 ADD SLOAD PUSH2 0x2C0 DUP6 ADD MSTORE PUSH1 0x16 DUP2 ADD SLOAD PUSH2 0x2E0 DUP6 ADD MSTORE PUSH1 0x17 DUP2 ADD SLOAD PUSH2 0x300 DUP6 ADD MSTORE PUSH1 0x18 DUP2 ADD SLOAD PUSH2 0x320 DUP6 ADD MSTORE PUSH1 0x19 DUP2 ADD SLOAD PUSH2 0x340 DUP6 ADD MSTORE PUSH1 0x1A DUP2 ADD SLOAD PUSH2 0x360 DUP6 ADD MSTORE PUSH1 0x1B DUP2 ADD SLOAD PUSH2 0x380 DUP6 ADD MSTORE ADD SLOAD AND ISZERO ISZERO PUSH2 0x3A0 DUP3 ADD MSTORE PUSH1 0x4 CALLDATALOAD PUSH0 MSTORE PUSH1 0xB PUSH1 0x20 MSTORE PUSH2 0x240 PUSH1 0x40 PUSH0 KECCAK256 PUSH1 0x12 PUSH1 0x40 MLOAD SWAP2 PUSH2 0x2A31 DUP4 PUSH2 0x4101 JUMP JUMPDEST DUP1 SLOAD DUP4 MSTORE PUSH1 0x1 DUP2 ADD SLOAD PUSH1 0x20 DUP5 ADD MSTORE PUSH1 0x2 DUP2 ADD SLOAD PUSH1 0x40 DUP5 ADD MSTORE PUSH1 0x3 DUP2 ADD SLOAD PUSH1 0x60 DUP5 ADD MSTORE PUSH1 0x4 DUP2 ADD SLOAD PUSH1 0x80 DUP5 ADD MSTORE PUSH1 0x5 DUP2 ADD SLOAD PUSH1 0xA0 DUP5 ADD MSTORE PUSH1 0x6 DUP2 ADD SLOAD PUSH1 0xC0 DUP5 ADD MSTORE PUSH1 0x7 DUP2 ADD SLOAD PUSH1 0xE0 DUP5 ADD MSTORE PUSH1 0x8 DUP2 ADD SLOAD PUSH2 0x100 DUP5 ADD MSTORE PUSH1 0x9 DUP2 ADD SLOAD PUSH2 0x120 DUP5 ADD MSTORE PUSH1 0xA DUP2 ADD SLOAD PUSH2 0x140 DUP5 ADD MSTORE PUSH1 0xB DUP2 ADD SLOAD PUSH2 0x160 DUP5 ADD MSTORE PUSH1 0xC DUP2 ADD SLOAD PUSH2 0x180 DUP5 ADD MSTORE PUSH1 0xD DUP2 ADD SLOAD PUSH2 0x1A0 DUP5 ADD MSTORE PUSH1 0xE DUP2 ADD SLOAD PUSH2 0x1C0 DUP5 ADD MSTORE PUSH1 0xF DUP2 ADD SLOAD PUSH2 0x1E0 DUP5 ADD MSTORE PUSH1 0x10 DUP2 ADD SLOAD DUP8 DUP5 ADD MSTORE PUSH1 0x11 DUP2 ADD SLOAD PUSH2 0x220 DUP5 ADD MSTORE ADD SLOAD DUP3 DUP3 ADD MSTORE PUSH1 0x40 MLOAD SWAP5 DUP6 SWAP5 PUSH2 0x4A0 DUP1 DUP8 MSTORE DUP6 MLOAD SWAP1 DUP8 ADD MSTORE PUSH2 0x3A0 PUSH2 0x2B1E PUSH1 0x20 DUP8 ADD MLOAD PUSH2 0x3C0 PUSH2 0x4C0 DUP11 ADD MSTORE PUSH2 0x860 DUP10 ADD SWAP1 PUSH2 0x3F92 JUMP JUMPDEST SWAP6 PUSH2 0x2B32 PUSH1 0x40 DUP3 ADD MLOAD PUSH2 0x4E0 DUP11 ADD SWAP1 PUSH2 0x4077 JUMP JUMPDEST PUSH2 0x2B45 PUSH1 0x60 DUP3 ADD MLOAD PUSH2 0x500 DUP11 ADD SWAP1 PUSH2 0x4084 JUMP JUMPDEST PUSH1 0x80 DUP2 ADD MLOAD PUSH2 0x520 DUP10 ADD MSTORE PUSH1 0xA0 DUP2 ADD MLOAD PUSH2 0x540 DUP10 ADD MSTORE PUSH1 0xC0 DUP2 ADD MLOAD PUSH2 0x560 DUP10 ADD MSTORE PUSH1 0xE0 DUP2 ADD MLOAD PUSH2 0x580 DUP10 ADD MSTORE PUSH2 0x100 DUP2 ADD MLOAD PUSH2 0x5A0 DUP10 ADD MSTORE PUSH2 0x120 DUP2 ADD MLOAD PUSH2 0x5C0 DUP10 ADD MSTORE PUSH2 0x140 DUP2 ADD MLOAD PUSH2 0x5E0 DUP10 ADD MSTORE PUSH2 0x160 DUP2 ADD MLOAD PUSH2 0x600 DUP10 ADD MSTORE PUSH2 0x180 DUP2 ADD MLOAD PUSH2 0x620 DUP10 ADD MSTORE PUSH2 0x1A0 DUP2 ADD MLOAD PUSH2 0x640 DUP10 ADD MSTORE PUSH2 0x1C0 DUP2 ADD MLOAD PUSH2 0x660 DUP10 ADD MSTORE PUSH2 0x1E0 DUP2 ADD MLOAD PUSH2 0x680 DUP10 ADD MSTORE DUP4 DUP2 ADD MLOAD PUSH2 0x6A0 DUP10 ADD MSTORE PUSH2 0x220 DUP2 ADD MLOAD PUSH2 0x6C0 DUP10 ADD MSTORE DUP6 DUP2 ADD MLOAD PUSH2 0x6E0 DUP10 ADD MSTORE PUSH2 0x260 DUP2 ADD MLOAD PUSH2 0x700 DUP10 ADD MSTORE PUSH2 0x280 DUP2 ADD MLOAD PUSH2 0x720 DUP10 ADD MSTORE PUSH2 0x2A0 DUP2 ADD MLOAD PUSH2 0x740 DUP10 ADD MSTORE PUSH2 0x2C0 DUP2 ADD MLOAD PUSH2 0x760 DUP10 ADD MSTORE PUSH2 0x2E0 DUP2 ADD MLOAD PUSH2 0x780 DUP10 ADD MSTORE PUSH2 0x300 DUP2 ADD MLOAD PUSH2 0x7A0 DUP10 ADD MSTORE PUSH2 0x320 DUP2 ADD MLOAD PUSH2 0x7C0 DUP10 ADD MSTORE PUSH2 0x340 DUP2 ADD MLOAD PUSH2 0x7E0 DUP10 ADD MSTORE PUSH2 0x360 DUP2 ADD MLOAD PUSH2 0x800 DUP10 ADD MSTORE PUSH2 0x380 DUP2 ADD MLOAD PUSH2 0x820 DUP10 ADD MSTORE ADD MLOAD ISZERO ISZERO PUSH2 0x840 DUP8 ADD MSTORE DUP1 MLOAD PUSH1 0x20 DUP8 ADD MSTORE PUSH1 0x20 DUP2 ADD MLOAD PUSH1 0x40 DUP8 ADD MSTORE PUSH1 0x40 DUP2 ADD MLOAD PUSH1 0x60 DUP8 ADD MSTORE PUSH1 0x60 DUP2 ADD MLOAD PUSH1 0x80 DUP8 ADD MSTORE PUSH1 0x80 DUP2 ADD MLOAD PUSH1 0xA0 DUP8 ADD MSTORE PUSH1 0xA0 DUP2 ADD MLOAD PUSH1 0xC0 DUP8 ADD MSTORE PUSH1 0xC0 DUP2 ADD MLOAD PUSH1 0xE0 DUP8 ADD MSTORE PUSH1 0xE0 DUP2 ADD MLOAD PUSH2 0x100 DUP8 ADD MSTORE PUSH2 0x100 DUP2 ADD MLOAD PUSH2 0x120 DUP8 ADD MSTORE PUSH2 0x120 DUP2 ADD MLOAD PUSH2 0x140 DUP8 ADD MSTORE PUSH2 0x140 DUP2 ADD MLOAD PUSH2 0x160 DUP8 ADD MSTORE PUSH2 0x160 DUP2 ADD MLOAD PUSH2 0x180 DUP8 ADD MSTORE PUSH2 0x2D05 PUSH2 0x180 DUP3 ADD MLOAD PUSH2 0x1A0 DUP9 ADD SWAP1 PUSH2 0x3FE3 JUMP JUMPDEST PUSH2 0x1A0 DUP2 ADD MLOAD PUSH2 0x1C0 DUP8 ADD MSTORE PUSH2 0x1C0 DUP2 ADD MLOAD PUSH2 0x1E0 DUP8 ADD MSTORE PUSH2 0x1E0 DUP2 ADD MLOAD ISZERO ISZERO DUP3 DUP8 ADD MSTORE ADD MLOAD ISZERO ISZERO PUSH2 0x220 DUP6 ADD MSTORE DUP1 MLOAD DUP3 DUP6 ADD MSTORE PUSH1 0x20 DUP2 ADD MLOAD PUSH2 0x260 DUP6 ADD MSTORE PUSH1 0x40 DUP2 ADD MLOAD PUSH2 0x280 DUP6 ADD MSTORE PUSH1 0x60 DUP2 ADD MLOAD PUSH2 0x2A0 DUP6 ADD MSTORE PUSH1 0x80 DUP2 ADD MLOAD PUSH2 0x2C0 DUP6 ADD MSTORE PUSH1 0xA0 DUP2 ADD MLOAD PUSH2 0x2E0 DUP6 ADD MSTORE PUSH1 0xC0 DUP2 ADD MLOAD PUSH2 0x300 DUP6 ADD MSTORE PUSH1 0xE0 DUP2 ADD MLOAD PUSH2 0x320 DUP6 ADD MSTORE PUSH2 0x100 DUP2 ADD MLOAD PUSH2 0x340 DUP6 ADD MSTORE PUSH2 0x120 DUP2 ADD MLOAD PUSH2 0x360 DUP6 ADD MSTORE PUSH2 0x140 DUP2 ADD MLOAD PUSH2 0x380 DUP6 ADD MSTORE PUSH2 0x160 DUP2 ADD MLOAD PUSH2 0x3A0 DUP6 ADD MSTORE PUSH2 0x180 DUP2 ADD MLOAD PUSH2 0x3C0 DUP6 ADD MSTORE PUSH2 0x1A0 DUP2 ADD MLOAD PUSH2 0x3E0 DUP6 ADD MSTORE PUSH2 0x1C0 DUP2 ADD MLOAD PUSH2 0x400 DUP6 ADD MSTORE PUSH2 0x1E0 DUP2 ADD MLOAD PUSH2 0x420 DUP6 ADD MSTORE PUSH2 0x200 DUP2 ADD MLOAD PUSH2 0x440 DUP6 ADD MSTORE PUSH2 0x220 DUP2 ADD MLOAD PUSH2 0x460 DUP6 ADD MSTORE ADD MLOAD PUSH2 0x480 DUP4 ADD MSTORE SUB SWAP1 RETURN JUMPDEST CALLVALUE PUSH2 0xA78 JUMPI PUSH1 0x20 CALLDATASIZE PUSH1 0x3 NOT ADD SLT PUSH2 0xA78 JUMPI PUSH1 0x20 PUSH2 0x2E28 PUSH1 0x4 CALLDATALOAD PUSH2 0x475A JUMP JUMPDEST PUSH1 0x40 MLOAD PUSH1 0x1 PUSH1 0x1 PUSH1 0xA0 SHL SUB SWAP1 SWAP2 AND DUP2 MSTORE RETURN JUMPDEST CALLVALUE PUSH2 0xA78 JUMPI PUSH1 0x20 DUP1 PUSH1 0x3 NOT CALLDATASIZE ADD SLT PUSH2 0xA78 JUMPI PUSH1 0x1 PUSH1 0x1 PUSH1 0x40 SHL SUB SWAP1 PUSH1 0x4 CALLDATALOAD DUP3 DUP2 GT PUSH2 0xA78 JUMPI PUSH2 0x2E6D SWAP1 CALLDATASIZE SWAP1 PUSH1 0x4 ADD PUSH2 0x404A JUMP JUMPDEST SWAP2 SWAP1 SWAP3 PUSH2 0x2E78 PUSH2 0x4808 JUMP JUMPDEST DUP3 GT PUSH2 0x1F75 JUMPI PUSH2 0x2E89 PUSH1 0x7 SLOAD PUSH2 0x4091 JUMP JUMPDEST PUSH1 0x1F DUP2 GT PUSH2 0x2F9B JUMPI JUMPDEST POP PUSH0 PUSH1 0x1F DUP4 GT PUSH1 0x1 EQ PUSH2 0x2F09 JUMPI PUSH32 0xF9C7803E94E0D3C02900D8A90893A6D5E90DD04D32A4CFE825520F82BF9F32F6 SWAP4 PUSH2 0x2EE4 DUP5 DUP1 PUSH2 0x2EF9 SWAP5 PUSH0 SWAP2 PUSH2 0x2EFE JUMPI JUMPDEST POP DUP2 PUSH1 0x1 SHL SWAP2 PUSH0 NOT SWAP1 PUSH1 0x3 SHL SHR NOT AND OR SWAP1 JUMP JUMPDEST PUSH1 0x7 SSTORE JUMPDEST PUSH1 0x40 MLOAD SWAP4 DUP4 DUP6 SWAP5 DUP6 MSTORE DUP5 ADD SWAP2 PUSH2 0x45D1 JUMP JUMPDEST SUB SWAP1 LOG1 STOP JUMPDEST SWAP1 POP DUP4 ADD CALLDATALOAD DUP9 PUSH2 0x2ED1 JUMP JUMPDEST PUSH1 0x1F NOT DUP4 AND SWAP1 PUSH1 0x7 PUSH0 MSTORE PUSH0 DUP1 MLOAD PUSH1 0x20 PUSH2 0x497F DUP4 CODECOPY DUP2 MLOAD SWAP2 MSTORE SWAP2 PUSH0 JUMPDEST DUP2 DUP2 LT PUSH2 0x2F84 JUMPI POP SWAP2 PUSH32 0xF9C7803E94E0D3C02900D8A90893A6D5E90DD04D32A4CFE825520F82BF9F32F6 SWAP6 SWAP2 DUP6 PUSH2 0x2EF9 SWAP5 LT PUSH2 0x2F6B JUMPI JUMPDEST POP POP PUSH1 0x1 DUP5 DUP2 SHL ADD PUSH1 0x7 SSTORE PUSH2 0x2EE8 JUMP JUMPDEST DUP3 ADD CALLDATALOAD PUSH0 NOT PUSH1 0x3 DUP8 SWAP1 SHL PUSH1 0xF8 AND SHR NOT AND SWAP1 SSTORE DUP6 DUP1 PUSH2 0x2F5B JUMP JUMPDEST SWAP2 SWAP3 DUP5 PUSH1 0x1 DUP2 SWAP3 DUP7 DUP11 ADD CALLDATALOAD DUP2 SSTORE ADD SWAP5 ADD SWAP3 ADD PUSH2 0x2F24 JUMP JUMPDEST PUSH1 0x7 PUSH0 MSTORE PUSH0 DUP1 MLOAD PUSH1 0x20 PUSH2 0x497F DUP4 CODECOPY DUP2 MLOAD SWAP2 MSTORE PUSH1 0x1F DUP5 ADD PUSH1 0x5 SHR DUP2 ADD SWAP2 DUP4 DUP6 LT PUSH2 0x2FE0 JUMPI JUMPDEST PUSH1 0x1F ADD PUSH1 0x5 SHR ADD SWAP1 JUMPDEST DUP2 DUP2 LT PUSH2 0x2FD5 JUMPI POP PUSH2 0x2E92 JUMP JUMPDEST PUSH0 DUP2 SSTORE PUSH1 0x1 ADD PUSH2 0x2FC8 JUMP JUMPDEST SWAP1 SWAP2 POP DUP2 SWAP1 PUSH2 0x2FBF JUMP JUMPDEST CALLVALUE PUSH2 0xA78 JUMPI PUSH1 0xE0 CALLDATASIZE PUSH1 0x3 NOT ADD SLT PUSH2 0xA78 JUMPI PUSH1 0x20 PUSH2 0x3025 PUSH2 0x3008 PUSH2 0x3FB7 JUMP JUMPDEST PUSH1 0xC4 CALLDATALOAD SWAP1 PUSH1 0xA4 CALLDATALOAD SWAP1 PUSH1 0x84 CALLDATALOAD SWAP1 PUSH1 0x64 CALLDATALOAD SWAP1 PUSH1 0x44 CALLDATALOAD SWAP1 PUSH1 0x24 CALLDATALOAD SWAP1 PUSH2 0x4580 JUMP JUMPDEST PUSH1 0x40 MLOAD SWAP1 DUP2 MSTORE RETURN JUMPDEST CALLVALUE PUSH2 0xA78 JUMPI PUSH2 0x280 CALLDATASIZE PUSH1 0x3 NOT ADD SLT PUSH2 0xA78 JUMPI PUSH1 0x4 CALLDATALOAD PUSH2 0x260 CALLDATASIZE PUSH1 0x23 NOT ADD SLT PUSH2 0xA78 JUMPI PUSH1 0x6 SLOAD PUSH1 0x1 PUSH1 0x1 PUSH1 0xA0 SHL SUB AND CALLER EQ DUP1 ISZERO PUSH2 0x314E JUMPI JUMPDEST ISZERO PUSH2 0x20E6 JUMPI PUSH2 0x3072 DUP2 PUSH2 0x4794 JUMP JUMPDEST DUP1 PUSH0 MSTORE PUSH1 0xB PUSH1 0x20 MSTORE PUSH1 0x40 PUSH0 KECCAK256 PUSH1 0x24 CALLDATALOAD DUP2 SSTORE PUSH1 0x44 CALLDATALOAD PUSH1 0x1 DUP3 ADD SSTORE PUSH1 0x64 CALLDATALOAD PUSH1 0x2 DUP3 ADD SSTORE PUSH1 0x84 CALLDATALOAD PUSH1 0x3 DUP3 ADD SSTORE PUSH1 0xA4 CALLDATALOAD PUSH1 0x4 DUP3 ADD SSTORE PUSH1 0xC4 CALLDATALOAD PUSH1 0x5 DUP3 ADD SSTORE PUSH1 0xE4 CALLDATALOAD PUSH1 0x6 DUP3 ADD SSTORE PUSH2 0x104 CALLDATALOAD PUSH1 0x7 DUP3 ADD SSTORE PUSH2 0x124 CALLDATALOAD PUSH1 0x8 DUP3 ADD SSTORE PUSH2 0x144 CALLDATALOAD PUSH1 0x9 DUP3 ADD SSTORE PUSH2 0x164 CALLDATALOAD PUSH1 0xA DUP3 ADD SSTORE PUSH2 0x184 CALLDATALOAD PUSH1 0xB DUP3 ADD SSTORE PUSH2 0x1A4 CALLDATALOAD PUSH1 0xC DUP3 ADD SSTORE PUSH2 0x1C4 CALLDATALOAD PUSH1 0xD DUP3 ADD SSTORE PUSH2 0x1E4 CALLDATALOAD PUSH1 0xE DUP3 ADD SSTORE PUSH2 0x204 CALLDATALOAD PUSH1 0xF DUP3 ADD SSTORE PUSH2 0x224 CALLDATALOAD PUSH1 0x10 DUP3 ADD SSTORE PUSH2 0x244 CALLDATALOAD PUSH1 0x11 DUP3 ADD SSTORE PUSH1 0x12 PUSH2 0x264 CALLDATALOAD SWAP2 ADD SSTORE PUSH2 0x3128 DUP2 PUSH2 0x47B2 JUMP JUMPDEST PUSH32 0x5AC94E62F71242482AF44ED7A72EC181709D493D90538495C19D8026B2726D53 PUSH0 DUP1 LOG2 STOP JUMPDEST POP CALLER PUSH0 MSTORE PUSH1 0xC PUSH1 0x20 MSTORE PUSH1 0xFF PUSH1 0x40 PUSH0 KECCAK256 SLOAD AND PUSH2 0x3064 JUMP JUMPDEST CALLVALUE PUSH2 0xA78 JUMPI PUSH2 0x1FF4 PUSH2 0x3175 CALLDATASIZE PUSH2 0x4015 JUMP JUMPDEST SWAP1 PUSH1 0x40 MLOAD SWAP3 PUSH2 0x3183 DUP5 PUSH2 0x4139 JUMP JUMPDEST PUSH0 DUP5 MSTORE PUSH2 0x1FEE DUP4 DUP4 DUP4 PUSH2 0x43A1 JUMP JUMPDEST CALLVALUE PUSH2 0xA78 JUMPI PUSH2 0x100 CALLDATASIZE PUSH1 0x3 NOT ADD SLT PUSH2 0xA78 JUMPI PUSH1 0x20 PUSH2 0x3025 PUSH1 0xE4 CALLDATALOAD PUSH1 0xC4 CALLDATALOAD PUSH1 0xA4 CALLDATALOAD PUSH1 0x84 CALLDATALOAD PUSH1 0x64 CALLDATALOAD PUSH1 0x44 CALLDATALOAD PUSH1 0x24 CALLDATALOAD PUSH1 0x4 CALLDATALOAD PUSH2 0x4537 JUMP JUMPDEST CALLVALUE PUSH2 0xA78 JUMPI PUSH1 0x20 CALLDATASIZE PUSH1 0x3 NOT ADD SLT PUSH2 0xA78 JUMPI PUSH1 0x4 CALLDATALOAD PUSH0 MSTORE PUSH1 0xB PUSH1 0x20 MSTORE PUSH1 0x12 PUSH1 0xF PUSH1 0xE PUSH1 0xD PUSH1 0xC PUSH1 0xB PUSH1 0xA PUSH1 0x9 PUSH1 0x8 PUSH1 0x7 PUSH1 0x6 PUSH1 0x5 PUSH1 0x4 PUSH1 0x3 PUSH1 0x40 PUSH0 KECCAK256 SWAP14 DUP15 SWAP14 DUP15 SWAP14 DUP15 SWAP14 DUP15 SWAP14 DUP15 SWAP14 DUP15 SWAP14 DUP15 SWAP14 DUP15 SWAP14 DUP15 SWAP14 DUP15 SWAP14 DUP15 SWAP14 DUP15 SWAP14 DUP15 SWAP14 DUP15 SLOAD SWAP15 PUSH1 0x1 DUP2 ADD SLOAD PUSH2 0x660 MSTORE PUSH1 0x2 DUP2 ADD SLOAD PUSH2 0x680 MSTORE ADD SLOAD SWAP15 ADD SLOAD SWAP15 ADD SLOAD SWAP15 ADD SLOAD SWAP15 ADD SLOAD SWAP15 ADD SLOAD SWAP15 ADD SLOAD SWAP15 ADD SLOAD SWAP15 ADD SLOAD SWAP15 ADD SLOAD SWAP15 ADD SLOAD SWAP15 ADD SLOAD SWAP15 ADD SLOAD SWAP15 PUSH1 0x10 DUP2 ADD SLOAD PUSH2 0x5E0 MSTORE PUSH1 0x11 DUP2 ADD SLOAD PUSH2 0x620 MSTORE ADD SLOAD PUSH2 0x640 MSTORE PUSH1 0x40 MLOAD PUSH2 0x600 MSTORE PUSH2 0x600 MLOAD MSTORE PUSH2 0x660 MLOAD PUSH1 0x20 PUSH2 0x600 MLOAD ADD MSTORE PUSH2 0x680 MLOAD PUSH1 0x40 PUSH2 0x600 MLOAD ADD MSTORE PUSH1 0x60 PUSH2 0x600 MLOAD ADD MSTORE PUSH1 0x80 PUSH2 0x600 MLOAD ADD MSTORE PUSH1 0xA0 PUSH2 0x600 MLOAD ADD MSTORE PUSH1 0xC0 PUSH2 0x600 MLOAD ADD MSTORE PUSH1 0xE0 PUSH2 0x600 MLOAD ADD MSTORE PUSH2 0x100 PUSH2 0x600 MLOAD ADD MSTORE PUSH2 0x120 PUSH2 0x600 MLOAD ADD MSTORE PUSH2 0x140 PUSH2 0x600 MLOAD ADD MSTORE PUSH2 0x160 PUSH2 0x600 MLOAD ADD MSTORE PUSH2 0x180 PUSH2 0x600 MLOAD ADD MSTORE PUSH2 0x1A0 PUSH2 0x600 MLOAD ADD MSTORE PUSH2 0x1C0 PUSH2 0x600 MLOAD ADD MSTORE PUSH2 0x1E0 PUSH2 0x600 MLOAD ADD MSTORE PUSH2 0x5E0 MLOAD PUSH2 0x200 PUSH2 0x600 MLOAD ADD MSTORE PUSH2 0x620 MLOAD PUSH2 0x220 PUSH2 0x600 MLOAD ADD MSTORE PUSH2 0x640 MLOAD PUSH2 0x240 PUSH2 0x600 MLOAD ADD MSTORE PUSH2 0x260 PUSH2 0x600 MLOAD RETURN JUMPDEST CALLVALUE PUSH2 0xA78 JUMPI PUSH2 0x1FF4 PUSH2 0x3344 CALLDATASIZE PUSH2 0x4015 JUMP JUMPDEST SWAP2 PUSH2 0x43A1 JUMP JUMPDEST CALLVALUE PUSH2 0xA78 JUMPI PUSH2 0x180 CALLDATASIZE PUSH1 0x3 NOT ADD SLT PUSH2 0xA78 JUMPI PUSH2 0x3364 PUSH2 0x3FB7 JUMP JUMPDEST PUSH1 0x4 PUSH1 0xE4 CALLDATALOAD LT ISZERO PUSH2 0xA78 JUMPI PUSH2 0x124 CALLDATALOAD DUP1 ISZERO ISZERO DUP2 SUB PUSH2 0xA78 JUMPI PUSH2 0x144 CALLDATALOAD SWAP2 DUP3 ISZERO ISZERO DUP4 SUB PUSH2 0xA78 JUMPI PUSH1 0x6 SLOAD PUSH1 0x1 PUSH1 0x1 PUSH1 0xA0 SHL SUB AND CALLER EQ DUP1 ISZERO PUSH2 0x39F3 JUMPI JUMPDEST ISZERO PUSH2 0x20E6 JUMPI PUSH1 0x1 PUSH1 0x1 PUSH1 0xA0 SHL SUB DUP2 AND ISZERO PUSH2 0x168D JUMPI PUSH1 0x24 CALLDATALOAD PUSH0 MSTORE PUSH1 0x9 PUSH1 0x20 MSTORE PUSH1 0x40 PUSH0 KECCAK256 SWAP2 PUSH1 0xFF PUSH1 0x1C PUSH1 0x40 MLOAD SWAP5 PUSH2 0x33D3 DUP7 PUSH2 0x40C9 JUMP JUMPDEST DUP1 SLOAD DUP7 MSTORE PUSH2 0x33E3 PUSH1 0x1 DUP3 ADD PUSH2 0x4191 JUMP JUMPDEST PUSH1 0x20 DUP8 ADD MSTORE PUSH2 0x340D DUP4 PUSH1 0x2 DUP4 ADD SLOAD PUSH2 0x3400 DUP3 DUP3 AND PUSH1 0x40 DUP12 ADD PUSH2 0x437D JUMP JUMPDEST PUSH1 0x8 SHR AND PUSH1 0x60 DUP9 ADD PUSH2 0x4389 JUMP JUMPDEST PUSH1 0x3 DUP2 ADD SLOAD PUSH1 0x80 DUP8 ADD MSTORE PUSH1 0x4 DUP2 ADD SLOAD PUSH1 0xA0 DUP8 ADD MSTORE PUSH1 0x5 DUP2 ADD SLOAD PUSH1 0xC0 DUP8 ADD MSTORE PUSH1 0x6 DUP2 ADD SLOAD PUSH1 0xE0 DUP8 ADD MSTORE PUSH1 0x7 DUP2 ADD SLOAD PUSH2 0x100 DUP8 ADD MSTORE PUSH1 0x8 DUP2 ADD SLOAD PUSH2 0x120 DUP8 ADD MSTORE PUSH1 0x9 DUP2 ADD SLOAD PUSH2 0x140 DUP8 ADD MSTORE PUSH1 0xA DUP2 ADD SLOAD PUSH2 0x160 DUP8 ADD MSTORE PUSH1 0xB DUP2 ADD SLOAD PUSH2 0x180 DUP8 ADD MSTORE PUSH1 0xC DUP2 ADD SLOAD PUSH2 0x1A0 DUP8 ADD MSTORE PUSH1 0xD DUP2 ADD SLOAD PUSH2 0x1C0 DUP8 ADD MSTORE PUSH1 0xE DUP2 ADD SLOAD PUSH2 0x1E0 DUP8 ADD MSTORE PUSH1 0xF DUP2 ADD SLOAD PUSH2 0x200 DUP8 ADD MSTORE PUSH1 0x10 DUP2 ADD SLOAD PUSH2 0x220 DUP8 ADD MSTORE PUSH1 0x11 DUP2 ADD SLOAD PUSH2 0x240 DUP8 ADD MSTORE PUSH1 0x12 DUP2 ADD SLOAD PUSH2 0x260 DUP8 ADD MSTORE PUSH1 0x13 DUP2 ADD SLOAD PUSH2 0x280 DUP8 ADD MSTORE PUSH1 0x14 DUP2 ADD SLOAD PUSH2 0x2A0 DUP8 ADD MSTORE PUSH1 0x15 DUP2 ADD SLOAD PUSH2 0x2C0 DUP8 ADD MSTORE PUSH1 0x16 DUP2 ADD SLOAD PUSH2 0x2E0 DUP8 ADD MSTORE PUSH1 0x17 DUP2 ADD SLOAD PUSH2 0x300 DUP8 ADD MSTORE PUSH1 0x18 DUP2 ADD SLOAD PUSH2 0x320 DUP8 ADD MSTORE PUSH1 0x19 DUP2 ADD SLOAD PUSH2 0x340 DUP8 ADD MSTORE PUSH1 0x1A DUP2 ADD SLOAD PUSH2 0x360 DUP8 ADD MSTORE PUSH1 0x1B DUP2 ADD SLOAD PUSH2 0x380 DUP8 ADD MSTORE ADD SLOAD AND ISZERO DUP1 ISZERO PUSH2 0x3A0 DUP6 ADD MSTORE DUP4 MLOAD ISZERO SWAP1 DUP2 ISZERO PUSH2 0x39EB JUMPI JUMPDEST POP PUSH2 0xA57 JUMPI PUSH1 0x8 SLOAD SWAP3 PUSH0 NOT DUP5 EQ PUSH2 0x39D7 JUMPI PUSH1 0x1 DUP5 ADD PUSH1 0x8 SSTORE PUSH1 0x40 MLOAD PUSH2 0x3557 DUP2 PUSH2 0x4139 JUMP JUMPDEST PUSH0 DUP1 DUP3 MSTORE DUP6 DUP2 MSTORE PUSH1 0x2 PUSH1 0x20 MSTORE PUSH1 0x40 SWAP1 KECCAK256 SLOAD PUSH1 0x1 PUSH1 0x1 PUSH1 0xA0 SHL SUB AND DUP1 ISZERO ISZERO SWAP1 DUP7 SWAP1 DUP3 PUSH2 0x39A4 JUMPI JUMPDEST PUSH1 0x1 PUSH1 0x1 PUSH1 0xA0 SHL SUB DUP8 AND PUSH0 DUP2 DUP2 MSTORE PUSH1 0x3 PUSH1 0x20 SWAP1 DUP2 MSTORE PUSH1 0x40 DUP1 DUP4 KECCAK256 DUP1 SLOAD PUSH1 0x1 ADD SWAP1 SSTORE DUP6 DUP4 MSTORE PUSH1 0x2 SWAP1 SWAP2 MSTORE DUP2 KECCAK256 DUP1 SLOAD PUSH1 0x1 PUSH1 0x1 PUSH1 0xA0 SHL SUB NOT AND DUP4 OR SWAP1 SSTORE SWAP1 SWAP2 SWAP1 PUSH32 0xDDF252AD1BE2C89B69C2B068FC378DAA952BA7F163C4A11628F55A4DF523B3EF SWAP1 DUP1 LOG4 PUSH2 0x398C JUMPI DUP4 EXTCODESIZE PUSH2 0x3849 JUMPI JUMPDEST POP PUSH2 0x104 CALLDATALOAD PUSH2 0x383F JUMPI PUSH2 0x340 DUP2 ADD MLOAD SWAP5 JUMPDEST PUSH2 0x3617 PUSH2 0x164 CALLDATALOAD PUSH1 0xE4 CALLDATALOAD PUSH1 0xC4 CALLDATALOAD PUSH1 0xA4 CALLDATALOAD PUSH1 0x84 CALLDATALOAD PUSH1 0x24 CALLDATALOAD DUP11 PUSH2 0x4580 JUMP JUMPDEST SWAP3 PUSH2 0x1C0 PUSH1 0x40 MLOAD PUSH1 0x20 DUP2 ADD SWAP1 PUSH1 0x24 CALLDATALOAD DUP3 MSTORE PUSH1 0x44 CALLDATALOAD PUSH1 0x40 DUP3 ADD MSTORE PUSH1 0x64 CALLDATALOAD PUSH1 0x60 DUP3 ADD MSTORE PUSH1 0xE4 CALLDATALOAD PUSH1 0x80 DUP3 ADD MSTORE DUP10 PUSH1 0xA0 DUP3 ADD MSTORE DUP7 PUSH1 0xC0 DUP3 ADD MSTORE PUSH1 0x84 CALLDATALOAD PUSH1 0xE0 DUP3 ADD MSTORE PUSH0 PUSH2 0x100 DUP3 ADD MSTORE PUSH2 0x100 DUP2 MSTORE PUSH2 0x3669 DUP2 PUSH2 0x4154 JUMP JUMPDEST MLOAD SWAP1 KECCAK256 SWAP4 ADD MLOAD SWAP7 PUSH1 0x40 MLOAD SWAP8 PUSH2 0x367D DUP10 PUSH2 0x40E5 JUMP JUMPDEST DUP8 DUP10 MSTORE PUSH1 0x24 CALLDATALOAD PUSH1 0x20 DUP11 ADD MSTORE PUSH1 0x44 CALLDATALOAD PUSH1 0x40 DUP11 ADD MSTORE PUSH1 0x64 CALLDATALOAD PUSH1 0x60 DUP11 ADD MSTORE PUSH1 0x80 DUP10 ADD MSTORE PUSH0 PUSH1 0xA0 DUP10 ADD MSTORE PUSH1 0x1 PUSH1 0xC0 DUP10 ADD MSTORE PUSH1 0x84 CALLDATALOAD PUSH1 0xE0 DUP10 ADD MSTORE PUSH1 0xA4 CALLDATALOAD PUSH2 0x100 DUP10 ADD MSTORE PUSH1 0xC4 CALLDATALOAD PUSH2 0x120 DUP10 ADD MSTORE TIMESTAMP PUSH2 0x140 DUP10 ADD MSTORE PUSH2 0x160 DUP9 ADD MSTORE PUSH2 0x36E1 PUSH1 0xE4 CALLDATALOAD PUSH2 0x180 DUP10 ADD PUSH2 0x4395 JUMP JUMPDEST DUP4 PUSH2 0x1A0 DUP9 ADD MSTORE DUP3 PUSH2 0x1C0 DUP9 ADD MSTORE ISZERO ISZERO PUSH2 0x1E0 DUP8 ADD MSTORE ISZERO ISZERO PUSH2 0x200 DUP7 ADD MSTORE DUP4 PUSH0 MSTORE PUSH1 0xA PUSH1 0x20 MSTORE PUSH1 0x40 PUSH0 KECCAK256 SWAP5 DUP1 MLOAD DUP7 SSTORE PUSH1 0x20 DUP2 ADD MLOAD PUSH1 0x1 DUP8 ADD SSTORE PUSH1 0x40 DUP2 ADD MLOAD PUSH1 0x2 DUP8 ADD SSTORE PUSH1 0x60 DUP2 ADD MLOAD PUSH1 0x3 DUP8 ADD SSTORE PUSH1 0x80 DUP2 ADD MLOAD PUSH1 0x4 DUP8 ADD SSTORE PUSH1 0xA0 DUP2 ADD MLOAD PUSH1 0x5 DUP8 ADD SSTORE PUSH1 0xC0 DUP2 ADD MLOAD PUSH1 0x6 DUP8 ADD SSTORE PUSH1 0xE0 DUP2 ADD MLOAD PUSH1 0x7 DUP8 ADD SSTORE PUSH2 0x100 DUP2 ADD MLOAD PUSH1 0x8 DUP8 ADD SSTORE PUSH2 0x120 DUP2 ADD MLOAD PUSH1 0x9 DUP8 ADD SSTORE PUSH2 0x140 DUP2 ADD MLOAD PUSH1 0xA DUP8 ADD SSTORE PUSH2 0x160 DUP2 ADD MLOAD PUSH1 0xB DUP8 ADD SSTORE PUSH1 0xC DUP7 ADD PUSH2 0x180 DUP3 ADD MLOAD PUSH1 0x4 DUP2 LT ISZERO PUSH2 0x1EA4 JUMPI PUSH1 0x20 SWAP8 PUSH2 0x200 SWAP3 PUSH1 0xF SWAP3 PUSH1 0xFF DUP1 NOT DUP4 SLOAD AND SWAP2 AND OR SWAP1 SSTORE PUSH2 0x1A0 DUP5 ADD MLOAD PUSH1 0xD DUP3 ADD SSTORE PUSH2 0x1C0 DUP5 ADD MLOAD PUSH1 0xE DUP3 ADD SSTORE ADD SWAP2 PUSH2 0x37E0 PUSH2 0x1E0 DUP3 ADD MLOAD ISZERO ISZERO DUP5 SWAP1 PUSH1 0xFF DUP1 NOT DUP4 SLOAD AND SWAP2 ISZERO ISZERO AND OR SWAP1 SSTORE JUMP JUMPDEST ADD MLOAD DUP2 SLOAD PUSH2 0xFF00 NOT AND SWAP1 ISZERO ISZERO PUSH1 0x8 SHL PUSH2 0xFF00 AND OR SWAP1 SSTORE PUSH1 0x40 DUP1 MLOAD SWAP3 DUP4 MSTORE DUP6 DUP4 ADD SWAP2 SWAP1 SWAP2 MSTORE PUSH1 0x24 CALLDATALOAD SWAP3 PUSH1 0x1 PUSH1 0x1 PUSH1 0xA0 SHL SUB AND SWAP2 DUP5 SWAP2 PUSH32 0xB4159120F3FDAFBCF93B1AF827525210B1A3A1ADD9EF5D0539FA31CA0473A733 SWAP2 LOG4 PUSH1 0x40 MLOAD SWAP1 DUP2 MSTORE RETURN JUMPDEST PUSH2 0x104 CALLDATALOAD SWAP5 PUSH2 0x35FB JUMP JUMPDEST PUSH1 0x20 PUSH2 0x3887 SWAP2 PUSH1 0x40 SWAP8 SWAP7 SWAP6 SWAP8 MLOAD DUP1 SWAP4 DUP2 SWAP3 PUSH4 0xA85BD01 PUSH1 0xE1 SHL DUP4 MSTORE CALLER PUSH1 0x4 DUP5 ADD MSTORE PUSH0 PUSH1 0x24 DUP5 ADD MSTORE DUP9 PUSH1 0x44 DUP5 ADD MSTORE PUSH1 0x80 PUSH1 0x64 DUP5 ADD MSTORE PUSH1 0x84 DUP4 ADD SWAP1 PUSH2 0x3F92 JUMP JUMPDEST SUB DUP2 PUSH0 PUSH1 0x1 PUSH1 0x1 PUSH1 0xA0 SHL SUB DUP12 AND GAS CALL PUSH0 SWAP2 DUP2 PUSH2 0x3947 JUMPI JUMPDEST POP PUSH2 0x3905 JUMPI DUP6 RETURNDATASIZE ISZERO PUSH2 0x38FD JUMPI RETURNDATASIZE SWAP1 PUSH2 0x38B5 DUP3 PUSH2 0x4233 JUMP JUMPDEST SWAP2 PUSH2 0x38C3 PUSH1 0x40 MLOAD SWAP4 DUP5 PUSH2 0x4170 JUMP JUMPDEST DUP3 MSTORE RETURNDATASIZE PUSH0 PUSH1 0x20 DUP5 ADD RETURNDATACOPY JUMPDEST DUP2 MLOAD SWAP2 DUP3 PUSH2 0x38F6 JUMPI PUSH1 0x40 MLOAD PUSH4 0x32505749 PUSH1 0xE1 SHL DUP2 MSTORE PUSH1 0x1 PUSH1 0x1 PUSH1 0xA0 SHL SUB DUP4 AND PUSH1 0x4 DUP3 ADD MSTORE PUSH1 0x24 SWAP1 REVERT JUMPDEST PUSH1 0x20 SWAP2 POP ADD REVERT JUMPDEST PUSH1 0x60 SWAP1 PUSH2 0x38CD JUMP JUMPDEST SWAP4 SWAP5 SWAP3 SWAP4 PUSH1 0x1 PUSH1 0x1 PUSH1 0xE0 SHL SUB NOT AND PUSH4 0x757A42FF PUSH1 0xE1 SHL ADD PUSH2 0x3926 JUMPI DUP6 PUSH2 0x35EA JUMP JUMPDEST PUSH1 0x40 MLOAD PUSH4 0x32505749 PUSH1 0xE1 SHL DUP2 MSTORE PUSH1 0x1 PUSH1 0x1 PUSH1 0xA0 SHL SUB DUP5 AND PUSH1 0x4 DUP3 ADD MSTORE PUSH1 0x24 SWAP1 REVERT JUMPDEST SWAP1 SWAP2 POP PUSH1 0x20 DUP2 RETURNDATASIZE PUSH1 0x20 GT PUSH2 0x3984 JUMPI JUMPDEST DUP2 PUSH2 0x3963 PUSH1 0x20 SWAP4 DUP4 PUSH2 0x4170 JUMP JUMPDEST DUP2 ADD SUB SLT PUSH2 0xA78 JUMPI MLOAD PUSH1 0x1 PUSH1 0x1 PUSH1 0xE0 SHL SUB NOT DUP2 AND DUP2 SUB PUSH2 0xA78 JUMPI SWAP1 DUP8 PUSH2 0x389E JUMP JUMPDEST RETURNDATASIZE SWAP2 POP PUSH2 0x3956 JUMP JUMPDEST PUSH1 0x40 MLOAD PUSH4 0x39E35637 PUSH1 0xE1 SHL DUP2 MSTORE PUSH0 PUSH1 0x4 DUP3 ADD MSTORE PUSH1 0x24 SWAP1 REVERT JUMPDEST PUSH0 DUP3 DUP2 MSTORE PUSH1 0x4 PUSH1 0x20 MSTORE PUSH1 0x40 SWAP1 KECCAK256 DUP1 SLOAD PUSH1 0x1 PUSH1 0x1 PUSH1 0xA0 SHL SUB NOT AND SWAP1 SSTORE DUP1 PUSH0 MSTORE PUSH1 0x3 PUSH1 0x20 MSTORE PUSH1 0x40 PUSH0 KECCAK256 PUSH0 NOT DUP2 SLOAD ADD SWAP1 SSTORE PUSH2 0x357D JUMP JUMPDEST PUSH4 0x4E487B71 PUSH1 0xE0 SHL PUSH0 MSTORE PUSH1 0x11 PUSH1 0x4 MSTORE PUSH1 0x24 PUSH0 REVERT JUMPDEST SWAP1 POP DUP6 PUSH2 0x3533 JUMP JUMPDEST POP CALLER PUSH0 MSTORE PUSH1 0xC PUSH1 0x20 MSTORE PUSH1 0xFF PUSH1 0x40 PUSH0 KECCAK256 SLOAD AND PUSH2 0x339F JUMP JUMPDEST CALLVALUE PUSH2 0xA78 JUMPI PUSH2 0x3A17 CALLDATASIZE PUSH2 0x3FF0 JUMP JUMPDEST PUSH1 0x6 SLOAD PUSH1 0x1 PUSH1 0x1 PUSH1 0xA0 SHL SUB AND CALLER EQ DUP1 ISZERO PUSH2 0x3BFF JUMPI JUMPDEST ISZERO PUSH2 0x20E6 JUMPI PUSH2 0x3A3A DUP3 PUSH2 0x4794 JUMP JUMPDEST DUP2 PUSH0 MSTORE PUSH1 0xA PUSH1 0x20 MSTORE PUSH1 0x40 PUSH0 KECCAK256 PUSH1 0x1 DUP2 ADD SLOAD PUSH0 MSTORE PUSH1 0x9 PUSH1 0x20 MSTORE PUSH1 0x40 PUSH0 KECCAK256 PUSH1 0x40 MLOAD PUSH2 0x3A62 DUP2 PUSH2 0x40C9 JUMP JUMPDEST DUP2 SLOAD DUP2 MSTORE PUSH2 0x3A72 PUSH1 0x1 DUP4 ADD PUSH2 0x4191 JUMP JUMPDEST PUSH1 0x20 DUP3 ADD MSTORE PUSH2 0x3A9D PUSH1 0xFF PUSH1 0x2 DUP5 ADD SLOAD PUSH2 0x3A90 DUP3 DUP3 AND PUSH1 0x40 DUP7 ADD PUSH2 0x437D JUMP JUMPDEST PUSH1 0x8 SHR AND PUSH1 0x60 DUP4 ADD PUSH2 0x4389 JUMP JUMPDEST PUSH1 0x3 DUP3 ADD SLOAD PUSH1 0x80 DUP3 ADD MSTORE PUSH1 0x4 DUP3 ADD SLOAD PUSH1 0xA0 DUP3 ADD MSTORE PUSH1 0x5 DUP3 ADD SLOAD PUSH1 0xC0 DUP3 ADD MSTORE PUSH1 0x6 DUP3 ADD SLOAD PUSH1 0xE0 DUP3 ADD MSTORE PUSH1 0x7 DUP3 ADD SLOAD PUSH2 0x100 DUP3 ADD MSTORE PUSH1 0x8 DUP3 ADD SLOAD PUSH2 0x120 DUP3 ADD MSTORE PUSH1 0x9 DUP3 ADD SLOAD PUSH2 0x140 DUP3 ADD MSTORE PUSH1 0xA DUP3 ADD SLOAD PUSH2 0x160 DUP3 ADD MSTORE PUSH1 0xB DUP3 ADD SLOAD PUSH2 0x180 DUP3 ADD MSTORE PUSH1 0xC DUP3 ADD SLOAD PUSH2 0x1A0 DUP3 ADD MSTORE PUSH1 0xD DUP3 ADD SLOAD PUSH2 0x1C0 DUP3 ADD MSTORE PUSH1 0xE DUP3 ADD SLOAD PUSH2 0x1E0 DUP3 ADD MSTORE PUSH1 0xF DUP3 ADD SLOAD PUSH2 0x200 DUP3 ADD MSTORE PUSH1 0x10 DUP3 ADD SLOAD PUSH2 0x220 DUP3 ADD MSTORE PUSH1 0x11 DUP3 ADD SLOAD PUSH2 0x240 DUP3 ADD MSTORE PUSH1 0x12 DUP3 ADD SLOAD PUSH2 0x260 DUP3 ADD MSTORE PUSH1 0x13 DUP3 ADD SLOAD PUSH2 0x280 DUP3 ADD MSTORE PUSH1 0x14 DUP3 ADD SLOAD PUSH2 0x2A0 DUP3 ADD MSTORE PUSH1 0x15 DUP3 ADD SLOAD PUSH2 0x2C0 DUP3 ADD MSTORE PUSH1 0x16 DUP3 ADD SLOAD PUSH2 0x2E0 DUP3 ADD MSTORE PUSH1 0x17 DUP3 ADD SLOAD PUSH2 0x300 DUP3 ADD MSTORE PUSH1 0x18 DUP3 ADD SLOAD PUSH2 0x320 DUP3 ADD MSTORE PUSH1 0x19 DUP3 ADD SLOAD PUSH2 0x340 DUP3 ADD MSTORE PUSH2 0x3A0 PUSH1 0xFF PUSH1 0x1C PUSH1 0x1A DUP6 ADD SLOAD SWAP5 DUP6 PUSH2 0x360 DUP7 ADD MSTORE PUSH1 0x1B DUP2 ADD SLOAD PUSH2 0x380 DUP7 ADD MSTORE ADD SLOAD AND ISZERO ISZERO SWAP2 ADD MSTORE DUP3 GT PUSH2 0xA57 JUMPI DUP2 PUSH32 0x7D411743D1571DF710BF51F9844AE535A8D1C447EF770551B20CFAC0FF097E2E SWAP3 PUSH1 0x5 PUSH1 0x20 SWAP4 ADD SSTORE PUSH2 0x3BF6 DUP5 PUSH2 0x47B2 JUMP JUMPDEST PUSH1 0x40 MLOAD SWAP1 DUP2 MSTORE LOG2 STOP JUMPDEST POP CALLER PUSH0 MSTORE PUSH1 0xC PUSH1 0x20 MSTORE PUSH1 0xFF PUSH1 0x40 PUSH0 KECCAK256 SLOAD AND PUSH2 0x3A2C JUMP JUMPDEST CALLVALUE PUSH2 0xA78 JUMPI PUSH1 0x20 CALLDATASIZE PUSH1 0x3 NOT ADD SLT PUSH2 0xA78 JUMPI PUSH1 0x4 CALLDATALOAD PUSH0 MSTORE PUSH1 0xA PUSH1 0x20 MSTORE PUSH1 0x40 PUSH0 KECCAK256 DUP1 SLOAD SWAP1 DUP1 PUSH1 0x1 DUP2 ADD SLOAD PUSH1 0x2 DUP3 ADD SLOAD PUSH1 0x3 DUP4 ADD SLOAD PUSH1 0x4 DUP5 ADD SLOAD PUSH1 0x5 DUP6 ADD SLOAD PUSH1 0x6 DUP7 ADD SLOAD PUSH1 0x7 DUP8 ADD SLOAD SWAP1 PUSH1 0x8 DUP9 ADD SLOAD SWAP3 PUSH1 0x9 DUP10 ADD SLOAD SWAP5 PUSH1 0xA DUP11 ADD SLOAD SWAP7 PUSH1 0xB DUP12 ADD SLOAD SWAP9 PUSH1 0xC DUP13 ADD SLOAD PUSH1 0xFF AND SWAP11 PUSH1 0xD DUP14 ADD SLOAD SWAP13 PUSH1 0xE ADD SLOAD SWAP14 PUSH1 0xF ADD SLOAD SWAP15 PUSH1 0x40 MLOAD PUSH2 0x6A0 MSTORE PUSH2 0x6A0 MLOAD MSTORE PUSH2 0x6A0 MLOAD PUSH1 0x20 ADD MSTORE PUSH2 0x6A0 MLOAD PUSH1 0x40 ADD MSTORE PUSH2 0x6A0 MLOAD PUSH1 0x60 ADD MSTORE PUSH2 0x6A0 MLOAD PUSH1 0x80 ADD MSTORE PUSH2 0x6A0 MLOAD PUSH1 0xA0 ADD MSTORE PUSH2 0x6A0 MLOAD PUSH1 0xC0 ADD MSTORE PUSH2 0x6A0 MLOAD PUSH1 0xE0 ADD MSTORE PUSH2 0x6A0 MLOAD PUSH2 0x100 ADD MSTORE PUSH2 0x6A0 MLOAD PUSH2 0x120 ADD MSTORE PUSH2 0x6A0 MLOAD PUSH2 0x140 ADD MSTORE PUSH2 0x6A0 MLOAD PUSH2 0x160 ADD MSTORE PUSH2 0x6A0 MLOAD PUSH2 0x180 ADD PUSH2 0x3D06 SWAP2 PUSH2 0x3FE3 JUMP JUMPDEST PUSH2 0x6A0 MLOAD PUSH2 0x1A0 ADD MSTORE PUSH2 0x6A0 MLOAD PUSH2 0x1C0 ADD MSTORE PUSH1 0xFF DUP2 AND ISZERO ISZERO PUSH2 0x6A0 MLOAD PUSH2 0x1E0 ADD MSTORE PUSH1 0x8 SHR PUSH1 0xFF AND ISZERO ISZERO PUSH2 0x6A0 MLOAD PUSH2 0x200 ADD MSTORE PUSH2 0x6A0 MLOAD PUSH2 0x220 SWAP1 RETURN JUMPDEST CALLVALUE PUSH2 0xA78 JUMPI PUSH1 0x40 CALLDATASIZE PUSH1 0x3 NOT ADD SLT PUSH2 0xA78 JUMPI PUSH2 0x3D5B PUSH2 0x3FB7 JUMP JUMPDEST PUSH1 0x24 CALLDATALOAD PUSH2 0x3D67 DUP2 PUSH2 0x475A JUMP JUMPDEST CALLER ISZERO ISZERO DUP1 PUSH2 0x3E10 JUMPI JUMPDEST DUP1 PUSH2 0x3DE7 JUMPI JUMPDEST PUSH2 0x3DCF JUMPI PUSH1 0x1 PUSH1 0x1 PUSH1 0xA0 SHL SUB SWAP3 DUP4 AND SWAP3 DUP3 SWAP2 DUP5 SWAP2 AND PUSH32 0x8C5BE1E5EBEC7D5BD14F71427D1E84F3DD0314C0F7B2291E5B200AC8C7C3B925 PUSH0 DUP1 LOG4 PUSH0 SWAP1 DUP2 MSTORE PUSH1 0x4 PUSH1 0x20 MSTORE PUSH1 0x40 SWAP1 KECCAK256 DUP1 SLOAD PUSH1 0x1 PUSH1 0x1 PUSH1 0xA0 SHL SUB NOT AND SWAP1 SWAP2 OR SWAP1 SSTORE STOP JUMPDEST PUSH1 0x40 MLOAD PUSH4 0xA9FBF51F PUSH1 0xE0 SHL DUP2 MSTORE CALLER PUSH1 0x4 DUP3 ADD MSTORE PUSH1 0x24 SWAP1 REVERT JUMPDEST POP PUSH1 0x1 DUP1 PUSH1 0xA0 SHL SUB DUP2 AND PUSH0 MSTORE PUSH1 0x5 PUSH1 0x20 MSTORE PUSH1 0x40 PUSH0 KECCAK256 CALLER PUSH0 MSTORE PUSH1 0x20 MSTORE PUSH1 0xFF PUSH1 0x40 PUSH0 KECCAK256 SLOAD AND ISZERO PUSH2 0x3D76 JUMP JUMPDEST POP PUSH1 0x1 PUSH1 0x1 PUSH1 0xA0 SHL SUB DUP2 AND CALLER EQ ISZERO PUSH2 0x3D70 JUMP JUMPDEST CALLVALUE PUSH2 0xA78 JUMPI PUSH1 0x20 CALLDATASIZE PUSH1 0x3 NOT ADD SLT PUSH2 0xA78 JUMPI PUSH1 0x4 CALLDATALOAD PUSH2 0x3E40 DUP2 PUSH2 0x475A JUMP JUMPDEST POP PUSH0 MSTORE PUSH1 0x4 PUSH1 0x20 MSTORE PUSH1 0x20 PUSH1 0x1 DUP1 PUSH1 0xA0 SHL SUB PUSH1 0x40 PUSH0 KECCAK256 SLOAD AND PUSH1 0x40 MLOAD SWAP1 DUP2 MSTORE RETURN JUMPDEST CALLVALUE PUSH2 0xA78 JUMPI PUSH0 CALLDATASIZE PUSH1 0x3 NOT ADD SLT PUSH2 0xA78 JUMPI PUSH1 0x40 MLOAD PUSH0 DUP1 SLOAD SWAP1 DUP3 PUSH2 0x3E80 DUP4 PUSH2 0x4091 JUMP JUMPDEST SWAP2 DUP3 DUP3 MSTORE PUSH1 0x20 SWAP4 PUSH1 0x1 SWAP1 DUP6 PUSH1 0x1 DUP3 AND SWAP2 DUP3 PUSH0 EQ PUSH2 0x17C4 JUMPI POP POP PUSH1 0x1 EQ PUSH2 0x3EAD JUMPI POP PUSH2 0x1768 SWAP3 POP SUB DUP4 PUSH2 0x4170 JUMP JUMPDEST PUSH0 DUP1 DUP1 MSTORE DUP6 SWAP3 POP SWAP1 PUSH32 0x290DECD9548B62A8D60345A988386FC84BA6BC95484008F6362F93160EF3E563 JUMPDEST DUP6 DUP4 LT PUSH2 0x3EEE JUMPI POP POP PUSH2 0x1768 SWAP4 POP DUP3 ADD ADD DUP6 PUSH2 0x175B JUMP JUMPDEST DUP1 SLOAD DUP4 DUP10 ADD DUP6 ADD MSTORE DUP8 SWAP5 POP DUP7 SWAP4 SWAP1 SWAP3 ADD SWAP2 DUP2 ADD PUSH2 0x3ED7 JUMP JUMPDEST CALLVALUE PUSH2 0xA78 JUMPI PUSH1 0x20 CALLDATASIZE PUSH1 0x3 NOT ADD SLT PUSH2 0xA78 JUMPI PUSH1 0x4 CALLDATALOAD SWAP1 PUSH4 0xFFFFFFFF PUSH1 0xE0 SHL DUP3 AND DUP1 SWAP3 SUB PUSH2 0xA78 JUMPI PUSH1 0x20 SWAP2 PUSH4 0x80AC58CD PUSH1 0xE0 SHL DUP2 EQ SWAP1 DUP2 ISZERO PUSH2 0x3F60 JUMPI JUMPDEST DUP2 ISZERO PUSH2 0x3F4F JUMPI JUMPDEST POP ISZERO ISZERO DUP2 MSTORE RETURN JUMPDEST PUSH4 0x1FFC9A7 PUSH1 0xE0 SHL EQ SWAP1 POP DUP4 PUSH2 0x3F48 JUMP JUMPDEST PUSH4 0x5B5E139F PUSH1 0xE0 SHL DUP2 EQ SWAP2 POP PUSH2 0x3F41 JUMP JUMPDEST PUSH0 JUMPDEST DUP4 DUP2 LT PUSH2 0x3F82 JUMPI POP POP PUSH0 SWAP2 ADD MSTORE JUMP JUMPDEST DUP2 DUP2 ADD MLOAD DUP4 DUP3 ADD MSTORE PUSH1 0x20 ADD PUSH2 0x3F73 JUMP JUMPDEST SWAP1 PUSH1 0x20 SWAP2 PUSH2 0x3FAB DUP2 MLOAD DUP1 SWAP3 DUP2 DUP6 MSTORE DUP6 DUP1 DUP7 ADD SWAP2 ADD PUSH2 0x3F71 JUMP JUMPDEST PUSH1 0x1F ADD PUSH1 0x1F NOT AND ADD ADD SWAP1 JUMP JUMPDEST PUSH1 0x4 CALLDATALOAD SWAP1 PUSH1 0x1 PUSH1 0x1 PUSH1 0xA0 SHL SUB DUP3 AND DUP3 SUB PUSH2 0xA78 JUMPI JUMP JUMPDEST PUSH1 0x24 CALLDATALOAD SWAP1 PUSH1 0x1 PUSH1 0x1 PUSH1 0xA0 SHL SUB DUP3 AND DUP3 SUB PUSH2 0xA78 JUMPI JUMP JUMPDEST SWAP1 PUSH1 0x4 DUP3 LT ISZERO PUSH2 0x1EA4 JUMPI MSTORE JUMP JUMPDEST PUSH1 0x40 SWAP1 PUSH1 0x3 NOT ADD SLT PUSH2 0xA78 JUMPI PUSH1 0x4 CALLDATALOAD SWAP1 PUSH1 0x24 CALLDATALOAD SWAP1 JUMP JUMPDEST PUSH1 0x24 CALLDATALOAD SWAP1 DUP2 ISZERO ISZERO DUP3 SUB PUSH2 0xA78 JUMPI JUMP JUMPDEST PUSH1 0x60 SWAP1 PUSH1 0x3 NOT ADD SLT PUSH2 0xA78 JUMPI PUSH1 0x1 PUSH1 0x1 PUSH1 0xA0 SHL SUB SWAP1 PUSH1 0x4 CALLDATALOAD DUP3 DUP2 AND DUP2 SUB PUSH2 0xA78 JUMPI SWAP2 PUSH1 0x24 CALLDATALOAD SWAP1 DUP2 AND DUP2 SUB PUSH2 0xA78 JUMPI SWAP1 PUSH1 0x44 CALLDATALOAD SWAP1 JUMP JUMPDEST SWAP2 DUP2 PUSH1 0x1F DUP5 ADD SLT ISZERO PUSH2 0xA78 JUMPI DUP3 CALLDATALOAD SWAP2 PUSH1 0x1 PUSH1 0x1 PUSH1 0x40 SHL SUB DUP4 GT PUSH2 0xA78 JUMPI PUSH1 0x20 DUP4 DUP2 DUP7 ADD SWAP6 ADD ADD GT PUSH2 0xA78 JUMPI JUMP JUMPDEST SWAP1 PUSH1 0xF DUP3 LT ISZERO PUSH2 0x1EA4 JUMPI MSTORE JUMP JUMPDEST SWAP1 PUSH1 0xD DUP3 LT ISZERO PUSH2 0x1EA4 JUMPI MSTORE JUMP JUMPDEST SWAP1 PUSH1 0x1 DUP3 DUP2 SHR SWAP3 AND DUP1 ISZERO PUSH2 0x40BF JUMPI JUMPDEST PUSH1 0x20 DUP4 LT EQ PUSH2 0x40AB JUMPI JUMP JUMPDEST PUSH4 0x4E487B71 PUSH1 0xE0 SHL PUSH0 MSTORE PUSH1 0x22 PUSH1 0x4 MSTORE PUSH1 0x24 PUSH0 REVERT JUMPDEST SWAP2 PUSH1 0x7F AND SWAP2 PUSH2 0x40A0 JUMP JUMPDEST PUSH2 0x3C0 DUP2 ADD SWAP1 DUP2 LT PUSH1 0x1 PUSH1 0x1 PUSH1 0x40 SHL SUB DUP3 GT OR PUSH2 0x1F75 JUMPI PUSH1 0x40 MSTORE JUMP JUMPDEST PUSH2 0x220 DUP2 ADD SWAP1 DUP2 LT PUSH1 0x1 PUSH1 0x1 PUSH1 0x40 SHL SUB DUP3 GT OR PUSH2 0x1F75 JUMPI PUSH1 0x40 MSTORE JUMP JUMPDEST PUSH2 0x260 DUP2 ADD SWAP1 DUP2 LT PUSH1 0x1 PUSH1 0x1 PUSH1 0x40 SHL SUB DUP3 GT OR PUSH2 0x1F75 JUMPI PUSH1 0x40 MSTORE JUMP JUMPDEST PUSH2 0x2E0 DUP2 ADD SWAP1 DUP2 LT PUSH1 0x1 PUSH1 0x1 PUSH1 0x40 SHL SUB DUP3 GT OR PUSH2 0x1F75 JUMPI PUSH1 0x40 MSTORE JUMP JUMPDEST PUSH1 0x20 DUP2 ADD SWAP1 DUP2 LT PUSH1 0x1 PUSH1 0x1 PUSH1 0x40 SHL SUB DUP3 GT OR PUSH2 0x1F75 JUMPI PUSH1 0x40 MSTORE JUMP JUMPDEST PUSH2 0x120 DUP2 ADD SWAP1 DUP2 LT PUSH1 0x1 PUSH1 0x1 PUSH1 0x40 SHL SUB DUP3 GT OR PUSH2 0x1F75 JUMPI PUSH1 0x40 MSTORE JUMP JUMPDEST SWAP1 PUSH1 0x1F DUP1 NOT SWAP2 ADD AND DUP2 ADD SWAP1 DUP2 LT PUSH1 0x1 PUSH1 0x1 PUSH1 0x40 SHL SUB DUP3 GT OR PUSH2 0x1F75 JUMPI PUSH1 0x40 MSTORE JUMP JUMPDEST SWAP1 PUSH1 0x40 MLOAD SWAP2 DUP3 PUSH0 DUP3 SLOAD PUSH2 0x41A3 DUP2 PUSH2 0x4091 JUMP JUMPDEST SWAP1 DUP2 DUP5 MSTORE PUSH1 0x20 SWAP5 PUSH1 0x1 SWAP2 PUSH1 0x1 DUP2 AND SWAP1 DUP2 PUSH0 EQ PUSH2 0x4211 JUMPI POP PUSH1 0x1 EQ PUSH2 0x41D3 JUMPI JUMPDEST POP POP POP PUSH2 0x41D1 SWAP3 POP SUB DUP4 PUSH2 0x4170 JUMP JUMPDEST JUMP JUMPDEST PUSH0 SWAP1 DUP2 MSTORE DUP6 DUP2 KECCAK256 SWAP6 SWAP4 POP SWAP2 SWAP1 JUMPDEST DUP2 DUP4 LT PUSH2 0x41F9 JUMPI POP POP PUSH2 0x41D1 SWAP4 POP DUP3 ADD ADD PUSH0 DUP1 DUP1 PUSH2 0x41C2 JUMP JUMPDEST DUP6 SLOAD DUP9 DUP5 ADD DUP6 ADD MSTORE SWAP5 DUP6 ADD SWAP5 DUP8 SWAP5 POP SWAP2 DUP4 ADD SWAP2 PUSH2 0x41E0 JUMP JUMPDEST SWAP3 POP POP POP PUSH2 0x41D1 SWAP5 SWAP3 POP PUSH1 0xFF NOT AND DUP3 DUP5 ADD MSTORE ISZERO ISZERO PUSH1 0x5 SHL DUP3 ADD ADD PUSH0 DUP1 DUP1 PUSH2 0x41C2 JUMP JUMPDEST PUSH1 0x1 PUSH1 0x1 PUSH1 0x40 SHL SUB DUP2 GT PUSH2 0x1F75 JUMPI PUSH1 0x1F ADD PUSH1 0x1F NOT AND PUSH1 0x20 ADD SWAP1 JUMP JUMPDEST SWAP3 SWAP2 SWAP3 PUSH2 0x425A DUP3 PUSH2 0x4233 JUMP JUMPDEST SWAP2 PUSH2 0x4268 PUSH1 0x40 MLOAD SWAP4 DUP5 PUSH2 0x4170 JUMP JUMPDEST DUP3 SWAP5 DUP2 DUP5 MSTORE DUP2 DUP4 ADD GT PUSH2 0xA78 JUMPI DUP3 DUP2 PUSH1 0x20 SWAP4 DUP5 PUSH0 SWAP7 ADD CALLDATACOPY ADD ADD MSTORE JUMP JUMPDEST SWAP2 SWAP1 SWAP2 PUSH2 0x2E0 DUP2 ADD SWAP3 DUP1 MLOAD DUP3 MSTORE PUSH1 0x20 DUP2 ADD MLOAD PUSH1 0x20 DUP4 ADD MSTORE PUSH1 0x40 DUP2 ADD MLOAD PUSH1 0x40 DUP4 ADD MSTORE PUSH1 0x60 DUP2 ADD MLOAD PUSH1 0x60 DUP4 ADD MSTORE PUSH1 0x80 DUP2 ADD MLOAD PUSH1 0x80 DUP4 ADD MSTORE PUSH1 0xA0 DUP2 ADD MLOAD PUSH1 0xA0 DUP4 ADD MSTORE PUSH1 0xC0 DUP2 ADD MLOAD PUSH1 0xC0 DUP4 ADD MSTORE PUSH1 0xE0 DUP2 ADD MLOAD PUSH1 0xE0 DUP4 ADD MSTORE PUSH2 0x100 DUP1 DUP3 ADD MLOAD SWAP1 DUP4 ADD MSTORE PUSH2 0x120 DUP1 DUP3 ADD MLOAD SWAP1 DUP4 ADD MSTORE PUSH2 0x140 DUP1 DUP3 ADD MLOAD SWAP1 DUP4 ADD MSTORE PUSH2 0x160 DUP1 DUP3 ADD MLOAD SWAP1 DUP4 ADD MSTORE PUSH2 0x180 DUP1 DUP3 ADD MLOAD SWAP1 DUP4 ADD MSTORE PUSH2 0x1A0 DUP1 DUP3 ADD MLOAD SWAP1 DUP4 ADD MSTORE PUSH2 0x1C0 DUP1 DUP3 ADD MLOAD SWAP1 DUP4 ADD MSTORE PUSH2 0x1E0 DUP1 DUP3 ADD MLOAD SWAP1 DUP4 ADD MSTORE PUSH2 0x200 DUP1 DUP3 ADD MLOAD SWAP1 DUP4 ADD MSTORE PUSH2 0x220 DUP1 DUP3 ADD MLOAD SWAP1 DUP4 ADD MSTORE PUSH2 0x240 DUP1 DUP3 ADD MLOAD SWAP1 DUP4 ADD MSTORE PUSH2 0x260 DUP1 DUP3 ADD MLOAD SWAP1 DUP4 ADD MSTORE PUSH2 0x280 DUP1 DUP3 ADD MLOAD SWAP1 DUP4 ADD MSTORE PUSH2 0x2A0 DUP1 DUP3 ADD MLOAD SWAP1 DUP4 ADD MSTORE PUSH2 0x2C0 DUP1 SWAP2 ADD MLOAD SWAP2 ADD MSTORE JUMP JUMPDEST PUSH1 0xF DUP3 LT ISZERO PUSH2 0x1EA4 JUMPI MSTORE JUMP JUMPDEST PUSH1 0xD DUP3 LT ISZERO PUSH2 0x1EA4 JUMPI MSTORE JUMP JUMPDEST PUSH1 0x4 DUP3 LT ISZERO PUSH2 0x1EA4 JUMPI MSTORE JUMP JUMPDEST PUSH1 0x1 PUSH1 0x1 PUSH1 0xA0 SHL SUB SWAP2 DUP3 AND SWAP3 SWAP1 SWAP2 DUP4 ISZERO PUSH2 0x451F JUMPI DUP2 PUSH0 MSTORE PUSH1 0x20 SWAP3 PUSH1 0x2 DUP5 MSTORE DUP3 PUSH1 0x40 SWAP6 DUP4 DUP8 PUSH0 KECCAK256 SLOAD AND SWAP6 CALLER ISZERO ISZERO DUP1 PUSH2 0x448D JUMPI JUMPDEST POP PUSH1 0x2 SWAP1 DUP8 PUSH2 0x445C JUMPI JUMPDEST DUP3 PUSH0 MSTORE PUSH1 0x3 DUP2 MSTORE DUP9 PUSH0 KECCAK256 PUSH1 0x1 DUP2 SLOAD ADD SWAP1 SSTORE DUP4 PUSH0 MSTORE MSTORE DUP7 PUSH0 KECCAK256 DUP2 PUSH1 0x1 PUSH1 0x1 PUSH1 0x60 SHL SUB PUSH1 0xA0 SHL DUP3 SLOAD AND OR SWAP1 SSTORE DUP6 PUSH32 0xDDF252AD1BE2C89B69C2B068FC378DAA952BA7F163C4A11628F55A4DF523B3EF PUSH0 DUP1 LOG4 AND SWAP3 DUP4 DUP4 SUB PUSH2 0x443B JUMPI POP POP POP POP JUMP JUMPDEST PUSH1 0x64 SWAP5 POP MLOAD SWAP3 PUSH4 0x64283D7B PUSH1 0xE0 SHL DUP5 MSTORE PUSH1 0x4 DUP5 ADD MSTORE PUSH1 0x24 DUP4 ADD MSTORE PUSH1 0x44 DUP3 ADD MSTORE REVERT JUMPDEST PUSH0 DUP5 DUP2 MSTORE PUSH1 0x4 PUSH1 0x20 MSTORE PUSH1 0x40 DUP2 KECCAK256 DUP1 SLOAD PUSH1 0x1 PUSH1 0x1 PUSH1 0xA0 SHL SUB NOT AND SWAP1 SSTORE DUP9 DUP2 MSTORE PUSH1 0x3 DUP3 MSTORE DUP10 SWAP1 KECCAK256 DUP1 SLOAD PUSH0 NOT ADD SWAP1 SSTORE PUSH2 0x43DD JUMP JUMPDEST SWAP2 SWAP3 POP SWAP1 DUP1 PUSH2 0x44DE JUMPI JUMPDEST ISZERO PUSH2 0x44A5 JUMPI SWAP1 DUP5 SWAP2 PUSH0 PUSH2 0x43D3 JUMP JUMPDEST DUP7 DUP6 DUP8 PUSH2 0x44C2 JUMPI PUSH1 0x24 SWAP2 MLOAD SWAP1 PUSH4 0x7E273289 PUSH1 0xE0 SHL DUP3 MSTORE PUSH1 0x4 DUP3 ADD MSTORE REVERT JUMPDEST PUSH1 0x44 SWAP2 MLOAD SWAP1 PUSH4 0x177E802F PUSH1 0xE0 SHL DUP3 MSTORE CALLER PUSH1 0x4 DUP4 ADD MSTORE PUSH1 0x24 DUP3 ADD MSTORE REVERT JUMPDEST POP CALLER DUP7 EQ DUP1 ISZERO PUSH2 0x4503 JUMPI JUMPDEST DUP1 PUSH2 0x4497 JUMPI POP DUP5 PUSH0 MSTORE PUSH1 0x4 DUP2 MSTORE CALLER DUP5 DUP9 PUSH0 KECCAK256 SLOAD AND EQ PUSH2 0x4497 JUMP JUMPDEST POP DUP6 PUSH0 MSTORE PUSH1 0x5 DUP2 MSTORE DUP7 PUSH0 KECCAK256 CALLER PUSH0 MSTORE DUP2 MSTORE PUSH1 0xFF DUP8 PUSH0 KECCAK256 SLOAD AND PUSH2 0x44E9 JUMP JUMPDEST PUSH1 0x40 MLOAD PUSH4 0x32505749 PUSH1 0xE1 SHL DUP2 MSTORE PUSH0 PUSH1 0x4 DUP3 ADD MSTORE PUSH1 0x24 SWAP1 REVERT JUMPDEST SWAP7 SWAP5 SWAP3 SWAP1 SWAP6 SWAP4 SWAP2 PUSH1 0x40 MLOAD SWAP7 PUSH1 0x20 DUP9 ADD SWAP9 DUP10 MSTORE PUSH1 0x40 DUP9 ADD MSTORE PUSH1 0x60 DUP8 ADD MSTORE PUSH1 0x80 DUP7 ADD MSTORE PUSH1 0xA0 DUP6 ADD MSTORE PUSH1 0xC0 DUP5 ADD MSTORE PUSH1 0xE0 DUP4 ADD MSTORE PUSH2 0x100 SWAP1 DUP2 DUP4 ADD MSTORE DUP2 MSTORE PUSH2 0x457A DUP2 PUSH2 0x4154 JUMP JUMPDEST MLOAD SWAP1 KECCAK256 SWAP1 JUMP JUMPDEST SWAP6 SWAP4 SWAP2 SWAP5 SWAP3 SWAP1 SWAP5 PUSH1 0x40 MLOAD SWAP6 PUSH1 0x20 DUP8 ADD SWAP8 PUSH1 0x1 PUSH1 0x1 PUSH1 0x60 SHL SUB NOT SWAP1 PUSH1 0x60 SHL AND DUP9 MSTORE PUSH1 0x34 DUP8 ADD MSTORE PUSH1 0x54 DUP7 ADD MSTORE PUSH1 0x74 DUP6 ADD MSTORE PUSH1 0x94 DUP5 ADD MSTORE PUSH1 0xB4 DUP4 ADD MSTORE TIMESTAMP PUSH1 0xD4 DUP4 ADD MSTORE PUSH1 0xF4 DUP3 ADD MSTORE PUSH1 0xF4 DUP2 MSTORE PUSH2 0x457A DUP2 PUSH2 0x4154 JUMP JUMPDEST SWAP1 DUP1 PUSH1 0x20 SWAP4 SWAP3 DUP2 DUP5 MSTORE DUP5 DUP5 ADD CALLDATACOPY PUSH0 DUP3 DUP3 ADD DUP5 ADD MSTORE PUSH1 0x1F ADD PUSH1 0x1F NOT AND ADD ADD SWAP1 JUMP JUMPDEST PUSH1 0x40 MLOAD SWAP1 PUSH2 0x45FE DUP3 PUSH2 0x4101 JUMP JUMPDEST PUSH0 PUSH2 0x240 DUP4 DUP3 DUP2 MSTORE DUP3 PUSH1 0x20 DUP3 ADD MSTORE DUP3 PUSH1 0x40 DUP3 ADD MSTORE DUP3 PUSH1 0x60 DUP3 ADD MSTORE DUP3 PUSH1 0x80 DUP3 ADD MSTORE DUP3 PUSH1 0xA0 DUP3 ADD MSTORE DUP3 PUSH1 0xC0 DUP3 ADD MSTORE DUP3 PUSH1 0xE0 DUP3 ADD MSTORE DUP3 PUSH2 0x100 DUP3 ADD MSTORE DUP3 PUSH2 0x120 DUP3 ADD MSTORE DUP3 PUSH2 0x140 DUP3 ADD MSTORE DUP3 PUSH2 0x160 DUP3 ADD MSTORE DUP3 PUSH2 0x180 DUP3 ADD MSTORE DUP3 PUSH2 0x1A0 DUP3 ADD MSTORE DUP3 PUSH2 0x1C0 DUP3 ADD MSTORE DUP3 PUSH2 0x1E0 DUP3 ADD MSTORE DUP3 PUSH2 0x200 DUP3 ADD MSTORE DUP3 PUSH2 0x220 DUP3 ADD MSTORE ADD MSTORE JUMP JUMPDEST SWAP2 SWAP1 SWAP2 PUSH0 DUP4 DUP3 ADD SWAP4 DUP5 SLT SWAP2 SLT SWAP1 DUP1 ISZERO DUP3 AND SWAP2 ISZERO AND OR PUSH2 0x39D7 JUMPI JUMP JUMPDEST PUSH1 0x40 MLOAD SWAP1 PUSH2 0x46A2 DUP3 PUSH2 0x411D JUMP JUMPDEST PUSH0 PUSH2 0x2C0 DUP4 DUP3 DUP2 MSTORE DUP3 PUSH1 0x20 DUP3 ADD MSTORE DUP3 PUSH1 0x40 DUP3 ADD MSTORE DUP3 PUSH1 0x60 DUP3 ADD MSTORE DUP3 PUSH1 0x80 DUP3 ADD MSTORE DUP3 PUSH1 0xA0 DUP3 ADD MSTORE DUP3 PUSH1 0xC0 DUP3 ADD MSTORE DUP3 PUSH1 0xE0 DUP3 ADD MSTORE DUP3 PUSH2 0x100 DUP3 ADD MSTORE DUP3 PUSH2 0x120 DUP3 ADD MSTORE DUP3 PUSH2 0x140 DUP3 ADD MSTORE DUP3 PUSH2 0x160 DUP3 ADD MSTORE DUP3 PUSH2 0x180 DUP3 ADD MSTORE DUP3 PUSH2 0x1A0 DUP3 ADD MSTORE DUP3 PUSH2 0x1C0 DUP3 ADD MSTORE DUP3 PUSH2 0x1E0 DUP3 ADD MSTORE DUP3 PUSH2 0x200 DUP3 ADD MSTORE DUP3 PUSH2 0x220 DUP3 ADD MSTORE DUP3 PUSH2 0x240 DUP3 ADD MSTORE DUP3 PUSH2 0x260 DUP3 ADD MSTORE DUP3 PUSH2 0x280 DUP3 ADD MSTORE DUP3 PUSH2 0x2A0 DUP3 ADD MSTORE ADD MSTORE JUMP JUMPDEST SWAP2 SWAP1 DUP3 ADD DUP1 SWAP3 GT PUSH2 0x39D7 JUMPI JUMP JUMPDEST DUP2 DUP2 MUL SWAP3 SWAP2 DUP2 ISZERO SWAP2 DUP5 DIV EQ OR ISZERO PUSH2 0x39D7 JUMPI JUMP JUMPDEST PUSH0 DUP2 DUP2 MSTORE PUSH1 0x2 PUSH1 0x20 MSTORE PUSH1 0x40 SWAP1 KECCAK256 SLOAD PUSH1 0x1 PUSH1 0x1 PUSH1 0xA0 SHL SUB AND SWAP1 DUP2 ISZERO PUSH2 0x477C JUMPI POP SWAP1 JUMP JUMPDEST PUSH1 0x24 SWAP1 PUSH1 0x40 MLOAD SWAP1 PUSH4 0x7E273289 PUSH1 0xE0 SHL DUP3 MSTORE PUSH1 0x4 DUP3 ADD MSTORE REVERT JUMPDEST PUSH0 SWAP1 DUP2 MSTORE PUSH1 0x2 PUSH1 0x20 MSTORE PUSH1 0x40 SWAP1 KECCAK256 SLOAD PUSH1 0x1 PUSH1 0x1 PUSH1 0xA0 SHL SUB AND ISZERO PUSH2 0xA57 JUMPI JUMP JUMPDEST PUSH0 MSTORE PUSH1 0xA PUSH1 0x20 MSTORE PUSH1 0x40 PUSH0 KECCAK256 PUSH1 0x1 DUP2 ADD SLOAD PUSH1 0x2 DUP3 ADD SLOAD PUSH1 0x3 DUP4 ADD SLOAD SWAP2 PUSH1 0xFF PUSH1 0xC DUP6 ADD SLOAD AND SWAP2 PUSH1 0x4 DUP4 LT ISZERO PUSH2 0x1EA4 JUMPI PUSH1 0xE SWAP4 PUSH2 0x4803 SWAP4 PUSH1 0xB DUP8 ADD SLOAD SWAP1 PUSH1 0xD DUP9 ADD SLOAD SWAP3 PUSH1 0x7 DUP10 ADD SLOAD SWAP5 PUSH1 0x5 DUP11 ADD SLOAD SWAP7 PUSH2 0x4537 JUMP JUMPDEST SWAP2 ADD SSTORE JUMP JUMPDEST PUSH1 0x6 SLOAD PUSH1 0x1 PUSH1 0x1 PUSH1 0xA0 SHL SUB AND CALLER SUB PUSH2 0x481C JUMPI JUMP JUMPDEST PUSH1 0x40 MLOAD PUSH4 0x118CDAA7 PUSH1 0xE0 SHL DUP2 MSTORE CALLER PUSH1 0x4 DUP3 ADD MSTORE PUSH1 0x24 SWAP1 REVERT JUMPDEST SWAP3 SWAP4 SWAP1 SWAP2 SWAP4 DUP5 EXTCODESIZE PUSH2 0x4847 JUMPI JUMPDEST POP POP POP POP POP JUMP JUMPDEST PUSH1 0x40 MLOAD PUSH4 0xA85BD01 PUSH1 0xE1 SHL DUP1 DUP3 MSTORE PUSH1 0x1 PUSH1 0x1 PUSH1 0xA0 SHL SUB SWAP6 DUP7 AND PUSH1 0x4 DUP4 ADD MSTORE SWAP4 DUP6 AND PUSH1 0x24 DUP3 ADD MSTORE PUSH1 0x44 DUP2 ADD SWAP2 SWAP1 SWAP2 MSTORE PUSH1 0x80 PUSH1 0x64 DUP3 ADD MSTORE PUSH1 0x20 SWAP6 SWAP5 SWAP1 SWAP4 AND SWAP4 SWAP3 SWAP1 DUP6 SWAP1 DUP3 SWAP1 DUP2 SWAP1 PUSH2 0x489A SWAP1 PUSH1 0x84 DUP4 ADD SWAP1 PUSH2 0x3F92 JUMP JUMPDEST SUB DUP2 PUSH0 DUP9 GAS CALL PUSH0 SWAP2 DUP2 PUSH2 0x493E JUMPI JUMPDEST POP PUSH2 0x4907 JUMPI POP POP POP RETURNDATASIZE PUSH0 EQ PUSH2 0x48FF JUMPI RETURNDATASIZE SWAP2 PUSH2 0x48C2 DUP4 PUSH2 0x4233 JUMP JUMPDEST SWAP3 PUSH2 0x48D0 PUSH1 0x40 MLOAD SWAP5 DUP6 PUSH2 0x4170 JUMP JUMPDEST DUP4 MSTORE RETURNDATASIZE PUSH0 DUP3 DUP6 ADD RETURNDATACOPY JUMPDEST DUP3 MLOAD SWAP3 DUP4 PUSH2 0x48FA JUMPI PUSH1 0x40 MLOAD PUSH4 0x32505749 PUSH1 0xE1 SHL DUP2 MSTORE PUSH1 0x4 DUP2 ADD DUP5 SWAP1 MSTORE PUSH1 0x24 SWAP1 REVERT JUMPDEST ADD SWAP1 POP REVERT JUMPDEST PUSH1 0x60 SWAP2 PUSH2 0x48D9 JUMP JUMPDEST SWAP2 SWAP4 POP PUSH1 0x1 PUSH1 0x1 PUSH1 0xE0 SHL SUB NOT SWAP1 SWAP2 AND SUB PUSH2 0x4926 JUMPI POP PUSH0 DUP1 DUP1 DUP1 DUP1 PUSH2 0x4840 JUMP JUMPDEST PUSH1 0x24 SWAP1 PUSH1 0x40 MLOAD SWAP1 PUSH4 0x32505749 PUSH1 0xE1 SHL DUP3 MSTORE PUSH1 0x4 DUP3 ADD MSTORE REVERT JUMPDEST SWAP1 SWAP2 POP DUP6 DUP2 DUP2 RETURNDATASIZE DUP4 GT PUSH2 0x4977 JUMPI JUMPDEST PUSH2 0x4956 DUP2 DUP4 PUSH2 0x4170 JUMP JUMPDEST DUP2 ADD SUB SLT PUSH2 0xA78 JUMPI MLOAD PUSH1 0x1 PUSH1 0x1 PUSH1 0xE0 SHL SUB NOT DUP2 AND DUP2 SUB PUSH2 0xA78 JUMPI SWAP1 PUSH0 PUSH2 0x48A8 JUMP JUMPDEST POP RETURNDATASIZE PUSH2 0x494C JUMP INVALID 0xA6 PUSH13 0xC928B5EDB82AF9BD4992295415 GAS 0xB7 0xB0 SWAP5 0x26 SWAP5 0xBE LOG4 0xCE PREVRANDAO PUSH7 0x1D9A8736C688A2 PUSH5 0x6970667358 0x22 SLT KECCAK256 0xEC TSTORE DUP10 PUSH1 0xF6 PUSH4 0x880C3D12 0xF6 SWAP10 0xEC EXTCODEHASH DUP14 GASPRICE BLOCKHASH 0xE5 0xAF DUP7 0x4F SSTORE 0xD5 0xB1 DUP8 PUSH16 0x6826B4CEE65164736F6C634300081800 CALLER "},"methodIdentifiers":{"approve(address,uint256)":"095ea7b3","authorizedMinters(address)":"aa2fe91b","balanceOf(address)":"70a08231","baseTokenURI()":"d547cfb7","cityWeaponSockets()":"e9625932","computeCraftSeed(address,uint256,uint256,uint256,uint256,uint256,uint256)":"52b6a409","computeProvenanceHash(uint256,uint256,uint256,uint256,uint256,bytes32,uint256,uint256)":"41d71b9c","getApproved(uint256)":"081812fc","getCombatProfile(uint256)":"f5dd3ceb","getEffectiveCombatProfile(uint256)":"f122be86","getWeaponStats(uint256)":"63ff2287","isApprovedForAll(address,address)":"e985e9c5","mintWeapon(address,uint256,uint256,uint256,uint256,uint256,uint256,uint8,uint256,bool,bool,uint256)":"239c011d","name()":"06fdde03","nextTokenId()":"75794a3c","owner()":"8da5cb5b","ownerOf(uint256)":"6352211e","renounceOwnership()":"715018a6","safeTransferFrom(address,address,uint256)":"42842e0e","safeTransferFrom(address,address,uint256,bytes)":"b88d4fde","setApprovalForAll(address,bool)":"a22cb465","setAuthorizedMinter(address,bool)":"ed58bad8","setBaseURI(string)":"55f804b3","setDurability(uint256,uint256)":"a987fcdd","setMetadataRevision(uint256,uint256)":"caca6f87","setUpgradeLevel(uint256,uint256)":"1e8b3be9","setWeaponBonuses(uint256,(int256,int256,int256,int256,int256,int256,int256,int256,int256,int256,int256,int256,int256,int256,int256,int256,int256,int256,int256))":"4eba5e04","setWeaponDefinition(uint256,string,uint8,uint8,uint256,uint256,uint256,uint256,uint256,uint256,uint256,uint256,uint256,uint256,uint256,uint256,uint256,uint256,uint256,uint256,uint256,uint256,uint256,uint256,uint256,uint256,uint256,uint256,uint256,bool)":"bb1f0753","setWeaponSockets(address)":"827293d4","supportsInterface(bytes4)":"01ffc9a7","symbol()":"95d89b41","tokenURI(uint256)":"c87b56dd","transferFrom(address,address,uint256)":"23b872dd","transferOwnership(address)":"f2fde38b","weaponBonusesOf(uint256)":"2efcc220","weaponDefinitionOf(uint256)":"8f2cf344","weaponInstanceOf(uint256)":"14207dda"}}}}}