{"project/contracts/crafting/CityCrafting.sol":{"CityCrafting":{"abi":[{"inputs":[{"internalType":"address","name":"initialOwner","type":"address"},{"internalType":"address","name":"cityConfigAddress","type":"address"}],"stateMutability":"nonpayable","type":"constructor"},{"inputs":[],"name":"InvalidConfig","type":"error"},{"inputs":[],"name":"InvalidValue","type":"error"},{"inputs":[],"name":"NotAuthorized","type":"error"},{"inputs":[{"internalType":"address","name":"owner","type":"address"}],"name":"OwnableInvalidOwner","type":"error"},{"inputs":[{"internalType":"address","name":"account","type":"address"}],"name":"OwnableUnauthorizedAccount","type":"error"},{"inputs":[],"name":"ReentrancyGuardReentrantCall","type":"error"},{"inputs":[],"name":"ZeroAddress","type":"error"},{"anonymous":false,"inputs":[{"indexed":true,"internalType":"address","name":"caller","type":"address"},{"indexed":false,"internalType":"bool","name":"allowed","type":"bool"}],"name":"AuthorizedCallerSet","type":"event"},{"anonymous":false,"inputs":[{"indexed":true,"internalType":"address","name":"blueprints","type":"address"}],"name":"CityBlueprintsSet","type":"event"},{"anonymous":false,"inputs":[{"indexed":true,"internalType":"address","name":"components","type":"address"}],"name":"CityComponentsSet","type":"event"},{"anonymous":false,"inputs":[{"indexed":true,"internalType":"address","name":"weapons","type":"address"}],"name":"CityWeaponsSet","type":"event"},{"anonymous":false,"inputs":[{"indexed":true,"internalType":"address","name":"user","type":"address"},{"indexed":true,"internalType":"uint256","name":"recipeId","type":"uint256"},{"indexed":false,"internalType":"enum CityCrafting.RecipeOutputKind","name":"outputKind","type":"uint8"},{"indexed":false,"internalType":"uint256","name":"outputId","type":"uint256"},{"indexed":false,"internalType":"uint256","name":"outputAmount","type":"uint256"}],"name":"Crafted","type":"event"},{"anonymous":false,"inputs":[{"indexed":false,"internalType":"bool","name":"paused","type":"bool"}],"name":"CraftingPausedSet","type":"event"},{"anonymous":false,"inputs":[{"indexed":true,"internalType":"address","name":"previousOwner","type":"address"},{"indexed":true,"internalType":"address","name":"newOwner","type":"address"}],"name":"OwnershipTransferred","type":"event"},{"anonymous":false,"inputs":[{"indexed":true,"internalType":"address","name":"user","type":"address"},{"indexed":true,"internalType":"uint256","name":"recipeId","type":"uint256"}],"name":"RecipeDiscovered","type":"event"},{"anonymous":false,"inputs":[{"indexed":true,"internalType":"uint256","name":"recipeId","type":"uint256"},{"indexed":false,"internalType":"enum CityCrafting.RecipeOutputKind","name":"outputKind","type":"uint8"},{"indexed":false,"internalType":"uint256","name":"outputId","type":"uint256"},{"indexed":false,"internalType":"uint256","name":"outputAmount","type":"uint256"},{"indexed":false,"internalType":"bool","name":"enabled","type":"bool"}],"name":"RecipeSet","type":"event"},{"anonymous":false,"inputs":[{"indexed":true,"internalType":"address","name":"user","type":"address"},{"indexed":true,"internalType":"uint256","name":"recipeId","type":"uint256"},{"indexed":true,"internalType":"uint256","name":"tokenId","type":"uint256"},{"indexed":false,"internalType":"uint256","name":"weaponDefinitionId","type":"uint256"},{"indexed":false,"internalType":"uint256","name":"craftNonce","type":"uint256"}],"name":"WeaponCrafted","type":"event"},{"inputs":[],"name":"RESOURCE_COUNT","outputs":[{"internalType":"uint256","name":"","type":"uint256"}],"stateMutability":"view","type":"function"},{"inputs":[{"internalType":"address","name":"","type":"address"}],"name":"authorizedCallers","outputs":[{"internalType":"bool","name":"","type":"bool"}],"stateMutability":"view","type":"function"},{"inputs":[],"name":"cityBlueprints","outputs":[{"internalType":"contract ICityBlueprints","name":"","type":"address"}],"stateMutability":"view","type":"function"},{"inputs":[],"name":"cityComponents","outputs":[{"internalType":"contract ICityComponents","name":"","type":"address"}],"stateMutability":"view","type":"function"},{"inputs":[],"name":"cityConfig","outputs":[{"internalType":"contract CityConfig","name":"","type":"address"}],"stateMutability":"view","type":"function"},{"inputs":[],"name":"cityWeapons","outputs":[{"internalType":"contract ICityWeapons","name":"","type":"address"}],"stateMutability":"view","type":"function"},{"inputs":[{"internalType":"uint256","name":"recipeId","type":"uint256"}],"name":"craft","outputs":[],"stateMutability":"nonpayable","type":"function"},{"inputs":[],"name":"craftNonce","outputs":[{"internalType":"uint256","name":"","type":"uint256"}],"stateMutability":"view","type":"function"},{"inputs":[{"internalType":"uint256","name":"recipeId","type":"uint256"},{"internalType":"uint256","name":"originPlotId","type":"uint256"},{"internalType":"uint256","name":"originFaction","type":"uint256"},{"internalType":"uint256","name":"originDistrictKind","type":"uint256"},{"internalType":"uint8","name":"resonanceType","type":"uint8"},{"internalType":"uint256","name":"visualVariant","type":"uint256"},{"internalType":"bool","name":"genesisEra","type":"bool"},{"internalType":"bool","name":"usedAether","type":"bool"}],"name":"craftWeapon","outputs":[{"internalType":"uint256","name":"tokenId","type":"uint256"}],"stateMutability":"nonpayable","type":"function"},{"inputs":[],"name":"craftingPaused","outputs":[{"internalType":"bool","name":"","type":"bool"}],"stateMutability":"view","type":"function"},{"inputs":[{"internalType":"address","name":"user","type":"address"},{"internalType":"uint256","name":"recipeId","type":"uint256"}],"name":"discoverRecipe","outputs":[],"stateMutability":"nonpayable","type":"function"},{"inputs":[{"internalType":"uint256","name":"recipeId","type":"uint256"}],"name":"getRecipeCosts","outputs":[{"internalType":"uint256[10]","name":"","type":"uint256[10]"}],"stateMutability":"view","type":"function"},{"inputs":[{"internalType":"address","name":"","type":"address"},{"internalType":"address","name":"","type":"address"},{"internalType":"uint256[]","name":"","type":"uint256[]"},{"internalType":"uint256[]","name":"","type":"uint256[]"},{"internalType":"bytes","name":"","type":"bytes"}],"name":"onERC1155BatchReceived","outputs":[{"internalType":"bytes4","name":"","type":"bytes4"}],"stateMutability":"nonpayable","type":"function"},{"inputs":[{"internalType":"address","name":"","type":"address"},{"internalType":"address","name":"","type":"address"},{"internalType":"uint256","name":"","type":"uint256"},{"internalType":"uint256","name":"","type":"uint256"},{"internalType":"bytes","name":"","type":"bytes"}],"name":"onERC1155Received","outputs":[{"internalType":"bytes4","name":"","type":"bytes4"}],"stateMutability":"nonpayable","type":"function"},{"inputs":[],"name":"owner","outputs":[{"internalType":"address","name":"","type":"address"}],"stateMutability":"view","type":"function"},{"inputs":[{"internalType":"address","name":"","type":"address"},{"internalType":"uint256","name":"","type":"uint256"}],"name":"recipeDiscoveredBy","outputs":[{"internalType":"bool","name":"","type":"bool"}],"stateMutability":"view","type":"function"},{"inputs":[{"internalType":"uint256","name":"","type":"uint256"}],"name":"recipeOf","outputs":[{"internalType":"uint256","name":"id","type":"uint256"},{"internalType":"enum CityCrafting.RecipeOutputKind","name":"outputKind","type":"uint8"},{"internalType":"uint256","name":"outputId","type":"uint256"},{"internalType":"uint256","name":"outputAmount","type":"uint256"},{"internalType":"uint256","name":"requiredFaction","type":"uint256"},{"internalType":"uint256","name":"requiredDistrictKind","type":"uint256"},{"internalType":"uint256","name":"requiredBuildingId","type":"uint256"},{"internalType":"uint256","name":"requiredTechTier","type":"uint256"},{"internalType":"uint256","name":"rarityTier","type":"uint256"},{"internalType":"uint256","name":"frameTier","type":"uint256"},{"internalType":"bool","name":"requiresDiscovery","type":"bool"},{"internalType":"bool","name":"enabled","type":"bool"}],"stateMutability":"view","type":"function"},{"inputs":[],"name":"renounceOwnership","outputs":[],"stateMutability":"nonpayable","type":"function"},{"inputs":[{"internalType":"address","name":"caller","type":"address"},{"internalType":"bool","name":"allowed","type":"bool"}],"name":"setAuthorizedCaller","outputs":[],"stateMutability":"nonpayable","type":"function"},{"inputs":[{"internalType":"address","name":"cityBlueprintsAddress","type":"address"}],"name":"setCityBlueprints","outputs":[],"stateMutability":"nonpayable","type":"function"},{"inputs":[{"internalType":"address","name":"cityComponentsAddress","type":"address"}],"name":"setCityComponents","outputs":[],"stateMutability":"nonpayable","type":"function"},{"inputs":[{"internalType":"address","name":"cityWeaponsAddress","type":"address"}],"name":"setCityWeapons","outputs":[],"stateMutability":"nonpayable","type":"function"},{"inputs":[{"internalType":"bool","name":"paused","type":"bool"}],"name":"setCraftingPaused","outputs":[],"stateMutability":"nonpayable","type":"function"},{"inputs":[{"internalType":"uint256","name":"recipeId","type":"uint256"},{"internalType":"enum CityCrafting.RecipeOutputKind","name":"outputKind","type":"uint8"},{"internalType":"uint256","name":"outputId","type":"uint256"},{"internalType":"uint256","name":"outputAmount","type":"uint256"},{"internalType":"uint256[10]","name":"resourceCosts","type":"uint256[10]"},{"internalType":"uint256","name":"requiredFaction","type":"uint256"},{"internalType":"uint256","name":"requiredDistrictKind","type":"uint256"},{"internalType":"uint256","name":"requiredBuildingId","type":"uint256"},{"internalType":"uint256","name":"requiredTechTier","type":"uint256"},{"internalType":"uint256","name":"rarityTier","type":"uint256"},{"internalType":"uint256","name":"frameTier","type":"uint256"},{"internalType":"bool","name":"requiresDiscovery","type":"bool"},{"internalType":"bool","name":"enabled","type":"bool"}],"name":"setRecipe","outputs":[],"stateMutability":"nonpayable","type":"function"},{"inputs":[{"internalType":"bytes4","name":"interfaceId","type":"bytes4"}],"name":"supportsInterface","outputs":[{"internalType":"bool","name":"","type":"bool"}],"stateMutability":"view","type":"function"},{"inputs":[{"internalType":"address","name":"newOwner","type":"address"}],"name":"transferOwnership","outputs":[],"stateMutability":"nonpayable","type":"function"}],"evm":{"bytecode":{"linkReferences":{},"object":"60a0346100fc57601f6200185038819003918201601f19168301916001600160401b038311848410176101005780849260409485528339810103126100fc57610053602061004c83610114565b9201610114565b6001600160a01b03918216919082156100e4575f80546001600160a01b03198116851782556040519491908416907f8be0079c531659141344cd1fd0a4f28419497f9722a3daafe3b4186f6b6457e09080a360018055169081156100d557506080526040516117279081620001298239608051818181610f2d01526112740152f35b63d92e233d60e01b8152600490fd5b604051631e4fbdf760e01b81525f6004820152602490fd5b5f80fd5b634e487b7160e01b5f52604160045260245ffd5b51906001600160a01b03821682036100fc5756fe6080806040526004361015610012575f80fd5b5f3560e01c90816301ffc9a714610f5c575080630eac48f114610f185780633419818014610eb0578063454bbd2914610e23578063536fff6c14610de65780635b7aae2314610d305780635ca5d2f414610d08578063715018a614610cb15780637396063814610c4957806379b20b9214610be757806388ef338b14610b275780638c8f585514610b0a5780638d8b6a6714610a905780638da5cb5b14610a69578063a7c908eb14610825578063bbfdcb8b146107bd578063bc197c8114610734578063bee1ffe4146106eb578063c0f5adb3146106c9578063ca4a3db814610413578063ca85a280146103f8578063ccde8c86146103d0578063eedeed50146103a8578063f23a6e6114610352578063f2fde38b146102c85763f3917bd21461013a575f80fd5b346102c45760203660031901126102c457600435610156611194565b60ff600654166102b257805f52600760205260405f2060405161017881610fe8565b8154815260ff600183015416610192602083019182611129565b600283015492604083019384526003810154926060810193845260ff60146101bc60048501611135565b9360808401948552600e81015460a0850152600f81015460c0850152601081015460e08501526011810154610100850152601281015461012085015260138101546101408501520154818116151561016084015260081c16151561018082015261022633826111b7565b8251600881101561029e576004146102b25761024661024c925133611251565b33611566565b5191600883101561029e57519051906102686040518094610fdb565b602083015260408201527ff913df82e328793f3d5167547ec3e9f61f7ab84210d3b8b8e5d764c5d08cb60760603392a360018055005b634e487b7160e01b5f52602160045260245ffd5b604051632a9ffab760e21b8152600490fd5b5f80fd5b346102c45760203660031901126102c4576102e1610faf565b6102e9611169565b6001600160a01b0390811690811561033a575f54826bffffffffffffffffffffffff60a01b8216175f55167f8be0079c531659141344cd1fd0a4f28419497f9722a3daafe3b4186f6b6457e05f80a3005b604051631e4fbdf760e01b81525f6004820152602490fd5b346102c45760a03660031901126102c45761036b610faf565b50610374610fc5565b5060843567ffffffffffffffff81116102c4576103959036906004016110d3565b5060405163f23a6e6160e01b8152602090f35b346102c4575f3660031901126102c4576004546040516001600160a01b039091168152602090f35b346102c4575f3660031901126102c4576002546040516001600160a01b039091168152602090f35b346102c4575f3660031901126102c4576020604051600a8152f35b346102c457610100806003193601126102c457600435906084359060ff82168092036102c45760c435928315158094036102c45760e4358015158091036102c45761045c611194565b60ff600654166102b257815f526020946007865260405f206040519261048184610fe8565b8154845260ff6001830154169361049b8982019586611129565b60028301549660408201978852600384015460608301526104be60048501611135565b9060808301918252600e85015460a0840152600f85015460c0840152601085015460e0840152601185015490830152610530601285015492610120810193845260ff601460138801549761014084019889520154818116151561016084015260081c16151561018082015233906111b7565b8551600881101561029e576004036102b2576002546001600160a01b0395908616156106b7578a95610184946105685f945133611251565b600160055401918260055560025416928b51955197519c6040519d8e998a9863239c011d60e01b8a523360048b015260248a015260448901526064880152602435608488015260443560a488015260643560c488015260e487015260a4356101048701526101248601526101448501526101648401525af19384156106ac575f9461067d575b505191600883101561029e57818493825161060c6040518093610fdb565b87820152600160408201527ff913df82e328793f3d5167547ec3e9f61f7ab84210d3b8b8e5d764c5d08cb60760603392a351600554604051918252858201527f65f6e285e9a22c48123b444f6606f6c882a2059a0fc82f98dd1a25e7135587cf60403392a460018055604051908152f35b9093508481813d83116106a5575b610695818361104a565b810103126102c4575192856105ee565b503d61068b565b6040513d5f823e3d90fd5b6040516306b7c75960e31b8152600490fd5b346102c4575f3660031901126102c457602060ff600654166040519015158152f35b346102c45760403660031901126102c4576001600160a01b0361070c610faf565b165f52600960205260405f206024355f52602052602060ff60405f2054166040519015158152f35b346102c45760a03660031901126102c45761074d610faf565b50610756610fc5565b5067ffffffffffffffff6044358181116102c45761077890369060040161106c565b506064358181116102c45761079190369060040161106c565b506084359081116102c4576107aa9036906004016110d3565b5060405163bc197c8160e01b8152602090f35b346102c4576020806003193601126102c457604051906107dc8261102d565b61014080923690376004355f5260076020526107fd600460405f2001611135565b604051915f835b600a8210610810578585f35b82806001928651815201940191019092610804565b346102c4576102c03660031901126102c457600860243510156102c457366101c4116102c4576102843580151581036102c4576102a4359081151582036102c45761086e611169565b600435156102b257602435156102b257606435156102b2576040519061089382610fe8565b60043582526108a760243560208401611129565b604435604083015260643560608301526040516108c38161102d565b6084815b6101c48210610a5957505060808301526101c43560a08301526101e43560c08301526102043560e083015261022435610100830152610244356101208301526102643561014083015215156101608201528115156101808201526004355f52600760205260405f208151815560018082016020840151600881101561029e5760ff80198354169116179055604083015160028301556060830151600383015560808301515f5b600a8110610a435750505060146101809160a0840151600e82015560c0840151600f82015560e0840151601082015561010084015160118201556101208401516012820155610140840151601382015501916109dc6101608201511515849060ff801983541691151516179055565b0151815461ff00191690151560081b61ff001617905560405190610a0282602435610fdb565b60443560208301526064356040830152151560608201527fad906256843df74155740a478db7f432b0ae18b30b4bcd106ccc200be3ccbc7c608060043592a2005b829060208351930192600482870101550161096d565b81358152602091820191016108c7565b346102c4575f3660031901126102c4575f546040516001600160a01b039091168152602090f35b346102c45760203660031901126102c457610aa9610faf565b610ab1611169565b6001600160a01b03168015610af857600280546001600160a01b031916821790557f7f759bb7c376f0473b5dc09cdf8f4ae2690c9e974451ffe15182e4bd027628175f80a2005b60405163d92e233d60e01b8152600490fd5b346102c4575f3660031901126102c4576020600554604051908152f35b346102c45760403660031901126102c457610b40610faf565b5f54602435916001600160a01b0391821633148015610bd1575b15610bbf57168015610af857815f52600760205260405f2054156102b257805f52600960205260405f20825f5260205260405f20600160ff198254161790557f02d804e6c30c8899b7a9674452cde17ba5179436b38435f836827568933412505f80a3005b60405163ea8e4eb560e01b8152600490fd5b50335f52600860205260ff60405f205416610b5a565b346102c45760203660031901126102c4576004358015158091036102c45760207f96c7c52d2633fd0d21d074a0473310c093f5df78fe2cca20fcc5e70cfbe3ceb891610c31611169565b60ff196006541660ff821617600655604051908152a1005b346102c45760203660031901126102c457610c62610faf565b610c6a611169565b6001600160a01b03168015610af857600480546001600160a01b031916821790557f9351dc5d31a81008e0b50bb31a6bafbbac9887c5b59803f1178be53004c0dc435f80a2005b346102c4575f3660031901126102c457610cc9611169565b5f80546001600160a01b0319811682556001600160a01b03167f8be0079c531659141344cd1fd0a4f28419497f9722a3daafe3b4186f6b6457e08280a3005b346102c4575f3660031901126102c4576003546040516001600160a01b039091168152602090f35b346102c45760203660031901126102c4576004355f52600760205261018060405f2060ff815491816001820154169060028101546003820154600e830154600f840154601085015491601186015493601287015495610da3601460138a0154990154996040519c8d5260208d0190610fdb565b60408b015260608a0152608089015260a088015260c087015260e0860152610100850152610120840152818116151561014084015260081c161515610160820152f35b346102c45760203660031901126102c4576001600160a01b03610e07610faf565b165f526008602052602060ff60405f2054166040519015158152f35b346102c45760403660031901126102c457610e3c610faf565b60243590811515908183036102c457610e53611169565b6001600160a01b0316918215610af8577f1eff62a53441c7d0125c22f2a9a324e206b34efa41e19469d7efb9bb703d21a391610ea7602092855f526008845260405f209060ff801983541691151516179055565b604051908152a2005b346102c45760203660031901126102c457610ec9610faf565b610ed1611169565b6001600160a01b03168015610af857600380546001600160a01b031916821790557f25af1d122cf03855b88f08aa0ea4ee4396852188f3664636be56bc2f04c7201f5f80a2005b346102c4575f3660031901126102c4576040517f00000000000000000000000000000000000000000000000000000000000000006001600160a01b03168152602090f35b346102c45760203660031901126102c4576004359063ffffffff60e01b82168092036102c457602091630271189760e51b8114908115610f9e575b5015158152f35b6301ffc9a760e01b14905083610f97565b600435906001600160a01b03821682036102c457565b602435906001600160a01b03821682036102c457565b90600882101561029e5752565b6101a0810190811067ffffffffffffffff82111761100557604052565b634e487b7160e01b5f52604160045260245ffd5b67ffffffffffffffff811161100557604052565b610140810190811067ffffffffffffffff82111761100557604052565b90601f8019910116810190811067ffffffffffffffff82111761100557604052565b81601f820112156102c45780359160209167ffffffffffffffff8411611005578360051b90604051946110a18584018761104a565b855283808601928201019283116102c4578301905b8282106110c4575050505090565b813581529083019083016110b6565b81601f820112156102c45780359067ffffffffffffffff82116110055760405192611108601f8401601f19166020018561104a565b828452602083830101116102c457815f926020809301838601378301015290565b600882101561029e5752565b60405191905f835b600a8210611153575050506111518261102d565b565b600160208192855481520193019101909161113d565b5f546001600160a01b0316330361117c57565b60405163118cdaa760e01b8152336004820152602490fd5b6002600154146111a5576002600155565b604051633ee5aeb560e01b8152600490fd5b610180810151156102b2578051156102b257610160810151151591826111e0575b50506102b257565b90915060018060a01b03165f52600960205260405f2090515f5260205260ff60405f205416155f806111d8565b908160209103126102c457516001600160a01b03811681036102c45790565b90600a81101561123d5760051b0190565b634e487b7160e01b5f52603260045260245ffd5b60408051635bc9316b60e11b8152909291600491906001600160a01b03906020907f0000000000000000000000000000000000000000000000000000000000000000831682858781845afa94851561155c575f9561152d575b50875190630763334160e21b95868352878301526024918481602481855afa9081156113d8579086915f91611510575b50169586156115005789516353c7345d60e01b81529085828a81865afa9182156114f657908692915f926114c4575b506024908c51948593849283528c8301525afa9081156114ba579085915f9161148d575b501692831561147d575f5b600a81106113e25750505f5b600a811061135757505050505050505050565b611361818961122c565b5180611371575b50600101611344565b863b156102c457895190637921219560e11b8252868516898301528584830152826044830152606482015260a060848201525f60a48201525f8160c481838b5af180156113d85790600192916113c9575b5090611368565b6113d290611019565b5f6113c2565b8a513d5f823e3d90fd5b6113ec818a61122c565b51806113fc575b50600101611338565b8a51627eeac760e11b81528588168a82015284810183905283816044818c5afa908115611473575f91611446575b5010611436575f6113f3565b8951632a9ffab760e21b81528890fd5b90508381813d831161146c575b61145d818361104a565b810103126102c457515f61142a565b503d611453565b8c513d5f823e3d90fd5b88516306b7c75960e31b81528790fd5b6114ad9150853d87116114b3575b6114a5818361104a565b81019061120d565b5f61132d565b503d61149b565b89513d5f823e3d90fd5b8381949293503d83116114ef575b6114dc818361104a565b810103126102c457905185916024611309565b503d6114d2565b8b513d5f823e3d90fd5b89516306b7c75960e31b81528890fd5b6115279150863d88116114b3576114a5818361104a565b5f6112da565b9094508281813d8311611555575b611545818361104a565b810103126102c45751935f6112aa565b503d61153b565b88513d5f823e3d90fd5b909160208301928351926008938481101561029e5760021461168b5784518481101561029e5760031461160f5750505081518181101561029e576001149182156115fa575b82156115e5575b82156115d1575b50506102b257604051632a9ffab760e21b8152600490fd5b51915081101561029e576007145f806115b9565b809250518181101561029e57600614916115b2565b809250518181101561029e57600514916115ab565b600454929450909250906001600160a01b031680156106b7576060604084015193015190803b156102c457604051630a17cd4160e31b81526001600160a01b03909316600484015260248301939093526044820152905f908290818381606481015b03925af180156106ac576116825750565b61115190611019565b600354929450909250906001600160a01b031680156106b7576060604084015193015190803b156102c45760405163dafb890560e01b81526001600160a01b03909316600484015260248301939093526044820152905f9082908183816064810161167156fea2646970667358221220a5cecd8332686d9058c349630f6a0302b7bda09910f5ecc41f4cc6927e80f2c464736f6c63430008180033","opcodes":"PUSH1 0xA0 CALLVALUE PUSH2 0xFC JUMPI PUSH1 0x1F PUSH3 0x1850 CODESIZE DUP2 SWAP1 SUB SWAP2 DUP3 ADD PUSH1 0x1F NOT AND DUP4 ADD SWAP2 PUSH1 0x1 PUSH1 0x1 PUSH1 0x40 SHL SUB DUP4 GT DUP5 DUP5 LT OR PUSH2 0x100 JUMPI DUP1 DUP5 SWAP3 PUSH1 0x40 SWAP5 DUP6 MSTORE DUP4 CODECOPY DUP2 ADD SUB SLT PUSH2 0xFC JUMPI PUSH2 0x53 PUSH1 0x20 PUSH2 0x4C DUP4 PUSH2 0x114 JUMP JUMPDEST SWAP3 ADD PUSH2 0x114 JUMP JUMPDEST PUSH1 0x1 PUSH1 0x1 PUSH1 0xA0 SHL SUB SWAP2 DUP3 AND SWAP2 SWAP1 DUP3 ISZERO PUSH2 0xE4 JUMPI PUSH0 DUP1 SLOAD PUSH1 0x1 PUSH1 0x1 PUSH1 0xA0 SHL SUB NOT DUP2 AND DUP6 OR DUP3 SSTORE PUSH1 0x40 MLOAD SWAP5 SWAP2 SWAP1 DUP5 AND SWAP1 PUSH32 0x8BE0079C531659141344CD1FD0A4F28419497F9722A3DAAFE3B4186F6B6457E0 SWAP1 DUP1 LOG3 PUSH1 0x1 DUP1 SSTORE AND SWAP1 DUP2 ISZERO PUSH2 0xD5 JUMPI POP PUSH1 0x80 MSTORE PUSH1 0x40 MLOAD PUSH2 0x1727 SWAP1 DUP2 PUSH3 0x129 DUP3 CODECOPY PUSH1 0x80 MLOAD DUP2 DUP2 DUP2 PUSH2 0xF2D ADD MSTORE PUSH2 0x1274 ADD MSTORE RETURN JUMPDEST PUSH4 0xD92E233D PUSH1 0xE0 SHL DUP2 MSTORE PUSH1 0x4 SWAP1 REVERT JUMPDEST PUSH1 0x40 MLOAD PUSH4 0x1E4FBDF7 PUSH1 0xE0 SHL DUP2 MSTORE PUSH0 PUSH1 0x4 DUP3 ADD MSTORE PUSH1 0x24 SWAP1 REVERT JUMPDEST PUSH0 DUP1 REVERT JUMPDEST PUSH4 0x4E487B71 PUSH1 0xE0 SHL PUSH0 MSTORE PUSH1 0x41 PUSH1 0x4 MSTORE PUSH1 0x24 PUSH0 REVERT JUMPDEST MLOAD SWAP1 PUSH1 0x1 PUSH1 0x1 PUSH1 0xA0 SHL SUB DUP3 AND DUP3 SUB PUSH2 0xFC JUMPI JUMP INVALID PUSH1 0x80 DUP1 PUSH1 0x40 MSTORE PUSH1 0x4 CALLDATASIZE LT ISZERO PUSH2 0x12 JUMPI PUSH0 DUP1 REVERT JUMPDEST PUSH0 CALLDATALOAD PUSH1 0xE0 SHR SWAP1 DUP2 PUSH4 0x1FFC9A7 EQ PUSH2 0xF5C JUMPI POP DUP1 PUSH4 0xEAC48F1 EQ PUSH2 0xF18 JUMPI DUP1 PUSH4 0x34198180 EQ PUSH2 0xEB0 JUMPI DUP1 PUSH4 0x454BBD29 EQ PUSH2 0xE23 JUMPI DUP1 PUSH4 0x536FFF6C EQ PUSH2 0xDE6 JUMPI DUP1 PUSH4 0x5B7AAE23 EQ PUSH2 0xD30 JUMPI DUP1 PUSH4 0x5CA5D2F4 EQ PUSH2 0xD08 JUMPI DUP1 PUSH4 0x715018A6 EQ PUSH2 0xCB1 JUMPI DUP1 PUSH4 0x73960638 EQ PUSH2 0xC49 JUMPI DUP1 PUSH4 0x79B20B92 EQ PUSH2 0xBE7 JUMPI DUP1 PUSH4 0x88EF338B EQ PUSH2 0xB27 JUMPI DUP1 PUSH4 0x8C8F5855 EQ PUSH2 0xB0A JUMPI DUP1 PUSH4 0x8D8B6A67 EQ PUSH2 0xA90 JUMPI DUP1 PUSH4 0x8DA5CB5B EQ PUSH2 0xA69 JUMPI DUP1 PUSH4 0xA7C908EB EQ PUSH2 0x825 JUMPI DUP1 PUSH4 0xBBFDCB8B EQ PUSH2 0x7BD JUMPI DUP1 PUSH4 0xBC197C81 EQ PUSH2 0x734 JUMPI DUP1 PUSH4 0xBEE1FFE4 EQ PUSH2 0x6EB JUMPI DUP1 PUSH4 0xC0F5ADB3 EQ PUSH2 0x6C9 JUMPI DUP1 PUSH4 0xCA4A3DB8 EQ PUSH2 0x413 JUMPI DUP1 PUSH4 0xCA85A280 EQ PUSH2 0x3F8 JUMPI DUP1 PUSH4 0xCCDE8C86 EQ PUSH2 0x3D0 JUMPI DUP1 PUSH4 0xEEDEED50 EQ PUSH2 0x3A8 JUMPI DUP1 PUSH4 0xF23A6E61 EQ PUSH2 0x352 JUMPI DUP1 PUSH4 0xF2FDE38B EQ PUSH2 0x2C8 JUMPI PUSH4 0xF3917BD2 EQ PUSH2 0x13A JUMPI PUSH0 DUP1 REVERT JUMPDEST CALLVALUE PUSH2 0x2C4 JUMPI PUSH1 0x20 CALLDATASIZE PUSH1 0x3 NOT ADD SLT PUSH2 0x2C4 JUMPI PUSH1 0x4 CALLDATALOAD PUSH2 0x156 PUSH2 0x1194 JUMP JUMPDEST PUSH1 0xFF PUSH1 0x6 SLOAD AND PUSH2 0x2B2 JUMPI DUP1 PUSH0 MSTORE PUSH1 0x7 PUSH1 0x20 MSTORE PUSH1 0x40 PUSH0 KECCAK256 PUSH1 0x40 MLOAD PUSH2 0x178 DUP2 PUSH2 0xFE8 JUMP JUMPDEST DUP2 SLOAD DUP2 MSTORE PUSH1 0xFF PUSH1 0x1 DUP4 ADD SLOAD AND PUSH2 0x192 PUSH1 0x20 DUP4 ADD SWAP2 DUP3 PUSH2 0x1129 JUMP JUMPDEST PUSH1 0x2 DUP4 ADD SLOAD SWAP3 PUSH1 0x40 DUP4 ADD SWAP4 DUP5 MSTORE PUSH1 0x3 DUP2 ADD SLOAD SWAP3 PUSH1 0x60 DUP2 ADD SWAP4 DUP5 MSTORE PUSH1 0xFF PUSH1 0x14 PUSH2 0x1BC PUSH1 0x4 DUP6 ADD PUSH2 0x1135 JUMP JUMPDEST SWAP4 PUSH1 0x80 DUP5 ADD SWAP5 DUP6 MSTORE PUSH1 0xE DUP2 ADD SLOAD PUSH1 0xA0 DUP6 ADD MSTORE PUSH1 0xF DUP2 ADD SLOAD PUSH1 0xC0 DUP6 ADD MSTORE PUSH1 0x10 DUP2 ADD SLOAD PUSH1 0xE0 DUP6 ADD MSTORE PUSH1 0x11 DUP2 ADD SLOAD PUSH2 0x100 DUP6 ADD MSTORE PUSH1 0x12 DUP2 ADD SLOAD PUSH2 0x120 DUP6 ADD MSTORE PUSH1 0x13 DUP2 ADD SLOAD PUSH2 0x140 DUP6 ADD MSTORE ADD SLOAD DUP2 DUP2 AND ISZERO ISZERO PUSH2 0x160 DUP5 ADD MSTORE PUSH1 0x8 SHR AND ISZERO ISZERO PUSH2 0x180 DUP3 ADD MSTORE PUSH2 0x226 CALLER DUP3 PUSH2 0x11B7 JUMP JUMPDEST DUP3 MLOAD PUSH1 0x8 DUP2 LT ISZERO PUSH2 0x29E JUMPI PUSH1 0x4 EQ PUSH2 0x2B2 JUMPI PUSH2 0x246 PUSH2 0x24C SWAP3 MLOAD CALLER PUSH2 0x1251 JUMP JUMPDEST CALLER PUSH2 0x1566 JUMP JUMPDEST MLOAD SWAP2 PUSH1 0x8 DUP4 LT ISZERO PUSH2 0x29E JUMPI MLOAD SWAP1 MLOAD SWAP1 PUSH2 0x268 PUSH1 0x40 MLOAD DUP1 SWAP5 PUSH2 0xFDB JUMP JUMPDEST PUSH1 0x20 DUP4 ADD MSTORE PUSH1 0x40 DUP3 ADD MSTORE PUSH32 0xF913DF82E328793F3D5167547EC3E9F61F7AB84210D3B8B8E5D764C5D08CB607 PUSH1 0x60 CALLER SWAP3 LOG3 PUSH1 0x1 DUP1 SSTORE STOP JUMPDEST PUSH4 0x4E487B71 PUSH1 0xE0 SHL PUSH0 MSTORE PUSH1 0x21 PUSH1 0x4 MSTORE PUSH1 0x24 PUSH0 REVERT JUMPDEST PUSH1 0x40 MLOAD PUSH4 0x2A9FFAB7 PUSH1 0xE2 SHL DUP2 MSTORE PUSH1 0x4 SWAP1 REVERT JUMPDEST PUSH0 DUP1 REVERT JUMPDEST CALLVALUE PUSH2 0x2C4 JUMPI PUSH1 0x20 CALLDATASIZE PUSH1 0x3 NOT ADD SLT PUSH2 0x2C4 JUMPI PUSH2 0x2E1 PUSH2 0xFAF JUMP JUMPDEST PUSH2 0x2E9 PUSH2 0x1169 JUMP JUMPDEST PUSH1 0x1 PUSH1 0x1 PUSH1 0xA0 SHL SUB SWAP1 DUP2 AND SWAP1 DUP2 ISZERO PUSH2 0x33A JUMPI PUSH0 SLOAD DUP3 PUSH12 0xFFFFFFFFFFFFFFFFFFFFFFFF PUSH1 0xA0 SHL DUP3 AND OR PUSH0 SSTORE AND PUSH32 0x8BE0079C531659141344CD1FD0A4F28419497F9722A3DAAFE3B4186F6B6457E0 PUSH0 DUP1 LOG3 STOP JUMPDEST PUSH1 0x40 MLOAD PUSH4 0x1E4FBDF7 PUSH1 0xE0 SHL DUP2 MSTORE PUSH0 PUSH1 0x4 DUP3 ADD MSTORE PUSH1 0x24 SWAP1 REVERT JUMPDEST CALLVALUE PUSH2 0x2C4 JUMPI PUSH1 0xA0 CALLDATASIZE PUSH1 0x3 NOT ADD SLT PUSH2 0x2C4 JUMPI PUSH2 0x36B PUSH2 0xFAF JUMP JUMPDEST POP PUSH2 0x374 PUSH2 0xFC5 JUMP JUMPDEST POP PUSH1 0x84 CALLDATALOAD PUSH8 0xFFFFFFFFFFFFFFFF DUP2 GT PUSH2 0x2C4 JUMPI PUSH2 0x395 SWAP1 CALLDATASIZE SWAP1 PUSH1 0x4 ADD PUSH2 0x10D3 JUMP JUMPDEST POP PUSH1 0x40 MLOAD PUSH4 0xF23A6E61 PUSH1 0xE0 SHL DUP2 MSTORE PUSH1 0x20 SWAP1 RETURN JUMPDEST CALLVALUE PUSH2 0x2C4 JUMPI PUSH0 CALLDATASIZE PUSH1 0x3 NOT ADD SLT PUSH2 0x2C4 JUMPI PUSH1 0x4 SLOAD PUSH1 0x40 MLOAD PUSH1 0x1 PUSH1 0x1 PUSH1 0xA0 SHL SUB SWAP1 SWAP2 AND DUP2 MSTORE PUSH1 0x20 SWAP1 RETURN JUMPDEST CALLVALUE PUSH2 0x2C4 JUMPI PUSH0 CALLDATASIZE PUSH1 0x3 NOT ADD SLT PUSH2 0x2C4 JUMPI PUSH1 0x2 SLOAD PUSH1 0x40 MLOAD PUSH1 0x1 PUSH1 0x1 PUSH1 0xA0 SHL SUB SWAP1 SWAP2 AND DUP2 MSTORE PUSH1 0x20 SWAP1 RETURN JUMPDEST CALLVALUE PUSH2 0x2C4 JUMPI PUSH0 CALLDATASIZE PUSH1 0x3 NOT ADD SLT PUSH2 0x2C4 JUMPI PUSH1 0x20 PUSH1 0x40 MLOAD PUSH1 0xA DUP2 MSTORE RETURN JUMPDEST CALLVALUE PUSH2 0x2C4 JUMPI PUSH2 0x100 DUP1 PUSH1 0x3 NOT CALLDATASIZE ADD SLT PUSH2 0x2C4 JUMPI PUSH1 0x4 CALLDATALOAD SWAP1 PUSH1 0x84 CALLDATALOAD SWAP1 PUSH1 0xFF DUP3 AND DUP1 SWAP3 SUB PUSH2 0x2C4 JUMPI PUSH1 0xC4 CALLDATALOAD SWAP3 DUP4 ISZERO ISZERO DUP1 SWAP5 SUB PUSH2 0x2C4 JUMPI PUSH1 0xE4 CALLDATALOAD DUP1 ISZERO ISZERO DUP1 SWAP2 SUB PUSH2 0x2C4 JUMPI PUSH2 0x45C PUSH2 0x1194 JUMP JUMPDEST PUSH1 0xFF PUSH1 0x6 SLOAD AND PUSH2 0x2B2 JUMPI DUP2 PUSH0 MSTORE PUSH1 0x20 SWAP5 PUSH1 0x7 DUP7 MSTORE PUSH1 0x40 PUSH0 KECCAK256 PUSH1 0x40 MLOAD SWAP3 PUSH2 0x481 DUP5 PUSH2 0xFE8 JUMP JUMPDEST DUP2 SLOAD DUP5 MSTORE PUSH1 0xFF PUSH1 0x1 DUP4 ADD SLOAD AND SWAP4 PUSH2 0x49B DUP10 DUP3 ADD SWAP6 DUP7 PUSH2 0x1129 JUMP JUMPDEST PUSH1 0x2 DUP4 ADD SLOAD SWAP7 PUSH1 0x40 DUP3 ADD SWAP8 DUP9 MSTORE PUSH1 0x3 DUP5 ADD SLOAD PUSH1 0x60 DUP4 ADD MSTORE PUSH2 0x4BE PUSH1 0x4 DUP6 ADD PUSH2 0x1135 JUMP JUMPDEST SWAP1 PUSH1 0x80 DUP4 ADD SWAP2 DUP3 MSTORE PUSH1 0xE DUP6 ADD SLOAD PUSH1 0xA0 DUP5 ADD MSTORE PUSH1 0xF DUP6 ADD SLOAD PUSH1 0xC0 DUP5 ADD MSTORE PUSH1 0x10 DUP6 ADD SLOAD PUSH1 0xE0 DUP5 ADD MSTORE PUSH1 0x11 DUP6 ADD SLOAD SWAP1 DUP4 ADD MSTORE PUSH2 0x530 PUSH1 0x12 DUP6 ADD SLOAD SWAP3 PUSH2 0x120 DUP2 ADD SWAP4 DUP5 MSTORE PUSH1 0xFF PUSH1 0x14 PUSH1 0x13 DUP9 ADD SLOAD SWAP8 PUSH2 0x140 DUP5 ADD SWAP9 DUP10 MSTORE ADD SLOAD DUP2 DUP2 AND ISZERO ISZERO PUSH2 0x160 DUP5 ADD MSTORE PUSH1 0x8 SHR AND ISZERO ISZERO PUSH2 0x180 DUP3 ADD MSTORE CALLER SWAP1 PUSH2 0x11B7 JUMP JUMPDEST DUP6 MLOAD PUSH1 0x8 DUP2 LT ISZERO PUSH2 0x29E JUMPI PUSH1 0x4 SUB PUSH2 0x2B2 JUMPI PUSH1 0x2 SLOAD PUSH1 0x1 PUSH1 0x1 PUSH1 0xA0 SHL SUB SWAP6 SWAP1 DUP7 AND ISZERO PUSH2 0x6B7 JUMPI DUP11 SWAP6 PUSH2 0x184 SWAP5 PUSH2 0x568 PUSH0 SWAP5 MLOAD CALLER PUSH2 0x1251 JUMP JUMPDEST PUSH1 0x1 PUSH1 0x5 SLOAD ADD SWAP2 DUP3 PUSH1 0x5 SSTORE PUSH1 0x2 SLOAD AND SWAP3 DUP12 MLOAD SWAP6 MLOAD SWAP8 MLOAD SWAP13 PUSH1 0x40 MLOAD SWAP14 DUP15 SWAP10 DUP11 SWAP9 PUSH4 0x239C011D PUSH1 0xE0 SHL DUP11 MSTORE CALLER PUSH1 0x4 DUP12 ADD MSTORE PUSH1 0x24 DUP11 ADD MSTORE PUSH1 0x44 DUP10 ADD MSTORE PUSH1 0x64 DUP9 ADD MSTORE PUSH1 0x24 CALLDATALOAD PUSH1 0x84 DUP9 ADD MSTORE PUSH1 0x44 CALLDATALOAD PUSH1 0xA4 DUP9 ADD MSTORE PUSH1 0x64 CALLDATALOAD PUSH1 0xC4 DUP9 ADD MSTORE PUSH1 0xE4 DUP8 ADD MSTORE PUSH1 0xA4 CALLDATALOAD PUSH2 0x104 DUP8 ADD MSTORE PUSH2 0x124 DUP7 ADD MSTORE PUSH2 0x144 DUP6 ADD MSTORE PUSH2 0x164 DUP5 ADD MSTORE GAS CALL SWAP4 DUP5 ISZERO PUSH2 0x6AC JUMPI PUSH0 SWAP5 PUSH2 0x67D JUMPI JUMPDEST POP MLOAD SWAP2 PUSH1 0x8 DUP4 LT ISZERO PUSH2 0x29E JUMPI DUP2 DUP5 SWAP4 DUP3 MLOAD PUSH2 0x60C PUSH1 0x40 MLOAD DUP1 SWAP4 PUSH2 0xFDB JUMP JUMPDEST DUP8 DUP3 ADD MSTORE PUSH1 0x1 PUSH1 0x40 DUP3 ADD MSTORE PUSH32 0xF913DF82E328793F3D5167547EC3E9F61F7AB84210D3B8B8E5D764C5D08CB607 PUSH1 0x60 CALLER SWAP3 LOG3 MLOAD PUSH1 0x5 SLOAD PUSH1 0x40 MLOAD SWAP2 DUP3 MSTORE DUP6 DUP3 ADD MSTORE PUSH32 0x65F6E285E9A22C48123B444F6606F6C882A2059A0FC82F98DD1A25E7135587CF PUSH1 0x40 CALLER SWAP3 LOG4 PUSH1 0x1 DUP1 SSTORE PUSH1 0x40 MLOAD SWAP1 DUP2 MSTORE RETURN JUMPDEST SWAP1 SWAP4 POP DUP5 DUP2 DUP2 RETURNDATASIZE DUP4 GT PUSH2 0x6A5 JUMPI JUMPDEST PUSH2 0x695 DUP2 DUP4 PUSH2 0x104A JUMP JUMPDEST DUP2 ADD SUB SLT PUSH2 0x2C4 JUMPI MLOAD SWAP3 DUP6 PUSH2 0x5EE JUMP JUMPDEST POP RETURNDATASIZE PUSH2 0x68B JUMP JUMPDEST PUSH1 0x40 MLOAD RETURNDATASIZE PUSH0 DUP3 RETURNDATACOPY RETURNDATASIZE SWAP1 REVERT JUMPDEST PUSH1 0x40 MLOAD PUSH4 0x6B7C759 PUSH1 0xE3 SHL DUP2 MSTORE PUSH1 0x4 SWAP1 REVERT JUMPDEST CALLVALUE PUSH2 0x2C4 JUMPI PUSH0 CALLDATASIZE PUSH1 0x3 NOT ADD SLT PUSH2 0x2C4 JUMPI PUSH1 0x20 PUSH1 0xFF PUSH1 0x6 SLOAD AND PUSH1 0x40 MLOAD SWAP1 ISZERO ISZERO DUP2 MSTORE RETURN JUMPDEST CALLVALUE PUSH2 0x2C4 JUMPI PUSH1 0x40 CALLDATASIZE PUSH1 0x3 NOT ADD SLT PUSH2 0x2C4 JUMPI PUSH1 0x1 PUSH1 0x1 PUSH1 0xA0 SHL SUB PUSH2 0x70C PUSH2 0xFAF JUMP JUMPDEST AND PUSH0 MSTORE PUSH1 0x9 PUSH1 0x20 MSTORE PUSH1 0x40 PUSH0 KECCAK256 PUSH1 0x24 CALLDATALOAD PUSH0 MSTORE PUSH1 0x20 MSTORE PUSH1 0x20 PUSH1 0xFF PUSH1 0x40 PUSH0 KECCAK256 SLOAD AND PUSH1 0x40 MLOAD SWAP1 ISZERO ISZERO DUP2 MSTORE RETURN JUMPDEST CALLVALUE PUSH2 0x2C4 JUMPI PUSH1 0xA0 CALLDATASIZE PUSH1 0x3 NOT ADD SLT PUSH2 0x2C4 JUMPI PUSH2 0x74D PUSH2 0xFAF JUMP JUMPDEST POP PUSH2 0x756 PUSH2 0xFC5 JUMP JUMPDEST POP PUSH8 0xFFFFFFFFFFFFFFFF PUSH1 0x44 CALLDATALOAD DUP2 DUP2 GT PUSH2 0x2C4 JUMPI PUSH2 0x778 SWAP1 CALLDATASIZE SWAP1 PUSH1 0x4 ADD PUSH2 0x106C JUMP JUMPDEST POP PUSH1 0x64 CALLDATALOAD DUP2 DUP2 GT PUSH2 0x2C4 JUMPI PUSH2 0x791 SWAP1 CALLDATASIZE SWAP1 PUSH1 0x4 ADD PUSH2 0x106C JUMP JUMPDEST POP PUSH1 0x84 CALLDATALOAD SWAP1 DUP2 GT PUSH2 0x2C4 JUMPI PUSH2 0x7AA SWAP1 CALLDATASIZE SWAP1 PUSH1 0x4 ADD PUSH2 0x10D3 JUMP JUMPDEST POP PUSH1 0x40 MLOAD PUSH4 0xBC197C81 PUSH1 0xE0 SHL DUP2 MSTORE PUSH1 0x20 SWAP1 RETURN JUMPDEST CALLVALUE PUSH2 0x2C4 JUMPI PUSH1 0x20 DUP1 PUSH1 0x3 NOT CALLDATASIZE ADD SLT PUSH2 0x2C4 JUMPI PUSH1 0x40 MLOAD SWAP1 PUSH2 0x7DC DUP3 PUSH2 0x102D JUMP JUMPDEST PUSH2 0x140 DUP1 SWAP3 CALLDATASIZE SWAP1 CALLDATACOPY PUSH1 0x4 CALLDATALOAD PUSH0 MSTORE PUSH1 0x7 PUSH1 0x20 MSTORE PUSH2 0x7FD PUSH1 0x4 PUSH1 0x40 PUSH0 KECCAK256 ADD PUSH2 0x1135 JUMP JUMPDEST PUSH1 0x40 MLOAD SWAP2 PUSH0 DUP4 JUMPDEST PUSH1 0xA DUP3 LT PUSH2 0x810 JUMPI DUP6 DUP6 RETURN JUMPDEST DUP3 DUP1 PUSH1 0x1 SWAP3 DUP7 MLOAD DUP2 MSTORE ADD SWAP5 ADD SWAP2 ADD SWAP1 SWAP3 PUSH2 0x804 JUMP JUMPDEST CALLVALUE PUSH2 0x2C4 JUMPI PUSH2 0x2C0 CALLDATASIZE PUSH1 0x3 NOT ADD SLT PUSH2 0x2C4 JUMPI PUSH1 0x8 PUSH1 0x24 CALLDATALOAD LT ISZERO PUSH2 0x2C4 JUMPI CALLDATASIZE PUSH2 0x1C4 GT PUSH2 0x2C4 JUMPI PUSH2 0x284 CALLDATALOAD DUP1 ISZERO ISZERO DUP2 SUB PUSH2 0x2C4 JUMPI PUSH2 0x2A4 CALLDATALOAD SWAP1 DUP2 ISZERO ISZERO DUP3 SUB PUSH2 0x2C4 JUMPI PUSH2 0x86E PUSH2 0x1169 JUMP JUMPDEST PUSH1 0x4 CALLDATALOAD ISZERO PUSH2 0x2B2 JUMPI PUSH1 0x24 CALLDATALOAD ISZERO PUSH2 0x2B2 JUMPI PUSH1 0x64 CALLDATALOAD ISZERO PUSH2 0x2B2 JUMPI PUSH1 0x40 MLOAD SWAP1 PUSH2 0x893 DUP3 PUSH2 0xFE8 JUMP JUMPDEST PUSH1 0x4 CALLDATALOAD DUP3 MSTORE PUSH2 0x8A7 PUSH1 0x24 CALLDATALOAD PUSH1 0x20 DUP5 ADD PUSH2 0x1129 JUMP JUMPDEST PUSH1 0x44 CALLDATALOAD PUSH1 0x40 DUP4 ADD MSTORE PUSH1 0x64 CALLDATALOAD PUSH1 0x60 DUP4 ADD MSTORE PUSH1 0x40 MLOAD PUSH2 0x8C3 DUP2 PUSH2 0x102D JUMP JUMPDEST PUSH1 0x84 DUP2 JUMPDEST PUSH2 0x1C4 DUP3 LT PUSH2 0xA59 JUMPI POP POP PUSH1 0x80 DUP4 ADD MSTORE PUSH2 0x1C4 CALLDATALOAD PUSH1 0xA0 DUP4 ADD MSTORE PUSH2 0x1E4 CALLDATALOAD PUSH1 0xC0 DUP4 ADD MSTORE PUSH2 0x204 CALLDATALOAD PUSH1 0xE0 DUP4 ADD MSTORE PUSH2 0x224 CALLDATALOAD PUSH2 0x100 DUP4 ADD MSTORE PUSH2 0x244 CALLDATALOAD PUSH2 0x120 DUP4 ADD MSTORE PUSH2 0x264 CALLDATALOAD PUSH2 0x140 DUP4 ADD MSTORE ISZERO ISZERO PUSH2 0x160 DUP3 ADD MSTORE DUP2 ISZERO ISZERO PUSH2 0x180 DUP3 ADD MSTORE PUSH1 0x4 CALLDATALOAD PUSH0 MSTORE PUSH1 0x7 PUSH1 0x20 MSTORE PUSH1 0x40 PUSH0 KECCAK256 DUP2 MLOAD DUP2 SSTORE PUSH1 0x1 DUP1 DUP3 ADD PUSH1 0x20 DUP5 ADD MLOAD PUSH1 0x8 DUP2 LT ISZERO PUSH2 0x29E JUMPI PUSH1 0xFF DUP1 NOT DUP4 SLOAD AND SWAP2 AND OR SWAP1 SSTORE PUSH1 0x40 DUP4 ADD MLOAD PUSH1 0x2 DUP4 ADD SSTORE PUSH1 0x60 DUP4 ADD MLOAD PUSH1 0x3 DUP4 ADD SSTORE PUSH1 0x80 DUP4 ADD MLOAD PUSH0 JUMPDEST PUSH1 0xA DUP2 LT PUSH2 0xA43 JUMPI POP POP POP PUSH1 0x14 PUSH2 0x180 SWAP2 PUSH1 0xA0 DUP5 ADD MLOAD PUSH1 0xE DUP3 ADD SSTORE PUSH1 0xC0 DUP5 ADD MLOAD PUSH1 0xF DUP3 ADD SSTORE PUSH1 0xE0 DUP5 ADD MLOAD PUSH1 0x10 DUP3 ADD SSTORE PUSH2 0x100 DUP5 ADD MLOAD PUSH1 0x11 DUP3 ADD SSTORE PUSH2 0x120 DUP5 ADD MLOAD PUSH1 0x12 DUP3 ADD SSTORE PUSH2 0x140 DUP5 ADD MLOAD PUSH1 0x13 DUP3 ADD SSTORE ADD SWAP2 PUSH2 0x9DC PUSH2 0x160 DUP3 ADD MLOAD ISZERO ISZERO DUP5 SWAP1 PUSH1 0xFF DUP1 NOT DUP4 SLOAD AND SWAP2 ISZERO ISZERO AND OR SWAP1 SSTORE JUMP JUMPDEST ADD MLOAD DUP2 SLOAD PUSH2 0xFF00 NOT AND SWAP1 ISZERO ISZERO PUSH1 0x8 SHL PUSH2 0xFF00 AND OR SWAP1 SSTORE PUSH1 0x40 MLOAD SWAP1 PUSH2 0xA02 DUP3 PUSH1 0x24 CALLDATALOAD PUSH2 0xFDB JUMP JUMPDEST PUSH1 0x44 CALLDATALOAD PUSH1 0x20 DUP4 ADD MSTORE PUSH1 0x64 CALLDATALOAD PUSH1 0x40 DUP4 ADD MSTORE ISZERO ISZERO PUSH1 0x60 DUP3 ADD MSTORE PUSH32 0xAD906256843DF74155740A478DB7F432B0AE18B30B4BCD106CCC200BE3CCBC7C PUSH1 0x80 PUSH1 0x4 CALLDATALOAD SWAP3 LOG2 STOP JUMPDEST DUP3 SWAP1 PUSH1 0x20 DUP4 MLOAD SWAP4 ADD SWAP3 PUSH1 0x4 DUP3 DUP8 ADD ADD SSTORE ADD PUSH2 0x96D JUMP JUMPDEST DUP2 CALLDATALOAD DUP2 MSTORE PUSH1 0x20 SWAP2 DUP3 ADD SWAP2 ADD PUSH2 0x8C7 JUMP JUMPDEST CALLVALUE PUSH2 0x2C4 JUMPI PUSH0 CALLDATASIZE PUSH1 0x3 NOT ADD SLT PUSH2 0x2C4 JUMPI PUSH0 SLOAD PUSH1 0x40 MLOAD PUSH1 0x1 PUSH1 0x1 PUSH1 0xA0 SHL SUB SWAP1 SWAP2 AND DUP2 MSTORE PUSH1 0x20 SWAP1 RETURN JUMPDEST CALLVALUE PUSH2 0x2C4 JUMPI PUSH1 0x20 CALLDATASIZE PUSH1 0x3 NOT ADD SLT PUSH2 0x2C4 JUMPI PUSH2 0xAA9 PUSH2 0xFAF JUMP JUMPDEST PUSH2 0xAB1 PUSH2 0x1169 JUMP JUMPDEST PUSH1 0x1 PUSH1 0x1 PUSH1 0xA0 SHL SUB AND DUP1 ISZERO PUSH2 0xAF8 JUMPI PUSH1 0x2 DUP1 SLOAD PUSH1 0x1 PUSH1 0x1 PUSH1 0xA0 SHL SUB NOT AND DUP3 OR SWAP1 SSTORE PUSH32 0x7F759BB7C376F0473B5DC09CDF8F4AE2690C9E974451FFE15182E4BD02762817 PUSH0 DUP1 LOG2 STOP JUMPDEST PUSH1 0x40 MLOAD PUSH4 0xD92E233D PUSH1 0xE0 SHL DUP2 MSTORE PUSH1 0x4 SWAP1 REVERT JUMPDEST CALLVALUE PUSH2 0x2C4 JUMPI PUSH0 CALLDATASIZE PUSH1 0x3 NOT ADD SLT PUSH2 0x2C4 JUMPI PUSH1 0x20 PUSH1 0x5 SLOAD PUSH1 0x40 MLOAD SWAP1 DUP2 MSTORE RETURN JUMPDEST CALLVALUE PUSH2 0x2C4 JUMPI PUSH1 0x40 CALLDATASIZE PUSH1 0x3 NOT ADD SLT PUSH2 0x2C4 JUMPI PUSH2 0xB40 PUSH2 0xFAF JUMP JUMPDEST PUSH0 SLOAD PUSH1 0x24 CALLDATALOAD SWAP2 PUSH1 0x1 PUSH1 0x1 PUSH1 0xA0 SHL SUB SWAP2 DUP3 AND CALLER EQ DUP1 ISZERO PUSH2 0xBD1 JUMPI JUMPDEST ISZERO PUSH2 0xBBF JUMPI AND DUP1 ISZERO PUSH2 0xAF8 JUMPI DUP2 PUSH0 MSTORE PUSH1 0x7 PUSH1 0x20 MSTORE PUSH1 0x40 PUSH0 KECCAK256 SLOAD ISZERO PUSH2 0x2B2 JUMPI DUP1 PUSH0 MSTORE PUSH1 0x9 PUSH1 0x20 MSTORE PUSH1 0x40 PUSH0 KECCAK256 DUP3 PUSH0 MSTORE PUSH1 0x20 MSTORE PUSH1 0x40 PUSH0 KECCAK256 PUSH1 0x1 PUSH1 0xFF NOT DUP3 SLOAD AND OR SWAP1 SSTORE PUSH32 0x2D804E6C30C8899B7A9674452CDE17BA5179436B38435F83682756893341250 PUSH0 DUP1 LOG3 STOP JUMPDEST PUSH1 0x40 MLOAD PUSH4 0xEA8E4EB5 PUSH1 0xE0 SHL DUP2 MSTORE PUSH1 0x4 SWAP1 REVERT JUMPDEST POP CALLER PUSH0 MSTORE PUSH1 0x8 PUSH1 0x20 MSTORE PUSH1 0xFF PUSH1 0x40 PUSH0 KECCAK256 SLOAD AND PUSH2 0xB5A JUMP JUMPDEST CALLVALUE PUSH2 0x2C4 JUMPI PUSH1 0x20 CALLDATASIZE PUSH1 0x3 NOT ADD SLT PUSH2 0x2C4 JUMPI PUSH1 0x4 CALLDATALOAD DUP1 ISZERO ISZERO DUP1 SWAP2 SUB PUSH2 0x2C4 JUMPI PUSH1 0x20 PUSH32 0x96C7C52D2633FD0D21D074A0473310C093F5DF78FE2CCA20FCC5E70CFBE3CEB8 SWAP2 PUSH2 0xC31 PUSH2 0x1169 JUMP JUMPDEST PUSH1 0xFF NOT PUSH1 0x6 SLOAD AND PUSH1 0xFF DUP3 AND OR PUSH1 0x6 SSTORE PUSH1 0x40 MLOAD SWAP1 DUP2 MSTORE LOG1 STOP JUMPDEST CALLVALUE PUSH2 0x2C4 JUMPI PUSH1 0x20 CALLDATASIZE PUSH1 0x3 NOT ADD SLT PUSH2 0x2C4 JUMPI PUSH2 0xC62 PUSH2 0xFAF JUMP JUMPDEST PUSH2 0xC6A PUSH2 0x1169 JUMP JUMPDEST PUSH1 0x1 PUSH1 0x1 PUSH1 0xA0 SHL SUB AND DUP1 ISZERO PUSH2 0xAF8 JUMPI PUSH1 0x4 DUP1 SLOAD PUSH1 0x1 PUSH1 0x1 PUSH1 0xA0 SHL SUB NOT AND DUP3 OR SWAP1 SSTORE PUSH32 0x9351DC5D31A81008E0B50BB31A6BAFBBAC9887C5B59803F1178BE53004C0DC43 PUSH0 DUP1 LOG2 STOP JUMPDEST CALLVALUE PUSH2 0x2C4 JUMPI PUSH0 CALLDATASIZE PUSH1 0x3 NOT ADD SLT PUSH2 0x2C4 JUMPI PUSH2 0xCC9 PUSH2 0x1169 JUMP JUMPDEST PUSH0 DUP1 SLOAD PUSH1 0x1 PUSH1 0x1 PUSH1 0xA0 SHL SUB NOT DUP2 AND DUP3 SSTORE PUSH1 0x1 PUSH1 0x1 PUSH1 0xA0 SHL SUB AND PUSH32 0x8BE0079C531659141344CD1FD0A4F28419497F9722A3DAAFE3B4186F6B6457E0 DUP3 DUP1 LOG3 STOP JUMPDEST CALLVALUE PUSH2 0x2C4 JUMPI PUSH0 CALLDATASIZE PUSH1 0x3 NOT ADD SLT PUSH2 0x2C4 JUMPI PUSH1 0x3 SLOAD PUSH1 0x40 MLOAD PUSH1 0x1 PUSH1 0x1 PUSH1 0xA0 SHL SUB SWAP1 SWAP2 AND DUP2 MSTORE PUSH1 0x20 SWAP1 RETURN JUMPDEST CALLVALUE PUSH2 0x2C4 JUMPI PUSH1 0x20 CALLDATASIZE PUSH1 0x3 NOT ADD SLT PUSH2 0x2C4 JUMPI PUSH1 0x4 CALLDATALOAD PUSH0 MSTORE PUSH1 0x7 PUSH1 0x20 MSTORE PUSH2 0x180 PUSH1 0x40 PUSH0 KECCAK256 PUSH1 0xFF DUP2 SLOAD SWAP2 DUP2 PUSH1 0x1 DUP3 ADD SLOAD AND SWAP1 PUSH1 0x2 DUP2 ADD SLOAD PUSH1 0x3 DUP3 ADD SLOAD PUSH1 0xE DUP4 ADD SLOAD PUSH1 0xF DUP5 ADD SLOAD PUSH1 0x10 DUP6 ADD SLOAD SWAP2 PUSH1 0x11 DUP7 ADD SLOAD SWAP4 PUSH1 0x12 DUP8 ADD SLOAD SWAP6 PUSH2 0xDA3 PUSH1 0x14 PUSH1 0x13 DUP11 ADD SLOAD SWAP10 ADD SLOAD SWAP10 PUSH1 0x40 MLOAD SWAP13 DUP14 MSTORE PUSH1 0x20 DUP14 ADD SWAP1 PUSH2 0xFDB JUMP JUMPDEST PUSH1 0x40 DUP12 ADD MSTORE PUSH1 0x60 DUP11 ADD MSTORE PUSH1 0x80 DUP10 ADD MSTORE PUSH1 0xA0 DUP9 ADD MSTORE PUSH1 0xC0 DUP8 ADD MSTORE PUSH1 0xE0 DUP7 ADD MSTORE PUSH2 0x100 DUP6 ADD MSTORE PUSH2 0x120 DUP5 ADD MSTORE DUP2 DUP2 AND ISZERO ISZERO PUSH2 0x140 DUP5 ADD MSTORE PUSH1 0x8 SHR AND ISZERO ISZERO PUSH2 0x160 DUP3 ADD MSTORE RETURN JUMPDEST CALLVALUE PUSH2 0x2C4 JUMPI PUSH1 0x20 CALLDATASIZE PUSH1 0x3 NOT ADD SLT PUSH2 0x2C4 JUMPI PUSH1 0x1 PUSH1 0x1 PUSH1 0xA0 SHL SUB PUSH2 0xE07 PUSH2 0xFAF JUMP JUMPDEST AND PUSH0 MSTORE PUSH1 0x8 PUSH1 0x20 MSTORE PUSH1 0x20 PUSH1 0xFF PUSH1 0x40 PUSH0 KECCAK256 SLOAD AND PUSH1 0x40 MLOAD SWAP1 ISZERO ISZERO DUP2 MSTORE RETURN JUMPDEST CALLVALUE PUSH2 0x2C4 JUMPI PUSH1 0x40 CALLDATASIZE PUSH1 0x3 NOT ADD SLT PUSH2 0x2C4 JUMPI PUSH2 0xE3C PUSH2 0xFAF JUMP JUMPDEST PUSH1 0x24 CALLDATALOAD SWAP1 DUP2 ISZERO ISZERO SWAP1 DUP2 DUP4 SUB PUSH2 0x2C4 JUMPI PUSH2 0xE53 PUSH2 0x1169 JUMP JUMPDEST PUSH1 0x1 PUSH1 0x1 PUSH1 0xA0 SHL SUB AND SWAP2 DUP3 ISZERO PUSH2 0xAF8 JUMPI PUSH32 0x1EFF62A53441C7D0125C22F2A9A324E206B34EFA41E19469D7EFB9BB703D21A3 SWAP2 PUSH2 0xEA7 PUSH1 0x20 SWAP3 DUP6 PUSH0 MSTORE PUSH1 0x8 DUP5 MSTORE PUSH1 0x40 PUSH0 KECCAK256 SWAP1 PUSH1 0xFF DUP1 NOT DUP4 SLOAD AND SWAP2 ISZERO ISZERO AND OR SWAP1 SSTORE JUMP JUMPDEST PUSH1 0x40 MLOAD SWAP1 DUP2 MSTORE LOG2 STOP JUMPDEST CALLVALUE PUSH2 0x2C4 JUMPI PUSH1 0x20 CALLDATASIZE PUSH1 0x3 NOT ADD SLT PUSH2 0x2C4 JUMPI PUSH2 0xEC9 PUSH2 0xFAF JUMP JUMPDEST PUSH2 0xED1 PUSH2 0x1169 JUMP JUMPDEST PUSH1 0x1 PUSH1 0x1 PUSH1 0xA0 SHL SUB AND DUP1 ISZERO PUSH2 0xAF8 JUMPI PUSH1 0x3 DUP1 SLOAD PUSH1 0x1 PUSH1 0x1 PUSH1 0xA0 SHL SUB NOT AND DUP3 OR SWAP1 SSTORE PUSH32 0x25AF1D122CF03855B88F08AA0EA4EE4396852188F3664636BE56BC2F04C7201F PUSH0 DUP1 LOG2 STOP JUMPDEST CALLVALUE PUSH2 0x2C4 JUMPI PUSH0 CALLDATASIZE PUSH1 0x3 NOT ADD SLT PUSH2 0x2C4 JUMPI PUSH1 0x40 MLOAD PUSH32 0x0 PUSH1 0x1 PUSH1 0x1 PUSH1 0xA0 SHL SUB AND DUP2 MSTORE PUSH1 0x20 SWAP1 RETURN JUMPDEST CALLVALUE PUSH2 0x2C4 JUMPI PUSH1 0x20 CALLDATASIZE PUSH1 0x3 NOT ADD SLT PUSH2 0x2C4 JUMPI PUSH1 0x4 CALLDATALOAD SWAP1 PUSH4 0xFFFFFFFF PUSH1 0xE0 SHL DUP3 AND DUP1 SWAP3 SUB PUSH2 0x2C4 JUMPI PUSH1 0x20 SWAP2 PUSH4 0x2711897 PUSH1 0xE5 SHL DUP2 EQ SWAP1 DUP2 ISZERO PUSH2 0xF9E JUMPI JUMPDEST POP ISZERO ISZERO DUP2 MSTORE RETURN JUMPDEST PUSH4 0x1FFC9A7 PUSH1 0xE0 SHL EQ SWAP1 POP DUP4 PUSH2 0xF97 JUMP JUMPDEST PUSH1 0x4 CALLDATALOAD SWAP1 PUSH1 0x1 PUSH1 0x1 PUSH1 0xA0 SHL SUB DUP3 AND DUP3 SUB PUSH2 0x2C4 JUMPI JUMP JUMPDEST PUSH1 0x24 CALLDATALOAD SWAP1 PUSH1 0x1 PUSH1 0x1 PUSH1 0xA0 SHL SUB DUP3 AND DUP3 SUB PUSH2 0x2C4 JUMPI JUMP JUMPDEST SWAP1 PUSH1 0x8 DUP3 LT ISZERO PUSH2 0x29E JUMPI MSTORE JUMP JUMPDEST PUSH2 0x1A0 DUP2 ADD SWAP1 DUP2 LT PUSH8 0xFFFFFFFFFFFFFFFF DUP3 GT OR PUSH2 0x1005 JUMPI PUSH1 0x40 MSTORE JUMP JUMPDEST PUSH4 0x4E487B71 PUSH1 0xE0 SHL PUSH0 MSTORE PUSH1 0x41 PUSH1 0x4 MSTORE PUSH1 0x24 PUSH0 REVERT JUMPDEST PUSH8 0xFFFFFFFFFFFFFFFF DUP2 GT PUSH2 0x1005 JUMPI PUSH1 0x40 MSTORE JUMP JUMPDEST PUSH2 0x140 DUP2 ADD SWAP1 DUP2 LT PUSH8 0xFFFFFFFFFFFFFFFF DUP3 GT OR PUSH2 0x1005 JUMPI PUSH1 0x40 MSTORE JUMP JUMPDEST SWAP1 PUSH1 0x1F DUP1 NOT SWAP2 ADD AND DUP2 ADD SWAP1 DUP2 LT PUSH8 0xFFFFFFFFFFFFFFFF DUP3 GT OR PUSH2 0x1005 JUMPI PUSH1 0x40 MSTORE JUMP JUMPDEST DUP2 PUSH1 0x1F DUP3 ADD SLT ISZERO PUSH2 0x2C4 JUMPI DUP1 CALLDATALOAD SWAP2 PUSH1 0x20 SWAP2 PUSH8 0xFFFFFFFFFFFFFFFF DUP5 GT PUSH2 0x1005 JUMPI DUP4 PUSH1 0x5 SHL SWAP1 PUSH1 0x40 MLOAD SWAP5 PUSH2 0x10A1 DUP6 DUP5 ADD DUP8 PUSH2 0x104A JUMP JUMPDEST DUP6 MSTORE DUP4 DUP1 DUP7 ADD SWAP3 DUP3 ADD ADD SWAP3 DUP4 GT PUSH2 0x2C4 JUMPI DUP4 ADD SWAP1 JUMPDEST DUP3 DUP3 LT PUSH2 0x10C4 JUMPI POP POP POP POP SWAP1 JUMP JUMPDEST DUP2 CALLDATALOAD DUP2 MSTORE SWAP1 DUP4 ADD SWAP1 DUP4 ADD PUSH2 0x10B6 JUMP JUMPDEST DUP2 PUSH1 0x1F DUP3 ADD SLT ISZERO PUSH2 0x2C4 JUMPI DUP1 CALLDATALOAD SWAP1 PUSH8 0xFFFFFFFFFFFFFFFF DUP3 GT PUSH2 0x1005 JUMPI PUSH1 0x40 MLOAD SWAP3 PUSH2 0x1108 PUSH1 0x1F DUP5 ADD PUSH1 0x1F NOT AND PUSH1 0x20 ADD DUP6 PUSH2 0x104A JUMP JUMPDEST DUP3 DUP5 MSTORE PUSH1 0x20 DUP4 DUP4 ADD ADD GT PUSH2 0x2C4 JUMPI DUP2 PUSH0 SWAP3 PUSH1 0x20 DUP1 SWAP4 ADD DUP4 DUP7 ADD CALLDATACOPY DUP4 ADD ADD MSTORE SWAP1 JUMP JUMPDEST PUSH1 0x8 DUP3 LT ISZERO PUSH2 0x29E JUMPI MSTORE JUMP JUMPDEST PUSH1 0x40 MLOAD SWAP2 SWAP1 PUSH0 DUP4 JUMPDEST PUSH1 0xA DUP3 LT PUSH2 0x1153 JUMPI POP POP POP PUSH2 0x1151 DUP3 PUSH2 0x102D JUMP JUMPDEST JUMP JUMPDEST PUSH1 0x1 PUSH1 0x20 DUP2 SWAP3 DUP6 SLOAD DUP2 MSTORE ADD SWAP4 ADD SWAP2 ADD SWAP1 SWAP2 PUSH2 0x113D JUMP JUMPDEST PUSH0 SLOAD PUSH1 0x1 PUSH1 0x1 PUSH1 0xA0 SHL SUB AND CALLER SUB PUSH2 0x117C JUMPI JUMP JUMPDEST PUSH1 0x40 MLOAD PUSH4 0x118CDAA7 PUSH1 0xE0 SHL DUP2 MSTORE CALLER PUSH1 0x4 DUP3 ADD MSTORE PUSH1 0x24 SWAP1 REVERT JUMPDEST PUSH1 0x2 PUSH1 0x1 SLOAD EQ PUSH2 0x11A5 JUMPI PUSH1 0x2 PUSH1 0x1 SSTORE JUMP JUMPDEST PUSH1 0x40 MLOAD PUSH4 0x3EE5AEB5 PUSH1 0xE0 SHL DUP2 MSTORE PUSH1 0x4 SWAP1 REVERT JUMPDEST PUSH2 0x180 DUP2 ADD MLOAD ISZERO PUSH2 0x2B2 JUMPI DUP1 MLOAD ISZERO PUSH2 0x2B2 JUMPI PUSH2 0x160 DUP2 ADD MLOAD ISZERO ISZERO SWAP2 DUP3 PUSH2 0x11E0 JUMPI JUMPDEST POP POP PUSH2 0x2B2 JUMPI JUMP JUMPDEST SWAP1 SWAP2 POP PUSH1 0x1 DUP1 PUSH1 0xA0 SHL SUB AND PUSH0 MSTORE PUSH1 0x9 PUSH1 0x20 MSTORE PUSH1 0x40 PUSH0 KECCAK256 SWAP1 MLOAD PUSH0 MSTORE PUSH1 0x20 MSTORE PUSH1 0xFF PUSH1 0x40 PUSH0 KECCAK256 SLOAD AND ISZERO PUSH0 DUP1 PUSH2 0x11D8 JUMP JUMPDEST SWAP1 DUP2 PUSH1 0x20 SWAP2 SUB SLT PUSH2 0x2C4 JUMPI MLOAD PUSH1 0x1 PUSH1 0x1 PUSH1 0xA0 SHL SUB DUP2 AND DUP2 SUB PUSH2 0x2C4 JUMPI SWAP1 JUMP JUMPDEST SWAP1 PUSH1 0xA DUP2 LT ISZERO PUSH2 0x123D JUMPI PUSH1 0x5 SHL ADD SWAP1 JUMP JUMPDEST PUSH4 0x4E487B71 PUSH1 0xE0 SHL PUSH0 MSTORE PUSH1 0x32 PUSH1 0x4 MSTORE PUSH1 0x24 PUSH0 REVERT JUMPDEST PUSH1 0x40 DUP1 MLOAD PUSH4 0x5BC9316B PUSH1 0xE1 SHL DUP2 MSTORE SWAP1 SWAP3 SWAP2 PUSH1 0x4 SWAP2 SWAP1 PUSH1 0x1 PUSH1 0x1 PUSH1 0xA0 SHL SUB SWAP1 PUSH1 0x20 SWAP1 PUSH32 0x0 DUP4 AND DUP3 DUP6 DUP8 DUP2 DUP5 GAS STATICCALL SWAP5 DUP6 ISZERO PUSH2 0x155C JUMPI PUSH0 SWAP6 PUSH2 0x152D JUMPI JUMPDEST POP DUP8 MLOAD SWAP1 PUSH4 0x7633341 PUSH1 0xE2 SHL SWAP6 DUP7 DUP4 MSTORE DUP8 DUP4 ADD MSTORE PUSH1 0x24 SWAP2 DUP5 DUP2 PUSH1 0x24 DUP2 DUP6 GAS STATICCALL SWAP1 DUP2 ISZERO PUSH2 0x13D8 JUMPI SWAP1 DUP7 SWAP2 PUSH0 SWAP2 PUSH2 0x1510 JUMPI JUMPDEST POP AND SWAP6 DUP7 ISZERO PUSH2 0x1500 JUMPI DUP10 MLOAD PUSH4 0x53C7345D PUSH1 0xE0 SHL DUP2 MSTORE SWAP1 DUP6 DUP3 DUP11 DUP2 DUP7 GAS STATICCALL SWAP2 DUP3 ISZERO PUSH2 0x14F6 JUMPI SWAP1 DUP7 SWAP3 SWAP2 PUSH0 SWAP3 PUSH2 0x14C4 JUMPI JUMPDEST POP PUSH1 0x24 SWAP1 DUP13 MLOAD SWAP5 DUP6 SWAP4 DUP5 SWAP3 DUP4 MSTORE DUP13 DUP4 ADD MSTORE GAS STATICCALL SWAP1 DUP2 ISZERO PUSH2 0x14BA JUMPI SWAP1 DUP6 SWAP2 PUSH0 SWAP2 PUSH2 0x148D JUMPI JUMPDEST POP AND SWAP3 DUP4 ISZERO PUSH2 0x147D JUMPI PUSH0 JUMPDEST PUSH1 0xA DUP2 LT PUSH2 0x13E2 JUMPI POP POP PUSH0 JUMPDEST PUSH1 0xA DUP2 LT PUSH2 0x1357 JUMPI POP POP POP POP POP POP POP POP POP JUMP JUMPDEST PUSH2 0x1361 DUP2 DUP10 PUSH2 0x122C JUMP JUMPDEST MLOAD DUP1 PUSH2 0x1371 JUMPI JUMPDEST POP PUSH1 0x1 ADD PUSH2 0x1344 JUMP JUMPDEST DUP7 EXTCODESIZE ISZERO PUSH2 0x2C4 JUMPI DUP10 MLOAD SWAP1 PUSH4 0x79212195 PUSH1 0xE1 SHL DUP3 MSTORE DUP7 DUP6 AND DUP10 DUP4 ADD MSTORE DUP6 DUP5 DUP4 ADD MSTORE DUP3 PUSH1 0x44 DUP4 ADD MSTORE PUSH1 0x64 DUP3 ADD MSTORE PUSH1 0xA0 PUSH1 0x84 DUP3 ADD MSTORE PUSH0 PUSH1 0xA4 DUP3 ADD MSTORE PUSH0 DUP2 PUSH1 0xC4 DUP2 DUP4 DUP12 GAS CALL DUP1 ISZERO PUSH2 0x13D8 JUMPI SWAP1 PUSH1 0x1 SWAP3 SWAP2 PUSH2 0x13C9 JUMPI JUMPDEST POP SWAP1 PUSH2 0x1368 JUMP JUMPDEST PUSH2 0x13D2 SWAP1 PUSH2 0x1019 JUMP JUMPDEST PUSH0 PUSH2 0x13C2 JUMP JUMPDEST DUP11 MLOAD RETURNDATASIZE PUSH0 DUP3 RETURNDATACOPY RETURNDATASIZE SWAP1 REVERT JUMPDEST PUSH2 0x13EC DUP2 DUP11 PUSH2 0x122C JUMP JUMPDEST MLOAD DUP1 PUSH2 0x13FC JUMPI JUMPDEST POP PUSH1 0x1 ADD PUSH2 0x1338 JUMP JUMPDEST DUP11 MLOAD PUSH3 0x7EEAC7 PUSH1 0xE1 SHL DUP2 MSTORE DUP6 DUP9 AND DUP11 DUP3 ADD MSTORE DUP5 DUP2 ADD DUP4 SWAP1 MSTORE DUP4 DUP2 PUSH1 0x44 DUP2 DUP13 GAS STATICCALL SWAP1 DUP2 ISZERO PUSH2 0x1473 JUMPI PUSH0 SWAP2 PUSH2 0x1446 JUMPI JUMPDEST POP LT PUSH2 0x1436 JUMPI PUSH0 PUSH2 0x13F3 JUMP JUMPDEST DUP10 MLOAD PUSH4 0x2A9FFAB7 PUSH1 0xE2 SHL DUP2 MSTORE DUP9 SWAP1 REVERT JUMPDEST SWAP1 POP DUP4 DUP2 DUP2 RETURNDATASIZE DUP4 GT PUSH2 0x146C JUMPI JUMPDEST PUSH2 0x145D DUP2 DUP4 PUSH2 0x104A JUMP JUMPDEST DUP2 ADD SUB SLT PUSH2 0x2C4 JUMPI MLOAD PUSH0 PUSH2 0x142A JUMP JUMPDEST POP RETURNDATASIZE PUSH2 0x1453 JUMP JUMPDEST DUP13 MLOAD RETURNDATASIZE PUSH0 DUP3 RETURNDATACOPY RETURNDATASIZE SWAP1 REVERT JUMPDEST DUP9 MLOAD PUSH4 0x6B7C759 PUSH1 0xE3 SHL DUP2 MSTORE DUP8 SWAP1 REVERT JUMPDEST PUSH2 0x14AD SWAP2 POP DUP6 RETURNDATASIZE DUP8 GT PUSH2 0x14B3 JUMPI JUMPDEST PUSH2 0x14A5 DUP2 DUP4 PUSH2 0x104A JUMP JUMPDEST DUP2 ADD SWAP1 PUSH2 0x120D JUMP JUMPDEST PUSH0 PUSH2 0x132D JUMP JUMPDEST POP RETURNDATASIZE PUSH2 0x149B JUMP JUMPDEST DUP10 MLOAD RETURNDATASIZE PUSH0 DUP3 RETURNDATACOPY RETURNDATASIZE SWAP1 REVERT JUMPDEST DUP4 DUP2 SWAP5 SWAP3 SWAP4 POP RETURNDATASIZE DUP4 GT PUSH2 0x14EF JUMPI JUMPDEST PUSH2 0x14DC DUP2 DUP4 PUSH2 0x104A JUMP JUMPDEST DUP2 ADD SUB SLT PUSH2 0x2C4 JUMPI SWAP1 MLOAD DUP6 SWAP2 PUSH1 0x24 PUSH2 0x1309 JUMP JUMPDEST POP RETURNDATASIZE PUSH2 0x14D2 JUMP JUMPDEST DUP12 MLOAD RETURNDATASIZE PUSH0 DUP3 RETURNDATACOPY RETURNDATASIZE SWAP1 REVERT JUMPDEST DUP10 MLOAD PUSH4 0x6B7C759 PUSH1 0xE3 SHL DUP2 MSTORE DUP9 SWAP1 REVERT JUMPDEST PUSH2 0x1527 SWAP2 POP DUP7 RETURNDATASIZE DUP9 GT PUSH2 0x14B3 JUMPI PUSH2 0x14A5 DUP2 DUP4 PUSH2 0x104A JUMP JUMPDEST PUSH0 PUSH2 0x12DA JUMP JUMPDEST SWAP1 SWAP5 POP DUP3 DUP2 DUP2 RETURNDATASIZE DUP4 GT PUSH2 0x1555 JUMPI JUMPDEST PUSH2 0x1545 DUP2 DUP4 PUSH2 0x104A JUMP JUMPDEST DUP2 ADD SUB SLT PUSH2 0x2C4 JUMPI MLOAD SWAP4 PUSH0 PUSH2 0x12AA JUMP JUMPDEST POP RETURNDATASIZE PUSH2 0x153B JUMP JUMPDEST DUP9 MLOAD RETURNDATASIZE PUSH0 DUP3 RETURNDATACOPY RETURNDATASIZE SWAP1 REVERT JUMPDEST SWAP1 SWAP2 PUSH1 0x20 DUP4 ADD SWAP3 DUP4 MLOAD SWAP3 PUSH1 0x8 SWAP4 DUP5 DUP2 LT ISZERO PUSH2 0x29E JUMPI PUSH1 0x2 EQ PUSH2 0x168B JUMPI DUP5 MLOAD DUP5 DUP2 LT ISZERO PUSH2 0x29E JUMPI PUSH1 0x3 EQ PUSH2 0x160F JUMPI POP POP POP DUP2 MLOAD DUP2 DUP2 LT ISZERO PUSH2 0x29E JUMPI PUSH1 0x1 EQ SWAP2 DUP3 ISZERO PUSH2 0x15FA JUMPI JUMPDEST DUP3 ISZERO PUSH2 0x15E5 JUMPI JUMPDEST DUP3 ISZERO PUSH2 0x15D1 JUMPI JUMPDEST POP POP PUSH2 0x2B2 JUMPI PUSH1 0x40 MLOAD PUSH4 0x2A9FFAB7 PUSH1 0xE2 SHL DUP2 MSTORE PUSH1 0x4 SWAP1 REVERT JUMPDEST MLOAD SWAP2 POP DUP2 LT ISZERO PUSH2 0x29E JUMPI PUSH1 0x7 EQ PUSH0 DUP1 PUSH2 0x15B9 JUMP JUMPDEST DUP1 SWAP3 POP MLOAD DUP2 DUP2 LT ISZERO PUSH2 0x29E JUMPI PUSH1 0x6 EQ SWAP2 PUSH2 0x15B2 JUMP JUMPDEST DUP1 SWAP3 POP MLOAD DUP2 DUP2 LT ISZERO PUSH2 0x29E JUMPI PUSH1 0x5 EQ SWAP2 PUSH2 0x15AB JUMP JUMPDEST PUSH1 0x4 SLOAD SWAP3 SWAP5 POP SWAP1 SWAP3 POP SWAP1 PUSH1 0x1 PUSH1 0x1 PUSH1 0xA0 SHL SUB AND DUP1 ISZERO PUSH2 0x6B7 JUMPI PUSH1 0x60 PUSH1 0x40 DUP5 ADD MLOAD SWAP4 ADD MLOAD SWAP1 DUP1 EXTCODESIZE ISZERO PUSH2 0x2C4 JUMPI PUSH1 0x40 MLOAD PUSH4 0xA17CD41 PUSH1 0xE3 SHL DUP2 MSTORE PUSH1 0x1 PUSH1 0x1 PUSH1 0xA0 SHL SUB SWAP1 SWAP4 AND PUSH1 0x4 DUP5 ADD MSTORE PUSH1 0x24 DUP4 ADD SWAP4 SWAP1 SWAP4 MSTORE PUSH1 0x44 DUP3 ADD MSTORE SWAP1 PUSH0 SWAP1 DUP3 SWAP1 DUP2 DUP4 DUP2 PUSH1 0x64 DUP2 ADD JUMPDEST SUB SWAP3 GAS CALL DUP1 ISZERO PUSH2 0x6AC JUMPI PUSH2 0x1682 JUMPI POP JUMP JUMPDEST PUSH2 0x1151 SWAP1 PUSH2 0x1019 JUMP JUMPDEST PUSH1 0x3 SLOAD SWAP3 SWAP5 POP SWAP1 SWAP3 POP SWAP1 PUSH1 0x1 PUSH1 0x1 PUSH1 0xA0 SHL SUB AND DUP1 ISZERO PUSH2 0x6B7 JUMPI PUSH1 0x60 PUSH1 0x40 DUP5 ADD MLOAD SWAP4 ADD MLOAD SWAP1 DUP1 EXTCODESIZE ISZERO PUSH2 0x2C4 JUMPI PUSH1 0x40 MLOAD PUSH4 0xDAFB8905 PUSH1 0xE0 SHL DUP2 MSTORE PUSH1 0x1 PUSH1 0x1 PUSH1 0xA0 SHL SUB SWAP1 SWAP4 AND PUSH1 0x4 DUP5 ADD MSTORE PUSH1 0x24 DUP4 ADD SWAP4 SWAP1 SWAP4 MSTORE PUSH1 0x44 DUP3 ADD MSTORE SWAP1 PUSH0 SWAP1 DUP3 SWAP1 DUP2 DUP4 DUP2 PUSH1 0x64 DUP2 ADD PUSH2 0x1671 JUMP INVALID LOG2 PUSH5 0x6970667358 0x22 SLT KECCAK256 0xA5 0xCE 0xCD DUP4 ORIGIN PUSH9 0x6D9058C349630F6A03 MUL 0xB7 0xBD LOG0 SWAP10 LT CREATE2 0xEC 0xC4 0x1F 0x4C 0xC6 SWAP3 PUSH31 0x80F2C464736F6C634300081800330000000000000000000000000000000000 "},"methodIdentifiers":{"RESOURCE_COUNT()":"ca85a280","authorizedCallers(address)":"536fff6c","cityBlueprints()":"eedeed50","cityComponents()":"5ca5d2f4","cityConfig()":"0eac48f1","cityWeapons()":"ccde8c86","craft(uint256)":"f3917bd2","craftNonce()":"8c8f5855","craftWeapon(uint256,uint256,uint256,uint256,uint8,uint256,bool,bool)":"ca4a3db8","craftingPaused()":"c0f5adb3","discoverRecipe(address,uint256)":"88ef338b","getRecipeCosts(uint256)":"bbfdcb8b","onERC1155BatchReceived(address,address,uint256[],uint256[],bytes)":"bc197c81","onERC1155Received(address,address,uint256,uint256,bytes)":"f23a6e61","owner()":"8da5cb5b","recipeDiscoveredBy(address,uint256)":"bee1ffe4","recipeOf(uint256)":"5b7aae23","renounceOwnership()":"715018a6","setAuthorizedCaller(address,bool)":"454bbd29","setCityBlueprints(address)":"73960638","setCityComponents(address)":"34198180","setCityWeapons(address)":"8d8b6a67","setCraftingPaused(bool)":"79b20b92","setRecipe(uint256,uint8,uint256,uint256,uint256[10],uint256,uint256,uint256,uint256,uint256,uint256,bool,bool)":"a7c908eb","supportsInterface(bytes4)":"01ffc9a7","transferOwnership(address)":"f2fde38b"}}}}}