{"project/contracts/crafting/CityMaterialSystem.sol":{"CityMateriaSystem":{"abi":[{"inputs":[{"internalType":"address","name":"initialOwner","type":"address"},{"internalType":"address","name":"cityWeaponsAddress","type":"address"},{"internalType":"address","name":"cityWeaponSocketsAddress","type":"address"},{"internalType":"address","name":"cityMateriaItemsAddress","type":"address"}],"stateMutability":"nonpayable","type":"constructor"},{"inputs":[],"name":"InvalidValue","type":"error"},{"inputs":[],"name":"NotAuthorized","type":"error"},{"inputs":[],"name":"NotPlotOwner","type":"error"},{"inputs":[{"internalType":"address","name":"owner","type":"address"}],"name":"OwnableInvalidOwner","type":"error"},{"inputs":[{"internalType":"address","name":"account","type":"address"}],"name":"OwnableUnauthorizedAccount","type":"error"},{"inputs":[],"name":"ZeroAddress","type":"error"},{"anonymous":false,"inputs":[{"indexed":true,"internalType":"address","name":"caller","type":"address"},{"indexed":false,"internalType":"bool","name":"allowed","type":"bool"}],"name":"AuthorizedCallerSet","type":"event"},{"anonymous":false,"inputs":[{"indexed":true,"internalType":"address","name":"user","type":"address"},{"indexed":true,"internalType":"uint256","name":"weaponTokenId","type":"uint256"},{"indexed":true,"internalType":"uint256","name":"materiaItemId","type":"uint256"},{"indexed":false,"internalType":"uint256","name":"slotIndex","type":"uint256"},{"indexed":false,"internalType":"uint256","name":"materiaDefinitionId","type":"uint256"},{"indexed":false,"internalType":"uint256","name":"level","type":"uint256"},{"indexed":false,"internalType":"bool","name":"burned","type":"bool"}],"name":"MateriaItemApplied","type":"event"},{"anonymous":false,"inputs":[{"indexed":true,"internalType":"address","name":"user","type":"address"},{"indexed":true,"internalType":"uint256","name":"weaponTokenId","type":"uint256"},{"indexed":true,"internalType":"uint256","name":"slotIndex","type":"uint256"}],"name":"MateriaRemovedBySystem","type":"event"},{"anonymous":false,"inputs":[{"indexed":false,"internalType":"bool","name":"paused","type":"bool"}],"name":"MateriaSystemPausedSet","type":"event"},{"anonymous":false,"inputs":[{"indexed":true,"internalType":"address","name":"previousOwner","type":"address"},{"indexed":true,"internalType":"address","name":"newOwner","type":"address"}],"name":"OwnershipTransferred","type":"event"},{"inputs":[{"internalType":"address","name":"user","type":"address"},{"internalType":"uint256","name":"weaponTokenId","type":"uint256"},{"internalType":"uint256","name":"slotIndex","type":"uint256"},{"internalType":"uint256","name":"materiaItemId","type":"uint256"}],"name":"adminApplyMateriaItem","outputs":[],"stateMutability":"nonpayable","type":"function"},{"inputs":[{"internalType":"uint256","name":"weaponTokenId","type":"uint256"},{"internalType":"uint256","name":"slotIndex","type":"uint256"}],"name":"adminRemoveMateriaFromSlot","outputs":[],"stateMutability":"nonpayable","type":"function"},{"inputs":[{"internalType":"uint256","name":"weaponTokenId","type":"uint256"},{"internalType":"uint256","name":"slotIndex","type":"uint256"},{"internalType":"uint256","name":"materiaItemId","type":"uint256"}],"name":"applyMateriaItem","outputs":[],"stateMutability":"nonpayable","type":"function"},{"inputs":[{"internalType":"address","name":"","type":"address"}],"name":"authorizedCallers","outputs":[{"internalType":"bool","name":"","type":"bool"}],"stateMutability":"view","type":"function"},{"inputs":[],"name":"cityMateriaItems","outputs":[{"internalType":"contract ICityMateriaItems","name":"","type":"address"}],"stateMutability":"view","type":"function"},{"inputs":[],"name":"cityWeaponSockets","outputs":[{"internalType":"contract CityWeaponSockets","name":"","type":"address"}],"stateMutability":"view","type":"function"},{"inputs":[],"name":"cityWeapons","outputs":[{"internalType":"contract CityWeapons","name":"","type":"address"}],"stateMutability":"view","type":"function"},{"inputs":[],"name":"materiaSystemPaused","outputs":[{"internalType":"bool","name":"","type":"bool"}],"stateMutability":"view","type":"function"},{"inputs":[],"name":"owner","outputs":[{"internalType":"address","name":"","type":"address"}],"stateMutability":"view","type":"function"},{"inputs":[{"internalType":"uint256","name":"weaponTokenId","type":"uint256"},{"internalType":"uint256","name":"slotIndex","type":"uint256"}],"name":"removeMateriaFromSlot","outputs":[],"stateMutability":"nonpayable","type":"function"},{"inputs":[],"name":"renounceOwnership","outputs":[],"stateMutability":"nonpayable","type":"function"},{"inputs":[{"internalType":"address","name":"caller","type":"address"},{"internalType":"bool","name":"allowed","type":"bool"}],"name":"setAuthorizedCaller","outputs":[],"stateMutability":"nonpayable","type":"function"},{"inputs":[{"internalType":"bool","name":"paused","type":"bool"}],"name":"setMateriaSystemPaused","outputs":[],"stateMutability":"nonpayable","type":"function"},{"inputs":[{"internalType":"address","name":"newOwner","type":"address"}],"name":"transferOwnership","outputs":[],"stateMutability":"nonpayable","type":"function"}],"evm":{"bytecode":{"linkReferences":{},"object":"60e03461018657601f62000ed738819003918201601f19168301916001600160401b0383118484101761018a57808492608094604052833981010312610186576100488161019e565b906100556020820161019e565b9061006e60606100676040840161019e565b920161019e565b6001600160a01b0393909290841690811561016e575f80546001600160a01b03198116841782556040519387939290918416907f8be0079c531659141344cd1fd0a4f28419497f9722a3daafe3b4186f6b6457e09080a3169081158015610164575b801561015a575b61014b5750608052821660a0521660c052604051610d249081620001b38239608051818181610485015281816107940152610c46015260a0518181816101890152818161028c01528181610563015281816107c80152610a96015260c05181818161021c0152818161050401526107100152f35b63d92e233d60e01b8152600490fd5b50848416156100d7565b50848316156100d0565b604051631e4fbdf760e01b81525f6004820152602490fd5b5f80fd5b634e487b7160e01b5f52604160045260245ffd5b51906001600160a01b03821682036101865756fe6080604081815260049182361015610015575f80fd5b5f925f3560e01c9182633b834f6b14610a6c57508163454bbd29146109d7578163536fff6c14610999578163715018a61461093d5781637949422e146108d65781637bee41831461073f5781638802bf96146106fb5781638da5cb5b146106d3578163b2cb43d5146104b4578163ccde8c8614610470578163e41e4106146101b8578163e962593214610174578163f2fde38b146100e2575063f5e8e8c5146100bc575f80fd5b346100de57816003193601126100de5760209060ff6002541690519015158152f35b5080fd5b905034610170576020366003190112610170576100fd610b5e565b90610106610cc3565b6001600160a01b0391821692831561015a5750505f54826bffffffffffffffffffffffff60a01b8216175f55167f8be0079c531659141344cd1fd0a4f28419497f9722a3daafe3b4186f6b6457e05f80a380f35b51631e4fbdf760e01b8152908101849052602490fd5b8280fd5b5050346100de57816003193601126100de57517f00000000000000000000000000000000000000000000000000000000000000006001600160a01b03168152602090f35b905034610170576080366003190112610170576101d3610b5e565b835460643593602435936001600160a01b0392604435919084163314801561045b575b1561044d5760ff6002541661043f57838516948515610430576102199087610c1f565b837f000000000000000000000000000000000000000000000000000000000000000016928051916306178a6160e41b8352888184015260a083602481885afa958615610426578a958b978c958d916103e5575b50156103cd57861580156103dd575b6103cd57908b929185610367575b507f000000000000000000000000000000000000000000000000000000000000000016803b1561017057835163755a968160e01b81529182018a81526020810187905260408101889052606081018990528391839182908490829060800103925af1801561035d57610341575b50505191825260208201929092526040810192909252151560608201527f5a52bbe87e722df78edef07258e90d2f8035c1f74c459938d4109b3841e0b4c29080608081015b0390a480f35b61034d90939293610b74565b6103595790885f6102f6565b8880fd5b83513d84823e3d90fd5b803b156103c957838c60648c8389519586948593632c81f8b360e01b85528a8501526024840152600160448401525af180156103bf579084916103ab575b50610289565b6103b490610b74565b61017057825f6103a5565b85513d86823e3d90fd5b8380fd5b8351632a9ffab760e21b81528390fd5b50871561027b565b92985050955061040e91935060a03d60a01161041f575b6104068183610b9c565b810190610bea565b95939098929791509697945f61026c565b503d6103fc565b82513d8c823e3d90fd5b50825163d92e233d60e01b8152fd5b8251632a9ffab760e21b8152fd5b825163ea8e4eb560e01b8152fd5b50338852600160205260ff83892054166101f6565b5050346100de57816003193601126100de57517f00000000000000000000000000000000000000000000000000000000000000006001600160a01b03168152602090f35b90503461017057606036600319011261017057803590602435906044359360ff600254166106c6576104e63385610c1f565b80516306178a6160e41b8152828101869052916001600160a01b03917f000000000000000000000000000000000000000000000000000000000000000083169160a085602481865afa9384156106bc5789938a958b978c9161068b575b50156103cd5784158015610683575b6103cd57908a92918761062a575b507f000000000000000000000000000000000000000000000000000000000000000016803b1561017057835163755a968160e01b81529182018981526020810189905260408101869052606081018790528391839182908490829060800103925af1801561035d57610612575b505051938452602084015260408301521515606082015233907f5a52bbe87e722df78edef07258e90d2f8035c1f74c459938d4109b3841e0b4c290806080810161033b565b61061b90610b74565b61062657875f6105cd565b8780fd5b803b156103c95783809160648d88519485938492632c81f8b360e01b8452338a8501526024840152600160448401525af180156103bf5790849161066f575b50610560565b61067890610b74565b61017057825f610669565b508515610552565b9296505093506106ab91955060a03d60a01161041f576104068183610b9c565b97939096929591509495965f610543565b82513d8b823e3d90fd5b51632a9ffab760e21b8152fd5b5050346100de57816003193601126100de57905490516001600160a01b039091168152602090f35b5050346100de57816003193601126100de57517f00000000000000000000000000000000000000000000000000000000000000006001600160a01b03168152602090f35b919050346101705761075036610b48565b92909160018060a01b039182865416331480156108c1575b156108b35760ff600254166108a55785908251926331a9108f60e11b84528582850152602084602481887f0000000000000000000000000000000000000000000000000000000000000000165afa93841561089b57839461086a575b50847f00000000000000000000000000000000000000000000000000000000000000001691823b156103c95786604485928385519687948593637bf5548160e01b85528401528c60248401525af19081156108615750610849575b5050167f89d3de73df7f71960b76a303fb3bb61ff57d6438f9487b808e90f51d07a7c3198480a480f35b61085290610b74565b61085d57845f61081f565b8480fd5b513d84823e3d90fd5b61088d91945060203d602011610894575b6108858183610b9c565b810190610bbe565b925f6107c4565b503d61087b565b81513d85823e3d90fd5b9051632a9ffab760e21b8152fd5b905163ea8e4eb560e01b8152fd5b50338652600160205260ff8287205416610768565b905034610170576020366003190112610170573590811515809203610939577fa31d06d50c4b08c2c7c9c54ca5859c5d38640c43300aeceb243f76223534a99791602091610922610cc3565b60ff196002541660ff83161760025551908152a180f35b5f80fd5b8334610996578060031936011261099657610956610cc3565b5f80546001600160a01b0319811682556001600160a01b03167f8be0079c531659141344cd1fd0a4f28419497f9722a3daafe3b4186f6b6457e08280a380f35b80fd5b5050346100de5760203660031901126100de5760209160ff9082906001600160a01b036109c4610b5e565b1681526001855220541690519015158152f35b919050346101705780600319360112610170576109f2610b5e565b906024359182151580930361093957610a09610cc3565b6001600160a01b0316928315610a5e57507f1eff62a53441c7d0125c22f2a9a324e206b34efa41e19469d7efb9bb703d21a3916020918486526001835280862060ff1981541660ff841617905551908152a280f35b905163d92e233d60e01b8152fd5b91503461093957610a7c36610b48565b93909260ff60025416610b3a5750610a943384610c1f565b7f00000000000000000000000000000000000000000000000000000000000000006001600160a01b031691823b15610939578360445f928385519687948593637bf5548160e01b85528401528960248401525af1908115610b315750610b1e575b50337f89d3de73df7f71960b76a303fb3bb61ff57d6438f9487b808e90f51d07a7c3198480a480f35b610b29919350610b74565b5f915f610af5565b513d5f823e3d90fd5b632a9ffab760e21b81529050fd5b6040906003190112610939576004359060243590565b600435906001600160a01b038216820361093957565b67ffffffffffffffff8111610b8857604052565b634e487b7160e01b5f52604160045260245ffd5b90601f8019910116810190811067ffffffffffffffff821117610b8857604052565b9081602091031261093957516001600160a01b03811681036109395790565b5190811515820361093957565b908160a091031261093957805191602082015191604081015191610c1c6080610c1560608501610bdd565b9301610bdd565b90565b6040516331a9108f60e11b81526004810191909152906001600160a01b03906020836024817f000000000000000000000000000000000000000000000000000000000000000086165afa928315610cb8575f93610c95575b508116911603610c8357565b60405163f583bd1560e01b8152600490fd5b82919350610cb19060203d602011610894576108858183610b9c565b9290610c77565b6040513d5f823e3d90fd5b5f546001600160a01b03163303610cd657565b60405163118cdaa760e01b8152336004820152602490fdfea264697066735822122017c5f2f156097d18032374d29431e301ee4250da14a733132e3bbc0bda3acea464736f6c63430008180033","opcodes":"PUSH1 0xE0 CALLVALUE PUSH2 0x186 JUMPI PUSH1 0x1F PUSH3 0xED7 CODESIZE DUP2 SWAP1 SUB SWAP2 DUP3 ADD PUSH1 0x1F NOT AND DUP4 ADD SWAP2 PUSH1 0x1 PUSH1 0x1 PUSH1 0x40 SHL SUB DUP4 GT DUP5 DUP5 LT OR PUSH2 0x18A JUMPI DUP1 DUP5 SWAP3 PUSH1 0x80 SWAP5 PUSH1 0x40 MSTORE DUP4 CODECOPY DUP2 ADD SUB SLT PUSH2 0x186 JUMPI PUSH2 0x48 DUP2 PUSH2 0x19E JUMP JUMPDEST SWAP1 PUSH2 0x55 PUSH1 0x20 DUP3 ADD PUSH2 0x19E JUMP JUMPDEST SWAP1 PUSH2 0x6E PUSH1 0x60 PUSH2 0x67 PUSH1 0x40 DUP5 ADD PUSH2 0x19E JUMP JUMPDEST SWAP3 ADD PUSH2 0x19E JUMP JUMPDEST PUSH1 0x1 PUSH1 0x1 PUSH1 0xA0 SHL SUB SWAP4 SWAP1 SWAP3 SWAP1 DUP5 AND SWAP1 DUP2 ISZERO PUSH2 0x16E JUMPI PUSH0 DUP1 SLOAD PUSH1 0x1 PUSH1 0x1 PUSH1 0xA0 SHL SUB NOT DUP2 AND DUP5 OR DUP3 SSTORE PUSH1 0x40 MLOAD SWAP4 DUP8 SWAP4 SWAP3 SWAP1 SWAP2 DUP5 AND SWAP1 PUSH32 0x8BE0079C531659141344CD1FD0A4F28419497F9722A3DAAFE3B4186F6B6457E0 SWAP1 DUP1 LOG3 AND SWAP1 DUP2 ISZERO DUP1 ISZERO PUSH2 0x164 JUMPI JUMPDEST DUP1 ISZERO PUSH2 0x15A JUMPI JUMPDEST PUSH2 0x14B JUMPI POP PUSH1 0x80 MSTORE DUP3 AND PUSH1 0xA0 MSTORE AND PUSH1 0xC0 MSTORE PUSH1 0x40 MLOAD PUSH2 0xD24 SWAP1 DUP2 PUSH3 0x1B3 DUP3 CODECOPY PUSH1 0x80 MLOAD DUP2 DUP2 DUP2 PUSH2 0x485 ADD MSTORE DUP2 DUP2 PUSH2 0x794 ADD MSTORE PUSH2 0xC46 ADD MSTORE PUSH1 0xA0 MLOAD DUP2 DUP2 DUP2 PUSH2 0x189 ADD MSTORE DUP2 DUP2 PUSH2 0x28C ADD MSTORE DUP2 DUP2 PUSH2 0x563 ADD MSTORE DUP2 DUP2 PUSH2 0x7C8 ADD MSTORE PUSH2 0xA96 ADD MSTORE PUSH1 0xC0 MLOAD DUP2 DUP2 DUP2 PUSH2 0x21C ADD MSTORE DUP2 DUP2 PUSH2 0x504 ADD MSTORE PUSH2 0x710 ADD MSTORE RETURN JUMPDEST PUSH4 0xD92E233D PUSH1 0xE0 SHL DUP2 MSTORE PUSH1 0x4 SWAP1 REVERT JUMPDEST POP DUP5 DUP5 AND ISZERO PUSH2 0xD7 JUMP JUMPDEST POP DUP5 DUP4 AND ISZERO PUSH2 0xD0 JUMP JUMPDEST PUSH1 0x40 MLOAD PUSH4 0x1E4FBDF7 PUSH1 0xE0 SHL DUP2 MSTORE PUSH0 PUSH1 0x4 DUP3 ADD MSTORE PUSH1 0x24 SWAP1 REVERT JUMPDEST PUSH0 DUP1 REVERT JUMPDEST PUSH4 0x4E487B71 PUSH1 0xE0 SHL PUSH0 MSTORE PUSH1 0x41 PUSH1 0x4 MSTORE PUSH1 0x24 PUSH0 REVERT JUMPDEST MLOAD SWAP1 PUSH1 0x1 PUSH1 0x1 PUSH1 0xA0 SHL SUB DUP3 AND DUP3 SUB PUSH2 0x186 JUMPI JUMP INVALID PUSH1 0x80 PUSH1 0x40 DUP2 DUP2 MSTORE PUSH1 0x4 SWAP2 DUP3 CALLDATASIZE LT ISZERO PUSH2 0x15 JUMPI PUSH0 DUP1 REVERT JUMPDEST PUSH0 SWAP3 PUSH0 CALLDATALOAD PUSH1 0xE0 SHR SWAP2 DUP3 PUSH4 0x3B834F6B EQ PUSH2 0xA6C JUMPI POP DUP2 PUSH4 0x454BBD29 EQ PUSH2 0x9D7 JUMPI DUP2 PUSH4 0x536FFF6C EQ PUSH2 0x999 JUMPI DUP2 PUSH4 0x715018A6 EQ PUSH2 0x93D JUMPI DUP2 PUSH4 0x7949422E EQ PUSH2 0x8D6 JUMPI DUP2 PUSH4 0x7BEE4183 EQ PUSH2 0x73F JUMPI DUP2 PUSH4 0x8802BF96 EQ PUSH2 0x6FB JUMPI DUP2 PUSH4 0x8DA5CB5B EQ PUSH2 0x6D3 JUMPI DUP2 PUSH4 0xB2CB43D5 EQ PUSH2 0x4B4 JUMPI DUP2 PUSH4 0xCCDE8C86 EQ PUSH2 0x470 JUMPI DUP2 PUSH4 0xE41E4106 EQ PUSH2 0x1B8 JUMPI DUP2 PUSH4 0xE9625932 EQ PUSH2 0x174 JUMPI DUP2 PUSH4 0xF2FDE38B EQ PUSH2 0xE2 JUMPI POP PUSH4 0xF5E8E8C5 EQ PUSH2 0xBC JUMPI PUSH0 DUP1 REVERT JUMPDEST CALLVALUE PUSH2 0xDE JUMPI DUP2 PUSH1 0x3 NOT CALLDATASIZE ADD SLT PUSH2 0xDE JUMPI PUSH1 0x20 SWAP1 PUSH1 0xFF PUSH1 0x2 SLOAD AND SWAP1 MLOAD SWAP1 ISZERO ISZERO DUP2 MSTORE RETURN JUMPDEST POP DUP1 REVERT JUMPDEST SWAP1 POP CALLVALUE PUSH2 0x170 JUMPI PUSH1 0x20 CALLDATASIZE PUSH1 0x3 NOT ADD SLT PUSH2 0x170 JUMPI PUSH2 0xFD PUSH2 0xB5E JUMP JUMPDEST SWAP1 PUSH2 0x106 PUSH2 0xCC3 JUMP JUMPDEST PUSH1 0x1 PUSH1 0x1 PUSH1 0xA0 SHL SUB SWAP2 DUP3 AND SWAP3 DUP4 ISZERO PUSH2 0x15A JUMPI POP POP PUSH0 SLOAD DUP3 PUSH12 0xFFFFFFFFFFFFFFFFFFFFFFFF PUSH1 0xA0 SHL DUP3 AND OR PUSH0 SSTORE AND PUSH32 0x8BE0079C531659141344CD1FD0A4F28419497F9722A3DAAFE3B4186F6B6457E0 PUSH0 DUP1 LOG3 DUP1 RETURN JUMPDEST MLOAD PUSH4 0x1E4FBDF7 PUSH1 0xE0 SHL DUP2 MSTORE SWAP1 DUP2 ADD DUP5 SWAP1 MSTORE PUSH1 0x24 SWAP1 REVERT JUMPDEST DUP3 DUP1 REVERT JUMPDEST POP POP CALLVALUE PUSH2 0xDE JUMPI DUP2 PUSH1 0x3 NOT CALLDATASIZE ADD SLT PUSH2 0xDE JUMPI MLOAD PUSH32 0x0 PUSH1 0x1 PUSH1 0x1 PUSH1 0xA0 SHL SUB AND DUP2 MSTORE PUSH1 0x20 SWAP1 RETURN JUMPDEST SWAP1 POP CALLVALUE PUSH2 0x170 JUMPI PUSH1 0x80 CALLDATASIZE PUSH1 0x3 NOT ADD SLT PUSH2 0x170 JUMPI PUSH2 0x1D3 PUSH2 0xB5E JUMP JUMPDEST DUP4 SLOAD PUSH1 0x64 CALLDATALOAD SWAP4 PUSH1 0x24 CALLDATALOAD SWAP4 PUSH1 0x1 PUSH1 0x1 PUSH1 0xA0 SHL SUB SWAP3 PUSH1 0x44 CALLDATALOAD SWAP2 SWAP1 DUP5 AND CALLER EQ DUP1 ISZERO PUSH2 0x45B JUMPI JUMPDEST ISZERO PUSH2 0x44D JUMPI PUSH1 0xFF PUSH1 0x2 SLOAD AND PUSH2 0x43F JUMPI DUP4 DUP6 AND SWAP5 DUP6 ISZERO PUSH2 0x430 JUMPI PUSH2 0x219 SWAP1 DUP8 PUSH2 0xC1F JUMP JUMPDEST DUP4 PUSH32 0x0 AND SWAP3 DUP1 MLOAD SWAP2 PUSH4 0x6178A61 PUSH1 0xE4 SHL DUP4 MSTORE DUP9 DUP2 DUP5 ADD MSTORE PUSH1 0xA0 DUP4 PUSH1 0x24 DUP2 DUP9 GAS STATICCALL SWAP6 DUP7 ISZERO PUSH2 0x426 JUMPI DUP11 SWAP6 DUP12 SWAP8 DUP13 SWAP6 DUP14 SWAP2 PUSH2 0x3E5 JUMPI JUMPDEST POP ISZERO PUSH2 0x3CD JUMPI DUP7 ISZERO DUP1 ISZERO PUSH2 0x3DD JUMPI JUMPDEST PUSH2 0x3CD JUMPI SWAP1 DUP12 SWAP3 SWAP2 DUP6 PUSH2 0x367 JUMPI JUMPDEST POP PUSH32 0x0 AND DUP1 EXTCODESIZE ISZERO PUSH2 0x170 JUMPI DUP4 MLOAD PUSH4 0x755A9681 PUSH1 0xE0 SHL DUP2 MSTORE SWAP2 DUP3 ADD DUP11 DUP2 MSTORE PUSH1 0x20 DUP2 ADD DUP8 SWAP1 MSTORE PUSH1 0x40 DUP2 ADD DUP9 SWAP1 MSTORE PUSH1 0x60 DUP2 ADD DUP10 SWAP1 MSTORE DUP4 SWAP2 DUP4 SWAP2 DUP3 SWAP1 DUP5 SWAP1 DUP3 SWAP1 PUSH1 0x80 ADD SUB SWAP3 GAS CALL DUP1 ISZERO PUSH2 0x35D JUMPI PUSH2 0x341 JUMPI JUMPDEST POP POP MLOAD SWAP2 DUP3 MSTORE PUSH1 0x20 DUP3 ADD SWAP3 SWAP1 SWAP3 MSTORE PUSH1 0x40 DUP2 ADD SWAP3 SWAP1 SWAP3 MSTORE ISZERO ISZERO PUSH1 0x60 DUP3 ADD MSTORE PUSH32 0x5A52BBE87E722DF78EDEF07258E90D2F8035C1F74C459938D4109B3841E0B4C2 SWAP1 DUP1 PUSH1 0x80 DUP2 ADD JUMPDEST SUB SWAP1 LOG4 DUP1 RETURN JUMPDEST PUSH2 0x34D SWAP1 SWAP4 SWAP3 SWAP4 PUSH2 0xB74 JUMP JUMPDEST PUSH2 0x359 JUMPI SWAP1 DUP9 PUSH0 PUSH2 0x2F6 JUMP JUMPDEST DUP9 DUP1 REVERT JUMPDEST DUP4 MLOAD RETURNDATASIZE DUP5 DUP3 RETURNDATACOPY RETURNDATASIZE SWAP1 REVERT JUMPDEST DUP1 EXTCODESIZE ISZERO PUSH2 0x3C9 JUMPI DUP4 DUP13 PUSH1 0x64 DUP13 DUP4 DUP10 MLOAD SWAP6 DUP7 SWAP5 DUP6 SWAP4 PUSH4 0x2C81F8B3 PUSH1 0xE0 SHL DUP6 MSTORE DUP11 DUP6 ADD MSTORE PUSH1 0x24 DUP5 ADD MSTORE PUSH1 0x1 PUSH1 0x44 DUP5 ADD MSTORE GAS CALL DUP1 ISZERO PUSH2 0x3BF JUMPI SWAP1 DUP5 SWAP2 PUSH2 0x3AB JUMPI JUMPDEST POP PUSH2 0x289 JUMP JUMPDEST PUSH2 0x3B4 SWAP1 PUSH2 0xB74 JUMP JUMPDEST PUSH2 0x170 JUMPI DUP3 PUSH0 PUSH2 0x3A5 JUMP JUMPDEST DUP6 MLOAD RETURNDATASIZE DUP7 DUP3 RETURNDATACOPY RETURNDATASIZE SWAP1 REVERT JUMPDEST DUP4 DUP1 REVERT JUMPDEST DUP4 MLOAD PUSH4 0x2A9FFAB7 PUSH1 0xE2 SHL DUP2 MSTORE DUP4 SWAP1 REVERT JUMPDEST POP DUP8 ISZERO PUSH2 0x27B JUMP JUMPDEST SWAP3 SWAP9 POP POP SWAP6 POP PUSH2 0x40E SWAP2 SWAP4 POP PUSH1 0xA0 RETURNDATASIZE PUSH1 0xA0 GT PUSH2 0x41F JUMPI JUMPDEST PUSH2 0x406 DUP2 DUP4 PUSH2 0xB9C JUMP JUMPDEST DUP2 ADD SWAP1 PUSH2 0xBEA JUMP JUMPDEST SWAP6 SWAP4 SWAP1 SWAP9 SWAP3 SWAP8 SWAP2 POP SWAP7 SWAP8 SWAP5 PUSH0 PUSH2 0x26C JUMP JUMPDEST POP RETURNDATASIZE PUSH2 0x3FC JUMP JUMPDEST DUP3 MLOAD RETURNDATASIZE DUP13 DUP3 RETURNDATACOPY RETURNDATASIZE SWAP1 REVERT JUMPDEST POP DUP3 MLOAD PUSH4 0xD92E233D PUSH1 0xE0 SHL DUP2 MSTORE REVERT JUMPDEST DUP3 MLOAD PUSH4 0x2A9FFAB7 PUSH1 0xE2 SHL DUP2 MSTORE REVERT JUMPDEST DUP3 MLOAD PUSH4 0xEA8E4EB5 PUSH1 0xE0 SHL DUP2 MSTORE REVERT JUMPDEST POP CALLER DUP9 MSTORE PUSH1 0x1 PUSH1 0x20 MSTORE PUSH1 0xFF DUP4 DUP10 KECCAK256 SLOAD AND PUSH2 0x1F6 JUMP JUMPDEST POP POP CALLVALUE PUSH2 0xDE JUMPI DUP2 PUSH1 0x3 NOT CALLDATASIZE ADD SLT PUSH2 0xDE JUMPI MLOAD PUSH32 0x0 PUSH1 0x1 PUSH1 0x1 PUSH1 0xA0 SHL SUB AND DUP2 MSTORE PUSH1 0x20 SWAP1 RETURN JUMPDEST SWAP1 POP CALLVALUE PUSH2 0x170 JUMPI PUSH1 0x60 CALLDATASIZE PUSH1 0x3 NOT ADD SLT PUSH2 0x170 JUMPI DUP1 CALLDATALOAD SWAP1 PUSH1 0x24 CALLDATALOAD SWAP1 PUSH1 0x44 CALLDATALOAD SWAP4 PUSH1 0xFF PUSH1 0x2 SLOAD AND PUSH2 0x6C6 JUMPI PUSH2 0x4E6 CALLER DUP6 PUSH2 0xC1F JUMP JUMPDEST DUP1 MLOAD PUSH4 0x6178A61 PUSH1 0xE4 SHL DUP2 MSTORE DUP3 DUP2 ADD DUP7 SWAP1 MSTORE SWAP2 PUSH1 0x1 PUSH1 0x1 PUSH1 0xA0 SHL SUB SWAP2 PUSH32 0x0 DUP4 AND SWAP2 PUSH1 0xA0 DUP6 PUSH1 0x24 DUP2 DUP7 GAS STATICCALL SWAP4 DUP5 ISZERO PUSH2 0x6BC JUMPI DUP10 SWAP4 DUP11 SWAP6 DUP12 SWAP8 DUP13 SWAP2 PUSH2 0x68B JUMPI JUMPDEST POP ISZERO PUSH2 0x3CD JUMPI DUP5 ISZERO DUP1 ISZERO PUSH2 0x683 JUMPI JUMPDEST PUSH2 0x3CD JUMPI SWAP1 DUP11 SWAP3 SWAP2 DUP8 PUSH2 0x62A JUMPI JUMPDEST POP PUSH32 0x0 AND DUP1 EXTCODESIZE ISZERO PUSH2 0x170 JUMPI DUP4 MLOAD PUSH4 0x755A9681 PUSH1 0xE0 SHL DUP2 MSTORE SWAP2 DUP3 ADD DUP10 DUP2 MSTORE PUSH1 0x20 DUP2 ADD DUP10 SWAP1 MSTORE PUSH1 0x40 DUP2 ADD DUP7 SWAP1 MSTORE PUSH1 0x60 DUP2 ADD DUP8 SWAP1 MSTORE DUP4 SWAP2 DUP4 SWAP2 DUP3 SWAP1 DUP5 SWAP1 DUP3 SWAP1 PUSH1 0x80 ADD SUB SWAP3 GAS CALL DUP1 ISZERO PUSH2 0x35D JUMPI PUSH2 0x612 JUMPI JUMPDEST POP POP MLOAD SWAP4 DUP5 MSTORE PUSH1 0x20 DUP5 ADD MSTORE PUSH1 0x40 DUP4 ADD MSTORE ISZERO ISZERO PUSH1 0x60 DUP3 ADD MSTORE CALLER SWAP1 PUSH32 0x5A52BBE87E722DF78EDEF07258E90D2F8035C1F74C459938D4109B3841E0B4C2 SWAP1 DUP1 PUSH1 0x80 DUP2 ADD PUSH2 0x33B JUMP JUMPDEST PUSH2 0x61B SWAP1 PUSH2 0xB74 JUMP JUMPDEST PUSH2 0x626 JUMPI DUP8 PUSH0 PUSH2 0x5CD JUMP JUMPDEST DUP8 DUP1 REVERT JUMPDEST DUP1 EXTCODESIZE ISZERO PUSH2 0x3C9 JUMPI DUP4 DUP1 SWAP2 PUSH1 0x64 DUP14 DUP9 MLOAD SWAP5 DUP6 SWAP4 DUP5 SWAP3 PUSH4 0x2C81F8B3 PUSH1 0xE0 SHL DUP5 MSTORE CALLER DUP11 DUP6 ADD MSTORE PUSH1 0x24 DUP5 ADD MSTORE PUSH1 0x1 PUSH1 0x44 DUP5 ADD MSTORE GAS CALL DUP1 ISZERO PUSH2 0x3BF JUMPI SWAP1 DUP5 SWAP2 PUSH2 0x66F JUMPI JUMPDEST POP PUSH2 0x560 JUMP JUMPDEST PUSH2 0x678 SWAP1 PUSH2 0xB74 JUMP JUMPDEST PUSH2 0x170 JUMPI DUP3 PUSH0 PUSH2 0x669 JUMP JUMPDEST POP DUP6 ISZERO PUSH2 0x552 JUMP JUMPDEST SWAP3 SWAP7 POP POP SWAP4 POP PUSH2 0x6AB SWAP2 SWAP6 POP PUSH1 0xA0 RETURNDATASIZE PUSH1 0xA0 GT PUSH2 0x41F JUMPI PUSH2 0x406 DUP2 DUP4 PUSH2 0xB9C JUMP JUMPDEST SWAP8 SWAP4 SWAP1 SWAP7 SWAP3 SWAP6 SWAP2 POP SWAP5 SWAP6 SWAP7 PUSH0 PUSH2 0x543 JUMP JUMPDEST DUP3 MLOAD RETURNDATASIZE DUP12 DUP3 RETURNDATACOPY RETURNDATASIZE SWAP1 REVERT JUMPDEST MLOAD PUSH4 0x2A9FFAB7 PUSH1 0xE2 SHL DUP2 MSTORE REVERT JUMPDEST POP POP CALLVALUE PUSH2 0xDE JUMPI DUP2 PUSH1 0x3 NOT CALLDATASIZE ADD SLT PUSH2 0xDE JUMPI SWAP1 SLOAD SWAP1 MLOAD PUSH1 0x1 PUSH1 0x1 PUSH1 0xA0 SHL SUB SWAP1 SWAP2 AND DUP2 MSTORE PUSH1 0x20 SWAP1 RETURN JUMPDEST POP POP CALLVALUE PUSH2 0xDE JUMPI DUP2 PUSH1 0x3 NOT CALLDATASIZE ADD SLT PUSH2 0xDE JUMPI MLOAD PUSH32 0x0 PUSH1 0x1 PUSH1 0x1 PUSH1 0xA0 SHL SUB AND DUP2 MSTORE PUSH1 0x20 SWAP1 RETURN JUMPDEST SWAP2 SWAP1 POP CALLVALUE PUSH2 0x170 JUMPI PUSH2 0x750 CALLDATASIZE PUSH2 0xB48 JUMP JUMPDEST SWAP3 SWAP1 SWAP2 PUSH1 0x1 DUP1 PUSH1 0xA0 SHL SUB SWAP2 DUP3 DUP7 SLOAD AND CALLER EQ DUP1 ISZERO PUSH2 0x8C1 JUMPI JUMPDEST ISZERO PUSH2 0x8B3 JUMPI PUSH1 0xFF PUSH1 0x2 SLOAD AND PUSH2 0x8A5 JUMPI DUP6 SWAP1 DUP3 MLOAD SWAP3 PUSH4 0x31A9108F PUSH1 0xE1 SHL DUP5 MSTORE DUP6 DUP3 DUP6 ADD MSTORE PUSH1 0x20 DUP5 PUSH1 0x24 DUP2 DUP9 PUSH32 0x0 AND GAS STATICCALL SWAP4 DUP5 ISZERO PUSH2 0x89B JUMPI DUP4 SWAP5 PUSH2 0x86A JUMPI JUMPDEST POP DUP5 PUSH32 0x0 AND SWAP2 DUP3 EXTCODESIZE ISZERO PUSH2 0x3C9 JUMPI DUP7 PUSH1 0x44 DUP6 SWAP3 DUP4 DUP6 MLOAD SWAP7 DUP8 SWAP5 DUP6 SWAP4 PUSH4 0x7BF55481 PUSH1 0xE0 SHL DUP6 MSTORE DUP5 ADD MSTORE DUP13 PUSH1 0x24 DUP5 ADD MSTORE GAS CALL SWAP1 DUP2 ISZERO PUSH2 0x861 JUMPI POP PUSH2 0x849 JUMPI JUMPDEST POP POP AND PUSH32 0x89D3DE73DF7F71960B76A303FB3BB61FF57D6438F9487B808E90F51D07A7C319 DUP5 DUP1 LOG4 DUP1 RETURN JUMPDEST PUSH2 0x852 SWAP1 PUSH2 0xB74 JUMP JUMPDEST PUSH2 0x85D JUMPI DUP5 PUSH0 PUSH2 0x81F JUMP JUMPDEST DUP5 DUP1 REVERT JUMPDEST MLOAD RETURNDATASIZE DUP5 DUP3 RETURNDATACOPY RETURNDATASIZE SWAP1 REVERT JUMPDEST PUSH2 0x88D SWAP2 SWAP5 POP PUSH1 0x20 RETURNDATASIZE PUSH1 0x20 GT PUSH2 0x894 JUMPI JUMPDEST PUSH2 0x885 DUP2 DUP4 PUSH2 0xB9C JUMP JUMPDEST DUP2 ADD SWAP1 PUSH2 0xBBE JUMP JUMPDEST SWAP3 PUSH0 PUSH2 0x7C4 JUMP JUMPDEST POP RETURNDATASIZE PUSH2 0x87B JUMP JUMPDEST DUP2 MLOAD RETURNDATASIZE DUP6 DUP3 RETURNDATACOPY RETURNDATASIZE SWAP1 REVERT JUMPDEST SWAP1 MLOAD PUSH4 0x2A9FFAB7 PUSH1 0xE2 SHL DUP2 MSTORE REVERT JUMPDEST SWAP1 MLOAD PUSH4 0xEA8E4EB5 PUSH1 0xE0 SHL DUP2 MSTORE REVERT JUMPDEST POP CALLER DUP7 MSTORE PUSH1 0x1 PUSH1 0x20 MSTORE PUSH1 0xFF DUP3 DUP8 KECCAK256 SLOAD AND PUSH2 0x768 JUMP JUMPDEST SWAP1 POP CALLVALUE PUSH2 0x170 JUMPI PUSH1 0x20 CALLDATASIZE PUSH1 0x3 NOT ADD SLT PUSH2 0x170 JUMPI CALLDATALOAD SWAP1 DUP2 ISZERO ISZERO DUP1 SWAP3 SUB PUSH2 0x939 JUMPI PUSH32 0xA31D06D50C4B08C2C7C9C54CA5859C5D38640C43300AECEB243F76223534A997 SWAP2 PUSH1 0x20 SWAP2 PUSH2 0x922 PUSH2 0xCC3 JUMP JUMPDEST PUSH1 0xFF NOT PUSH1 0x2 SLOAD AND PUSH1 0xFF DUP4 AND OR PUSH1 0x2 SSTORE MLOAD SWAP1 DUP2 MSTORE LOG1 DUP1 RETURN JUMPDEST PUSH0 DUP1 REVERT JUMPDEST DUP4 CALLVALUE PUSH2 0x996 JUMPI DUP1 PUSH1 0x3 NOT CALLDATASIZE ADD SLT PUSH2 0x996 JUMPI PUSH2 0x956 PUSH2 0xCC3 JUMP JUMPDEST PUSH0 DUP1 SLOAD PUSH1 0x1 PUSH1 0x1 PUSH1 0xA0 SHL SUB NOT DUP2 AND DUP3 SSTORE PUSH1 0x1 PUSH1 0x1 PUSH1 0xA0 SHL SUB AND PUSH32 0x8BE0079C531659141344CD1FD0A4F28419497F9722A3DAAFE3B4186F6B6457E0 DUP3 DUP1 LOG3 DUP1 RETURN JUMPDEST DUP1 REVERT JUMPDEST POP POP CALLVALUE PUSH2 0xDE JUMPI PUSH1 0x20 CALLDATASIZE PUSH1 0x3 NOT ADD SLT PUSH2 0xDE JUMPI PUSH1 0x20 SWAP2 PUSH1 0xFF SWAP1 DUP3 SWAP1 PUSH1 0x1 PUSH1 0x1 PUSH1 0xA0 SHL SUB PUSH2 0x9C4 PUSH2 0xB5E JUMP JUMPDEST AND DUP2 MSTORE PUSH1 0x1 DUP6 MSTORE KECCAK256 SLOAD AND SWAP1 MLOAD SWAP1 ISZERO ISZERO DUP2 MSTORE RETURN JUMPDEST SWAP2 SWAP1 POP CALLVALUE PUSH2 0x170 JUMPI DUP1 PUSH1 0x3 NOT CALLDATASIZE ADD SLT PUSH2 0x170 JUMPI PUSH2 0x9F2 PUSH2 0xB5E JUMP JUMPDEST SWAP1 PUSH1 0x24 CALLDATALOAD SWAP2 DUP3 ISZERO ISZERO DUP1 SWAP4 SUB PUSH2 0x939 JUMPI PUSH2 0xA09 PUSH2 0xCC3 JUMP JUMPDEST PUSH1 0x1 PUSH1 0x1 PUSH1 0xA0 SHL SUB AND SWAP3 DUP4 ISZERO PUSH2 0xA5E JUMPI POP PUSH32 0x1EFF62A53441C7D0125C22F2A9A324E206B34EFA41E19469D7EFB9BB703D21A3 SWAP2 PUSH1 0x20 SWAP2 DUP5 DUP7 MSTORE PUSH1 0x1 DUP4 MSTORE DUP1 DUP7 KECCAK256 PUSH1 0xFF NOT DUP2 SLOAD AND PUSH1 0xFF DUP5 AND OR SWAP1 SSTORE MLOAD SWAP1 DUP2 MSTORE LOG2 DUP1 RETURN JUMPDEST SWAP1 MLOAD PUSH4 0xD92E233D PUSH1 0xE0 SHL DUP2 MSTORE REVERT JUMPDEST SWAP2 POP CALLVALUE PUSH2 0x939 JUMPI PUSH2 0xA7C CALLDATASIZE PUSH2 0xB48 JUMP JUMPDEST SWAP4 SWAP1 SWAP3 PUSH1 0xFF PUSH1 0x2 SLOAD AND PUSH2 0xB3A JUMPI POP PUSH2 0xA94 CALLER DUP5 PUSH2 0xC1F JUMP JUMPDEST PUSH32 0x0 PUSH1 0x1 PUSH1 0x1 PUSH1 0xA0 SHL SUB AND SWAP2 DUP3 EXTCODESIZE ISZERO PUSH2 0x939 JUMPI DUP4 PUSH1 0x44 PUSH0 SWAP3 DUP4 DUP6 MLOAD SWAP7 DUP8 SWAP5 DUP6 SWAP4 PUSH4 0x7BF55481 PUSH1 0xE0 SHL DUP6 MSTORE DUP5 ADD MSTORE DUP10 PUSH1 0x24 DUP5 ADD MSTORE GAS CALL SWAP1 DUP2 ISZERO PUSH2 0xB31 JUMPI POP PUSH2 0xB1E JUMPI JUMPDEST POP CALLER PUSH32 0x89D3DE73DF7F71960B76A303FB3BB61FF57D6438F9487B808E90F51D07A7C319 DUP5 DUP1 LOG4 DUP1 RETURN JUMPDEST PUSH2 0xB29 SWAP2 SWAP4 POP PUSH2 0xB74 JUMP JUMPDEST PUSH0 SWAP2 PUSH0 PUSH2 0xAF5 JUMP JUMPDEST MLOAD RETURNDATASIZE PUSH0 DUP3 RETURNDATACOPY RETURNDATASIZE SWAP1 REVERT JUMPDEST PUSH4 0x2A9FFAB7 PUSH1 0xE2 SHL DUP2 MSTORE SWAP1 POP REVERT JUMPDEST PUSH1 0x40 SWAP1 PUSH1 0x3 NOT ADD SLT PUSH2 0x939 JUMPI PUSH1 0x4 CALLDATALOAD SWAP1 PUSH1 0x24 CALLDATALOAD SWAP1 JUMP JUMPDEST PUSH1 0x4 CALLDATALOAD SWAP1 PUSH1 0x1 PUSH1 0x1 PUSH1 0xA0 SHL SUB DUP3 AND DUP3 SUB PUSH2 0x939 JUMPI JUMP JUMPDEST PUSH8 0xFFFFFFFFFFFFFFFF DUP2 GT PUSH2 0xB88 JUMPI PUSH1 0x40 MSTORE JUMP JUMPDEST PUSH4 0x4E487B71 PUSH1 0xE0 SHL PUSH0 MSTORE PUSH1 0x41 PUSH1 0x4 MSTORE PUSH1 0x24 PUSH0 REVERT JUMPDEST SWAP1 PUSH1 0x1F DUP1 NOT SWAP2 ADD AND DUP2 ADD SWAP1 DUP2 LT PUSH8 0xFFFFFFFFFFFFFFFF DUP3 GT OR PUSH2 0xB88 JUMPI PUSH1 0x40 MSTORE JUMP JUMPDEST SWAP1 DUP2 PUSH1 0x20 SWAP2 SUB SLT PUSH2 0x939 JUMPI MLOAD PUSH1 0x1 PUSH1 0x1 PUSH1 0xA0 SHL SUB DUP2 AND DUP2 SUB PUSH2 0x939 JUMPI SWAP1 JUMP JUMPDEST MLOAD SWAP1 DUP2 ISZERO ISZERO DUP3 SUB PUSH2 0x939 JUMPI JUMP JUMPDEST SWAP1 DUP2 PUSH1 0xA0 SWAP2 SUB SLT PUSH2 0x939 JUMPI DUP1 MLOAD SWAP2 PUSH1 0x20 DUP3 ADD MLOAD SWAP2 PUSH1 0x40 DUP2 ADD MLOAD SWAP2 PUSH2 0xC1C PUSH1 0x80 PUSH2 0xC15 PUSH1 0x60 DUP6 ADD PUSH2 0xBDD JUMP JUMPDEST SWAP4 ADD PUSH2 0xBDD JUMP JUMPDEST SWAP1 JUMP JUMPDEST PUSH1 0x40 MLOAD PUSH4 0x31A9108F PUSH1 0xE1 SHL DUP2 MSTORE PUSH1 0x4 DUP2 ADD SWAP2 SWAP1 SWAP2 MSTORE SWAP1 PUSH1 0x1 PUSH1 0x1 PUSH1 0xA0 SHL SUB SWAP1 PUSH1 0x20 DUP4 PUSH1 0x24 DUP2 PUSH32 0x0 DUP7 AND GAS STATICCALL SWAP3 DUP4 ISZERO PUSH2 0xCB8 JUMPI PUSH0 SWAP4 PUSH2 0xC95 JUMPI JUMPDEST POP DUP2 AND SWAP2 AND SUB PUSH2 0xC83 JUMPI JUMP JUMPDEST PUSH1 0x40 MLOAD PUSH4 0xF583BD15 PUSH1 0xE0 SHL DUP2 MSTORE PUSH1 0x4 SWAP1 REVERT JUMPDEST DUP3 SWAP2 SWAP4 POP PUSH2 0xCB1 SWAP1 PUSH1 0x20 RETURNDATASIZE PUSH1 0x20 GT PUSH2 0x894 JUMPI PUSH2 0x885 DUP2 DUP4 PUSH2 0xB9C JUMP JUMPDEST SWAP3 SWAP1 PUSH2 0xC77 JUMP JUMPDEST PUSH1 0x40 MLOAD RETURNDATASIZE PUSH0 DUP3 RETURNDATACOPY RETURNDATASIZE SWAP1 REVERT JUMPDEST PUSH0 SLOAD PUSH1 0x1 PUSH1 0x1 PUSH1 0xA0 SHL SUB AND CALLER SUB PUSH2 0xCD6 JUMPI JUMP JUMPDEST PUSH1 0x40 MLOAD PUSH4 0x118CDAA7 PUSH1 0xE0 SHL DUP2 MSTORE CALLER PUSH1 0x4 DUP3 ADD MSTORE PUSH1 0x24 SWAP1 REVERT INVALID LOG2 PUSH5 0x6970667358 0x22 SLT KECCAK256 OR 0xC5 CALLCODE CALL JUMP MULMOD PUSH30 0x18032374D29431E301EE4250DA14A733132E3BBC0BDA3ACEA464736F6C63 NUMBER STOP ADDMOD XOR STOP CALLER "},"methodIdentifiers":{"adminApplyMateriaItem(address,uint256,uint256,uint256)":"e41e4106","adminRemoveMateriaFromSlot(uint256,uint256)":"7bee4183","applyMateriaItem(uint256,uint256,uint256)":"b2cb43d5","authorizedCallers(address)":"536fff6c","cityMateriaItems()":"8802bf96","cityWeaponSockets()":"e9625932","cityWeapons()":"ccde8c86","materiaSystemPaused()":"f5e8e8c5","owner()":"8da5cb5b","removeMateriaFromSlot(uint256,uint256)":"3b834f6b","renounceOwnership()":"715018a6","setAuthorizedCaller(address,bool)":"454bbd29","setMateriaSystemPaused(bool)":"7949422e","transferOwnership(address)":"f2fde38b"}}}}}