{"project/contracts/crafting/CityWeapons.sol":{"CityWeapons":{"abi":[{"inputs":[{"internalType":"address","name":"initialOwner","type":"address"}],"stateMutability":"nonpayable","type":"constructor"},{"inputs":[{"internalType":"address","name":"sender","type":"address"},{"internalType":"uint256","name":"tokenId","type":"uint256"},{"internalType":"address","name":"owner","type":"address"}],"name":"ERC721IncorrectOwner","type":"error"},{"inputs":[{"internalType":"address","name":"operator","type":"address"},{"internalType":"uint256","name":"tokenId","type":"uint256"}],"name":"ERC721InsufficientApproval","type":"error"},{"inputs":[{"internalType":"address","name":"approver","type":"address"}],"name":"ERC721InvalidApprover","type":"error"},{"inputs":[{"internalType":"address","name":"operator","type":"address"}],"name":"ERC721InvalidOperator","type":"error"},{"inputs":[{"internalType":"address","name":"owner","type":"address"}],"name":"ERC721InvalidOwner","type":"error"},{"inputs":[{"internalType":"address","name":"receiver","type":"address"}],"name":"ERC721InvalidReceiver","type":"error"},{"inputs":[{"internalType":"address","name":"sender","type":"address"}],"name":"ERC721InvalidSender","type":"error"},{"inputs":[{"internalType":"uint256","name":"tokenId","type":"uint256"}],"name":"ERC721NonexistentToken","type":"error"},{"inputs":[],"name":"InvalidValue","type":"error"},{"inputs":[],"name":"NotAuthorized","type":"error"},{"inputs":[{"internalType":"address","name":"owner","type":"address"}],"name":"OwnableInvalidOwner","type":"error"},{"inputs":[{"internalType":"address","name":"account","type":"address"}],"name":"OwnableUnauthorizedAccount","type":"error"},{"inputs":[],"name":"ZeroAddress","type":"error"},{"anonymous":false,"inputs":[{"indexed":true,"internalType":"address","name":"owner","type":"address"},{"indexed":true,"internalType":"address","name":"approved","type":"address"},{"indexed":true,"internalType":"uint256","name":"tokenId","type":"uint256"}],"name":"Approval","type":"event"},{"anonymous":false,"inputs":[{"indexed":true,"internalType":"address","name":"owner","type":"address"},{"indexed":true,"internalType":"address","name":"operator","type":"address"},{"indexed":false,"internalType":"bool","name":"approved","type":"bool"}],"name":"ApprovalForAll","type":"event"},{"anonymous":false,"inputs":[{"indexed":true,"internalType":"address","name":"minter","type":"address"},{"indexed":false,"internalType":"bool","name":"allowed","type":"bool"}],"name":"AuthorizedMinterSet","type":"event"},{"anonymous":false,"inputs":[{"indexed":false,"internalType":"string","name":"newBaseURI","type":"string"}],"name":"BaseURISet","type":"event"},{"anonymous":false,"inputs":[{"indexed":true,"internalType":"address","name":"previousOwner","type":"address"},{"indexed":true,"internalType":"address","name":"newOwner","type":"address"}],"name":"OwnershipTransferred","type":"event"},{"anonymous":false,"inputs":[{"indexed":true,"internalType":"address","name":"from","type":"address"},{"indexed":true,"internalType":"address","name":"to","type":"address"},{"indexed":true,"internalType":"uint256","name":"tokenId","type":"uint256"}],"name":"Transfer","type":"event"},{"anonymous":false,"inputs":[{"indexed":true,"internalType":"uint256","name":"tokenId","type":"uint256"}],"name":"WeaponBonusesSet","type":"event"},{"anonymous":false,"inputs":[{"indexed":true,"internalType":"uint256","name":"weaponDefinitionId","type":"uint256"},{"indexed":false,"internalType":"string","name":"name","type":"string"},{"indexed":false,"internalType":"enum CityWeapons.WeaponClass","name":"class","type":"uint8"},{"indexed":false,"internalType":"enum CityWeapons.DamageType","name":"damageType","type":"uint8"},{"indexed":false,"internalType":"uint256","name":"techTier","type":"uint256"},{"indexed":false,"internalType":"bool","name":"enabled","type":"bool"}],"name":"WeaponDefinitionSet","type":"event"},{"anonymous":false,"inputs":[{"indexed":true,"internalType":"uint256","name":"tokenId","type":"uint256"},{"indexed":false,"internalType":"uint256","name":"durability","type":"uint256"}],"name":"WeaponDurabilitySet","type":"event"},{"anonymous":false,"inputs":[{"indexed":true,"internalType":"uint256","name":"tokenId","type":"uint256"},{"indexed":false,"internalType":"uint256","name":"metadataRevision","type":"uint256"}],"name":"WeaponMetadataRevisionSet","type":"event"},{"anonymous":false,"inputs":[{"indexed":true,"internalType":"uint256","name":"tokenId","type":"uint256"},{"indexed":true,"internalType":"address","name":"to","type":"address"},{"indexed":true,"internalType":"uint256","name":"weaponDefinitionId","type":"uint256"},{"indexed":false,"internalType":"bytes32","name":"craftSeed","type":"bytes32"},{"indexed":false,"internalType":"bytes32","name":"provenanceHash","type":"bytes32"}],"name":"WeaponMinted","type":"event"},{"anonymous":false,"inputs":[{"indexed":true,"internalType":"uint256","name":"tokenId","type":"uint256"},{"indexed":false,"internalType":"uint256","name":"upgradeLevel","type":"uint256"}],"name":"WeaponUpgradeLevelSet","type":"event"},{"inputs":[{"internalType":"address","name":"to","type":"address"},{"internalType":"uint256","name":"tokenId","type":"uint256"}],"name":"approve","outputs":[],"stateMutability":"nonpayable","type":"function"},{"inputs":[{"internalType":"address","name":"","type":"address"}],"name":"authorizedMinters","outputs":[{"internalType":"bool","name":"","type":"bool"}],"stateMutability":"view","type":"function"},{"inputs":[{"internalType":"address","name":"owner","type":"address"}],"name":"balanceOf","outputs":[{"internalType":"uint256","name":"","type":"uint256"}],"stateMutability":"view","type":"function"},{"inputs":[],"name":"baseTokenURI","outputs":[{"internalType":"string","name":"","type":"string"}],"stateMutability":"view","type":"function"},{"inputs":[{"internalType":"address","name":"crafter","type":"address"},{"internalType":"uint256","name":"weaponDefinitionId","type":"uint256"},{"internalType":"uint256","name":"originPlotId","type":"uint256"},{"internalType":"uint256","name":"originFaction","type":"uint256"},{"internalType":"uint256","name":"originDistrictKind","type":"uint256"},{"internalType":"uint256","name":"resonanceType","type":"uint256"},{"internalType":"uint256","name":"nonce","type":"uint256"}],"name":"computeCraftSeed","outputs":[{"internalType":"bytes32","name":"","type":"bytes32"}],"stateMutability":"view","type":"function"},{"inputs":[{"internalType":"uint256","name":"weaponDefinitionId","type":"uint256"},{"internalType":"uint256","name":"rarityTier","type":"uint256"},{"internalType":"uint256","name":"frameTier","type":"uint256"},{"internalType":"uint256","name":"resonanceType","type":"uint256"},{"internalType":"uint256","name":"visualVariant","type":"uint256"},{"internalType":"bytes32","name":"craftSeed","type":"bytes32"},{"internalType":"uint256","name":"originPlotId","type":"uint256"},{"internalType":"uint256","name":"upgradeLevel","type":"uint256"}],"name":"computeProvenanceHash","outputs":[{"internalType":"bytes32","name":"","type":"bytes32"}],"stateMutability":"pure","type":"function"},{"inputs":[{"internalType":"uint256","name":"tokenId","type":"uint256"}],"name":"getApproved","outputs":[{"internalType":"address","name":"","type":"address"}],"stateMutability":"view","type":"function"},{"inputs":[{"internalType":"uint256","name":"tokenId","type":"uint256"}],"name":"getCombatProfile","outputs":[{"components":[{"internalType":"uint256","name":"minDamage","type":"uint256"},{"internalType":"uint256","name":"maxDamage","type":"uint256"},{"internalType":"uint256","name":"attackSpeed","type":"uint256"},{"internalType":"uint256","name":"baseDps","type":"uint256"},{"internalType":"uint256","name":"critChanceBps","type":"uint256"},{"internalType":"uint256","name":"critMultiplierBps","type":"uint256"},{"internalType":"uint256","name":"accuracyBps","type":"uint256"},{"internalType":"uint256","name":"range","type":"uint256"},{"internalType":"uint256","name":"durability","type":"uint256"},{"internalType":"uint256","name":"maxDurability","type":"uint256"},{"internalType":"uint256","name":"armorPenBps","type":"uint256"},{"internalType":"uint256","name":"blockChanceBps","type":"uint256"},{"internalType":"uint256","name":"lifeStealBps","type":"uint256"},{"internalType":"uint256","name":"energyCost","type":"uint256"},{"internalType":"uint256","name":"heatGeneration","type":"uint256"},{"internalType":"uint256","name":"stability","type":"uint256"},{"internalType":"uint256","name":"cooldownMs","type":"uint256"},{"internalType":"uint256","name":"projectileSpeed","type":"uint256"},{"internalType":"uint256","name":"aoeRadius","type":"uint256"},{"internalType":"uint256","name":"enchantmentSlots","type":"uint256"},{"internalType":"uint256","name":"materiaSlots","type":"uint256"},{"internalType":"uint256","name":"upgradeLevel","type":"uint256"},{"internalType":"uint256","name":"maxUpgradeLevel","type":"uint256"}],"internalType":"struct CityWeapons.CombatProfile","name":"profile","type":"tuple"}],"stateMutability":"view","type":"function"},{"inputs":[{"internalType":"uint256","name":"tokenId","type":"uint256"}],"name":"getWeaponStats","outputs":[{"components":[{"internalType":"uint256","name":"id","type":"uint256"},{"internalType":"string","name":"name","type":"string"},{"internalType":"enum CityWeapons.WeaponClass","name":"class","type":"uint8"},{"internalType":"enum CityWeapons.DamageType","name":"damageType","type":"uint8"},{"internalType":"uint256","name":"techTier","type":"uint256"},{"internalType":"uint256","name":"requiredLevel","type":"uint256"},{"internalType":"uint256","name":"requiredTechTier","type":"uint256"},{"internalType":"uint256","name":"minDamage","type":"uint256"},{"internalType":"uint256","name":"maxDamage","type":"uint256"},{"internalType":"uint256","name":"attackSpeed","type":"uint256"},{"internalType":"uint256","name":"critChanceBps","type":"uint256"},{"internalType":"uint256","name":"critMultiplierBps","type":"uint256"},{"internalType":"uint256","name":"accuracyBps","type":"uint256"},{"internalType":"uint256","name":"range","type":"uint256"},{"internalType":"uint256","name":"maxDurability","type":"uint256"},{"internalType":"uint256","name":"armorPenBps","type":"uint256"},{"internalType":"uint256","name":"blockChanceBps","type":"uint256"},{"internalType":"uint256","name":"lifeStealBps","type":"uint256"},{"internalType":"uint256","name":"energyCost","type":"uint256"},{"internalType":"uint256","name":"heatGeneration","type":"uint256"},{"internalType":"uint256","name":"stability","type":"uint256"},{"internalType":"uint256","name":"cooldownMs","type":"uint256"},{"internalType":"uint256","name":"projectileSpeed","type":"uint256"},{"internalType":"uint256","name":"aoeRadius","type":"uint256"},{"internalType":"uint256","name":"enchantmentSlots","type":"uint256"},{"internalType":"uint256","name":"materiaSlots","type":"uint256"},{"internalType":"uint256","name":"visualVariant","type":"uint256"},{"internalType":"uint256","name":"maxUpgradeLevel","type":"uint256"},{"internalType":"uint256","name":"familySetId","type":"uint256"},{"internalType":"bool","name":"enabled","type":"bool"}],"internalType":"struct CityWeapons.WeaponDefinition","name":"def","type":"tuple"},{"components":[{"internalType":"uint256","name":"tokenId","type":"uint256"},{"internalType":"uint256","name":"weaponDefinitionId","type":"uint256"},{"internalType":"uint256","name":"rarityTier","type":"uint256"},{"internalType":"uint256","name":"frameTier","type":"uint256"},{"internalType":"uint256","name":"durability","type":"uint256"},{"internalType":"uint256","name":"upgradeLevel","type":"uint256"},{"internalType":"uint256","name":"metadataRevision","type":"uint256"},{"internalType":"uint256","name":"originPlotId","type":"uint256"},{"internalType":"uint256","name":"originFaction","type":"uint256"},{"internalType":"uint256","name":"originDistrictKind","type":"uint256"},{"internalType":"uint256","name":"craftedAt","type":"uint256"},{"internalType":"uint256","name":"visualVariant","type":"uint256"},{"internalType":"enum CityWeapons.ResonanceType","name":"resonanceType","type":"uint8"},{"internalType":"bytes32","name":"craftSeed","type":"bytes32"},{"internalType":"bytes32","name":"provenanceHash","type":"bytes32"},{"internalType":"bool","name":"genesisEra","type":"bool"},{"internalType":"bool","name":"usedAether","type":"bool"}],"internalType":"struct CityWeapons.WeaponInstance","name":"inst","type":"tuple"},{"components":[{"internalType":"int256","name":"minDamageBonus","type":"int256"},{"internalType":"int256","name":"maxDamageBonus","type":"int256"},{"internalType":"int256","name":"attackSpeedBonus","type":"int256"},{"internalType":"int256","name":"critChanceBpsBonus","type":"int256"},{"internalType":"int256","name":"critMultiplierBpsBonus","type":"int256"},{"internalType":"int256","name":"accuracyBpsBonus","type":"int256"},{"internalType":"int256","name":"rangeBonus","type":"int256"},{"internalType":"int256","name":"maxDurabilityBonus","type":"int256"},{"internalType":"int256","name":"armorPenBpsBonus","type":"int256"},{"internalType":"int256","name":"blockChanceBpsBonus","type":"int256"},{"internalType":"int256","name":"lifeStealBpsBonus","type":"int256"},{"internalType":"int256","name":"energyCostBonus","type":"int256"},{"internalType":"int256","name":"heatGenerationBonus","type":"int256"},{"internalType":"int256","name":"stabilityBonus","type":"int256"},{"internalType":"int256","name":"cooldownMsBonus","type":"int256"},{"internalType":"int256","name":"projectileSpeedBonus","type":"int256"},{"internalType":"int256","name":"aoeRadiusBonus","type":"int256"},{"internalType":"int256","name":"enchantmentSlotsBonus","type":"int256"},{"internalType":"int256","name":"materiaSlotsBonus","type":"int256"}],"internalType":"struct CityWeapons.WeaponBonuses","name":"bonuses","type":"tuple"}],"stateMutability":"view","type":"function"},{"inputs":[{"internalType":"address","name":"owner","type":"address"},{"internalType":"address","name":"operator","type":"address"}],"name":"isApprovedForAll","outputs":[{"internalType":"bool","name":"","type":"bool"}],"stateMutability":"view","type":"function"},{"inputs":[{"internalType":"address","name":"to","type":"address"},{"internalType":"uint256","name":"weaponDefinitionId","type":"uint256"},{"internalType":"uint256","name":"rarityTier","type":"uint256"},{"internalType":"uint256","name":"frameTier","type":"uint256"},{"internalType":"uint256","name":"originPlotId","type":"uint256"},{"internalType":"uint256","name":"originFaction","type":"uint256"},{"internalType":"uint256","name":"originDistrictKind","type":"uint256"},{"internalType":"enum CityWeapons.ResonanceType","name":"resonanceType","type":"uint8"},{"internalType":"uint256","name":"visualVariant","type":"uint256"},{"internalType":"bool","name":"genesisEra","type":"bool"},{"internalType":"bool","name":"usedAether","type":"bool"},{"internalType":"uint256","name":"nonce","type":"uint256"}],"name":"mintWeapon","outputs":[{"internalType":"uint256","name":"tokenId","type":"uint256"}],"stateMutability":"nonpayable","type":"function"},{"inputs":[],"name":"name","outputs":[{"internalType":"string","name":"","type":"string"}],"stateMutability":"view","type":"function"},{"inputs":[],"name":"nextTokenId","outputs":[{"internalType":"uint256","name":"","type":"uint256"}],"stateMutability":"view","type":"function"},{"inputs":[],"name":"owner","outputs":[{"internalType":"address","name":"","type":"address"}],"stateMutability":"view","type":"function"},{"inputs":[{"internalType":"uint256","name":"tokenId","type":"uint256"}],"name":"ownerOf","outputs":[{"internalType":"address","name":"","type":"address"}],"stateMutability":"view","type":"function"},{"inputs":[],"name":"renounceOwnership","outputs":[],"stateMutability":"nonpayable","type":"function"},{"inputs":[{"internalType":"address","name":"from","type":"address"},{"internalType":"address","name":"to","type":"address"},{"internalType":"uint256","name":"tokenId","type":"uint256"}],"name":"safeTransferFrom","outputs":[],"stateMutability":"nonpayable","type":"function"},{"inputs":[{"internalType":"address","name":"from","type":"address"},{"internalType":"address","name":"to","type":"address"},{"internalType":"uint256","name":"tokenId","type":"uint256"},{"internalType":"bytes","name":"data","type":"bytes"}],"name":"safeTransferFrom","outputs":[],"stateMutability":"nonpayable","type":"function"},{"inputs":[{"internalType":"address","name":"operator","type":"address"},{"internalType":"bool","name":"approved","type":"bool"}],"name":"setApprovalForAll","outputs":[],"stateMutability":"nonpayable","type":"function"},{"inputs":[{"internalType":"address","name":"minter","type":"address"},{"internalType":"bool","name":"allowed","type":"bool"}],"name":"setAuthorizedMinter","outputs":[],"stateMutability":"nonpayable","type":"function"},{"inputs":[{"internalType":"string","name":"newBaseTokenURI","type":"string"}],"name":"setBaseURI","outputs":[],"stateMutability":"nonpayable","type":"function"},{"inputs":[{"internalType":"uint256","name":"tokenId","type":"uint256"},{"internalType":"uint256","name":"durability","type":"uint256"}],"name":"setDurability","outputs":[],"stateMutability":"nonpayable","type":"function"},{"inputs":[{"internalType":"uint256","name":"tokenId","type":"uint256"},{"internalType":"uint256","name":"metadataRevision","type":"uint256"}],"name":"setMetadataRevision","outputs":[],"stateMutability":"nonpayable","type":"function"},{"inputs":[{"internalType":"uint256","name":"tokenId","type":"uint256"},{"internalType":"uint256","name":"upgradeLevel","type":"uint256"}],"name":"setUpgradeLevel","outputs":[],"stateMutability":"nonpayable","type":"function"},{"inputs":[{"internalType":"uint256","name":"tokenId","type":"uint256"},{"components":[{"internalType":"int256","name":"minDamageBonus","type":"int256"},{"internalType":"int256","name":"maxDamageBonus","type":"int256"},{"internalType":"int256","name":"attackSpeedBonus","type":"int256"},{"internalType":"int256","name":"critChanceBpsBonus","type":"int256"},{"internalType":"int256","name":"critMultiplierBpsBonus","type":"int256"},{"internalType":"int256","name":"accuracyBpsBonus","type":"int256"},{"internalType":"int256","name":"rangeBonus","type":"int256"},{"internalType":"int256","name":"maxDurabilityBonus","type":"int256"},{"internalType":"int256","name":"armorPenBpsBonus","type":"int256"},{"internalType":"int256","name":"blockChanceBpsBonus","type":"int256"},{"internalType":"int256","name":"lifeStealBpsBonus","type":"int256"},{"internalType":"int256","name":"energyCostBonus","type":"int256"},{"internalType":"int256","name":"heatGenerationBonus","type":"int256"},{"internalType":"int256","name":"stabilityBonus","type":"int256"},{"internalType":"int256","name":"cooldownMsBonus","type":"int256"},{"internalType":"int256","name":"projectileSpeedBonus","type":"int256"},{"internalType":"int256","name":"aoeRadiusBonus","type":"int256"},{"internalType":"int256","name":"enchantmentSlotsBonus","type":"int256"},{"internalType":"int256","name":"materiaSlotsBonus","type":"int256"}],"internalType":"struct CityWeapons.WeaponBonuses","name":"bonuses","type":"tuple"}],"name":"setWeaponBonuses","outputs":[],"stateMutability":"nonpayable","type":"function"},{"inputs":[{"internalType":"uint256","name":"weaponDefinitionId","type":"uint256"},{"internalType":"string","name":"name","type":"string"},{"internalType":"enum CityWeapons.WeaponClass","name":"class","type":"uint8"},{"internalType":"enum CityWeapons.DamageType","name":"damageType","type":"uint8"},{"internalType":"uint256","name":"techTier","type":"uint256"},{"internalType":"uint256","name":"requiredLevel","type":"uint256"},{"internalType":"uint256","name":"requiredTechTier","type":"uint256"},{"internalType":"uint256","name":"minDamage","type":"uint256"},{"internalType":"uint256","name":"maxDamage","type":"uint256"},{"internalType":"uint256","name":"attackSpeed","type":"uint256"},{"internalType":"uint256","name":"critChanceBps","type":"uint256"},{"internalType":"uint256","name":"critMultiplierBps","type":"uint256"},{"internalType":"uint256","name":"accuracyBps","type":"uint256"},{"internalType":"uint256","name":"range","type":"uint256"},{"internalType":"uint256","name":"maxDurability","type":"uint256"},{"internalType":"uint256","name":"armorPenBps","type":"uint256"},{"internalType":"uint256","name":"blockChanceBps","type":"uint256"},{"internalType":"uint256","name":"lifeStealBps","type":"uint256"},{"internalType":"uint256","name":"energyCost","type":"uint256"},{"internalType":"uint256","name":"heatGeneration","type":"uint256"},{"internalType":"uint256","name":"stability","type":"uint256"},{"internalType":"uint256","name":"cooldownMs","type":"uint256"},{"internalType":"uint256","name":"projectileSpeed","type":"uint256"},{"internalType":"uint256","name":"aoeRadius","type":"uint256"},{"internalType":"uint256","name":"enchantmentSlots","type":"uint256"},{"internalType":"uint256","name":"materiaSlots","type":"uint256"},{"internalType":"uint256","name":"visualVariant","type":"uint256"},{"internalType":"uint256","name":"maxUpgradeLevel","type":"uint256"},{"internalType":"uint256","name":"familySetId","type":"uint256"},{"internalType":"bool","name":"enabled","type":"bool"}],"name":"setWeaponDefinition","outputs":[],"stateMutability":"nonpayable","type":"function"},{"inputs":[{"internalType":"bytes4","name":"interfaceId","type":"bytes4"}],"name":"supportsInterface","outputs":[{"internalType":"bool","name":"","type":"bool"}],"stateMutability":"view","type":"function"},{"inputs":[],"name":"symbol","outputs":[{"internalType":"string","name":"","type":"string"}],"stateMutability":"view","type":"function"},{"inputs":[{"internalType":"uint256","name":"tokenId","type":"uint256"}],"name":"tokenURI","outputs":[{"internalType":"string","name":"","type":"string"}],"stateMutability":"view","type":"function"},{"inputs":[{"internalType":"address","name":"from","type":"address"},{"internalType":"address","name":"to","type":"address"},{"internalType":"uint256","name":"tokenId","type":"uint256"}],"name":"transferFrom","outputs":[],"stateMutability":"nonpayable","type":"function"},{"inputs":[{"internalType":"address","name":"newOwner","type":"address"}],"name":"transferOwnership","outputs":[],"stateMutability":"nonpayable","type":"function"},{"inputs":[{"internalType":"uint256","name":"","type":"uint256"}],"name":"weaponBonusesOf","outputs":[{"internalType":"int256","name":"minDamageBonus","type":"int256"},{"internalType":"int256","name":"maxDamageBonus","type":"int256"},{"internalType":"int256","name":"attackSpeedBonus","type":"int256"},{"internalType":"int256","name":"critChanceBpsBonus","type":"int256"},{"internalType":"int256","name":"critMultiplierBpsBonus","type":"int256"},{"internalType":"int256","name":"accuracyBpsBonus","type":"int256"},{"internalType":"int256","name":"rangeBonus","type":"int256"},{"internalType":"int256","name":"maxDurabilityBonus","type":"int256"},{"internalType":"int256","name":"armorPenBpsBonus","type":"int256"},{"internalType":"int256","name":"blockChanceBpsBonus","type":"int256"},{"internalType":"int256","name":"lifeStealBpsBonus","type":"int256"},{"internalType":"int256","name":"energyCostBonus","type":"int256"},{"internalType":"int256","name":"heatGenerationBonus","type":"int256"},{"internalType":"int256","name":"stabilityBonus","type":"int256"},{"internalType":"int256","name":"cooldownMsBonus","type":"int256"},{"internalType":"int256","name":"projectileSpeedBonus","type":"int256"},{"internalType":"int256","name":"aoeRadiusBonus","type":"int256"},{"internalType":"int256","name":"enchantmentSlotsBonus","type":"int256"},{"internalType":"int256","name":"materiaSlotsBonus","type":"int256"}],"stateMutability":"view","type":"function"},{"inputs":[{"internalType":"uint256","name":"","type":"uint256"}],"name":"weaponDefinitionOf","outputs":[{"internalType":"uint256","name":"id","type":"uint256"},{"internalType":"string","name":"name","type":"string"},{"internalType":"enum CityWeapons.WeaponClass","name":"class","type":"uint8"},{"internalType":"enum CityWeapons.DamageType","name":"damageType","type":"uint8"},{"internalType":"uint256","name":"techTier","type":"uint256"},{"internalType":"uint256","name":"requiredLevel","type":"uint256"},{"internalType":"uint256","name":"requiredTechTier","type":"uint256"},{"internalType":"uint256","name":"minDamage","type":"uint256"},{"internalType":"uint256","name":"maxDamage","type":"uint256"},{"internalType":"uint256","name":"attackSpeed","type":"uint256"},{"internalType":"uint256","name":"critChanceBps","type":"uint256"},{"internalType":"uint256","name":"critMultiplierBps","type":"uint256"},{"internalType":"uint256","name":"accuracyBps","type":"uint256"},{"internalType":"uint256","name":"range","type":"uint256"},{"internalType":"uint256","name":"maxDurability","type":"uint256"},{"internalType":"uint256","name":"armorPenBps","type":"uint256"},{"internalType":"uint256","name":"blockChanceBps","type":"uint256"},{"internalType":"uint256","name":"lifeStealBps","type":"uint256"},{"internalType":"uint256","name":"energyCost","type":"uint256"},{"internalType":"uint256","name":"heatGeneration","type":"uint256"},{"internalType":"uint256","name":"stability","type":"uint256"},{"internalType":"uint256","name":"cooldownMs","type":"uint256"},{"internalType":"uint256","name":"projectileSpeed","type":"uint256"},{"internalType":"uint256","name":"aoeRadius","type":"uint256"},{"internalType":"uint256","name":"enchantmentSlots","type":"uint256"},{"internalType":"uint256","name":"materiaSlots","type":"uint256"},{"internalType":"uint256","name":"visualVariant","type":"uint256"},{"internalType":"uint256","name":"maxUpgradeLevel","type":"uint256"},{"internalType":"uint256","name":"familySetId","type":"uint256"},{"internalType":"bool","name":"enabled","type":"bool"}],"stateMutability":"view","type":"function"},{"inputs":[{"internalType":"uint256","name":"","type":"uint256"}],"name":"weaponInstanceOf","outputs":[{"internalType":"uint256","name":"tokenId","type":"uint256"},{"internalType":"uint256","name":"weaponDefinitionId","type":"uint256"},{"internalType":"uint256","name":"rarityTier","type":"uint256"},{"internalType":"uint256","name":"frameTier","type":"uint256"},{"internalType":"uint256","name":"durability","type":"uint256"},{"internalType":"uint256","name":"upgradeLevel","type":"uint256"},{"internalType":"uint256","name":"metadataRevision","type":"uint256"},{"internalType":"uint256","name":"originPlotId","type":"uint256"},{"internalType":"uint256","name":"originFaction","type":"uint256"},{"internalType":"uint256","name":"originDistrictKind","type":"uint256"},{"internalType":"uint256","name":"craftedAt","type":"uint256"},{"internalType":"uint256","name":"visualVariant","type":"uint256"},{"internalType":"enum CityWeapons.ResonanceType","name":"resonanceType","type":"uint8"},{"internalType":"bytes32","name":"craftSeed","type":"bytes32"},{"internalType":"bytes32","name":"provenanceHash","type":"bytes32"},{"internalType":"bool","name":"genesisEra","type":"bool"},{"internalType":"bool","name":"usedAether","type":"bool"}],"stateMutability":"view","type":"function"}],"evm":{"bytecode":{"linkReferences":{},"object":"6080346200038557601f19906001600160401b03601f620041d2388190038281018616850184811186821017620002a7578592829160405283396020948591810103126200038557516001600160a01b03808216939092909184900362000385576200006a62000389565b94601586527f496e70696e697479204369747920576561706f6e730000000000000000000000818701526200009e62000389565b96600388526249435760e81b828901528651848111620002a7575f546001988982811c921680156200037a575b858310146200028857818684931162000327575b508490868311600114620002c7575f92620002bb575b50505f19600383901b1c191690881b175f555b8751938411620002a75786548781811c911680156200029c575b83821014620002885783811162000240575b5081928411600114620001da57505081929394955f92620001ce575b50505f19600383901b1c191690841b1783555b8115620001b657600680546001600160a01b031981168417909155167f8be0079c531659141344cd1fd0a4f28419497f9722a3daafe3b4186f6b6457e05f80a3600855604051613e289081620003aa8239f35b604051631e4fbdf760e01b81525f6004820152602490fd5b015190505f8062000150565b5f878152828120918516989193925b8982106200022857505083879897959697106200020f575b505050811b01835562000163565b01515f1960f88460031b161c191690555f808062000201565b808985968294968601518155019501930190620001e9565b875f52825f208480870160051c8201928588106200027e575b0160051c019088905b8281106200027257505062000134565b5f815501889062000262565b9250819262000259565b634e487b7160e01b5f52602260045260245ffd5b90607f169062000122565b634e487b7160e01b5f52604160045260245ffd5b015190505f80620000f5565b90848b9416915f8052865f20925f5b88828210620003105750508411620002f7575b505050811b015f5562000108565b01515f1960f88460031b161c191690555f8080620002e9565b8385015186558e97909501949384019301620002d6565b9091505f8052845f208680850160051c82019287861062000370575b918c91869594930160051c01915b82811062000361575050620000df565b5f81558594508c910162000351565b9250819262000343565b91607f1691620000cb565b5f80fd5b60408051919082016001600160401b03811183821017620002a75760405256fe610540806040526004361015610013575f80fd5b5f3560e01c90816301ffc9a7146135a15750806306fdde03146134fa578063081812fc146134be578063095ea7b3146133dd57806314207dda146132b05780631e8b3be9146130a4578063239c011d146129f957806323b872dd146129e25780632efcc2201461287457806341d71b9c1461284057806342842e0e146128135780634eba5e04146126dc57806352b6a4091461269957806355f804b3146124e95780636352211e146124b957806363ff228714611c8957806370a0823114611c33578063715018a614611bd857806375794a3c14611bbb5780638da5cb5b14611b935780638f2cf344146118fb57806395d89b4114611852578063a22cb465146117ab578063a987fcdd146116d0578063aa2fe91b14611693578063b88d4fde14611626578063bb1f075314611126578063c87b56dd14610edf578063caca6f8714610e81578063d547cfb714610db2578063e985e9c514610d60578063ed58bad814610cc5578063f2fde38b14610c3e5763f5dd3ceb14610193575f80fd5b34610c3a576020366003190112610c3a575f6102c06040516101b4816137b8565b8281528260208201528260408201528260608201528260808201528260a08201528260c08201528260e08201528261010082015282610120820152826101408201528261016082015282610180820152826101a0820152826101c0820152826101e08201528261020082015282610220820152826102408201528261026082015282610280820152826102a08201520152610250600435613be8565b6004355f52600a60205260405f2060ff600f6040519261026f84613780565b8054845260018101546020850152600281015460408501526003810154606085015260048101546080850152600581015460a0850152600681015460c0850152600781015460e085015260088101546101008501526009810154610120850152600a810154610140850152600b8101546101608501526102f983600c830154166101808601613937565b600d8101546101a0850152600e8101546101c0850152015481811615156101e084015260081c16151561020082015260208101515f52600960205260ff601c60405f206040516101605261034f61016051613764565b805461016051526103626001820161382c565b60206101605101526103958360028301546103858282166040610160510161391f565b60081c166060610160510161392b565b60038101546080610160510152600481015460a0610160510152600581015460c0610160510152600681015460e0610160510152600781015461010061016051015260088101546101206101605101526009810154610140610160510152600a81015461016080510152600b810154610180610160510152600c8101546101a0610160510152600d8101546101c0610160510152600e8101546101e0610160510152600f810154610200610160510152601081015461022061016051015260118101546102406101605101526012810154610260610160510152601381015461028061016051015260148101546102a061016051015260158101546102c061016051015260168101546102e0610160510152601781015461030061016051015260188101546103206101605101526019810154610340610160510152601a810154610360610160510152601b81015461038061016051015201541615156103a06101605101526004355f52600b60205261062760405f206040516102005261051f6102005161379c565b601281549182610200515260018101546020610200510152600281015460406102005101526003810154606061020051015260048101546080610200510152600581015460a0610200510152600681015460c0610200510152600781015460e061020051015260088101546101006102005101526009810154610120610200510152600a810154610140610200510152600b810154610160610200510152600c810154610180610200510152600d8101546101a0610200510152600e8101546101c0610200510152600f8101546101e06102005101526010810154610200805101526011810154610220610200510152015461024061020051015260e0610160510151613b93565b5f811215610c3557505f5b61064c610100610160510151602061020051015190613b93565b5f6101c0525f81125f14610c2c57505f6101c0525b806101c05110610c1a57610685610120610160510151604061020051015190613b93565b5f610180525f81125f14610c1157505f610180525b6106b4610140610160510151606061020051015190613b93565b5f811215610c0b57505f915b6106d861016080510151608061020051015190613b93565b5f811215610c0557505f905b6106fe61018061016051015160a061020051015190613b93565b5f811215610bff57505f905b6107246101a061016051015160c061020051015190613b93565b5f811215610bf957505f905b61074a6101c061016051015160e061020051015190613b93565b5f811215610bf457505f5b6107706101e061016051015161010061020051015190613b93565b5f811215610bef57505f5b61079661020061016051015161012061020051015190613b93565b5f811215610be957505f915b6107bd61022061016051015161014061020051015190613b93565b5f811215610be357505f935b6107e461024061016051015161016061020051015190613b93565b5f811215610bdd57505f955b61080b61026061016051015161018061020051015190613b93565b5f811215610bd757505f975b6108326102806101605101516101a061020051015190613b93565b5f811215610bd157505f995b6108596102a06101605101516101c061020051015190613b93565b5f6080525f81125f14610bc957505f6080525b6108876102c06101605101516101e061020051015190613b93565b5f60c0525f81125f14610bc157505f60c0525b6108b36102e06101605101516102008051015190613b93565b5f6101e0525f81125f14610bb857505f6101e0525b6108e361030061016051015161022061020051015190613b93565b5f6101a0525f81125f14610baf57505f6101a0525b61091361032061016051015161024061020051015190613b93565b5f610140525f81125f14610ba657505f610140525b6101c0518c018c11610b92576101c0518c0160011c610120526101205161018051610120510204610180511461012051151715610b92576102e09c60a060808601519501516101005261036061016051015160e05260405160a05261098e60a0516137b8565b8c60a051526101c051602060a051015261018051604060a0510152610180516101205102606060a0510152608060a051015260a08051015260c060a051015260e060a051015261010060a051015261012060a051015261014060a051015261016060a051015261018060a05101526101a060a05101526101c060a05101526101e060a051015260805161020060a051015260c05161022060a05101526101e05161024060a05101526101a05161026060a05101526101405161028060a0510152610100516102a060a051015260e0516102c060a0510152604051908152602060a05101516020820152604060a05101516040820152606060a05101516060820152608060a0510151608082015260a08051015160a082015260c060a051015160c082015260e060a051015160e082015261010060a051015161010082015261012060a051015161012082015261014060a051015161014082015261016060a051015161016082015261018060a05101516101808201526101a060a05101516101a08201526101c060a05101516101c08201526101e060a05101516101e082015261020060a051015161020082015261022060a051015161022082015261024060a051015161024082015261026060a051015161026082015261028060a05101516102808201526102a060a05101516102a08201526102c060a05101516102c0820152f35b634e487b7160e01b5f52601160045260245ffd5b61014052610928565b6101a0526108f8565b6101e0526108c8565b60c05261089a565b60805261086c565b9961083e565b97610817565b956107f0565b936107c9565b916107a2565b61077b565b610755565b90610730565b9061070a565b906106e4565b916106c0565b6101805261069a565b604051632a9ffab760e21b8152600490fd5b6101c052610661565b610632565b5f80fd5b34610c3a576020366003190112610c3a57610c57613652565b610c5f613c5c565b6001600160a01b03908116908115610cad57600654826001600160601b0360a01b821617600655167f8be0079c531659141344cd1fd0a4f28419497f9722a3daafe3b4186f6b6457e05f80a3005b604051631e4fbdf760e01b81525f6004820152602490fd5b34610c3a576040366003190112610c3a57610cde613652565b610ce66136a1565b90610cef613c5c565b6001600160a01b0316908115610d4e5760207f17f5b635c984bd6bd0661fd547f6085ef1a0813ef0c42d24b12a06f6824b5e0891835f52600c8252610d438160405f209060ff801983541691151516179055565b6040519015158152a2005b60405163d92e233d60e01b8152600490fd5b34610c3a576040366003190112610c3a57610d79613652565b610d81613668565b9060018060a01b038091165f52600560205260405f2091165f52602052602060ff60405f2054166040519015158152f35b34610c3a575f366003190112610c3a576040516007545f82610dd38361372c565b91828252602093600190856001821691825f14610e61575050600114610e19575b50610e019250038361380b565b610e1560405192828493845283019061362d565b0390f35b84915060075f525f80516020613dd3833981519152905f915b858310610e49575050610e01935082010185610df4565b80548389018501528794508693909201918101610e32565b60ff191685820152610e0195151560051b8501019250879150610df49050565b34610c3a5760207fdb5932d72d80815c1cfeec4447210e1007a70ba2f081e564c59a8e780489a4e2610eb23661368b565b610ebd939193613c5c565b610ec684613be8565b835f52600a825280600660405f200155604051908152a2005b34610c3a57602080600319360112610c3a5760043590610efe82613be8565b5f827a184f03e93ff9f4daa797ed6e38ed64bf6a1f0100000000000000008181811015611118575b50506d04ee2d6d415b85acef81000000008085101561110a575b50662386f26fc10000808510156110fb575b506305f5e100808510156110ec575b50612710808510156110dd575b5060648410156110cd575b600a809410156110c3575b6001936001830191856021610fb1610f9b866138ce565b95610fa9604051978861380b565b8087526138ce565b8588019690601f1901368837850101905b611095575b5050506040519384915f9160075490610fdf8261372c565b91876001821691825f1461107357505060011461102a575b5050908061100f610e0195600595945193849161360c565b0164173539b7b760d91b815203601a1981018552018361380b565b8692935060075f525f80516020613dd3833981519152905f915b83831061105b57505050830101908061100f610ff7565b8054838b018601528996508894909201918101611044565b60ff1916818801528315159093028601909201935082915061100f9050610ff7565b5f19019082906f181899199a1a9b1b9c1cb0b131b232b360811b8282061a835304908682610fc25750610fc7565b9060010190610f84565b9092606460029104930190610f79565b60049192940493019084610f6e565b60089192940493019084610f61565b60109192940493019084610f52565b839192940493019084610f40565b049350604091508480610f26565b34610c3a576103c0366003190112610c3a576024356001600160401b038111610c3a576111579036906004016136e5565b90600f6044351015610c3a57600d6064351015610c3a576103a435918215158303610c3a57611184613c5c565b60043515610c1a578015610c1a5760443515610c1a5760643515610c1a5760e4356101043510610c1a576101c43515610c1a576040516111c381613764565b60043581526111d33683856138e9565b60208201526111e76044356040830161391f565b6111f66064356060830161392b565b608435608082015260a43560a082015260c43560c082015260e43560e082015261010435610100820152610124356101208201526101443561014082015261016435610160820152610184356101808201526101a4356101a08201526101c4356101c08201526101e4356101e082015261020435610200820152610224356102208201526102443561024082015261026435610260820152610284356102808201526102a4356102a08201526102c4356102c08201526102e4356102e082015261030435610300820152610324356103208201526103443561034082015261036435610360820152610384356103808201528315156103a08201526004355f52600960205260405f20928151845560208201518051906001600160401b03821161161257611327600187015461372c565b601f81116115ce575b50602090601f83116001146115605761136092915f9183611555575b50508160011b915f199060031b1c19161790565b60018501555b6040820151600f81101561154157600285015494606084015195600d871015611541576103a0611509956114f794601c9360ff61ff007f75a4d811ee567f7ecddca975969dabbc2ef675baf615938572e27eccd0b84cfc9c60081b1692169061ffff1916171760028501556080810151600385015560a0810151600485015560c0810151600585015560e08101516006850155610100810151600785015561012081015160088501556101408101516009850155610160810151600a850155610180810151600b8501556101a0810151600c8501556101c0810151600d8501556101e0810151600e850155610200810151600f85015561022081015160108501556102408101516011850155610260810151601285015561028081015160138501556102a081015160148501556102c081015160158501556102e08101516016850155610300810151601785015561032081015160188501556103408101516019850155610360810151601a850155610380810151601b8501550151151591019060ff801983541691151516179055565b6040519260a0845260a0840191613b73565b9261151960208301604435613712565b6115286040830160643561371f565b60843560608301521515608082015280600435930390a2005b634e487b7160e01b5f52602160045260245ffd5b01519050888061134c565b9190600187015f5260205f20905f935b601f19841685106115b3576001945083601f1981161061159b575b505050811b016001850155611366565b01515f1960f88460031b161c1916905587808061158b565b81810151835560209485019460019093019290910190611570565b600187015f5260205f20601f840160051c81016020851061160b575b601f830160051c82018110611600575050611330565b5f81556001016115ea565b50806115ea565b634e487b7160e01b5f52604160045260245ffd5b34610c3a576080366003190112610c3a5761163f613652565b611647613668565b90604435606435926001600160401b038411610c3a5736602385011215610c3a5761167f6116919436906024816004013591016138e9565b9261168b838383613943565b33613c88565b005b34610c3a576020366003190112610c3a576001600160a01b036116b4613652565b165f52600c602052602060ff60405f2054166040519015158152f35b34610c3a576116de3661368b565b6006546001600160a01b031633148015611795575b156117835761170182613be8565b815f52600a60205260405f2060018101545f52600960205261173a600d60405f200154845f52600b602052600760405f20015490613b93565b5f81121561177e57505f5b8211610c1a57817f639b180b62f0984251ffff3f530749b17fb63828812f715ce46fdb4c0f11481f9260046020930155604051908152a2005b611745565b60405163ea8e4eb560e01b8152600490fd5b50335f52600c60205260ff60405f2054166116f3565b34610c3a576040366003190112610c3a576117c4613652565b6117cc6136a1565b6001600160a01b0390911690811561183957335f52600560205260405f20825f526020526118098160405f209060ff801983541691151516179055565b60405190151581527f17307eab39ab6107e8899845ad3d59bd9653f200f220920489ca2b5937696c3160203392a3005b604051630b61174360e31b815260048101839052602490fd5b34610c3a575f366003190112610c3a576040515f600182600154926118768461372c565b92838352602094856001821691825f14610e615750506001146118a05750610e019250038361380b565b84915060015f527fb10e2d527612073b26eecdfd717e6a320cf44b4afac2b0732d9fcbe2b7fa0cf6905f915b8583106118e3575050610e01935082010185610df4565b805483890185015287945086939092019181016118cc565b34610c3a576020366003190112610c3a576004355f52600960205260405f20610440526104405154610300526119366001610440510161382c565b6104405160028101546102c05260038101546102e05260048101546103405260058101546006820154600783015460088401546009850154600a860154600b870154600c880154600d890154600e8a0154600f8b015460108c015460118d01546102205260128d01546102405260138d01546102805260148d01546104205260158d01546104005260168d01546103e05260178d01546103c090815260188e01546103a05260198e015461038052601a8e015461036052601b8e015461032052601c909d015460ff166102a0526040516102608181526103005190915280516020018e9052519b9d909c919b929a93999498959795949392611a3992019061362d565b9b611a506040610260510160ff6102c05116613712565b611a696060610260510160ff6102c05160081c1661371f565b6102e05160806102605101526103405160a061026051015260c061026051015260e06102605101526101006102605101526101206102605101526101406102605101526101606102605101526101806102605101526101a06102605101526101c06102605101526101e061026051015261020061026051015261022061026051015261022051610240610260510152610240516102608051015261028051610280610260510152610420516102a0610260510152610400516102c06102605101526103e0516102e06102605101526103c0516103006102605101526103a0516103206102605101526103805161034061026051015261036051610360610260510152610320516103806102605101526102a05115156103a061026051015261026051900361026051f35b34610c3a575f366003190112610c3a576006546040516001600160a01b039091168152602090f35b34610c3a575f366003190112610c3a576020600854604051908152f35b34610c3a575f366003190112610c3a57611bf0613c5c565b600680546001600160a01b031981169091555f906001600160a01b03167f8be0079c531659141344cd1fd0a4f28419497f9722a3daafe3b4186f6b6457e08280a3005b34610c3a576020366003190112610c3a576001600160a01b03611c54613652565b168015611c71575f526003602052602060405f2054604051908152f35b6040516322718ad960e21b81525f6004820152602490fd5b34610c3a576020366003190112610c3a575f6103a0604051611caa81613764565b828152606060208201528260408201528260608201528260808201528260a08201528260c08201528260e08201528261010082015282610120820152826101408201528261016082015282610180820152826101a0820152826101c0820152826101e08201528261020082015282610220820152826102408201528261026082015282610280820152826102a0820152826102c0820152826102e0820152826103008201528261032082015282610340820152826103608201528261038082015201525f610200604051611d7d81613780565b8281528260208201528260408201528260608201528260808201528260a08201528260c08201528260e08201528261010082015282610120820152826101408201528261016082015282610180820152826101a0820152826101c0820152826101e082015201525f610240604051611df48161379c565b8281528260208201528260408201528260608201528260808201528260a08201528260c08201528260e08201528261010082015282610120820152826101408201528261016082015282610180820152826101a0820152826101c0820152826101e082015282610200820152826102208201520152611e74600435613be8565b6004355f52600a60205261020060405f2060ff600f60405192611e9684613780565b8054845260018101546020850152600281015460408501526003810154606085015260048101546080850152600581015460a0850152600681015460c0850152600781015460e085015260088101546101008501526009810154610120850152600a810154610140850152600b810154610160850152611f2083600c830154166101808601613937565b600d8101546101a0850152600e8101546101c0850152015481811615156101e084015260081c1615158282015260208101515f52600960205260405f2060ff601c60405192611f6e84613764565b80548452611f7e6001820161382c565b6020850152611fa8836002830154611f9b8282166040890161391f565b60081c166060860161392b565b60038101546080850152600481015460a0850152600581015460c0850152600681015460e0850152600781015461010085015260088101546101208501526009810154610140850152600a810154610160850152600b810154610180850152600c8101546101a0850152600d8101546101c0850152600e8101546101e0850152600f81015486850152601081015461022085015260118101546102408501526012810154610260850152601381015461028085015260148101546102a085015260158101546102c085015260168101546102e0850152601781015461030085015260188101546103208501526019810154610340850152601a810154610360850152601b81015461038085015201541615156103a08201526004355f52600b60205261024060405f206012604051916120e08361379c565b8054835260018101546020840152600281015460408401526003810154606084015260048101546080840152600581015460a0840152600681015460c0840152600781015460e084015260088101546101008401526009810154610120840152600a810154610140840152600b810154610160840152600c810154610180840152600d8101546101a0840152600e8101546101c0840152600f8101546101e084015260108101548784015260118101546102208401520154828201526040519485946104a08087528551908701526103a06121cd60208701516103c06104c08a015261086089019061362d565b956121e160408201516104e08a0190613712565b6121f460608201516105008a019061371f565b608081015161052089015260a081015161054089015260c081015161056089015260e08101516105808901526101008101516105a08901526101208101516105c08901526101408101516105e08901526101608101516106008901526101808101516106208901526101a08101516106408901526101c08101516106608901526101e0810151610680890152838101516106a08901526102208101516106c0890152858101516106e08901526102608101516107008901526102808101516107208901526102a08101516107408901526102c08101516107608901526102e08101516107808901526103008101516107a08901526103208101516107c08901526103408101516107e08901526103608101516108008901526103808101516108208901520151151561084087015280516020870152602081015160408701526040810151606087015260608101516080870152608081015160a087015260a081015160c087015260c081015160e087015260e08101516101008701526101008101516101208701526101208101516101408701526101408101516101608701526101608101516101808701526123b46101808201516101a088019061367e565b6101a08101516101c08701526101c08101516101e08701526101e0810151151582870152015115156102208501528051828501526020810151610260850152604081015161028085015260608101516102a085015260808101516102c085015260a08101516102e085015260c081015161030085015260e08101516103208501526101008101516103408501526101208101516103608501526101408101516103808501526101608101516103a08501526101808101516103c08501526101a08101516103e08501526101c08101516104008501526101e081015161042085015261020081015161044085015261022081015161046085015201516104808301520390f35b34610c3a576020366003190112610c3a5760206124d7600435613bae565b6040516001600160a01b039091168152f35b34610c3a57602080600319360112610c3a576001600160401b0390600435828111610c3a5761251c9036906004016136e5565b919092612527613c5c565b82116116125761253860075461372c565b601f811161264a575b505f601f83116001146125b8577ff9c7803e94e0d3c02900d8a90893a6d5e90dd04d32a4cfe825520f82bf9f32f69361259384806125a8945f916125ad575b508160011b915f199060031b1c19161790565b6007555b604051938385948552840191613b73565b0390a1005b905083013588612580565b601f1983169060075f525f80516020613dd3833981519152915f5b8181106126335750917ff9c7803e94e0d3c02900d8a90893a6d5e90dd04d32a4cfe825520f82bf9f32f69591856125a8941061261a575b5050600184811b01600755612597565b8201355f19600387901b60f8161c19169055858061260a565b91928460018192868a0135815501940192016125d3565b60075f525f80516020613dd3833981519152601f840160051c81019183851061268f575b601f0160051c01905b8181106126845750612541565b5f8155600101612677565b909150819061266e565b34610c3a5760e0366003190112610c3a5760206126d46126b7613652565b60c4359060a4359060843590606435906044359060243590613b22565b604051908152f35b34610c3a57610280366003190112610c3a57600435610260366023190112610c3a576006546001600160a01b0316331480156127fd575b156117835761272181613be8565b805f52600b60205260405f20602435815560443560018201556064356002820155608435600382015560a435600482015560c435600582015560e435600682015561010435600782015561012435600882015561014435600982015561016435600a82015561018435600b8201556101a435600c8201556101c435600d8201556101e435600e82015561020435600f8201556102243560108201556102443560118201556012610264359101556127d781613c06565b7f5ac94e62f71242482af44ed7a72ec181709d493d90538495c19d8026b2726d535f80a2005b50335f52600c60205260ff60405f205416612713565b34610c3a57611691612824366136b0565b9060405192612832846137d4565b5f845261168b838383613943565b34610c3a57610100366003190112610c3a5760206126d460e43560c43560a435608435606435604435602435600435613ad9565b34610c3a576020366003190112610c3a576004355f52600b6020526012600f600e600d600c600b600a600960086007600660056004600360405f209d8e9d8e9d8e9d8e9d8e9d8e9d8e9d8e9d8e9d8e9d8e9d8e9d8e9d8e549e60018101546104e05260028101546105005201549e01549e01549e01549e01549e01549e01549e01549e01549e01549e01549e01549e01549e60108101546104605260118101546104a05201546104c0526040516104805261048051526104e05160206104805101526105005160406104805101526060610480510152608061048051015260a061048051015260c061048051015260e06104805101526101006104805101526101206104805101526101406104805101526101606104805101526101806104805101526101a06104805101526101c06104805101526101e0610480510152610460516102006104805101526104a0516102206104805101526104c05161024061048051015261026061048051f35b34610c3a576116916129f3366136b0565b91613943565b34610c3a57610180366003190112610c3a57612a13613652565b600460e4351015610c3a57610124358015158103610c3a5761014435918215158303610c3a576006546001600160a01b03163314801561308e575b15611783576001600160a01b03811615610d4e576024355f52600960205260405f209160ff601c60405194612a8286613764565b80548652612a926001820161382c565b6020870152612abc836002830154612aaf82821660408b0161391f565b60081c166060880161392b565b60038101546080870152600481015460a0870152600581015460c0870152600681015460e0870152600781015461010087015260088101546101208701526009810154610140870152600a810154610160870152600b810154610180870152600c8101546101a0870152600d8101546101c0870152600e8101546101e0870152600f810154610200870152601081015461022087015260118101546102408701526012810154610260870152601381015461028087015260148101546102a087015260158101546102c087015260168101546102e0870152601781015461030087015260188101546103208701526019810154610340870152601a810154610360870152601b8101546103808701520154161580156103a0850152835115908115613086575b50610c1a57600854925f198414610b925760018401600855604051612c06816137d4565b5f808252858152600260205260409020546001600160a01b031680151590869082613053575b6001600160a01b0387165f818152600360209081526040808320805460010190558583526002909152812080546001600160a01b031916831790559091907fddf252ad1be2c89b69c2b068fc378daa952ba7f163c4a11628f55a4df523b3ef9080a461303b57833b612ef8575b5061010435612eee57610340810151945b612cc66101643560e43560c43560a4356084356024358a613b22565b926101c0604051602081019060243582526044356040820152606435606082015260e43560808201528960a08201528660c082015260843560e08201525f6101008201526101008152612d18816137ef565b5190209301519660405197612d2c89613780565b87895260243560208a015260443560408a015260643560608a015260808901525f60a0890152600160c089015260843560e089015260a43561010089015260c43561012089015242610140890152610160880152612d9060e4356101808901613937565b836101a0880152826101c088015215156101e08701521515610200860152835f52600a60205260405f2094805186556020810151600187015560408101516002870155606081015160038701556080810151600487015560a0810151600587015560c0810151600687015560e0810151600787015561010081015160088701556101208101516009870155610140810151600a870155610160810151600b870155600c860161018082015160048110156115415760209761020092600f9260ff801983541691161790556101a0840151600d8201556101c0840151600e8201550191612e8f6101e08201511515849060ff801983541691151516179055565b0151815461ff00191690151560081b61ff00161790556040805192835285830191909152602435926001600160a01b03169184917fb4159120f3fdafbcf93b1af827525210b1a3a1add9ef5d0539fa31ca0473a73391a4604051908152f35b6101043594612caa565b6020612f36916040979695975180938192630a85bd0160e11b83523360048401525f602484015288604484015260806064840152608483019061362d565b03815f6001600160a01b038b165af15f9181612ff6575b50612fb457853d15612fac573d90612f64826138ce565b91612f72604051938461380b565b82523d5f602084013e5b81519182612fa557604051633250574960e11b81526001600160a01b0383166004820152602490fd5b6020915001fd5b606090612f7c565b939492936001600160e01b03191663757a42ff60e11b01612fd55785612c99565b604051633250574960e11b81526001600160a01b0384166004820152602490fd5b9091506020813d602011613033575b816130126020938361380b565b81010312610c3a57516001600160e01b031981168103610c3a579087612f4d565b3d9150613005565b6040516339e3563760e11b81525f6004820152602490fd5b5f82815260046020526040902080546001600160a01b0319169055805f52600360205260405f205f198154019055612c2c565b905085612be2565b50335f52600c60205260ff60405f205416612a4e565b34610c3a576130b23661368b565b6006546001600160a01b03163314801561329a575b15611783576130d582613be8565b815f52600a60205260405f2060018101545f52600960205260405f206040516130fd81613764565b8154815261310d6001830161382c565b602082015261313860ff600284015461312b8282166040860161391f565b60081c166060830161392b565b60038201546080820152600482015460a0820152600582015460c0820152600682015460e0820152600782015461010082015260088201546101208201526009820154610140820152600a820154610160820152600b820154610180820152600c8201546101a0820152600d8201546101c0820152600e8201546101e0820152600f820154610200820152601082015461022082015260118201546102408201526012820154610260820152601382015461028082015260148201546102a082015260158201546102c082015260168201546102e08201526017820154610300820152601882015461032082015260198201546103408201526103a060ff601c601a8501549485610360860152601b81015461038086015201541615159101528211610c1a57817f7d411743d1571df710bf51f9844ae535a8d1c447ef770551b20cfac0ff097e2e926005602093015561329184613c06565b604051908152a2005b50335f52600c60205260ff60405f2054166130c7565b34610c3a576020366003190112610c3a576004355f52600a60205260405f2080549080600181015460028201546003830154600484015460058501546006860154600787015490600888015492600989015494600a8a015496600b8b015498600c8c015460ff169a600d8d01549c600e01549d600f01549e60405161052052610520515261052051602001526105205160400152610520516060015261052051608001526105205160a001526105205160c001526105205160e0015261052051610100015261052051610120015261052051610140015261052051610160015261052051610180016133a19161367e565b610520516101a00152610520516101c0015260ff81161515610520516101e0015260081c60ff1615156105205161020001526105205161022090f35b34610c3a576040366003190112610c3a576133f6613652565b60243561340281613bae565b331515806134ab575b80613482575b61346a576001600160a01b039283169282918491167f8c5be1e5ebec7d5bd14f71427d1e84f3dd0314c0f7b2291e5b200ac8c7c3b9255f80a45f90815260046020526040902080546001600160a01b0319169091179055005b60405163a9fbf51f60e01b8152336004820152602490fd5b5060018060a01b0381165f52600560205260405f20335f5260205260ff60405f20541615613411565b506001600160a01b03811633141561340b565b34610c3a576020366003190112610c3a576004356134db81613bae565b505f526004602052602060018060a01b0360405f205416604051908152f35b34610c3a575f366003190112610c3a576040515f8054908261351b8361372c565b91828252602093600190856001821691825f14610e615750506001146135485750610e019250038361380b565b5f808052859250907f290decd9548b62a8d60345a988386fc84ba6bc95484008f6362f93160ef3e5635b858310613589575050610e01935082010185610df4565b80548389018501528794508693909201918101613572565b34610c3a576020366003190112610c3a576004359063ffffffff60e01b8216809203610c3a576020916380ac58cd60e01b81149081156135fb575b81156135ea575b5015158152f35b6301ffc9a760e01b149050836135e3565b635b5e139f60e01b811491506135dc565b5f5b83811061361d5750505f910152565b818101518382015260200161360e565b906020916136468151809281855285808601910161360c565b601f01601f1916010190565b600435906001600160a01b0382168203610c3a57565b602435906001600160a01b0382168203610c3a57565b9060048210156115415752565b6040906003190112610c3a576004359060243590565b602435908115158203610c3a57565b6060906003190112610c3a576001600160a01b03906004358281168103610c3a57916024359081168103610c3a579060443590565b9181601f84011215610c3a578235916001600160401b038311610c3a5760208381860195010111610c3a57565b90600f8210156115415752565b90600d8210156115415752565b90600182811c9216801561375a575b602083101461374657565b634e487b7160e01b5f52602260045260245ffd5b91607f169161373b565b6103c081019081106001600160401b0382111761161257604052565b61022081019081106001600160401b0382111761161257604052565b61026081019081106001600160401b0382111761161257604052565b6102e081019081106001600160401b0382111761161257604052565b602081019081106001600160401b0382111761161257604052565b61012081019081106001600160401b0382111761161257604052565b90601f801991011681019081106001600160401b0382111761161257604052565b9060405191825f825461383e8161372c565b908184526020946001916001811690815f146138ac575060011461386e575b50505061386c9250038361380b565b565b5f90815285812095935091905b81831061389457505061386c93508201015f808061385d565b8554888401850152948501948794509183019161387b565b9250505061386c94925060ff191682840152151560051b8201015f808061385d565b6001600160401b03811161161257601f01601f191660200190565b9291926138f5826138ce565b91613903604051938461380b565b829481845281830111610c3a578281602093845f960137010152565b600f8210156115415752565b600d8210156115415752565b60048210156115415752565b6001600160a01b039182169290918315613ac157815f52602092600284528260409583875f2054169533151580613a2f575b50600290876139fe575b825f5260038152885f2060018154019055835f5252865f20816001600160601b0360a01b825416179055857fddf252ad1be2c89b69c2b068fc378daa952ba7f163c4a11628f55a4df523b3ef5f80a416928383036139dd5750505050565b6064945051926364283d7b60e01b8452600484015260248301526044820152fd5b5f84815260046020526040812080546001600160a01b03191690558881526003825289902080545f1901905561397f565b9192509080613a80575b15613a47579084915f613975565b868587613a64576024915190637e27328960e01b82526004820152fd5b604491519063177e802f60e01b82523360048301526024820152fd5b503386148015613aa5575b80613a395750845f52600481523384885f20541614613a39565b50855f5260058152865f20335f52815260ff875f205416613a8b565b604051633250574960e11b81525f6004820152602490fd5b96949290959391604051966020880198895260408801526060870152608086015260a085015260c084015260e083015261010090818301528152613b1c816137ef565b51902090565b959391949290946040519560208701976001600160601b03199060601b168852603487015260548601526074850152609484015260b48301524260d483015260f482015260f48152613b1c816137ef565b908060209392818452848401375f828201840152601f01601f1916010190565b9190915f8382019384129112908015821691151617610b9257565b5f818152600260205260409020546001600160a01b0316908115613bd0575090565b60249060405190637e27328960e01b82526004820152fd5b5f908152600260205260409020546001600160a01b031615610c1a57565b5f52600a60205260405f206001810154600282015460038301549160ff600c8501541691600483101561154157600e93613c5793600b87015490600d8801549260078901549460058a015496613ad9565b910155565b6006546001600160a01b03163303613c7057565b60405163118cdaa760e01b8152336004820152602490fd5b9293909193843b613c9b575b5050505050565b604051630a85bd0160e11b8082526001600160a01b039586166004830152938516602482015260448101919091526080606482015260209594909316939290859082908190613cee90608483019061362d565b03815f885af15f9181613d92575b50613d5b575050503d5f14613d53573d91613d16836138ce565b92613d24604051948561380b565b83523d5f8285013e5b82519283613d4e57604051633250574960e11b815260048101849052602490fd5b019050fd5b606091613d2d565b9193506001600160e01b031990911603613d7a57505f80808080613c94565b60249060405190633250574960e11b82526004820152fd5b9091508581813d8311613dcb575b613daa818361380b565b81010312610c3a57516001600160e01b031981168103610c3a57905f613cfc565b503d613da056fea66cc928b5edb82af9bd49922954155ab7b0942694bea4ce44661d9a8736c688a2646970667358221220aad0225b834e6470ce0ffcca416854835c895ffb7886be653636a2918b5ea71164736f6c63430008180033","opcodes":"PUSH1 0x80 CALLVALUE PUSH3 0x385 JUMPI PUSH1 0x1F NOT SWAP1 PUSH1 0x1 PUSH1 0x1 PUSH1 0x40 SHL SUB PUSH1 0x1F PUSH3 0x41D2 CODESIZE DUP2 SWAP1 SUB DUP3 DUP2 ADD DUP7 AND DUP6 ADD DUP5 DUP2 GT DUP7 DUP3 LT OR PUSH3 0x2A7 JUMPI DUP6 SWAP3 DUP3 SWAP2 PUSH1 0x40 MSTORE DUP4 CODECOPY PUSH1 0x20 SWAP5 DUP6 SWAP2 DUP2 ADD SUB SLT PUSH3 0x385 JUMPI MLOAD PUSH1 0x1 PUSH1 0x1 PUSH1 0xA0 SHL SUB DUP1 DUP3 AND SWAP4 SWAP1 SWAP3 SWAP1 SWAP2 DUP5 SWAP1 SUB PUSH3 0x385 JUMPI PUSH3 0x6A PUSH3 0x389 JUMP JUMPDEST SWAP5 PUSH1 0x15 DUP7 MSTORE PUSH32 0x496E70696E697479204369747920576561706F6E730000000000000000000000 DUP2 DUP8 ADD MSTORE PUSH3 0x9E PUSH3 0x389 JUMP JUMPDEST SWAP7 PUSH1 0x3 DUP9 MSTORE PUSH3 0x494357 PUSH1 0xE8 SHL DUP3 DUP10 ADD MSTORE DUP7 MLOAD DUP5 DUP2 GT PUSH3 0x2A7 JUMPI PUSH0 SLOAD PUSH1 0x1 SWAP9 DUP10 DUP3 DUP2 SHR SWAP3 AND DUP1 ISZERO PUSH3 0x37A JUMPI JUMPDEST DUP6 DUP4 LT EQ PUSH3 0x288 JUMPI DUP2 DUP7 DUP5 SWAP4 GT PUSH3 0x327 JUMPI JUMPDEST POP DUP5 SWAP1 DUP7 DUP4 GT PUSH1 0x1 EQ PUSH3 0x2C7 JUMPI PUSH0 SWAP3 PUSH3 0x2BB JUMPI JUMPDEST POP POP PUSH0 NOT PUSH1 0x3 DUP4 SWAP1 SHL SHR NOT AND SWAP1 DUP9 SHL OR PUSH0 SSTORE JUMPDEST DUP8 MLOAD SWAP4 DUP5 GT PUSH3 0x2A7 JUMPI DUP7 SLOAD DUP8 DUP2 DUP2 SHR SWAP2 AND DUP1 ISZERO PUSH3 0x29C JUMPI JUMPDEST DUP4 DUP3 LT EQ PUSH3 0x288 JUMPI DUP4 DUP2 GT PUSH3 0x240 JUMPI JUMPDEST POP DUP2 SWAP3 DUP5 GT PUSH1 0x1 EQ PUSH3 0x1DA JUMPI POP POP DUP2 SWAP3 SWAP4 SWAP5 SWAP6 PUSH0 SWAP3 PUSH3 0x1CE JUMPI JUMPDEST POP POP PUSH0 NOT PUSH1 0x3 DUP4 SWAP1 SHL SHR NOT AND SWAP1 DUP5 SHL OR DUP4 SSTORE JUMPDEST DUP2 ISZERO PUSH3 0x1B6 JUMPI PUSH1 0x6 DUP1 SLOAD PUSH1 0x1 PUSH1 0x1 PUSH1 0xA0 SHL SUB NOT DUP2 AND DUP5 OR SWAP1 SWAP2 SSTORE AND PUSH32 0x8BE0079C531659141344CD1FD0A4F28419497F9722A3DAAFE3B4186F6B6457E0 PUSH0 DUP1 LOG3 PUSH1 0x8 SSTORE PUSH1 0x40 MLOAD PUSH2 0x3E28 SWAP1 DUP2 PUSH3 0x3AA DUP3 CODECOPY RETURN JUMPDEST PUSH1 0x40 MLOAD PUSH4 0x1E4FBDF7 PUSH1 0xE0 SHL DUP2 MSTORE PUSH0 PUSH1 0x4 DUP3 ADD MSTORE PUSH1 0x24 SWAP1 REVERT JUMPDEST ADD MLOAD SWAP1 POP PUSH0 DUP1 PUSH3 0x150 JUMP JUMPDEST PUSH0 DUP8 DUP2 MSTORE DUP3 DUP2 KECCAK256 SWAP2 DUP6 AND SWAP9 SWAP2 SWAP4 SWAP3 JUMPDEST DUP10 DUP3 LT PUSH3 0x228 JUMPI POP POP DUP4 DUP8 SWAP9 SWAP8 SWAP6 SWAP7 SWAP8 LT PUSH3 0x20F JUMPI JUMPDEST POP POP POP DUP2 SHL ADD DUP4 SSTORE PUSH3 0x163 JUMP JUMPDEST ADD MLOAD PUSH0 NOT PUSH1 0xF8 DUP5 PUSH1 0x3 SHL AND SHR NOT AND SWAP1 SSTORE PUSH0 DUP1 DUP1 PUSH3 0x201 JUMP JUMPDEST DUP1 DUP10 DUP6 SWAP7 DUP3 SWAP5 SWAP7 DUP7 ADD MLOAD DUP2 SSTORE ADD SWAP6 ADD SWAP4 ADD SWAP1 PUSH3 0x1E9 JUMP JUMPDEST DUP8 PUSH0 MSTORE DUP3 PUSH0 KECCAK256 DUP5 DUP1 DUP8 ADD PUSH1 0x5 SHR DUP3 ADD SWAP3 DUP6 DUP9 LT PUSH3 0x27E JUMPI JUMPDEST ADD PUSH1 0x5 SHR ADD SWAP1 DUP9 SWAP1 JUMPDEST DUP3 DUP2 LT PUSH3 0x272 JUMPI POP POP PUSH3 0x134 JUMP JUMPDEST PUSH0 DUP2 SSTORE ADD DUP9 SWAP1 PUSH3 0x262 JUMP JUMPDEST SWAP3 POP DUP2 SWAP3 PUSH3 0x259 JUMP JUMPDEST PUSH4 0x4E487B71 PUSH1 0xE0 SHL PUSH0 MSTORE PUSH1 0x22 PUSH1 0x4 MSTORE PUSH1 0x24 PUSH0 REVERT JUMPDEST SWAP1 PUSH1 0x7F AND SWAP1 PUSH3 0x122 JUMP JUMPDEST PUSH4 0x4E487B71 PUSH1 0xE0 SHL PUSH0 MSTORE PUSH1 0x41 PUSH1 0x4 MSTORE PUSH1 0x24 PUSH0 REVERT JUMPDEST ADD MLOAD SWAP1 POP PUSH0 DUP1 PUSH3 0xF5 JUMP JUMPDEST SWAP1 DUP5 DUP12 SWAP5 AND SWAP2 PUSH0 DUP1 MSTORE DUP7 PUSH0 KECCAK256 SWAP3 PUSH0 JUMPDEST DUP9 DUP3 DUP3 LT PUSH3 0x310 JUMPI POP POP DUP5 GT PUSH3 0x2F7 JUMPI JUMPDEST POP POP POP DUP2 SHL ADD PUSH0 SSTORE PUSH3 0x108 JUMP JUMPDEST ADD MLOAD PUSH0 NOT PUSH1 0xF8 DUP5 PUSH1 0x3 SHL AND SHR NOT AND SWAP1 SSTORE PUSH0 DUP1 DUP1 PUSH3 0x2E9 JUMP JUMPDEST DUP4 DUP6 ADD MLOAD DUP7 SSTORE DUP15 SWAP8 SWAP1 SWAP6 ADD SWAP5 SWAP4 DUP5 ADD SWAP4 ADD PUSH3 0x2D6 JUMP JUMPDEST SWAP1 SWAP2 POP PUSH0 DUP1 MSTORE DUP5 PUSH0 KECCAK256 DUP7 DUP1 DUP6 ADD PUSH1 0x5 SHR DUP3 ADD SWAP3 DUP8 DUP7 LT PUSH3 0x370 JUMPI JUMPDEST SWAP2 DUP13 SWAP2 DUP7 SWAP6 SWAP5 SWAP4 ADD PUSH1 0x5 SHR ADD SWAP2 JUMPDEST DUP3 DUP2 LT PUSH3 0x361 JUMPI POP POP PUSH3 0xDF JUMP JUMPDEST PUSH0 DUP2 SSTORE DUP6 SWAP5 POP DUP13 SWAP2 ADD PUSH3 0x351 JUMP JUMPDEST SWAP3 POP DUP2 SWAP3 PUSH3 0x343 JUMP JUMPDEST SWAP2 PUSH1 0x7F AND SWAP2 PUSH3 0xCB JUMP JUMPDEST PUSH0 DUP1 REVERT JUMPDEST PUSH1 0x40 DUP1 MLOAD SWAP2 SWAP1 DUP3 ADD PUSH1 0x1 PUSH1 0x1 PUSH1 0x40 SHL SUB DUP2 GT DUP4 DUP3 LT OR PUSH3 0x2A7 JUMPI PUSH1 0x40 MSTORE JUMP INVALID PUSH2 0x540 DUP1 PUSH1 0x40 MSTORE PUSH1 0x4 CALLDATASIZE LT ISZERO PUSH2 0x13 JUMPI PUSH0 DUP1 REVERT JUMPDEST PUSH0 CALLDATALOAD PUSH1 0xE0 SHR SWAP1 DUP2 PUSH4 0x1FFC9A7 EQ PUSH2 0x35A1 JUMPI POP DUP1 PUSH4 0x6FDDE03 EQ PUSH2 0x34FA JUMPI DUP1 PUSH4 0x81812FC EQ PUSH2 0x34BE JUMPI DUP1 PUSH4 0x95EA7B3 EQ PUSH2 0x33DD JUMPI DUP1 PUSH4 0x14207DDA EQ PUSH2 0x32B0 JUMPI DUP1 PUSH4 0x1E8B3BE9 EQ PUSH2 0x30A4 JUMPI DUP1 PUSH4 0x239C011D EQ PUSH2 0x29F9 JUMPI DUP1 PUSH4 0x23B872DD EQ PUSH2 0x29E2 JUMPI DUP1 PUSH4 0x2EFCC220 EQ PUSH2 0x2874 JUMPI DUP1 PUSH4 0x41D71B9C EQ PUSH2 0x2840 JUMPI DUP1 PUSH4 0x42842E0E EQ PUSH2 0x2813 JUMPI DUP1 PUSH4 0x4EBA5E04 EQ PUSH2 0x26DC JUMPI DUP1 PUSH4 0x52B6A409 EQ PUSH2 0x2699 JUMPI DUP1 PUSH4 0x55F804B3 EQ PUSH2 0x24E9 JUMPI DUP1 PUSH4 0x6352211E EQ PUSH2 0x24B9 JUMPI DUP1 PUSH4 0x63FF2287 EQ PUSH2 0x1C89 JUMPI DUP1 PUSH4 0x70A08231 EQ PUSH2 0x1C33 JUMPI DUP1 PUSH4 0x715018A6 EQ PUSH2 0x1BD8 JUMPI DUP1 PUSH4 0x75794A3C EQ PUSH2 0x1BBB JUMPI DUP1 PUSH4 0x8DA5CB5B EQ PUSH2 0x1B93 JUMPI DUP1 PUSH4 0x8F2CF344 EQ PUSH2 0x18FB JUMPI DUP1 PUSH4 0x95D89B41 EQ PUSH2 0x1852 JUMPI DUP1 PUSH4 0xA22CB465 EQ PUSH2 0x17AB JUMPI DUP1 PUSH4 0xA987FCDD EQ PUSH2 0x16D0 JUMPI DUP1 PUSH4 0xAA2FE91B EQ PUSH2 0x1693 JUMPI DUP1 PUSH4 0xB88D4FDE EQ PUSH2 0x1626 JUMPI DUP1 PUSH4 0xBB1F0753 EQ PUSH2 0x1126 JUMPI DUP1 PUSH4 0xC87B56DD EQ PUSH2 0xEDF JUMPI DUP1 PUSH4 0xCACA6F87 EQ PUSH2 0xE81 JUMPI DUP1 PUSH4 0xD547CFB7 EQ PUSH2 0xDB2 JUMPI DUP1 PUSH4 0xE985E9C5 EQ PUSH2 0xD60 JUMPI DUP1 PUSH4 0xED58BAD8 EQ PUSH2 0xCC5 JUMPI DUP1 PUSH4 0xF2FDE38B EQ PUSH2 0xC3E JUMPI PUSH4 0xF5DD3CEB EQ PUSH2 0x193 JUMPI PUSH0 DUP1 REVERT JUMPDEST CALLVALUE PUSH2 0xC3A JUMPI PUSH1 0x20 CALLDATASIZE PUSH1 0x3 NOT ADD SLT PUSH2 0xC3A JUMPI PUSH0 PUSH2 0x2C0 PUSH1 0x40 MLOAD PUSH2 0x1B4 DUP2 PUSH2 0x37B8 JUMP JUMPDEST DUP3 DUP2 MSTORE DUP3 PUSH1 0x20 DUP3 ADD MSTORE DUP3 PUSH1 0x40 DUP3 ADD MSTORE DUP3 PUSH1 0x60 DUP3 ADD MSTORE DUP3 PUSH1 0x80 DUP3 ADD MSTORE DUP3 PUSH1 0xA0 DUP3 ADD MSTORE DUP3 PUSH1 0xC0 DUP3 ADD MSTORE DUP3 PUSH1 0xE0 DUP3 ADD MSTORE DUP3 PUSH2 0x100 DUP3 ADD MSTORE DUP3 PUSH2 0x120 DUP3 ADD MSTORE DUP3 PUSH2 0x140 DUP3 ADD MSTORE DUP3 PUSH2 0x160 DUP3 ADD MSTORE DUP3 PUSH2 0x180 DUP3 ADD MSTORE DUP3 PUSH2 0x1A0 DUP3 ADD MSTORE DUP3 PUSH2 0x1C0 DUP3 ADD MSTORE DUP3 PUSH2 0x1E0 DUP3 ADD MSTORE DUP3 PUSH2 0x200 DUP3 ADD MSTORE DUP3 PUSH2 0x220 DUP3 ADD MSTORE DUP3 PUSH2 0x240 DUP3 ADD MSTORE DUP3 PUSH2 0x260 DUP3 ADD MSTORE DUP3 PUSH2 0x280 DUP3 ADD MSTORE DUP3 PUSH2 0x2A0 DUP3 ADD MSTORE ADD MSTORE PUSH2 0x250 PUSH1 0x4 CALLDATALOAD PUSH2 0x3BE8 JUMP JUMPDEST PUSH1 0x4 CALLDATALOAD PUSH0 MSTORE PUSH1 0xA PUSH1 0x20 MSTORE PUSH1 0x40 PUSH0 KECCAK256 PUSH1 0xFF PUSH1 0xF PUSH1 0x40 MLOAD SWAP3 PUSH2 0x26F DUP5 PUSH2 0x3780 JUMP JUMPDEST DUP1 SLOAD DUP5 MSTORE PUSH1 0x1 DUP2 ADD SLOAD PUSH1 0x20 DUP6 ADD MSTORE PUSH1 0x2 DUP2 ADD SLOAD PUSH1 0x40 DUP6 ADD MSTORE PUSH1 0x3 DUP2 ADD SLOAD PUSH1 0x60 DUP6 ADD MSTORE PUSH1 0x4 DUP2 ADD SLOAD PUSH1 0x80 DUP6 ADD MSTORE PUSH1 0x5 DUP2 ADD SLOAD PUSH1 0xA0 DUP6 ADD MSTORE PUSH1 0x6 DUP2 ADD SLOAD PUSH1 0xC0 DUP6 ADD MSTORE PUSH1 0x7 DUP2 ADD SLOAD PUSH1 0xE0 DUP6 ADD MSTORE PUSH1 0x8 DUP2 ADD SLOAD PUSH2 0x100 DUP6 ADD MSTORE PUSH1 0x9 DUP2 ADD SLOAD PUSH2 0x120 DUP6 ADD MSTORE PUSH1 0xA DUP2 ADD SLOAD PUSH2 0x140 DUP6 ADD MSTORE PUSH1 0xB DUP2 ADD SLOAD PUSH2 0x160 DUP6 ADD MSTORE PUSH2 0x2F9 DUP4 PUSH1 0xC DUP4 ADD SLOAD AND PUSH2 0x180 DUP7 ADD PUSH2 0x3937 JUMP JUMPDEST PUSH1 0xD DUP2 ADD SLOAD PUSH2 0x1A0 DUP6 ADD MSTORE PUSH1 0xE DUP2 ADD SLOAD PUSH2 0x1C0 DUP6 ADD MSTORE ADD SLOAD DUP2 DUP2 AND ISZERO ISZERO PUSH2 0x1E0 DUP5 ADD MSTORE PUSH1 0x8 SHR AND ISZERO ISZERO PUSH2 0x200 DUP3 ADD MSTORE PUSH1 0x20 DUP2 ADD MLOAD PUSH0 MSTORE PUSH1 0x9 PUSH1 0x20 MSTORE PUSH1 0xFF PUSH1 0x1C PUSH1 0x40 PUSH0 KECCAK256 PUSH1 0x40 MLOAD PUSH2 0x160 MSTORE PUSH2 0x34F PUSH2 0x160 MLOAD PUSH2 0x3764 JUMP JUMPDEST DUP1 SLOAD PUSH2 0x160 MLOAD MSTORE PUSH2 0x362 PUSH1 0x1 DUP3 ADD PUSH2 0x382C JUMP JUMPDEST PUSH1 0x20 PUSH2 0x160 MLOAD ADD MSTORE PUSH2 0x395 DUP4 PUSH1 0x2 DUP4 ADD SLOAD PUSH2 0x385 DUP3 DUP3 AND PUSH1 0x40 PUSH2 0x160 MLOAD ADD PUSH2 0x391F JUMP JUMPDEST PUSH1 0x8 SHR AND PUSH1 0x60 PUSH2 0x160 MLOAD ADD PUSH2 0x392B JUMP JUMPDEST PUSH1 0x3 DUP2 ADD SLOAD PUSH1 0x80 PUSH2 0x160 MLOAD ADD MSTORE PUSH1 0x4 DUP2 ADD SLOAD PUSH1 0xA0 PUSH2 0x160 MLOAD ADD MSTORE PUSH1 0x5 DUP2 ADD SLOAD PUSH1 0xC0 PUSH2 0x160 MLOAD ADD MSTORE PUSH1 0x6 DUP2 ADD SLOAD PUSH1 0xE0 PUSH2 0x160 MLOAD ADD MSTORE PUSH1 0x7 DUP2 ADD SLOAD PUSH2 0x100 PUSH2 0x160 MLOAD ADD MSTORE PUSH1 0x8 DUP2 ADD SLOAD PUSH2 0x120 PUSH2 0x160 MLOAD ADD MSTORE PUSH1 0x9 DUP2 ADD SLOAD PUSH2 0x140 PUSH2 0x160 MLOAD ADD MSTORE PUSH1 0xA DUP2 ADD SLOAD PUSH2 0x160 DUP1 MLOAD ADD MSTORE PUSH1 0xB DUP2 ADD SLOAD PUSH2 0x180 PUSH2 0x160 MLOAD ADD MSTORE PUSH1 0xC DUP2 ADD SLOAD PUSH2 0x1A0 PUSH2 0x160 MLOAD ADD MSTORE PUSH1 0xD DUP2 ADD SLOAD PUSH2 0x1C0 PUSH2 0x160 MLOAD ADD MSTORE PUSH1 0xE DUP2 ADD SLOAD PUSH2 0x1E0 PUSH2 0x160 MLOAD ADD MSTORE PUSH1 0xF DUP2 ADD SLOAD PUSH2 0x200 PUSH2 0x160 MLOAD ADD MSTORE PUSH1 0x10 DUP2 ADD SLOAD PUSH2 0x220 PUSH2 0x160 MLOAD ADD MSTORE PUSH1 0x11 DUP2 ADD SLOAD PUSH2 0x240 PUSH2 0x160 MLOAD ADD MSTORE PUSH1 0x12 DUP2 ADD SLOAD PUSH2 0x260 PUSH2 0x160 MLOAD ADD MSTORE PUSH1 0x13 DUP2 ADD SLOAD PUSH2 0x280 PUSH2 0x160 MLOAD ADD MSTORE PUSH1 0x14 DUP2 ADD SLOAD PUSH2 0x2A0 PUSH2 0x160 MLOAD ADD MSTORE PUSH1 0x15 DUP2 ADD SLOAD PUSH2 0x2C0 PUSH2 0x160 MLOAD ADD MSTORE PUSH1 0x16 DUP2 ADD SLOAD PUSH2 0x2E0 PUSH2 0x160 MLOAD ADD MSTORE PUSH1 0x17 DUP2 ADD SLOAD PUSH2 0x300 PUSH2 0x160 MLOAD ADD MSTORE PUSH1 0x18 DUP2 ADD SLOAD PUSH2 0x320 PUSH2 0x160 MLOAD ADD MSTORE PUSH1 0x19 DUP2 ADD SLOAD PUSH2 0x340 PUSH2 0x160 MLOAD ADD MSTORE PUSH1 0x1A DUP2 ADD SLOAD PUSH2 0x360 PUSH2 0x160 MLOAD ADD MSTORE PUSH1 0x1B DUP2 ADD SLOAD PUSH2 0x380 PUSH2 0x160 MLOAD ADD MSTORE ADD SLOAD AND ISZERO ISZERO PUSH2 0x3A0 PUSH2 0x160 MLOAD ADD MSTORE PUSH1 0x4 CALLDATALOAD PUSH0 MSTORE PUSH1 0xB PUSH1 0x20 MSTORE PUSH2 0x627 PUSH1 0x40 PUSH0 KECCAK256 PUSH1 0x40 MLOAD PUSH2 0x200 MSTORE PUSH2 0x51F PUSH2 0x200 MLOAD PUSH2 0x379C JUMP JUMPDEST PUSH1 0x12 DUP2 SLOAD SWAP2 DUP3 PUSH2 0x200 MLOAD MSTORE PUSH1 0x1 DUP2 ADD SLOAD PUSH1 0x20 PUSH2 0x200 MLOAD ADD MSTORE PUSH1 0x2 DUP2 ADD SLOAD PUSH1 0x40 PUSH2 0x200 MLOAD ADD MSTORE PUSH1 0x3 DUP2 ADD SLOAD PUSH1 0x60 PUSH2 0x200 MLOAD ADD MSTORE PUSH1 0x4 DUP2 ADD SLOAD PUSH1 0x80 PUSH2 0x200 MLOAD ADD MSTORE PUSH1 0x5 DUP2 ADD SLOAD PUSH1 0xA0 PUSH2 0x200 MLOAD ADD MSTORE PUSH1 0x6 DUP2 ADD SLOAD PUSH1 0xC0 PUSH2 0x200 MLOAD ADD MSTORE PUSH1 0x7 DUP2 ADD SLOAD PUSH1 0xE0 PUSH2 0x200 MLOAD ADD MSTORE PUSH1 0x8 DUP2 ADD SLOAD PUSH2 0x100 PUSH2 0x200 MLOAD ADD MSTORE PUSH1 0x9 DUP2 ADD SLOAD PUSH2 0x120 PUSH2 0x200 MLOAD ADD MSTORE PUSH1 0xA DUP2 ADD SLOAD PUSH2 0x140 PUSH2 0x200 MLOAD ADD MSTORE PUSH1 0xB DUP2 ADD SLOAD PUSH2 0x160 PUSH2 0x200 MLOAD ADD MSTORE PUSH1 0xC DUP2 ADD SLOAD PUSH2 0x180 PUSH2 0x200 MLOAD ADD MSTORE PUSH1 0xD DUP2 ADD SLOAD PUSH2 0x1A0 PUSH2 0x200 MLOAD ADD MSTORE PUSH1 0xE DUP2 ADD SLOAD PUSH2 0x1C0 PUSH2 0x200 MLOAD ADD MSTORE PUSH1 0xF DUP2 ADD SLOAD PUSH2 0x1E0 PUSH2 0x200 MLOAD ADD MSTORE PUSH1 0x10 DUP2 ADD SLOAD PUSH2 0x200 DUP1 MLOAD ADD MSTORE PUSH1 0x11 DUP2 ADD SLOAD PUSH2 0x220 PUSH2 0x200 MLOAD ADD MSTORE ADD SLOAD PUSH2 0x240 PUSH2 0x200 MLOAD ADD MSTORE PUSH1 0xE0 PUSH2 0x160 MLOAD ADD MLOAD PUSH2 0x3B93 JUMP JUMPDEST PUSH0 DUP2 SLT ISZERO PUSH2 0xC35 JUMPI POP PUSH0 JUMPDEST PUSH2 0x64C PUSH2 0x100 PUSH2 0x160 MLOAD ADD MLOAD PUSH1 0x20 PUSH2 0x200 MLOAD ADD MLOAD SWAP1 PUSH2 0x3B93 JUMP JUMPDEST PUSH0 PUSH2 0x1C0 MSTORE PUSH0 DUP2 SLT PUSH0 EQ PUSH2 0xC2C JUMPI POP PUSH0 PUSH2 0x1C0 MSTORE JUMPDEST DUP1 PUSH2 0x1C0 MLOAD LT PUSH2 0xC1A JUMPI PUSH2 0x685 PUSH2 0x120 PUSH2 0x160 MLOAD ADD MLOAD PUSH1 0x40 PUSH2 0x200 MLOAD ADD MLOAD SWAP1 PUSH2 0x3B93 JUMP JUMPDEST PUSH0 PUSH2 0x180 MSTORE PUSH0 DUP2 SLT PUSH0 EQ PUSH2 0xC11 JUMPI POP PUSH0 PUSH2 0x180 MSTORE JUMPDEST PUSH2 0x6B4 PUSH2 0x140 PUSH2 0x160 MLOAD ADD MLOAD PUSH1 0x60 PUSH2 0x200 MLOAD ADD MLOAD SWAP1 PUSH2 0x3B93 JUMP JUMPDEST PUSH0 DUP2 SLT ISZERO PUSH2 0xC0B JUMPI POP PUSH0 SWAP2 JUMPDEST PUSH2 0x6D8 PUSH2 0x160 DUP1 MLOAD ADD MLOAD PUSH1 0x80 PUSH2 0x200 MLOAD ADD MLOAD SWAP1 PUSH2 0x3B93 JUMP JUMPDEST PUSH0 DUP2 SLT ISZERO PUSH2 0xC05 JUMPI POP PUSH0 SWAP1 JUMPDEST PUSH2 0x6FE PUSH2 0x180 PUSH2 0x160 MLOAD ADD MLOAD PUSH1 0xA0 PUSH2 0x200 MLOAD ADD MLOAD SWAP1 PUSH2 0x3B93 JUMP JUMPDEST PUSH0 DUP2 SLT ISZERO PUSH2 0xBFF JUMPI POP PUSH0 SWAP1 JUMPDEST PUSH2 0x724 PUSH2 0x1A0 PUSH2 0x160 MLOAD ADD MLOAD PUSH1 0xC0 PUSH2 0x200 MLOAD ADD MLOAD SWAP1 PUSH2 0x3B93 JUMP JUMPDEST PUSH0 DUP2 SLT ISZERO PUSH2 0xBF9 JUMPI POP PUSH0 SWAP1 JUMPDEST PUSH2 0x74A PUSH2 0x1C0 PUSH2 0x160 MLOAD ADD MLOAD PUSH1 0xE0 PUSH2 0x200 MLOAD ADD MLOAD SWAP1 PUSH2 0x3B93 JUMP JUMPDEST PUSH0 DUP2 SLT ISZERO PUSH2 0xBF4 JUMPI POP PUSH0 JUMPDEST PUSH2 0x770 PUSH2 0x1E0 PUSH2 0x160 MLOAD ADD MLOAD PUSH2 0x100 PUSH2 0x200 MLOAD ADD MLOAD SWAP1 PUSH2 0x3B93 JUMP JUMPDEST PUSH0 DUP2 SLT ISZERO PUSH2 0xBEF JUMPI POP PUSH0 JUMPDEST PUSH2 0x796 PUSH2 0x200 PUSH2 0x160 MLOAD ADD MLOAD PUSH2 0x120 PUSH2 0x200 MLOAD ADD MLOAD SWAP1 PUSH2 0x3B93 JUMP JUMPDEST PUSH0 DUP2 SLT ISZERO PUSH2 0xBE9 JUMPI POP PUSH0 SWAP2 JUMPDEST PUSH2 0x7BD PUSH2 0x220 PUSH2 0x160 MLOAD ADD MLOAD PUSH2 0x140 PUSH2 0x200 MLOAD ADD MLOAD SWAP1 PUSH2 0x3B93 JUMP JUMPDEST PUSH0 DUP2 SLT ISZERO PUSH2 0xBE3 JUMPI POP PUSH0 SWAP4 JUMPDEST PUSH2 0x7E4 PUSH2 0x240 PUSH2 0x160 MLOAD ADD MLOAD PUSH2 0x160 PUSH2 0x200 MLOAD ADD MLOAD SWAP1 PUSH2 0x3B93 JUMP JUMPDEST PUSH0 DUP2 SLT ISZERO PUSH2 0xBDD JUMPI POP PUSH0 SWAP6 JUMPDEST PUSH2 0x80B PUSH2 0x260 PUSH2 0x160 MLOAD ADD MLOAD PUSH2 0x180 PUSH2 0x200 MLOAD ADD MLOAD SWAP1 PUSH2 0x3B93 JUMP JUMPDEST PUSH0 DUP2 SLT ISZERO PUSH2 0xBD7 JUMPI POP PUSH0 SWAP8 JUMPDEST PUSH2 0x832 PUSH2 0x280 PUSH2 0x160 MLOAD ADD MLOAD PUSH2 0x1A0 PUSH2 0x200 MLOAD ADD MLOAD SWAP1 PUSH2 0x3B93 JUMP JUMPDEST PUSH0 DUP2 SLT ISZERO PUSH2 0xBD1 JUMPI POP PUSH0 SWAP10 JUMPDEST PUSH2 0x859 PUSH2 0x2A0 PUSH2 0x160 MLOAD ADD MLOAD PUSH2 0x1C0 PUSH2 0x200 MLOAD ADD MLOAD SWAP1 PUSH2 0x3B93 JUMP JUMPDEST PUSH0 PUSH1 0x80 MSTORE PUSH0 DUP2 SLT PUSH0 EQ PUSH2 0xBC9 JUMPI POP PUSH0 PUSH1 0x80 MSTORE JUMPDEST PUSH2 0x887 PUSH2 0x2C0 PUSH2 0x160 MLOAD ADD MLOAD PUSH2 0x1E0 PUSH2 0x200 MLOAD ADD MLOAD SWAP1 PUSH2 0x3B93 JUMP JUMPDEST PUSH0 PUSH1 0xC0 MSTORE PUSH0 DUP2 SLT PUSH0 EQ PUSH2 0xBC1 JUMPI POP PUSH0 PUSH1 0xC0 MSTORE JUMPDEST PUSH2 0x8B3 PUSH2 0x2E0 PUSH2 0x160 MLOAD ADD MLOAD PUSH2 0x200 DUP1 MLOAD ADD MLOAD SWAP1 PUSH2 0x3B93 JUMP JUMPDEST PUSH0 PUSH2 0x1E0 MSTORE PUSH0 DUP2 SLT PUSH0 EQ PUSH2 0xBB8 JUMPI POP PUSH0 PUSH2 0x1E0 MSTORE JUMPDEST PUSH2 0x8E3 PUSH2 0x300 PUSH2 0x160 MLOAD ADD MLOAD PUSH2 0x220 PUSH2 0x200 MLOAD ADD MLOAD SWAP1 PUSH2 0x3B93 JUMP JUMPDEST PUSH0 PUSH2 0x1A0 MSTORE PUSH0 DUP2 SLT PUSH0 EQ PUSH2 0xBAF JUMPI POP PUSH0 PUSH2 0x1A0 MSTORE JUMPDEST PUSH2 0x913 PUSH2 0x320 PUSH2 0x160 MLOAD ADD MLOAD PUSH2 0x240 PUSH2 0x200 MLOAD ADD MLOAD SWAP1 PUSH2 0x3B93 JUMP JUMPDEST PUSH0 PUSH2 0x140 MSTORE PUSH0 DUP2 SLT PUSH0 EQ PUSH2 0xBA6 JUMPI POP PUSH0 PUSH2 0x140 MSTORE JUMPDEST PUSH2 0x1C0 MLOAD DUP13 ADD DUP13 GT PUSH2 0xB92 JUMPI PUSH2 0x1C0 MLOAD DUP13 ADD PUSH1 0x1 SHR PUSH2 0x120 MSTORE PUSH2 0x120 MLOAD PUSH2 0x180 MLOAD PUSH2 0x120 MLOAD MUL DIV PUSH2 0x180 MLOAD EQ PUSH2 0x120 MLOAD ISZERO OR ISZERO PUSH2 0xB92 JUMPI PUSH2 0x2E0 SWAP13 PUSH1 0xA0 PUSH1 0x80 DUP7 ADD MLOAD SWAP6 ADD MLOAD PUSH2 0x100 MSTORE PUSH2 0x360 PUSH2 0x160 MLOAD ADD MLOAD PUSH1 0xE0 MSTORE PUSH1 0x40 MLOAD PUSH1 0xA0 MSTORE PUSH2 0x98E PUSH1 0xA0 MLOAD PUSH2 0x37B8 JUMP JUMPDEST DUP13 PUSH1 0xA0 MLOAD MSTORE PUSH2 0x1C0 MLOAD PUSH1 0x20 PUSH1 0xA0 MLOAD ADD MSTORE PUSH2 0x180 MLOAD PUSH1 0x40 PUSH1 0xA0 MLOAD ADD MSTORE PUSH2 0x180 MLOAD PUSH2 0x120 MLOAD MUL PUSH1 0x60 PUSH1 0xA0 MLOAD ADD MSTORE PUSH1 0x80 PUSH1 0xA0 MLOAD ADD MSTORE PUSH1 0xA0 DUP1 MLOAD ADD MSTORE PUSH1 0xC0 PUSH1 0xA0 MLOAD ADD MSTORE PUSH1 0xE0 PUSH1 0xA0 MLOAD ADD MSTORE PUSH2 0x100 PUSH1 0xA0 MLOAD ADD MSTORE PUSH2 0x120 PUSH1 0xA0 MLOAD ADD MSTORE PUSH2 0x140 PUSH1 0xA0 MLOAD ADD MSTORE PUSH2 0x160 PUSH1 0xA0 MLOAD ADD MSTORE PUSH2 0x180 PUSH1 0xA0 MLOAD ADD MSTORE PUSH2 0x1A0 PUSH1 0xA0 MLOAD ADD MSTORE PUSH2 0x1C0 PUSH1 0xA0 MLOAD ADD MSTORE PUSH2 0x1E0 PUSH1 0xA0 MLOAD ADD MSTORE PUSH1 0x80 MLOAD PUSH2 0x200 PUSH1 0xA0 MLOAD ADD MSTORE PUSH1 0xC0 MLOAD PUSH2 0x220 PUSH1 0xA0 MLOAD ADD MSTORE PUSH2 0x1E0 MLOAD PUSH2 0x240 PUSH1 0xA0 MLOAD ADD MSTORE PUSH2 0x1A0 MLOAD PUSH2 0x260 PUSH1 0xA0 MLOAD ADD MSTORE PUSH2 0x140 MLOAD PUSH2 0x280 PUSH1 0xA0 MLOAD ADD MSTORE PUSH2 0x100 MLOAD PUSH2 0x2A0 PUSH1 0xA0 MLOAD ADD MSTORE PUSH1 0xE0 MLOAD PUSH2 0x2C0 PUSH1 0xA0 MLOAD ADD MSTORE PUSH1 0x40 MLOAD SWAP1 DUP2 MSTORE PUSH1 0x20 PUSH1 0xA0 MLOAD ADD MLOAD PUSH1 0x20 DUP3 ADD MSTORE PUSH1 0x40 PUSH1 0xA0 MLOAD ADD MLOAD PUSH1 0x40 DUP3 ADD MSTORE PUSH1 0x60 PUSH1 0xA0 MLOAD ADD MLOAD PUSH1 0x60 DUP3 ADD MSTORE PUSH1 0x80 PUSH1 0xA0 MLOAD ADD MLOAD PUSH1 0x80 DUP3 ADD MSTORE PUSH1 0xA0 DUP1 MLOAD ADD MLOAD PUSH1 0xA0 DUP3 ADD MSTORE PUSH1 0xC0 PUSH1 0xA0 MLOAD ADD MLOAD PUSH1 0xC0 DUP3 ADD MSTORE PUSH1 0xE0 PUSH1 0xA0 MLOAD ADD MLOAD PUSH1 0xE0 DUP3 ADD MSTORE PUSH2 0x100 PUSH1 0xA0 MLOAD ADD MLOAD PUSH2 0x100 DUP3 ADD MSTORE PUSH2 0x120 PUSH1 0xA0 MLOAD ADD MLOAD PUSH2 0x120 DUP3 ADD MSTORE PUSH2 0x140 PUSH1 0xA0 MLOAD ADD MLOAD PUSH2 0x140 DUP3 ADD MSTORE PUSH2 0x160 PUSH1 0xA0 MLOAD ADD MLOAD PUSH2 0x160 DUP3 ADD MSTORE PUSH2 0x180 PUSH1 0xA0 MLOAD ADD MLOAD PUSH2 0x180 DUP3 ADD MSTORE PUSH2 0x1A0 PUSH1 0xA0 MLOAD ADD MLOAD PUSH2 0x1A0 DUP3 ADD MSTORE PUSH2 0x1C0 PUSH1 0xA0 MLOAD ADD MLOAD PUSH2 0x1C0 DUP3 ADD MSTORE PUSH2 0x1E0 PUSH1 0xA0 MLOAD ADD MLOAD PUSH2 0x1E0 DUP3 ADD MSTORE PUSH2 0x200 PUSH1 0xA0 MLOAD ADD MLOAD PUSH2 0x200 DUP3 ADD MSTORE PUSH2 0x220 PUSH1 0xA0 MLOAD ADD MLOAD PUSH2 0x220 DUP3 ADD MSTORE PUSH2 0x240 PUSH1 0xA0 MLOAD ADD MLOAD PUSH2 0x240 DUP3 ADD MSTORE PUSH2 0x260 PUSH1 0xA0 MLOAD ADD MLOAD PUSH2 0x260 DUP3 ADD MSTORE PUSH2 0x280 PUSH1 0xA0 MLOAD ADD MLOAD PUSH2 0x280 DUP3 ADD MSTORE PUSH2 0x2A0 PUSH1 0xA0 MLOAD ADD MLOAD PUSH2 0x2A0 DUP3 ADD MSTORE PUSH2 0x2C0 PUSH1 0xA0 MLOAD ADD MLOAD PUSH2 0x2C0 DUP3 ADD MSTORE RETURN JUMPDEST PUSH4 0x4E487B71 PUSH1 0xE0 SHL PUSH0 MSTORE PUSH1 0x11 PUSH1 0x4 MSTORE PUSH1 0x24 PUSH0 REVERT JUMPDEST PUSH2 0x140 MSTORE PUSH2 0x928 JUMP JUMPDEST PUSH2 0x1A0 MSTORE PUSH2 0x8F8 JUMP JUMPDEST PUSH2 0x1E0 MSTORE PUSH2 0x8C8 JUMP JUMPDEST PUSH1 0xC0 MSTORE PUSH2 0x89A JUMP JUMPDEST PUSH1 0x80 MSTORE PUSH2 0x86C JUMP JUMPDEST SWAP10 PUSH2 0x83E JUMP JUMPDEST SWAP8 PUSH2 0x817 JUMP JUMPDEST SWAP6 PUSH2 0x7F0 JUMP JUMPDEST SWAP4 PUSH2 0x7C9 JUMP JUMPDEST SWAP2 PUSH2 0x7A2 JUMP JUMPDEST PUSH2 0x77B JUMP JUMPDEST PUSH2 0x755 JUMP JUMPDEST SWAP1 PUSH2 0x730 JUMP JUMPDEST SWAP1 PUSH2 0x70A JUMP JUMPDEST SWAP1 PUSH2 0x6E4 JUMP JUMPDEST SWAP2 PUSH2 0x6C0 JUMP JUMPDEST PUSH2 0x180 MSTORE PUSH2 0x69A JUMP JUMPDEST PUSH1 0x40 MLOAD PUSH4 0x2A9FFAB7 PUSH1 0xE2 SHL DUP2 MSTORE PUSH1 0x4 SWAP1 REVERT JUMPDEST PUSH2 0x1C0 MSTORE PUSH2 0x661 JUMP JUMPDEST PUSH2 0x632 JUMP JUMPDEST PUSH0 DUP1 REVERT JUMPDEST CALLVALUE PUSH2 0xC3A JUMPI PUSH1 0x20 CALLDATASIZE PUSH1 0x3 NOT ADD SLT PUSH2 0xC3A JUMPI PUSH2 0xC57 PUSH2 0x3652 JUMP JUMPDEST PUSH2 0xC5F PUSH2 0x3C5C JUMP JUMPDEST PUSH1 0x1 PUSH1 0x1 PUSH1 0xA0 SHL SUB SWAP1 DUP2 AND SWAP1 DUP2 ISZERO PUSH2 0xCAD JUMPI PUSH1 0x6 SLOAD DUP3 PUSH1 0x1 PUSH1 0x1 PUSH1 0x60 SHL SUB PUSH1 0xA0 SHL DUP3 AND OR PUSH1 0x6 SSTORE AND PUSH32 0x8BE0079C531659141344CD1FD0A4F28419497F9722A3DAAFE3B4186F6B6457E0 PUSH0 DUP1 LOG3 STOP JUMPDEST PUSH1 0x40 MLOAD PUSH4 0x1E4FBDF7 PUSH1 0xE0 SHL DUP2 MSTORE PUSH0 PUSH1 0x4 DUP3 ADD MSTORE PUSH1 0x24 SWAP1 REVERT JUMPDEST CALLVALUE PUSH2 0xC3A JUMPI PUSH1 0x40 CALLDATASIZE PUSH1 0x3 NOT ADD SLT PUSH2 0xC3A JUMPI PUSH2 0xCDE PUSH2 0x3652 JUMP JUMPDEST PUSH2 0xCE6 PUSH2 0x36A1 JUMP JUMPDEST SWAP1 PUSH2 0xCEF PUSH2 0x3C5C JUMP JUMPDEST PUSH1 0x1 PUSH1 0x1 PUSH1 0xA0 SHL SUB AND SWAP1 DUP2 ISZERO PUSH2 0xD4E JUMPI PUSH1 0x20 PUSH32 0x17F5B635C984BD6BD0661FD547F6085EF1A0813EF0C42D24B12A06F6824B5E08 SWAP2 DUP4 PUSH0 MSTORE PUSH1 0xC DUP3 MSTORE PUSH2 0xD43 DUP2 PUSH1 0x40 PUSH0 KECCAK256 SWAP1 PUSH1 0xFF DUP1 NOT DUP4 SLOAD AND SWAP2 ISZERO ISZERO AND OR SWAP1 SSTORE JUMP JUMPDEST PUSH1 0x40 MLOAD SWAP1 ISZERO ISZERO DUP2 MSTORE LOG2 STOP JUMPDEST PUSH1 0x40 MLOAD PUSH4 0xD92E233D PUSH1 0xE0 SHL DUP2 MSTORE PUSH1 0x4 SWAP1 REVERT JUMPDEST CALLVALUE PUSH2 0xC3A JUMPI PUSH1 0x40 CALLDATASIZE PUSH1 0x3 NOT ADD SLT PUSH2 0xC3A JUMPI PUSH2 0xD79 PUSH2 0x3652 JUMP JUMPDEST PUSH2 0xD81 PUSH2 0x3668 JUMP JUMPDEST SWAP1 PUSH1 0x1 DUP1 PUSH1 0xA0 SHL SUB DUP1 SWAP2 AND PUSH0 MSTORE PUSH1 0x5 PUSH1 0x20 MSTORE PUSH1 0x40 PUSH0 KECCAK256 SWAP2 AND PUSH0 MSTORE PUSH1 0x20 MSTORE PUSH1 0x20 PUSH1 0xFF PUSH1 0x40 PUSH0 KECCAK256 SLOAD AND PUSH1 0x40 MLOAD SWAP1 ISZERO ISZERO DUP2 MSTORE RETURN JUMPDEST CALLVALUE PUSH2 0xC3A JUMPI PUSH0 CALLDATASIZE PUSH1 0x3 NOT ADD SLT PUSH2 0xC3A JUMPI PUSH1 0x40 MLOAD PUSH1 0x7 SLOAD PUSH0 DUP3 PUSH2 0xDD3 DUP4 PUSH2 0x372C JUMP JUMPDEST SWAP2 DUP3 DUP3 MSTORE PUSH1 0x20 SWAP4 PUSH1 0x1 SWAP1 DUP6 PUSH1 0x1 DUP3 AND SWAP2 DUP3 PUSH0 EQ PUSH2 0xE61 JUMPI POP POP PUSH1 0x1 EQ PUSH2 0xE19 JUMPI JUMPDEST POP PUSH2 0xE01 SWAP3 POP SUB DUP4 PUSH2 0x380B JUMP JUMPDEST PUSH2 0xE15 PUSH1 0x40 MLOAD SWAP3 DUP3 DUP5 SWAP4 DUP5 MSTORE DUP4 ADD SWAP1 PUSH2 0x362D JUMP JUMPDEST SUB SWAP1 RETURN JUMPDEST DUP5 SWAP2 POP PUSH1 0x7 PUSH0 MSTORE PUSH0 DUP1 MLOAD PUSH1 0x20 PUSH2 0x3DD3 DUP4 CODECOPY DUP2 MLOAD SWAP2 MSTORE SWAP1 PUSH0 SWAP2 JUMPDEST DUP6 DUP4 LT PUSH2 0xE49 JUMPI POP POP PUSH2 0xE01 SWAP4 POP DUP3 ADD ADD DUP6 PUSH2 0xDF4 JUMP JUMPDEST DUP1 SLOAD DUP4 DUP10 ADD DUP6 ADD MSTORE DUP8 SWAP5 POP DUP7 SWAP4 SWAP1 SWAP3 ADD SWAP2 DUP2 ADD PUSH2 0xE32 JUMP JUMPDEST PUSH1 0xFF NOT AND DUP6 DUP3 ADD MSTORE PUSH2 0xE01 SWAP6 ISZERO ISZERO PUSH1 0x5 SHL DUP6 ADD ADD SWAP3 POP DUP8 SWAP2 POP PUSH2 0xDF4 SWAP1 POP JUMP JUMPDEST CALLVALUE PUSH2 0xC3A JUMPI PUSH1 0x20 PUSH32 0xDB5932D72D80815C1CFEEC4447210E1007A70BA2F081E564C59A8E780489A4E2 PUSH2 0xEB2 CALLDATASIZE PUSH2 0x368B JUMP JUMPDEST PUSH2 0xEBD SWAP4 SWAP2 SWAP4 PUSH2 0x3C5C JUMP JUMPDEST PUSH2 0xEC6 DUP5 PUSH2 0x3BE8 JUMP JUMPDEST DUP4 PUSH0 MSTORE PUSH1 0xA DUP3 MSTORE DUP1 PUSH1 0x6 PUSH1 0x40 PUSH0 KECCAK256 ADD SSTORE PUSH1 0x40 MLOAD SWAP1 DUP2 MSTORE LOG2 STOP JUMPDEST CALLVALUE PUSH2 0xC3A JUMPI PUSH1 0x20 DUP1 PUSH1 0x3 NOT CALLDATASIZE ADD SLT PUSH2 0xC3A JUMPI PUSH1 0x4 CALLDATALOAD SWAP1 PUSH2 0xEFE DUP3 PUSH2 0x3BE8 JUMP JUMPDEST PUSH0 DUP3 PUSH27 0x184F03E93FF9F4DAA797ED6E38ED64BF6A1F010000000000000000 DUP2 DUP2 DUP2 LT ISZERO PUSH2 0x1118 JUMPI JUMPDEST POP POP PUSH14 0x4EE2D6D415B85ACEF8100000000 DUP1 DUP6 LT ISZERO PUSH2 0x110A JUMPI JUMPDEST POP PUSH7 0x2386F26FC10000 DUP1 DUP6 LT ISZERO PUSH2 0x10FB JUMPI JUMPDEST POP PUSH4 0x5F5E100 DUP1 DUP6 LT ISZERO PUSH2 0x10EC JUMPI JUMPDEST POP PUSH2 0x2710 DUP1 DUP6 LT ISZERO PUSH2 0x10DD JUMPI JUMPDEST POP PUSH1 0x64 DUP5 LT ISZERO PUSH2 0x10CD JUMPI JUMPDEST PUSH1 0xA DUP1 SWAP5 LT ISZERO PUSH2 0x10C3 JUMPI JUMPDEST PUSH1 0x1 SWAP4 PUSH1 0x1 DUP4 ADD SWAP2 DUP6 PUSH1 0x21 PUSH2 0xFB1 PUSH2 0xF9B DUP7 PUSH2 0x38CE JUMP JUMPDEST SWAP6 PUSH2 0xFA9 PUSH1 0x40 MLOAD SWAP8 DUP9 PUSH2 0x380B JUMP JUMPDEST DUP1 DUP8 MSTORE PUSH2 0x38CE JUMP JUMPDEST DUP6 DUP9 ADD SWAP7 SWAP1 PUSH1 0x1F NOT ADD CALLDATASIZE DUP9 CALLDATACOPY DUP6 ADD ADD SWAP1 JUMPDEST PUSH2 0x1095 JUMPI JUMPDEST POP POP POP PUSH1 0x40 MLOAD SWAP4 DUP5 SWAP2 PUSH0 SWAP2 PUSH1 0x7 SLOAD SWAP1 PUSH2 0xFDF DUP3 PUSH2 0x372C JUMP JUMPDEST SWAP2 DUP8 PUSH1 0x1 DUP3 AND SWAP2 DUP3 PUSH0 EQ PUSH2 0x1073 JUMPI POP POP PUSH1 0x1 EQ PUSH2 0x102A JUMPI JUMPDEST POP POP SWAP1 DUP1 PUSH2 0x100F PUSH2 0xE01 SWAP6 PUSH1 0x5 SWAP6 SWAP5 MLOAD SWAP4 DUP5 SWAP2 PUSH2 0x360C JUMP JUMPDEST ADD PUSH5 0x173539B7B7 PUSH1 0xD9 SHL DUP2 MSTORE SUB PUSH1 0x1A NOT DUP2 ADD DUP6 MSTORE ADD DUP4 PUSH2 0x380B JUMP JUMPDEST DUP7 SWAP3 SWAP4 POP PUSH1 0x7 PUSH0 MSTORE PUSH0 DUP1 MLOAD PUSH1 0x20 PUSH2 0x3DD3 DUP4 CODECOPY DUP2 MLOAD SWAP2 MSTORE SWAP1 PUSH0 SWAP2 JUMPDEST DUP4 DUP4 LT PUSH2 0x105B JUMPI POP POP POP DUP4 ADD ADD SWAP1 DUP1 PUSH2 0x100F PUSH2 0xFF7 JUMP JUMPDEST DUP1 SLOAD DUP4 DUP12 ADD DUP7 ADD MSTORE DUP10 SWAP7 POP DUP9 SWAP5 SWAP1 SWAP3 ADD SWAP2 DUP2 ADD PUSH2 0x1044 JUMP JUMPDEST PUSH1 0xFF NOT AND DUP2 DUP9 ADD MSTORE DUP4 ISZERO ISZERO SWAP1 SWAP4 MUL DUP7 ADD SWAP1 SWAP3 ADD SWAP4 POP DUP3 SWAP2 POP PUSH2 0x100F SWAP1 POP PUSH2 0xFF7 JUMP JUMPDEST PUSH0 NOT ADD SWAP1 DUP3 SWAP1 PUSH16 0x181899199A1A9B1B9C1CB0B131B232B3 PUSH1 0x81 SHL DUP3 DUP3 MOD BYTE DUP4 MSTORE8 DIV SWAP1 DUP7 DUP3 PUSH2 0xFC2 JUMPI POP PUSH2 0xFC7 JUMP JUMPDEST SWAP1 PUSH1 0x1 ADD SWAP1 PUSH2 0xF84 JUMP JUMPDEST SWAP1 SWAP3 PUSH1 0x64 PUSH1 0x2 SWAP2 DIV SWAP4 ADD SWAP1 PUSH2 0xF79 JUMP JUMPDEST PUSH1 0x4 SWAP2 SWAP3 SWAP5 DIV SWAP4 ADD SWAP1 DUP5 PUSH2 0xF6E JUMP JUMPDEST PUSH1 0x8 SWAP2 SWAP3 SWAP5 DIV SWAP4 ADD SWAP1 DUP5 PUSH2 0xF61 JUMP JUMPDEST PUSH1 0x10 SWAP2 SWAP3 SWAP5 DIV SWAP4 ADD SWAP1 DUP5 PUSH2 0xF52 JUMP JUMPDEST DUP4 SWAP2 SWAP3 SWAP5 DIV SWAP4 ADD SWAP1 DUP5 PUSH2 0xF40 JUMP JUMPDEST DIV SWAP4 POP PUSH1 0x40 SWAP2 POP DUP5 DUP1 PUSH2 0xF26 JUMP JUMPDEST CALLVALUE PUSH2 0xC3A JUMPI PUSH2 0x3C0 CALLDATASIZE PUSH1 0x3 NOT ADD SLT PUSH2 0xC3A JUMPI PUSH1 0x24 CALLDATALOAD PUSH1 0x1 PUSH1 0x1 PUSH1 0x40 SHL SUB DUP2 GT PUSH2 0xC3A JUMPI PUSH2 0x1157 SWAP1 CALLDATASIZE SWAP1 PUSH1 0x4 ADD PUSH2 0x36E5 JUMP JUMPDEST SWAP1 PUSH1 0xF PUSH1 0x44 CALLDATALOAD LT ISZERO PUSH2 0xC3A JUMPI PUSH1 0xD PUSH1 0x64 CALLDATALOAD LT ISZERO PUSH2 0xC3A JUMPI PUSH2 0x3A4 CALLDATALOAD SWAP2 DUP3 ISZERO ISZERO DUP4 SUB PUSH2 0xC3A JUMPI PUSH2 0x1184 PUSH2 0x3C5C JUMP JUMPDEST PUSH1 0x4 CALLDATALOAD ISZERO PUSH2 0xC1A JUMPI DUP1 ISZERO PUSH2 0xC1A JUMPI PUSH1 0x44 CALLDATALOAD ISZERO PUSH2 0xC1A JUMPI PUSH1 0x64 CALLDATALOAD ISZERO PUSH2 0xC1A JUMPI PUSH1 0xE4 CALLDATALOAD PUSH2 0x104 CALLDATALOAD LT PUSH2 0xC1A JUMPI PUSH2 0x1C4 CALLDATALOAD ISZERO PUSH2 0xC1A JUMPI PUSH1 0x40 MLOAD PUSH2 0x11C3 DUP2 PUSH2 0x3764 JUMP JUMPDEST PUSH1 0x4 CALLDATALOAD DUP2 MSTORE PUSH2 0x11D3 CALLDATASIZE DUP4 DUP6 PUSH2 0x38E9 JUMP JUMPDEST PUSH1 0x20 DUP3 ADD MSTORE PUSH2 0x11E7 PUSH1 0x44 CALLDATALOAD PUSH1 0x40 DUP4 ADD PUSH2 0x391F JUMP JUMPDEST PUSH2 0x11F6 PUSH1 0x64 CALLDATALOAD PUSH1 0x60 DUP4 ADD PUSH2 0x392B JUMP JUMPDEST PUSH1 0x84 CALLDATALOAD PUSH1 0x80 DUP3 ADD MSTORE PUSH1 0xA4 CALLDATALOAD PUSH1 0xA0 DUP3 ADD MSTORE PUSH1 0xC4 CALLDATALOAD PUSH1 0xC0 DUP3 ADD MSTORE PUSH1 0xE4 CALLDATALOAD PUSH1 0xE0 DUP3 ADD MSTORE PUSH2 0x104 CALLDATALOAD PUSH2 0x100 DUP3 ADD MSTORE PUSH2 0x124 CALLDATALOAD PUSH2 0x120 DUP3 ADD MSTORE PUSH2 0x144 CALLDATALOAD PUSH2 0x140 DUP3 ADD MSTORE PUSH2 0x164 CALLDATALOAD PUSH2 0x160 DUP3 ADD MSTORE PUSH2 0x184 CALLDATALOAD PUSH2 0x180 DUP3 ADD MSTORE PUSH2 0x1A4 CALLDATALOAD PUSH2 0x1A0 DUP3 ADD MSTORE PUSH2 0x1C4 CALLDATALOAD PUSH2 0x1C0 DUP3 ADD MSTORE PUSH2 0x1E4 CALLDATALOAD PUSH2 0x1E0 DUP3 ADD MSTORE PUSH2 0x204 CALLDATALOAD PUSH2 0x200 DUP3 ADD MSTORE PUSH2 0x224 CALLDATALOAD PUSH2 0x220 DUP3 ADD MSTORE PUSH2 0x244 CALLDATALOAD PUSH2 0x240 DUP3 ADD MSTORE PUSH2 0x264 CALLDATALOAD PUSH2 0x260 DUP3 ADD MSTORE PUSH2 0x284 CALLDATALOAD PUSH2 0x280 DUP3 ADD MSTORE PUSH2 0x2A4 CALLDATALOAD PUSH2 0x2A0 DUP3 ADD MSTORE PUSH2 0x2C4 CALLDATALOAD PUSH2 0x2C0 DUP3 ADD MSTORE PUSH2 0x2E4 CALLDATALOAD PUSH2 0x2E0 DUP3 ADD MSTORE PUSH2 0x304 CALLDATALOAD PUSH2 0x300 DUP3 ADD MSTORE PUSH2 0x324 CALLDATALOAD PUSH2 0x320 DUP3 ADD MSTORE PUSH2 0x344 CALLDATALOAD PUSH2 0x340 DUP3 ADD MSTORE PUSH2 0x364 CALLDATALOAD PUSH2 0x360 DUP3 ADD MSTORE PUSH2 0x384 CALLDATALOAD PUSH2 0x380 DUP3 ADD MSTORE DUP4 ISZERO ISZERO PUSH2 0x3A0 DUP3 ADD MSTORE PUSH1 0x4 CALLDATALOAD PUSH0 MSTORE PUSH1 0x9 PUSH1 0x20 MSTORE PUSH1 0x40 PUSH0 KECCAK256 SWAP3 DUP2 MLOAD DUP5 SSTORE PUSH1 0x20 DUP3 ADD MLOAD DUP1 MLOAD SWAP1 PUSH1 0x1 PUSH1 0x1 PUSH1 0x40 SHL SUB DUP3 GT PUSH2 0x1612 JUMPI PUSH2 0x1327 PUSH1 0x1 DUP8 ADD SLOAD PUSH2 0x372C JUMP JUMPDEST PUSH1 0x1F DUP2 GT PUSH2 0x15CE JUMPI JUMPDEST POP PUSH1 0x20 SWAP1 PUSH1 0x1F DUP4 GT PUSH1 0x1 EQ PUSH2 0x1560 JUMPI PUSH2 0x1360 SWAP3 SWAP2 PUSH0 SWAP2 DUP4 PUSH2 0x1555 JUMPI JUMPDEST POP POP DUP2 PUSH1 0x1 SHL SWAP2 PUSH0 NOT SWAP1 PUSH1 0x3 SHL SHR NOT AND OR SWAP1 JUMP JUMPDEST PUSH1 0x1 DUP6 ADD SSTORE JUMPDEST PUSH1 0x40 DUP3 ADD MLOAD PUSH1 0xF DUP2 LT ISZERO PUSH2 0x1541 JUMPI PUSH1 0x2 DUP6 ADD SLOAD SWAP5 PUSH1 0x60 DUP5 ADD MLOAD SWAP6 PUSH1 0xD DUP8 LT ISZERO PUSH2 0x1541 JUMPI PUSH2 0x3A0 PUSH2 0x1509 SWAP6 PUSH2 0x14F7 SWAP5 PUSH1 0x1C SWAP4 PUSH1 0xFF PUSH2 0xFF00 PUSH32 0x75A4D811EE567F7ECDDCA975969DABBC2EF675BAF615938572E27ECCD0B84CFC SWAP13 PUSH1 0x8 SHL AND SWAP3 AND SWAP1 PUSH2 0xFFFF NOT AND OR OR PUSH1 0x2 DUP6 ADD SSTORE PUSH1 0x80 DUP2 ADD MLOAD PUSH1 0x3 DUP6 ADD SSTORE PUSH1 0xA0 DUP2 ADD MLOAD PUSH1 0x4 DUP6 ADD SSTORE PUSH1 0xC0 DUP2 ADD MLOAD PUSH1 0x5 DUP6 ADD SSTORE PUSH1 0xE0 DUP2 ADD MLOAD PUSH1 0x6 DUP6 ADD SSTORE PUSH2 0x100 DUP2 ADD MLOAD PUSH1 0x7 DUP6 ADD SSTORE PUSH2 0x120 DUP2 ADD MLOAD PUSH1 0x8 DUP6 ADD SSTORE PUSH2 0x140 DUP2 ADD MLOAD PUSH1 0x9 DUP6 ADD SSTORE PUSH2 0x160 DUP2 ADD MLOAD PUSH1 0xA DUP6 ADD SSTORE PUSH2 0x180 DUP2 ADD MLOAD PUSH1 0xB DUP6 ADD SSTORE PUSH2 0x1A0 DUP2 ADD MLOAD PUSH1 0xC DUP6 ADD SSTORE PUSH2 0x1C0 DUP2 ADD MLOAD PUSH1 0xD DUP6 ADD SSTORE PUSH2 0x1E0 DUP2 ADD MLOAD PUSH1 0xE DUP6 ADD SSTORE PUSH2 0x200 DUP2 ADD MLOAD PUSH1 0xF DUP6 ADD SSTORE PUSH2 0x220 DUP2 ADD MLOAD PUSH1 0x10 DUP6 ADD SSTORE PUSH2 0x240 DUP2 ADD MLOAD PUSH1 0x11 DUP6 ADD SSTORE PUSH2 0x260 DUP2 ADD MLOAD PUSH1 0x12 DUP6 ADD SSTORE PUSH2 0x280 DUP2 ADD MLOAD PUSH1 0x13 DUP6 ADD SSTORE PUSH2 0x2A0 DUP2 ADD MLOAD PUSH1 0x14 DUP6 ADD SSTORE PUSH2 0x2C0 DUP2 ADD MLOAD PUSH1 0x15 DUP6 ADD SSTORE PUSH2 0x2E0 DUP2 ADD MLOAD PUSH1 0x16 DUP6 ADD SSTORE PUSH2 0x300 DUP2 ADD MLOAD PUSH1 0x17 DUP6 ADD SSTORE PUSH2 0x320 DUP2 ADD MLOAD PUSH1 0x18 DUP6 ADD SSTORE PUSH2 0x340 DUP2 ADD MLOAD PUSH1 0x19 DUP6 ADD SSTORE PUSH2 0x360 DUP2 ADD MLOAD PUSH1 0x1A DUP6 ADD SSTORE PUSH2 0x380 DUP2 ADD MLOAD PUSH1 0x1B DUP6 ADD SSTORE ADD MLOAD ISZERO ISZERO SWAP2 ADD SWAP1 PUSH1 0xFF DUP1 NOT DUP4 SLOAD AND SWAP2 ISZERO ISZERO AND OR SWAP1 SSTORE JUMP JUMPDEST PUSH1 0x40 MLOAD SWAP3 PUSH1 0xA0 DUP5 MSTORE PUSH1 0xA0 DUP5 ADD SWAP2 PUSH2 0x3B73 JUMP JUMPDEST SWAP3 PUSH2 0x1519 PUSH1 0x20 DUP4 ADD PUSH1 0x44 CALLDATALOAD PUSH2 0x3712 JUMP JUMPDEST PUSH2 0x1528 PUSH1 0x40 DUP4 ADD PUSH1 0x64 CALLDATALOAD PUSH2 0x371F JUMP JUMPDEST PUSH1 0x84 CALLDATALOAD PUSH1 0x60 DUP4 ADD MSTORE ISZERO ISZERO PUSH1 0x80 DUP3 ADD MSTORE DUP1 PUSH1 0x4 CALLDATALOAD SWAP4 SUB SWAP1 LOG2 STOP JUMPDEST PUSH4 0x4E487B71 PUSH1 0xE0 SHL PUSH0 MSTORE PUSH1 0x21 PUSH1 0x4 MSTORE PUSH1 0x24 PUSH0 REVERT JUMPDEST ADD MLOAD SWAP1 POP DUP9 DUP1 PUSH2 0x134C JUMP JUMPDEST SWAP2 SWAP1 PUSH1 0x1 DUP8 ADD PUSH0 MSTORE PUSH1 0x20 PUSH0 KECCAK256 SWAP1 PUSH0 SWAP4 JUMPDEST PUSH1 0x1F NOT DUP5 AND DUP6 LT PUSH2 0x15B3 JUMPI PUSH1 0x1 SWAP5 POP DUP4 PUSH1 0x1F NOT DUP2 AND LT PUSH2 0x159B JUMPI JUMPDEST POP POP POP DUP2 SHL ADD PUSH1 0x1 DUP6 ADD SSTORE PUSH2 0x1366 JUMP JUMPDEST ADD MLOAD PUSH0 NOT PUSH1 0xF8 DUP5 PUSH1 0x3 SHL AND SHR NOT AND SWAP1 SSTORE DUP8 DUP1 DUP1 PUSH2 0x158B JUMP JUMPDEST DUP2 DUP2 ADD MLOAD DUP4 SSTORE PUSH1 0x20 SWAP5 DUP6 ADD SWAP5 PUSH1 0x1 SWAP1 SWAP4 ADD SWAP3 SWAP1 SWAP2 ADD SWAP1 PUSH2 0x1570 JUMP JUMPDEST PUSH1 0x1 DUP8 ADD PUSH0 MSTORE PUSH1 0x20 PUSH0 KECCAK256 PUSH1 0x1F DUP5 ADD PUSH1 0x5 SHR DUP2 ADD PUSH1 0x20 DUP6 LT PUSH2 0x160B JUMPI JUMPDEST PUSH1 0x1F DUP4 ADD PUSH1 0x5 SHR DUP3 ADD DUP2 LT PUSH2 0x1600 JUMPI POP POP PUSH2 0x1330 JUMP JUMPDEST PUSH0 DUP2 SSTORE PUSH1 0x1 ADD PUSH2 0x15EA JUMP JUMPDEST POP DUP1 PUSH2 0x15EA JUMP JUMPDEST PUSH4 0x4E487B71 PUSH1 0xE0 SHL PUSH0 MSTORE PUSH1 0x41 PUSH1 0x4 MSTORE PUSH1 0x24 PUSH0 REVERT JUMPDEST CALLVALUE PUSH2 0xC3A JUMPI PUSH1 0x80 CALLDATASIZE PUSH1 0x3 NOT ADD SLT PUSH2 0xC3A JUMPI PUSH2 0x163F PUSH2 0x3652 JUMP JUMPDEST PUSH2 0x1647 PUSH2 0x3668 JUMP JUMPDEST SWAP1 PUSH1 0x44 CALLDATALOAD PUSH1 0x64 CALLDATALOAD SWAP3 PUSH1 0x1 PUSH1 0x1 PUSH1 0x40 SHL SUB DUP5 GT PUSH2 0xC3A JUMPI CALLDATASIZE PUSH1 0x23 DUP6 ADD SLT ISZERO PUSH2 0xC3A JUMPI PUSH2 0x167F PUSH2 0x1691 SWAP5 CALLDATASIZE SWAP1 PUSH1 0x24 DUP2 PUSH1 0x4 ADD CALLDATALOAD SWAP2 ADD PUSH2 0x38E9 JUMP JUMPDEST SWAP3 PUSH2 0x168B DUP4 DUP4 DUP4 PUSH2 0x3943 JUMP JUMPDEST CALLER PUSH2 0x3C88 JUMP JUMPDEST STOP JUMPDEST CALLVALUE PUSH2 0xC3A JUMPI PUSH1 0x20 CALLDATASIZE PUSH1 0x3 NOT ADD SLT PUSH2 0xC3A JUMPI PUSH1 0x1 PUSH1 0x1 PUSH1 0xA0 SHL SUB PUSH2 0x16B4 PUSH2 0x3652 JUMP JUMPDEST AND PUSH0 MSTORE PUSH1 0xC PUSH1 0x20 MSTORE PUSH1 0x20 PUSH1 0xFF PUSH1 0x40 PUSH0 KECCAK256 SLOAD AND PUSH1 0x40 MLOAD SWAP1 ISZERO ISZERO DUP2 MSTORE RETURN JUMPDEST CALLVALUE PUSH2 0xC3A JUMPI PUSH2 0x16DE CALLDATASIZE PUSH2 0x368B JUMP JUMPDEST PUSH1 0x6 SLOAD PUSH1 0x1 PUSH1 0x1 PUSH1 0xA0 SHL SUB AND CALLER EQ DUP1 ISZERO PUSH2 0x1795 JUMPI JUMPDEST ISZERO PUSH2 0x1783 JUMPI PUSH2 0x1701 DUP3 PUSH2 0x3BE8 JUMP JUMPDEST DUP2 PUSH0 MSTORE PUSH1 0xA PUSH1 0x20 MSTORE PUSH1 0x40 PUSH0 KECCAK256 PUSH1 0x1 DUP2 ADD SLOAD PUSH0 MSTORE PUSH1 0x9 PUSH1 0x20 MSTORE PUSH2 0x173A PUSH1 0xD PUSH1 0x40 PUSH0 KECCAK256 ADD SLOAD DUP5 PUSH0 MSTORE PUSH1 0xB PUSH1 0x20 MSTORE PUSH1 0x7 PUSH1 0x40 PUSH0 KECCAK256 ADD SLOAD SWAP1 PUSH2 0x3B93 JUMP JUMPDEST PUSH0 DUP2 SLT ISZERO PUSH2 0x177E JUMPI POP PUSH0 JUMPDEST DUP3 GT PUSH2 0xC1A JUMPI DUP2 PUSH32 0x639B180B62F0984251FFFF3F530749B17FB63828812F715CE46FDB4C0F11481F SWAP3 PUSH1 0x4 PUSH1 0x20 SWAP4 ADD SSTORE PUSH1 0x40 MLOAD SWAP1 DUP2 MSTORE LOG2 STOP JUMPDEST PUSH2 0x1745 JUMP JUMPDEST PUSH1 0x40 MLOAD PUSH4 0xEA8E4EB5 PUSH1 0xE0 SHL DUP2 MSTORE PUSH1 0x4 SWAP1 REVERT JUMPDEST POP CALLER PUSH0 MSTORE PUSH1 0xC PUSH1 0x20 MSTORE PUSH1 0xFF PUSH1 0x40 PUSH0 KECCAK256 SLOAD AND PUSH2 0x16F3 JUMP JUMPDEST CALLVALUE PUSH2 0xC3A JUMPI PUSH1 0x40 CALLDATASIZE PUSH1 0x3 NOT ADD SLT PUSH2 0xC3A JUMPI PUSH2 0x17C4 PUSH2 0x3652 JUMP JUMPDEST PUSH2 0x17CC PUSH2 0x36A1 JUMP JUMPDEST PUSH1 0x1 PUSH1 0x1 PUSH1 0xA0 SHL SUB SWAP1 SWAP2 AND SWAP1 DUP2 ISZERO PUSH2 0x1839 JUMPI CALLER PUSH0 MSTORE PUSH1 0x5 PUSH1 0x20 MSTORE PUSH1 0x40 PUSH0 KECCAK256 DUP3 PUSH0 MSTORE PUSH1 0x20 MSTORE PUSH2 0x1809 DUP2 PUSH1 0x40 PUSH0 KECCAK256 SWAP1 PUSH1 0xFF DUP1 NOT DUP4 SLOAD AND SWAP2 ISZERO ISZERO AND OR SWAP1 SSTORE JUMP JUMPDEST PUSH1 0x40 MLOAD SWAP1 ISZERO ISZERO DUP2 MSTORE PUSH32 0x17307EAB39AB6107E8899845AD3D59BD9653F200F220920489CA2B5937696C31 PUSH1 0x20 CALLER SWAP3 LOG3 STOP JUMPDEST PUSH1 0x40 MLOAD PUSH4 0xB611743 PUSH1 0xE3 SHL DUP2 MSTORE PUSH1 0x4 DUP2 ADD DUP4 SWAP1 MSTORE PUSH1 0x24 SWAP1 REVERT JUMPDEST CALLVALUE PUSH2 0xC3A JUMPI PUSH0 CALLDATASIZE PUSH1 0x3 NOT ADD SLT PUSH2 0xC3A JUMPI PUSH1 0x40 MLOAD PUSH0 PUSH1 0x1 DUP3 PUSH1 0x1 SLOAD SWAP3 PUSH2 0x1876 DUP5 PUSH2 0x372C JUMP JUMPDEST SWAP3 DUP4 DUP4 MSTORE PUSH1 0x20 SWAP5 DUP6 PUSH1 0x1 DUP3 AND SWAP2 DUP3 PUSH0 EQ PUSH2 0xE61 JUMPI POP POP PUSH1 0x1 EQ PUSH2 0x18A0 JUMPI POP PUSH2 0xE01 SWAP3 POP SUB DUP4 PUSH2 0x380B JUMP JUMPDEST DUP5 SWAP2 POP PUSH1 0x1 PUSH0 MSTORE PUSH32 0xB10E2D527612073B26EECDFD717E6A320CF44B4AFAC2B0732D9FCBE2B7FA0CF6 SWAP1 PUSH0 SWAP2 JUMPDEST DUP6 DUP4 LT PUSH2 0x18E3 JUMPI POP POP PUSH2 0xE01 SWAP4 POP DUP3 ADD ADD DUP6 PUSH2 0xDF4 JUMP JUMPDEST DUP1 SLOAD DUP4 DUP10 ADD DUP6 ADD MSTORE DUP8 SWAP5 POP DUP7 SWAP4 SWAP1 SWAP3 ADD SWAP2 DUP2 ADD PUSH2 0x18CC JUMP JUMPDEST CALLVALUE PUSH2 0xC3A JUMPI PUSH1 0x20 CALLDATASIZE PUSH1 0x3 NOT ADD SLT PUSH2 0xC3A JUMPI PUSH1 0x4 CALLDATALOAD PUSH0 MSTORE PUSH1 0x9 PUSH1 0x20 MSTORE PUSH1 0x40 PUSH0 KECCAK256 PUSH2 0x440 MSTORE PUSH2 0x440 MLOAD SLOAD PUSH2 0x300 MSTORE PUSH2 0x1936 PUSH1 0x1 PUSH2 0x440 MLOAD ADD PUSH2 0x382C JUMP JUMPDEST PUSH2 0x440 MLOAD PUSH1 0x2 DUP2 ADD SLOAD PUSH2 0x2C0 MSTORE PUSH1 0x3 DUP2 ADD SLOAD PUSH2 0x2E0 MSTORE PUSH1 0x4 DUP2 ADD SLOAD PUSH2 0x340 MSTORE PUSH1 0x5 DUP2 ADD SLOAD PUSH1 0x6 DUP3 ADD SLOAD PUSH1 0x7 DUP4 ADD SLOAD PUSH1 0x8 DUP5 ADD SLOAD PUSH1 0x9 DUP6 ADD SLOAD PUSH1 0xA DUP7 ADD SLOAD PUSH1 0xB DUP8 ADD SLOAD PUSH1 0xC DUP9 ADD SLOAD PUSH1 0xD DUP10 ADD SLOAD PUSH1 0xE DUP11 ADD SLOAD PUSH1 0xF DUP12 ADD SLOAD PUSH1 0x10 DUP13 ADD SLOAD PUSH1 0x11 DUP14 ADD SLOAD PUSH2 0x220 MSTORE PUSH1 0x12 DUP14 ADD SLOAD PUSH2 0x240 MSTORE PUSH1 0x13 DUP14 ADD SLOAD PUSH2 0x280 MSTORE PUSH1 0x14 DUP14 ADD SLOAD PUSH2 0x420 MSTORE PUSH1 0x15 DUP14 ADD SLOAD PUSH2 0x400 MSTORE PUSH1 0x16 DUP14 ADD SLOAD PUSH2 0x3E0 MSTORE PUSH1 0x17 DUP14 ADD SLOAD PUSH2 0x3C0 SWAP1 DUP2 MSTORE PUSH1 0x18 DUP15 ADD SLOAD PUSH2 0x3A0 MSTORE PUSH1 0x19 DUP15 ADD SLOAD PUSH2 0x380 MSTORE PUSH1 0x1A DUP15 ADD SLOAD PUSH2 0x360 MSTORE PUSH1 0x1B DUP15 ADD SLOAD PUSH2 0x320 MSTORE PUSH1 0x1C SWAP1 SWAP14 ADD SLOAD PUSH1 0xFF AND PUSH2 0x2A0 MSTORE PUSH1 0x40 MLOAD PUSH2 0x260 DUP2 DUP2 MSTORE PUSH2 0x300 MLOAD SWAP1 SWAP2 MSTORE DUP1 MLOAD PUSH1 0x20 ADD DUP15 SWAP1 MSTORE MLOAD SWAP12 SWAP14 SWAP1 SWAP13 SWAP2 SWAP12 SWAP3 SWAP11 SWAP4 SWAP10 SWAP5 SWAP9 SWAP6 SWAP8 SWAP6 SWAP5 SWAP4 SWAP3 PUSH2 0x1A39 SWAP3 ADD SWAP1 PUSH2 0x362D JUMP JUMPDEST SWAP12 PUSH2 0x1A50 PUSH1 0x40 PUSH2 0x260 MLOAD ADD PUSH1 0xFF PUSH2 0x2C0 MLOAD AND PUSH2 0x3712 JUMP JUMPDEST PUSH2 0x1A69 PUSH1 0x60 PUSH2 0x260 MLOAD ADD PUSH1 0xFF PUSH2 0x2C0 MLOAD PUSH1 0x8 SHR AND PUSH2 0x371F JUMP JUMPDEST PUSH2 0x2E0 MLOAD PUSH1 0x80 PUSH2 0x260 MLOAD ADD MSTORE PUSH2 0x340 MLOAD PUSH1 0xA0 PUSH2 0x260 MLOAD ADD MSTORE PUSH1 0xC0 PUSH2 0x260 MLOAD ADD MSTORE PUSH1 0xE0 PUSH2 0x260 MLOAD ADD MSTORE PUSH2 0x100 PUSH2 0x260 MLOAD ADD MSTORE PUSH2 0x120 PUSH2 0x260 MLOAD ADD MSTORE PUSH2 0x140 PUSH2 0x260 MLOAD ADD MSTORE PUSH2 0x160 PUSH2 0x260 MLOAD ADD MSTORE PUSH2 0x180 PUSH2 0x260 MLOAD ADD MSTORE PUSH2 0x1A0 PUSH2 0x260 MLOAD ADD MSTORE PUSH2 0x1C0 PUSH2 0x260 MLOAD ADD MSTORE PUSH2 0x1E0 PUSH2 0x260 MLOAD ADD MSTORE PUSH2 0x200 PUSH2 0x260 MLOAD ADD MSTORE PUSH2 0x220 PUSH2 0x260 MLOAD ADD MSTORE PUSH2 0x220 MLOAD PUSH2 0x240 PUSH2 0x260 MLOAD ADD MSTORE PUSH2 0x240 MLOAD PUSH2 0x260 DUP1 MLOAD ADD MSTORE PUSH2 0x280 MLOAD PUSH2 0x280 PUSH2 0x260 MLOAD ADD MSTORE PUSH2 0x420 MLOAD PUSH2 0x2A0 PUSH2 0x260 MLOAD ADD MSTORE PUSH2 0x400 MLOAD PUSH2 0x2C0 PUSH2 0x260 MLOAD ADD MSTORE PUSH2 0x3E0 MLOAD PUSH2 0x2E0 PUSH2 0x260 MLOAD ADD MSTORE PUSH2 0x3C0 MLOAD PUSH2 0x300 PUSH2 0x260 MLOAD ADD MSTORE PUSH2 0x3A0 MLOAD PUSH2 0x320 PUSH2 0x260 MLOAD ADD MSTORE PUSH2 0x380 MLOAD PUSH2 0x340 PUSH2 0x260 MLOAD ADD MSTORE PUSH2 0x360 MLOAD PUSH2 0x360 PUSH2 0x260 MLOAD ADD MSTORE PUSH2 0x320 MLOAD PUSH2 0x380 PUSH2 0x260 MLOAD ADD MSTORE PUSH2 0x2A0 MLOAD ISZERO ISZERO PUSH2 0x3A0 PUSH2 0x260 MLOAD ADD MSTORE PUSH2 0x260 MLOAD SWAP1 SUB PUSH2 0x260 MLOAD RETURN JUMPDEST CALLVALUE PUSH2 0xC3A JUMPI PUSH0 CALLDATASIZE PUSH1 0x3 NOT ADD SLT PUSH2 0xC3A JUMPI PUSH1 0x6 SLOAD PUSH1 0x40 MLOAD PUSH1 0x1 PUSH1 0x1 PUSH1 0xA0 SHL SUB SWAP1 SWAP2 AND DUP2 MSTORE PUSH1 0x20 SWAP1 RETURN JUMPDEST CALLVALUE PUSH2 0xC3A JUMPI PUSH0 CALLDATASIZE PUSH1 0x3 NOT ADD SLT PUSH2 0xC3A JUMPI PUSH1 0x20 PUSH1 0x8 SLOAD PUSH1 0x40 MLOAD SWAP1 DUP2 MSTORE RETURN JUMPDEST CALLVALUE PUSH2 0xC3A JUMPI PUSH0 CALLDATASIZE PUSH1 0x3 NOT ADD SLT PUSH2 0xC3A JUMPI PUSH2 0x1BF0 PUSH2 0x3C5C JUMP JUMPDEST PUSH1 0x6 DUP1 SLOAD PUSH1 0x1 PUSH1 0x1 PUSH1 0xA0 SHL SUB NOT DUP2 AND SWAP1 SWAP2 SSTORE PUSH0 SWAP1 PUSH1 0x1 PUSH1 0x1 PUSH1 0xA0 SHL SUB AND PUSH32 0x8BE0079C531659141344CD1FD0A4F28419497F9722A3DAAFE3B4186F6B6457E0 DUP3 DUP1 LOG3 STOP JUMPDEST CALLVALUE PUSH2 0xC3A JUMPI PUSH1 0x20 CALLDATASIZE PUSH1 0x3 NOT ADD SLT PUSH2 0xC3A JUMPI PUSH1 0x1 PUSH1 0x1 PUSH1 0xA0 SHL SUB PUSH2 0x1C54 PUSH2 0x3652 JUMP JUMPDEST AND DUP1 ISZERO PUSH2 0x1C71 JUMPI PUSH0 MSTORE PUSH1 0x3 PUSH1 0x20 MSTORE PUSH1 0x20 PUSH1 0x40 PUSH0 KECCAK256 SLOAD PUSH1 0x40 MLOAD SWAP1 DUP2 MSTORE RETURN JUMPDEST PUSH1 0x40 MLOAD PUSH4 0x22718AD9 PUSH1 0xE2 SHL DUP2 MSTORE PUSH0 PUSH1 0x4 DUP3 ADD MSTORE PUSH1 0x24 SWAP1 REVERT JUMPDEST CALLVALUE PUSH2 0xC3A JUMPI PUSH1 0x20 CALLDATASIZE PUSH1 0x3 NOT ADD SLT PUSH2 0xC3A JUMPI PUSH0 PUSH2 0x3A0 PUSH1 0x40 MLOAD PUSH2 0x1CAA DUP2 PUSH2 0x3764 JUMP JUMPDEST DUP3 DUP2 MSTORE PUSH1 0x60 PUSH1 0x20 DUP3 ADD MSTORE DUP3 PUSH1 0x40 DUP3 ADD MSTORE DUP3 PUSH1 0x60 DUP3 ADD MSTORE DUP3 PUSH1 0x80 DUP3 ADD MSTORE DUP3 PUSH1 0xA0 DUP3 ADD MSTORE DUP3 PUSH1 0xC0 DUP3 ADD MSTORE DUP3 PUSH1 0xE0 DUP3 ADD MSTORE DUP3 PUSH2 0x100 DUP3 ADD MSTORE DUP3 PUSH2 0x120 DUP3 ADD MSTORE DUP3 PUSH2 0x140 DUP3 ADD MSTORE DUP3 PUSH2 0x160 DUP3 ADD MSTORE DUP3 PUSH2 0x180 DUP3 ADD MSTORE DUP3 PUSH2 0x1A0 DUP3 ADD MSTORE DUP3 PUSH2 0x1C0 DUP3 ADD MSTORE DUP3 PUSH2 0x1E0 DUP3 ADD MSTORE DUP3 PUSH2 0x200 DUP3 ADD MSTORE DUP3 PUSH2 0x220 DUP3 ADD MSTORE DUP3 PUSH2 0x240 DUP3 ADD MSTORE DUP3 PUSH2 0x260 DUP3 ADD MSTORE DUP3 PUSH2 0x280 DUP3 ADD MSTORE DUP3 PUSH2 0x2A0 DUP3 ADD MSTORE DUP3 PUSH2 0x2C0 DUP3 ADD MSTORE DUP3 PUSH2 0x2E0 DUP3 ADD MSTORE DUP3 PUSH2 0x300 DUP3 ADD MSTORE DUP3 PUSH2 0x320 DUP3 ADD MSTORE DUP3 PUSH2 0x340 DUP3 ADD MSTORE DUP3 PUSH2 0x360 DUP3 ADD MSTORE DUP3 PUSH2 0x380 DUP3 ADD MSTORE ADD MSTORE PUSH0 PUSH2 0x200 PUSH1 0x40 MLOAD PUSH2 0x1D7D DUP2 PUSH2 0x3780 JUMP JUMPDEST DUP3 DUP2 MSTORE DUP3 PUSH1 0x20 DUP3 ADD MSTORE DUP3 PUSH1 0x40 DUP3 ADD MSTORE DUP3 PUSH1 0x60 DUP3 ADD MSTORE DUP3 PUSH1 0x80 DUP3 ADD MSTORE DUP3 PUSH1 0xA0 DUP3 ADD MSTORE DUP3 PUSH1 0xC0 DUP3 ADD MSTORE DUP3 PUSH1 0xE0 DUP3 ADD MSTORE DUP3 PUSH2 0x100 DUP3 ADD MSTORE DUP3 PUSH2 0x120 DUP3 ADD MSTORE DUP3 PUSH2 0x140 DUP3 ADD MSTORE DUP3 PUSH2 0x160 DUP3 ADD MSTORE DUP3 PUSH2 0x180 DUP3 ADD MSTORE DUP3 PUSH2 0x1A0 DUP3 ADD MSTORE DUP3 PUSH2 0x1C0 DUP3 ADD MSTORE DUP3 PUSH2 0x1E0 DUP3 ADD MSTORE ADD MSTORE PUSH0 PUSH2 0x240 PUSH1 0x40 MLOAD PUSH2 0x1DF4 DUP2 PUSH2 0x379C JUMP JUMPDEST DUP3 DUP2 MSTORE DUP3 PUSH1 0x20 DUP3 ADD MSTORE DUP3 PUSH1 0x40 DUP3 ADD MSTORE DUP3 PUSH1 0x60 DUP3 ADD MSTORE DUP3 PUSH1 0x80 DUP3 ADD MSTORE DUP3 PUSH1 0xA0 DUP3 ADD MSTORE DUP3 PUSH1 0xC0 DUP3 ADD MSTORE DUP3 PUSH1 0xE0 DUP3 ADD MSTORE DUP3 PUSH2 0x100 DUP3 ADD MSTORE DUP3 PUSH2 0x120 DUP3 ADD MSTORE DUP3 PUSH2 0x140 DUP3 ADD MSTORE DUP3 PUSH2 0x160 DUP3 ADD MSTORE DUP3 PUSH2 0x180 DUP3 ADD MSTORE DUP3 PUSH2 0x1A0 DUP3 ADD MSTORE DUP3 PUSH2 0x1C0 DUP3 ADD MSTORE DUP3 PUSH2 0x1E0 DUP3 ADD MSTORE DUP3 PUSH2 0x200 DUP3 ADD MSTORE DUP3 PUSH2 0x220 DUP3 ADD MSTORE ADD MSTORE PUSH2 0x1E74 PUSH1 0x4 CALLDATALOAD PUSH2 0x3BE8 JUMP JUMPDEST PUSH1 0x4 CALLDATALOAD PUSH0 MSTORE PUSH1 0xA PUSH1 0x20 MSTORE PUSH2 0x200 PUSH1 0x40 PUSH0 KECCAK256 PUSH1 0xFF PUSH1 0xF PUSH1 0x40 MLOAD SWAP3 PUSH2 0x1E96 DUP5 PUSH2 0x3780 JUMP JUMPDEST DUP1 SLOAD DUP5 MSTORE PUSH1 0x1 DUP2 ADD SLOAD PUSH1 0x20 DUP6 ADD MSTORE PUSH1 0x2 DUP2 ADD SLOAD PUSH1 0x40 DUP6 ADD MSTORE PUSH1 0x3 DUP2 ADD SLOAD PUSH1 0x60 DUP6 ADD MSTORE PUSH1 0x4 DUP2 ADD SLOAD PUSH1 0x80 DUP6 ADD MSTORE PUSH1 0x5 DUP2 ADD SLOAD PUSH1 0xA0 DUP6 ADD MSTORE PUSH1 0x6 DUP2 ADD SLOAD PUSH1 0xC0 DUP6 ADD MSTORE PUSH1 0x7 DUP2 ADD SLOAD PUSH1 0xE0 DUP6 ADD MSTORE PUSH1 0x8 DUP2 ADD SLOAD PUSH2 0x100 DUP6 ADD MSTORE PUSH1 0x9 DUP2 ADD SLOAD PUSH2 0x120 DUP6 ADD MSTORE PUSH1 0xA DUP2 ADD SLOAD PUSH2 0x140 DUP6 ADD MSTORE PUSH1 0xB DUP2 ADD SLOAD PUSH2 0x160 DUP6 ADD MSTORE PUSH2 0x1F20 DUP4 PUSH1 0xC DUP4 ADD SLOAD AND PUSH2 0x180 DUP7 ADD PUSH2 0x3937 JUMP JUMPDEST PUSH1 0xD DUP2 ADD SLOAD PUSH2 0x1A0 DUP6 ADD MSTORE PUSH1 0xE DUP2 ADD SLOAD PUSH2 0x1C0 DUP6 ADD MSTORE ADD SLOAD DUP2 DUP2 AND ISZERO ISZERO PUSH2 0x1E0 DUP5 ADD MSTORE PUSH1 0x8 SHR AND ISZERO ISZERO DUP3 DUP3 ADD MSTORE PUSH1 0x20 DUP2 ADD MLOAD PUSH0 MSTORE PUSH1 0x9 PUSH1 0x20 MSTORE PUSH1 0x40 PUSH0 KECCAK256 PUSH1 0xFF PUSH1 0x1C PUSH1 0x40 MLOAD SWAP3 PUSH2 0x1F6E DUP5 PUSH2 0x3764 JUMP JUMPDEST DUP1 SLOAD DUP5 MSTORE PUSH2 0x1F7E PUSH1 0x1 DUP3 ADD PUSH2 0x382C JUMP JUMPDEST PUSH1 0x20 DUP6 ADD MSTORE PUSH2 0x1FA8 DUP4 PUSH1 0x2 DUP4 ADD SLOAD PUSH2 0x1F9B DUP3 DUP3 AND PUSH1 0x40 DUP10 ADD PUSH2 0x391F JUMP JUMPDEST PUSH1 0x8 SHR AND PUSH1 0x60 DUP7 ADD PUSH2 0x392B JUMP JUMPDEST PUSH1 0x3 DUP2 ADD SLOAD PUSH1 0x80 DUP6 ADD MSTORE PUSH1 0x4 DUP2 ADD SLOAD PUSH1 0xA0 DUP6 ADD MSTORE PUSH1 0x5 DUP2 ADD SLOAD PUSH1 0xC0 DUP6 ADD MSTORE PUSH1 0x6 DUP2 ADD SLOAD PUSH1 0xE0 DUP6 ADD MSTORE PUSH1 0x7 DUP2 ADD SLOAD PUSH2 0x100 DUP6 ADD MSTORE PUSH1 0x8 DUP2 ADD SLOAD PUSH2 0x120 DUP6 ADD MSTORE PUSH1 0x9 DUP2 ADD SLOAD PUSH2 0x140 DUP6 ADD MSTORE PUSH1 0xA DUP2 ADD SLOAD PUSH2 0x160 DUP6 ADD MSTORE PUSH1 0xB DUP2 ADD SLOAD PUSH2 0x180 DUP6 ADD MSTORE PUSH1 0xC DUP2 ADD SLOAD PUSH2 0x1A0 DUP6 ADD MSTORE PUSH1 0xD DUP2 ADD SLOAD PUSH2 0x1C0 DUP6 ADD MSTORE PUSH1 0xE DUP2 ADD SLOAD PUSH2 0x1E0 DUP6 ADD MSTORE PUSH1 0xF DUP2 ADD SLOAD DUP7 DUP6 ADD MSTORE PUSH1 0x10 DUP2 ADD SLOAD PUSH2 0x220 DUP6 ADD MSTORE PUSH1 0x11 DUP2 ADD SLOAD PUSH2 0x240 DUP6 ADD MSTORE PUSH1 0x12 DUP2 ADD SLOAD PUSH2 0x260 DUP6 ADD MSTORE PUSH1 0x13 DUP2 ADD SLOAD PUSH2 0x280 DUP6 ADD MSTORE PUSH1 0x14 DUP2 ADD SLOAD PUSH2 0x2A0 DUP6 ADD MSTORE PUSH1 0x15 DUP2 ADD SLOAD PUSH2 0x2C0 DUP6 ADD MSTORE PUSH1 0x16 DUP2 ADD SLOAD PUSH2 0x2E0 DUP6 ADD MSTORE PUSH1 0x17 DUP2 ADD SLOAD PUSH2 0x300 DUP6 ADD MSTORE PUSH1 0x18 DUP2 ADD SLOAD PUSH2 0x320 DUP6 ADD MSTORE PUSH1 0x19 DUP2 ADD SLOAD PUSH2 0x340 DUP6 ADD MSTORE PUSH1 0x1A DUP2 ADD SLOAD PUSH2 0x360 DUP6 ADD MSTORE PUSH1 0x1B DUP2 ADD SLOAD PUSH2 0x380 DUP6 ADD MSTORE ADD SLOAD AND ISZERO ISZERO PUSH2 0x3A0 DUP3 ADD MSTORE PUSH1 0x4 CALLDATALOAD PUSH0 MSTORE PUSH1 0xB PUSH1 0x20 MSTORE PUSH2 0x240 PUSH1 0x40 PUSH0 KECCAK256 PUSH1 0x12 PUSH1 0x40 MLOAD SWAP2 PUSH2 0x20E0 DUP4 PUSH2 0x379C JUMP JUMPDEST DUP1 SLOAD DUP4 MSTORE PUSH1 0x1 DUP2 ADD SLOAD PUSH1 0x20 DUP5 ADD MSTORE PUSH1 0x2 DUP2 ADD SLOAD PUSH1 0x40 DUP5 ADD MSTORE PUSH1 0x3 DUP2 ADD SLOAD PUSH1 0x60 DUP5 ADD MSTORE PUSH1 0x4 DUP2 ADD SLOAD PUSH1 0x80 DUP5 ADD MSTORE PUSH1 0x5 DUP2 ADD SLOAD PUSH1 0xA0 DUP5 ADD MSTORE PUSH1 0x6 DUP2 ADD SLOAD PUSH1 0xC0 DUP5 ADD MSTORE PUSH1 0x7 DUP2 ADD SLOAD PUSH1 0xE0 DUP5 ADD MSTORE PUSH1 0x8 DUP2 ADD SLOAD PUSH2 0x100 DUP5 ADD MSTORE PUSH1 0x9 DUP2 ADD SLOAD PUSH2 0x120 DUP5 ADD MSTORE PUSH1 0xA DUP2 ADD SLOAD PUSH2 0x140 DUP5 ADD MSTORE PUSH1 0xB DUP2 ADD SLOAD PUSH2 0x160 DUP5 ADD MSTORE PUSH1 0xC DUP2 ADD SLOAD PUSH2 0x180 DUP5 ADD MSTORE PUSH1 0xD DUP2 ADD SLOAD PUSH2 0x1A0 DUP5 ADD MSTORE PUSH1 0xE DUP2 ADD SLOAD PUSH2 0x1C0 DUP5 ADD MSTORE PUSH1 0xF DUP2 ADD SLOAD PUSH2 0x1E0 DUP5 ADD MSTORE PUSH1 0x10 DUP2 ADD SLOAD DUP8 DUP5 ADD MSTORE PUSH1 0x11 DUP2 ADD SLOAD PUSH2 0x220 DUP5 ADD MSTORE ADD SLOAD DUP3 DUP3 ADD MSTORE PUSH1 0x40 MLOAD SWAP5 DUP6 SWAP5 PUSH2 0x4A0 DUP1 DUP8 MSTORE DUP6 MLOAD SWAP1 DUP8 ADD MSTORE PUSH2 0x3A0 PUSH2 0x21CD PUSH1 0x20 DUP8 ADD MLOAD PUSH2 0x3C0 PUSH2 0x4C0 DUP11 ADD MSTORE PUSH2 0x860 DUP10 ADD SWAP1 PUSH2 0x362D JUMP JUMPDEST SWAP6 PUSH2 0x21E1 PUSH1 0x40 DUP3 ADD MLOAD PUSH2 0x4E0 DUP11 ADD SWAP1 PUSH2 0x3712 JUMP JUMPDEST PUSH2 0x21F4 PUSH1 0x60 DUP3 ADD MLOAD PUSH2 0x500 DUP11 ADD SWAP1 PUSH2 0x371F JUMP JUMPDEST PUSH1 0x80 DUP2 ADD MLOAD PUSH2 0x520 DUP10 ADD MSTORE PUSH1 0xA0 DUP2 ADD MLOAD PUSH2 0x540 DUP10 ADD MSTORE PUSH1 0xC0 DUP2 ADD MLOAD PUSH2 0x560 DUP10 ADD MSTORE PUSH1 0xE0 DUP2 ADD MLOAD PUSH2 0x580 DUP10 ADD MSTORE PUSH2 0x100 DUP2 ADD MLOAD PUSH2 0x5A0 DUP10 ADD MSTORE PUSH2 0x120 DUP2 ADD MLOAD PUSH2 0x5C0 DUP10 ADD MSTORE PUSH2 0x140 DUP2 ADD MLOAD PUSH2 0x5E0 DUP10 ADD MSTORE PUSH2 0x160 DUP2 ADD MLOAD PUSH2 0x600 DUP10 ADD MSTORE PUSH2 0x180 DUP2 ADD MLOAD PUSH2 0x620 DUP10 ADD MSTORE PUSH2 0x1A0 DUP2 ADD MLOAD PUSH2 0x640 DUP10 ADD MSTORE PUSH2 0x1C0 DUP2 ADD MLOAD PUSH2 0x660 DUP10 ADD MSTORE PUSH2 0x1E0 DUP2 ADD MLOAD PUSH2 0x680 DUP10 ADD MSTORE DUP4 DUP2 ADD MLOAD PUSH2 0x6A0 DUP10 ADD MSTORE PUSH2 0x220 DUP2 ADD MLOAD PUSH2 0x6C0 DUP10 ADD MSTORE DUP6 DUP2 ADD MLOAD PUSH2 0x6E0 DUP10 ADD MSTORE PUSH2 0x260 DUP2 ADD MLOAD PUSH2 0x700 DUP10 ADD MSTORE PUSH2 0x280 DUP2 ADD MLOAD PUSH2 0x720 DUP10 ADD MSTORE PUSH2 0x2A0 DUP2 ADD MLOAD PUSH2 0x740 DUP10 ADD MSTORE PUSH2 0x2C0 DUP2 ADD MLOAD PUSH2 0x760 DUP10 ADD MSTORE PUSH2 0x2E0 DUP2 ADD MLOAD PUSH2 0x780 DUP10 ADD MSTORE PUSH2 0x300 DUP2 ADD MLOAD PUSH2 0x7A0 DUP10 ADD MSTORE PUSH2 0x320 DUP2 ADD MLOAD PUSH2 0x7C0 DUP10 ADD MSTORE PUSH2 0x340 DUP2 ADD MLOAD PUSH2 0x7E0 DUP10 ADD MSTORE PUSH2 0x360 DUP2 ADD MLOAD PUSH2 0x800 DUP10 ADD MSTORE PUSH2 0x380 DUP2 ADD MLOAD PUSH2 0x820 DUP10 ADD MSTORE ADD MLOAD ISZERO ISZERO PUSH2 0x840 DUP8 ADD MSTORE DUP1 MLOAD PUSH1 0x20 DUP8 ADD MSTORE PUSH1 0x20 DUP2 ADD MLOAD PUSH1 0x40 DUP8 ADD MSTORE PUSH1 0x40 DUP2 ADD MLOAD PUSH1 0x60 DUP8 ADD MSTORE PUSH1 0x60 DUP2 ADD MLOAD PUSH1 0x80 DUP8 ADD MSTORE PUSH1 0x80 DUP2 ADD MLOAD PUSH1 0xA0 DUP8 ADD MSTORE PUSH1 0xA0 DUP2 ADD MLOAD PUSH1 0xC0 DUP8 ADD MSTORE PUSH1 0xC0 DUP2 ADD MLOAD PUSH1 0xE0 DUP8 ADD MSTORE PUSH1 0xE0 DUP2 ADD MLOAD PUSH2 0x100 DUP8 ADD MSTORE PUSH2 0x100 DUP2 ADD MLOAD PUSH2 0x120 DUP8 ADD MSTORE PUSH2 0x120 DUP2 ADD MLOAD PUSH2 0x140 DUP8 ADD MSTORE PUSH2 0x140 DUP2 ADD MLOAD PUSH2 0x160 DUP8 ADD MSTORE PUSH2 0x160 DUP2 ADD MLOAD PUSH2 0x180 DUP8 ADD MSTORE PUSH2 0x23B4 PUSH2 0x180 DUP3 ADD MLOAD PUSH2 0x1A0 DUP9 ADD SWAP1 PUSH2 0x367E JUMP JUMPDEST PUSH2 0x1A0 DUP2 ADD MLOAD PUSH2 0x1C0 DUP8 ADD MSTORE PUSH2 0x1C0 DUP2 ADD MLOAD PUSH2 0x1E0 DUP8 ADD MSTORE PUSH2 0x1E0 DUP2 ADD MLOAD ISZERO ISZERO DUP3 DUP8 ADD MSTORE ADD MLOAD ISZERO ISZERO PUSH2 0x220 DUP6 ADD MSTORE DUP1 MLOAD DUP3 DUP6 ADD MSTORE PUSH1 0x20 DUP2 ADD MLOAD PUSH2 0x260 DUP6 ADD MSTORE PUSH1 0x40 DUP2 ADD MLOAD PUSH2 0x280 DUP6 ADD MSTORE PUSH1 0x60 DUP2 ADD MLOAD PUSH2 0x2A0 DUP6 ADD MSTORE PUSH1 0x80 DUP2 ADD MLOAD PUSH2 0x2C0 DUP6 ADD MSTORE PUSH1 0xA0 DUP2 ADD MLOAD PUSH2 0x2E0 DUP6 ADD MSTORE PUSH1 0xC0 DUP2 ADD MLOAD PUSH2 0x300 DUP6 ADD MSTORE PUSH1 0xE0 DUP2 ADD MLOAD PUSH2 0x320 DUP6 ADD MSTORE PUSH2 0x100 DUP2 ADD MLOAD PUSH2 0x340 DUP6 ADD MSTORE PUSH2 0x120 DUP2 ADD MLOAD PUSH2 0x360 DUP6 ADD MSTORE PUSH2 0x140 DUP2 ADD MLOAD PUSH2 0x380 DUP6 ADD MSTORE PUSH2 0x160 DUP2 ADD MLOAD PUSH2 0x3A0 DUP6 ADD MSTORE PUSH2 0x180 DUP2 ADD MLOAD PUSH2 0x3C0 DUP6 ADD MSTORE PUSH2 0x1A0 DUP2 ADD MLOAD PUSH2 0x3E0 DUP6 ADD MSTORE PUSH2 0x1C0 DUP2 ADD MLOAD PUSH2 0x400 DUP6 ADD MSTORE PUSH2 0x1E0 DUP2 ADD MLOAD PUSH2 0x420 DUP6 ADD MSTORE PUSH2 0x200 DUP2 ADD MLOAD PUSH2 0x440 DUP6 ADD MSTORE PUSH2 0x220 DUP2 ADD MLOAD PUSH2 0x460 DUP6 ADD MSTORE ADD MLOAD PUSH2 0x480 DUP4 ADD MSTORE SUB SWAP1 RETURN JUMPDEST CALLVALUE PUSH2 0xC3A JUMPI PUSH1 0x20 CALLDATASIZE PUSH1 0x3 NOT ADD SLT PUSH2 0xC3A JUMPI PUSH1 0x20 PUSH2 0x24D7 PUSH1 0x4 CALLDATALOAD PUSH2 0x3BAE JUMP JUMPDEST PUSH1 0x40 MLOAD PUSH1 0x1 PUSH1 0x1 PUSH1 0xA0 SHL SUB SWAP1 SWAP2 AND DUP2 MSTORE RETURN JUMPDEST CALLVALUE PUSH2 0xC3A JUMPI PUSH1 0x20 DUP1 PUSH1 0x3 NOT CALLDATASIZE ADD SLT PUSH2 0xC3A JUMPI PUSH1 0x1 PUSH1 0x1 PUSH1 0x40 SHL SUB SWAP1 PUSH1 0x4 CALLDATALOAD DUP3 DUP2 GT PUSH2 0xC3A JUMPI PUSH2 0x251C SWAP1 CALLDATASIZE SWAP1 PUSH1 0x4 ADD PUSH2 0x36E5 JUMP JUMPDEST SWAP2 SWAP1 SWAP3 PUSH2 0x2527 PUSH2 0x3C5C JUMP JUMPDEST DUP3 GT PUSH2 0x1612 JUMPI PUSH2 0x2538 PUSH1 0x7 SLOAD PUSH2 0x372C JUMP JUMPDEST PUSH1 0x1F DUP2 GT PUSH2 0x264A JUMPI JUMPDEST POP PUSH0 PUSH1 0x1F DUP4 GT PUSH1 0x1 EQ PUSH2 0x25B8 JUMPI PUSH32 0xF9C7803E94E0D3C02900D8A90893A6D5E90DD04D32A4CFE825520F82BF9F32F6 SWAP4 PUSH2 0x2593 DUP5 DUP1 PUSH2 0x25A8 SWAP5 PUSH0 SWAP2 PUSH2 0x25AD JUMPI JUMPDEST POP DUP2 PUSH1 0x1 SHL SWAP2 PUSH0 NOT SWAP1 PUSH1 0x3 SHL SHR NOT AND OR SWAP1 JUMP JUMPDEST PUSH1 0x7 SSTORE JUMPDEST PUSH1 0x40 MLOAD SWAP4 DUP4 DUP6 SWAP5 DUP6 MSTORE DUP5 ADD SWAP2 PUSH2 0x3B73 JUMP JUMPDEST SUB SWAP1 LOG1 STOP JUMPDEST SWAP1 POP DUP4 ADD CALLDATALOAD DUP9 PUSH2 0x2580 JUMP JUMPDEST PUSH1 0x1F NOT DUP4 AND SWAP1 PUSH1 0x7 PUSH0 MSTORE PUSH0 DUP1 MLOAD PUSH1 0x20 PUSH2 0x3DD3 DUP4 CODECOPY DUP2 MLOAD SWAP2 MSTORE SWAP2 PUSH0 JUMPDEST DUP2 DUP2 LT PUSH2 0x2633 JUMPI POP SWAP2 PUSH32 0xF9C7803E94E0D3C02900D8A90893A6D5E90DD04D32A4CFE825520F82BF9F32F6 SWAP6 SWAP2 DUP6 PUSH2 0x25A8 SWAP5 LT PUSH2 0x261A JUMPI JUMPDEST POP POP PUSH1 0x1 DUP5 DUP2 SHL ADD PUSH1 0x7 SSTORE PUSH2 0x2597 JUMP JUMPDEST DUP3 ADD CALLDATALOAD PUSH0 NOT PUSH1 0x3 DUP8 SWAP1 SHL PUSH1 0xF8 AND SHR NOT AND SWAP1 SSTORE DUP6 DUP1 PUSH2 0x260A JUMP JUMPDEST SWAP2 SWAP3 DUP5 PUSH1 0x1 DUP2 SWAP3 DUP7 DUP11 ADD CALLDATALOAD DUP2 SSTORE ADD SWAP5 ADD SWAP3 ADD PUSH2 0x25D3 JUMP JUMPDEST PUSH1 0x7 PUSH0 MSTORE PUSH0 DUP1 MLOAD PUSH1 0x20 PUSH2 0x3DD3 DUP4 CODECOPY DUP2 MLOAD SWAP2 MSTORE PUSH1 0x1F DUP5 ADD PUSH1 0x5 SHR DUP2 ADD SWAP2 DUP4 DUP6 LT PUSH2 0x268F JUMPI JUMPDEST PUSH1 0x1F ADD PUSH1 0x5 SHR ADD SWAP1 JUMPDEST DUP2 DUP2 LT PUSH2 0x2684 JUMPI POP PUSH2 0x2541 JUMP JUMPDEST PUSH0 DUP2 SSTORE PUSH1 0x1 ADD PUSH2 0x2677 JUMP JUMPDEST SWAP1 SWAP2 POP DUP2 SWAP1 PUSH2 0x266E JUMP JUMPDEST CALLVALUE PUSH2 0xC3A JUMPI PUSH1 0xE0 CALLDATASIZE PUSH1 0x3 NOT ADD SLT PUSH2 0xC3A JUMPI PUSH1 0x20 PUSH2 0x26D4 PUSH2 0x26B7 PUSH2 0x3652 JUMP JUMPDEST PUSH1 0xC4 CALLDATALOAD SWAP1 PUSH1 0xA4 CALLDATALOAD SWAP1 PUSH1 0x84 CALLDATALOAD SWAP1 PUSH1 0x64 CALLDATALOAD SWAP1 PUSH1 0x44 CALLDATALOAD SWAP1 PUSH1 0x24 CALLDATALOAD SWAP1 PUSH2 0x3B22 JUMP JUMPDEST PUSH1 0x40 MLOAD SWAP1 DUP2 MSTORE RETURN JUMPDEST CALLVALUE PUSH2 0xC3A JUMPI PUSH2 0x280 CALLDATASIZE PUSH1 0x3 NOT ADD SLT PUSH2 0xC3A JUMPI PUSH1 0x4 CALLDATALOAD PUSH2 0x260 CALLDATASIZE PUSH1 0x23 NOT ADD SLT PUSH2 0xC3A JUMPI PUSH1 0x6 SLOAD PUSH1 0x1 PUSH1 0x1 PUSH1 0xA0 SHL SUB AND CALLER EQ DUP1 ISZERO PUSH2 0x27FD JUMPI JUMPDEST ISZERO PUSH2 0x1783 JUMPI PUSH2 0x2721 DUP2 PUSH2 0x3BE8 JUMP JUMPDEST DUP1 PUSH0 MSTORE PUSH1 0xB PUSH1 0x20 MSTORE PUSH1 0x40 PUSH0 KECCAK256 PUSH1 0x24 CALLDATALOAD DUP2 SSTORE PUSH1 0x44 CALLDATALOAD PUSH1 0x1 DUP3 ADD SSTORE PUSH1 0x64 CALLDATALOAD PUSH1 0x2 DUP3 ADD SSTORE PUSH1 0x84 CALLDATALOAD PUSH1 0x3 DUP3 ADD SSTORE PUSH1 0xA4 CALLDATALOAD PUSH1 0x4 DUP3 ADD SSTORE PUSH1 0xC4 CALLDATALOAD PUSH1 0x5 DUP3 ADD SSTORE PUSH1 0xE4 CALLDATALOAD PUSH1 0x6 DUP3 ADD SSTORE PUSH2 0x104 CALLDATALOAD PUSH1 0x7 DUP3 ADD SSTORE PUSH2 0x124 CALLDATALOAD PUSH1 0x8 DUP3 ADD SSTORE PUSH2 0x144 CALLDATALOAD PUSH1 0x9 DUP3 ADD SSTORE PUSH2 0x164 CALLDATALOAD PUSH1 0xA DUP3 ADD SSTORE PUSH2 0x184 CALLDATALOAD PUSH1 0xB DUP3 ADD SSTORE PUSH2 0x1A4 CALLDATALOAD PUSH1 0xC DUP3 ADD SSTORE PUSH2 0x1C4 CALLDATALOAD PUSH1 0xD DUP3 ADD SSTORE PUSH2 0x1E4 CALLDATALOAD PUSH1 0xE DUP3 ADD SSTORE PUSH2 0x204 CALLDATALOAD PUSH1 0xF DUP3 ADD SSTORE PUSH2 0x224 CALLDATALOAD PUSH1 0x10 DUP3 ADD SSTORE PUSH2 0x244 CALLDATALOAD PUSH1 0x11 DUP3 ADD SSTORE PUSH1 0x12 PUSH2 0x264 CALLDATALOAD SWAP2 ADD SSTORE PUSH2 0x27D7 DUP2 PUSH2 0x3C06 JUMP JUMPDEST PUSH32 0x5AC94E62F71242482AF44ED7A72EC181709D493D90538495C19D8026B2726D53 PUSH0 DUP1 LOG2 STOP JUMPDEST POP CALLER PUSH0 MSTORE PUSH1 0xC PUSH1 0x20 MSTORE PUSH1 0xFF PUSH1 0x40 PUSH0 KECCAK256 SLOAD AND PUSH2 0x2713 JUMP JUMPDEST CALLVALUE PUSH2 0xC3A JUMPI PUSH2 0x1691 PUSH2 0x2824 CALLDATASIZE PUSH2 0x36B0 JUMP JUMPDEST SWAP1 PUSH1 0x40 MLOAD SWAP3 PUSH2 0x2832 DUP5 PUSH2 0x37D4 JUMP JUMPDEST PUSH0 DUP5 MSTORE PUSH2 0x168B DUP4 DUP4 DUP4 PUSH2 0x3943 JUMP JUMPDEST CALLVALUE PUSH2 0xC3A JUMPI PUSH2 0x100 CALLDATASIZE PUSH1 0x3 NOT ADD SLT PUSH2 0xC3A JUMPI PUSH1 0x20 PUSH2 0x26D4 PUSH1 0xE4 CALLDATALOAD PUSH1 0xC4 CALLDATALOAD PUSH1 0xA4 CALLDATALOAD PUSH1 0x84 CALLDATALOAD PUSH1 0x64 CALLDATALOAD PUSH1 0x44 CALLDATALOAD PUSH1 0x24 CALLDATALOAD PUSH1 0x4 CALLDATALOAD PUSH2 0x3AD9 JUMP JUMPDEST CALLVALUE PUSH2 0xC3A JUMPI PUSH1 0x20 CALLDATASIZE PUSH1 0x3 NOT ADD SLT PUSH2 0xC3A JUMPI PUSH1 0x4 CALLDATALOAD PUSH0 MSTORE PUSH1 0xB PUSH1 0x20 MSTORE PUSH1 0x12 PUSH1 0xF PUSH1 0xE PUSH1 0xD PUSH1 0xC PUSH1 0xB PUSH1 0xA PUSH1 0x9 PUSH1 0x8 PUSH1 0x7 PUSH1 0x6 PUSH1 0x5 PUSH1 0x4 PUSH1 0x3 PUSH1 0x40 PUSH0 KECCAK256 SWAP14 DUP15 SWAP14 DUP15 SWAP14 DUP15 SWAP14 DUP15 SWAP14 DUP15 SWAP14 DUP15 SWAP14 DUP15 SWAP14 DUP15 SWAP14 DUP15 SWAP14 DUP15 SWAP14 DUP15 SWAP14 DUP15 SWAP14 DUP15 SWAP14 DUP15 SLOAD SWAP15 PUSH1 0x1 DUP2 ADD SLOAD PUSH2 0x4E0 MSTORE PUSH1 0x2 DUP2 ADD SLOAD PUSH2 0x500 MSTORE ADD SLOAD SWAP15 ADD SLOAD SWAP15 ADD SLOAD SWAP15 ADD SLOAD SWAP15 ADD SLOAD SWAP15 ADD SLOAD SWAP15 ADD SLOAD SWAP15 ADD SLOAD SWAP15 ADD SLOAD SWAP15 ADD SLOAD SWAP15 ADD SLOAD SWAP15 ADD SLOAD SWAP15 ADD SLOAD SWAP15 PUSH1 0x10 DUP2 ADD SLOAD PUSH2 0x460 MSTORE PUSH1 0x11 DUP2 ADD SLOAD PUSH2 0x4A0 MSTORE ADD SLOAD PUSH2 0x4C0 MSTORE PUSH1 0x40 MLOAD PUSH2 0x480 MSTORE PUSH2 0x480 MLOAD MSTORE PUSH2 0x4E0 MLOAD PUSH1 0x20 PUSH2 0x480 MLOAD ADD MSTORE PUSH2 0x500 MLOAD PUSH1 0x40 PUSH2 0x480 MLOAD ADD MSTORE PUSH1 0x60 PUSH2 0x480 MLOAD ADD MSTORE PUSH1 0x80 PUSH2 0x480 MLOAD ADD MSTORE PUSH1 0xA0 PUSH2 0x480 MLOAD ADD MSTORE PUSH1 0xC0 PUSH2 0x480 MLOAD ADD MSTORE PUSH1 0xE0 PUSH2 0x480 MLOAD ADD MSTORE PUSH2 0x100 PUSH2 0x480 MLOAD ADD MSTORE PUSH2 0x120 PUSH2 0x480 MLOAD ADD MSTORE PUSH2 0x140 PUSH2 0x480 MLOAD ADD MSTORE PUSH2 0x160 PUSH2 0x480 MLOAD ADD MSTORE PUSH2 0x180 PUSH2 0x480 MLOAD ADD MSTORE PUSH2 0x1A0 PUSH2 0x480 MLOAD ADD MSTORE PUSH2 0x1C0 PUSH2 0x480 MLOAD ADD MSTORE PUSH2 0x1E0 PUSH2 0x480 MLOAD ADD MSTORE PUSH2 0x460 MLOAD PUSH2 0x200 PUSH2 0x480 MLOAD ADD MSTORE PUSH2 0x4A0 MLOAD PUSH2 0x220 PUSH2 0x480 MLOAD ADD MSTORE PUSH2 0x4C0 MLOAD PUSH2 0x240 PUSH2 0x480 MLOAD ADD MSTORE PUSH2 0x260 PUSH2 0x480 MLOAD RETURN JUMPDEST CALLVALUE PUSH2 0xC3A JUMPI PUSH2 0x1691 PUSH2 0x29F3 CALLDATASIZE PUSH2 0x36B0 JUMP JUMPDEST SWAP2 PUSH2 0x3943 JUMP JUMPDEST CALLVALUE PUSH2 0xC3A JUMPI PUSH2 0x180 CALLDATASIZE PUSH1 0x3 NOT ADD SLT PUSH2 0xC3A JUMPI PUSH2 0x2A13 PUSH2 0x3652 JUMP JUMPDEST PUSH1 0x4 PUSH1 0xE4 CALLDATALOAD LT ISZERO PUSH2 0xC3A JUMPI PUSH2 0x124 CALLDATALOAD DUP1 ISZERO ISZERO DUP2 SUB PUSH2 0xC3A JUMPI PUSH2 0x144 CALLDATALOAD SWAP2 DUP3 ISZERO ISZERO DUP4 SUB PUSH2 0xC3A JUMPI PUSH1 0x6 SLOAD PUSH1 0x1 PUSH1 0x1 PUSH1 0xA0 SHL SUB AND CALLER EQ DUP1 ISZERO PUSH2 0x308E JUMPI JUMPDEST ISZERO PUSH2 0x1783 JUMPI PUSH1 0x1 PUSH1 0x1 PUSH1 0xA0 SHL SUB DUP2 AND ISZERO PUSH2 0xD4E JUMPI PUSH1 0x24 CALLDATALOAD PUSH0 MSTORE PUSH1 0x9 PUSH1 0x20 MSTORE PUSH1 0x40 PUSH0 KECCAK256 SWAP2 PUSH1 0xFF PUSH1 0x1C PUSH1 0x40 MLOAD SWAP5 PUSH2 0x2A82 DUP7 PUSH2 0x3764 JUMP JUMPDEST DUP1 SLOAD DUP7 MSTORE PUSH2 0x2A92 PUSH1 0x1 DUP3 ADD PUSH2 0x382C JUMP JUMPDEST PUSH1 0x20 DUP8 ADD MSTORE PUSH2 0x2ABC DUP4 PUSH1 0x2 DUP4 ADD SLOAD PUSH2 0x2AAF DUP3 DUP3 AND PUSH1 0x40 DUP12 ADD PUSH2 0x391F JUMP JUMPDEST PUSH1 0x8 SHR AND PUSH1 0x60 DUP9 ADD PUSH2 0x392B JUMP JUMPDEST PUSH1 0x3 DUP2 ADD SLOAD PUSH1 0x80 DUP8 ADD MSTORE PUSH1 0x4 DUP2 ADD SLOAD PUSH1 0xA0 DUP8 ADD MSTORE PUSH1 0x5 DUP2 ADD SLOAD PUSH1 0xC0 DUP8 ADD MSTORE PUSH1 0x6 DUP2 ADD SLOAD PUSH1 0xE0 DUP8 ADD MSTORE PUSH1 0x7 DUP2 ADD SLOAD PUSH2 0x100 DUP8 ADD MSTORE PUSH1 0x8 DUP2 ADD SLOAD PUSH2 0x120 DUP8 ADD MSTORE PUSH1 0x9 DUP2 ADD SLOAD PUSH2 0x140 DUP8 ADD MSTORE PUSH1 0xA DUP2 ADD SLOAD PUSH2 0x160 DUP8 ADD MSTORE PUSH1 0xB DUP2 ADD SLOAD PUSH2 0x180 DUP8 ADD MSTORE PUSH1 0xC DUP2 ADD SLOAD PUSH2 0x1A0 DUP8 ADD MSTORE PUSH1 0xD DUP2 ADD SLOAD PUSH2 0x1C0 DUP8 ADD MSTORE PUSH1 0xE DUP2 ADD SLOAD PUSH2 0x1E0 DUP8 ADD MSTORE PUSH1 0xF DUP2 ADD SLOAD PUSH2 0x200 DUP8 ADD MSTORE PUSH1 0x10 DUP2 ADD SLOAD PUSH2 0x220 DUP8 ADD MSTORE PUSH1 0x11 DUP2 ADD SLOAD PUSH2 0x240 DUP8 ADD MSTORE PUSH1 0x12 DUP2 ADD SLOAD PUSH2 0x260 DUP8 ADD MSTORE PUSH1 0x13 DUP2 ADD SLOAD PUSH2 0x280 DUP8 ADD MSTORE PUSH1 0x14 DUP2 ADD SLOAD PUSH2 0x2A0 DUP8 ADD MSTORE PUSH1 0x15 DUP2 ADD SLOAD PUSH2 0x2C0 DUP8 ADD MSTORE PUSH1 0x16 DUP2 ADD SLOAD PUSH2 0x2E0 DUP8 ADD MSTORE PUSH1 0x17 DUP2 ADD SLOAD PUSH2 0x300 DUP8 ADD MSTORE PUSH1 0x18 DUP2 ADD SLOAD PUSH2 0x320 DUP8 ADD MSTORE PUSH1 0x19 DUP2 ADD SLOAD PUSH2 0x340 DUP8 ADD MSTORE PUSH1 0x1A DUP2 ADD SLOAD PUSH2 0x360 DUP8 ADD MSTORE PUSH1 0x1B DUP2 ADD SLOAD PUSH2 0x380 DUP8 ADD MSTORE ADD SLOAD AND ISZERO DUP1 ISZERO PUSH2 0x3A0 DUP6 ADD MSTORE DUP4 MLOAD ISZERO SWAP1 DUP2 ISZERO PUSH2 0x3086 JUMPI JUMPDEST POP PUSH2 0xC1A JUMPI PUSH1 0x8 SLOAD SWAP3 PUSH0 NOT DUP5 EQ PUSH2 0xB92 JUMPI PUSH1 0x1 DUP5 ADD PUSH1 0x8 SSTORE PUSH1 0x40 MLOAD PUSH2 0x2C06 DUP2 PUSH2 0x37D4 JUMP JUMPDEST PUSH0 DUP1 DUP3 MSTORE DUP6 DUP2 MSTORE PUSH1 0x2 PUSH1 0x20 MSTORE PUSH1 0x40 SWAP1 KECCAK256 SLOAD PUSH1 0x1 PUSH1 0x1 PUSH1 0xA0 SHL SUB AND DUP1 ISZERO ISZERO SWAP1 DUP7 SWAP1 DUP3 PUSH2 0x3053 JUMPI JUMPDEST PUSH1 0x1 PUSH1 0x1 PUSH1 0xA0 SHL SUB DUP8 AND PUSH0 DUP2 DUP2 MSTORE PUSH1 0x3 PUSH1 0x20 SWAP1 DUP2 MSTORE PUSH1 0x40 DUP1 DUP4 KECCAK256 DUP1 SLOAD PUSH1 0x1 ADD SWAP1 SSTORE DUP6 DUP4 MSTORE PUSH1 0x2 SWAP1 SWAP2 MSTORE DUP2 KECCAK256 DUP1 SLOAD PUSH1 0x1 PUSH1 0x1 PUSH1 0xA0 SHL SUB NOT AND DUP4 OR SWAP1 SSTORE SWAP1 SWAP2 SWAP1 PUSH32 0xDDF252AD1BE2C89B69C2B068FC378DAA952BA7F163C4A11628F55A4DF523B3EF SWAP1 DUP1 LOG4 PUSH2 0x303B JUMPI DUP4 EXTCODESIZE PUSH2 0x2EF8 JUMPI JUMPDEST POP PUSH2 0x104 CALLDATALOAD PUSH2 0x2EEE JUMPI PUSH2 0x340 DUP2 ADD MLOAD SWAP5 JUMPDEST PUSH2 0x2CC6 PUSH2 0x164 CALLDATALOAD PUSH1 0xE4 CALLDATALOAD PUSH1 0xC4 CALLDATALOAD PUSH1 0xA4 CALLDATALOAD PUSH1 0x84 CALLDATALOAD PUSH1 0x24 CALLDATALOAD DUP11 PUSH2 0x3B22 JUMP JUMPDEST SWAP3 PUSH2 0x1C0 PUSH1 0x40 MLOAD PUSH1 0x20 DUP2 ADD SWAP1 PUSH1 0x24 CALLDATALOAD DUP3 MSTORE PUSH1 0x44 CALLDATALOAD PUSH1 0x40 DUP3 ADD MSTORE PUSH1 0x64 CALLDATALOAD PUSH1 0x60 DUP3 ADD MSTORE PUSH1 0xE4 CALLDATALOAD PUSH1 0x80 DUP3 ADD MSTORE DUP10 PUSH1 0xA0 DUP3 ADD MSTORE DUP7 PUSH1 0xC0 DUP3 ADD MSTORE PUSH1 0x84 CALLDATALOAD PUSH1 0xE0 DUP3 ADD MSTORE PUSH0 PUSH2 0x100 DUP3 ADD MSTORE PUSH2 0x100 DUP2 MSTORE PUSH2 0x2D18 DUP2 PUSH2 0x37EF JUMP JUMPDEST MLOAD SWAP1 KECCAK256 SWAP4 ADD MLOAD SWAP7 PUSH1 0x40 MLOAD SWAP8 PUSH2 0x2D2C DUP10 PUSH2 0x3780 JUMP JUMPDEST DUP8 DUP10 MSTORE PUSH1 0x24 CALLDATALOAD PUSH1 0x20 DUP11 ADD MSTORE PUSH1 0x44 CALLDATALOAD PUSH1 0x40 DUP11 ADD MSTORE PUSH1 0x64 CALLDATALOAD PUSH1 0x60 DUP11 ADD MSTORE PUSH1 0x80 DUP10 ADD MSTORE PUSH0 PUSH1 0xA0 DUP10 ADD MSTORE PUSH1 0x1 PUSH1 0xC0 DUP10 ADD MSTORE PUSH1 0x84 CALLDATALOAD PUSH1 0xE0 DUP10 ADD MSTORE PUSH1 0xA4 CALLDATALOAD PUSH2 0x100 DUP10 ADD MSTORE PUSH1 0xC4 CALLDATALOAD PUSH2 0x120 DUP10 ADD MSTORE TIMESTAMP PUSH2 0x140 DUP10 ADD MSTORE PUSH2 0x160 DUP9 ADD MSTORE PUSH2 0x2D90 PUSH1 0xE4 CALLDATALOAD PUSH2 0x180 DUP10 ADD PUSH2 0x3937 JUMP JUMPDEST DUP4 PUSH2 0x1A0 DUP9 ADD MSTORE DUP3 PUSH2 0x1C0 DUP9 ADD MSTORE ISZERO ISZERO PUSH2 0x1E0 DUP8 ADD MSTORE ISZERO ISZERO PUSH2 0x200 DUP7 ADD MSTORE DUP4 PUSH0 MSTORE PUSH1 0xA PUSH1 0x20 MSTORE PUSH1 0x40 PUSH0 KECCAK256 SWAP5 DUP1 MLOAD DUP7 SSTORE PUSH1 0x20 DUP2 ADD MLOAD PUSH1 0x1 DUP8 ADD SSTORE PUSH1 0x40 DUP2 ADD MLOAD PUSH1 0x2 DUP8 ADD SSTORE PUSH1 0x60 DUP2 ADD MLOAD PUSH1 0x3 DUP8 ADD SSTORE PUSH1 0x80 DUP2 ADD MLOAD PUSH1 0x4 DUP8 ADD SSTORE PUSH1 0xA0 DUP2 ADD MLOAD PUSH1 0x5 DUP8 ADD SSTORE PUSH1 0xC0 DUP2 ADD MLOAD PUSH1 0x6 DUP8 ADD SSTORE PUSH1 0xE0 DUP2 ADD MLOAD PUSH1 0x7 DUP8 ADD SSTORE PUSH2 0x100 DUP2 ADD MLOAD PUSH1 0x8 DUP8 ADD SSTORE PUSH2 0x120 DUP2 ADD MLOAD PUSH1 0x9 DUP8 ADD SSTORE PUSH2 0x140 DUP2 ADD MLOAD PUSH1 0xA DUP8 ADD SSTORE PUSH2 0x160 DUP2 ADD MLOAD PUSH1 0xB DUP8 ADD SSTORE PUSH1 0xC DUP7 ADD PUSH2 0x180 DUP3 ADD MLOAD PUSH1 0x4 DUP2 LT ISZERO PUSH2 0x1541 JUMPI PUSH1 0x20 SWAP8 PUSH2 0x200 SWAP3 PUSH1 0xF SWAP3 PUSH1 0xFF DUP1 NOT DUP4 SLOAD AND SWAP2 AND OR SWAP1 SSTORE PUSH2 0x1A0 DUP5 ADD MLOAD PUSH1 0xD DUP3 ADD SSTORE PUSH2 0x1C0 DUP5 ADD MLOAD PUSH1 0xE DUP3 ADD SSTORE ADD SWAP2 PUSH2 0x2E8F PUSH2 0x1E0 DUP3 ADD MLOAD ISZERO ISZERO DUP5 SWAP1 PUSH1 0xFF DUP1 NOT DUP4 SLOAD AND SWAP2 ISZERO ISZERO AND OR SWAP1 SSTORE JUMP JUMPDEST ADD MLOAD DUP2 SLOAD PUSH2 0xFF00 NOT AND SWAP1 ISZERO ISZERO PUSH1 0x8 SHL PUSH2 0xFF00 AND OR SWAP1 SSTORE PUSH1 0x40 DUP1 MLOAD SWAP3 DUP4 MSTORE DUP6 DUP4 ADD SWAP2 SWAP1 SWAP2 MSTORE PUSH1 0x24 CALLDATALOAD SWAP3 PUSH1 0x1 PUSH1 0x1 PUSH1 0xA0 SHL SUB AND SWAP2 DUP5 SWAP2 PUSH32 0xB4159120F3FDAFBCF93B1AF827525210B1A3A1ADD9EF5D0539FA31CA0473A733 SWAP2 LOG4 PUSH1 0x40 MLOAD SWAP1 DUP2 MSTORE RETURN JUMPDEST PUSH2 0x104 CALLDATALOAD SWAP5 PUSH2 0x2CAA JUMP JUMPDEST PUSH1 0x20 PUSH2 0x2F36 SWAP2 PUSH1 0x40 SWAP8 SWAP7 SWAP6 SWAP8 MLOAD DUP1 SWAP4 DUP2 SWAP3 PUSH4 0xA85BD01 PUSH1 0xE1 SHL DUP4 MSTORE CALLER PUSH1 0x4 DUP5 ADD MSTORE PUSH0 PUSH1 0x24 DUP5 ADD MSTORE DUP9 PUSH1 0x44 DUP5 ADD MSTORE PUSH1 0x80 PUSH1 0x64 DUP5 ADD MSTORE PUSH1 0x84 DUP4 ADD SWAP1 PUSH2 0x362D JUMP JUMPDEST SUB DUP2 PUSH0 PUSH1 0x1 PUSH1 0x1 PUSH1 0xA0 SHL SUB DUP12 AND GAS CALL PUSH0 SWAP2 DUP2 PUSH2 0x2FF6 JUMPI JUMPDEST POP PUSH2 0x2FB4 JUMPI DUP6 RETURNDATASIZE ISZERO PUSH2 0x2FAC JUMPI RETURNDATASIZE SWAP1 PUSH2 0x2F64 DUP3 PUSH2 0x38CE JUMP JUMPDEST SWAP2 PUSH2 0x2F72 PUSH1 0x40 MLOAD SWAP4 DUP5 PUSH2 0x380B JUMP JUMPDEST DUP3 MSTORE RETURNDATASIZE PUSH0 PUSH1 0x20 DUP5 ADD RETURNDATACOPY JUMPDEST DUP2 MLOAD SWAP2 DUP3 PUSH2 0x2FA5 JUMPI PUSH1 0x40 MLOAD PUSH4 0x32505749 PUSH1 0xE1 SHL DUP2 MSTORE PUSH1 0x1 PUSH1 0x1 PUSH1 0xA0 SHL SUB DUP4 AND PUSH1 0x4 DUP3 ADD MSTORE PUSH1 0x24 SWAP1 REVERT JUMPDEST PUSH1 0x20 SWAP2 POP ADD REVERT JUMPDEST PUSH1 0x60 SWAP1 PUSH2 0x2F7C JUMP JUMPDEST SWAP4 SWAP5 SWAP3 SWAP4 PUSH1 0x1 PUSH1 0x1 PUSH1 0xE0 SHL SUB NOT AND PUSH4 0x757A42FF PUSH1 0xE1 SHL ADD PUSH2 0x2FD5 JUMPI DUP6 PUSH2 0x2C99 JUMP JUMPDEST PUSH1 0x40 MLOAD PUSH4 0x32505749 PUSH1 0xE1 SHL DUP2 MSTORE PUSH1 0x1 PUSH1 0x1 PUSH1 0xA0 SHL SUB DUP5 AND PUSH1 0x4 DUP3 ADD MSTORE PUSH1 0x24 SWAP1 REVERT JUMPDEST SWAP1 SWAP2 POP PUSH1 0x20 DUP2 RETURNDATASIZE PUSH1 0x20 GT PUSH2 0x3033 JUMPI JUMPDEST DUP2 PUSH2 0x3012 PUSH1 0x20 SWAP4 DUP4 PUSH2 0x380B JUMP JUMPDEST DUP2 ADD SUB SLT PUSH2 0xC3A JUMPI MLOAD PUSH1 0x1 PUSH1 0x1 PUSH1 0xE0 SHL SUB NOT DUP2 AND DUP2 SUB PUSH2 0xC3A JUMPI SWAP1 DUP8 PUSH2 0x2F4D JUMP JUMPDEST RETURNDATASIZE SWAP2 POP PUSH2 0x3005 JUMP JUMPDEST PUSH1 0x40 MLOAD PUSH4 0x39E35637 PUSH1 0xE1 SHL DUP2 MSTORE PUSH0 PUSH1 0x4 DUP3 ADD MSTORE PUSH1 0x24 SWAP1 REVERT JUMPDEST PUSH0 DUP3 DUP2 MSTORE PUSH1 0x4 PUSH1 0x20 MSTORE PUSH1 0x40 SWAP1 KECCAK256 DUP1 SLOAD PUSH1 0x1 PUSH1 0x1 PUSH1 0xA0 SHL SUB NOT AND SWAP1 SSTORE DUP1 PUSH0 MSTORE PUSH1 0x3 PUSH1 0x20 MSTORE PUSH1 0x40 PUSH0 KECCAK256 PUSH0 NOT DUP2 SLOAD ADD SWAP1 SSTORE PUSH2 0x2C2C JUMP JUMPDEST SWAP1 POP DUP6 PUSH2 0x2BE2 JUMP JUMPDEST POP CALLER PUSH0 MSTORE PUSH1 0xC PUSH1 0x20 MSTORE PUSH1 0xFF PUSH1 0x40 PUSH0 KECCAK256 SLOAD AND PUSH2 0x2A4E JUMP JUMPDEST CALLVALUE PUSH2 0xC3A JUMPI PUSH2 0x30B2 CALLDATASIZE PUSH2 0x368B JUMP JUMPDEST PUSH1 0x6 SLOAD PUSH1 0x1 PUSH1 0x1 PUSH1 0xA0 SHL SUB AND CALLER EQ DUP1 ISZERO PUSH2 0x329A JUMPI JUMPDEST ISZERO PUSH2 0x1783 JUMPI PUSH2 0x30D5 DUP3 PUSH2 0x3BE8 JUMP JUMPDEST DUP2 PUSH0 MSTORE PUSH1 0xA PUSH1 0x20 MSTORE PUSH1 0x40 PUSH0 KECCAK256 PUSH1 0x1 DUP2 ADD SLOAD PUSH0 MSTORE PUSH1 0x9 PUSH1 0x20 MSTORE PUSH1 0x40 PUSH0 KECCAK256 PUSH1 0x40 MLOAD PUSH2 0x30FD DUP2 PUSH2 0x3764 JUMP JUMPDEST DUP2 SLOAD DUP2 MSTORE PUSH2 0x310D PUSH1 0x1 DUP4 ADD PUSH2 0x382C JUMP JUMPDEST PUSH1 0x20 DUP3 ADD MSTORE PUSH2 0x3138 PUSH1 0xFF PUSH1 0x2 DUP5 ADD SLOAD PUSH2 0x312B DUP3 DUP3 AND PUSH1 0x40 DUP7 ADD PUSH2 0x391F JUMP JUMPDEST PUSH1 0x8 SHR AND PUSH1 0x60 DUP4 ADD PUSH2 0x392B JUMP JUMPDEST PUSH1 0x3 DUP3 ADD SLOAD PUSH1 0x80 DUP3 ADD MSTORE PUSH1 0x4 DUP3 ADD SLOAD PUSH1 0xA0 DUP3 ADD MSTORE PUSH1 0x5 DUP3 ADD SLOAD PUSH1 0xC0 DUP3 ADD MSTORE PUSH1 0x6 DUP3 ADD SLOAD PUSH1 0xE0 DUP3 ADD MSTORE PUSH1 0x7 DUP3 ADD SLOAD PUSH2 0x100 DUP3 ADD MSTORE PUSH1 0x8 DUP3 ADD SLOAD PUSH2 0x120 DUP3 ADD MSTORE PUSH1 0x9 DUP3 ADD SLOAD PUSH2 0x140 DUP3 ADD MSTORE PUSH1 0xA DUP3 ADD SLOAD PUSH2 0x160 DUP3 ADD MSTORE PUSH1 0xB DUP3 ADD SLOAD PUSH2 0x180 DUP3 ADD MSTORE PUSH1 0xC DUP3 ADD SLOAD PUSH2 0x1A0 DUP3 ADD MSTORE PUSH1 0xD DUP3 ADD SLOAD PUSH2 0x1C0 DUP3 ADD MSTORE PUSH1 0xE DUP3 ADD SLOAD PUSH2 0x1E0 DUP3 ADD MSTORE PUSH1 0xF DUP3 ADD SLOAD PUSH2 0x200 DUP3 ADD MSTORE PUSH1 0x10 DUP3 ADD SLOAD PUSH2 0x220 DUP3 ADD MSTORE PUSH1 0x11 DUP3 ADD SLOAD PUSH2 0x240 DUP3 ADD MSTORE PUSH1 0x12 DUP3 ADD SLOAD PUSH2 0x260 DUP3 ADD MSTORE PUSH1 0x13 DUP3 ADD SLOAD PUSH2 0x280 DUP3 ADD MSTORE PUSH1 0x14 DUP3 ADD SLOAD PUSH2 0x2A0 DUP3 ADD MSTORE PUSH1 0x15 DUP3 ADD SLOAD PUSH2 0x2C0 DUP3 ADD MSTORE PUSH1 0x16 DUP3 ADD SLOAD PUSH2 0x2E0 DUP3 ADD MSTORE PUSH1 0x17 DUP3 ADD SLOAD PUSH2 0x300 DUP3 ADD MSTORE PUSH1 0x18 DUP3 ADD SLOAD PUSH2 0x320 DUP3 ADD MSTORE PUSH1 0x19 DUP3 ADD SLOAD PUSH2 0x340 DUP3 ADD MSTORE PUSH2 0x3A0 PUSH1 0xFF PUSH1 0x1C PUSH1 0x1A DUP6 ADD SLOAD SWAP5 DUP6 PUSH2 0x360 DUP7 ADD MSTORE PUSH1 0x1B DUP2 ADD SLOAD PUSH2 0x380 DUP7 ADD MSTORE ADD SLOAD AND ISZERO ISZERO SWAP2 ADD MSTORE DUP3 GT PUSH2 0xC1A JUMPI DUP2 PUSH32 0x7D411743D1571DF710BF51F9844AE535A8D1C447EF770551B20CFAC0FF097E2E SWAP3 PUSH1 0x5 PUSH1 0x20 SWAP4 ADD SSTORE PUSH2 0x3291 DUP5 PUSH2 0x3C06 JUMP JUMPDEST PUSH1 0x40 MLOAD SWAP1 DUP2 MSTORE LOG2 STOP JUMPDEST POP CALLER PUSH0 MSTORE PUSH1 0xC PUSH1 0x20 MSTORE PUSH1 0xFF PUSH1 0x40 PUSH0 KECCAK256 SLOAD AND PUSH2 0x30C7 JUMP JUMPDEST CALLVALUE PUSH2 0xC3A JUMPI PUSH1 0x20 CALLDATASIZE PUSH1 0x3 NOT ADD SLT PUSH2 0xC3A JUMPI PUSH1 0x4 CALLDATALOAD PUSH0 MSTORE PUSH1 0xA PUSH1 0x20 MSTORE PUSH1 0x40 PUSH0 KECCAK256 DUP1 SLOAD SWAP1 DUP1 PUSH1 0x1 DUP2 ADD SLOAD PUSH1 0x2 DUP3 ADD SLOAD PUSH1 0x3 DUP4 ADD SLOAD PUSH1 0x4 DUP5 ADD SLOAD PUSH1 0x5 DUP6 ADD SLOAD PUSH1 0x6 DUP7 ADD SLOAD PUSH1 0x7 DUP8 ADD SLOAD SWAP1 PUSH1 0x8 DUP9 ADD SLOAD SWAP3 PUSH1 0x9 DUP10 ADD SLOAD SWAP5 PUSH1 0xA DUP11 ADD SLOAD SWAP7 PUSH1 0xB DUP12 ADD SLOAD SWAP9 PUSH1 0xC DUP13 ADD SLOAD PUSH1 0xFF AND SWAP11 PUSH1 0xD DUP14 ADD SLOAD SWAP13 PUSH1 0xE ADD SLOAD SWAP14 PUSH1 0xF ADD SLOAD SWAP15 PUSH1 0x40 MLOAD PUSH2 0x520 MSTORE PUSH2 0x520 MLOAD MSTORE PUSH2 0x520 MLOAD PUSH1 0x20 ADD MSTORE PUSH2 0x520 MLOAD PUSH1 0x40 ADD MSTORE PUSH2 0x520 MLOAD PUSH1 0x60 ADD MSTORE PUSH2 0x520 MLOAD PUSH1 0x80 ADD MSTORE PUSH2 0x520 MLOAD PUSH1 0xA0 ADD MSTORE PUSH2 0x520 MLOAD PUSH1 0xC0 ADD MSTORE PUSH2 0x520 MLOAD PUSH1 0xE0 ADD MSTORE PUSH2 0x520 MLOAD PUSH2 0x100 ADD MSTORE PUSH2 0x520 MLOAD PUSH2 0x120 ADD MSTORE PUSH2 0x520 MLOAD PUSH2 0x140 ADD MSTORE PUSH2 0x520 MLOAD PUSH2 0x160 ADD MSTORE PUSH2 0x520 MLOAD PUSH2 0x180 ADD PUSH2 0x33A1 SWAP2 PUSH2 0x367E JUMP JUMPDEST PUSH2 0x520 MLOAD PUSH2 0x1A0 ADD MSTORE PUSH2 0x520 MLOAD PUSH2 0x1C0 ADD MSTORE PUSH1 0xFF DUP2 AND ISZERO ISZERO PUSH2 0x520 MLOAD PUSH2 0x1E0 ADD MSTORE PUSH1 0x8 SHR PUSH1 0xFF AND ISZERO ISZERO PUSH2 0x520 MLOAD PUSH2 0x200 ADD MSTORE PUSH2 0x520 MLOAD PUSH2 0x220 SWAP1 RETURN JUMPDEST CALLVALUE PUSH2 0xC3A JUMPI PUSH1 0x40 CALLDATASIZE PUSH1 0x3 NOT ADD SLT PUSH2 0xC3A JUMPI PUSH2 0x33F6 PUSH2 0x3652 JUMP JUMPDEST PUSH1 0x24 CALLDATALOAD PUSH2 0x3402 DUP2 PUSH2 0x3BAE JUMP JUMPDEST CALLER ISZERO ISZERO DUP1 PUSH2 0x34AB JUMPI JUMPDEST DUP1 PUSH2 0x3482 JUMPI JUMPDEST PUSH2 0x346A JUMPI PUSH1 0x1 PUSH1 0x1 PUSH1 0xA0 SHL SUB SWAP3 DUP4 AND SWAP3 DUP3 SWAP2 DUP5 SWAP2 AND PUSH32 0x8C5BE1E5EBEC7D5BD14F71427D1E84F3DD0314C0F7B2291E5B200AC8C7C3B925 PUSH0 DUP1 LOG4 PUSH0 SWAP1 DUP2 MSTORE PUSH1 0x4 PUSH1 0x20 MSTORE PUSH1 0x40 SWAP1 KECCAK256 DUP1 SLOAD PUSH1 0x1 PUSH1 0x1 PUSH1 0xA0 SHL SUB NOT AND SWAP1 SWAP2 OR SWAP1 SSTORE STOP JUMPDEST PUSH1 0x40 MLOAD PUSH4 0xA9FBF51F PUSH1 0xE0 SHL DUP2 MSTORE CALLER PUSH1 0x4 DUP3 ADD MSTORE PUSH1 0x24 SWAP1 REVERT JUMPDEST POP PUSH1 0x1 DUP1 PUSH1 0xA0 SHL SUB DUP2 AND PUSH0 MSTORE PUSH1 0x5 PUSH1 0x20 MSTORE PUSH1 0x40 PUSH0 KECCAK256 CALLER PUSH0 MSTORE PUSH1 0x20 MSTORE PUSH1 0xFF PUSH1 0x40 PUSH0 KECCAK256 SLOAD AND ISZERO PUSH2 0x3411 JUMP JUMPDEST POP PUSH1 0x1 PUSH1 0x1 PUSH1 0xA0 SHL SUB DUP2 AND CALLER EQ ISZERO PUSH2 0x340B JUMP JUMPDEST CALLVALUE PUSH2 0xC3A JUMPI PUSH1 0x20 CALLDATASIZE PUSH1 0x3 NOT ADD SLT PUSH2 0xC3A JUMPI PUSH1 0x4 CALLDATALOAD PUSH2 0x34DB DUP2 PUSH2 0x3BAE JUMP JUMPDEST POP PUSH0 MSTORE PUSH1 0x4 PUSH1 0x20 MSTORE PUSH1 0x20 PUSH1 0x1 DUP1 PUSH1 0xA0 SHL SUB PUSH1 0x40 PUSH0 KECCAK256 SLOAD AND PUSH1 0x40 MLOAD SWAP1 DUP2 MSTORE RETURN JUMPDEST CALLVALUE PUSH2 0xC3A JUMPI PUSH0 CALLDATASIZE PUSH1 0x3 NOT ADD SLT PUSH2 0xC3A JUMPI PUSH1 0x40 MLOAD PUSH0 DUP1 SLOAD SWAP1 DUP3 PUSH2 0x351B DUP4 PUSH2 0x372C JUMP JUMPDEST SWAP2 DUP3 DUP3 MSTORE PUSH1 0x20 SWAP4 PUSH1 0x1 SWAP1 DUP6 PUSH1 0x1 DUP3 AND SWAP2 DUP3 PUSH0 EQ PUSH2 0xE61 JUMPI POP POP PUSH1 0x1 EQ PUSH2 0x3548 JUMPI POP PUSH2 0xE01 SWAP3 POP SUB DUP4 PUSH2 0x380B JUMP JUMPDEST PUSH0 DUP1 DUP1 MSTORE DUP6 SWAP3 POP SWAP1 PUSH32 0x290DECD9548B62A8D60345A988386FC84BA6BC95484008F6362F93160EF3E563 JUMPDEST DUP6 DUP4 LT PUSH2 0x3589 JUMPI POP POP PUSH2 0xE01 SWAP4 POP DUP3 ADD ADD DUP6 PUSH2 0xDF4 JUMP JUMPDEST DUP1 SLOAD DUP4 DUP10 ADD DUP6 ADD MSTORE DUP8 SWAP5 POP DUP7 SWAP4 SWAP1 SWAP3 ADD SWAP2 DUP2 ADD PUSH2 0x3572 JUMP JUMPDEST CALLVALUE PUSH2 0xC3A JUMPI PUSH1 0x20 CALLDATASIZE PUSH1 0x3 NOT ADD SLT PUSH2 0xC3A JUMPI PUSH1 0x4 CALLDATALOAD SWAP1 PUSH4 0xFFFFFFFF PUSH1 0xE0 SHL DUP3 AND DUP1 SWAP3 SUB PUSH2 0xC3A JUMPI PUSH1 0x20 SWAP2 PUSH4 0x80AC58CD PUSH1 0xE0 SHL DUP2 EQ SWAP1 DUP2 ISZERO PUSH2 0x35FB JUMPI JUMPDEST DUP2 ISZERO PUSH2 0x35EA JUMPI JUMPDEST POP ISZERO ISZERO DUP2 MSTORE RETURN JUMPDEST PUSH4 0x1FFC9A7 PUSH1 0xE0 SHL EQ SWAP1 POP DUP4 PUSH2 0x35E3 JUMP JUMPDEST PUSH4 0x5B5E139F PUSH1 0xE0 SHL DUP2 EQ SWAP2 POP PUSH2 0x35DC JUMP JUMPDEST PUSH0 JUMPDEST DUP4 DUP2 LT PUSH2 0x361D JUMPI POP POP PUSH0 SWAP2 ADD MSTORE JUMP JUMPDEST DUP2 DUP2 ADD MLOAD DUP4 DUP3 ADD MSTORE PUSH1 0x20 ADD PUSH2 0x360E JUMP JUMPDEST SWAP1 PUSH1 0x20 SWAP2 PUSH2 0x3646 DUP2 MLOAD DUP1 SWAP3 DUP2 DUP6 MSTORE DUP6 DUP1 DUP7 ADD SWAP2 ADD PUSH2 0x360C JUMP JUMPDEST PUSH1 0x1F ADD PUSH1 0x1F NOT AND ADD ADD SWAP1 JUMP JUMPDEST PUSH1 0x4 CALLDATALOAD SWAP1 PUSH1 0x1 PUSH1 0x1 PUSH1 0xA0 SHL SUB DUP3 AND DUP3 SUB PUSH2 0xC3A JUMPI JUMP JUMPDEST PUSH1 0x24 CALLDATALOAD SWAP1 PUSH1 0x1 PUSH1 0x1 PUSH1 0xA0 SHL SUB DUP3 AND DUP3 SUB PUSH2 0xC3A JUMPI JUMP JUMPDEST SWAP1 PUSH1 0x4 DUP3 LT ISZERO PUSH2 0x1541 JUMPI MSTORE JUMP JUMPDEST PUSH1 0x40 SWAP1 PUSH1 0x3 NOT ADD SLT PUSH2 0xC3A JUMPI PUSH1 0x4 CALLDATALOAD SWAP1 PUSH1 0x24 CALLDATALOAD SWAP1 JUMP JUMPDEST PUSH1 0x24 CALLDATALOAD SWAP1 DUP2 ISZERO ISZERO DUP3 SUB PUSH2 0xC3A JUMPI JUMP JUMPDEST PUSH1 0x60 SWAP1 PUSH1 0x3 NOT ADD SLT PUSH2 0xC3A JUMPI PUSH1 0x1 PUSH1 0x1 PUSH1 0xA0 SHL SUB SWAP1 PUSH1 0x4 CALLDATALOAD DUP3 DUP2 AND DUP2 SUB PUSH2 0xC3A JUMPI SWAP2 PUSH1 0x24 CALLDATALOAD SWAP1 DUP2 AND DUP2 SUB PUSH2 0xC3A JUMPI SWAP1 PUSH1 0x44 CALLDATALOAD SWAP1 JUMP JUMPDEST SWAP2 DUP2 PUSH1 0x1F DUP5 ADD SLT ISZERO PUSH2 0xC3A JUMPI DUP3 CALLDATALOAD SWAP2 PUSH1 0x1 PUSH1 0x1 PUSH1 0x40 SHL SUB DUP4 GT PUSH2 0xC3A JUMPI PUSH1 0x20 DUP4 DUP2 DUP7 ADD SWAP6 ADD ADD GT PUSH2 0xC3A JUMPI JUMP JUMPDEST SWAP1 PUSH1 0xF DUP3 LT ISZERO PUSH2 0x1541 JUMPI MSTORE JUMP JUMPDEST SWAP1 PUSH1 0xD DUP3 LT ISZERO PUSH2 0x1541 JUMPI MSTORE JUMP JUMPDEST SWAP1 PUSH1 0x1 DUP3 DUP2 SHR SWAP3 AND DUP1 ISZERO PUSH2 0x375A JUMPI JUMPDEST PUSH1 0x20 DUP4 LT EQ PUSH2 0x3746 JUMPI JUMP JUMPDEST PUSH4 0x4E487B71 PUSH1 0xE0 SHL PUSH0 MSTORE PUSH1 0x22 PUSH1 0x4 MSTORE PUSH1 0x24 PUSH0 REVERT JUMPDEST SWAP2 PUSH1 0x7F AND SWAP2 PUSH2 0x373B JUMP JUMPDEST PUSH2 0x3C0 DUP2 ADD SWAP1 DUP2 LT PUSH1 0x1 PUSH1 0x1 PUSH1 0x40 SHL SUB DUP3 GT OR PUSH2 0x1612 JUMPI PUSH1 0x40 MSTORE JUMP JUMPDEST PUSH2 0x220 DUP2 ADD SWAP1 DUP2 LT PUSH1 0x1 PUSH1 0x1 PUSH1 0x40 SHL SUB DUP3 GT OR PUSH2 0x1612 JUMPI PUSH1 0x40 MSTORE JUMP JUMPDEST PUSH2 0x260 DUP2 ADD SWAP1 DUP2 LT PUSH1 0x1 PUSH1 0x1 PUSH1 0x40 SHL SUB DUP3 GT OR PUSH2 0x1612 JUMPI PUSH1 0x40 MSTORE JUMP JUMPDEST PUSH2 0x2E0 DUP2 ADD SWAP1 DUP2 LT PUSH1 0x1 PUSH1 0x1 PUSH1 0x40 SHL SUB DUP3 GT OR PUSH2 0x1612 JUMPI PUSH1 0x40 MSTORE JUMP JUMPDEST PUSH1 0x20 DUP2 ADD SWAP1 DUP2 LT PUSH1 0x1 PUSH1 0x1 PUSH1 0x40 SHL SUB DUP3 GT OR PUSH2 0x1612 JUMPI PUSH1 0x40 MSTORE JUMP JUMPDEST PUSH2 0x120 DUP2 ADD SWAP1 DUP2 LT PUSH1 0x1 PUSH1 0x1 PUSH1 0x40 SHL SUB DUP3 GT OR PUSH2 0x1612 JUMPI PUSH1 0x40 MSTORE JUMP JUMPDEST SWAP1 PUSH1 0x1F DUP1 NOT SWAP2 ADD AND DUP2 ADD SWAP1 DUP2 LT PUSH1 0x1 PUSH1 0x1 PUSH1 0x40 SHL SUB DUP3 GT OR PUSH2 0x1612 JUMPI PUSH1 0x40 MSTORE JUMP JUMPDEST SWAP1 PUSH1 0x40 MLOAD SWAP2 DUP3 PUSH0 DUP3 SLOAD PUSH2 0x383E DUP2 PUSH2 0x372C JUMP JUMPDEST SWAP1 DUP2 DUP5 MSTORE PUSH1 0x20 SWAP5 PUSH1 0x1 SWAP2 PUSH1 0x1 DUP2 AND SWAP1 DUP2 PUSH0 EQ PUSH2 0x38AC JUMPI POP PUSH1 0x1 EQ PUSH2 0x386E JUMPI JUMPDEST POP POP POP PUSH2 0x386C SWAP3 POP SUB DUP4 PUSH2 0x380B JUMP JUMPDEST JUMP JUMPDEST PUSH0 SWAP1 DUP2 MSTORE DUP6 DUP2 KECCAK256 SWAP6 SWAP4 POP SWAP2 SWAP1 JUMPDEST DUP2 DUP4 LT PUSH2 0x3894 JUMPI POP POP PUSH2 0x386C SWAP4 POP DUP3 ADD ADD PUSH0 DUP1 DUP1 PUSH2 0x385D JUMP JUMPDEST DUP6 SLOAD DUP9 DUP5 ADD DUP6 ADD MSTORE SWAP5 DUP6 ADD SWAP5 DUP8 SWAP5 POP SWAP2 DUP4 ADD SWAP2 PUSH2 0x387B JUMP JUMPDEST SWAP3 POP POP POP PUSH2 0x386C SWAP5 SWAP3 POP PUSH1 0xFF NOT AND DUP3 DUP5 ADD MSTORE ISZERO ISZERO PUSH1 0x5 SHL DUP3 ADD ADD PUSH0 DUP1 DUP1 PUSH2 0x385D JUMP JUMPDEST PUSH1 0x1 PUSH1 0x1 PUSH1 0x40 SHL SUB DUP2 GT PUSH2 0x1612 JUMPI PUSH1 0x1F ADD PUSH1 0x1F NOT AND PUSH1 0x20 ADD SWAP1 JUMP JUMPDEST SWAP3 SWAP2 SWAP3 PUSH2 0x38F5 DUP3 PUSH2 0x38CE JUMP JUMPDEST SWAP2 PUSH2 0x3903 PUSH1 0x40 MLOAD SWAP4 DUP5 PUSH2 0x380B JUMP JUMPDEST DUP3 SWAP5 DUP2 DUP5 MSTORE DUP2 DUP4 ADD GT PUSH2 0xC3A JUMPI DUP3 DUP2 PUSH1 0x20 SWAP4 DUP5 PUSH0 SWAP7 ADD CALLDATACOPY ADD ADD MSTORE JUMP JUMPDEST PUSH1 0xF DUP3 LT ISZERO PUSH2 0x1541 JUMPI MSTORE JUMP JUMPDEST PUSH1 0xD DUP3 LT ISZERO PUSH2 0x1541 JUMPI MSTORE JUMP JUMPDEST PUSH1 0x4 DUP3 LT ISZERO PUSH2 0x1541 JUMPI MSTORE JUMP JUMPDEST PUSH1 0x1 PUSH1 0x1 PUSH1 0xA0 SHL SUB SWAP2 DUP3 AND SWAP3 SWAP1 SWAP2 DUP4 ISZERO PUSH2 0x3AC1 JUMPI DUP2 PUSH0 MSTORE PUSH1 0x20 SWAP3 PUSH1 0x2 DUP5 MSTORE DUP3 PUSH1 0x40 SWAP6 DUP4 DUP8 PUSH0 KECCAK256 SLOAD AND SWAP6 CALLER ISZERO ISZERO DUP1 PUSH2 0x3A2F JUMPI JUMPDEST POP PUSH1 0x2 SWAP1 DUP8 PUSH2 0x39FE JUMPI JUMPDEST DUP3 PUSH0 MSTORE PUSH1 0x3 DUP2 MSTORE DUP9 PUSH0 KECCAK256 PUSH1 0x1 DUP2 SLOAD ADD SWAP1 SSTORE DUP4 PUSH0 MSTORE MSTORE DUP7 PUSH0 KECCAK256 DUP2 PUSH1 0x1 PUSH1 0x1 PUSH1 0x60 SHL SUB PUSH1 0xA0 SHL DUP3 SLOAD AND OR SWAP1 SSTORE DUP6 PUSH32 0xDDF252AD1BE2C89B69C2B068FC378DAA952BA7F163C4A11628F55A4DF523B3EF PUSH0 DUP1 LOG4 AND SWAP3 DUP4 DUP4 SUB PUSH2 0x39DD JUMPI POP POP POP POP JUMP JUMPDEST PUSH1 0x64 SWAP5 POP MLOAD SWAP3 PUSH4 0x64283D7B PUSH1 0xE0 SHL DUP5 MSTORE PUSH1 0x4 DUP5 ADD MSTORE PUSH1 0x24 DUP4 ADD MSTORE PUSH1 0x44 DUP3 ADD MSTORE REVERT JUMPDEST PUSH0 DUP5 DUP2 MSTORE PUSH1 0x4 PUSH1 0x20 MSTORE PUSH1 0x40 DUP2 KECCAK256 DUP1 SLOAD PUSH1 0x1 PUSH1 0x1 PUSH1 0xA0 SHL SUB NOT AND SWAP1 SSTORE DUP9 DUP2 MSTORE PUSH1 0x3 DUP3 MSTORE DUP10 SWAP1 KECCAK256 DUP1 SLOAD PUSH0 NOT ADD SWAP1 SSTORE PUSH2 0x397F JUMP JUMPDEST SWAP2 SWAP3 POP SWAP1 DUP1 PUSH2 0x3A80 JUMPI JUMPDEST ISZERO PUSH2 0x3A47 JUMPI SWAP1 DUP5 SWAP2 PUSH0 PUSH2 0x3975 JUMP JUMPDEST DUP7 DUP6 DUP8 PUSH2 0x3A64 JUMPI PUSH1 0x24 SWAP2 MLOAD SWAP1 PUSH4 0x7E273289 PUSH1 0xE0 SHL DUP3 MSTORE PUSH1 0x4 DUP3 ADD MSTORE REVERT JUMPDEST PUSH1 0x44 SWAP2 MLOAD SWAP1 PUSH4 0x177E802F PUSH1 0xE0 SHL DUP3 MSTORE CALLER PUSH1 0x4 DUP4 ADD MSTORE PUSH1 0x24 DUP3 ADD MSTORE REVERT JUMPDEST POP CALLER DUP7 EQ DUP1 ISZERO PUSH2 0x3AA5 JUMPI JUMPDEST DUP1 PUSH2 0x3A39 JUMPI POP DUP5 PUSH0 MSTORE PUSH1 0x4 DUP2 MSTORE CALLER DUP5 DUP9 PUSH0 KECCAK256 SLOAD AND EQ PUSH2 0x3A39 JUMP JUMPDEST POP DUP6 PUSH0 MSTORE PUSH1 0x5 DUP2 MSTORE DUP7 PUSH0 KECCAK256 CALLER PUSH0 MSTORE DUP2 MSTORE PUSH1 0xFF DUP8 PUSH0 KECCAK256 SLOAD AND PUSH2 0x3A8B JUMP JUMPDEST PUSH1 0x40 MLOAD PUSH4 0x32505749 PUSH1 0xE1 SHL DUP2 MSTORE PUSH0 PUSH1 0x4 DUP3 ADD MSTORE PUSH1 0x24 SWAP1 REVERT JUMPDEST SWAP7 SWAP5 SWAP3 SWAP1 SWAP6 SWAP4 SWAP2 PUSH1 0x40 MLOAD SWAP7 PUSH1 0x20 DUP9 ADD SWAP9 DUP10 MSTORE PUSH1 0x40 DUP9 ADD MSTORE PUSH1 0x60 DUP8 ADD MSTORE PUSH1 0x80 DUP7 ADD MSTORE PUSH1 0xA0 DUP6 ADD MSTORE PUSH1 0xC0 DUP5 ADD MSTORE PUSH1 0xE0 DUP4 ADD MSTORE PUSH2 0x100 SWAP1 DUP2 DUP4 ADD MSTORE DUP2 MSTORE PUSH2 0x3B1C DUP2 PUSH2 0x37EF JUMP JUMPDEST MLOAD SWAP1 KECCAK256 SWAP1 JUMP JUMPDEST SWAP6 SWAP4 SWAP2 SWAP5 SWAP3 SWAP1 SWAP5 PUSH1 0x40 MLOAD SWAP6 PUSH1 0x20 DUP8 ADD SWAP8 PUSH1 0x1 PUSH1 0x1 PUSH1 0x60 SHL SUB NOT SWAP1 PUSH1 0x60 SHL AND DUP9 MSTORE PUSH1 0x34 DUP8 ADD MSTORE PUSH1 0x54 DUP7 ADD MSTORE PUSH1 0x74 DUP6 ADD MSTORE PUSH1 0x94 DUP5 ADD MSTORE PUSH1 0xB4 DUP4 ADD MSTORE TIMESTAMP PUSH1 0xD4 DUP4 ADD MSTORE PUSH1 0xF4 DUP3 ADD MSTORE PUSH1 0xF4 DUP2 MSTORE PUSH2 0x3B1C DUP2 PUSH2 0x37EF JUMP JUMPDEST SWAP1 DUP1 PUSH1 0x20 SWAP4 SWAP3 DUP2 DUP5 MSTORE DUP5 DUP5 ADD CALLDATACOPY PUSH0 DUP3 DUP3 ADD DUP5 ADD MSTORE PUSH1 0x1F ADD PUSH1 0x1F NOT AND ADD ADD SWAP1 JUMP JUMPDEST SWAP2 SWAP1 SWAP2 PUSH0 DUP4 DUP3 ADD SWAP4 DUP5 SLT SWAP2 SLT SWAP1 DUP1 ISZERO DUP3 AND SWAP2 ISZERO AND OR PUSH2 0xB92 JUMPI JUMP JUMPDEST PUSH0 DUP2 DUP2 MSTORE PUSH1 0x2 PUSH1 0x20 MSTORE PUSH1 0x40 SWAP1 KECCAK256 SLOAD PUSH1 0x1 PUSH1 0x1 PUSH1 0xA0 SHL SUB AND SWAP1 DUP2 ISZERO PUSH2 0x3BD0 JUMPI POP SWAP1 JUMP JUMPDEST PUSH1 0x24 SWAP1 PUSH1 0x40 MLOAD SWAP1 PUSH4 0x7E273289 PUSH1 0xE0 SHL DUP3 MSTORE PUSH1 0x4 DUP3 ADD MSTORE REVERT JUMPDEST PUSH0 SWAP1 DUP2 MSTORE PUSH1 0x2 PUSH1 0x20 MSTORE PUSH1 0x40 SWAP1 KECCAK256 SLOAD PUSH1 0x1 PUSH1 0x1 PUSH1 0xA0 SHL SUB AND ISZERO PUSH2 0xC1A JUMPI JUMP JUMPDEST PUSH0 MSTORE PUSH1 0xA PUSH1 0x20 MSTORE PUSH1 0x40 PUSH0 KECCAK256 PUSH1 0x1 DUP2 ADD SLOAD PUSH1 0x2 DUP3 ADD SLOAD PUSH1 0x3 DUP4 ADD SLOAD SWAP2 PUSH1 0xFF PUSH1 0xC DUP6 ADD SLOAD AND SWAP2 PUSH1 0x4 DUP4 LT ISZERO PUSH2 0x1541 JUMPI PUSH1 0xE SWAP4 PUSH2 0x3C57 SWAP4 PUSH1 0xB DUP8 ADD SLOAD SWAP1 PUSH1 0xD DUP9 ADD SLOAD SWAP3 PUSH1 0x7 DUP10 ADD SLOAD SWAP5 PUSH1 0x5 DUP11 ADD SLOAD SWAP7 PUSH2 0x3AD9 JUMP JUMPDEST SWAP2 ADD SSTORE JUMP JUMPDEST PUSH1 0x6 SLOAD PUSH1 0x1 PUSH1 0x1 PUSH1 0xA0 SHL SUB AND CALLER SUB PUSH2 0x3C70 JUMPI JUMP JUMPDEST PUSH1 0x40 MLOAD PUSH4 0x118CDAA7 PUSH1 0xE0 SHL DUP2 MSTORE CALLER PUSH1 0x4 DUP3 ADD MSTORE PUSH1 0x24 SWAP1 REVERT JUMPDEST SWAP3 SWAP4 SWAP1 SWAP2 SWAP4 DUP5 EXTCODESIZE PUSH2 0x3C9B JUMPI JUMPDEST POP POP POP POP POP JUMP JUMPDEST PUSH1 0x40 MLOAD PUSH4 0xA85BD01 PUSH1 0xE1 SHL DUP1 DUP3 MSTORE PUSH1 0x1 PUSH1 0x1 PUSH1 0xA0 SHL SUB SWAP6 DUP7 AND PUSH1 0x4 DUP4 ADD MSTORE SWAP4 DUP6 AND PUSH1 0x24 DUP3 ADD MSTORE PUSH1 0x44 DUP2 ADD SWAP2 SWAP1 SWAP2 MSTORE PUSH1 0x80 PUSH1 0x64 DUP3 ADD MSTORE PUSH1 0x20 SWAP6 SWAP5 SWAP1 SWAP4 AND SWAP4 SWAP3 SWAP1 DUP6 SWAP1 DUP3 SWAP1 DUP2 SWAP1 PUSH2 0x3CEE SWAP1 PUSH1 0x84 DUP4 ADD SWAP1 PUSH2 0x362D JUMP JUMPDEST SUB DUP2 PUSH0 DUP9 GAS CALL PUSH0 SWAP2 DUP2 PUSH2 0x3D92 JUMPI JUMPDEST POP PUSH2 0x3D5B JUMPI POP POP POP RETURNDATASIZE PUSH0 EQ PUSH2 0x3D53 JUMPI RETURNDATASIZE SWAP2 PUSH2 0x3D16 DUP4 PUSH2 0x38CE JUMP JUMPDEST SWAP3 PUSH2 0x3D24 PUSH1 0x40 MLOAD SWAP5 DUP6 PUSH2 0x380B JUMP JUMPDEST DUP4 MSTORE RETURNDATASIZE PUSH0 DUP3 DUP6 ADD RETURNDATACOPY JUMPDEST DUP3 MLOAD SWAP3 DUP4 PUSH2 0x3D4E JUMPI PUSH1 0x40 MLOAD PUSH4 0x32505749 PUSH1 0xE1 SHL DUP2 MSTORE PUSH1 0x4 DUP2 ADD DUP5 SWAP1 MSTORE PUSH1 0x24 SWAP1 REVERT JUMPDEST ADD SWAP1 POP REVERT JUMPDEST PUSH1 0x60 SWAP2 PUSH2 0x3D2D JUMP JUMPDEST SWAP2 SWAP4 POP PUSH1 0x1 PUSH1 0x1 PUSH1 0xE0 SHL SUB NOT SWAP1 SWAP2 AND SUB PUSH2 0x3D7A JUMPI POP PUSH0 DUP1 DUP1 DUP1 DUP1 PUSH2 0x3C94 JUMP JUMPDEST PUSH1 0x24 SWAP1 PUSH1 0x40 MLOAD SWAP1 PUSH4 0x32505749 PUSH1 0xE1 SHL DUP3 MSTORE PUSH1 0x4 DUP3 ADD MSTORE REVERT JUMPDEST SWAP1 SWAP2 POP DUP6 DUP2 DUP2 RETURNDATASIZE DUP4 GT PUSH2 0x3DCB JUMPI JUMPDEST PUSH2 0x3DAA DUP2 DUP4 PUSH2 0x380B JUMP JUMPDEST DUP2 ADD SUB SLT PUSH2 0xC3A JUMPI MLOAD PUSH1 0x1 PUSH1 0x1 PUSH1 0xE0 SHL SUB NOT DUP2 AND DUP2 SUB PUSH2 0xC3A JUMPI SWAP1 PUSH0 PUSH2 0x3CFC JUMP JUMPDEST POP RETURNDATASIZE PUSH2 0x3DA0 JUMP INVALID 0xA6 PUSH13 0xC928B5EDB82AF9BD4992295415 GAS 0xB7 0xB0 SWAP5 0x26 SWAP5 0xBE LOG4 0xCE PREVRANDAO PUSH7 0x1D9A8736C688A2 PUSH5 0x6970667358 0x22 SLT KECCAK256 0xAA 0xD0 0x22 JUMPDEST DUP4 0x4E PUSH5 0x70CE0FFCCA COINBASE PUSH9 0x54835C895FFB7886BE PUSH6 0x3636A2918B5E 0xA7 GT PUSH5 0x736F6C6343 STOP ADDMOD XOR STOP CALLER "},"methodIdentifiers":{"approve(address,uint256)":"095ea7b3","authorizedMinters(address)":"aa2fe91b","balanceOf(address)":"70a08231","baseTokenURI()":"d547cfb7","computeCraftSeed(address,uint256,uint256,uint256,uint256,uint256,uint256)":"52b6a409","computeProvenanceHash(uint256,uint256,uint256,uint256,uint256,bytes32,uint256,uint256)":"41d71b9c","getApproved(uint256)":"081812fc","getCombatProfile(uint256)":"f5dd3ceb","getWeaponStats(uint256)":"63ff2287","isApprovedForAll(address,address)":"e985e9c5","mintWeapon(address,uint256,uint256,uint256,uint256,uint256,uint256,uint8,uint256,bool,bool,uint256)":"239c011d","name()":"06fdde03","nextTokenId()":"75794a3c","owner()":"8da5cb5b","ownerOf(uint256)":"6352211e","renounceOwnership()":"715018a6","safeTransferFrom(address,address,uint256)":"42842e0e","safeTransferFrom(address,address,uint256,bytes)":"b88d4fde","setApprovalForAll(address,bool)":"a22cb465","setAuthorizedMinter(address,bool)":"ed58bad8","setBaseURI(string)":"55f804b3","setDurability(uint256,uint256)":"a987fcdd","setMetadataRevision(uint256,uint256)":"caca6f87","setUpgradeLevel(uint256,uint256)":"1e8b3be9","setWeaponBonuses(uint256,(int256,int256,int256,int256,int256,int256,int256,int256,int256,int256,int256,int256,int256,int256,int256,int256,int256,int256,int256))":"4eba5e04","setWeaponDefinition(uint256,string,uint8,uint8,uint256,uint256,uint256,uint256,uint256,uint256,uint256,uint256,uint256,uint256,uint256,uint256,uint256,uint256,uint256,uint256,uint256,uint256,uint256,uint256,uint256,uint256,uint256,uint256,uint256,bool)":"bb1f0753","supportsInterface(bytes4)":"01ffc9a7","symbol()":"95d89b41","tokenURI(uint256)":"c87b56dd","transferFrom(address,address,uint256)":"23b872dd","transferOwnership(address)":"f2fde38b","weaponBonusesOf(uint256)":"2efcc220","weaponDefinitionOf(uint256)":"8f2cf344","weaponInstanceOf(uint256)":"14207dda"}}}}}