{"project/contracts/crafting/CityEnchantments.sol":{"CityEnchantments":{"abi":[{"inputs":[{"internalType":"address","name":"initialOwner","type":"address"}],"stateMutability":"nonpayable","type":"constructor"},{"inputs":[],"name":"InvalidValue","type":"error"},{"inputs":[],"name":"NotAuthorized","type":"error"},{"inputs":[{"internalType":"address","name":"owner","type":"address"}],"name":"OwnableInvalidOwner","type":"error"},{"inputs":[{"internalType":"address","name":"account","type":"address"}],"name":"OwnableUnauthorizedAccount","type":"error"},{"inputs":[],"name":"ZeroAddress","type":"error"},{"anonymous":false,"inputs":[{"indexed":true,"internalType":"address","name":"caller","type":"address"},{"indexed":false,"internalType":"bool","name":"allowed","type":"bool"}],"name":"AuthorizedCallerSet","type":"event"},{"anonymous":false,"inputs":[{"indexed":true,"internalType":"uint256","name":"enchantmentId","type":"uint256"},{"indexed":true,"internalType":"uint256","name":"level","type":"uint256"}],"name":"EnchantmentBonusesSet","type":"event"},{"anonymous":false,"inputs":[{"indexed":true,"internalType":"uint256","name":"enchantmentId","type":"uint256"},{"indexed":false,"internalType":"string","name":"name","type":"string"},{"indexed":false,"internalType":"enum CityEnchantments.EnchantmentCategory","name":"category","type":"uint8"},{"indexed":false,"internalType":"uint256","name":"rarityTier","type":"uint256"},{"indexed":false,"internalType":"uint256","name":"maxLevel","type":"uint256"},{"indexed":false,"internalType":"bool","name":"enabled","type":"bool"}],"name":"EnchantmentDefinitionSet","type":"event"},{"anonymous":false,"inputs":[{"indexed":true,"internalType":"address","name":"previousOwner","type":"address"},{"indexed":true,"internalType":"address","name":"newOwner","type":"address"}],"name":"OwnershipTransferred","type":"event"},{"inputs":[{"internalType":"address","name":"","type":"address"}],"name":"authorizedCallers","outputs":[{"internalType":"bool","name":"","type":"bool"}],"stateMutability":"view","type":"function"},{"inputs":[{"internalType":"uint256","name":"","type":"uint256"},{"internalType":"uint256","name":"","type":"uint256"}],"name":"enchantmentBonusesOf","outputs":[{"internalType":"int256","name":"minDamageBonus","type":"int256"},{"internalType":"int256","name":"maxDamageBonus","type":"int256"},{"internalType":"int256","name":"attackSpeedBonus","type":"int256"},{"internalType":"int256","name":"critChanceBpsBonus","type":"int256"},{"internalType":"int256","name":"critMultiplierBpsBonus","type":"int256"},{"internalType":"int256","name":"accuracyBpsBonus","type":"int256"},{"internalType":"int256","name":"rangeBonus","type":"int256"},{"internalType":"int256","name":"maxDurabilityBonus","type":"int256"},{"internalType":"int256","name":"armorPenBpsBonus","type":"int256"},{"internalType":"int256","name":"blockChanceBpsBonus","type":"int256"},{"internalType":"int256","name":"lifeStealBpsBonus","type":"int256"},{"internalType":"int256","name":"energyCostBonus","type":"int256"},{"internalType":"int256","name":"heatGenerationBonus","type":"int256"},{"internalType":"int256","name":"stabilityBonus","type":"int256"},{"internalType":"int256","name":"cooldownMsBonus","type":"int256"},{"internalType":"int256","name":"projectileSpeedBonus","type":"int256"},{"internalType":"int256","name":"aoeRadiusBonus","type":"int256"},{"internalType":"int256","name":"enchantmentSlotsBonus","type":"int256"},{"internalType":"int256","name":"materiaSlotsBonus","type":"int256"}],"stateMutability":"view","type":"function"},{"inputs":[{"internalType":"uint256","name":"","type":"uint256"}],"name":"enchantmentDefinitionOf","outputs":[{"internalType":"uint256","name":"id","type":"uint256"},{"internalType":"string","name":"name","type":"string"},{"internalType":"enum CityEnchantments.EnchantmentCategory","name":"category","type":"uint8"},{"internalType":"uint256","name":"rarityTier","type":"uint256"},{"internalType":"uint256","name":"maxLevel","type":"uint256"},{"internalType":"bool","name":"enabled","type":"bool"}],"stateMutability":"view","type":"function"},{"inputs":[{"internalType":"uint256","name":"enchantmentId","type":"uint256"}],"name":"enchantmentExists","outputs":[{"internalType":"bool","name":"","type":"bool"}],"stateMutability":"view","type":"function"},{"inputs":[{"internalType":"uint256","name":"enchantmentId","type":"uint256"},{"internalType":"uint256","name":"level","type":"uint256"}],"name":"getEnchantmentBonuses","outputs":[{"components":[{"internalType":"int256","name":"minDamageBonus","type":"int256"},{"internalType":"int256","name":"maxDamageBonus","type":"int256"},{"internalType":"int256","name":"attackSpeedBonus","type":"int256"},{"internalType":"int256","name":"critChanceBpsBonus","type":"int256"},{"internalType":"int256","name":"critMultiplierBpsBonus","type":"int256"},{"internalType":"int256","name":"accuracyBpsBonus","type":"int256"},{"internalType":"int256","name":"rangeBonus","type":"int256"},{"internalType":"int256","name":"maxDurabilityBonus","type":"int256"},{"internalType":"int256","name":"armorPenBpsBonus","type":"int256"},{"internalType":"int256","name":"blockChanceBpsBonus","type":"int256"},{"internalType":"int256","name":"lifeStealBpsBonus","type":"int256"},{"internalType":"int256","name":"energyCostBonus","type":"int256"},{"internalType":"int256","name":"heatGenerationBonus","type":"int256"},{"internalType":"int256","name":"stabilityBonus","type":"int256"},{"internalType":"int256","name":"cooldownMsBonus","type":"int256"},{"internalType":"int256","name":"projectileSpeedBonus","type":"int256"},{"internalType":"int256","name":"aoeRadiusBonus","type":"int256"},{"internalType":"int256","name":"enchantmentSlotsBonus","type":"int256"},{"internalType":"int256","name":"materiaSlotsBonus","type":"int256"}],"internalType":"struct CityEnchantments.EnchantmentBonuses","name":"","type":"tuple"}],"stateMutability":"view","type":"function"},{"inputs":[{"internalType":"uint256","name":"enchantmentId","type":"uint256"}],"name":"getEnchantmentDefinition","outputs":[{"components":[{"internalType":"uint256","name":"id","type":"uint256"},{"internalType":"string","name":"name","type":"string"},{"internalType":"enum CityEnchantments.EnchantmentCategory","name":"category","type":"uint8"},{"internalType":"uint256","name":"rarityTier","type":"uint256"},{"internalType":"uint256","name":"maxLevel","type":"uint256"},{"internalType":"bool","name":"enabled","type":"bool"}],"internalType":"struct CityEnchantments.EnchantmentDefinition","name":"","type":"tuple"}],"stateMutability":"view","type":"function"},{"inputs":[{"internalType":"uint256","name":"enchantmentId","type":"uint256"}],"name":"getEnchantmentMeta","outputs":[{"internalType":"string","name":"name","type":"string"},{"internalType":"enum CityEnchantments.EnchantmentCategory","name":"category","type":"uint8"},{"internalType":"uint256","name":"rarityTier","type":"uint256"},{"internalType":"uint256","name":"maxLevel","type":"uint256"},{"internalType":"bool","name":"enabled","type":"bool"}],"stateMutability":"view","type":"function"},{"inputs":[{"internalType":"uint256","name":"enchantmentId","type":"uint256"}],"name":"isEnchantmentEnabled","outputs":[{"internalType":"bool","name":"","type":"bool"}],"stateMutability":"view","type":"function"},{"inputs":[{"internalType":"uint256","name":"enchantmentId","type":"uint256"},{"internalType":"uint256","name":"level","type":"uint256"}],"name":"isEnchantmentUsable","outputs":[{"internalType":"bool","name":"","type":"bool"}],"stateMutability":"view","type":"function"},{"inputs":[],"name":"owner","outputs":[{"internalType":"address","name":"","type":"address"}],"stateMutability":"view","type":"function"},{"inputs":[],"name":"renounceOwnership","outputs":[],"stateMutability":"nonpayable","type":"function"},{"inputs":[{"internalType":"address","name":"caller","type":"address"},{"internalType":"bool","name":"allowed","type":"bool"}],"name":"setAuthorizedCaller","outputs":[],"stateMutability":"nonpayable","type":"function"},{"inputs":[{"internalType":"uint256","name":"enchantmentId","type":"uint256"},{"internalType":"uint256","name":"level","type":"uint256"},{"components":[{"internalType":"int256","name":"minDamageBonus","type":"int256"},{"internalType":"int256","name":"maxDamageBonus","type":"int256"},{"internalType":"int256","name":"attackSpeedBonus","type":"int256"},{"internalType":"int256","name":"critChanceBpsBonus","type":"int256"},{"internalType":"int256","name":"critMultiplierBpsBonus","type":"int256"},{"internalType":"int256","name":"accuracyBpsBonus","type":"int256"},{"internalType":"int256","name":"rangeBonus","type":"int256"},{"internalType":"int256","name":"maxDurabilityBonus","type":"int256"},{"internalType":"int256","name":"armorPenBpsBonus","type":"int256"},{"internalType":"int256","name":"blockChanceBpsBonus","type":"int256"},{"internalType":"int256","name":"lifeStealBpsBonus","type":"int256"},{"internalType":"int256","name":"energyCostBonus","type":"int256"},{"internalType":"int256","name":"heatGenerationBonus","type":"int256"},{"internalType":"int256","name":"stabilityBonus","type":"int256"},{"internalType":"int256","name":"cooldownMsBonus","type":"int256"},{"internalType":"int256","name":"projectileSpeedBonus","type":"int256"},{"internalType":"int256","name":"aoeRadiusBonus","type":"int256"},{"internalType":"int256","name":"enchantmentSlotsBonus","type":"int256"},{"internalType":"int256","name":"materiaSlotsBonus","type":"int256"}],"internalType":"struct CityEnchantments.EnchantmentBonuses","name":"bonuses","type":"tuple"}],"name":"setEnchantmentBonuses","outputs":[],"stateMutability":"nonpayable","type":"function"},{"inputs":[{"internalType":"uint256","name":"enchantmentId","type":"uint256"},{"internalType":"string","name":"name","type":"string"},{"internalType":"enum CityEnchantments.EnchantmentCategory","name":"category","type":"uint8"},{"internalType":"uint256","name":"rarityTier","type":"uint256"},{"internalType":"uint256","name":"maxLevel","type":"uint256"},{"internalType":"bool","name":"enabled","type":"bool"}],"name":"setEnchantmentDefinition","outputs":[],"stateMutability":"nonpayable","type":"function"},{"inputs":[{"internalType":"address","name":"newOwner","type":"address"}],"name":"transferOwnership","outputs":[],"stateMutability":"nonpayable","type":"function"}],"evm":{"bytecode":{"linkReferences":{},"object":"6080346100b457601f6111e038819003918201601f19168301916001600160401b038311848410176100b8578084926020946040528339810103126100b457516001600160a01b03808216918290036100b457811561009c575f548260018060a01b03198216175f55167f8be0079c531659141344cd1fd0a4f28419497f9722a3daafe3b4186f6b6457e05f80a360405161111390816100cd8239f35b604051631e4fbdf760e01b81525f6004820152602490fd5b5f80fd5b634e487b7160e01b5f52604160045260245ffdfe610140806040526004361015610013575f80fd5b5f3560e01c908163097c8c1b14610e2c575080630de5c2de14610af457806310a950c11461099d5780632d36406b14610752578063454bbd29146106b3578063479b915714610629578063536fff6c146105ec57806360756c9114610505578063715018a6146104ae5780638da5cb5b14610487578063909bac131461038e5780639582890214610362578063addf1f161461033f578063e8acc589146101505763f2fde38b146100c2575f80fd5b3461014c57602036600319011261014c576100db610e70565b6100e36110b2565b6001600160a01b03908116908115610134575f54826bffffffffffffffffffffffff60a01b8216175f55167f8be0079c531659141344cd1fd0a4f28419497f9722a3daafe3b4186f6b6457e05f80a3005b604051631e4fbdf760e01b81525f6004820152602490fd5b5f80fd5b3461014c576102a036600319011261014c5760243560043561026036604319011261014c575f546001600160a01b031633148015610329575b1561031757805f52600160205260405f206040516101a681610ebe565b815481526101b660018301610f19565b60208201526101cf60ff60028401541660408301611006565b6003820154606082015260ff6005600484015493608084019485520154161590811560a0820152511590811561030f575b506102f2578215908115610304575b506102f257805f52600260205260405f20825f5260205260405f2060443581556064356001820155608435600282015560a435600382015560c435600482015560e435600582015561010435600682015561012435600782015561014435600882015561016435600982015561018435600a8201556101a435600b8201556101c435600c8201556101e435600d82015561020435600e82015561022435600f8201556102443560108201556102643560118201556012610284359101557ff181604f407ea458352b579dfcfcac81270903136c071aa18df77318498b6b325f80a3005b604051632a9ffab760e21b8152600490fd5b90505182118361020f565b905084610200565b60405163ea8e4eb560e01b8152600490fd5b50335f52600360205260ff60405f205416610189565b3461014c57602061035861035236610e5a565b90611012565b6040519015158152f35b3461014c57602036600319011261014c576004355f526001602052602060405f20541515604051908152f35b3461014c5760208060031936011261014c575f60a06040516103af81610ebe565b82815260608482015282604082015282606082015282608082015201526004355f526001815260405f20604051906103e682610ebe565b805482526103f660018201610f19565b83830190815260ff60028301541691610413604085019384611006565b60038101546060850190815261046f61046360ff600560048601549560808a019687520154169460a088019515158652604051988998818a5251908901525160c0604089015260e0880190610fbb565b94516060870190610ff9565b5160808501525160a084015251151560c08301520390f35b3461014c575f36600319011261014c575f546040516001600160a01b039091168152602090f35b3461014c575f36600319011261014c576104c66110b2565b5f80546001600160a01b0319811682556001600160a01b03167f8be0079c531659141344cd1fd0a4f28419497f9722a3daafe3b4186f6b6457e08280a3005b3461014c57602036600319011261014c576004355f52600160205260405f206040519061053182610ebe565b8054825261054160018201610f19565b916020810192835260ff60028301541691610560604083019384611006565b6003810154936060830194855260a060ff6005600485015494608087019586520154169301921515835251925191600f8310156105d8576105ba9451915190511515916105c560405196879660a0885260a0880190610fbb565b946020870190610ff9565b6040850152606084015260808301520390f35b634e487b7160e01b5f52602160045260245ffd5b3461014c57602036600319011261014c576001600160a01b0361060d610e70565b165f526003602052602060ff60405f2054166040519015158152f35b3461014c57602036600319011261014c576004355f52600160205260405f20805461065660018301610f19565b9160ff6002820154169060038101549060ff60056004830154920154169161069e610693604051978897885260c0602089015260c0880190610fbb565b946040870190610ff9565b60608501526080840152151560a08301520390f35b3461014c57604036600319011261014c576106cc610e70565b602435908115159081830361014c576106e36110b2565b6001600160a01b0316918215610740577f1eff62a53441c7d0125c22f2a9a324e206b34efa41e19469d7efb9bb703d21a391610737602092855f526003845260405f209060ff801983541691151516179055565b604051908152a2005b60405163d92e233d60e01b8152600490fd5b3461014c5761076036610e5a565b905f61024060405161077181610eda565b8281528260208201528260408201528260608201528260808201528260a08201528260c08201528260e08201528261010082015282610120820152826101408201528261016082015282610180820152826101a0820152826101c0820152826101e0820152826102008201528261022082015201525f52600260205260405f20905f5260205261026060405f2061024060405161080d81610eda565b601283549384835260018101546020840152600281015460408401526003810154606084015260048101546080840152600581015460a0840152600681015460c0840152600781015460e084015260088101546101008401526009810154610120840152600a810154610140840152600b810154610160840152600c810154610180840152600d8101546101a0840152600e8101546101c0840152600f8101546101e0840152601081015461020084015260118101546102208401520154828201526040519283526020810151602084015260408101516040840152606081015160608401526080810151608084015260a081015160a084015260c081015160c084015260e081015160e08401526101008101516101008401526101208101516101208401526101408101516101408401526101608101516101608401526101808101516101808401526101a08101516101a08401526101c08101516101c08401526101e08101516101e08401526102008101516102008401526102208101516102208401520151610240820152f35b3461014c576109ab36610e5a565b905f52600260205260405f20905f526020526012600f600e600d600c600b600a600960086007600660056004600360405f209d8e9d8e9d8e9d8e9d8e9d8e9d8e9d8e9d8e9d8e9d8e9d8e9d8e9d8e549e60018101546101005260028101546101205201549e01549e01549e01549e01549e01549e01549e01549e01549e01549e01549e01549e01549e6010810154608052601181015460c052015460e05260405160a05260a0515261010051602060a051015261012051604060a0510152606060a0510152608060a051015260a08051015260c060a051015260e060a051015261010060a051015261012060a051015261014060a051015261016060a051015261018060a05101526101a060a05101526101c060a05101526101e060a051015260805161020060a051015260c05161022060a051015260e05161024060a051015261026060a051f35b3461014c5760c036600319011261014c5760243567ffffffffffffffff811161014c573660238201121561014c5767ffffffffffffffff81600401351161014c5736602482600401358301011161014c57600f604435101561014c5760a435801515810361014c575f546001600160a01b031633148015610e16575b1561031757600435156102f2578160040135156102f257604435156102f257608435156102f25760405190610ba482610ebe565b600435825260209060405192610bc783601f19601f886004013501160185610ef7565b600485013580855260248601848601375f838660040135860101528281019384526040810190610bf960443583611006565b606081019460643586526080820190608435825260a083019085151582526004355f52600180885260405f2094518555808501915180519067ffffffffffffffff8211610e0257610c4a8454610e86565b601f8111610dbc575b508990601f8311600114610d5b579282939183925f94610d50575b50501b915f199060031b1c19161790555b60028301935191600f8310156105d8577f17b9b83355eafb5421eb106ad941c05a17f21d328c0f9a21f582939ca6c2177e97610ce69560059460ff8019835416911617905551600385015551600484015551151591019060ff801983541691151516179055565b610d1f6040519260a08452856004013560a085015285600401356024870160c08601375f60c08760040135860101528301604435610ff9565b606435604083015260843560608301521515608082015260048035930135601f01601f1916810181900360c00190a2005b015192508d80610c6e565b90601f19831691855f52838c5f20938d5f905b88838310610da45750505010610d8c575b505050811b019055610c7f565b01515f1960f88460031b161c191690558b8080610d7f565b8686015188559096019594850194879350018e610d6e565b845f528a5f20601f840160051c8101918c8510610df8575b601f0160051c019084905b828110610ded575050610c53565b5f8155018490610ddf565b9091508190610dd4565b634e487b7160e01b5f52604160045260245ffd5b50335f52600360205260ff60405f205416610b70565b3461014c57602036600319011261014c576020906004355f526001825260ff600560405f2001541615158152f35b604090600319011261014c576004359060243590565b600435906001600160a01b038216820361014c57565b90600182811c92168015610eb4575b6020831014610ea057565b634e487b7160e01b5f52602260045260245ffd5b91607f1691610e95565b60c0810190811067ffffffffffffffff821117610e0257604052565b610260810190811067ffffffffffffffff821117610e0257604052565b90601f8019910116810190811067ffffffffffffffff821117610e0257604052565b9060405191825f8254610f2b81610e86565b908184526020946001916001811690815f14610f995750600114610f5b575b505050610f5992500383610ef7565b565b5f90815285812095935091905b818310610f81575050610f5993508201015f8080610f4a565b85548884018501529485019487945091830191610f68565b92505050610f5994925060ff191682840152151560051b8201015f8080610f4a565b91908251928382525f5b848110610fe5575050825f602080949584010152601f8019910116010190565b602081830181015184830182015201610fc5565b90600f8210156105d85752565b600f8210156105d85752565b5f52600160205260405f2060405161102981610ebe565b8154815261103960018301610f19565b602082015261105260ff60028401541660408301611006565b6003820154606082015260ff60056004840154938460808501520154161590811560a082015251156110ab576110a557811591821561109b575b505061109757600190565b5f90565b1190505f8061108c565b50505f90565b5050505f90565b5f546001600160a01b031633036110c557565b60405163118cdaa760e01b8152336004820152602490fdfea26469706673582212206f794dfbdd955796a033c1fc1e8f5aa6abd58f084d57e4bf67ce77cdfd01cc3064736f6c63430008180033","opcodes":"PUSH1 0x80 CALLVALUE PUSH2 0xB4 JUMPI PUSH1 0x1F PUSH2 0x11E0 CODESIZE DUP2 SWAP1 SUB SWAP2 DUP3 ADD PUSH1 0x1F NOT AND DUP4 ADD SWAP2 PUSH1 0x1 PUSH1 0x1 PUSH1 0x40 SHL SUB DUP4 GT DUP5 DUP5 LT OR PUSH2 0xB8 JUMPI DUP1 DUP5 SWAP3 PUSH1 0x20 SWAP5 PUSH1 0x40 MSTORE DUP4 CODECOPY DUP2 ADD SUB SLT PUSH2 0xB4 JUMPI MLOAD PUSH1 0x1 PUSH1 0x1 PUSH1 0xA0 SHL SUB DUP1 DUP3 AND SWAP2 DUP3 SWAP1 SUB PUSH2 0xB4 JUMPI DUP2 ISZERO PUSH2 0x9C JUMPI PUSH0 SLOAD DUP3 PUSH1 0x1 DUP1 PUSH1 0xA0 SHL SUB NOT DUP3 AND OR PUSH0 SSTORE AND PUSH32 0x8BE0079C531659141344CD1FD0A4F28419497F9722A3DAAFE3B4186F6B6457E0 PUSH0 DUP1 LOG3 PUSH1 0x40 MLOAD PUSH2 0x1113 SWAP1 DUP2 PUSH2 0xCD DUP3 CODECOPY RETURN JUMPDEST PUSH1 0x40 MLOAD PUSH4 0x1E4FBDF7 PUSH1 0xE0 SHL DUP2 MSTORE PUSH0 PUSH1 0x4 DUP3 ADD MSTORE PUSH1 0x24 SWAP1 REVERT JUMPDEST PUSH0 DUP1 REVERT JUMPDEST PUSH4 0x4E487B71 PUSH1 0xE0 SHL PUSH0 MSTORE PUSH1 0x41 PUSH1 0x4 MSTORE PUSH1 0x24 PUSH0 REVERT INVALID PUSH2 0x140 DUP1 PUSH1 0x40 MSTORE PUSH1 0x4 CALLDATASIZE LT ISZERO PUSH2 0x13 JUMPI PUSH0 DUP1 REVERT JUMPDEST PUSH0 CALLDATALOAD PUSH1 0xE0 SHR SWAP1 DUP2 PUSH4 0x97C8C1B EQ PUSH2 0xE2C JUMPI POP DUP1 PUSH4 0xDE5C2DE EQ PUSH2 0xAF4 JUMPI DUP1 PUSH4 0x10A950C1 EQ PUSH2 0x99D JUMPI DUP1 PUSH4 0x2D36406B EQ PUSH2 0x752 JUMPI DUP1 PUSH4 0x454BBD29 EQ PUSH2 0x6B3 JUMPI DUP1 PUSH4 0x479B9157 EQ PUSH2 0x629 JUMPI DUP1 PUSH4 0x536FFF6C EQ PUSH2 0x5EC JUMPI DUP1 PUSH4 0x60756C91 EQ PUSH2 0x505 JUMPI DUP1 PUSH4 0x715018A6 EQ PUSH2 0x4AE JUMPI DUP1 PUSH4 0x8DA5CB5B EQ PUSH2 0x487 JUMPI DUP1 PUSH4 0x909BAC13 EQ PUSH2 0x38E JUMPI DUP1 PUSH4 0x95828902 EQ PUSH2 0x362 JUMPI DUP1 PUSH4 0xADDF1F16 EQ PUSH2 0x33F JUMPI DUP1 PUSH4 0xE8ACC589 EQ PUSH2 0x150 JUMPI PUSH4 0xF2FDE38B EQ PUSH2 0xC2 JUMPI PUSH0 DUP1 REVERT JUMPDEST CALLVALUE PUSH2 0x14C JUMPI PUSH1 0x20 CALLDATASIZE PUSH1 0x3 NOT ADD SLT PUSH2 0x14C JUMPI PUSH2 0xDB PUSH2 0xE70 JUMP JUMPDEST PUSH2 0xE3 PUSH2 0x10B2 JUMP JUMPDEST PUSH1 0x1 PUSH1 0x1 PUSH1 0xA0 SHL SUB SWAP1 DUP2 AND SWAP1 DUP2 ISZERO PUSH2 0x134 JUMPI PUSH0 SLOAD DUP3 PUSH12 0xFFFFFFFFFFFFFFFFFFFFFFFF PUSH1 0xA0 SHL DUP3 AND OR PUSH0 SSTORE AND PUSH32 0x8BE0079C531659141344CD1FD0A4F28419497F9722A3DAAFE3B4186F6B6457E0 PUSH0 DUP1 LOG3 STOP JUMPDEST PUSH1 0x40 MLOAD PUSH4 0x1E4FBDF7 PUSH1 0xE0 SHL DUP2 MSTORE PUSH0 PUSH1 0x4 DUP3 ADD MSTORE PUSH1 0x24 SWAP1 REVERT JUMPDEST PUSH0 DUP1 REVERT JUMPDEST CALLVALUE PUSH2 0x14C JUMPI PUSH2 0x2A0 CALLDATASIZE PUSH1 0x3 NOT ADD SLT PUSH2 0x14C JUMPI PUSH1 0x24 CALLDATALOAD PUSH1 0x4 CALLDATALOAD PUSH2 0x260 CALLDATASIZE PUSH1 0x43 NOT ADD SLT PUSH2 0x14C JUMPI PUSH0 SLOAD PUSH1 0x1 PUSH1 0x1 PUSH1 0xA0 SHL SUB AND CALLER EQ DUP1 ISZERO PUSH2 0x329 JUMPI JUMPDEST ISZERO PUSH2 0x317 JUMPI DUP1 PUSH0 MSTORE PUSH1 0x1 PUSH1 0x20 MSTORE PUSH1 0x40 PUSH0 KECCAK256 PUSH1 0x40 MLOAD PUSH2 0x1A6 DUP2 PUSH2 0xEBE JUMP JUMPDEST DUP2 SLOAD DUP2 MSTORE PUSH2 0x1B6 PUSH1 0x1 DUP4 ADD PUSH2 0xF19 JUMP JUMPDEST PUSH1 0x20 DUP3 ADD MSTORE PUSH2 0x1CF PUSH1 0xFF PUSH1 0x2 DUP5 ADD SLOAD AND PUSH1 0x40 DUP4 ADD PUSH2 0x1006 JUMP JUMPDEST PUSH1 0x3 DUP3 ADD SLOAD PUSH1 0x60 DUP3 ADD MSTORE PUSH1 0xFF PUSH1 0x5 PUSH1 0x4 DUP5 ADD SLOAD SWAP4 PUSH1 0x80 DUP5 ADD SWAP5 DUP6 MSTORE ADD SLOAD AND ISZERO SWAP1 DUP2 ISZERO PUSH1 0xA0 DUP3 ADD MSTORE MLOAD ISZERO SWAP1 DUP2 ISZERO PUSH2 0x30F JUMPI JUMPDEST POP PUSH2 0x2F2 JUMPI DUP3 ISZERO SWAP1 DUP2 ISZERO PUSH2 0x304 JUMPI JUMPDEST POP PUSH2 0x2F2 JUMPI DUP1 PUSH0 MSTORE PUSH1 0x2 PUSH1 0x20 MSTORE PUSH1 0x40 PUSH0 KECCAK256 DUP3 PUSH0 MSTORE PUSH1 0x20 MSTORE PUSH1 0x40 PUSH0 KECCAK256 PUSH1 0x44 CALLDATALOAD DUP2 SSTORE PUSH1 0x64 CALLDATALOAD PUSH1 0x1 DUP3 ADD SSTORE PUSH1 0x84 CALLDATALOAD PUSH1 0x2 DUP3 ADD SSTORE PUSH1 0xA4 CALLDATALOAD PUSH1 0x3 DUP3 ADD SSTORE PUSH1 0xC4 CALLDATALOAD PUSH1 0x4 DUP3 ADD SSTORE PUSH1 0xE4 CALLDATALOAD PUSH1 0x5 DUP3 ADD SSTORE PUSH2 0x104 CALLDATALOAD PUSH1 0x6 DUP3 ADD SSTORE PUSH2 0x124 CALLDATALOAD PUSH1 0x7 DUP3 ADD SSTORE PUSH2 0x144 CALLDATALOAD PUSH1 0x8 DUP3 ADD SSTORE PUSH2 0x164 CALLDATALOAD PUSH1 0x9 DUP3 ADD SSTORE PUSH2 0x184 CALLDATALOAD PUSH1 0xA DUP3 ADD SSTORE PUSH2 0x1A4 CALLDATALOAD PUSH1 0xB DUP3 ADD SSTORE PUSH2 0x1C4 CALLDATALOAD PUSH1 0xC DUP3 ADD SSTORE PUSH2 0x1E4 CALLDATALOAD PUSH1 0xD DUP3 ADD SSTORE PUSH2 0x204 CALLDATALOAD PUSH1 0xE DUP3 ADD SSTORE PUSH2 0x224 CALLDATALOAD PUSH1 0xF DUP3 ADD SSTORE PUSH2 0x244 CALLDATALOAD PUSH1 0x10 DUP3 ADD SSTORE PUSH2 0x264 CALLDATALOAD PUSH1 0x11 DUP3 ADD SSTORE PUSH1 0x12 PUSH2 0x284 CALLDATALOAD SWAP2 ADD SSTORE PUSH32 0xF181604F407EA458352B579DFCFCAC81270903136C071AA18DF77318498B6B32 PUSH0 DUP1 LOG3 STOP JUMPDEST PUSH1 0x40 MLOAD PUSH4 0x2A9FFAB7 PUSH1 0xE2 SHL DUP2 MSTORE PUSH1 0x4 SWAP1 REVERT JUMPDEST SWAP1 POP MLOAD DUP3 GT DUP4 PUSH2 0x20F JUMP JUMPDEST SWAP1 POP DUP5 PUSH2 0x200 JUMP JUMPDEST PUSH1 0x40 MLOAD PUSH4 0xEA8E4EB5 PUSH1 0xE0 SHL DUP2 MSTORE PUSH1 0x4 SWAP1 REVERT JUMPDEST POP CALLER PUSH0 MSTORE PUSH1 0x3 PUSH1 0x20 MSTORE PUSH1 0xFF PUSH1 0x40 PUSH0 KECCAK256 SLOAD AND PUSH2 0x189 JUMP JUMPDEST CALLVALUE PUSH2 0x14C JUMPI PUSH1 0x20 PUSH2 0x358 PUSH2 0x352 CALLDATASIZE PUSH2 0xE5A JUMP JUMPDEST SWAP1 PUSH2 0x1012 JUMP JUMPDEST PUSH1 0x40 MLOAD SWAP1 ISZERO ISZERO DUP2 MSTORE RETURN JUMPDEST CALLVALUE PUSH2 0x14C JUMPI PUSH1 0x20 CALLDATASIZE PUSH1 0x3 NOT ADD SLT PUSH2 0x14C JUMPI PUSH1 0x4 CALLDATALOAD PUSH0 MSTORE PUSH1 0x1 PUSH1 0x20 MSTORE PUSH1 0x20 PUSH1 0x40 PUSH0 KECCAK256 SLOAD ISZERO ISZERO PUSH1 0x40 MLOAD SWAP1 DUP2 MSTORE RETURN JUMPDEST CALLVALUE PUSH2 0x14C JUMPI PUSH1 0x20 DUP1 PUSH1 0x3 NOT CALLDATASIZE ADD SLT PUSH2 0x14C JUMPI PUSH0 PUSH1 0xA0 PUSH1 0x40 MLOAD PUSH2 0x3AF DUP2 PUSH2 0xEBE JUMP JUMPDEST DUP3 DUP2 MSTORE PUSH1 0x60 DUP5 DUP3 ADD MSTORE DUP3 PUSH1 0x40 DUP3 ADD MSTORE DUP3 PUSH1 0x60 DUP3 ADD MSTORE DUP3 PUSH1 0x80 DUP3 ADD MSTORE ADD MSTORE PUSH1 0x4 CALLDATALOAD PUSH0 MSTORE PUSH1 0x1 DUP2 MSTORE PUSH1 0x40 PUSH0 KECCAK256 PUSH1 0x40 MLOAD SWAP1 PUSH2 0x3E6 DUP3 PUSH2 0xEBE JUMP JUMPDEST DUP1 SLOAD DUP3 MSTORE PUSH2 0x3F6 PUSH1 0x1 DUP3 ADD PUSH2 0xF19 JUMP JUMPDEST DUP4 DUP4 ADD SWAP1 DUP2 MSTORE PUSH1 0xFF PUSH1 0x2 DUP4 ADD SLOAD AND SWAP2 PUSH2 0x413 PUSH1 0x40 DUP6 ADD SWAP4 DUP5 PUSH2 0x1006 JUMP JUMPDEST PUSH1 0x3 DUP2 ADD SLOAD PUSH1 0x60 DUP6 ADD SWAP1 DUP2 MSTORE PUSH2 0x46F PUSH2 0x463 PUSH1 0xFF PUSH1 0x5 PUSH1 0x4 DUP7 ADD SLOAD SWAP6 PUSH1 0x80 DUP11 ADD SWAP7 DUP8 MSTORE ADD SLOAD AND SWAP5 PUSH1 0xA0 DUP9 ADD SWAP6 ISZERO ISZERO DUP7 MSTORE PUSH1 0x40 MLOAD SWAP9 DUP10 SWAP9 DUP2 DUP11 MSTORE MLOAD SWAP1 DUP10 ADD MSTORE MLOAD PUSH1 0xC0 PUSH1 0x40 DUP10 ADD MSTORE PUSH1 0xE0 DUP9 ADD SWAP1 PUSH2 0xFBB JUMP JUMPDEST SWAP5 MLOAD PUSH1 0x60 DUP8 ADD SWAP1 PUSH2 0xFF9 JUMP JUMPDEST MLOAD PUSH1 0x80 DUP6 ADD MSTORE MLOAD PUSH1 0xA0 DUP5 ADD MSTORE MLOAD ISZERO ISZERO PUSH1 0xC0 DUP4 ADD MSTORE SUB SWAP1 RETURN JUMPDEST CALLVALUE PUSH2 0x14C JUMPI PUSH0 CALLDATASIZE PUSH1 0x3 NOT ADD SLT PUSH2 0x14C JUMPI PUSH0 SLOAD PUSH1 0x40 MLOAD PUSH1 0x1 PUSH1 0x1 PUSH1 0xA0 SHL SUB SWAP1 SWAP2 AND DUP2 MSTORE PUSH1 0x20 SWAP1 RETURN JUMPDEST CALLVALUE PUSH2 0x14C JUMPI PUSH0 CALLDATASIZE PUSH1 0x3 NOT ADD SLT PUSH2 0x14C JUMPI PUSH2 0x4C6 PUSH2 0x10B2 JUMP JUMPDEST PUSH0 DUP1 SLOAD PUSH1 0x1 PUSH1 0x1 PUSH1 0xA0 SHL SUB NOT DUP2 AND DUP3 SSTORE PUSH1 0x1 PUSH1 0x1 PUSH1 0xA0 SHL SUB AND PUSH32 0x8BE0079C531659141344CD1FD0A4F28419497F9722A3DAAFE3B4186F6B6457E0 DUP3 DUP1 LOG3 STOP JUMPDEST CALLVALUE PUSH2 0x14C JUMPI PUSH1 0x20 CALLDATASIZE PUSH1 0x3 NOT ADD SLT PUSH2 0x14C JUMPI PUSH1 0x4 CALLDATALOAD PUSH0 MSTORE PUSH1 0x1 PUSH1 0x20 MSTORE PUSH1 0x40 PUSH0 KECCAK256 PUSH1 0x40 MLOAD SWAP1 PUSH2 0x531 DUP3 PUSH2 0xEBE JUMP JUMPDEST DUP1 SLOAD DUP3 MSTORE PUSH2 0x541 PUSH1 0x1 DUP3 ADD PUSH2 0xF19 JUMP JUMPDEST SWAP2 PUSH1 0x20 DUP2 ADD SWAP3 DUP4 MSTORE PUSH1 0xFF PUSH1 0x2 DUP4 ADD SLOAD AND SWAP2 PUSH2 0x560 PUSH1 0x40 DUP4 ADD SWAP4 DUP5 PUSH2 0x1006 JUMP JUMPDEST PUSH1 0x3 DUP2 ADD SLOAD SWAP4 PUSH1 0x60 DUP4 ADD SWAP5 DUP6 MSTORE PUSH1 0xA0 PUSH1 0xFF PUSH1 0x5 PUSH1 0x4 DUP6 ADD SLOAD SWAP5 PUSH1 0x80 DUP8 ADD SWAP6 DUP7 MSTORE ADD SLOAD AND SWAP4 ADD SWAP3 ISZERO ISZERO DUP4 MSTORE MLOAD SWAP3 MLOAD SWAP2 PUSH1 0xF DUP4 LT ISZERO PUSH2 0x5D8 JUMPI PUSH2 0x5BA SWAP5 MLOAD SWAP2 MLOAD SWAP1 MLOAD ISZERO ISZERO SWAP2 PUSH2 0x5C5 PUSH1 0x40 MLOAD SWAP7 DUP8 SWAP7 PUSH1 0xA0 DUP9 MSTORE PUSH1 0xA0 DUP9 ADD SWAP1 PUSH2 0xFBB JUMP JUMPDEST SWAP5 PUSH1 0x20 DUP8 ADD SWAP1 PUSH2 0xFF9 JUMP JUMPDEST PUSH1 0x40 DUP6 ADD MSTORE PUSH1 0x60 DUP5 ADD MSTORE PUSH1 0x80 DUP4 ADD MSTORE SUB SWAP1 RETURN JUMPDEST PUSH4 0x4E487B71 PUSH1 0xE0 SHL PUSH0 MSTORE PUSH1 0x21 PUSH1 0x4 MSTORE PUSH1 0x24 PUSH0 REVERT JUMPDEST CALLVALUE PUSH2 0x14C JUMPI PUSH1 0x20 CALLDATASIZE PUSH1 0x3 NOT ADD SLT PUSH2 0x14C JUMPI PUSH1 0x1 PUSH1 0x1 PUSH1 0xA0 SHL SUB PUSH2 0x60D PUSH2 0xE70 JUMP JUMPDEST AND PUSH0 MSTORE PUSH1 0x3 PUSH1 0x20 MSTORE PUSH1 0x20 PUSH1 0xFF PUSH1 0x40 PUSH0 KECCAK256 SLOAD AND PUSH1 0x40 MLOAD SWAP1 ISZERO ISZERO DUP2 MSTORE RETURN JUMPDEST CALLVALUE PUSH2 0x14C JUMPI PUSH1 0x20 CALLDATASIZE PUSH1 0x3 NOT ADD SLT PUSH2 0x14C JUMPI PUSH1 0x4 CALLDATALOAD PUSH0 MSTORE PUSH1 0x1 PUSH1 0x20 MSTORE PUSH1 0x40 PUSH0 KECCAK256 DUP1 SLOAD PUSH2 0x656 PUSH1 0x1 DUP4 ADD PUSH2 0xF19 JUMP JUMPDEST SWAP2 PUSH1 0xFF PUSH1 0x2 DUP3 ADD SLOAD AND SWAP1 PUSH1 0x3 DUP2 ADD SLOAD SWAP1 PUSH1 0xFF PUSH1 0x5 PUSH1 0x4 DUP4 ADD SLOAD SWAP3 ADD SLOAD AND SWAP2 PUSH2 0x69E PUSH2 0x693 PUSH1 0x40 MLOAD SWAP8 DUP9 SWAP8 DUP9 MSTORE PUSH1 0xC0 PUSH1 0x20 DUP10 ADD MSTORE PUSH1 0xC0 DUP9 ADD SWAP1 PUSH2 0xFBB JUMP JUMPDEST SWAP5 PUSH1 0x40 DUP8 ADD SWAP1 PUSH2 0xFF9 JUMP JUMPDEST PUSH1 0x60 DUP6 ADD MSTORE PUSH1 0x80 DUP5 ADD MSTORE ISZERO ISZERO PUSH1 0xA0 DUP4 ADD MSTORE SUB SWAP1 RETURN JUMPDEST CALLVALUE PUSH2 0x14C JUMPI PUSH1 0x40 CALLDATASIZE PUSH1 0x3 NOT ADD SLT PUSH2 0x14C JUMPI PUSH2 0x6CC PUSH2 0xE70 JUMP JUMPDEST PUSH1 0x24 CALLDATALOAD SWAP1 DUP2 ISZERO ISZERO SWAP1 DUP2 DUP4 SUB PUSH2 0x14C JUMPI PUSH2 0x6E3 PUSH2 0x10B2 JUMP JUMPDEST PUSH1 0x1 PUSH1 0x1 PUSH1 0xA0 SHL SUB AND SWAP2 DUP3 ISZERO PUSH2 0x740 JUMPI PUSH32 0x1EFF62A53441C7D0125C22F2A9A324E206B34EFA41E19469D7EFB9BB703D21A3 SWAP2 PUSH2 0x737 PUSH1 0x20 SWAP3 DUP6 PUSH0 MSTORE PUSH1 0x3 DUP5 MSTORE PUSH1 0x40 PUSH0 KECCAK256 SWAP1 PUSH1 0xFF DUP1 NOT DUP4 SLOAD AND SWAP2 ISZERO ISZERO AND OR SWAP1 SSTORE JUMP JUMPDEST PUSH1 0x40 MLOAD SWAP1 DUP2 MSTORE LOG2 STOP JUMPDEST PUSH1 0x40 MLOAD PUSH4 0xD92E233D PUSH1 0xE0 SHL DUP2 MSTORE PUSH1 0x4 SWAP1 REVERT JUMPDEST CALLVALUE PUSH2 0x14C JUMPI PUSH2 0x760 CALLDATASIZE PUSH2 0xE5A JUMP JUMPDEST SWAP1 PUSH0 PUSH2 0x240 PUSH1 0x40 MLOAD PUSH2 0x771 DUP2 PUSH2 0xEDA JUMP JUMPDEST DUP3 DUP2 MSTORE DUP3 PUSH1 0x20 DUP3 ADD MSTORE DUP3 PUSH1 0x40 DUP3 ADD MSTORE DUP3 PUSH1 0x60 DUP3 ADD MSTORE DUP3 PUSH1 0x80 DUP3 ADD MSTORE DUP3 PUSH1 0xA0 DUP3 ADD MSTORE DUP3 PUSH1 0xC0 DUP3 ADD MSTORE DUP3 PUSH1 0xE0 DUP3 ADD MSTORE DUP3 PUSH2 0x100 DUP3 ADD MSTORE DUP3 PUSH2 0x120 DUP3 ADD MSTORE DUP3 PUSH2 0x140 DUP3 ADD MSTORE DUP3 PUSH2 0x160 DUP3 ADD MSTORE DUP3 PUSH2 0x180 DUP3 ADD MSTORE DUP3 PUSH2 0x1A0 DUP3 ADD MSTORE DUP3 PUSH2 0x1C0 DUP3 ADD MSTORE DUP3 PUSH2 0x1E0 DUP3 ADD MSTORE DUP3 PUSH2 0x200 DUP3 ADD MSTORE DUP3 PUSH2 0x220 DUP3 ADD MSTORE ADD MSTORE PUSH0 MSTORE PUSH1 0x2 PUSH1 0x20 MSTORE PUSH1 0x40 PUSH0 KECCAK256 SWAP1 PUSH0 MSTORE PUSH1 0x20 MSTORE PUSH2 0x260 PUSH1 0x40 PUSH0 KECCAK256 PUSH2 0x240 PUSH1 0x40 MLOAD PUSH2 0x80D DUP2 PUSH2 0xEDA JUMP JUMPDEST PUSH1 0x12 DUP4 SLOAD SWAP4 DUP5 DUP4 MSTORE PUSH1 0x1 DUP2 ADD SLOAD PUSH1 0x20 DUP5 ADD MSTORE PUSH1 0x2 DUP2 ADD SLOAD PUSH1 0x40 DUP5 ADD MSTORE PUSH1 0x3 DUP2 ADD SLOAD PUSH1 0x60 DUP5 ADD MSTORE PUSH1 0x4 DUP2 ADD SLOAD PUSH1 0x80 DUP5 ADD MSTORE PUSH1 0x5 DUP2 ADD SLOAD PUSH1 0xA0 DUP5 ADD MSTORE PUSH1 0x6 DUP2 ADD SLOAD PUSH1 0xC0 DUP5 ADD MSTORE PUSH1 0x7 DUP2 ADD SLOAD PUSH1 0xE0 DUP5 ADD MSTORE PUSH1 0x8 DUP2 ADD SLOAD PUSH2 0x100 DUP5 ADD MSTORE PUSH1 0x9 DUP2 ADD SLOAD PUSH2 0x120 DUP5 ADD MSTORE PUSH1 0xA DUP2 ADD SLOAD PUSH2 0x140 DUP5 ADD MSTORE PUSH1 0xB DUP2 ADD SLOAD PUSH2 0x160 DUP5 ADD MSTORE PUSH1 0xC DUP2 ADD SLOAD PUSH2 0x180 DUP5 ADD MSTORE PUSH1 0xD DUP2 ADD SLOAD PUSH2 0x1A0 DUP5 ADD MSTORE PUSH1 0xE DUP2 ADD SLOAD PUSH2 0x1C0 DUP5 ADD MSTORE PUSH1 0xF DUP2 ADD SLOAD PUSH2 0x1E0 DUP5 ADD MSTORE PUSH1 0x10 DUP2 ADD SLOAD PUSH2 0x200 DUP5 ADD MSTORE PUSH1 0x11 DUP2 ADD SLOAD PUSH2 0x220 DUP5 ADD MSTORE ADD SLOAD DUP3 DUP3 ADD MSTORE PUSH1 0x40 MLOAD SWAP3 DUP4 MSTORE PUSH1 0x20 DUP2 ADD MLOAD PUSH1 0x20 DUP5 ADD MSTORE PUSH1 0x40 DUP2 ADD MLOAD PUSH1 0x40 DUP5 ADD MSTORE PUSH1 0x60 DUP2 ADD MLOAD PUSH1 0x60 DUP5 ADD MSTORE PUSH1 0x80 DUP2 ADD MLOAD PUSH1 0x80 DUP5 ADD MSTORE PUSH1 0xA0 DUP2 ADD MLOAD PUSH1 0xA0 DUP5 ADD MSTORE PUSH1 0xC0 DUP2 ADD MLOAD PUSH1 0xC0 DUP5 ADD MSTORE PUSH1 0xE0 DUP2 ADD MLOAD PUSH1 0xE0 DUP5 ADD MSTORE PUSH2 0x100 DUP2 ADD MLOAD PUSH2 0x100 DUP5 ADD MSTORE PUSH2 0x120 DUP2 ADD MLOAD PUSH2 0x120 DUP5 ADD MSTORE PUSH2 0x140 DUP2 ADD MLOAD PUSH2 0x140 DUP5 ADD MSTORE PUSH2 0x160 DUP2 ADD MLOAD PUSH2 0x160 DUP5 ADD MSTORE PUSH2 0x180 DUP2 ADD MLOAD PUSH2 0x180 DUP5 ADD MSTORE PUSH2 0x1A0 DUP2 ADD MLOAD PUSH2 0x1A0 DUP5 ADD MSTORE PUSH2 0x1C0 DUP2 ADD MLOAD PUSH2 0x1C0 DUP5 ADD MSTORE PUSH2 0x1E0 DUP2 ADD MLOAD PUSH2 0x1E0 DUP5 ADD MSTORE PUSH2 0x200 DUP2 ADD MLOAD PUSH2 0x200 DUP5 ADD MSTORE PUSH2 0x220 DUP2 ADD MLOAD PUSH2 0x220 DUP5 ADD MSTORE ADD MLOAD PUSH2 0x240 DUP3 ADD MSTORE RETURN JUMPDEST CALLVALUE PUSH2 0x14C JUMPI PUSH2 0x9AB CALLDATASIZE PUSH2 0xE5A JUMP JUMPDEST SWAP1 PUSH0 MSTORE PUSH1 0x2 PUSH1 0x20 MSTORE PUSH1 0x40 PUSH0 KECCAK256 SWAP1 PUSH0 MSTORE PUSH1 0x20 MSTORE PUSH1 0x12 PUSH1 0xF PUSH1 0xE PUSH1 0xD PUSH1 0xC PUSH1 0xB PUSH1 0xA PUSH1 0x9 PUSH1 0x8 PUSH1 0x7 PUSH1 0x6 PUSH1 0x5 PUSH1 0x4 PUSH1 0x3 PUSH1 0x40 PUSH0 KECCAK256 SWAP14 DUP15 SWAP14 DUP15 SWAP14 DUP15 SWAP14 DUP15 SWAP14 DUP15 SWAP14 DUP15 SWAP14 DUP15 SWAP14 DUP15 SWAP14 DUP15 SWAP14 DUP15 SWAP14 DUP15 SWAP14 DUP15 SWAP14 DUP15 SWAP14 DUP15 SLOAD SWAP15 PUSH1 0x1 DUP2 ADD SLOAD PUSH2 0x100 MSTORE PUSH1 0x2 DUP2 ADD SLOAD PUSH2 0x120 MSTORE ADD SLOAD SWAP15 ADD SLOAD SWAP15 ADD SLOAD SWAP15 ADD SLOAD SWAP15 ADD SLOAD SWAP15 ADD SLOAD SWAP15 ADD SLOAD SWAP15 ADD SLOAD SWAP15 ADD SLOAD SWAP15 ADD SLOAD SWAP15 ADD SLOAD SWAP15 ADD SLOAD SWAP15 ADD SLOAD SWAP15 PUSH1 0x10 DUP2 ADD SLOAD PUSH1 0x80 MSTORE PUSH1 0x11 DUP2 ADD SLOAD PUSH1 0xC0 MSTORE ADD SLOAD PUSH1 0xE0 MSTORE PUSH1 0x40 MLOAD PUSH1 0xA0 MSTORE PUSH1 0xA0 MLOAD MSTORE PUSH2 0x100 MLOAD PUSH1 0x20 PUSH1 0xA0 MLOAD ADD MSTORE PUSH2 0x120 MLOAD PUSH1 0x40 PUSH1 0xA0 MLOAD ADD MSTORE PUSH1 0x60 PUSH1 0xA0 MLOAD ADD MSTORE PUSH1 0x80 PUSH1 0xA0 MLOAD ADD MSTORE PUSH1 0xA0 DUP1 MLOAD ADD MSTORE PUSH1 0xC0 PUSH1 0xA0 MLOAD ADD MSTORE PUSH1 0xE0 PUSH1 0xA0 MLOAD ADD MSTORE PUSH2 0x100 PUSH1 0xA0 MLOAD ADD MSTORE PUSH2 0x120 PUSH1 0xA0 MLOAD ADD MSTORE PUSH2 0x140 PUSH1 0xA0 MLOAD ADD MSTORE PUSH2 0x160 PUSH1 0xA0 MLOAD ADD MSTORE PUSH2 0x180 PUSH1 0xA0 MLOAD ADD MSTORE PUSH2 0x1A0 PUSH1 0xA0 MLOAD ADD MSTORE PUSH2 0x1C0 PUSH1 0xA0 MLOAD ADD MSTORE PUSH2 0x1E0 PUSH1 0xA0 MLOAD ADD MSTORE PUSH1 0x80 MLOAD PUSH2 0x200 PUSH1 0xA0 MLOAD ADD MSTORE PUSH1 0xC0 MLOAD PUSH2 0x220 PUSH1 0xA0 MLOAD ADD MSTORE PUSH1 0xE0 MLOAD PUSH2 0x240 PUSH1 0xA0 MLOAD ADD MSTORE PUSH2 0x260 PUSH1 0xA0 MLOAD RETURN JUMPDEST CALLVALUE PUSH2 0x14C JUMPI PUSH1 0xC0 CALLDATASIZE PUSH1 0x3 NOT ADD SLT PUSH2 0x14C JUMPI PUSH1 0x24 CALLDATALOAD PUSH8 0xFFFFFFFFFFFFFFFF DUP2 GT PUSH2 0x14C JUMPI CALLDATASIZE PUSH1 0x23 DUP3 ADD SLT ISZERO PUSH2 0x14C JUMPI PUSH8 0xFFFFFFFFFFFFFFFF DUP2 PUSH1 0x4 ADD CALLDATALOAD GT PUSH2 0x14C JUMPI CALLDATASIZE PUSH1 0x24 DUP3 PUSH1 0x4 ADD CALLDATALOAD DUP4 ADD ADD GT PUSH2 0x14C JUMPI PUSH1 0xF PUSH1 0x44 CALLDATALOAD LT ISZERO PUSH2 0x14C JUMPI PUSH1 0xA4 CALLDATALOAD DUP1 ISZERO ISZERO DUP2 SUB PUSH2 0x14C JUMPI PUSH0 SLOAD PUSH1 0x1 PUSH1 0x1 PUSH1 0xA0 SHL SUB AND CALLER EQ DUP1 ISZERO PUSH2 0xE16 JUMPI JUMPDEST ISZERO PUSH2 0x317 JUMPI PUSH1 0x4 CALLDATALOAD ISZERO PUSH2 0x2F2 JUMPI DUP2 PUSH1 0x4 ADD CALLDATALOAD ISZERO PUSH2 0x2F2 JUMPI PUSH1 0x44 CALLDATALOAD ISZERO PUSH2 0x2F2 JUMPI PUSH1 0x84 CALLDATALOAD ISZERO PUSH2 0x2F2 JUMPI PUSH1 0x40 MLOAD SWAP1 PUSH2 0xBA4 DUP3 PUSH2 0xEBE JUMP JUMPDEST PUSH1 0x4 CALLDATALOAD DUP3 MSTORE PUSH1 0x20 SWAP1 PUSH1 0x40 MLOAD SWAP3 PUSH2 0xBC7 DUP4 PUSH1 0x1F NOT PUSH1 0x1F DUP9 PUSH1 0x4 ADD CALLDATALOAD ADD AND ADD DUP6 PUSH2 0xEF7 JUMP JUMPDEST PUSH1 0x4 DUP6 ADD CALLDATALOAD DUP1 DUP6 MSTORE PUSH1 0x24 DUP7 ADD DUP5 DUP7 ADD CALLDATACOPY PUSH0 DUP4 DUP7 PUSH1 0x4 ADD CALLDATALOAD DUP7 ADD ADD MSTORE DUP3 DUP2 ADD SWAP4 DUP5 MSTORE PUSH1 0x40 DUP2 ADD SWAP1 PUSH2 0xBF9 PUSH1 0x44 CALLDATALOAD DUP4 PUSH2 0x1006 JUMP JUMPDEST PUSH1 0x60 DUP2 ADD SWAP5 PUSH1 0x64 CALLDATALOAD DUP7 MSTORE PUSH1 0x80 DUP3 ADD SWAP1 PUSH1 0x84 CALLDATALOAD DUP3 MSTORE PUSH1 0xA0 DUP4 ADD SWAP1 DUP6 ISZERO ISZERO DUP3 MSTORE PUSH1 0x4 CALLDATALOAD PUSH0 MSTORE PUSH1 0x1 DUP1 DUP9 MSTORE PUSH1 0x40 PUSH0 KECCAK256 SWAP5 MLOAD DUP6 SSTORE DUP1 DUP6 ADD SWAP2 MLOAD DUP1 MLOAD SWAP1 PUSH8 0xFFFFFFFFFFFFFFFF DUP3 GT PUSH2 0xE02 JUMPI PUSH2 0xC4A DUP5 SLOAD PUSH2 0xE86 JUMP JUMPDEST PUSH1 0x1F DUP2 GT PUSH2 0xDBC JUMPI JUMPDEST POP DUP10 SWAP1 PUSH1 0x1F DUP4 GT PUSH1 0x1 EQ PUSH2 0xD5B JUMPI SWAP3 DUP3 SWAP4 SWAP2 DUP4 SWAP3 PUSH0 SWAP5 PUSH2 0xD50 JUMPI JUMPDEST POP POP SHL SWAP2 PUSH0 NOT SWAP1 PUSH1 0x3 SHL SHR NOT AND OR SWAP1 SSTORE JUMPDEST PUSH1 0x2 DUP4 ADD SWAP4 MLOAD SWAP2 PUSH1 0xF DUP4 LT ISZERO PUSH2 0x5D8 JUMPI PUSH32 0x17B9B83355EAFB5421EB106AD941C05A17F21D328C0F9A21F582939CA6C2177E SWAP8 PUSH2 0xCE6 SWAP6 PUSH1 0x5 SWAP5 PUSH1 0xFF DUP1 NOT DUP4 SLOAD AND SWAP2 AND OR SWAP1 SSTORE MLOAD PUSH1 0x3 DUP6 ADD SSTORE MLOAD PUSH1 0x4 DUP5 ADD SSTORE MLOAD ISZERO ISZERO SWAP2 ADD SWAP1 PUSH1 0xFF DUP1 NOT DUP4 SLOAD AND SWAP2 ISZERO ISZERO AND OR SWAP1 SSTORE JUMP JUMPDEST PUSH2 0xD1F PUSH1 0x40 MLOAD SWAP3 PUSH1 0xA0 DUP5 MSTORE DUP6 PUSH1 0x4 ADD CALLDATALOAD PUSH1 0xA0 DUP6 ADD MSTORE DUP6 PUSH1 0x4 ADD CALLDATALOAD PUSH1 0x24 DUP8 ADD PUSH1 0xC0 DUP7 ADD CALLDATACOPY PUSH0 PUSH1 0xC0 DUP8 PUSH1 0x4 ADD CALLDATALOAD DUP7 ADD ADD MSTORE DUP4 ADD PUSH1 0x44 CALLDATALOAD PUSH2 0xFF9 JUMP JUMPDEST PUSH1 0x64 CALLDATALOAD PUSH1 0x40 DUP4 ADD MSTORE PUSH1 0x84 CALLDATALOAD PUSH1 0x60 DUP4 ADD MSTORE ISZERO ISZERO PUSH1 0x80 DUP3 ADD MSTORE PUSH1 0x4 DUP1 CALLDATALOAD SWAP4 ADD CALLDATALOAD PUSH1 0x1F ADD PUSH1 0x1F NOT AND DUP2 ADD DUP2 SWAP1 SUB PUSH1 0xC0 ADD SWAP1 LOG2 STOP JUMPDEST ADD MLOAD SWAP3 POP DUP14 DUP1 PUSH2 0xC6E JUMP JUMPDEST SWAP1 PUSH1 0x1F NOT DUP4 AND SWAP2 DUP6 PUSH0 MSTORE DUP4 DUP13 PUSH0 KECCAK256 SWAP4 DUP14 PUSH0 SWAP1 JUMPDEST DUP9 DUP4 DUP4 LT PUSH2 0xDA4 JUMPI POP POP POP LT PUSH2 0xD8C JUMPI JUMPDEST POP POP POP DUP2 SHL ADD SWAP1 SSTORE PUSH2 0xC7F JUMP JUMPDEST ADD MLOAD PUSH0 NOT PUSH1 0xF8 DUP5 PUSH1 0x3 SHL AND SHR NOT AND SWAP1 SSTORE DUP12 DUP1 DUP1 PUSH2 0xD7F JUMP JUMPDEST DUP7 DUP7 ADD MLOAD DUP9 SSTORE SWAP1 SWAP7 ADD SWAP6 SWAP5 DUP6 ADD SWAP5 DUP8 SWAP4 POP ADD DUP15 PUSH2 0xD6E JUMP JUMPDEST DUP5 PUSH0 MSTORE DUP11 PUSH0 KECCAK256 PUSH1 0x1F DUP5 ADD PUSH1 0x5 SHR DUP2 ADD SWAP2 DUP13 DUP6 LT PUSH2 0xDF8 JUMPI JUMPDEST PUSH1 0x1F ADD PUSH1 0x5 SHR ADD SWAP1 DUP5 SWAP1 JUMPDEST DUP3 DUP2 LT PUSH2 0xDED JUMPI POP POP PUSH2 0xC53 JUMP JUMPDEST PUSH0 DUP2 SSTORE ADD DUP5 SWAP1 PUSH2 0xDDF JUMP JUMPDEST SWAP1 SWAP2 POP DUP2 SWAP1 PUSH2 0xDD4 JUMP JUMPDEST PUSH4 0x4E487B71 PUSH1 0xE0 SHL PUSH0 MSTORE PUSH1 0x41 PUSH1 0x4 MSTORE PUSH1 0x24 PUSH0 REVERT JUMPDEST POP CALLER PUSH0 MSTORE PUSH1 0x3 PUSH1 0x20 MSTORE PUSH1 0xFF PUSH1 0x40 PUSH0 KECCAK256 SLOAD AND PUSH2 0xB70 JUMP JUMPDEST CALLVALUE PUSH2 0x14C JUMPI PUSH1 0x20 CALLDATASIZE PUSH1 0x3 NOT ADD SLT PUSH2 0x14C JUMPI PUSH1 0x20 SWAP1 PUSH1 0x4 CALLDATALOAD PUSH0 MSTORE PUSH1 0x1 DUP3 MSTORE PUSH1 0xFF PUSH1 0x5 PUSH1 0x40 PUSH0 KECCAK256 ADD SLOAD AND ISZERO ISZERO DUP2 MSTORE RETURN JUMPDEST PUSH1 0x40 SWAP1 PUSH1 0x3 NOT ADD SLT PUSH2 0x14C JUMPI PUSH1 0x4 CALLDATALOAD SWAP1 PUSH1 0x24 CALLDATALOAD SWAP1 JUMP JUMPDEST PUSH1 0x4 CALLDATALOAD SWAP1 PUSH1 0x1 PUSH1 0x1 PUSH1 0xA0 SHL SUB DUP3 AND DUP3 SUB PUSH2 0x14C JUMPI JUMP JUMPDEST SWAP1 PUSH1 0x1 DUP3 DUP2 SHR SWAP3 AND DUP1 ISZERO PUSH2 0xEB4 JUMPI JUMPDEST PUSH1 0x20 DUP4 LT EQ PUSH2 0xEA0 JUMPI JUMP JUMPDEST PUSH4 0x4E487B71 PUSH1 0xE0 SHL PUSH0 MSTORE PUSH1 0x22 PUSH1 0x4 MSTORE PUSH1 0x24 PUSH0 REVERT JUMPDEST SWAP2 PUSH1 0x7F AND SWAP2 PUSH2 0xE95 JUMP JUMPDEST PUSH1 0xC0 DUP2 ADD SWAP1 DUP2 LT PUSH8 0xFFFFFFFFFFFFFFFF DUP3 GT OR PUSH2 0xE02 JUMPI PUSH1 0x40 MSTORE JUMP JUMPDEST PUSH2 0x260 DUP2 ADD SWAP1 DUP2 LT PUSH8 0xFFFFFFFFFFFFFFFF DUP3 GT OR PUSH2 0xE02 JUMPI PUSH1 0x40 MSTORE JUMP JUMPDEST SWAP1 PUSH1 0x1F DUP1 NOT SWAP2 ADD AND DUP2 ADD SWAP1 DUP2 LT PUSH8 0xFFFFFFFFFFFFFFFF DUP3 GT OR PUSH2 0xE02 JUMPI PUSH1 0x40 MSTORE JUMP JUMPDEST SWAP1 PUSH1 0x40 MLOAD SWAP2 DUP3 PUSH0 DUP3 SLOAD PUSH2 0xF2B DUP2 PUSH2 0xE86 JUMP JUMPDEST SWAP1 DUP2 DUP5 MSTORE PUSH1 0x20 SWAP5 PUSH1 0x1 SWAP2 PUSH1 0x1 DUP2 AND SWAP1 DUP2 PUSH0 EQ PUSH2 0xF99 JUMPI POP PUSH1 0x1 EQ PUSH2 0xF5B JUMPI JUMPDEST POP POP POP PUSH2 0xF59 SWAP3 POP SUB DUP4 PUSH2 0xEF7 JUMP JUMPDEST JUMP JUMPDEST PUSH0 SWAP1 DUP2 MSTORE DUP6 DUP2 KECCAK256 SWAP6 SWAP4 POP SWAP2 SWAP1 JUMPDEST DUP2 DUP4 LT PUSH2 0xF81 JUMPI POP POP PUSH2 0xF59 SWAP4 POP DUP3 ADD ADD PUSH0 DUP1 DUP1 PUSH2 0xF4A JUMP JUMPDEST DUP6 SLOAD DUP9 DUP5 ADD DUP6 ADD MSTORE SWAP5 DUP6 ADD SWAP5 DUP8 SWAP5 POP SWAP2 DUP4 ADD SWAP2 PUSH2 0xF68 JUMP JUMPDEST SWAP3 POP POP POP PUSH2 0xF59 SWAP5 SWAP3 POP PUSH1 0xFF NOT AND DUP3 DUP5 ADD MSTORE ISZERO ISZERO PUSH1 0x5 SHL DUP3 ADD ADD PUSH0 DUP1 DUP1 PUSH2 0xF4A JUMP JUMPDEST SWAP2 SWAP1 DUP3 MLOAD SWAP3 DUP4 DUP3 MSTORE PUSH0 JUMPDEST DUP5 DUP2 LT PUSH2 0xFE5 JUMPI POP POP DUP3 PUSH0 PUSH1 0x20 DUP1 SWAP5 SWAP6 DUP5 ADD ADD MSTORE PUSH1 0x1F DUP1 NOT SWAP2 ADD AND ADD ADD SWAP1 JUMP JUMPDEST PUSH1 0x20 DUP2 DUP4 ADD DUP2 ADD MLOAD DUP5 DUP4 ADD DUP3 ADD MSTORE ADD PUSH2 0xFC5 JUMP JUMPDEST SWAP1 PUSH1 0xF DUP3 LT ISZERO PUSH2 0x5D8 JUMPI MSTORE JUMP JUMPDEST PUSH1 0xF DUP3 LT ISZERO PUSH2 0x5D8 JUMPI MSTORE JUMP JUMPDEST PUSH0 MSTORE PUSH1 0x1 PUSH1 0x20 MSTORE PUSH1 0x40 PUSH0 KECCAK256 PUSH1 0x40 MLOAD PUSH2 0x1029 DUP2 PUSH2 0xEBE JUMP JUMPDEST DUP2 SLOAD DUP2 MSTORE PUSH2 0x1039 PUSH1 0x1 DUP4 ADD PUSH2 0xF19 JUMP JUMPDEST PUSH1 0x20 DUP3 ADD MSTORE PUSH2 0x1052 PUSH1 0xFF PUSH1 0x2 DUP5 ADD SLOAD AND PUSH1 0x40 DUP4 ADD PUSH2 0x1006 JUMP JUMPDEST PUSH1 0x3 DUP3 ADD SLOAD PUSH1 0x60 DUP3 ADD MSTORE PUSH1 0xFF PUSH1 0x5 PUSH1 0x4 DUP5 ADD SLOAD SWAP4 DUP5 PUSH1 0x80 DUP6 ADD MSTORE ADD SLOAD AND ISZERO SWAP1 DUP2 ISZERO PUSH1 0xA0 DUP3 ADD MSTORE MLOAD ISZERO PUSH2 0x10AB JUMPI PUSH2 0x10A5 JUMPI DUP2 ISZERO SWAP2 DUP3 ISZERO PUSH2 0x109B JUMPI JUMPDEST POP POP PUSH2 0x1097 JUMPI PUSH1 0x1 SWAP1 JUMP JUMPDEST PUSH0 SWAP1 JUMP JUMPDEST GT SWAP1 POP PUSH0 DUP1 PUSH2 0x108C JUMP JUMPDEST POP POP PUSH0 SWAP1 JUMP JUMPDEST POP POP POP PUSH0 SWAP1 JUMP JUMPDEST PUSH0 SLOAD PUSH1 0x1 PUSH1 0x1 PUSH1 0xA0 SHL SUB AND CALLER SUB PUSH2 0x10C5 JUMPI JUMP JUMPDEST PUSH1 0x40 MLOAD PUSH4 0x118CDAA7 PUSH1 0xE0 SHL DUP2 MSTORE CALLER PUSH1 0x4 DUP3 ADD MSTORE PUSH1 0x24 SWAP1 REVERT INVALID LOG2 PUSH5 0x6970667358 0x22 SLT KECCAK256 PUSH16 0x794DFBDD955796A033C1FC1E8F5AA6AB 0xD5 DUP16 ADDMOD 0x4D JUMPI 0xE4 0xBF PUSH8 0xCE77CDFD01CC3064 PUSH20 0x6F6C634300081800330000000000000000000000 "},"methodIdentifiers":{"authorizedCallers(address)":"536fff6c","enchantmentBonusesOf(uint256,uint256)":"10a950c1","enchantmentDefinitionOf(uint256)":"479b9157","enchantmentExists(uint256)":"95828902","getEnchantmentBonuses(uint256,uint256)":"2d36406b","getEnchantmentDefinition(uint256)":"909bac13","getEnchantmentMeta(uint256)":"60756c91","isEnchantmentEnabled(uint256)":"097c8c1b","isEnchantmentUsable(uint256,uint256)":"addf1f16","owner()":"8da5cb5b","renounceOwnership()":"715018a6","setAuthorizedCaller(address,bool)":"454bbd29","setEnchantmentBonuses(uint256,uint256,(int256,int256,int256,int256,int256,int256,int256,int256,int256,int256,int256,int256,int256,int256,int256,int256,int256,int256,int256))":"e8acc589","setEnchantmentDefinition(uint256,string,uint8,uint256,uint256,bool)":"0de5c2de","transferOwnership(address)":"f2fde38b"}}}}}