{"project/contracts/crafting/CityWeaponSockets.sol":{"CityWeaponSockets":{"abi":[{"inputs":[{"internalType":"address","name":"initialOwner","type":"address"},{"internalType":"address","name":"cityWeaponsAddress","type":"address"},{"internalType":"address","name":"cityEnchantmentsAddress","type":"address"},{"internalType":"address","name":"cityMateriaAddress","type":"address"}],"stateMutability":"nonpayable","type":"constructor"},{"inputs":[],"name":"InvalidValue","type":"error"},{"inputs":[],"name":"NotAuthorized","type":"error"},{"inputs":[{"internalType":"address","name":"owner","type":"address"}],"name":"OwnableInvalidOwner","type":"error"},{"inputs":[{"internalType":"address","name":"account","type":"address"}],"name":"OwnableUnauthorizedAccount","type":"error"},{"inputs":[],"name":"ZeroAddress","type":"error"},{"anonymous":false,"inputs":[{"indexed":true,"internalType":"address","name":"caller","type":"address"},{"indexed":false,"internalType":"bool","name":"allowed","type":"bool"}],"name":"AuthorizedCallerSet","type":"event"},{"anonymous":false,"inputs":[{"indexed":true,"internalType":"uint256","name":"tokenId","type":"uint256"},{"indexed":true,"internalType":"uint256","name":"slotIndex","type":"uint256"},{"indexed":true,"internalType":"uint256","name":"enchantmentId","type":"uint256"},{"indexed":false,"internalType":"uint256","name":"level","type":"uint256"}],"name":"EnchantmentAttached","type":"event"},{"anonymous":false,"inputs":[{"indexed":true,"internalType":"uint256","name":"tokenId","type":"uint256"},{"indexed":true,"internalType":"uint256","name":"slotIndex","type":"uint256"}],"name":"EnchantmentRemoved","type":"event"},{"anonymous":false,"inputs":[{"indexed":true,"internalType":"uint256","name":"tokenId","type":"uint256"},{"indexed":true,"internalType":"uint256","name":"slotIndex","type":"uint256"},{"indexed":true,"internalType":"uint256","name":"materiaId","type":"uint256"},{"indexed":false,"internalType":"uint256","name":"level","type":"uint256"}],"name":"MateriaAttached","type":"event"},{"anonymous":false,"inputs":[{"indexed":true,"internalType":"uint256","name":"tokenId","type":"uint256"},{"indexed":true,"internalType":"uint256","name":"slotIndex","type":"uint256"}],"name":"MateriaRemoved","type":"event"},{"anonymous":false,"inputs":[{"indexed":true,"internalType":"address","name":"previousOwner","type":"address"},{"indexed":true,"internalType":"address","name":"newOwner","type":"address"}],"name":"OwnershipTransferred","type":"event"},{"inputs":[{"internalType":"uint256","name":"tokenId","type":"uint256"},{"internalType":"uint256","name":"slotIndex","type":"uint256"},{"internalType":"uint256","name":"enchantmentId","type":"uint256"},{"internalType":"uint256","name":"level","type":"uint256"}],"name":"attachEnchantment","outputs":[],"stateMutability":"nonpayable","type":"function"},{"inputs":[{"internalType":"uint256","name":"tokenId","type":"uint256"},{"internalType":"uint256","name":"slotIndex","type":"uint256"},{"internalType":"uint256","name":"materiaId","type":"uint256"},{"internalType":"uint256","name":"level","type":"uint256"}],"name":"attachMateria","outputs":[],"stateMutability":"nonpayable","type":"function"},{"inputs":[{"internalType":"address","name":"","type":"address"}],"name":"authorizedCallers","outputs":[{"internalType":"bool","name":"","type":"bool"}],"stateMutability":"view","type":"function"},{"inputs":[],"name":"cityEnchantments","outputs":[{"internalType":"contract CityEnchantments","name":"","type":"address"}],"stateMutability":"view","type":"function"},{"inputs":[],"name":"cityMateria","outputs":[{"internalType":"contract CityMateria","name":"","type":"address"}],"stateMutability":"view","type":"function"},{"inputs":[],"name":"cityWeapons","outputs":[{"internalType":"contract CityWeapons","name":"","type":"address"}],"stateMutability":"view","type":"function"},{"inputs":[{"internalType":"uint256","name":"","type":"uint256"},{"internalType":"uint256","name":"","type":"uint256"}],"name":"enchantmentSlotOfWeapon","outputs":[{"internalType":"uint256","name":"enchantmentId","type":"uint256"},{"internalType":"uint256","name":"level","type":"uint256"},{"internalType":"bool","name":"occupied","type":"bool"}],"stateMutability":"view","type":"function"},{"inputs":[{"internalType":"uint256","name":"tokenId","type":"uint256"}],"name":"getAllEnchantments","outputs":[{"components":[{"internalType":"uint256","name":"enchantmentId","type":"uint256"},{"internalType":"uint256","name":"level","type":"uint256"},{"internalType":"bool","name":"occupied","type":"bool"}],"internalType":"struct CityWeaponSockets.EnchantmentSlot[]","name":"result","type":"tuple[]"}],"stateMutability":"view","type":"function"},{"inputs":[{"internalType":"uint256","name":"tokenId","type":"uint256"}],"name":"getAllMateria","outputs":[{"components":[{"internalType":"uint256","name":"materiaId","type":"uint256"},{"internalType":"uint256","name":"level","type":"uint256"},{"internalType":"bool","name":"occupied","type":"bool"}],"internalType":"struct CityWeaponSockets.MateriaSlot[]","name":"result","type":"tuple[]"}],"stateMutability":"view","type":"function"},{"inputs":[{"internalType":"uint256","name":"tokenId","type":"uint256"},{"internalType":"uint256","name":"slotIndex","type":"uint256"}],"name":"getEnchantmentAtSlot","outputs":[{"components":[{"internalType":"uint256","name":"enchantmentId","type":"uint256"},{"internalType":"uint256","name":"level","type":"uint256"},{"internalType":"bool","name":"occupied","type":"bool"}],"internalType":"struct CityWeaponSockets.EnchantmentSlot","name":"","type":"tuple"}],"stateMutability":"view","type":"function"},{"inputs":[{"internalType":"uint256","name":"tokenId","type":"uint256"},{"internalType":"uint256","name":"slotIndex","type":"uint256"}],"name":"getMateriaAtSlot","outputs":[{"components":[{"internalType":"uint256","name":"materiaId","type":"uint256"},{"internalType":"uint256","name":"level","type":"uint256"},{"internalType":"bool","name":"occupied","type":"bool"}],"internalType":"struct CityWeaponSockets.MateriaSlot","name":"","type":"tuple"}],"stateMutability":"view","type":"function"},{"inputs":[{"internalType":"uint256","name":"tokenId","type":"uint256"}],"name":"getTotalBonuses","outputs":[{"components":[{"internalType":"int256","name":"minDamageBonus","type":"int256"},{"internalType":"int256","name":"maxDamageBonus","type":"int256"},{"internalType":"int256","name":"attackSpeedBonus","type":"int256"},{"internalType":"int256","name":"critChanceBpsBonus","type":"int256"},{"internalType":"int256","name":"critMultiplierBpsBonus","type":"int256"},{"internalType":"int256","name":"accuracyBpsBonus","type":"int256"},{"internalType":"int256","name":"rangeBonus","type":"int256"},{"internalType":"int256","name":"maxDurabilityBonus","type":"int256"},{"internalType":"int256","name":"armorPenBpsBonus","type":"int256"},{"internalType":"int256","name":"blockChanceBpsBonus","type":"int256"},{"internalType":"int256","name":"lifeStealBpsBonus","type":"int256"},{"internalType":"int256","name":"energyCostBonus","type":"int256"},{"internalType":"int256","name":"heatGenerationBonus","type":"int256"},{"internalType":"int256","name":"stabilityBonus","type":"int256"},{"internalType":"int256","name":"cooldownMsBonus","type":"int256"},{"internalType":"int256","name":"projectileSpeedBonus","type":"int256"},{"internalType":"int256","name":"aoeRadiusBonus","type":"int256"},{"internalType":"int256","name":"enchantmentSlotsBonus","type":"int256"},{"internalType":"int256","name":"materiaSlotsBonus","type":"int256"}],"internalType":"struct CityWeaponSockets.TotalBonuses","name":"total","type":"tuple"}],"stateMutability":"view","type":"function"},{"inputs":[{"internalType":"uint256","name":"","type":"uint256"},{"internalType":"uint256","name":"","type":"uint256"}],"name":"materiaSlotOfWeapon","outputs":[{"internalType":"uint256","name":"materiaId","type":"uint256"},{"internalType":"uint256","name":"level","type":"uint256"},{"internalType":"bool","name":"occupied","type":"bool"}],"stateMutability":"view","type":"function"},{"inputs":[],"name":"owner","outputs":[{"internalType":"address","name":"","type":"address"}],"stateMutability":"view","type":"function"},{"inputs":[{"internalType":"uint256","name":"tokenId","type":"uint256"},{"internalType":"uint256","name":"slotIndex","type":"uint256"}],"name":"removeEnchantment","outputs":[],"stateMutability":"nonpayable","type":"function"},{"inputs":[{"internalType":"uint256","name":"tokenId","type":"uint256"},{"internalType":"uint256","name":"slotIndex","type":"uint256"}],"name":"removeMateria","outputs":[],"stateMutability":"nonpayable","type":"function"},{"inputs":[],"name":"renounceOwnership","outputs":[],"stateMutability":"nonpayable","type":"function"},{"inputs":[{"internalType":"address","name":"caller","type":"address"},{"internalType":"bool","name":"allowed","type":"bool"}],"name":"setAuthorizedCaller","outputs":[],"stateMutability":"nonpayable","type":"function"},{"inputs":[{"internalType":"address","name":"newOwner","type":"address"}],"name":"transferOwnership","outputs":[],"stateMutability":"nonpayable","type":"function"}],"evm":{"bytecode":{"linkReferences":{},"object":"60e0346200019e57601f62001c9538819003918201601f19168301916001600160401b03831184841017620001a2578084926080946040528339810103126200019e576200004d81620001b6565b906200005c60208201620001b6565b906200007960606200007160408401620001b6565b9201620001b6565b6001600160a01b0393909290841690811562000186575f80546001600160a01b03198116841782556040519387939290918416907f8be0079c531659141344cd1fd0a4f28419497f9722a3daafe3b4186f6b6457e09080a31690811580156200017b575b801562000170575b620001615750608052821660a0521660c052604051611ac99081620001cc82396080518181816101ad015281816103c501528181610aed01528181610c2301528181610e490152611359015260a05181818161046d01528181610ec601526112a5015260c05181818161072901528181610ca0015261106c0152f35b63d92e233d60e01b8152600490fd5b5084841615620000e5565b5084831615620000dd565b604051631e4fbdf760e01b81525f6004820152602490fd5b5f80fd5b634e487b7160e01b5f52604160045260245ffd5b51906001600160a01b03821682036200019e5756fe6080806040526004361015610012575f80fd5b5f3560e01c90816309cd17331461132b575080630d8995d8146112d45780630f08103014611290578063172c8470146112095780631ae9e7de146111d2578063256740de14611177578063454bbd29146110d8578063536fff6c1461109b5780635e8f1b7c14611057578063715018a614611000578063744c22aa14610e02578063755a968114610bdc5780637bf5548114610b435780638da5cb5b14610b1c578063ccde8c8614610ad8578063dcae5c5d14610a7c578063e4551bf31461030b578063e6d8dbe41461017b5763f2fde38b146100ed575f80fd5b34610177576020366003190112610177576101066114a4565b61010e611a68565b6001600160a01b0390811690811561015f575f54826bffffffffffffffffffffffff60a01b8216175f55167f8be0079c531659141344cd1fd0a4f28419497f9722a3daafe3b4186f6b6457e05f80a3005b604051631e4fbdf760e01b81525f6004820152602490fd5b5f80fd5b3461017757602080600319360112610177576040516363ff228760e01b81526004803590820181905291905f816024817f00000000000000000000000000000000000000000000000000000000000000006001600160a01b03165afa801561030057610320915f916102dc575b5001908151926102106101fa8561197f565b946102086040519687611525565b80865261197f565b601f1901825f5b8281106102c6575050505f5b835181101561026757600190825f526003845260405f20815f52845261024b60405f206119dd565b61025582886119b5565b5261026081876119b5565b5001610223565b60408051848152865181860181905287860192820190865f5b82811061028d5784840385f35b909192826060826102b76001948a5160408091805184526020810151602085015201511515910152565b01960191019492919094610280565b6102ce611997565b828289010152018390610217565b6102f891503d805f833e6102f08183611525565b8101906116a1565b5050846101e8565b6040513d5f823e3d90fd5b346101775760203660031901126101775760405161032881611508565b5f81525f60208201525f60408201525f60608201525f60808201525f60a08201525f60c08201525f60e08201525f6101008201525f6101208201525f6101408201525f6101608201525f6101808201525f6101a08201525f6101c08201525f6101e08201525f6102008201525f6102208201525f6102408201526040516363ff228760e01b815260043560048201525f8160248160018060a01b037f0000000000000000000000000000000000000000000000000000000000000000165afa908115610300575f91610a60575b505f5b6103008201518110156106ba576004355f52600260205260405f20815f5260205261042560405f206119dd565b90604082015161043a575b60019150016103f8565b8151602090920151604051632d36406b60e01b815260048101939093526024830152610260826044816001600160a01b037f0000000000000000000000000000000000000000000000000000000000000000165afa918215610300575f92610672575b50610667610240836104b3600195518851611a39565b87526104c760208201516020890151611a39565b60208801526104de60408201516040890151611a39565b60408801526104f560608201516060890151611a39565b606088015261050c60808201516080890151611a39565b608088015261052360a082015160a0890151611a39565b60a088015261053a60c082015160c0890151611a39565b60c088015261055160e082015160e0890151611a39565b60e088015261056a610100820151610100890151611a39565b610100880152610584610120820151610120890151611a39565b61012088015261059e610140820151610140890151611a39565b6101408801526105b8610160820151610160890151611a39565b6101608801526105d2610180820151610180890151611a39565b6101808801526105ec6101a08201516101a0890151611a39565b6101a08801526106066101c08201516101c0890151611a39565b6101c08801526106206101e08201516101e0890151611a39565b6101e088015261063a610200820151610200890151611a39565b610200880152610654610220820151610220890151611a39565b6102208801520151610240860151611a39565b610240850152610430565b91506102603d610260116106b3575b61068b8184611525565b82019161026081840312610177576102406106ab600194610667936115c2565b93505061049d565b503d610681565b505f5b610320820151811015610989576004355f52600360205260405f20815f526020526106ea60405f206119dd565b60408101516106fd575b506001016106bd565b8051602090910151604051631a09c5e960e01b81526004810192909252602482015290610260826044817f00000000000000000000000000000000000000000000000000000000000000006001600160a01b03165afa918215610300575f9261093c575b5060019061092f6102408461077b61032096518951611a39565b885261078f602082015160208a0151611a39565b60208901526107a6604082015160408a0151611a39565b60408901526107bd606082015160608a0151611a39565b60608901526107d4608082015160808a0151611a39565b60808901526107eb60a082015160a08a0151611a39565b60a089015261080260c082015160c08a0151611a39565b60c089015261081960e082015160e08a0151611a39565b60e08901526108326101008201516101008a0151611a39565b61010089015261084c6101208201516101208a0151611a39565b6101208901526108666101408201516101408a0151611a39565b6101408901526108806101608201516101608a0151611a39565b61016089015261089a6101808201516101808a0151611a39565b6101808901526108b46101a08201516101a08a0151611a39565b6101a08901526108ce6101c08201516101c08a0151611a39565b6101c08901526108e86101e08201516101e08a0151611a39565b6101e08901526109026102008201516102008a0151611a39565b61020089015261091c6102208201516102208a0151611a39565b6102208901520151610240870151611a39565b61024086015291506106f4565b91506102603d61026011610982575b6109558184611525565b820190610260838303126101775761092f610240610978600194610320966115c2565b9450505090610761565b503d61094b565b6102608361024060405191805183526020810151602084015260408101516040840152606081015160608401526080810151608084015260a081015160a084015260c081015160c084015260e081015160e08401526101008101516101008401526101208101516101208401526101408101516101408401526101608101516101608401526101808101516101808401526101a08101516101a08401526101c08101516101c08401526101e08101516101e08401526102008101516102008401526102208101516102208401520151610240820152f35b610a7491503d805f833e6102f08183611525565b5050826103f5565b3461017757610a8a3661148e565b90610a93611997565b505f52600360205260405f20905f526020526060610ab360405f206119dd565b610ad6604051809260408091805184526020810151602085015201511515910152565bf35b34610177575f366003190112610177576040517f00000000000000000000000000000000000000000000000000000000000000006001600160a01b03168152602090f35b34610177575f366003190112610177575f546040516001600160a01b039091168152602090f35b3461017757610b513661148e565b9060018060a01b035f541633148015610bc6575b15610bb457805f52600360205260405f20825f526020525f60026040822082815582600182015501557f5592a082ab8786e2d26123b5746de918a2dee59ee6256a5c582e50ebd6bb2da85f80a3005b60405163ea8e4eb560e01b8152600490fd5b50335f52600160205260ff60405f205416610b65565b3461017757610bea366114ba565b5f549193916001600160a01b0390811633148015610dec575b15610bb4576040516363ff228760e01b8152600481018490525f816024817f000000000000000000000000000000000000000000000000000000000000000086165afa801561030057610320915f91610dd0575b500151841015610d4857825f526020906003825260405f20855f52825260ff600260405f20015416610d48575f60249160405192838092634f43792560e01b82528a60048301527f0000000000000000000000000000000000000000000000000000000000000000165afa8015610300575f915f91610d64575b5015610d48578215908115610d5a575b50610d48577fa6c0ccbd1b69f572d39c65693694251bcd7129431e952638ad4bb18495ff510891610d3f604051610d17816114d8565b878152828482015260016040820152855f526003845260405f20875f52845260405f20611a0a565b604051908152a4005b604051632a9ffab760e21b8152600490fd5b9050821186610ce1565b9150503d805f833e610d768183611525565b810160c0828203126101775781519067ffffffffffffffff821161017757610d9f918301611547565b50600882820151101561017757600c6040820151101561017757610dca60a0608083015192016115b5565b87610cd1565b610de491503d805f833e6102f08183611525565b505087610c57565b50335f52600160205260ff60405f205416610c03565b3461017757610e10366114ba565b5f549193916001600160a01b0390811633148015610fea575b15610bb4576040516363ff228760e01b8152600481018490525f816024817f000000000000000000000000000000000000000000000000000000000000000086165afa801561030057610300915f91610fce575b500151841015610d4857825f526020906002825260405f20855f52825260ff600260405f20015416610d48575f602491604051928380926360756c9160e01b82528a60048301527f0000000000000000000000000000000000000000000000000000000000000000165afa8015610300575f915f91610f6f575b5015610d48578215908115610f65575b50610d48577fef5c3094fe44494165d3e838f078d86149ff1cbb056ff4027de8410d5be155ec91610d3f604051610f3d816114d8565b878152828482015260016040820152855f526002845260405f20875f52845260405f20611a0a565b9050821186610f07565b9150503d805f833e610f818183611525565b810160a0828203126101775781519067ffffffffffffffff821161017757610faa918301611547565b50600f82820151101561017757610fc86080606083015192016115b5565b87610ef7565b610fe291503d805f833e6102f08183611525565b505087610e7d565b50335f52600160205260ff60405f205416610e29565b34610177575f36600319011261017757611018611a68565b5f80546001600160a01b0319811682556001600160a01b03167f8be0079c531659141344cd1fd0a4f28419497f9722a3daafe3b4186f6b6457e08280a3005b34610177575f366003190112610177576040517f00000000000000000000000000000000000000000000000000000000000000006001600160a01b03168152602090f35b34610177576020366003190112610177576001600160a01b036110bc6114a4565b165f526001602052602060ff60405f2054166040519015158152f35b34610177576040366003190112610177576110f16114a4565b602435908115159081830361017757611108611a68565b6001600160a01b0316918215611165577f1eff62a53441c7d0125c22f2a9a324e206b34efa41e19469d7efb9bb703d21a39161115c602092855f526001845260405f209060ff801983541691151516179055565b604051908152a2005b60405163d92e233d60e01b8152600490fd5b34610177576111853661148e565b905f52600260205260405f20905f5260205260405f2080546111ce60ff600260018501549401541660405193849384919260409194936060840195845260208401521515910152565b0390f35b34610177576111e03661148e565b906111e9611997565b505f52600260205260405f20905f526020526060610ab360405f206119dd565b34610177576112173661148e565b9060018060a01b035f54163314801561127a575b15610bb457805f52600260205260405f20825f526020525f60026040822082815582600182015501557ff442f8c380fe82b2f70945dd78ca935470f64b8a4d683de2a8df39c28054cb4d5f80a3005b50335f52600160205260ff60405f20541661122b565b34610177575f366003190112610177576040517f00000000000000000000000000000000000000000000000000000000000000006001600160a01b03168152602090f35b34610177576112e23661148e565b905f52600360205260405f20905f5260205260405f2080546111ce60ff600260018501549401541660405193849384919260409194936060840195845260208401521515910152565b3461017757602080600319360112610177576363ff228760e01b825260048035908301819052915f816024817f00000000000000000000000000000000000000000000000000000000000000006001600160a01b03165afa801561030057610300915f91611472575b5001908151926113a66101fa8561197f565b601f1901825f5b82811061145c575050505f5b83518110156113fd57600190825f526002845260405f20815f5284526113e160405f206119dd565b6113eb82886119b5565b526113f681876119b5565b50016113b9565b60408051848152865181860181905287860192820190865f5b8281106114235784840385f35b9091928260608261144d6001948a5160408091805184526020810151602085015201511515910152565b01960191019492919094611416565b611464611997565b8282890101520183906113ad565b61148691503d805f833e6102f08183611525565b505084611394565b6040906003190112610177576004359060243590565b600435906001600160a01b038216820361017757565b60809060031901126101775760043590602435906044359060643590565b6060810190811067ffffffffffffffff8211176114f457604052565b634e487b7160e01b5f52604160045260245ffd5b610260810190811067ffffffffffffffff8211176114f457604052565b90601f8019910116810190811067ffffffffffffffff8211176114f457604052565b919080601f8401121561017757825167ffffffffffffffff81116114f4576020906040519261157f83601f19601f8501160185611525565b818452828287010111610177575f5b8181106115a25750825f9394955001015290565b858101830151848201840152820161158e565b5190811515820361017757565b919082610260910312610177576040516115db81611508565b8092805182526020810151602083015260408101516040830152606081015160608301526080810151608083015260a081015160a083015260c081015160c083015260e081015160e0830152610100808201519083015261012080820151908301526101408082015190830152610160808201519083015261018080820151908301526101a080820151908301526101c080820151908301526101e080820151908301526102008082015190830152610220808201519083015261024080910151910152565b90916104a08284031261017757815167ffffffffffffffff81116101775782016103c09081818603126101775760405191820182811067ffffffffffffffff8211176114f45760405280518252602081015167ffffffffffffffff8111610177578561170e918301611547565b60208301526040810151600f8110156101775760408301526060810151600d8110156101775760608301526080810151608083015260a081015160a083015260c081015160c083015260e081015160e08301526101008101516101008301526101208101516101208301526101408101516101408301526101608101516101608301526101808101516101808301526101a08101516101a08301526101c08101516101c08301526101e08101516101e0830152610200810151610200830152610220810151610220830152610240810151610240830152610260808201519083015261028080820151908301526102a080820151908301526102c080820151908301526102e08082015190830152610300808201519083015261032080820151908301526103408082015190830152610360808201519083015261038080820151908301526118616103a08092016115b5565b9082015292610220838203601f19011261017757604051908161022081011067ffffffffffffffff610220840111176114f45761022082016040526020840151825260408401516020830152606084015160408301526080840151606083015260a0840151608083015260c084015160a083015260e084015160c083015261010084015160e08301526101208401516101008301526101408401516101208301526101608401516101408301526101808401516101608301526101a0840151600481101561017757826102409161018061197c9501526101c08601516101a08201526101e08601516101c082015261195c61020087016115b5565b6101e082015261196f61022087016115b5565b61020082015294016115c2565b90565b67ffffffffffffffff81116114f45760051b60200190565b604051906119a4826114d8565b5f6040838281528260208201520152565b80518210156119c95760209160051b010190565b634e487b7160e01b5f52603260045260245ffd5b906040516119ea816114d8565b604060ff6002839580548552600181015460208601520154161515910152565b60026040611a379380518455602081015160018501550151151591019060ff801983541691151516179055565b565b9190915f8382019384129112908015821691151617611a5457565b634e487b7160e01b5f52601160045260245ffd5b5f546001600160a01b03163303611a7b57565b60405163118cdaa760e01b8152336004820152602490fdfea2646970667358221220f06f60f39e795b2a9b709e410006b3bfb52f6a7c028ec466c0a7573c75b752b164736f6c63430008180033","opcodes":"PUSH1 0xE0 CALLVALUE PUSH3 0x19E JUMPI PUSH1 0x1F PUSH3 0x1C95 CODESIZE DUP2 SWAP1 SUB SWAP2 DUP3 ADD PUSH1 0x1F NOT AND DUP4 ADD SWAP2 PUSH1 0x1 PUSH1 0x1 PUSH1 0x40 SHL SUB DUP4 GT DUP5 DUP5 LT OR PUSH3 0x1A2 JUMPI DUP1 DUP5 SWAP3 PUSH1 0x80 SWAP5 PUSH1 0x40 MSTORE DUP4 CODECOPY DUP2 ADD SUB SLT PUSH3 0x19E JUMPI PUSH3 0x4D DUP2 PUSH3 0x1B6 JUMP JUMPDEST SWAP1 PUSH3 0x5C PUSH1 0x20 DUP3 ADD PUSH3 0x1B6 JUMP JUMPDEST SWAP1 PUSH3 0x79 PUSH1 0x60 PUSH3 0x71 PUSH1 0x40 DUP5 ADD PUSH3 0x1B6 JUMP JUMPDEST SWAP3 ADD PUSH3 0x1B6 JUMP JUMPDEST PUSH1 0x1 PUSH1 0x1 PUSH1 0xA0 SHL SUB SWAP4 SWAP1 SWAP3 SWAP1 DUP5 AND SWAP1 DUP2 ISZERO PUSH3 0x186 JUMPI PUSH0 DUP1 SLOAD PUSH1 0x1 PUSH1 0x1 PUSH1 0xA0 SHL SUB NOT DUP2 AND DUP5 OR DUP3 SSTORE PUSH1 0x40 MLOAD SWAP4 DUP8 SWAP4 SWAP3 SWAP1 SWAP2 DUP5 AND SWAP1 PUSH32 0x8BE0079C531659141344CD1FD0A4F28419497F9722A3DAAFE3B4186F6B6457E0 SWAP1 DUP1 LOG3 AND SWAP1 DUP2 ISZERO DUP1 ISZERO PUSH3 0x17B JUMPI JUMPDEST DUP1 ISZERO PUSH3 0x170 JUMPI JUMPDEST PUSH3 0x161 JUMPI POP PUSH1 0x80 MSTORE DUP3 AND PUSH1 0xA0 MSTORE AND PUSH1 0xC0 MSTORE PUSH1 0x40 MLOAD PUSH2 0x1AC9 SWAP1 DUP2 PUSH3 0x1CC DUP3 CODECOPY PUSH1 0x80 MLOAD DUP2 DUP2 DUP2 PUSH2 0x1AD ADD MSTORE DUP2 DUP2 PUSH2 0x3C5 ADD MSTORE DUP2 DUP2 PUSH2 0xAED ADD MSTORE DUP2 DUP2 PUSH2 0xC23 ADD MSTORE DUP2 DUP2 PUSH2 0xE49 ADD MSTORE PUSH2 0x1359 ADD MSTORE PUSH1 0xA0 MLOAD DUP2 DUP2 DUP2 PUSH2 0x46D ADD MSTORE DUP2 DUP2 PUSH2 0xEC6 ADD MSTORE PUSH2 0x12A5 ADD MSTORE PUSH1 0xC0 MLOAD DUP2 DUP2 DUP2 PUSH2 0x729 ADD MSTORE DUP2 DUP2 PUSH2 0xCA0 ADD MSTORE PUSH2 0x106C ADD MSTORE RETURN JUMPDEST PUSH4 0xD92E233D PUSH1 0xE0 SHL DUP2 MSTORE PUSH1 0x4 SWAP1 REVERT JUMPDEST POP DUP5 DUP5 AND ISZERO PUSH3 0xE5 JUMP JUMPDEST POP DUP5 DUP4 AND ISZERO PUSH3 0xDD JUMP JUMPDEST PUSH1 0x40 MLOAD PUSH4 0x1E4FBDF7 PUSH1 0xE0 SHL DUP2 MSTORE PUSH0 PUSH1 0x4 DUP3 ADD MSTORE PUSH1 0x24 SWAP1 REVERT JUMPDEST PUSH0 DUP1 REVERT JUMPDEST PUSH4 0x4E487B71 PUSH1 0xE0 SHL PUSH0 MSTORE PUSH1 0x41 PUSH1 0x4 MSTORE PUSH1 0x24 PUSH0 REVERT JUMPDEST MLOAD SWAP1 PUSH1 0x1 PUSH1 0x1 PUSH1 0xA0 SHL SUB DUP3 AND DUP3 SUB PUSH3 0x19E JUMPI JUMP INVALID PUSH1 0x80 DUP1 PUSH1 0x40 MSTORE PUSH1 0x4 CALLDATASIZE LT ISZERO PUSH2 0x12 JUMPI PUSH0 DUP1 REVERT JUMPDEST PUSH0 CALLDATALOAD PUSH1 0xE0 SHR SWAP1 DUP2 PUSH4 0x9CD1733 EQ PUSH2 0x132B JUMPI POP DUP1 PUSH4 0xD8995D8 EQ PUSH2 0x12D4 JUMPI DUP1 PUSH4 0xF081030 EQ PUSH2 0x1290 JUMPI DUP1 PUSH4 0x172C8470 EQ PUSH2 0x1209 JUMPI DUP1 PUSH4 0x1AE9E7DE EQ PUSH2 0x11D2 JUMPI DUP1 PUSH4 0x256740DE EQ PUSH2 0x1177 JUMPI DUP1 PUSH4 0x454BBD29 EQ PUSH2 0x10D8 JUMPI DUP1 PUSH4 0x536FFF6C EQ PUSH2 0x109B JUMPI DUP1 PUSH4 0x5E8F1B7C EQ PUSH2 0x1057 JUMPI DUP1 PUSH4 0x715018A6 EQ PUSH2 0x1000 JUMPI DUP1 PUSH4 0x744C22AA EQ PUSH2 0xE02 JUMPI DUP1 PUSH4 0x755A9681 EQ PUSH2 0xBDC JUMPI DUP1 PUSH4 0x7BF55481 EQ PUSH2 0xB43 JUMPI DUP1 PUSH4 0x8DA5CB5B EQ PUSH2 0xB1C JUMPI DUP1 PUSH4 0xCCDE8C86 EQ PUSH2 0xAD8 JUMPI DUP1 PUSH4 0xDCAE5C5D EQ PUSH2 0xA7C JUMPI DUP1 PUSH4 0xE4551BF3 EQ PUSH2 0x30B JUMPI DUP1 PUSH4 0xE6D8DBE4 EQ PUSH2 0x17B JUMPI PUSH4 0xF2FDE38B EQ PUSH2 0xED JUMPI PUSH0 DUP1 REVERT JUMPDEST CALLVALUE PUSH2 0x177 JUMPI PUSH1 0x20 CALLDATASIZE PUSH1 0x3 NOT ADD SLT PUSH2 0x177 JUMPI PUSH2 0x106 PUSH2 0x14A4 JUMP JUMPDEST PUSH2 0x10E PUSH2 0x1A68 JUMP JUMPDEST PUSH1 0x1 PUSH1 0x1 PUSH1 0xA0 SHL SUB SWAP1 DUP2 AND SWAP1 DUP2 ISZERO PUSH2 0x15F JUMPI PUSH0 SLOAD DUP3 PUSH12 0xFFFFFFFFFFFFFFFFFFFFFFFF PUSH1 0xA0 SHL DUP3 AND OR PUSH0 SSTORE AND PUSH32 0x8BE0079C531659141344CD1FD0A4F28419497F9722A3DAAFE3B4186F6B6457E0 PUSH0 DUP1 LOG3 STOP JUMPDEST PUSH1 0x40 MLOAD PUSH4 0x1E4FBDF7 PUSH1 0xE0 SHL DUP2 MSTORE PUSH0 PUSH1 0x4 DUP3 ADD MSTORE PUSH1 0x24 SWAP1 REVERT JUMPDEST PUSH0 DUP1 REVERT JUMPDEST CALLVALUE PUSH2 0x177 JUMPI PUSH1 0x20 DUP1 PUSH1 0x3 NOT CALLDATASIZE ADD SLT PUSH2 0x177 JUMPI PUSH1 0x40 MLOAD PUSH4 0x63FF2287 PUSH1 0xE0 SHL DUP2 MSTORE PUSH1 0x4 DUP1 CALLDATALOAD SWAP1 DUP3 ADD DUP2 SWAP1 MSTORE SWAP2 SWAP1 PUSH0 DUP2 PUSH1 0x24 DUP2 PUSH32 0x0 PUSH1 0x1 PUSH1 0x1 PUSH1 0xA0 SHL SUB AND GAS STATICCALL DUP1 ISZERO PUSH2 0x300 JUMPI PUSH2 0x320 SWAP2 PUSH0 SWAP2 PUSH2 0x2DC JUMPI JUMPDEST POP ADD SWAP1 DUP2 MLOAD SWAP3 PUSH2 0x210 PUSH2 0x1FA DUP6 PUSH2 0x197F JUMP JUMPDEST SWAP5 PUSH2 0x208 PUSH1 0x40 MLOAD SWAP7 DUP8 PUSH2 0x1525 JUMP JUMPDEST DUP1 DUP7 MSTORE PUSH2 0x197F JUMP JUMPDEST PUSH1 0x1F NOT ADD DUP3 PUSH0 JUMPDEST DUP3 DUP2 LT PUSH2 0x2C6 JUMPI POP POP POP PUSH0 JUMPDEST DUP4 MLOAD DUP2 LT ISZERO PUSH2 0x267 JUMPI PUSH1 0x1 SWAP1 DUP3 PUSH0 MSTORE PUSH1 0x3 DUP5 MSTORE PUSH1 0x40 PUSH0 KECCAK256 DUP2 PUSH0 MSTORE DUP5 MSTORE PUSH2 0x24B PUSH1 0x40 PUSH0 KECCAK256 PUSH2 0x19DD JUMP JUMPDEST PUSH2 0x255 DUP3 DUP9 PUSH2 0x19B5 JUMP JUMPDEST MSTORE PUSH2 0x260 DUP2 DUP8 PUSH2 0x19B5 JUMP JUMPDEST POP ADD PUSH2 0x223 JUMP JUMPDEST PUSH1 0x40 DUP1 MLOAD DUP5 DUP2 MSTORE DUP7 MLOAD DUP2 DUP7 ADD DUP2 SWAP1 MSTORE DUP8 DUP7 ADD SWAP3 DUP3 ADD SWAP1 DUP7 PUSH0 JUMPDEST DUP3 DUP2 LT PUSH2 0x28D JUMPI DUP5 DUP5 SUB DUP6 RETURN JUMPDEST SWAP1 SWAP2 SWAP3 DUP3 PUSH1 0x60 DUP3 PUSH2 0x2B7 PUSH1 0x1 SWAP5 DUP11 MLOAD PUSH1 0x40 DUP1 SWAP2 DUP1 MLOAD DUP5 MSTORE PUSH1 0x20 DUP2 ADD MLOAD PUSH1 0x20 DUP6 ADD MSTORE ADD MLOAD ISZERO ISZERO SWAP2 ADD MSTORE JUMP JUMPDEST ADD SWAP7 ADD SWAP2 ADD SWAP5 SWAP3 SWAP2 SWAP1 SWAP5 PUSH2 0x280 JUMP JUMPDEST PUSH2 0x2CE PUSH2 0x1997 JUMP JUMPDEST DUP3 DUP3 DUP10 ADD ADD MSTORE ADD DUP4 SWAP1 PUSH2 0x217 JUMP JUMPDEST PUSH2 0x2F8 SWAP2 POP RETURNDATASIZE DUP1 PUSH0 DUP4 RETURNDATACOPY PUSH2 0x2F0 DUP2 DUP4 PUSH2 0x1525 JUMP JUMPDEST DUP2 ADD SWAP1 PUSH2 0x16A1 JUMP JUMPDEST POP POP DUP5 PUSH2 0x1E8 JUMP JUMPDEST PUSH1 0x40 MLOAD RETURNDATASIZE PUSH0 DUP3 RETURNDATACOPY RETURNDATASIZE SWAP1 REVERT JUMPDEST CALLVALUE PUSH2 0x177 JUMPI PUSH1 0x20 CALLDATASIZE PUSH1 0x3 NOT ADD SLT PUSH2 0x177 JUMPI PUSH1 0x40 MLOAD PUSH2 0x328 DUP2 PUSH2 0x1508 JUMP JUMPDEST PUSH0 DUP2 MSTORE PUSH0 PUSH1 0x20 DUP3 ADD MSTORE PUSH0 PUSH1 0x40 DUP3 ADD MSTORE PUSH0 PUSH1 0x60 DUP3 ADD MSTORE PUSH0 PUSH1 0x80 DUP3 ADD MSTORE PUSH0 PUSH1 0xA0 DUP3 ADD MSTORE PUSH0 PUSH1 0xC0 DUP3 ADD MSTORE PUSH0 PUSH1 0xE0 DUP3 ADD MSTORE PUSH0 PUSH2 0x100 DUP3 ADD MSTORE PUSH0 PUSH2 0x120 DUP3 ADD MSTORE PUSH0 PUSH2 0x140 DUP3 ADD MSTORE PUSH0 PUSH2 0x160 DUP3 ADD MSTORE PUSH0 PUSH2 0x180 DUP3 ADD MSTORE PUSH0 PUSH2 0x1A0 DUP3 ADD MSTORE PUSH0 PUSH2 0x1C0 DUP3 ADD MSTORE PUSH0 PUSH2 0x1E0 DUP3 ADD MSTORE PUSH0 PUSH2 0x200 DUP3 ADD MSTORE PUSH0 PUSH2 0x220 DUP3 ADD MSTORE PUSH0 PUSH2 0x240 DUP3 ADD MSTORE PUSH1 0x40 MLOAD PUSH4 0x63FF2287 PUSH1 0xE0 SHL DUP2 MSTORE PUSH1 0x4 CALLDATALOAD PUSH1 0x4 DUP3 ADD MSTORE PUSH0 DUP2 PUSH1 0x24 DUP2 PUSH1 0x1 DUP1 PUSH1 0xA0 SHL SUB PUSH32 0x0 AND GAS STATICCALL SWAP1 DUP2 ISZERO PUSH2 0x300 JUMPI PUSH0 SWAP2 PUSH2 0xA60 JUMPI JUMPDEST POP PUSH0 JUMPDEST PUSH2 0x300 DUP3 ADD MLOAD DUP2 LT ISZERO PUSH2 0x6BA JUMPI PUSH1 0x4 CALLDATALOAD PUSH0 MSTORE PUSH1 0x2 PUSH1 0x20 MSTORE PUSH1 0x40 PUSH0 KECCAK256 DUP2 PUSH0 MSTORE PUSH1 0x20 MSTORE PUSH2 0x425 PUSH1 0x40 PUSH0 KECCAK256 PUSH2 0x19DD JUMP JUMPDEST SWAP1 PUSH1 0x40 DUP3 ADD MLOAD PUSH2 0x43A JUMPI JUMPDEST PUSH1 0x1 SWAP2 POP ADD PUSH2 0x3F8 JUMP JUMPDEST DUP2 MLOAD PUSH1 0x20 SWAP1 SWAP3 ADD MLOAD PUSH1 0x40 MLOAD PUSH4 0x2D36406B PUSH1 0xE0 SHL DUP2 MSTORE PUSH1 0x4 DUP2 ADD SWAP4 SWAP1 SWAP4 MSTORE PUSH1 0x24 DUP4 ADD MSTORE PUSH2 0x260 DUP3 PUSH1 0x44 DUP2 PUSH1 0x1 PUSH1 0x1 PUSH1 0xA0 SHL SUB PUSH32 0x0 AND GAS STATICCALL SWAP2 DUP3 ISZERO PUSH2 0x300 JUMPI PUSH0 SWAP3 PUSH2 0x672 JUMPI JUMPDEST POP PUSH2 0x667 PUSH2 0x240 DUP4 PUSH2 0x4B3 PUSH1 0x1 SWAP6 MLOAD DUP9 MLOAD PUSH2 0x1A39 JUMP JUMPDEST DUP8 MSTORE PUSH2 0x4C7 PUSH1 0x20 DUP3 ADD MLOAD PUSH1 0x20 DUP10 ADD MLOAD PUSH2 0x1A39 JUMP JUMPDEST PUSH1 0x20 DUP9 ADD MSTORE PUSH2 0x4DE PUSH1 0x40 DUP3 ADD MLOAD PUSH1 0x40 DUP10 ADD MLOAD PUSH2 0x1A39 JUMP JUMPDEST PUSH1 0x40 DUP9 ADD MSTORE PUSH2 0x4F5 PUSH1 0x60 DUP3 ADD MLOAD PUSH1 0x60 DUP10 ADD MLOAD PUSH2 0x1A39 JUMP JUMPDEST PUSH1 0x60 DUP9 ADD MSTORE PUSH2 0x50C PUSH1 0x80 DUP3 ADD MLOAD PUSH1 0x80 DUP10 ADD MLOAD PUSH2 0x1A39 JUMP JUMPDEST PUSH1 0x80 DUP9 ADD MSTORE PUSH2 0x523 PUSH1 0xA0 DUP3 ADD MLOAD PUSH1 0xA0 DUP10 ADD MLOAD PUSH2 0x1A39 JUMP JUMPDEST PUSH1 0xA0 DUP9 ADD MSTORE PUSH2 0x53A PUSH1 0xC0 DUP3 ADD MLOAD PUSH1 0xC0 DUP10 ADD MLOAD PUSH2 0x1A39 JUMP JUMPDEST PUSH1 0xC0 DUP9 ADD MSTORE PUSH2 0x551 PUSH1 0xE0 DUP3 ADD MLOAD PUSH1 0xE0 DUP10 ADD MLOAD PUSH2 0x1A39 JUMP JUMPDEST PUSH1 0xE0 DUP9 ADD MSTORE PUSH2 0x56A PUSH2 0x100 DUP3 ADD MLOAD PUSH2 0x100 DUP10 ADD MLOAD PUSH2 0x1A39 JUMP JUMPDEST PUSH2 0x100 DUP9 ADD MSTORE PUSH2 0x584 PUSH2 0x120 DUP3 ADD MLOAD PUSH2 0x120 DUP10 ADD MLOAD PUSH2 0x1A39 JUMP JUMPDEST PUSH2 0x120 DUP9 ADD MSTORE PUSH2 0x59E PUSH2 0x140 DUP3 ADD MLOAD PUSH2 0x140 DUP10 ADD MLOAD PUSH2 0x1A39 JUMP JUMPDEST PUSH2 0x140 DUP9 ADD MSTORE PUSH2 0x5B8 PUSH2 0x160 DUP3 ADD MLOAD PUSH2 0x160 DUP10 ADD MLOAD PUSH2 0x1A39 JUMP JUMPDEST PUSH2 0x160 DUP9 ADD MSTORE PUSH2 0x5D2 PUSH2 0x180 DUP3 ADD MLOAD PUSH2 0x180 DUP10 ADD MLOAD PUSH2 0x1A39 JUMP JUMPDEST PUSH2 0x180 DUP9 ADD MSTORE PUSH2 0x5EC PUSH2 0x1A0 DUP3 ADD MLOAD PUSH2 0x1A0 DUP10 ADD MLOAD PUSH2 0x1A39 JUMP JUMPDEST PUSH2 0x1A0 DUP9 ADD MSTORE PUSH2 0x606 PUSH2 0x1C0 DUP3 ADD MLOAD PUSH2 0x1C0 DUP10 ADD MLOAD PUSH2 0x1A39 JUMP JUMPDEST PUSH2 0x1C0 DUP9 ADD MSTORE PUSH2 0x620 PUSH2 0x1E0 DUP3 ADD MLOAD PUSH2 0x1E0 DUP10 ADD MLOAD PUSH2 0x1A39 JUMP JUMPDEST PUSH2 0x1E0 DUP9 ADD MSTORE PUSH2 0x63A PUSH2 0x200 DUP3 ADD MLOAD PUSH2 0x200 DUP10 ADD MLOAD PUSH2 0x1A39 JUMP JUMPDEST PUSH2 0x200 DUP9 ADD MSTORE PUSH2 0x654 PUSH2 0x220 DUP3 ADD MLOAD PUSH2 0x220 DUP10 ADD MLOAD PUSH2 0x1A39 JUMP JUMPDEST PUSH2 0x220 DUP9 ADD MSTORE ADD MLOAD PUSH2 0x240 DUP7 ADD MLOAD PUSH2 0x1A39 JUMP JUMPDEST PUSH2 0x240 DUP6 ADD MSTORE PUSH2 0x430 JUMP JUMPDEST SWAP2 POP PUSH2 0x260 RETURNDATASIZE PUSH2 0x260 GT PUSH2 0x6B3 JUMPI JUMPDEST PUSH2 0x68B DUP2 DUP5 PUSH2 0x1525 JUMP JUMPDEST DUP3 ADD SWAP2 PUSH2 0x260 DUP2 DUP5 SUB SLT PUSH2 0x177 JUMPI PUSH2 0x240 PUSH2 0x6AB PUSH1 0x1 SWAP5 PUSH2 0x667 SWAP4 PUSH2 0x15C2 JUMP JUMPDEST SWAP4 POP POP PUSH2 0x49D JUMP JUMPDEST POP RETURNDATASIZE PUSH2 0x681 JUMP JUMPDEST POP PUSH0 JUMPDEST PUSH2 0x320 DUP3 ADD MLOAD DUP2 LT ISZERO PUSH2 0x989 JUMPI PUSH1 0x4 CALLDATALOAD PUSH0 MSTORE PUSH1 0x3 PUSH1 0x20 MSTORE PUSH1 0x40 PUSH0 KECCAK256 DUP2 PUSH0 MSTORE PUSH1 0x20 MSTORE PUSH2 0x6EA PUSH1 0x40 PUSH0 KECCAK256 PUSH2 0x19DD JUMP JUMPDEST PUSH1 0x40 DUP2 ADD MLOAD PUSH2 0x6FD JUMPI JUMPDEST POP PUSH1 0x1 ADD PUSH2 0x6BD JUMP JUMPDEST DUP1 MLOAD PUSH1 0x20 SWAP1 SWAP2 ADD MLOAD PUSH1 0x40 MLOAD PUSH4 0x1A09C5E9 PUSH1 0xE0 SHL DUP2 MSTORE PUSH1 0x4 DUP2 ADD SWAP3 SWAP1 SWAP3 MSTORE PUSH1 0x24 DUP3 ADD MSTORE SWAP1 PUSH2 0x260 DUP3 PUSH1 0x44 DUP2 PUSH32 0x0 PUSH1 0x1 PUSH1 0x1 PUSH1 0xA0 SHL SUB AND GAS STATICCALL SWAP2 DUP3 ISZERO PUSH2 0x300 JUMPI PUSH0 SWAP3 PUSH2 0x93C JUMPI JUMPDEST POP PUSH1 0x1 SWAP1 PUSH2 0x92F PUSH2 0x240 DUP5 PUSH2 0x77B PUSH2 0x320 SWAP7 MLOAD DUP10 MLOAD PUSH2 0x1A39 JUMP JUMPDEST DUP9 MSTORE PUSH2 0x78F PUSH1 0x20 DUP3 ADD MLOAD PUSH1 0x20 DUP11 ADD MLOAD PUSH2 0x1A39 JUMP JUMPDEST PUSH1 0x20 DUP10 ADD MSTORE PUSH2 0x7A6 PUSH1 0x40 DUP3 ADD MLOAD PUSH1 0x40 DUP11 ADD MLOAD PUSH2 0x1A39 JUMP JUMPDEST PUSH1 0x40 DUP10 ADD MSTORE PUSH2 0x7BD PUSH1 0x60 DUP3 ADD MLOAD PUSH1 0x60 DUP11 ADD MLOAD PUSH2 0x1A39 JUMP JUMPDEST PUSH1 0x60 DUP10 ADD MSTORE PUSH2 0x7D4 PUSH1 0x80 DUP3 ADD MLOAD PUSH1 0x80 DUP11 ADD MLOAD PUSH2 0x1A39 JUMP JUMPDEST PUSH1 0x80 DUP10 ADD MSTORE PUSH2 0x7EB PUSH1 0xA0 DUP3 ADD MLOAD PUSH1 0xA0 DUP11 ADD MLOAD PUSH2 0x1A39 JUMP JUMPDEST PUSH1 0xA0 DUP10 ADD MSTORE PUSH2 0x802 PUSH1 0xC0 DUP3 ADD MLOAD PUSH1 0xC0 DUP11 ADD MLOAD PUSH2 0x1A39 JUMP JUMPDEST PUSH1 0xC0 DUP10 ADD MSTORE PUSH2 0x819 PUSH1 0xE0 DUP3 ADD MLOAD PUSH1 0xE0 DUP11 ADD MLOAD PUSH2 0x1A39 JUMP JUMPDEST PUSH1 0xE0 DUP10 ADD MSTORE PUSH2 0x832 PUSH2 0x100 DUP3 ADD MLOAD PUSH2 0x100 DUP11 ADD MLOAD PUSH2 0x1A39 JUMP JUMPDEST PUSH2 0x100 DUP10 ADD MSTORE PUSH2 0x84C PUSH2 0x120 DUP3 ADD MLOAD PUSH2 0x120 DUP11 ADD MLOAD PUSH2 0x1A39 JUMP JUMPDEST PUSH2 0x120 DUP10 ADD MSTORE PUSH2 0x866 PUSH2 0x140 DUP3 ADD MLOAD PUSH2 0x140 DUP11 ADD MLOAD PUSH2 0x1A39 JUMP JUMPDEST PUSH2 0x140 DUP10 ADD MSTORE PUSH2 0x880 PUSH2 0x160 DUP3 ADD MLOAD PUSH2 0x160 DUP11 ADD MLOAD PUSH2 0x1A39 JUMP JUMPDEST PUSH2 0x160 DUP10 ADD MSTORE PUSH2 0x89A PUSH2 0x180 DUP3 ADD MLOAD PUSH2 0x180 DUP11 ADD MLOAD PUSH2 0x1A39 JUMP JUMPDEST PUSH2 0x180 DUP10 ADD MSTORE PUSH2 0x8B4 PUSH2 0x1A0 DUP3 ADD MLOAD PUSH2 0x1A0 DUP11 ADD MLOAD PUSH2 0x1A39 JUMP JUMPDEST PUSH2 0x1A0 DUP10 ADD MSTORE PUSH2 0x8CE PUSH2 0x1C0 DUP3 ADD MLOAD PUSH2 0x1C0 DUP11 ADD MLOAD PUSH2 0x1A39 JUMP JUMPDEST PUSH2 0x1C0 DUP10 ADD MSTORE PUSH2 0x8E8 PUSH2 0x1E0 DUP3 ADD MLOAD PUSH2 0x1E0 DUP11 ADD MLOAD PUSH2 0x1A39 JUMP JUMPDEST PUSH2 0x1E0 DUP10 ADD MSTORE PUSH2 0x902 PUSH2 0x200 DUP3 ADD MLOAD PUSH2 0x200 DUP11 ADD MLOAD PUSH2 0x1A39 JUMP JUMPDEST PUSH2 0x200 DUP10 ADD MSTORE PUSH2 0x91C PUSH2 0x220 DUP3 ADD MLOAD PUSH2 0x220 DUP11 ADD MLOAD PUSH2 0x1A39 JUMP JUMPDEST PUSH2 0x220 DUP10 ADD MSTORE ADD MLOAD PUSH2 0x240 DUP8 ADD MLOAD PUSH2 0x1A39 JUMP JUMPDEST PUSH2 0x240 DUP7 ADD MSTORE SWAP2 POP PUSH2 0x6F4 JUMP JUMPDEST SWAP2 POP PUSH2 0x260 RETURNDATASIZE PUSH2 0x260 GT PUSH2 0x982 JUMPI JUMPDEST PUSH2 0x955 DUP2 DUP5 PUSH2 0x1525 JUMP JUMPDEST DUP3 ADD SWAP1 PUSH2 0x260 DUP4 DUP4 SUB SLT PUSH2 0x177 JUMPI PUSH2 0x92F PUSH2 0x240 PUSH2 0x978 PUSH1 0x1 SWAP5 PUSH2 0x320 SWAP7 PUSH2 0x15C2 JUMP JUMPDEST SWAP5 POP POP POP SWAP1 PUSH2 0x761 JUMP JUMPDEST POP RETURNDATASIZE PUSH2 0x94B JUMP JUMPDEST PUSH2 0x260 DUP4 PUSH2 0x240 PUSH1 0x40 MLOAD SWAP2 DUP1 MLOAD DUP4 MSTORE PUSH1 0x20 DUP2 ADD MLOAD PUSH1 0x20 DUP5 ADD MSTORE PUSH1 0x40 DUP2 ADD MLOAD PUSH1 0x40 DUP5 ADD MSTORE PUSH1 0x60 DUP2 ADD MLOAD PUSH1 0x60 DUP5 ADD MSTORE PUSH1 0x80 DUP2 ADD MLOAD PUSH1 0x80 DUP5 ADD MSTORE PUSH1 0xA0 DUP2 ADD MLOAD PUSH1 0xA0 DUP5 ADD MSTORE PUSH1 0xC0 DUP2 ADD MLOAD PUSH1 0xC0 DUP5 ADD MSTORE PUSH1 0xE0 DUP2 ADD MLOAD PUSH1 0xE0 DUP5 ADD MSTORE PUSH2 0x100 DUP2 ADD MLOAD PUSH2 0x100 DUP5 ADD MSTORE PUSH2 0x120 DUP2 ADD MLOAD PUSH2 0x120 DUP5 ADD MSTORE PUSH2 0x140 DUP2 ADD MLOAD PUSH2 0x140 DUP5 ADD MSTORE PUSH2 0x160 DUP2 ADD MLOAD PUSH2 0x160 DUP5 ADD MSTORE PUSH2 0x180 DUP2 ADD MLOAD PUSH2 0x180 DUP5 ADD MSTORE PUSH2 0x1A0 DUP2 ADD MLOAD PUSH2 0x1A0 DUP5 ADD MSTORE PUSH2 0x1C0 DUP2 ADD MLOAD PUSH2 0x1C0 DUP5 ADD MSTORE PUSH2 0x1E0 DUP2 ADD MLOAD PUSH2 0x1E0 DUP5 ADD MSTORE PUSH2 0x200 DUP2 ADD MLOAD PUSH2 0x200 DUP5 ADD MSTORE PUSH2 0x220 DUP2 ADD MLOAD PUSH2 0x220 DUP5 ADD MSTORE ADD MLOAD PUSH2 0x240 DUP3 ADD MSTORE RETURN JUMPDEST PUSH2 0xA74 SWAP2 POP RETURNDATASIZE DUP1 PUSH0 DUP4 RETURNDATACOPY PUSH2 0x2F0 DUP2 DUP4 PUSH2 0x1525 JUMP JUMPDEST POP POP DUP3 PUSH2 0x3F5 JUMP JUMPDEST CALLVALUE PUSH2 0x177 JUMPI PUSH2 0xA8A CALLDATASIZE PUSH2 0x148E JUMP JUMPDEST SWAP1 PUSH2 0xA93 PUSH2 0x1997 JUMP JUMPDEST POP PUSH0 MSTORE PUSH1 0x3 PUSH1 0x20 MSTORE PUSH1 0x40 PUSH0 KECCAK256 SWAP1 PUSH0 MSTORE PUSH1 0x20 MSTORE PUSH1 0x60 PUSH2 0xAB3 PUSH1 0x40 PUSH0 KECCAK256 PUSH2 0x19DD JUMP JUMPDEST PUSH2 0xAD6 PUSH1 0x40 MLOAD DUP1 SWAP3 PUSH1 0x40 DUP1 SWAP2 DUP1 MLOAD DUP5 MSTORE PUSH1 0x20 DUP2 ADD MLOAD PUSH1 0x20 DUP6 ADD MSTORE ADD MLOAD ISZERO ISZERO SWAP2 ADD MSTORE JUMP JUMPDEST RETURN JUMPDEST CALLVALUE PUSH2 0x177 JUMPI PUSH0 CALLDATASIZE PUSH1 0x3 NOT ADD SLT PUSH2 0x177 JUMPI PUSH1 0x40 MLOAD PUSH32 0x0 PUSH1 0x1 PUSH1 0x1 PUSH1 0xA0 SHL SUB AND DUP2 MSTORE PUSH1 0x20 SWAP1 RETURN JUMPDEST CALLVALUE PUSH2 0x177 JUMPI PUSH0 CALLDATASIZE PUSH1 0x3 NOT ADD SLT PUSH2 0x177 JUMPI PUSH0 SLOAD PUSH1 0x40 MLOAD PUSH1 0x1 PUSH1 0x1 PUSH1 0xA0 SHL SUB SWAP1 SWAP2 AND DUP2 MSTORE PUSH1 0x20 SWAP1 RETURN JUMPDEST CALLVALUE PUSH2 0x177 JUMPI PUSH2 0xB51 CALLDATASIZE PUSH2 0x148E JUMP JUMPDEST SWAP1 PUSH1 0x1 DUP1 PUSH1 0xA0 SHL SUB PUSH0 SLOAD AND CALLER EQ DUP1 ISZERO PUSH2 0xBC6 JUMPI JUMPDEST ISZERO PUSH2 0xBB4 JUMPI DUP1 PUSH0 MSTORE PUSH1 0x3 PUSH1 0x20 MSTORE PUSH1 0x40 PUSH0 KECCAK256 DUP3 PUSH0 MSTORE PUSH1 0x20 MSTORE PUSH0 PUSH1 0x2 PUSH1 0x40 DUP3 KECCAK256 DUP3 DUP2 SSTORE DUP3 PUSH1 0x1 DUP3 ADD SSTORE ADD SSTORE PUSH32 0x5592A082AB8786E2D26123B5746DE918A2DEE59EE6256A5C582E50EBD6BB2DA8 PUSH0 DUP1 LOG3 STOP JUMPDEST PUSH1 0x40 MLOAD PUSH4 0xEA8E4EB5 PUSH1 0xE0 SHL DUP2 MSTORE PUSH1 0x4 SWAP1 REVERT JUMPDEST POP CALLER PUSH0 MSTORE PUSH1 0x1 PUSH1 0x20 MSTORE PUSH1 0xFF PUSH1 0x40 PUSH0 KECCAK256 SLOAD AND PUSH2 0xB65 JUMP JUMPDEST CALLVALUE PUSH2 0x177 JUMPI PUSH2 0xBEA CALLDATASIZE PUSH2 0x14BA JUMP JUMPDEST PUSH0 SLOAD SWAP2 SWAP4 SWAP2 PUSH1 0x1 PUSH1 0x1 PUSH1 0xA0 SHL SUB SWAP1 DUP2 AND CALLER EQ DUP1 ISZERO PUSH2 0xDEC JUMPI JUMPDEST ISZERO PUSH2 0xBB4 JUMPI PUSH1 0x40 MLOAD PUSH4 0x63FF2287 PUSH1 0xE0 SHL DUP2 MSTORE PUSH1 0x4 DUP2 ADD DUP5 SWAP1 MSTORE PUSH0 DUP2 PUSH1 0x24 DUP2 PUSH32 0x0 DUP7 AND GAS STATICCALL DUP1 ISZERO PUSH2 0x300 JUMPI PUSH2 0x320 SWAP2 PUSH0 SWAP2 PUSH2 0xDD0 JUMPI JUMPDEST POP ADD MLOAD DUP5 LT ISZERO PUSH2 0xD48 JUMPI DUP3 PUSH0 MSTORE PUSH1 0x20 SWAP1 PUSH1 0x3 DUP3 MSTORE PUSH1 0x40 PUSH0 KECCAK256 DUP6 PUSH0 MSTORE DUP3 MSTORE PUSH1 0xFF PUSH1 0x2 PUSH1 0x40 PUSH0 KECCAK256 ADD SLOAD AND PUSH2 0xD48 JUMPI PUSH0 PUSH1 0x24 SWAP2 PUSH1 0x40 MLOAD SWAP3 DUP4 DUP1 SWAP3 PUSH4 0x4F437925 PUSH1 0xE0 SHL DUP3 MSTORE DUP11 PUSH1 0x4 DUP4 ADD MSTORE PUSH32 0x0 AND GAS STATICCALL DUP1 ISZERO PUSH2 0x300 JUMPI PUSH0 SWAP2 PUSH0 SWAP2 PUSH2 0xD64 JUMPI JUMPDEST POP ISZERO PUSH2 0xD48 JUMPI DUP3 ISZERO SWAP1 DUP2 ISZERO PUSH2 0xD5A JUMPI JUMPDEST POP PUSH2 0xD48 JUMPI PUSH32 0xA6C0CCBD1B69F572D39C65693694251BCD7129431E952638AD4BB18495FF5108 SWAP2 PUSH2 0xD3F PUSH1 0x40 MLOAD PUSH2 0xD17 DUP2 PUSH2 0x14D8 JUMP JUMPDEST DUP8 DUP2 MSTORE DUP3 DUP5 DUP3 ADD MSTORE PUSH1 0x1 PUSH1 0x40 DUP3 ADD MSTORE DUP6 PUSH0 MSTORE PUSH1 0x3 DUP5 MSTORE PUSH1 0x40 PUSH0 KECCAK256 DUP8 PUSH0 MSTORE DUP5 MSTORE PUSH1 0x40 PUSH0 KECCAK256 PUSH2 0x1A0A JUMP JUMPDEST PUSH1 0x40 MLOAD SWAP1 DUP2 MSTORE LOG4 STOP JUMPDEST PUSH1 0x40 MLOAD PUSH4 0x2A9FFAB7 PUSH1 0xE2 SHL DUP2 MSTORE PUSH1 0x4 SWAP1 REVERT JUMPDEST SWAP1 POP DUP3 GT DUP7 PUSH2 0xCE1 JUMP JUMPDEST SWAP2 POP POP RETURNDATASIZE DUP1 PUSH0 DUP4 RETURNDATACOPY PUSH2 0xD76 DUP2 DUP4 PUSH2 0x1525 JUMP JUMPDEST DUP2 ADD PUSH1 0xC0 DUP3 DUP3 SUB SLT PUSH2 0x177 JUMPI DUP2 MLOAD SWAP1 PUSH8 0xFFFFFFFFFFFFFFFF DUP3 GT PUSH2 0x177 JUMPI PUSH2 0xD9F SWAP2 DUP4 ADD PUSH2 0x1547 JUMP JUMPDEST POP PUSH1 0x8 DUP3 DUP3 ADD MLOAD LT ISZERO PUSH2 0x177 JUMPI PUSH1 0xC PUSH1 0x40 DUP3 ADD MLOAD LT ISZERO PUSH2 0x177 JUMPI PUSH2 0xDCA PUSH1 0xA0 PUSH1 0x80 DUP4 ADD MLOAD SWAP3 ADD PUSH2 0x15B5 JUMP JUMPDEST DUP8 PUSH2 0xCD1 JUMP JUMPDEST PUSH2 0xDE4 SWAP2 POP RETURNDATASIZE DUP1 PUSH0 DUP4 RETURNDATACOPY PUSH2 0x2F0 DUP2 DUP4 PUSH2 0x1525 JUMP JUMPDEST POP POP DUP8 PUSH2 0xC57 JUMP JUMPDEST POP CALLER PUSH0 MSTORE PUSH1 0x1 PUSH1 0x20 MSTORE PUSH1 0xFF PUSH1 0x40 PUSH0 KECCAK256 SLOAD AND PUSH2 0xC03 JUMP JUMPDEST CALLVALUE PUSH2 0x177 JUMPI PUSH2 0xE10 CALLDATASIZE PUSH2 0x14BA JUMP JUMPDEST PUSH0 SLOAD SWAP2 SWAP4 SWAP2 PUSH1 0x1 PUSH1 0x1 PUSH1 0xA0 SHL SUB SWAP1 DUP2 AND CALLER EQ DUP1 ISZERO PUSH2 0xFEA JUMPI JUMPDEST ISZERO PUSH2 0xBB4 JUMPI PUSH1 0x40 MLOAD PUSH4 0x63FF2287 PUSH1 0xE0 SHL DUP2 MSTORE PUSH1 0x4 DUP2 ADD DUP5 SWAP1 MSTORE PUSH0 DUP2 PUSH1 0x24 DUP2 PUSH32 0x0 DUP7 AND GAS STATICCALL DUP1 ISZERO PUSH2 0x300 JUMPI PUSH2 0x300 SWAP2 PUSH0 SWAP2 PUSH2 0xFCE JUMPI JUMPDEST POP ADD MLOAD DUP5 LT ISZERO PUSH2 0xD48 JUMPI DUP3 PUSH0 MSTORE PUSH1 0x20 SWAP1 PUSH1 0x2 DUP3 MSTORE PUSH1 0x40 PUSH0 KECCAK256 DUP6 PUSH0 MSTORE DUP3 MSTORE PUSH1 0xFF PUSH1 0x2 PUSH1 0x40 PUSH0 KECCAK256 ADD SLOAD AND PUSH2 0xD48 JUMPI PUSH0 PUSH1 0x24 SWAP2 PUSH1 0x40 MLOAD SWAP3 DUP4 DUP1 SWAP3 PUSH4 0x60756C91 PUSH1 0xE0 SHL DUP3 MSTORE DUP11 PUSH1 0x4 DUP4 ADD MSTORE PUSH32 0x0 AND GAS STATICCALL DUP1 ISZERO PUSH2 0x300 JUMPI PUSH0 SWAP2 PUSH0 SWAP2 PUSH2 0xF6F JUMPI JUMPDEST POP ISZERO PUSH2 0xD48 JUMPI DUP3 ISZERO SWAP1 DUP2 ISZERO PUSH2 0xF65 JUMPI JUMPDEST POP PUSH2 0xD48 JUMPI PUSH32 0xEF5C3094FE44494165D3E838F078D86149FF1CBB056FF4027DE8410D5BE155EC SWAP2 PUSH2 0xD3F PUSH1 0x40 MLOAD PUSH2 0xF3D DUP2 PUSH2 0x14D8 JUMP JUMPDEST DUP8 DUP2 MSTORE DUP3 DUP5 DUP3 ADD MSTORE PUSH1 0x1 PUSH1 0x40 DUP3 ADD MSTORE DUP6 PUSH0 MSTORE PUSH1 0x2 DUP5 MSTORE PUSH1 0x40 PUSH0 KECCAK256 DUP8 PUSH0 MSTORE DUP5 MSTORE PUSH1 0x40 PUSH0 KECCAK256 PUSH2 0x1A0A JUMP JUMPDEST SWAP1 POP DUP3 GT DUP7 PUSH2 0xF07 JUMP JUMPDEST SWAP2 POP POP RETURNDATASIZE DUP1 PUSH0 DUP4 RETURNDATACOPY PUSH2 0xF81 DUP2 DUP4 PUSH2 0x1525 JUMP JUMPDEST DUP2 ADD PUSH1 0xA0 DUP3 DUP3 SUB SLT PUSH2 0x177 JUMPI DUP2 MLOAD SWAP1 PUSH8 0xFFFFFFFFFFFFFFFF DUP3 GT PUSH2 0x177 JUMPI PUSH2 0xFAA SWAP2 DUP4 ADD PUSH2 0x1547 JUMP JUMPDEST POP PUSH1 0xF DUP3 DUP3 ADD MLOAD LT ISZERO PUSH2 0x177 JUMPI PUSH2 0xFC8 PUSH1 0x80 PUSH1 0x60 DUP4 ADD MLOAD SWAP3 ADD PUSH2 0x15B5 JUMP JUMPDEST DUP8 PUSH2 0xEF7 JUMP JUMPDEST PUSH2 0xFE2 SWAP2 POP RETURNDATASIZE DUP1 PUSH0 DUP4 RETURNDATACOPY PUSH2 0x2F0 DUP2 DUP4 PUSH2 0x1525 JUMP JUMPDEST POP POP DUP8 PUSH2 0xE7D JUMP JUMPDEST POP CALLER PUSH0 MSTORE PUSH1 0x1 PUSH1 0x20 MSTORE PUSH1 0xFF PUSH1 0x40 PUSH0 KECCAK256 SLOAD AND PUSH2 0xE29 JUMP JUMPDEST CALLVALUE PUSH2 0x177 JUMPI PUSH0 CALLDATASIZE PUSH1 0x3 NOT ADD SLT PUSH2 0x177 JUMPI PUSH2 0x1018 PUSH2 0x1A68 JUMP JUMPDEST PUSH0 DUP1 SLOAD PUSH1 0x1 PUSH1 0x1 PUSH1 0xA0 SHL SUB NOT DUP2 AND DUP3 SSTORE PUSH1 0x1 PUSH1 0x1 PUSH1 0xA0 SHL SUB AND PUSH32 0x8BE0079C531659141344CD1FD0A4F28419497F9722A3DAAFE3B4186F6B6457E0 DUP3 DUP1 LOG3 STOP JUMPDEST CALLVALUE PUSH2 0x177 JUMPI PUSH0 CALLDATASIZE PUSH1 0x3 NOT ADD SLT PUSH2 0x177 JUMPI PUSH1 0x40 MLOAD PUSH32 0x0 PUSH1 0x1 PUSH1 0x1 PUSH1 0xA0 SHL SUB AND DUP2 MSTORE PUSH1 0x20 SWAP1 RETURN JUMPDEST CALLVALUE PUSH2 0x177 JUMPI PUSH1 0x20 CALLDATASIZE PUSH1 0x3 NOT ADD SLT PUSH2 0x177 JUMPI PUSH1 0x1 PUSH1 0x1 PUSH1 0xA0 SHL SUB PUSH2 0x10BC PUSH2 0x14A4 JUMP JUMPDEST AND PUSH0 MSTORE PUSH1 0x1 PUSH1 0x20 MSTORE PUSH1 0x20 PUSH1 0xFF PUSH1 0x40 PUSH0 KECCAK256 SLOAD AND PUSH1 0x40 MLOAD SWAP1 ISZERO ISZERO DUP2 MSTORE RETURN JUMPDEST CALLVALUE PUSH2 0x177 JUMPI PUSH1 0x40 CALLDATASIZE PUSH1 0x3 NOT ADD SLT PUSH2 0x177 JUMPI PUSH2 0x10F1 PUSH2 0x14A4 JUMP JUMPDEST PUSH1 0x24 CALLDATALOAD SWAP1 DUP2 ISZERO ISZERO SWAP1 DUP2 DUP4 SUB PUSH2 0x177 JUMPI PUSH2 0x1108 PUSH2 0x1A68 JUMP JUMPDEST PUSH1 0x1 PUSH1 0x1 PUSH1 0xA0 SHL SUB AND SWAP2 DUP3 ISZERO PUSH2 0x1165 JUMPI PUSH32 0x1EFF62A53441C7D0125C22F2A9A324E206B34EFA41E19469D7EFB9BB703D21A3 SWAP2 PUSH2 0x115C PUSH1 0x20 SWAP3 DUP6 PUSH0 MSTORE PUSH1 0x1 DUP5 MSTORE PUSH1 0x40 PUSH0 KECCAK256 SWAP1 PUSH1 0xFF DUP1 NOT DUP4 SLOAD AND SWAP2 ISZERO ISZERO AND OR SWAP1 SSTORE JUMP JUMPDEST PUSH1 0x40 MLOAD SWAP1 DUP2 MSTORE LOG2 STOP JUMPDEST PUSH1 0x40 MLOAD PUSH4 0xD92E233D PUSH1 0xE0 SHL DUP2 MSTORE PUSH1 0x4 SWAP1 REVERT JUMPDEST CALLVALUE PUSH2 0x177 JUMPI PUSH2 0x1185 CALLDATASIZE PUSH2 0x148E JUMP JUMPDEST SWAP1 PUSH0 MSTORE PUSH1 0x2 PUSH1 0x20 MSTORE PUSH1 0x40 PUSH0 KECCAK256 SWAP1 PUSH0 MSTORE PUSH1 0x20 MSTORE PUSH1 0x40 PUSH0 KECCAK256 DUP1 SLOAD PUSH2 0x11CE PUSH1 0xFF PUSH1 0x2 PUSH1 0x1 DUP6 ADD SLOAD SWAP5 ADD SLOAD AND PUSH1 0x40 MLOAD SWAP4 DUP5 SWAP4 DUP5 SWAP2 SWAP3 PUSH1 0x40 SWAP2 SWAP5 SWAP4 PUSH1 0x60 DUP5 ADD SWAP6 DUP5 MSTORE PUSH1 0x20 DUP5 ADD MSTORE ISZERO ISZERO SWAP2 ADD MSTORE JUMP JUMPDEST SUB SWAP1 RETURN JUMPDEST CALLVALUE PUSH2 0x177 JUMPI PUSH2 0x11E0 CALLDATASIZE PUSH2 0x148E JUMP JUMPDEST SWAP1 PUSH2 0x11E9 PUSH2 0x1997 JUMP JUMPDEST POP PUSH0 MSTORE PUSH1 0x2 PUSH1 0x20 MSTORE PUSH1 0x40 PUSH0 KECCAK256 SWAP1 PUSH0 MSTORE PUSH1 0x20 MSTORE PUSH1 0x60 PUSH2 0xAB3 PUSH1 0x40 PUSH0 KECCAK256 PUSH2 0x19DD JUMP JUMPDEST CALLVALUE PUSH2 0x177 JUMPI PUSH2 0x1217 CALLDATASIZE PUSH2 0x148E JUMP JUMPDEST SWAP1 PUSH1 0x1 DUP1 PUSH1 0xA0 SHL SUB PUSH0 SLOAD AND CALLER EQ DUP1 ISZERO PUSH2 0x127A JUMPI JUMPDEST ISZERO PUSH2 0xBB4 JUMPI DUP1 PUSH0 MSTORE PUSH1 0x2 PUSH1 0x20 MSTORE PUSH1 0x40 PUSH0 KECCAK256 DUP3 PUSH0 MSTORE PUSH1 0x20 MSTORE PUSH0 PUSH1 0x2 PUSH1 0x40 DUP3 KECCAK256 DUP3 DUP2 SSTORE DUP3 PUSH1 0x1 DUP3 ADD SSTORE ADD SSTORE PUSH32 0xF442F8C380FE82B2F70945DD78CA935470F64B8A4D683DE2A8DF39C28054CB4D PUSH0 DUP1 LOG3 STOP JUMPDEST POP CALLER PUSH0 MSTORE PUSH1 0x1 PUSH1 0x20 MSTORE PUSH1 0xFF PUSH1 0x40 PUSH0 KECCAK256 SLOAD AND PUSH2 0x122B JUMP JUMPDEST CALLVALUE PUSH2 0x177 JUMPI PUSH0 CALLDATASIZE PUSH1 0x3 NOT ADD SLT PUSH2 0x177 JUMPI PUSH1 0x40 MLOAD PUSH32 0x0 PUSH1 0x1 PUSH1 0x1 PUSH1 0xA0 SHL SUB AND DUP2 MSTORE PUSH1 0x20 SWAP1 RETURN JUMPDEST CALLVALUE PUSH2 0x177 JUMPI PUSH2 0x12E2 CALLDATASIZE PUSH2 0x148E JUMP JUMPDEST SWAP1 PUSH0 MSTORE PUSH1 0x3 PUSH1 0x20 MSTORE PUSH1 0x40 PUSH0 KECCAK256 SWAP1 PUSH0 MSTORE PUSH1 0x20 MSTORE PUSH1 0x40 PUSH0 KECCAK256 DUP1 SLOAD PUSH2 0x11CE PUSH1 0xFF PUSH1 0x2 PUSH1 0x1 DUP6 ADD SLOAD SWAP5 ADD SLOAD AND PUSH1 0x40 MLOAD SWAP4 DUP5 SWAP4 DUP5 SWAP2 SWAP3 PUSH1 0x40 SWAP2 SWAP5 SWAP4 PUSH1 0x60 DUP5 ADD SWAP6 DUP5 MSTORE PUSH1 0x20 DUP5 ADD MSTORE ISZERO ISZERO SWAP2 ADD MSTORE JUMP JUMPDEST CALLVALUE PUSH2 0x177 JUMPI PUSH1 0x20 DUP1 PUSH1 0x3 NOT CALLDATASIZE ADD SLT PUSH2 0x177 JUMPI PUSH4 0x63FF2287 PUSH1 0xE0 SHL DUP3 MSTORE PUSH1 0x4 DUP1 CALLDATALOAD SWAP1 DUP4 ADD DUP2 SWAP1 MSTORE SWAP2 PUSH0 DUP2 PUSH1 0x24 DUP2 PUSH32 0x0 PUSH1 0x1 PUSH1 0x1 PUSH1 0xA0 SHL SUB AND GAS STATICCALL DUP1 ISZERO PUSH2 0x300 JUMPI PUSH2 0x300 SWAP2 PUSH0 SWAP2 PUSH2 0x1472 JUMPI JUMPDEST POP ADD SWAP1 DUP2 MLOAD SWAP3 PUSH2 0x13A6 PUSH2 0x1FA DUP6 PUSH2 0x197F JUMP JUMPDEST PUSH1 0x1F NOT ADD DUP3 PUSH0 JUMPDEST DUP3 DUP2 LT PUSH2 0x145C JUMPI POP POP POP PUSH0 JUMPDEST DUP4 MLOAD DUP2 LT ISZERO PUSH2 0x13FD JUMPI PUSH1 0x1 SWAP1 DUP3 PUSH0 MSTORE PUSH1 0x2 DUP5 MSTORE PUSH1 0x40 PUSH0 KECCAK256 DUP2 PUSH0 MSTORE DUP5 MSTORE PUSH2 0x13E1 PUSH1 0x40 PUSH0 KECCAK256 PUSH2 0x19DD JUMP JUMPDEST PUSH2 0x13EB DUP3 DUP9 PUSH2 0x19B5 JUMP JUMPDEST MSTORE PUSH2 0x13F6 DUP2 DUP8 PUSH2 0x19B5 JUMP JUMPDEST POP ADD PUSH2 0x13B9 JUMP JUMPDEST PUSH1 0x40 DUP1 MLOAD DUP5 DUP2 MSTORE DUP7 MLOAD DUP2 DUP7 ADD DUP2 SWAP1 MSTORE DUP8 DUP7 ADD SWAP3 DUP3 ADD SWAP1 DUP7 PUSH0 JUMPDEST DUP3 DUP2 LT PUSH2 0x1423 JUMPI DUP5 DUP5 SUB DUP6 RETURN JUMPDEST SWAP1 SWAP2 SWAP3 DUP3 PUSH1 0x60 DUP3 PUSH2 0x144D PUSH1 0x1 SWAP5 DUP11 MLOAD PUSH1 0x40 DUP1 SWAP2 DUP1 MLOAD DUP5 MSTORE PUSH1 0x20 DUP2 ADD MLOAD PUSH1 0x20 DUP6 ADD MSTORE ADD MLOAD ISZERO ISZERO SWAP2 ADD MSTORE JUMP JUMPDEST ADD SWAP7 ADD SWAP2 ADD SWAP5 SWAP3 SWAP2 SWAP1 SWAP5 PUSH2 0x1416 JUMP JUMPDEST PUSH2 0x1464 PUSH2 0x1997 JUMP JUMPDEST DUP3 DUP3 DUP10 ADD ADD MSTORE ADD DUP4 SWAP1 PUSH2 0x13AD JUMP JUMPDEST PUSH2 0x1486 SWAP2 POP RETURNDATASIZE DUP1 PUSH0 DUP4 RETURNDATACOPY PUSH2 0x2F0 DUP2 DUP4 PUSH2 0x1525 JUMP JUMPDEST POP POP DUP5 PUSH2 0x1394 JUMP JUMPDEST PUSH1 0x40 SWAP1 PUSH1 0x3 NOT ADD SLT PUSH2 0x177 JUMPI PUSH1 0x4 CALLDATALOAD SWAP1 PUSH1 0x24 CALLDATALOAD SWAP1 JUMP JUMPDEST PUSH1 0x4 CALLDATALOAD SWAP1 PUSH1 0x1 PUSH1 0x1 PUSH1 0xA0 SHL SUB DUP3 AND DUP3 SUB PUSH2 0x177 JUMPI JUMP JUMPDEST PUSH1 0x80 SWAP1 PUSH1 0x3 NOT ADD SLT PUSH2 0x177 JUMPI PUSH1 0x4 CALLDATALOAD SWAP1 PUSH1 0x24 CALLDATALOAD SWAP1 PUSH1 0x44 CALLDATALOAD SWAP1 PUSH1 0x64 CALLDATALOAD SWAP1 JUMP JUMPDEST PUSH1 0x60 DUP2 ADD SWAP1 DUP2 LT PUSH8 0xFFFFFFFFFFFFFFFF DUP3 GT OR PUSH2 0x14F4 JUMPI PUSH1 0x40 MSTORE JUMP JUMPDEST PUSH4 0x4E487B71 PUSH1 0xE0 SHL PUSH0 MSTORE PUSH1 0x41 PUSH1 0x4 MSTORE PUSH1 0x24 PUSH0 REVERT JUMPDEST PUSH2 0x260 DUP2 ADD SWAP1 DUP2 LT PUSH8 0xFFFFFFFFFFFFFFFF DUP3 GT OR PUSH2 0x14F4 JUMPI PUSH1 0x40 MSTORE JUMP JUMPDEST SWAP1 PUSH1 0x1F DUP1 NOT SWAP2 ADD AND DUP2 ADD SWAP1 DUP2 LT PUSH8 0xFFFFFFFFFFFFFFFF DUP3 GT OR PUSH2 0x14F4 JUMPI PUSH1 0x40 MSTORE JUMP JUMPDEST SWAP2 SWAP1 DUP1 PUSH1 0x1F DUP5 ADD SLT ISZERO PUSH2 0x177 JUMPI DUP3 MLOAD PUSH8 0xFFFFFFFFFFFFFFFF DUP2 GT PUSH2 0x14F4 JUMPI PUSH1 0x20 SWAP1 PUSH1 0x40 MLOAD SWAP3 PUSH2 0x157F DUP4 PUSH1 0x1F NOT PUSH1 0x1F DUP6 ADD AND ADD DUP6 PUSH2 0x1525 JUMP JUMPDEST DUP2 DUP5 MSTORE DUP3 DUP3 DUP8 ADD ADD GT PUSH2 0x177 JUMPI PUSH0 JUMPDEST DUP2 DUP2 LT PUSH2 0x15A2 JUMPI POP DUP3 PUSH0 SWAP4 SWAP5 SWAP6 POP ADD ADD MSTORE SWAP1 JUMP JUMPDEST DUP6 DUP2 ADD DUP4 ADD MLOAD DUP5 DUP3 ADD DUP5 ADD MSTORE DUP3 ADD PUSH2 0x158E JUMP JUMPDEST MLOAD SWAP1 DUP2 ISZERO ISZERO DUP3 SUB PUSH2 0x177 JUMPI JUMP JUMPDEST SWAP2 SWAP1 DUP3 PUSH2 0x260 SWAP2 SUB SLT PUSH2 0x177 JUMPI PUSH1 0x40 MLOAD PUSH2 0x15DB DUP2 PUSH2 0x1508 JUMP JUMPDEST DUP1 SWAP3 DUP1 MLOAD DUP3 MSTORE PUSH1 0x20 DUP2 ADD MLOAD PUSH1 0x20 DUP4 ADD MSTORE PUSH1 0x40 DUP2 ADD MLOAD PUSH1 0x40 DUP4 ADD MSTORE PUSH1 0x60 DUP2 ADD MLOAD PUSH1 0x60 DUP4 ADD MSTORE PUSH1 0x80 DUP2 ADD MLOAD PUSH1 0x80 DUP4 ADD MSTORE PUSH1 0xA0 DUP2 ADD MLOAD PUSH1 0xA0 DUP4 ADD MSTORE PUSH1 0xC0 DUP2 ADD MLOAD PUSH1 0xC0 DUP4 ADD MSTORE PUSH1 0xE0 DUP2 ADD MLOAD PUSH1 0xE0 DUP4 ADD MSTORE PUSH2 0x100 DUP1 DUP3 ADD MLOAD SWAP1 DUP4 ADD MSTORE PUSH2 0x120 DUP1 DUP3 ADD MLOAD SWAP1 DUP4 ADD MSTORE PUSH2 0x140 DUP1 DUP3 ADD MLOAD SWAP1 DUP4 ADD MSTORE PUSH2 0x160 DUP1 DUP3 ADD MLOAD SWAP1 DUP4 ADD MSTORE PUSH2 0x180 DUP1 DUP3 ADD MLOAD SWAP1 DUP4 ADD MSTORE PUSH2 0x1A0 DUP1 DUP3 ADD MLOAD SWAP1 DUP4 ADD MSTORE PUSH2 0x1C0 DUP1 DUP3 ADD MLOAD SWAP1 DUP4 ADD MSTORE PUSH2 0x1E0 DUP1 DUP3 ADD MLOAD SWAP1 DUP4 ADD MSTORE PUSH2 0x200 DUP1 DUP3 ADD MLOAD SWAP1 DUP4 ADD MSTORE PUSH2 0x220 DUP1 DUP3 ADD MLOAD SWAP1 DUP4 ADD MSTORE PUSH2 0x240 DUP1 SWAP2 ADD MLOAD SWAP2 ADD MSTORE JUMP JUMPDEST SWAP1 SWAP2 PUSH2 0x4A0 DUP3 DUP5 SUB SLT PUSH2 0x177 JUMPI DUP2 MLOAD PUSH8 0xFFFFFFFFFFFFFFFF DUP2 GT PUSH2 0x177 JUMPI DUP3 ADD PUSH2 0x3C0 SWAP1 DUP2 DUP2 DUP7 SUB SLT PUSH2 0x177 JUMPI PUSH1 0x40 MLOAD SWAP2 DUP3 ADD DUP3 DUP2 LT PUSH8 0xFFFFFFFFFFFFFFFF DUP3 GT OR PUSH2 0x14F4 JUMPI PUSH1 0x40 MSTORE DUP1 MLOAD DUP3 MSTORE PUSH1 0x20 DUP2 ADD MLOAD PUSH8 0xFFFFFFFFFFFFFFFF DUP2 GT PUSH2 0x177 JUMPI DUP6 PUSH2 0x170E SWAP2 DUP4 ADD PUSH2 0x1547 JUMP JUMPDEST PUSH1 0x20 DUP4 ADD MSTORE PUSH1 0x40 DUP2 ADD MLOAD PUSH1 0xF DUP2 LT ISZERO PUSH2 0x177 JUMPI PUSH1 0x40 DUP4 ADD MSTORE PUSH1 0x60 DUP2 ADD MLOAD PUSH1 0xD DUP2 LT ISZERO PUSH2 0x177 JUMPI PUSH1 0x60 DUP4 ADD MSTORE PUSH1 0x80 DUP2 ADD MLOAD PUSH1 0x80 DUP4 ADD MSTORE PUSH1 0xA0 DUP2 ADD MLOAD PUSH1 0xA0 DUP4 ADD MSTORE PUSH1 0xC0 DUP2 ADD MLOAD PUSH1 0xC0 DUP4 ADD MSTORE PUSH1 0xE0 DUP2 ADD MLOAD PUSH1 0xE0 DUP4 ADD MSTORE PUSH2 0x100 DUP2 ADD MLOAD PUSH2 0x100 DUP4 ADD MSTORE PUSH2 0x120 DUP2 ADD MLOAD PUSH2 0x120 DUP4 ADD MSTORE PUSH2 0x140 DUP2 ADD MLOAD PUSH2 0x140 DUP4 ADD MSTORE PUSH2 0x160 DUP2 ADD MLOAD PUSH2 0x160 DUP4 ADD MSTORE PUSH2 0x180 DUP2 ADD MLOAD PUSH2 0x180 DUP4 ADD MSTORE PUSH2 0x1A0 DUP2 ADD MLOAD PUSH2 0x1A0 DUP4 ADD MSTORE PUSH2 0x1C0 DUP2 ADD MLOAD PUSH2 0x1C0 DUP4 ADD MSTORE PUSH2 0x1E0 DUP2 ADD MLOAD PUSH2 0x1E0 DUP4 ADD MSTORE PUSH2 0x200 DUP2 ADD MLOAD PUSH2 0x200 DUP4 ADD MSTORE PUSH2 0x220 DUP2 ADD MLOAD PUSH2 0x220 DUP4 ADD MSTORE PUSH2 0x240 DUP2 ADD MLOAD PUSH2 0x240 DUP4 ADD MSTORE PUSH2 0x260 DUP1 DUP3 ADD MLOAD SWAP1 DUP4 ADD MSTORE PUSH2 0x280 DUP1 DUP3 ADD MLOAD SWAP1 DUP4 ADD MSTORE PUSH2 0x2A0 DUP1 DUP3 ADD MLOAD SWAP1 DUP4 ADD MSTORE PUSH2 0x2C0 DUP1 DUP3 ADD MLOAD SWAP1 DUP4 ADD MSTORE PUSH2 0x2E0 DUP1 DUP3 ADD MLOAD SWAP1 DUP4 ADD MSTORE PUSH2 0x300 DUP1 DUP3 ADD MLOAD SWAP1 DUP4 ADD MSTORE PUSH2 0x320 DUP1 DUP3 ADD MLOAD SWAP1 DUP4 ADD MSTORE PUSH2 0x340 DUP1 DUP3 ADD MLOAD SWAP1 DUP4 ADD MSTORE PUSH2 0x360 DUP1 DUP3 ADD MLOAD SWAP1 DUP4 ADD MSTORE PUSH2 0x380 DUP1 DUP3 ADD MLOAD SWAP1 DUP4 ADD MSTORE PUSH2 0x1861 PUSH2 0x3A0 DUP1 SWAP3 ADD PUSH2 0x15B5 JUMP JUMPDEST SWAP1 DUP3 ADD MSTORE SWAP3 PUSH2 0x220 DUP4 DUP3 SUB PUSH1 0x1F NOT ADD SLT PUSH2 0x177 JUMPI PUSH1 0x40 MLOAD SWAP1 DUP2 PUSH2 0x220 DUP2 ADD LT PUSH8 0xFFFFFFFFFFFFFFFF PUSH2 0x220 DUP5 ADD GT OR PUSH2 0x14F4 JUMPI PUSH2 0x220 DUP3 ADD PUSH1 0x40 MSTORE PUSH1 0x20 DUP5 ADD MLOAD DUP3 MSTORE PUSH1 0x40 DUP5 ADD MLOAD PUSH1 0x20 DUP4 ADD MSTORE PUSH1 0x60 DUP5 ADD MLOAD PUSH1 0x40 DUP4 ADD MSTORE PUSH1 0x80 DUP5 ADD MLOAD PUSH1 0x60 DUP4 ADD MSTORE PUSH1 0xA0 DUP5 ADD MLOAD PUSH1 0x80 DUP4 ADD MSTORE PUSH1 0xC0 DUP5 ADD MLOAD PUSH1 0xA0 DUP4 ADD MSTORE PUSH1 0xE0 DUP5 ADD MLOAD PUSH1 0xC0 DUP4 ADD MSTORE PUSH2 0x100 DUP5 ADD MLOAD PUSH1 0xE0 DUP4 ADD MSTORE PUSH2 0x120 DUP5 ADD MLOAD PUSH2 0x100 DUP4 ADD MSTORE PUSH2 0x140 DUP5 ADD MLOAD PUSH2 0x120 DUP4 ADD MSTORE PUSH2 0x160 DUP5 ADD MLOAD PUSH2 0x140 DUP4 ADD MSTORE PUSH2 0x180 DUP5 ADD MLOAD PUSH2 0x160 DUP4 ADD MSTORE PUSH2 0x1A0 DUP5 ADD MLOAD PUSH1 0x4 DUP2 LT ISZERO PUSH2 0x177 JUMPI DUP3 PUSH2 0x240 SWAP2 PUSH2 0x180 PUSH2 0x197C SWAP6 ADD MSTORE PUSH2 0x1C0 DUP7 ADD MLOAD PUSH2 0x1A0 DUP3 ADD MSTORE PUSH2 0x1E0 DUP7 ADD MLOAD PUSH2 0x1C0 DUP3 ADD MSTORE PUSH2 0x195C PUSH2 0x200 DUP8 ADD PUSH2 0x15B5 JUMP JUMPDEST PUSH2 0x1E0 DUP3 ADD MSTORE PUSH2 0x196F PUSH2 0x220 DUP8 ADD PUSH2 0x15B5 JUMP JUMPDEST PUSH2 0x200 DUP3 ADD MSTORE SWAP5 ADD PUSH2 0x15C2 JUMP JUMPDEST SWAP1 JUMP JUMPDEST PUSH8 0xFFFFFFFFFFFFFFFF DUP2 GT PUSH2 0x14F4 JUMPI PUSH1 0x5 SHL PUSH1 0x20 ADD SWAP1 JUMP JUMPDEST PUSH1 0x40 MLOAD SWAP1 PUSH2 0x19A4 DUP3 PUSH2 0x14D8 JUMP JUMPDEST PUSH0 PUSH1 0x40 DUP4 DUP3 DUP2 MSTORE DUP3 PUSH1 0x20 DUP3 ADD MSTORE ADD MSTORE JUMP JUMPDEST DUP1 MLOAD DUP3 LT ISZERO PUSH2 0x19C9 JUMPI PUSH1 0x20 SWAP2 PUSH1 0x5 SHL ADD ADD SWAP1 JUMP JUMPDEST PUSH4 0x4E487B71 PUSH1 0xE0 SHL PUSH0 MSTORE PUSH1 0x32 PUSH1 0x4 MSTORE PUSH1 0x24 PUSH0 REVERT JUMPDEST SWAP1 PUSH1 0x40 MLOAD PUSH2 0x19EA DUP2 PUSH2 0x14D8 JUMP JUMPDEST PUSH1 0x40 PUSH1 0xFF PUSH1 0x2 DUP4 SWAP6 DUP1 SLOAD DUP6 MSTORE PUSH1 0x1 DUP2 ADD SLOAD PUSH1 0x20 DUP7 ADD MSTORE ADD SLOAD AND ISZERO ISZERO SWAP2 ADD MSTORE JUMP JUMPDEST PUSH1 0x2 PUSH1 0x40 PUSH2 0x1A37 SWAP4 DUP1 MLOAD DUP5 SSTORE PUSH1 0x20 DUP2 ADD MLOAD PUSH1 0x1 DUP6 ADD SSTORE ADD MLOAD ISZERO ISZERO SWAP2 ADD SWAP1 PUSH1 0xFF DUP1 NOT DUP4 SLOAD AND SWAP2 ISZERO ISZERO AND OR SWAP1 SSTORE JUMP JUMPDEST JUMP JUMPDEST SWAP2 SWAP1 SWAP2 PUSH0 DUP4 DUP3 ADD SWAP4 DUP5 SLT SWAP2 SLT SWAP1 DUP1 ISZERO DUP3 AND SWAP2 ISZERO AND OR PUSH2 0x1A54 JUMPI JUMP JUMPDEST PUSH4 0x4E487B71 PUSH1 0xE0 SHL PUSH0 MSTORE PUSH1 0x11 PUSH1 0x4 MSTORE PUSH1 0x24 PUSH0 REVERT JUMPDEST PUSH0 SLOAD PUSH1 0x1 PUSH1 0x1 PUSH1 0xA0 SHL SUB AND CALLER SUB PUSH2 0x1A7B JUMPI JUMP JUMPDEST PUSH1 0x40 MLOAD PUSH4 0x118CDAA7 PUSH1 0xE0 SHL DUP2 MSTORE CALLER PUSH1 0x4 DUP3 ADD MSTORE PUSH1 0x24 SWAP1 REVERT INVALID LOG2 PUSH5 0x6970667358 0x22 SLT KECCAK256 CREATE PUSH16 0x60F39E795B2A9B709E410006B3BFB52F PUSH11 0x7C028EC466C0A7573C75B7 MSTORE 0xB1 PUSH5 0x736F6C6343 STOP ADDMOD XOR STOP CALLER "},"methodIdentifiers":{"attachEnchantment(uint256,uint256,uint256,uint256)":"744c22aa","attachMateria(uint256,uint256,uint256,uint256)":"755a9681","authorizedCallers(address)":"536fff6c","cityEnchantments()":"0f081030","cityMateria()":"5e8f1b7c","cityWeapons()":"ccde8c86","enchantmentSlotOfWeapon(uint256,uint256)":"256740de","getAllEnchantments(uint256)":"09cd1733","getAllMateria(uint256)":"e6d8dbe4","getEnchantmentAtSlot(uint256,uint256)":"1ae9e7de","getMateriaAtSlot(uint256,uint256)":"dcae5c5d","getTotalBonuses(uint256)":"e4551bf3","materiaSlotOfWeapon(uint256,uint256)":"0d8995d8","owner()":"8da5cb5b","removeEnchantment(uint256,uint256)":"172c8470","removeMateria(uint256,uint256)":"7bf55481","renounceOwnership()":"715018a6","setAuthorizedCaller(address,bool)":"454bbd29","transferOwnership(address)":"f2fde38b"}}}}}