{
  "_format": "hh3-artifact-1",
  "contractName": "CityMarketplace",
  "sourceName": "contracts/economy/CityMarketplace.sol",
  "abi": [
    {
      "inputs": [
        {
          "internalType": "address",
          "name": "initialOwner",
          "type": "address"
        },
        {
          "internalType": "address",
          "name": "cityConfigAddress",
          "type": "address"
        }
      ],
      "stateMutability": "nonpayable",
      "type": "constructor"
    },
    {
      "inputs": [],
      "name": "InvalidConfig",
      "type": "error"
    },
    {
      "inputs": [],
      "name": "InvalidValue",
      "type": "error"
    },
    {
      "inputs": [],
      "name": "NotAuthorized",
      "type": "error"
    },
    {
      "inputs": [
        {
          "internalType": "address",
          "name": "owner",
          "type": "address"
        }
      ],
      "name": "OwnableInvalidOwner",
      "type": "error"
    },
    {
      "inputs": [
        {
          "internalType": "address",
          "name": "account",
          "type": "address"
        }
      ],
      "name": "OwnableUnauthorizedAccount",
      "type": "error"
    },
    {
      "inputs": [],
      "name": "ZeroAddress",
      "type": "error"
    },
    {
      "anonymous": false,
      "inputs": [
        {
          "indexed": true,
          "internalType": "uint256",
          "name": "listingId",
          "type": "uint256"
        }
      ],
      "name": "ListingCancelled",
      "type": "event"
    },
    {
      "anonymous": false,
      "inputs": [
        {
          "indexed": true,
          "internalType": "uint256",
          "name": "listingId",
          "type": "uint256"
        },
        {
          "indexed": true,
          "internalType": "address",
          "name": "seller",
          "type": "address"
        },
        {
          "indexed": true,
          "internalType": "uint256",
          "name": "resourceId",
          "type": "uint256"
        },
        {
          "indexed": false,
          "internalType": "uint256",
          "name": "amount",
          "type": "uint256"
        },
        {
          "indexed": false,
          "internalType": "uint256",
          "name": "unitPrice",
          "type": "uint256"
        },
        {
          "indexed": false,
          "internalType": "enum CityMarketplace.PaymentToken",
          "name": "paymentToken",
          "type": "uint8"
        }
      ],
      "name": "ListingCreated",
      "type": "event"
    },
    {
      "anonymous": false,
      "inputs": [
        {
          "indexed": true,
          "internalType": "uint256",
          "name": "listingId",
          "type": "uint256"
        },
        {
          "indexed": true,
          "internalType": "address",
          "name": "buyer",
          "type": "address"
        },
        {
          "indexed": false,
          "internalType": "uint256",
          "name": "amount",
          "type": "uint256"
        },
        {
          "indexed": false,
          "internalType": "uint256",
          "name": "totalPrice",
          "type": "uint256"
        }
      ],
      "name": "ListingPurchased",
      "type": "event"
    },
    {
      "anonymous": false,
      "inputs": [
        {
          "indexed": true,
          "internalType": "address",
          "name": "previousOwner",
          "type": "address"
        },
        {
          "indexed": true,
          "internalType": "address",
          "name": "newOwner",
          "type": "address"
        }
      ],
      "name": "OwnershipTransferred",
      "type": "event"
    },
    {
      "inputs": [
        {
          "internalType": "uint256",
          "name": "listingId",
          "type": "uint256"
        },
        {
          "internalType": "uint256",
          "name": "amountToBuy",
          "type": "uint256"
        }
      ],
      "name": "buyListing",
      "outputs": [],
      "stateMutability": "nonpayable",
      "type": "function"
    },
    {
      "inputs": [
        {
          "internalType": "uint256",
          "name": "listingId",
          "type": "uint256"
        }
      ],
      "name": "cancelListing",
      "outputs": [],
      "stateMutability": "nonpayable",
      "type": "function"
    },
    {
      "inputs": [],
      "name": "cityConfig",
      "outputs": [
        {
          "internalType": "contract CityConfig",
          "name": "",
          "type": "address"
        }
      ],
      "stateMutability": "view",
      "type": "function"
    },
    {
      "inputs": [
        {
          "internalType": "uint256",
          "name": "resourceId",
          "type": "uint256"
        },
        {
          "internalType": "uint256",
          "name": "amount",
          "type": "uint256"
        },
        {
          "internalType": "uint256",
          "name": "unitPrice",
          "type": "uint256"
        },
        {
          "internalType": "enum CityMarketplace.PaymentToken",
          "name": "paymentToken",
          "type": "uint8"
        }
      ],
      "name": "createListing",
      "outputs": [
        {
          "internalType": "uint256",
          "name": "listingId",
          "type": "uint256"
        }
      ],
      "stateMutability": "nonpayable",
      "type": "function"
    },
    {
      "inputs": [
        {
          "internalType": "address",
          "name": "seller",
          "type": "address"
        }
      ],
      "name": "getSellerListings",
      "outputs": [
        {
          "internalType": "uint256[]",
          "name": "",
          "type": "uint256[]"
        }
      ],
      "stateMutability": "view",
      "type": "function"
    },
    {
      "inputs": [
        {
          "internalType": "uint256",
          "name": "",
          "type": "uint256"
        }
      ],
      "name": "listingOf",
      "outputs": [
        {
          "internalType": "uint256",
          "name": "id",
          "type": "uint256"
        },
        {
          "internalType": "address",
          "name": "seller",
          "type": "address"
        },
        {
          "internalType": "uint256",
          "name": "resourceId",
          "type": "uint256"
        },
        {
          "internalType": "uint256",
          "name": "amount",
          "type": "uint256"
        },
        {
          "internalType": "uint256",
          "name": "unitPrice",
          "type": "uint256"
        },
        {
          "internalType": "enum CityMarketplace.PaymentToken",
          "name": "paymentToken",
          "type": "uint8"
        },
        {
          "internalType": "bool",
          "name": "active",
          "type": "bool"
        }
      ],
      "stateMutability": "view",
      "type": "function"
    },
    {
      "inputs": [
        {
          "internalType": "address",
          "name": "",
          "type": "address"
        },
        {
          "internalType": "uint256",
          "name": "",
          "type": "uint256"
        }
      ],
      "name": "listingsBySeller",
      "outputs": [
        {
          "internalType": "uint256",
          "name": "",
          "type": "uint256"
        }
      ],
      "stateMutability": "view",
      "type": "function"
    },
    {
      "inputs": [],
      "name": "nextListingId",
      "outputs": [
        {
          "internalType": "uint256",
          "name": "",
          "type": "uint256"
        }
      ],
      "stateMutability": "view",
      "type": "function"
    },
    {
      "inputs": [
        {
          "internalType": "address",
          "name": "",
          "type": "address"
        },
        {
          "internalType": "address",
          "name": "",
          "type": "address"
        },
        {
          "internalType": "uint256[]",
          "name": "",
          "type": "uint256[]"
        },
        {
          "internalType": "uint256[]",
          "name": "",
          "type": "uint256[]"
        },
        {
          "internalType": "bytes",
          "name": "",
          "type": "bytes"
        }
      ],
      "name": "onERC1155BatchReceived",
      "outputs": [
        {
          "internalType": "bytes4",
          "name": "",
          "type": "bytes4"
        }
      ],
      "stateMutability": "nonpayable",
      "type": "function"
    },
    {
      "inputs": [
        {
          "internalType": "address",
          "name": "",
          "type": "address"
        },
        {
          "internalType": "address",
          "name": "",
          "type": "address"
        },
        {
          "internalType": "uint256",
          "name": "",
          "type": "uint256"
        },
        {
          "internalType": "uint256",
          "name": "",
          "type": "uint256"
        },
        {
          "internalType": "bytes",
          "name": "",
          "type": "bytes"
        }
      ],
      "name": "onERC1155Received",
      "outputs": [
        {
          "internalType": "bytes4",
          "name": "",
          "type": "bytes4"
        }
      ],
      "stateMutability": "nonpayable",
      "type": "function"
    },
    {
      "inputs": [],
      "name": "owner",
      "outputs": [
        {
          "internalType": "address",
          "name": "",
          "type": "address"
        }
      ],
      "stateMutability": "view",
      "type": "function"
    },
    {
      "inputs": [],
      "name": "renounceOwnership",
      "outputs": [],
      "stateMutability": "nonpayable",
      "type": "function"
    },
    {
      "inputs": [
        {
          "internalType": "bytes4",
          "name": "interfaceId",
          "type": "bytes4"
        }
      ],
      "name": "supportsInterface",
      "outputs": [
        {
          "internalType": "bool",
          "name": "",
          "type": "bool"
        }
      ],
      "stateMutability": "view",
      "type": "function"
    },
    {
      "inputs": [
        {
          "internalType": "address",
          "name": "newOwner",
          "type": "address"
        }
      ],
      "name": "transferOwnership",
      "outputs": [],
      "stateMutability": "nonpayable",
      "type": "function"
    }
  ],
  "bytecode": "0x60a03461011657601f6112e438819003918201601f19168301916001600160401b0383118484101761011a57808492604094855283398101031261011657610052602061004b8361012e565b920161012e565b6001600160a01b03918216919082156100fe575f80546001600160a01b03198116851782556040519491908416907f8be0079c531659141344cd1fd0a4f28419497f9722a3daafe3b4186f6b6457e09080a360018055169081156100ef57506080526040516111a19081610143823960805181818161031c0152818161079f0152818161087401528181610aae01528181610d290152610eeb0152f35b63d92e233d60e01b8152600490fd5b604051631e4fbdf760e01b81525f6004820152602490fd5b5f80fd5b634e487b7160e01b5f52604160045260245ffd5b51906001600160a01b03821682036101165756fe6080806040526004361015610012575f80fd5b5f905f3560e01c90816301ffc9a714610f1a575080630eac48f114610ed657806315cb634114610e7e578063305a67a814610cc55780635f42da0914610c175780636d0ba1d314610712578063715018a6146106b95780638da5cb5b14610692578063a571b159146102cf578063aaccf1ec146102b1578063bc197c8114610223578063e3404981146101a2578063f23a6e61146101475763f2fde38b146100b8575f80fd5b34610144576020366003190112610144576100d1610f6d565b6100d9611140565b6001600160a01b0390811690811561012b575f54826bffffffffffffffffffffffff60a01b8216175f55167f8be0079c531659141344cd1fd0a4f28419497f9722a3daafe3b4186f6b6457e05f80a380f35b604051631e4fbdf760e01b815260048101849052602490fd5b80fd5b50346101445760a036600319011261014457610161610f6d565b5061016a610f83565b5060843567ffffffffffffffff811161019e5761018b90369060040161105f565b5060405163f23a6e6160e01b8152602090f35b5080fd5b503461014457602036600319011261014457604060e091600435815260026020522060ff81549160018060a01b036001820154169060028101546003820154906005600484015493015493604051968752602087015260408601526060850152608084015261021660a084018383166110b5565b60081c16151560c0820152f35b50346101445760a03660031901126101445761023d610f6d565b50610246610f83565b5067ffffffffffffffff6044358181116102ad57610268903690600401610ff8565b506064358181116102ad57610281903690600401610ff8565b5060843590811161019e5761029a90369060040161105f565b5060405163bc197c8160e01b8152602090f35b8280fd5b50346101445780600319360112610144576020600154604051908152f35b5034610144576080366003190112610144576003606435101561014457602435158015610688575b610667575f6001606435141580610679575b61066757604051635bc9316b60e11b81527f00000000000000000000000000000000000000000000000000000000000000006001600160a01b031690602081600481855afa801561065c578490610625575b60209150602460405180948193630763334160e21b835260048301525afa90811561061a5783916105eb575b506001600160a01b031680156105d9578083913b1561019e57816040518092637921219560e11b82528183816103c76024356004353033600486016110f5565b03925af180156105ce576105ba575b5050600154905f1982146105a657600182016001556040519060e0820182811067ffffffffffffffff8211176105925760405282825233602083015260043560408301526024356060830152604435608083015261057e5760643560a082015260c0810160018152828452600260205260a06005604086208451815560018101600180851b036020870151166bffffffffffffffffffffffff851b8254161790556040850151600282015560608501516003820155608085015160048201550192015190600382101561056a5760ff61ff0084549251151560081b1692169061ffff191617179055338252600360205260408220805492680100000000000000008410156105565750826104f1916001602095018155610f99565b81549060031b9083821b915f19901b1916179055604051602435815260443583820152610523604082016064356110b5565b60043590827f9dba5496616da0db5a2af365d501857a9ab59ce6f9edb3b7696364006f82887c60603393a4604051908152f35b634e487b7160e01b81526041600452602490fd5b634e487b7160e01b85526021600452602485fd5b634e487b7160e01b83526021600452602483fd5b634e487b7160e01b5f52604160045260245ffd5b634e487b7160e01b83526011600452602483fd5b6105c390610fc2565b61019e57815f6103d6565b6040513d84823e3d90fd5b6040516306b7c75960e31b8152600490fd5b61060d915060203d602011610613575b6106058183610fd6565b8101906110d6565b5f610387565b503d6105fb565b6040513d85823e3d90fd5b506020813d602011610654575b8161063f60209383610fd6565b81010312610650576020905161035b565b5f80fd5b3d9150610632565b6040513d86823e3d90fd5b604051632a9ffab760e21b8152600490fd5b50505f60026064351415610309565b50604435156102f7565b5034610144578060031936011261014457546040516001600160a01b039091168152602090f35b50346101445780600319360112610144576106d2611140565b5f80546001600160a01b0319811682556001600160a01b03167f8be0079c531659141344cd1fd0a4f28419497f9722a3daafe3b4186f6b6457e08280a380f35b5034610144576040366003190112610144576004356024908135918184526020600281526040852091600583019081549360ff8560081c161561066757861594858015610c0a575b6106675760048201549586890296898804141715610bf75760ff166003811015610be45760018103610a8f575060405163e67d036160e01b81526001600160a01b03907f00000000000000000000000000000000000000000000000000000000000000008216908681600481855afa8015610a005787918c91610a60575b508560405180948193630763334160e21b835260048301525afa80156109c65782918b91610a43575b501680156105d95760018301546040516323b872dd60e01b815233600482015292166001600160a01b031660248301526044820187905285908290818c816064810103925af1908115610a38578991610a0b575b5015610667575b604051635bc9316b60e11b81526001600160a01b03907f00000000000000000000000000000000000000000000000000000000000000008216908681600481855afa8015610a005787918c916109d1575b508560405180948193630763334160e21b835260048301525afa9081156109c6578a916109a9575b501680156105d95760028201548991803b156102ad578983916109119383604051809681958294637921219560e11b84523330600486016110f5565b03925af180156105ce57610991575b5050600301908154918783039183831161097f5750558514610970575b506040519384528301527f0db6cd6881fc0453b2d01f52eb5a16417707659f245732abc10f847426e3525d60403393a380f35b805461ff00191690555f61093d565b634e487b7160e01b8a52601160045289fd5b61099a90610fc2565b6109a557875f610920565b8780fd5b6109c09150863d8811610613576106058183610fd6565b5f6108d5565b6040513d8c823e3d90fd5b82819392503d83116109f9575b6109e88183610fd6565b81010312610650578690515f6108ad565b503d6109de565b6040513d8d823e3d90fd5b610a2b9150853d8711610a31575b610a238183610fd6565b810190611128565b5f610855565b503d610a19565b6040513d8b823e3d90fd5b610a5a9150873d8911610613576106058183610fd6565b5f610801565b82819392503d8311610a88575b610a778183610fd6565b81010312610650578690515f6107d8565b503d610a6d565b600203610667576040516312ad385560e21b81526001600160a01b03907f00000000000000000000000000000000000000000000000000000000000000008216908681600481855afa8015610a005787918c91610bb5575b508560405180948193630763334160e21b835260048301525afa80156109c65782918b91610b98575b501680156105d95760018301546040516323b872dd60e01b815233600482015292166001600160a01b031660248301526044820187905285908290818c816064810103925af1908115610a38578991610b7b575b5061085c57604051632a9ffab760e21b8152600490fd5b610b929150853d8711610a3157610a238183610fd6565b5f610b64565b610baf9150873d8911610613576106058183610fd6565b5f610b10565b82819392503d8311610bdd575b610bcc8183610fd6565b81010312610650578690515f610ae7565b503d610bc2565b634e487b7160e01b895260216004528289fd5b634e487b7160e01b895260116004528289fd5b506003820154881161075a565b50346101445760208060031936011261019e576001600160a01b03610c3a610f6d565b168252600381526040822060405192838383549182815201908193835284832090835b818110610cb15750505084610c73910385610fd6565b60405193838594850191818652518092526040850193925b828110610c9a57505050500390f35b835185528695509381019392810192600101610c8b565b825484529286019260019283019201610c5d565b5034610650576020806003193601126106505760043590815f526002815260405f2090600582019081549160ff8360081c16156106675760018401546001600160a01b03939084163303610e6c5761ff0019169055604051635bc9316b60e11b81527f00000000000000000000000000000000000000000000000000000000000000008316908281600481855afa8015610e155783915f91610e3d575b50602460405180948193630763334160e21b835260048301525afa918215610e15575f92610e20575b5050169081156105d95760036002820154910154823b1561065057610dcb925f9283604051809681958294637921219560e11b84523330600486016110f5565b03925af18015610e1557610e02575b507f411aee90354c51b1b04cd563fcab2617142a9d50da19232d888547c8a1b7fd8a8280a280f35b610e0d919250610fc2565b5f905f610dda565b6040513d5f823e3d90fd5b610e369250803d10610613576106058183610fd6565b5f80610d8b565b82819392503d8311610e65575b610e548183610fd6565b81010312610650578290515f610d62565b503d610e4a565b60405163ea8e4eb560e01b8152600490fd5b3461065057604036600319011261065057610e97610f6d565b6001600160a01b03165f9081526003602052604090208054602435919082101561065057602091610ec791610f99565b90549060031b1c604051908152f35b34610650575f366003190112610650576040517f00000000000000000000000000000000000000000000000000000000000000006001600160a01b03168152602090f35b34610650576020366003190112610650576004359063ffffffff60e01b821680920361065057602091630271189760e51b8114908115610f5c575b5015158152f35b6301ffc9a760e01b14905083610f55565b600435906001600160a01b038216820361065057565b602435906001600160a01b038216820361065057565b8054821015610fae575f5260205f2001905f90565b634e487b7160e01b5f52603260045260245ffd5b67ffffffffffffffff811161059257604052565b90601f8019910116810190811067ffffffffffffffff82111761059257604052565b81601f820112156106505780359160209167ffffffffffffffff8411610592578360051b906040519461102d85840187610fd6565b85528380860192820101928311610650578301905b828210611050575050505090565b81358152908301908301611042565b81601f820112156106505780359067ffffffffffffffff82116105925760405192611094601f8401601f191660200185610fd6565b8284526020838301011161065057815f926020809301838601378301015290565b9060038210156110c25752565b634e487b7160e01b5f52602160045260245ffd5b9081602091031261065057516001600160a01b03811681036106505790565b929060c0949260018060a01b0380921685521660208401526040830152606082015260a060808201525f60a08201520190565b90816020910312610650575180151581036106505790565b5f546001600160a01b0316330361115357565b60405163118cdaa760e01b8152336004820152602490fdfea2646970667358221220322abd5bc7266a9475dfa6a694a1f1232c7018f2c6bd5833db0654b228c09e5864736f6c63430008180033",
  "linkReferences": {},
  "deployedLinkReferences": {},
  "immutableReferences": {
    "12087": [
      {
        "length": 32,
        "start": 796
      },
      {
        "length": 32,
        "start": 1951
      },
      {
        "length": 32,
        "start": 2164
      },
      {
        "length": 32,
        "start": 2734
      },
      {
        "length": 32,
        "start": 3369
      },
      {
        "length": 32,
        "start": 3819
      }
    ]
  },
  "inputSourceName": "project/contracts/economy/CityMarketplace.sol",
  "buildInfoId": "solc-0_8_24-90f08512514c10fea11d8b9e622040087f7e9bcc"
}