{
  "_format": "hh3-artifact-1",
  "contractName": "PersonalBuildings",
  "sourceName": "contracts/buildings/PersonalBuildings.sol",
  "abi": [
    {
      "inputs": [
        {
          "internalType": "address",
          "name": "initialOwner",
          "type": "address"
        },
        {
          "internalType": "address",
          "name": "cityConfigAddress",
          "type": "address"
        },
        {
          "internalType": "address",
          "name": "cityRegistryAddress",
          "type": "address"
        },
        {
          "internalType": "address",
          "name": "cityLandAddress",
          "type": "address"
        }
      ],
      "stateMutability": "nonpayable",
      "type": "constructor"
    },
    {
      "inputs": [],
      "name": "InvalidPlotType",
      "type": "error"
    },
    {
      "inputs": [],
      "name": "InvalidValue",
      "type": "error"
    },
    {
      "inputs": [],
      "name": "NotPlotOwner",
      "type": "error"
    },
    {
      "inputs": [
        {
          "internalType": "address",
          "name": "owner",
          "type": "address"
        }
      ],
      "name": "OwnableInvalidOwner",
      "type": "error"
    },
    {
      "inputs": [
        {
          "internalType": "address",
          "name": "account",
          "type": "address"
        }
      ],
      "name": "OwnableUnauthorizedAccount",
      "type": "error"
    },
    {
      "inputs": [],
      "name": "ZeroAddress",
      "type": "error"
    },
    {
      "anonymous": false,
      "inputs": [
        {
          "indexed": true,
          "internalType": "uint256",
          "name": "buildingId",
          "type": "uint256"
        },
        {
          "indexed": false,
          "internalType": "string",
          "name": "name",
          "type": "string"
        },
        {
          "indexed": false,
          "internalType": "enum CityTypes.PlotType",
          "name": "allowedPlotType",
          "type": "uint8"
        },
        {
          "indexed": false,
          "internalType": "bool",
          "name": "enabled",
          "type": "bool"
        }
      ],
      "name": "BuildingDefinitionSet",
      "type": "event"
    },
    {
      "anonymous": false,
      "inputs": [
        {
          "indexed": true,
          "internalType": "address",
          "name": "previousOwner",
          "type": "address"
        },
        {
          "indexed": true,
          "internalType": "address",
          "name": "newOwner",
          "type": "address"
        }
      ],
      "name": "OwnershipTransferred",
      "type": "event"
    },
    {
      "anonymous": false,
      "inputs": [
        {
          "indexed": true,
          "internalType": "uint256",
          "name": "plotId",
          "type": "uint256"
        },
        {
          "indexed": true,
          "internalType": "uint256",
          "name": "buildingId",
          "type": "uint256"
        }
      ],
      "name": "PersonalBuildingPlaced",
      "type": "event"
    },
    {
      "anonymous": false,
      "inputs": [
        {
          "indexed": true,
          "internalType": "uint256",
          "name": "plotId",
          "type": "uint256"
        },
        {
          "indexed": false,
          "internalType": "uint256",
          "name": "newLevel",
          "type": "uint256"
        }
      ],
      "name": "PersonalBuildingUpgraded",
      "type": "event"
    },
    {
      "inputs": [
        {
          "internalType": "uint256",
          "name": "",
          "type": "uint256"
        }
      ],
      "name": "buildingOfPlot",
      "outputs": [
        {
          "internalType": "uint256",
          "name": "buildingId",
          "type": "uint256"
        },
        {
          "internalType": "uint256",
          "name": "level",
          "type": "uint256"
        },
        {
          "internalType": "bool",
          "name": "exists",
          "type": "bool"
        }
      ],
      "stateMutability": "view",
      "type": "function"
    },
    {
      "inputs": [],
      "name": "cityConfig",
      "outputs": [
        {
          "internalType": "contract CityConfig",
          "name": "",
          "type": "address"
        }
      ],
      "stateMutability": "view",
      "type": "function"
    },
    {
      "inputs": [],
      "name": "cityLand",
      "outputs": [
        {
          "internalType": "contract ICityLand",
          "name": "",
          "type": "address"
        }
      ],
      "stateMutability": "view",
      "type": "function"
    },
    {
      "inputs": [],
      "name": "cityRegistry",
      "outputs": [
        {
          "internalType": "contract CityRegistry",
          "name": "",
          "type": "address"
        }
      ],
      "stateMutability": "view",
      "type": "function"
    },
    {
      "inputs": [
        {
          "internalType": "uint256",
          "name": "buildingId",
          "type": "uint256"
        }
      ],
      "name": "getBuildingDefinition",
      "outputs": [
        {
          "components": [
            {
              "internalType": "uint256",
              "name": "id",
              "type": "uint256"
            },
            {
              "internalType": "string",
              "name": "name",
              "type": "string"
            },
            {
              "internalType": "enum CityTypes.PlotType",
              "name": "allowedPlotType",
              "type": "uint8"
            },
            {
              "internalType": "uint256",
              "name": "oilCost",
              "type": "uint256"
            },
            {
              "internalType": "uint256",
              "name": "lemonsCost",
              "type": "uint256"
            },
            {
              "internalType": "uint256",
              "name": "ironCost",
              "type": "uint256"
            },
            {
              "internalType": "uint256",
              "name": "goldCost",
              "type": "uint256"
            },
            {
              "internalType": "bool",
              "name": "enabled",
              "type": "bool"
            }
          ],
          "internalType": "struct CityBuildings.BuildingDefinition",
          "name": "",
          "type": "tuple"
        }
      ],
      "stateMutability": "view",
      "type": "function"
    },
    {
      "inputs": [],
      "name": "owner",
      "outputs": [
        {
          "internalType": "address",
          "name": "",
          "type": "address"
        }
      ],
      "stateMutability": "view",
      "type": "function"
    },
    {
      "inputs": [
        {
          "internalType": "uint256",
          "name": "plotId",
          "type": "uint256"
        },
        {
          "internalType": "uint256",
          "name": "buildingId",
          "type": "uint256"
        }
      ],
      "name": "placeBuilding",
      "outputs": [],
      "stateMutability": "nonpayable",
      "type": "function"
    },
    {
      "inputs": [],
      "name": "renounceOwnership",
      "outputs": [],
      "stateMutability": "nonpayable",
      "type": "function"
    },
    {
      "inputs": [
        {
          "internalType": "uint256",
          "name": "buildingId",
          "type": "uint256"
        },
        {
          "internalType": "string",
          "name": "name",
          "type": "string"
        },
        {
          "internalType": "enum CityTypes.PlotType",
          "name": "allowedPlotType",
          "type": "uint8"
        },
        {
          "internalType": "uint256",
          "name": "oilCost",
          "type": "uint256"
        },
        {
          "internalType": "uint256",
          "name": "lemonsCost",
          "type": "uint256"
        },
        {
          "internalType": "uint256",
          "name": "ironCost",
          "type": "uint256"
        },
        {
          "internalType": "uint256",
          "name": "goldCost",
          "type": "uint256"
        },
        {
          "internalType": "bool",
          "name": "enabled",
          "type": "bool"
        }
      ],
      "name": "setBuildingDefinition",
      "outputs": [],
      "stateMutability": "nonpayable",
      "type": "function"
    },
    {
      "inputs": [
        {
          "internalType": "address",
          "name": "newOwner",
          "type": "address"
        }
      ],
      "name": "transferOwnership",
      "outputs": [],
      "stateMutability": "nonpayable",
      "type": "function"
    },
    {
      "inputs": [
        {
          "internalType": "uint256",
          "name": "plotId",
          "type": "uint256"
        }
      ],
      "name": "upgradeBuilding",
      "outputs": [],
      "stateMutability": "nonpayable",
      "type": "function"
    }
  ],
  "bytecode": "0x60c0346200016657601f6200102138819003918201601f19168301916001600160401b038311848410176200016a5780849260809460405283398101031262000166576200004d816200017e565b6200005b602083016200017e565b9162000078606062000070604084016200017e565b92016200017e565b6001600160a01b039283169390919084156200014e57835f549160018060a01b03199680888516175f558260405194167f8be0079c531659141344cd1fd0a4f28419497f9722a3daafe3b4186f6b6457e05f80a316908115801562000143575b801562000138575b6200012957509083916080521660a05216906001541617600155604051610e8d908162000194823960805181610c45015260a05181818160aa0152818161021601526105410152f35b63d92e233d60e01b8152600490fd5b5084841615620000e0565b5084831615620000d8565b604051631e4fbdf760e01b81525f6004820152602490fd5b5f80fd5b634e487b7160e01b5f52604160045260245ffd5b51906001600160a01b0382168203620001665756fe60806040908082526004361015610014575f80fd5b5f3560e01c9081630eac48f114610c33575080635a497dc514610906578063715018a6146108af578063849a9c181461051e5780638da5cb5b146104f7578063a76a8d5f14610331578063b98a5b71146101d8578063dace6b8e14610192578063e140bbcf1461016a578063f2fde38b146100dd5763f38d825614610097575f80fd5b346100d9575f3660031901126100d957517f00000000000000000000000000000000000000000000000000000000000000006001600160a01b03168152602090f35b5f80fd5b50346100d95760203660031901126100d9576001600160a01b0360043581811692908390036100d95761010e610e2c565b821561015457505f54826bffffffffffffffffffffffff60a01b8216175f55167f8be0079c531659141344cd1fd0a4f28419497f9722a3daafe3b4186f6b6457e05f80a3005b51631e4fbdf760e01b81525f6004820152602490fd5b50346100d9575f3660031901126100d95760015490516001600160a01b039091168152602090f35b50346100d95760203660031901126100d9576060906004355f526003602052805f209081549160ff60026001830154920154169082519384526020840152151590820152f35b50346100d95760203660031901126100d95780516325ca451760e01b81526004803590820181905291906001600160a01b03906101209081816024817f000000000000000000000000000000000000000000000000000000000000000087165afa9182156103275790608092915f926102fa575b505001511633036102ea57815f52600360205260ff6002825f20015416156102da57815f5260036020526001815f2001805491600183018093116102c6577f48545a476001721fb65169939b7956f1f8b52e4e4a30cefcac3e0eff619418b09260209255835f52600382526001815f2001549051908152a2005b634e487b7160e01b5f52601160045260245ffd5b51632a9ffab760e21b8152600490fd5b5163f583bd1560e01b8152600490fd5b6103199250803d10610320575b6103118183610c9e565b810190610d22565b5f8061024c565b503d610307565b84513d5f823e3d90fd5b50346100d957602090816003193601126100d95761034d610def565b506004355f5260028252805f209080519161036783610c81565b80548352600191846001830182519485915f9181549161038683610ccc565b80865292600181169081156104d45750600114610496575b5050506103ad92500384610c9e565b84840192835260ff600283015416926103c98286019485610cc0565b6003830154926060860193845260048101546080870190815260058201549060a0880191825260ff600760068501549460c08b019586520154169360e0890194151585528551988a8a52518a8a0152519561010080968a0152865196876101208b01525f5b88811061048157505088995061045461014099985f8b8a8c0101525160608a0190610c74565b5160808801525160a08701525160c08601525160e085015251151590830152601f01601f19168101030190f35b8181018c01518b820161014001528b0161042e565b5f90815285812095935091905b8183106104bc5750899450508201016103ad5f8061039e565b855489840185015294850194889450918301916104a3565b925050506103ad94925060ff191682840152151560051b82010187925f8061039e565b50346100d9575f3660031901126100d9575f5490516001600160a01b039091168152602090f35b50346100d957806003193601126100d957600435602480359260018060a01b03807f000000000000000000000000000000000000000000000000000000000000000016918051916325ca451760e01b938484528660048501526101209485858881855afa948515610327579086915f96610890575b508785518094819382528b60048301525afa948515610886575f95610867575b505060208094015192600484101561085457600180940361077b57858583865416855192838092638a806b4160e01b82528c60048301525afa908115610327575f9161081f575b501561080e57610608610def565b50875f5260028552825f20835161061e81610c81565b81548152858201855190815f82549261063684610ccc565b938484528c8c821691825f146107ee5750506001146107b0575b5061065d92500382610c9e565b8782015260ff6007816002850154169361067a8885019586610cc0565b6003810154606085015260048101546080850152600581015460a0850152600681015460c0850152015416159060e0821591015261079f5751600481101561078c57840361077b57608001511633036102ea57845f526003835260ff6002825f200154166102da57805193606085019085821067ffffffffffffffff831117610768575091816002936107429695935287855282850190828252600381870194848652895f52525f2094518555519084015551151591019060ff801983541691151516179055565b7f4d8650f9beb89d3c72085930e8ed39802a80550d5c81f2e569d27519daaf938d5f80a3005b634e487b7160e01b5f9081526041600452fd5b825163162cf74b60e01b8152600490fd5b86634e487b7160e01b5f5260216004525ffd5b8351632a9ffab760e21b8152600490fd5b9150505f528189805f208a5f915b8583106107d557505061065d93508201015f610650565b8091929450548385880101520191018a908a85936107be565b60ff19168582015261065d95151560051b85010192505f91506106509050565b8251632a9ffab760e21b8152600490fd5b90508581813d831161084d575b6108368183610c9e565b810103126100d95761084790610d15565b5f6105fa565b503d61082c565b85634e487b7160e01b5f5260216004525ffd5b61087e929550803d10610320576103118183610c9e565b925f806105b3565b83513d5f823e3d90fd5b6108a8919650823d8411610320576103118183610c9e565b945f610593565b346100d9575f3660031901126100d9576108c7610e2c565b5f80546001600160a01b0319811682556001600160a01b03167f8be0079c531659141344cd1fd0a4f28419497f9722a3daafe3b4186f6b6457e08280a3005b50346100d9576101003660031901126100d9576004359060243567ffffffffffffffff918282116100d957366023830112156100d9578160040135918383116100d957602481019060248436920101116100d9576044359160048310156100d95760e4358015158091036100d95761097c610e2c565b8615610c22578415610c22578315610c115781519161099a83610c81565b878352601f19601f870116928151976109b6602086018a610c9e565b878952878660208b01375f6020898b010152602082019889526109db87848401610cc0565b6064356060830152608435608083015260a43560a083015260c43560c08301528360e0830152895f526002602052825f209882518a55518051918211610bfd578190610a2a60018c0154610ccc565b601f8111610baa575b50602090601f8311600114610b3c575f92610b31575b50508160011b915f199060031b1c19161760018901555b600288019582820151916004831015610b1d577f3ba954c99ef139995f646bf4735c5bb5a1e5bac490eb1478ae40de99649b601499600760e0610aee9360809b610b129760ff80198354169116179055606081015160038501558b810151600485015560a0810151600585015560c081015160068501550151151591019060ff801983541691151516179055565b5f878985519a8b9960608b528160608c0152838b0137880101526020860190610c74565b8301528101030190a2005b634e487b7160e01b5f52602160045260245ffd5b015190505f80610a49565b925060018b015f5260205f20905f935b601f1984168510610b8f576001945083601f19811610610b77575b505050811b016001890155610a60565b01515f1960f88460031b161c191690555f8080610b67565b81810151835560209485019460019093019290910190610b4c565b90915060018b015f5260205f20601f840160051c81019160208510610bf3575b90601f859493920160051c01905b818110610be55750610a33565b5f8155849350600101610bd8565b9091508190610bca565b634e487b7160e01b5f52604160045260245ffd5b815163162cf74b60e01b8152600490fd5b8151632a9ffab760e21b8152600490fd5b346100d9575f3660031901126100d9577f00000000000000000000000000000000000000000000000000000000000000006001600160a01b03168152602090f35b906004821015610b1d5752565b610100810190811067ffffffffffffffff821117610bfd57604052565b90601f8019910116810190811067ffffffffffffffff821117610bfd57604052565b6004821015610b1d5752565b90600182811c92168015610cfa575b6020831014610ce657565b634e487b7160e01b5f52602260045260245ffd5b91607f1691610cdb565b519063ffffffff821682036100d957565b519081151582036100d957565b809161012092839103126100d95760405191820167ffffffffffffffff9083811082821117610bfd5760405281518352602082015160048110156100d9576020840152604082015160048110156100d9576040840152606082015160068110156100d957606084015260808201516001600160a01b03811681036100d9576080840152610db160a08301610d04565b60a0840152610dc260c08301610d04565b60c084015260e082015190811681036100d95760e0830152610de8610100809201610d15565b9082015290565b60405190610dfc82610c81565b5f60e083828152606060208201528260408201528260608201528260808201528260a08201528260c08201520152565b5f546001600160a01b03163303610e3f57565b60405163118cdaa760e01b8152336004820152602490fdfea2646970667358221220cf24c932411e361156a07403953bea9fe51834303c602c29dbde30e72028fa4264736f6c63430008180033",
  "linkReferences": {},
  "deployedLinkReferences": {},
  "immutableReferences": {
    "7012": [
      {
        "length": 32,
        "start": 3141
      }
    ],
    "7015": [
      {
        "length": 32,
        "start": 170
      },
      {
        "length": 32,
        "start": 534
      },
      {
        "length": 32,
        "start": 1345
      }
    ]
  },
  "inputSourceName": "project/contracts/buildings/PersonalBuildings.sol",
  "buildInfoId": "solc-0_8_24-276329d14ae1be4537cc6d289127051ca8ea930b"
}