{
  "_format": "hh3-artifact-1",
  "contractName": "CityWeaponSockets",
  "sourceName": "contracts/crafting/CityWeaponSockets.sol",
  "abi": [
    {
      "inputs": [
        {
          "internalType": "address",
          "name": "initialOwner",
          "type": "address"
        },
        {
          "internalType": "address",
          "name": "cityWeaponsAddress",
          "type": "address"
        },
        {
          "internalType": "address",
          "name": "cityEnchantmentsAddress",
          "type": "address"
        },
        {
          "internalType": "address",
          "name": "cityMateriaAddress",
          "type": "address"
        }
      ],
      "stateMutability": "nonpayable",
      "type": "constructor"
    },
    {
      "inputs": [],
      "name": "InvalidValue",
      "type": "error"
    },
    {
      "inputs": [],
      "name": "NotAuthorized",
      "type": "error"
    },
    {
      "inputs": [
        {
          "internalType": "address",
          "name": "owner",
          "type": "address"
        }
      ],
      "name": "OwnableInvalidOwner",
      "type": "error"
    },
    {
      "inputs": [
        {
          "internalType": "address",
          "name": "account",
          "type": "address"
        }
      ],
      "name": "OwnableUnauthorizedAccount",
      "type": "error"
    },
    {
      "inputs": [],
      "name": "ZeroAddress",
      "type": "error"
    },
    {
      "anonymous": false,
      "inputs": [
        {
          "indexed": true,
          "internalType": "address",
          "name": "caller",
          "type": "address"
        },
        {
          "indexed": false,
          "internalType": "bool",
          "name": "allowed",
          "type": "bool"
        }
      ],
      "name": "AuthorizedCallerSet",
      "type": "event"
    },
    {
      "anonymous": false,
      "inputs": [
        {
          "indexed": true,
          "internalType": "uint256",
          "name": "tokenId",
          "type": "uint256"
        },
        {
          "indexed": true,
          "internalType": "uint256",
          "name": "slotIndex",
          "type": "uint256"
        },
        {
          "indexed": true,
          "internalType": "uint256",
          "name": "enchantmentId",
          "type": "uint256"
        },
        {
          "indexed": false,
          "internalType": "uint256",
          "name": "level",
          "type": "uint256"
        }
      ],
      "name": "EnchantmentAttached",
      "type": "event"
    },
    {
      "anonymous": false,
      "inputs": [
        {
          "indexed": true,
          "internalType": "uint256",
          "name": "tokenId",
          "type": "uint256"
        },
        {
          "indexed": true,
          "internalType": "uint256",
          "name": "slotIndex",
          "type": "uint256"
        }
      ],
      "name": "EnchantmentRemoved",
      "type": "event"
    },
    {
      "anonymous": false,
      "inputs": [
        {
          "indexed": true,
          "internalType": "uint256",
          "name": "tokenId",
          "type": "uint256"
        },
        {
          "indexed": true,
          "internalType": "uint256",
          "name": "slotIndex",
          "type": "uint256"
        },
        {
          "indexed": true,
          "internalType": "uint256",
          "name": "materiaId",
          "type": "uint256"
        },
        {
          "indexed": false,
          "internalType": "uint256",
          "name": "level",
          "type": "uint256"
        }
      ],
      "name": "MateriaAttached",
      "type": "event"
    },
    {
      "anonymous": false,
      "inputs": [
        {
          "indexed": true,
          "internalType": "uint256",
          "name": "tokenId",
          "type": "uint256"
        },
        {
          "indexed": true,
          "internalType": "uint256",
          "name": "slotIndex",
          "type": "uint256"
        }
      ],
      "name": "MateriaRemoved",
      "type": "event"
    },
    {
      "anonymous": false,
      "inputs": [
        {
          "indexed": true,
          "internalType": "address",
          "name": "previousOwner",
          "type": "address"
        },
        {
          "indexed": true,
          "internalType": "address",
          "name": "newOwner",
          "type": "address"
        }
      ],
      "name": "OwnershipTransferred",
      "type": "event"
    },
    {
      "inputs": [
        {
          "internalType": "uint256",
          "name": "tokenId",
          "type": "uint256"
        },
        {
          "internalType": "uint256",
          "name": "slotIndex",
          "type": "uint256"
        },
        {
          "internalType": "uint256",
          "name": "enchantmentId",
          "type": "uint256"
        },
        {
          "internalType": "uint256",
          "name": "level",
          "type": "uint256"
        }
      ],
      "name": "attachEnchantment",
      "outputs": [],
      "stateMutability": "nonpayable",
      "type": "function"
    },
    {
      "inputs": [
        {
          "internalType": "uint256",
          "name": "tokenId",
          "type": "uint256"
        },
        {
          "internalType": "uint256",
          "name": "slotIndex",
          "type": "uint256"
        },
        {
          "internalType": "uint256",
          "name": "materiaId",
          "type": "uint256"
        },
        {
          "internalType": "uint256",
          "name": "level",
          "type": "uint256"
        }
      ],
      "name": "attachMateria",
      "outputs": [],
      "stateMutability": "nonpayable",
      "type": "function"
    },
    {
      "inputs": [
        {
          "internalType": "address",
          "name": "",
          "type": "address"
        }
      ],
      "name": "authorizedCallers",
      "outputs": [
        {
          "internalType": "bool",
          "name": "",
          "type": "bool"
        }
      ],
      "stateMutability": "view",
      "type": "function"
    },
    {
      "inputs": [],
      "name": "cityEnchantments",
      "outputs": [
        {
          "internalType": "contract CityEnchantments",
          "name": "",
          "type": "address"
        }
      ],
      "stateMutability": "view",
      "type": "function"
    },
    {
      "inputs": [],
      "name": "cityMateria",
      "outputs": [
        {
          "internalType": "contract CityMateria",
          "name": "",
          "type": "address"
        }
      ],
      "stateMutability": "view",
      "type": "function"
    },
    {
      "inputs": [],
      "name": "cityWeapons",
      "outputs": [
        {
          "internalType": "contract CityWeapons",
          "name": "",
          "type": "address"
        }
      ],
      "stateMutability": "view",
      "type": "function"
    },
    {
      "inputs": [
        {
          "internalType": "uint256",
          "name": "",
          "type": "uint256"
        },
        {
          "internalType": "uint256",
          "name": "",
          "type": "uint256"
        }
      ],
      "name": "enchantmentSlotOfWeapon",
      "outputs": [
        {
          "internalType": "uint256",
          "name": "enchantmentId",
          "type": "uint256"
        },
        {
          "internalType": "uint256",
          "name": "level",
          "type": "uint256"
        },
        {
          "internalType": "bool",
          "name": "occupied",
          "type": "bool"
        }
      ],
      "stateMutability": "view",
      "type": "function"
    },
    {
      "inputs": [
        {
          "internalType": "uint256",
          "name": "tokenId",
          "type": "uint256"
        }
      ],
      "name": "getAllEnchantments",
      "outputs": [
        {
          "components": [
            {
              "internalType": "uint256",
              "name": "enchantmentId",
              "type": "uint256"
            },
            {
              "internalType": "uint256",
              "name": "level",
              "type": "uint256"
            },
            {
              "internalType": "bool",
              "name": "occupied",
              "type": "bool"
            }
          ],
          "internalType": "struct CityWeaponSockets.EnchantmentSlot[]",
          "name": "result",
          "type": "tuple[]"
        }
      ],
      "stateMutability": "view",
      "type": "function"
    },
    {
      "inputs": [
        {
          "internalType": "uint256",
          "name": "tokenId",
          "type": "uint256"
        }
      ],
      "name": "getAllMateria",
      "outputs": [
        {
          "components": [
            {
              "internalType": "uint256",
              "name": "materiaId",
              "type": "uint256"
            },
            {
              "internalType": "uint256",
              "name": "level",
              "type": "uint256"
            },
            {
              "internalType": "bool",
              "name": "occupied",
              "type": "bool"
            }
          ],
          "internalType": "struct CityWeaponSockets.MateriaSlot[]",
          "name": "result",
          "type": "tuple[]"
        }
      ],
      "stateMutability": "view",
      "type": "function"
    },
    {
      "inputs": [
        {
          "internalType": "uint256",
          "name": "tokenId",
          "type": "uint256"
        },
        {
          "internalType": "uint256",
          "name": "slotIndex",
          "type": "uint256"
        }
      ],
      "name": "getEnchantmentAtSlot",
      "outputs": [
        {
          "components": [
            {
              "internalType": "uint256",
              "name": "enchantmentId",
              "type": "uint256"
            },
            {
              "internalType": "uint256",
              "name": "level",
              "type": "uint256"
            },
            {
              "internalType": "bool",
              "name": "occupied",
              "type": "bool"
            }
          ],
          "internalType": "struct CityWeaponSockets.EnchantmentSlot",
          "name": "",
          "type": "tuple"
        }
      ],
      "stateMutability": "view",
      "type": "function"
    },
    {
      "inputs": [
        {
          "internalType": "uint256",
          "name": "tokenId",
          "type": "uint256"
        },
        {
          "internalType": "uint256",
          "name": "slotIndex",
          "type": "uint256"
        }
      ],
      "name": "getMateriaAtSlot",
      "outputs": [
        {
          "components": [
            {
              "internalType": "uint256",
              "name": "materiaId",
              "type": "uint256"
            },
            {
              "internalType": "uint256",
              "name": "level",
              "type": "uint256"
            },
            {
              "internalType": "bool",
              "name": "occupied",
              "type": "bool"
            }
          ],
          "internalType": "struct CityWeaponSockets.MateriaSlot",
          "name": "",
          "type": "tuple"
        }
      ],
      "stateMutability": "view",
      "type": "function"
    },
    {
      "inputs": [
        {
          "internalType": "uint256",
          "name": "tokenId",
          "type": "uint256"
        }
      ],
      "name": "getTotalBonuses",
      "outputs": [
        {
          "components": [
            {
              "internalType": "int256",
              "name": "minDamageBonus",
              "type": "int256"
            },
            {
              "internalType": "int256",
              "name": "maxDamageBonus",
              "type": "int256"
            },
            {
              "internalType": "int256",
              "name": "attackSpeedBonus",
              "type": "int256"
            },
            {
              "internalType": "int256",
              "name": "critChanceBpsBonus",
              "type": "int256"
            },
            {
              "internalType": "int256",
              "name": "critMultiplierBpsBonus",
              "type": "int256"
            },
            {
              "internalType": "int256",
              "name": "accuracyBpsBonus",
              "type": "int256"
            },
            {
              "internalType": "int256",
              "name": "rangeBonus",
              "type": "int256"
            },
            {
              "internalType": "int256",
              "name": "maxDurabilityBonus",
              "type": "int256"
            },
            {
              "internalType": "int256",
              "name": "armorPenBpsBonus",
              "type": "int256"
            },
            {
              "internalType": "int256",
              "name": "blockChanceBpsBonus",
              "type": "int256"
            },
            {
              "internalType": "int256",
              "name": "lifeStealBpsBonus",
              "type": "int256"
            },
            {
              "internalType": "int256",
              "name": "energyCostBonus",
              "type": "int256"
            },
            {
              "internalType": "int256",
              "name": "heatGenerationBonus",
              "type": "int256"
            },
            {
              "internalType": "int256",
              "name": "stabilityBonus",
              "type": "int256"
            },
            {
              "internalType": "int256",
              "name": "cooldownMsBonus",
              "type": "int256"
            },
            {
              "internalType": "int256",
              "name": "projectileSpeedBonus",
              "type": "int256"
            },
            {
              "internalType": "int256",
              "name": "aoeRadiusBonus",
              "type": "int256"
            },
            {
              "internalType": "int256",
              "name": "enchantmentSlotsBonus",
              "type": "int256"
            },
            {
              "internalType": "int256",
              "name": "materiaSlotsBonus",
              "type": "int256"
            }
          ],
          "internalType": "struct CityWeaponSockets.TotalBonuses",
          "name": "total",
          "type": "tuple"
        }
      ],
      "stateMutability": "view",
      "type": "function"
    },
    {
      "inputs": [
        {
          "internalType": "uint256",
          "name": "",
          "type": "uint256"
        },
        {
          "internalType": "uint256",
          "name": "",
          "type": "uint256"
        }
      ],
      "name": "materiaSlotOfWeapon",
      "outputs": [
        {
          "internalType": "uint256",
          "name": "materiaId",
          "type": "uint256"
        },
        {
          "internalType": "uint256",
          "name": "level",
          "type": "uint256"
        },
        {
          "internalType": "bool",
          "name": "occupied",
          "type": "bool"
        }
      ],
      "stateMutability": "view",
      "type": "function"
    },
    {
      "inputs": [],
      "name": "owner",
      "outputs": [
        {
          "internalType": "address",
          "name": "",
          "type": "address"
        }
      ],
      "stateMutability": "view",
      "type": "function"
    },
    {
      "inputs": [
        {
          "internalType": "uint256",
          "name": "tokenId",
          "type": "uint256"
        },
        {
          "internalType": "uint256",
          "name": "slotIndex",
          "type": "uint256"
        }
      ],
      "name": "removeEnchantment",
      "outputs": [],
      "stateMutability": "nonpayable",
      "type": "function"
    },
    {
      "inputs": [
        {
          "internalType": "uint256",
          "name": "tokenId",
          "type": "uint256"
        },
        {
          "internalType": "uint256",
          "name": "slotIndex",
          "type": "uint256"
        }
      ],
      "name": "removeMateria",
      "outputs": [],
      "stateMutability": "nonpayable",
      "type": "function"
    },
    {
      "inputs": [],
      "name": "renounceOwnership",
      "outputs": [],
      "stateMutability": "nonpayable",
      "type": "function"
    },
    {
      "inputs": [
        {
          "internalType": "address",
          "name": "caller",
          "type": "address"
        },
        {
          "internalType": "bool",
          "name": "allowed",
          "type": "bool"
        }
      ],
      "name": "setAuthorizedCaller",
      "outputs": [],
      "stateMutability": "nonpayable",
      "type": "function"
    },
    {
      "inputs": [
        {
          "internalType": "address",
          "name": "newOwner",
          "type": "address"
        }
      ],
      "name": "transferOwnership",
      "outputs": [],
      "stateMutability": "nonpayable",
      "type": "function"
    }
  ],
  "bytecode": "0x60e0346200019e57601f62001c9538819003918201601f19168301916001600160401b03831184841017620001a2578084926080946040528339810103126200019e576200004d81620001b6565b906200005c60208201620001b6565b906200007960606200007160408401620001b6565b9201620001b6565b6001600160a01b0393909290841690811562000186575f80546001600160a01b03198116841782556040519387939290918416907f8be0079c531659141344cd1fd0a4f28419497f9722a3daafe3b4186f6b6457e09080a31690811580156200017b575b801562000170575b620001615750608052821660a0521660c052604051611ac99081620001cc82396080518181816101ad015281816103c501528181610aed01528181610c2301528181610e490152611359015260a05181818161046d01528181610ec601526112a5015260c05181818161072901528181610ca0015261106c0152f35b63d92e233d60e01b8152600490fd5b5084841615620000e5565b5084831615620000dd565b604051631e4fbdf760e01b81525f6004820152602490fd5b5f80fd5b634e487b7160e01b5f52604160045260245ffd5b51906001600160a01b03821682036200019e5756fe6080806040526004361015610012575f80fd5b5f3560e01c90816309cd17331461132b575080630d8995d8146112d45780630f08103014611290578063172c8470146112095780631ae9e7de146111d2578063256740de14611177578063454bbd29146110d8578063536fff6c1461109b5780635e8f1b7c14611057578063715018a614611000578063744c22aa14610e02578063755a968114610bdc5780637bf5548114610b435780638da5cb5b14610b1c578063ccde8c8614610ad8578063dcae5c5d14610a7c578063e4551bf31461030b578063e6d8dbe41461017b5763f2fde38b146100ed575f80fd5b34610177576020366003190112610177576101066114a4565b61010e611a68565b6001600160a01b0390811690811561015f575f54826bffffffffffffffffffffffff60a01b8216175f55167f8be0079c531659141344cd1fd0a4f28419497f9722a3daafe3b4186f6b6457e05f80a3005b604051631e4fbdf760e01b81525f6004820152602490fd5b5f80fd5b3461017757602080600319360112610177576040516363ff228760e01b81526004803590820181905291905f816024817f00000000000000000000000000000000000000000000000000000000000000006001600160a01b03165afa801561030057610320915f916102dc575b5001908151926102106101fa8561197f565b946102086040519687611525565b80865261197f565b601f1901825f5b8281106102c6575050505f5b835181101561026757600190825f526003845260405f20815f52845261024b60405f206119dd565b61025582886119b5565b5261026081876119b5565b5001610223565b60408051848152865181860181905287860192820190865f5b82811061028d5784840385f35b909192826060826102b76001948a5160408091805184526020810151602085015201511515910152565b01960191019492919094610280565b6102ce611997565b828289010152018390610217565b6102f891503d805f833e6102f08183611525565b8101906116a1565b5050846101e8565b6040513d5f823e3d90fd5b346101775760203660031901126101775760405161032881611508565b5f81525f60208201525f60408201525f60608201525f60808201525f60a08201525f60c08201525f60e08201525f6101008201525f6101208201525f6101408201525f6101608201525f6101808201525f6101a08201525f6101c08201525f6101e08201525f6102008201525f6102208201525f6102408201526040516363ff228760e01b815260043560048201525f8160248160018060a01b037f0000000000000000000000000000000000000000000000000000000000000000165afa908115610300575f91610a60575b505f5b6103008201518110156106ba576004355f52600260205260405f20815f5260205261042560405f206119dd565b90604082015161043a575b60019150016103f8565b8151602090920151604051632d36406b60e01b815260048101939093526024830152610260826044816001600160a01b037f0000000000000000000000000000000000000000000000000000000000000000165afa918215610300575f92610672575b50610667610240836104b3600195518851611a39565b87526104c760208201516020890151611a39565b60208801526104de60408201516040890151611a39565b60408801526104f560608201516060890151611a39565b606088015261050c60808201516080890151611a39565b608088015261052360a082015160a0890151611a39565b60a088015261053a60c082015160c0890151611a39565b60c088015261055160e082015160e0890151611a39565b60e088015261056a610100820151610100890151611a39565b610100880152610584610120820151610120890151611a39565b61012088015261059e610140820151610140890151611a39565b6101408801526105b8610160820151610160890151611a39565b6101608801526105d2610180820151610180890151611a39565b6101808801526105ec6101a08201516101a0890151611a39565b6101a08801526106066101c08201516101c0890151611a39565b6101c08801526106206101e08201516101e0890151611a39565b6101e088015261063a610200820151610200890151611a39565b610200880152610654610220820151610220890151611a39565b6102208801520151610240860151611a39565b610240850152610430565b91506102603d610260116106b3575b61068b8184611525565b82019161026081840312610177576102406106ab600194610667936115c2565b93505061049d565b503d610681565b505f5b610320820151811015610989576004355f52600360205260405f20815f526020526106ea60405f206119dd565b60408101516106fd575b506001016106bd565b8051602090910151604051631a09c5e960e01b81526004810192909252602482015290610260826044817f00000000000000000000000000000000000000000000000000000000000000006001600160a01b03165afa918215610300575f9261093c575b5060019061092f6102408461077b61032096518951611a39565b885261078f602082015160208a0151611a39565b60208901526107a6604082015160408a0151611a39565b60408901526107bd606082015160608a0151611a39565b60608901526107d4608082015160808a0151611a39565b60808901526107eb60a082015160a08a0151611a39565b60a089015261080260c082015160c08a0151611a39565b60c089015261081960e082015160e08a0151611a39565b60e08901526108326101008201516101008a0151611a39565b61010089015261084c6101208201516101208a0151611a39565b6101208901526108666101408201516101408a0151611a39565b6101408901526108806101608201516101608a0151611a39565b61016089015261089a6101808201516101808a0151611a39565b6101808901526108b46101a08201516101a08a0151611a39565b6101a08901526108ce6101c08201516101c08a0151611a39565b6101c08901526108e86101e08201516101e08a0151611a39565b6101e08901526109026102008201516102008a0151611a39565b61020089015261091c6102208201516102208a0151611a39565b6102208901520151610240870151611a39565b61024086015291506106f4565b91506102603d61026011610982575b6109558184611525565b820190610260838303126101775761092f610240610978600194610320966115c2565b9450505090610761565b503d61094b565b6102608361024060405191805183526020810151602084015260408101516040840152606081015160608401526080810151608084015260a081015160a084015260c081015160c084015260e081015160e08401526101008101516101008401526101208101516101208401526101408101516101408401526101608101516101608401526101808101516101808401526101a08101516101a08401526101c08101516101c08401526101e08101516101e08401526102008101516102008401526102208101516102208401520151610240820152f35b610a7491503d805f833e6102f08183611525565b5050826103f5565b3461017757610a8a3661148e565b90610a93611997565b505f52600360205260405f20905f526020526060610ab360405f206119dd565b610ad6604051809260408091805184526020810151602085015201511515910152565bf35b34610177575f366003190112610177576040517f00000000000000000000000000000000000000000000000000000000000000006001600160a01b03168152602090f35b34610177575f366003190112610177575f546040516001600160a01b039091168152602090f35b3461017757610b513661148e565b9060018060a01b035f541633148015610bc6575b15610bb457805f52600360205260405f20825f526020525f60026040822082815582600182015501557f5592a082ab8786e2d26123b5746de918a2dee59ee6256a5c582e50ebd6bb2da85f80a3005b60405163ea8e4eb560e01b8152600490fd5b50335f52600160205260ff60405f205416610b65565b3461017757610bea366114ba565b5f549193916001600160a01b0390811633148015610dec575b15610bb4576040516363ff228760e01b8152600481018490525f816024817f000000000000000000000000000000000000000000000000000000000000000086165afa801561030057610320915f91610dd0575b500151841015610d4857825f526020906003825260405f20855f52825260ff600260405f20015416610d48575f60249160405192838092634f43792560e01b82528a60048301527f0000000000000000000000000000000000000000000000000000000000000000165afa8015610300575f915f91610d64575b5015610d48578215908115610d5a575b50610d48577fa6c0ccbd1b69f572d39c65693694251bcd7129431e952638ad4bb18495ff510891610d3f604051610d17816114d8565b878152828482015260016040820152855f526003845260405f20875f52845260405f20611a0a565b604051908152a4005b604051632a9ffab760e21b8152600490fd5b9050821186610ce1565b9150503d805f833e610d768183611525565b810160c0828203126101775781519067ffffffffffffffff821161017757610d9f918301611547565b50600882820151101561017757600c6040820151101561017757610dca60a0608083015192016115b5565b87610cd1565b610de491503d805f833e6102f08183611525565b505087610c57565b50335f52600160205260ff60405f205416610c03565b3461017757610e10366114ba565b5f549193916001600160a01b0390811633148015610fea575b15610bb4576040516363ff228760e01b8152600481018490525f816024817f000000000000000000000000000000000000000000000000000000000000000086165afa801561030057610300915f91610fce575b500151841015610d4857825f526020906002825260405f20855f52825260ff600260405f20015416610d48575f602491604051928380926360756c9160e01b82528a60048301527f0000000000000000000000000000000000000000000000000000000000000000165afa8015610300575f915f91610f6f575b5015610d48578215908115610f65575b50610d48577fef5c3094fe44494165d3e838f078d86149ff1cbb056ff4027de8410d5be155ec91610d3f604051610f3d816114d8565b878152828482015260016040820152855f526002845260405f20875f52845260405f20611a0a565b9050821186610f07565b9150503d805f833e610f818183611525565b810160a0828203126101775781519067ffffffffffffffff821161017757610faa918301611547565b50600f82820151101561017757610fc86080606083015192016115b5565b87610ef7565b610fe291503d805f833e6102f08183611525565b505087610e7d565b50335f52600160205260ff60405f205416610e29565b34610177575f36600319011261017757611018611a68565b5f80546001600160a01b0319811682556001600160a01b03167f8be0079c531659141344cd1fd0a4f28419497f9722a3daafe3b4186f6b6457e08280a3005b34610177575f366003190112610177576040517f00000000000000000000000000000000000000000000000000000000000000006001600160a01b03168152602090f35b34610177576020366003190112610177576001600160a01b036110bc6114a4565b165f526001602052602060ff60405f2054166040519015158152f35b34610177576040366003190112610177576110f16114a4565b602435908115159081830361017757611108611a68565b6001600160a01b0316918215611165577f1eff62a53441c7d0125c22f2a9a324e206b34efa41e19469d7efb9bb703d21a39161115c602092855f526001845260405f209060ff801983541691151516179055565b604051908152a2005b60405163d92e233d60e01b8152600490fd5b34610177576111853661148e565b905f52600260205260405f20905f5260205260405f2080546111ce60ff600260018501549401541660405193849384919260409194936060840195845260208401521515910152565b0390f35b34610177576111e03661148e565b906111e9611997565b505f52600260205260405f20905f526020526060610ab360405f206119dd565b34610177576112173661148e565b9060018060a01b035f54163314801561127a575b15610bb457805f52600260205260405f20825f526020525f60026040822082815582600182015501557ff442f8c380fe82b2f70945dd78ca935470f64b8a4d683de2a8df39c28054cb4d5f80a3005b50335f52600160205260ff60405f20541661122b565b34610177575f366003190112610177576040517f00000000000000000000000000000000000000000000000000000000000000006001600160a01b03168152602090f35b34610177576112e23661148e565b905f52600360205260405f20905f5260205260405f2080546111ce60ff600260018501549401541660405193849384919260409194936060840195845260208401521515910152565b3461017757602080600319360112610177576363ff228760e01b825260048035908301819052915f816024817f00000000000000000000000000000000000000000000000000000000000000006001600160a01b03165afa801561030057610300915f91611472575b5001908151926113a66101fa8561197f565b601f1901825f5b82811061145c575050505f5b83518110156113fd57600190825f526002845260405f20815f5284526113e160405f206119dd565b6113eb82886119b5565b526113f681876119b5565b50016113b9565b60408051848152865181860181905287860192820190865f5b8281106114235784840385f35b9091928260608261144d6001948a5160408091805184526020810151602085015201511515910152565b01960191019492919094611416565b611464611997565b8282890101520183906113ad565b61148691503d805f833e6102f08183611525565b505084611394565b6040906003190112610177576004359060243590565b600435906001600160a01b038216820361017757565b60809060031901126101775760043590602435906044359060643590565b6060810190811067ffffffffffffffff8211176114f457604052565b634e487b7160e01b5f52604160045260245ffd5b610260810190811067ffffffffffffffff8211176114f457604052565b90601f8019910116810190811067ffffffffffffffff8211176114f457604052565b919080601f8401121561017757825167ffffffffffffffff81116114f4576020906040519261157f83601f19601f8501160185611525565b818452828287010111610177575f5b8181106115a25750825f9394955001015290565b858101830151848201840152820161158e565b5190811515820361017757565b919082610260910312610177576040516115db81611508565b8092805182526020810151602083015260408101516040830152606081015160608301526080810151608083015260a081015160a083015260c081015160c083015260e081015160e0830152610100808201519083015261012080820151908301526101408082015190830152610160808201519083015261018080820151908301526101a080820151908301526101c080820151908301526101e080820151908301526102008082015190830152610220808201519083015261024080910151910152565b90916104a08284031261017757815167ffffffffffffffff81116101775782016103c09081818603126101775760405191820182811067ffffffffffffffff8211176114f45760405280518252602081015167ffffffffffffffff8111610177578561170e918301611547565b60208301526040810151600f8110156101775760408301526060810151600d8110156101775760608301526080810151608083015260a081015160a083015260c081015160c083015260e081015160e08301526101008101516101008301526101208101516101208301526101408101516101408301526101608101516101608301526101808101516101808301526101a08101516101a08301526101c08101516101c08301526101e08101516101e0830152610200810151610200830152610220810151610220830152610240810151610240830152610260808201519083015261028080820151908301526102a080820151908301526102c080820151908301526102e08082015190830152610300808201519083015261032080820151908301526103408082015190830152610360808201519083015261038080820151908301526118616103a08092016115b5565b9082015292610220838203601f19011261017757604051908161022081011067ffffffffffffffff610220840111176114f45761022082016040526020840151825260408401516020830152606084015160408301526080840151606083015260a0840151608083015260c084015160a083015260e084015160c083015261010084015160e08301526101208401516101008301526101408401516101208301526101608401516101408301526101808401516101608301526101a0840151600481101561017757826102409161018061197c9501526101c08601516101a08201526101e08601516101c082015261195c61020087016115b5565b6101e082015261196f61022087016115b5565b61020082015294016115c2565b90565b67ffffffffffffffff81116114f45760051b60200190565b604051906119a4826114d8565b5f6040838281528260208201520152565b80518210156119c95760209160051b010190565b634e487b7160e01b5f52603260045260245ffd5b906040516119ea816114d8565b604060ff6002839580548552600181015460208601520154161515910152565b60026040611a379380518455602081015160018501550151151591019060ff801983541691151516179055565b565b9190915f8382019384129112908015821691151617611a5457565b634e487b7160e01b5f52601160045260245ffd5b5f546001600160a01b03163303611a7b57565b60405163118cdaa760e01b8152336004820152602490fdfea26469706673582212202be0bf61b1b13cd4f3e76be23f3130ac2376c2baad734acbef91d6b70307e3d264736f6c63430008180033",
  "linkReferences": {},
  "deployedLinkReferences": {},
  "immutableReferences": {
    "12731": [
      {
        "length": 32,
        "start": 429
      },
      {
        "length": 32,
        "start": 965
      },
      {
        "length": 32,
        "start": 2797
      },
      {
        "length": 32,
        "start": 3107
      },
      {
        "length": 32,
        "start": 3657
      },
      {
        "length": 32,
        "start": 4953
      }
    ],
    "12734": [
      {
        "length": 32,
        "start": 1133
      },
      {
        "length": 32,
        "start": 3782
      },
      {
        "length": 32,
        "start": 4773
      }
    ],
    "12737": [
      {
        "length": 32,
        "start": 1833
      },
      {
        "length": 32,
        "start": 3232
      },
      {
        "length": 32,
        "start": 4204
      }
    ]
  },
  "inputSourceName": "project/contracts/crafting/CityWeaponSockets.sol",
  "buildInfoId": "solc-0_8_24-005f9e5cc8e271800ea5746a31bff456af116437"
}